{
  "address": "0x4ca6b875f396199a2434652206bed4c06048e997",
  "abi": [
    {
      "inputs": [
        {
          "internalType": "contract IReward",
          "name": "rewardAddress",
          "type": "address"
        },
        {
          "components": [
            {
              "internalType": "uint256",
              "name": "rewardRateMillionth",
              "type": "uint256"
            },
            {
              "internalType": "uint256",
              "name": "fixedRewardRateThousandsMillionth",
              "type": "uint256"
            }
          ],
          "internalType": "struct RewardsGenerator.Config",
          "name": "config",
          "type": "tuple"
        },
        {
          "internalType": "address[]",
          "name": "initialGames",
          "type": "address[]"
        },
        {
          "components": [
            {
              "internalType": "address",
              "name": "account",
              "type": "address"
            },
            {
              "internalType": "uint256",
              "name": "amount",
              "type": "uint256"
            }
          ],
          "internalType": "struct RewardsGenerator.InitialAccount[]",
          "name": "initialAccounts",
          "type": "tuple[]"
        }
      ],
      "stateMutability": "nonpayable",
      "type": "constructor"
    },
    {
      "anonymous": false,
      "inputs": [
        {
          "indexed": true,
          "internalType": "address",
          "name": "owner",
          "type": "address"
        },
        {
          "indexed": true,
          "internalType": "address",
          "name": "spender",
          "type": "address"
        },
        {
          "indexed": false,
          "internalType": "uint256",
          "name": "value",
          "type": "uint256"
        }
      ],
      "name": "Approval",
      "type": "event"
    },
    {
      "anonymous": false,
      "inputs": [
        {
          "indexed": true,
          "internalType": "address",
          "name": "game",
          "type": "address"
        },
        {
          "indexed": false,
          "internalType": "uint256",
          "name": "weight",
          "type": "uint256"
        },
        {
          "indexed": false,
          "internalType": "uint256",
          "name": "timestamp",
          "type": "uint256"
        }
      ],
      "name": "GameEnabled",
      "type": "event"
    },
    {
      "anonymous": false,
      "inputs": [
        {
          "indexed": true,
          "internalType": "address",
          "name": "from",
          "type": "address"
        },
        {
          "indexed": true,
          "internalType": "address",
          "name": "to",
          "type": "address"
        },
        {
          "indexed": false,
          "internalType": "uint256",
          "name": "value",
          "type": "uint256"
        }
      ],
      "name": "Transfer",
      "type": "event"
    },
    {
      "inputs": [],
      "name": "FIXED_REWARD_RATE_thousands_millionth",
      "outputs": [
        {
          "internalType": "uint256",
          "name": "",
          "type": "uint256"
        }
      ],
      "stateMutability": "view",
      "type": "function"
    },
    {
      "inputs": [],
      "name": "REWARD_RATE_millionth",
      "outputs": [
        {
          "internalType": "uint256",
          "name": "",
          "type": "uint256"
        }
      ],
      "stateMutability": "view",
      "type": "function"
    },
    {
      "inputs": [
        {
          "internalType": "address",
          "name": "account",
          "type": "address"
        },
        {
          "internalType": "uint256",
          "name": "amount",
          "type": "uint256"
        }
      ],
      "name": "add",
      "outputs": [],
      "stateMutability": "nonpayable",
      "type": "function"
    },
    {
      "inputs": [
        {
          "internalType": "address",
          "name": "",
          "type": "address"
        },
        {
          "internalType": "address",
          "name": "",
          "type": "address"
        }
      ],
      "name": "allowance",
      "outputs": [
        {
          "internalType": "uint256",
          "name": "",
          "type": "uint256"
        }
      ],
      "stateMutability": "pure",
      "type": "function"
    },
    {
      "inputs": [
        {
          "internalType": "address",
          "name": "",
          "type": "address"
        },
        {
          "internalType": "uint256",
          "name": "",
          "type": "uint256"
        }
      ],
      "name": "approve",
      "outputs": [
        {
          "internalType": "bool",
          "name": "",
          "type": "bool"
        }
      ],
      "stateMutability": "nonpayable",
      "type": "function"
    },
    {
      "inputs": [
        {
          "internalType": "address",
          "name": "owner",
          "type": "address"
        }
      ],
      "name": "balanceOf",
      "outputs": [
        {
          "internalType": "uint256",
          "name": "",
          "type": "uint256"
        }
      ],
      "stateMutability": "view",
      "type": "function"
    },
    {
      "inputs": [
        {
          "internalType": "address",
          "name": "to",
          "type": "address"
        }
      ],
      "name": "claimFixedRewards",
      "outputs": [],
      "stateMutability": "nonpayable",
      "type": "function"
    },
    {
      "inputs": [
        {
          "internalType": "address",
          "name": "to",
          "type": "address"
        }
      ],
      "name": "claimSharedPoolRewards",
      "outputs": [],
      "stateMutability": "nonpayable",
      "type": "function"
    },
    {
      "inputs": [],
      "name": "decimals",
      "outputs": [
        {
          "internalType": "uint8",
          "name": "",
          "type": "uint8"
        }
      ],
      "stateMutability": "pure",
      "type": "function"
    },
    {
      "inputs": [
        {
          "internalType": "address",
          "name": "account",
          "type": "address"
        }
      ],
      "name": "earnedFromFixedRate",
      "outputs": [
        {
          "internalType": "uint256",
          "name": "",
          "type": "uint256"
        }
      ],
      "stateMutability": "view",
      "type": "function"
    },
    {
      "inputs": [
        {
          "internalType": "address",
          "name": "account",
          "type": "address"
        }
      ],
      "name": "earnedFromPoolRate",
      "outputs": [
        {
          "internalType": "uint256",
          "name": "",
          "type": "uint256"
        }
      ],
      "stateMutability": "view",
      "type": "function"
    },
    {
      "inputs": [
        {
          "internalType": "address",
          "name": "game",
          "type": "address"
        },
        {
          "internalType": "uint256",
          "name": "weight",
          "type": "uint256"
        }
      ],
      "name": "enableGame",
      "outputs": [],
      "stateMutability": "nonpayable",
      "type": "function"
    },
    {
      "inputs": [],
      "name": "getTotalRewardPerPointWithPrecision24",
      "outputs": [
        {
          "internalType": "uint256",
          "name": "",
          "type": "uint256"
        }
      ],
      "stateMutability": "view",
      "type": "function"
    },
    {
      "inputs": [],
      "name": "lastUpdated",
      "outputs": [
        {
          "internalType": "uint256",
          "name": "",
          "type": "uint256"
        }
      ],
      "stateMutability": "view",
      "type": "function"
    },
    {
      "inputs": [
        {
          "internalType": "address",
          "name": "from",
          "type": "address"
        },
        {
          "internalType": "address",
          "name": "to",
          "type": "address"
        },
        {
          "internalType": "uint256",
          "name": "amount",
          "type": "uint256"
        }
      ],
      "name": "move",
      "outputs": [],
      "stateMutability": "nonpayable",
      "type": "function"
    },
    {
      "inputs": [],
      "name": "name",
      "outputs": [
        {
          "internalType": "string",
          "name": "",
          "type": "string"
        }
      ],
      "stateMutability": "pure",
      "type": "function"
    },
    {
      "inputs": [
        {
          "internalType": "contract IReward",
          "name": "rewardAddress",
          "type": "address"
        },
        {
          "components": [
            {
              "internalType": "uint256",
              "name": "rewardRateMillionth",
              "type": "uint256"
            },
            {
              "internalType": "uint256",
              "name": "fixedRewardRateThousandsMillionth",
              "type": "uint256"
            }
          ],
          "internalType": "struct RewardsGenerator.Config",
          "name": "config",
          "type": "tuple"
        },
        {
          "internalType": "address[]",
          "name": "initialGames",
          "type": "address[]"
        },
        {
          "components": [
            {
              "internalType": "address",
              "name": "account",
              "type": "address"
            },
            {
              "internalType": "uint256",
              "name": "amount",
              "type": "uint256"
            }
          ],
          "internalType": "struct RewardsGenerator.InitialAccount[]",
          "name": "initialAccounts",
          "type": "tuple[]"
        }
      ],
      "name": "postUpgrade",
      "outputs": [],
      "stateMutability": "nonpayable",
      "type": "function"
    },
    {
      "inputs": [
        {
          "internalType": "address",
          "name": "account",
          "type": "address"
        },
        {
          "internalType": "uint256",
          "name": "amount",
          "type": "uint256"
        }
      ],
      "name": "remove",
      "outputs": [],
      "stateMutability": "nonpayable",
      "type": "function"
    },
    {
      "inputs": [],
      "name": "reward",
      "outputs": [
        {
          "internalType": "contract IReward",
          "name": "",
          "type": "address"
        }
      ],
      "stateMutability": "view",
      "type": "function"
    },
    {
      "inputs": [],
      "name": "symbol",
      "outputs": [
        {
          "internalType": "string",
          "name": "",
          "type": "string"
        }
      ],
      "stateMutability": "view",
      "type": "function"
    },
    {
      "inputs": [],
      "name": "totalSupply",
      "outputs": [
        {
          "internalType": "uint256",
          "name": "",
          "type": "uint256"
        }
      ],
      "stateMutability": "view",
      "type": "function"
    },
    {
      "inputs": [
        {
          "internalType": "address",
          "name": "",
          "type": "address"
        },
        {
          "internalType": "uint256",
          "name": "",
          "type": "uint256"
        }
      ],
      "name": "transfer",
      "outputs": [
        {
          "internalType": "bool",
          "name": "",
          "type": "bool"
        }
      ],
      "stateMutability": "nonpayable",
      "type": "function"
    },
    {
      "inputs": [
        {
          "internalType": "address",
          "name": "",
          "type": "address"
        },
        {
          "internalType": "address",
          "name": "",
          "type": "address"
        },
        {
          "internalType": "uint256",
          "name": "",
          "type": "uint256"
        }
      ],
      "name": "transferFrom",
      "outputs": [
        {
          "internalType": "bool",
          "name": "",
          "type": "bool"
        }
      ],
      "stateMutability": "nonpayable",
      "type": "function"
    },
    {
      "inputs": [],
      "name": "update",
      "outputs": [],
      "stateMutability": "nonpayable",
      "type": "function"
    }
  ],
  "contractName": "RewardsGenerator",
  "sourceName": "src/conquest_token/RewardsGenerator.sol",
  "bytecode": "0x60e06040523480156200001157600080fd5b5060405162002411380380620024118339810160408190526200003491620006d1565b6001600160a01b03841660c0528251608052602083015160a0526200005c8484848462000066565b50505050620008df565b60045460ff166200014d5760005b8251811015620000c957620000b4838281518110620000975762000097620007ed565b6020026020010151670de0b6b3a76400006200015360201b60201c565b80620000c08162000819565b91505062000074565b5060005b81518110156200013e5762000129828281518110620000f057620000f0620007ed565b602002602001015160000151838381518110620001115762000111620007ed565b602002602001015160200151620001b660201b60201c565b80620001358162000819565b915050620000cd565b506004805460ff191660011790555b50505050565b6001600160a01b03821660008181526003602052604090819020839055517f50b08f8489c009db3c1b3f160cc0dae1c0c6706774750c001e4c083f9483d5f390620001aa9084904290918252602082015260400190565b60405180910390a25050565b80620001c0575050565b600080620001ce8462000270565b600080546001600160701b038785018116600160901b026001600160901b039092169190911782556001600160a01b0388168083526001602052604080842080548a87019094166001600160701b031990941693909317909255905193955091935090917fddf252ad1be2c89b69c2b068fc378daa952ba7f163c4a11628f55a4df523b3ef90620002629087815260200190565b60405180910390a350505050565b60008080806200027f6200029f565b909250905060006200029286836200032f565b9296929550919350505050565b600080546080516001600160701b03600160901b83041692918291620002cf9185919064ffffffffff16620004c9565b600054909150620002f49082906501000000000090046001600160681b031662000837565b600080546001600160901b031916650100000000006001600160681b0384160264ffffffffff1916174264ffffffffff161790559293915050565b6001600160a01b038216600090815260016020819052604090912080549101546001600160701b03808316926200037d92600160701b9091046001600160681b031691849186911662000521565b6001600160a01b038416600090815260016020818152604080842092830180546001600160701b0319166001600160701b0396909616959095179094558154600160701b600160d81b031916600160701b6001600160681b03881681029190911790925560029052919020540464ffffffffff166367af70918110156200040557506367af70915b6000633b9aca0060a0518484426200041e919062000852565b6200042a91906200086c565b6200043691906200086c565b6200044291906200088e565b6001600160a01b0386166000908152600260205260408120805464ffffffffff4216600160701b0264ffffffffff60701b1982168117835593945084939192916200049d9185916001600160701b03908116911617620008b1565b92506101000a8154816001600160701b0302191690836001600160701b03160217905550505092915050565b600083620004da575060006200051a565b8369d3c21bcecceda100000084620004f3854262000852565b620004ff91906200086c565b6200050b91906200086c565b6200051791906200088e565b90505b9392505050565b600069d3c21bcecceda100000064e8d4a5100062000540878662000852565b6200054c90876200086c565b6200055891906200086c565b6200056491906200088e565b62000570908362000837565b95945050505050565b6001600160a01b03811681146200058f57600080fd5b50565b634e487b7160e01b600052604160045260246000fd5b604080519081016001600160401b0381118282101715620005cd57620005cd62000592565b60405290565b604051601f8201601f191681016001600160401b0381118282101715620005fe57620005fe62000592565b604052919050565b60006001600160401b0382111562000622576200062262000592565b5060051b60200190565b600082601f8301126200063e57600080fd5b8151602062000657620006518362000606565b620005d3565b82815260069290921b840181019181810190868411156200067757600080fd5b8286015b84811015620006c65760408189031215620006965760008081fd5b620006a0620005a8565b8151620006ad8162000579565b815281850151858201528352918301916040016200067b565b509695505050505050565b60008060008084860360a0811215620006e957600080fd5b8551620006f68162000579565b945060206040601f19830112156200070d57600080fd5b62000717620005a8565b878201518152604088015182820152606088015190955091506001600160401b03808311156200074657600080fd5b828801925088601f8401126200075b57600080fd5b82516200076c620006518262000606565b81815260059190911b8401830190838101908b8311156200078c57600080fd5b948401945b82861015620007b7578551620007a78162000579565b8252948401949084019062000791565b60808b01519097509450505080831115620007d157600080fd5b5050620007e1878288016200062c565b91505092959194509250565b634e487b7160e01b600052603260045260246000fd5b634e487b7160e01b600052601160045260246000fd5b600060001982141562000830576200083062000803565b5060010190565b600082198211156200084d576200084d62000803565b500190565b60008282101562000867576200086762000803565b500390565b600081600019048311821515161562000889576200088962000803565b500290565b600082620008ac57634e487b7160e01b600052601260045260246000fd5b500490565b60006001600160701b03828116848216808303821115620008d657620008d662000803565b01949350505050565b60805160a05160c051611ad162000940600039600081816102ae015281816105350152610d780152600081816102250152818161089e015261143601526000818161031f015281816107c001528181610a420152610fb90152611ad16000f3fe608060405234801561001057600080fd5b50600436106101985760003560e01c806370a08231116100e3578063b061963c1161008c578063dd62ed3e11610066578063dd62ed3e14610426578063f5d82b6b1461043c578063ff1e03e91461044f57600080fd5b8063b061963c146103f1578063bb35783b14610404578063d0b06f5d1461041757600080fd5b8063a8671f6a116100bd578063a8671f6a146103cb578063a9059cbb146101fd578063abe7f1ab146103de57600080fd5b806370a082311461034157806395d89b4114610387578063a2e62045146103c357600080fd5b80631eadd9b411610145578063313ce5671161011f578063313ce5671461030357806348483382146103125780635d5edd071461031a57600080fd5b80631eadd9b414610296578063228cb733146102a957806323b872dd146102f557600080fd5b806312fd78191161017657806312fd78191461022057806316cf09f81461025557806318160ddd1461026857600080fd5b8063066112f91461019d57806306fdde03146101b2578063095ea7b3146101fd575b600080fd5b6101b06101ab36600461156c565b610462565b005b60408051808201909152601281527f436f6e717565737420763020506f696e7473000000000000000000000000000060208201525b6040516101f49190611589565b60405180910390f35b61021061020b3660046115fc565b610599565b60405190151581526020016101f4565b6102477f000000000000000000000000000000000000000000000000000000000000000081565b6040519081526020016101f4565b6101b06102633660046115fc565b610603565b600054720100000000000000000000000000000000000090046dffffffffffffffffffffffffffff16610247565b6101b06102a436600461178b565b6106c7565b6102d07f000000000000000000000000000000000000000000000000000000000000000081565b60405173ffffffffffffffffffffffffffffffffffffffff90911681526020016101f4565b61021061020b3660046118b1565b604051601281526020016101f4565b61024761078f565b6102477f000000000000000000000000000000000000000000000000000000000000000081565b61024761034f36600461156c565b73ffffffffffffffffffffffffffffffffffffffff166000908152600160205260409020546dffffffffffffffffffffffffffff1690565b6101e76040518060400160405280600581526020017f504f494e5400000000000000000000000000000000000000000000000000000081525081565b6101b0610816565b6102476103d936600461156c565b61081e565b6101b06103ec3660046115fc565b610941565b6102476103ff36600461156c565b6109c1565b6101b06104123660046118b1565b610ad8565b60005464ffffffffff16610247565b6102476104343660046118f2565b600092915050565b6101b061044a3660046115fc565b610b62565b6101b061045d36600461156c565b610be2565b33600061046e8261081e565b905080156105945773ffffffffffffffffffffffffffffffffffffffff8281166000908152600260205260409081902080547fffffffffffffffffffffffffff00000000000000000000000000000000000000166e0100000000000000000000000000004264ffffffffff16027fffffffffffffffffffffffffffffffffffff000000000000000000000000000016179055517f21670f220000000000000000000000000000000000000000000000000000000081528482166004820152602481018390527f0000000000000000000000000000000000000000000000000000000000000000909116906321670f2290604401600060405180830381600087803b15801561057b57600080fd5b505af115801561058f573d6000803e3d6000fd5b505050505b505050565b6040517f08c379a000000000000000000000000000000000000000000000000000000000815260206004820152601060248201527f4e4f4e5f5452414e5346455241424c450000000000000000000000000000000060448201526000906064015b60405180910390fd5b7fb53127684a568b3173ae13b9f8a6016e243e63b6e8ee1178d6a717850b5d61035473ffffffffffffffffffffffffffffffffffffffff163373ffffffffffffffffffffffffffffffffffffffff16146106b9576040517f08c379a000000000000000000000000000000000000000000000000000000000815260206004820152600e60248201527f4e4f545f415554484f52495a454400000000000000000000000000000000000060448201526064016105fa565b6106c38282610dde565b5050565b7fb53127684a568b3173ae13b9f8a6016e243e63b6e8ee1178d6a717850b5d61035473ffffffffffffffffffffffffffffffffffffffff163373ffffffffffffffffffffffffffffffffffffffff161461077d576040517f08c379a000000000000000000000000000000000000000000000000000000000815260206004820152600e60248201527f4e4f545f415554484f52495a454400000000000000000000000000000000000060448201526064016105fa565b61078984848484610e4d565b50505050565b600080546107ec906dffffffffffffffffffffffffffff7201000000000000000000000000000000000000820416907f00000000000000000000000000000000000000000000000000000000000000009064ffffffffff16610f35565b60005461081191906501000000000090046cffffffffffffffffffffffffff1661195a565b905090565b6106c3610f83565b73ffffffffffffffffffffffffffffffffffffffff81166000908152600260205260408120546e010000000000000000000000000000900464ffffffffff166367af709181101561087057506367af70915b73ffffffffffffffffffffffffffffffffffffffff8316600090815260016020526040812054633b9aca00907f0000000000000000000000000000000000000000000000000000000000000000906dffffffffffffffffffffffffffff166108d88542611972565b6108e29190611989565b6108ec9190611989565b6108f691906119c6565b73ffffffffffffffffffffffffffffffffffffffff8516600090815260026020526040902054909150610939906dffffffffffffffffffffffffffff168261195a565b949350505050565b336000908152600360205260409020546109b7576040517f08c379a000000000000000000000000000000000000000000000000000000000815260206004820152601360248201527f4e4f545f415554484f52495a45445f47414d450000000000000000000000000060448201526064016105fa565b6106c38282611081565b73ffffffffffffffffffffffffffffffffffffffff81166000908152600160205260408120548154610ad2916cffffffffffffffffffffffffff6e010000000000000000000000000000820416916dffffffffffffffffffffffffffff91821691610a6e9172010000000000000000000000000000000000008104909116907f00000000000000000000000000000000000000000000000000000000000000009064ffffffffff16610f35565b600054610a9391906501000000000090046cffffffffffffffffffffffffff1661195a565b73ffffffffffffffffffffffffffffffffffffffff8616600090815260016020819052604090912001546dffffffffffffffffffffffffffff1661117c565b92915050565b33600090815260036020526040902054610b4e576040517f08c379a000000000000000000000000000000000000000000000000000000000815260206004820152601360248201527f4e4f545f415554484f52495a45445f47414d450000000000000000000000000060448201526064016105fa565b610b588382611081565b61059482826111ca565b33600090815260036020526040902054610bd8576040517f08c379a000000000000000000000000000000000000000000000000000000000815260206004820152601360248201527f4e4f545f415554484f52495a45445f47414d450000000000000000000000000060448201526064016105fa565b6106c382826111ca565b336000818152600160205260408120546dffffffffffffffffffffffffffff1690610c0b610f83565b73ffffffffffffffffffffffffffffffffffffffff8516600090815260016020819052604082208054910154929450909250610c7d916e0100000000000000000000000000009091046cffffffffffffffffffffffffff1690859085906dffffffffffffffffffffffffffff1661117c565b73ffffffffffffffffffffffffffffffffffffffff8516600090815260016020526040902080547fffffffffff00000000000000000000000000ffffffffffffffffffffffffffff166e0100000000000000000000000000006cffffffffffffffffffffffffff86160217905590508015610dd75773ffffffffffffffffffffffffffffffffffffffff8481166000908152600160208190526040918290200180547fffffffffffffffffffffffffffffffffffff0000000000000000000000000000169055517f21670f220000000000000000000000000000000000000000000000000000000081528682166004820152602481018390527f0000000000000000000000000000000000000000000000000000000000000000909116906321670f2290604401600060405180830381600087803b158015610dbe57600080fd5b505af1158015610dd2573d6000803e3d6000fd5b505050505b5050505050565b73ffffffffffffffffffffffffffffffffffffffff821660008181526003602052604090819020839055517f50b08f8489c009db3c1b3f160cc0dae1c0c6706774750c001e4c083f9483d5f390610e419084904290918252602082015260400190565b60405180910390a25050565b60045460ff166107895760005b8251811015610ea057610e8e838281518110610e7857610e78611a01565b6020026020010151670de0b6b3a7640000610dde565b80610e9881611a30565b915050610e5a565b5060005b8151811015610f0357610ef1828281518110610ec257610ec2611a01565b602002602001015160000151838381518110610ee057610ee0611a01565b6020026020010151602001516111ca565b80610efb81611a30565b915050610ea4565b50600480547fffffffffffffffffffffffffffffffffffffffffffffffffffffffffffffff0016600117905550505050565b600083610f4457506000610f7c565b8369d3c21bcecceda100000084610f5b8542611972565b610f659190611989565b610f6f9190611989565b610f7991906119c6565b90505b9392505050565b600080546dffffffffffffffffffffffffffff720100000000000000000000000000000000000082041691908190610fe59084907f00000000000000000000000000000000000000000000000000000000000000009064ffffffffff16610f35565b60005490915061100e9082906501000000000090046cffffffffffffffffffffffffff1661195a565b600080547fffffffffffffffffffffffffffff00000000000000000000000000000000000016650100000000006cffffffffffffffffffffffffff8416027fffffffffffffffffffffffffffffffffffffffffffffffffffffff000000000016174264ffffffffff161790559293915050565b8061108a575050565b600080611096846112b8565b600080546dffffffffffffffffffffffffffff878503811672010000000000000000000000000000000000000271ffffffffffffffffffffffffffffffffffff90921691909117825573ffffffffffffffffffffffffffffffffffffffff88168083526001602052604080842080548a87039094167fffffffffffffffffffffffffffffffffffff0000000000000000000000000000909416939093179092559051939550919350917fddf252ad1be2c89b69c2b068fc378daa952ba7f163c4a11628f55a4df523b3ef9061116e9087815260200190565b60405180910390a350505050565b600069d3c21bcecceda100000064e8d4a510006111998786611972565b6111a39087611989565b6111ad9190611989565b6111b791906119c6565b6111c1908361195a565b95945050505050565b806111d3575050565b6000806111df846112b8565b600080546dffffffffffffffffffffffffffff878501811672010000000000000000000000000000000000000271ffffffffffffffffffffffffffffffffffff90921691909117825573ffffffffffffffffffffffffffffffffffffffff88168083526001602052604080842080548a87019094167fffffffffffffffffffffffffffffffffffff000000000000000000000000000090941693909317909255905193955091935090917fddf252ad1be2c89b69c2b068fc378daa952ba7f163c4a11628f55a4df523b3ef9061116e9087815260200190565b6000806000806112c6610f83565b9150915060006112d686836112e3565b9296929550919350505050565b73ffffffffffffffffffffffffffffffffffffffff8216600090815260016020819052604090912080549101546dffffffffffffffffffffffffffff80831692611354926e0100000000000000000000000000009091046cffffffffffffffffffffffffff1691849186911661117c565b73ffffffffffffffffffffffffffffffffffffffff8416600090815260016020818152604080842092830180547fffffffffffffffffffffffffffffffffffff0000000000000000000000000000166dffffffffffffffffffffffffffff969096169590951790945581547fffffffffff00000000000000000000000000ffffffffffffffffffffffffffff166e0100000000000000000000000000006cffffffffffffffffffffffffff881681029190911790925560029052919020540464ffffffffff166367af709181101561142d57506367af70915b6000633b9aca007f0000000000000000000000000000000000000000000000000000000000000000846114608542611972565b61146a9190611989565b6114749190611989565b61147e91906119c6565b73ffffffffffffffffffffffffffffffffffffffff86166000908152600260205260408120805464ffffffffff42166e010000000000000000000000000000027fffffffffffffffffffffffffff0000000000ffffffffffffffffffffffffffff821681178355939450849391929161150d9185916dffffffffffffffffffffffffffff908116911617611a69565b92506101000a8154816dffffffffffffffffffffffffffff02191690836dffffffffffffffffffffffffffff160217905550505092915050565b73ffffffffffffffffffffffffffffffffffffffff8116811461156957600080fd5b50565b60006020828403121561157e57600080fd5b8135610f7c81611547565b600060208083528351808285015260005b818110156115b65785810183015185820160400152820161159a565b818111156115c8576000604083870101525b50601f017fffffffffffffffffffffffffffffffffffffffffffffffffffffffffffffffe016929092016040019392505050565b6000806040838503121561160f57600080fd5b823561161a81611547565b946020939093013593505050565b7f4e487b7100000000000000000000000000000000000000000000000000000000600052604160045260246000fd5b6040805190810167ffffffffffffffff8111828210171561167a5761167a611628565b60405290565b604051601f82017fffffffffffffffffffffffffffffffffffffffffffffffffffffffffffffffe016810167ffffffffffffffff811182821017156116c7576116c7611628565b604052919050565b600067ffffffffffffffff8211156116e9576116e9611628565b5060051b60200190565b600082601f83011261170457600080fd5b81356020611719611714836116cf565b611680565b82815260069290921b8401810191818101908684111561173857600080fd5b8286015b8481101561178057604081890312156117555760008081fd5b61175d611657565b813561176881611547565b8152818501358582015283529183019160400161173c565b509695505050505050565b60008060008084860360a08112156117a257600080fd5b85356117ad81611547565b9450602060407fffffffffffffffffffffffffffffffffffffffffffffffffffffffffffffffe0830112156117e157600080fd5b6117e9611657565b87820135815260408801358282015294506060870135915067ffffffffffffffff8083111561181757600080fd5b828801925088601f84011261182b57600080fd5b8235611839611714826116cf565b81815260059190911b8401830190838101908b83111561185857600080fd5b948401945b8286101561187f57853561187081611547565b8252948401949084019061185d565b96505050608088013592508083111561189757600080fd5b50506118a5878288016116f3565b91505092959194509250565b6000806000606084860312156118c657600080fd5b83356118d181611547565b925060208401356118e181611547565b929592945050506040919091013590565b6000806040838503121561190557600080fd5b823561191081611547565b9150602083013561192081611547565b809150509250929050565b7f4e487b7100000000000000000000000000000000000000000000000000000000600052601160045260246000fd5b6000821982111561196d5761196d61192b565b500190565b6000828210156119845761198461192b565b500390565b6000817fffffffffffffffffffffffffffffffffffffffffffffffffffffffffffffffff04831182151516156119c1576119c161192b565b500290565b6000826119fc577f4e487b7100000000000000000000000000000000000000000000000000000000600052601260045260246000fd5b500490565b7f4e487b7100000000000000000000000000000000000000000000000000000000600052603260045260246000fd5b60007fffffffffffffffffffffffffffffffffffffffffffffffffffffffffffffffff821415611a6257611a6261192b565b5060010190565b60006dffffffffffffffffffffffffffff808316818516808303821115611a9257611a9261192b565b0194935050505056fea264697066735822122087b31438d7646d29bf0214658936023d670155c43735edc3c8c8c1571b46eecd64736f6c63430008090033",
  "linkReferences": {},
  "deployedLinkReferences": {},
  "immutableReferences": {
    "679": [
      {
        "length": 32,
        "start": 799
      },
      {
        "length": 32,
        "start": 1984
      },
      {
        "length": 32,
        "start": 2626
      },
      {
        "length": 32,
        "start": 4025
      }
    ],
    "681": [
      {
        "length": 32,
        "start": 549
      },
      {
        "length": 32,
        "start": 2206
      },
      {
        "length": 32,
        "start": 5174
      }
    ],
    "728": [
      {
        "length": 32,
        "start": 686
      },
      {
        "length": 32,
        "start": 1333
      },
      {
        "length": 32,
        "start": 3448
      }
    ]
  },
  "inputSourceName": "project/src/conquest_token/RewardsGenerator.sol",
  "devdoc": {
    "kind": "dev",
    "methods": {
      "totalSupply()": {
        "details": "Returns the amount of tokens in existence."
      }
    },
    "version": 1
  },
  "evm": {
    "gasEstimates": {
      "creation": {
        "codeDepositCost": "1373000",
        "executionCost": "infinite",
        "totalCost": "infinite"
      },
      "external": {
        "FIXED_REWARD_RATE_thousands_millionth()": "infinite",
        "REWARD_RATE_millionth()": "infinite",
        "add(address,uint256)": "infinite",
        "allowance(address,address)": "infinite",
        "approve(address,uint256)": "493",
        "balanceOf(address)": "2559",
        "claimFixedRewards(address)": "infinite",
        "claimSharedPoolRewards(address)": "infinite",
        "decimals()": "222",
        "earnedFromFixedRate(address)": "infinite",
        "earnedFromPoolRate(address)": "infinite",
        "enableGame(address,uint256)": "26464",
        "getTotalRewardPerPointWithPrecision24()": "infinite",
        "lastUpdated()": "2387",
        "move(address,address,uint256)": "infinite",
        "name()": "infinite",
        "postUpgrade(address,(uint256,uint256),address[],(address,uint256)[])": "infinite",
        "remove(address,uint256)": "infinite",
        "reward()": "infinite",
        "symbol()": "infinite",
        "totalSupply()": "2399",
        "transfer(address,uint256)": "469",
        "transferFrom(address,address,uint256)": "infinite",
        "update()": "infinite"
      },
      "internal": {
        "_add(address,uint256)": "infinite",
        "_computeExtraTotalRewardPerPointSinceLastTime(uint256,uint256,uint256)": "infinite",
        "_computeRewardsEarned(uint256,uint256,uint256,uint256)": "infinite",
        "_enableGame(address,uint256)": "infinite",
        "_postUpgrade(contract IReward,struct RewardsGenerator.Config memory,address[] memory,struct RewardsGenerator.InitialAccount memory[] memory)": "infinite",
        "_remove(address,uint256)": "infinite",
        "_update(address)": "infinite",
        "_updateAccount(address,uint256)": "infinite",
        "_updateGlobal()": "infinite"
      }
    }
  },
  "storageLayout": {
    "storage": [
      {
        "astId": 699,
        "contract": "project/src/conquest_token/RewardsGenerator.sol:RewardsGenerator",
        "label": "_global",
        "offset": 0,
        "slot": "0",
        "type": "t_struct(GlobalState)696_storage"
      },
      {
        "astId": 711,
        "contract": "project/src/conquest_token/RewardsGenerator.sol:RewardsGenerator",
        "label": "_sharedRateRewardPerAccount",
        "offset": 0,
        "slot": "1",
        "type": "t_mapping(t_address,t_struct(SharedRatePerAccount)706_storage)"
      },
      {
        "astId": 721,
        "contract": "project/src/conquest_token/RewardsGenerator.sol:RewardsGenerator",
        "label": "_fixedRateRewardPerAccount",
        "offset": 0,
        "slot": "2",
        "type": "t_mapping(t_address,t_struct(FixedRate)716_storage)"
      },
      {
        "astId": 725,
        "contract": "project/src/conquest_token/RewardsGenerator.sol:RewardsGenerator",
        "label": "_games",
        "offset": 0,
        "slot": "3",
        "type": "t_mapping(t_address,t_uint256)"
      },
      {
        "astId": 740,
        "contract": "project/src/conquest_token/RewardsGenerator.sol:RewardsGenerator",
        "label": "_init",
        "offset": 0,
        "slot": "4",
        "type": "t_bool"
      }
    ],
    "types": {
      "t_address": {
        "encoding": "inplace",
        "label": "address",
        "numberOfBytes": "20"
      },
      "t_bool": {
        "encoding": "inplace",
        "label": "bool",
        "numberOfBytes": "1"
      },
      "t_mapping(t_address,t_struct(FixedRate)716_storage)": {
        "encoding": "mapping",
        "key": "t_address",
        "label": "mapping(address => struct RewardsGenerator.FixedRate)",
        "numberOfBytes": "32",
        "value": "t_struct(FixedRate)716_storage"
      },
      "t_mapping(t_address,t_struct(SharedRatePerAccount)706_storage)": {
        "encoding": "mapping",
        "key": "t_address",
        "label": "mapping(address => struct RewardsGenerator.SharedRatePerAccount)",
        "numberOfBytes": "32",
        "value": "t_struct(SharedRatePerAccount)706_storage"
      },
      "t_mapping(t_address,t_uint256)": {
        "encoding": "mapping",
        "key": "t_address",
        "label": "mapping(address => uint256)",
        "numberOfBytes": "32",
        "value": "t_uint256"
      },
      "t_struct(FixedRate)716_storage": {
        "encoding": "inplace",
        "label": "struct RewardsGenerator.FixedRate",
        "members": [
          {
            "astId": 713,
            "contract": "project/src/conquest_token/RewardsGenerator.sol:RewardsGenerator",
            "label": "toWithdraw",
            "offset": 0,
            "slot": "0",
            "type": "t_uint112"
          },
          {
            "astId": 715,
            "contract": "project/src/conquest_token/RewardsGenerator.sol:RewardsGenerator",
            "label": "lastTime",
            "offset": 14,
            "slot": "0",
            "type": "t_uint40"
          }
        ],
        "numberOfBytes": "32"
      },
      "t_struct(GlobalState)696_storage": {
        "encoding": "inplace",
        "label": "struct RewardsGenerator.GlobalState",
        "members": [
          {
            "astId": 691,
            "contract": "project/src/conquest_token/RewardsGenerator.sol:RewardsGenerator",
            "label": "lastUpdateTime",
            "offset": 0,
            "slot": "0",
            "type": "t_uint40"
          },
          {
            "astId": 693,
            "contract": "project/src/conquest_token/RewardsGenerator.sol:RewardsGenerator",
            "label": "totalRewardPerPointAtLastUpdate",
            "offset": 5,
            "slot": "0",
            "type": "t_uint104"
          },
          {
            "astId": 695,
            "contract": "project/src/conquest_token/RewardsGenerator.sol:RewardsGenerator",
            "label": "totalPoints",
            "offset": 18,
            "slot": "0",
            "type": "t_uint112"
          }
        ],
        "numberOfBytes": "32"
      },
      "t_struct(SharedRatePerAccount)706_storage": {
        "encoding": "inplace",
        "label": "struct RewardsGenerator.SharedRatePerAccount",
        "members": [
          {
            "astId": 701,
            "contract": "project/src/conquest_token/RewardsGenerator.sol:RewardsGenerator",
            "label": "points",
            "offset": 0,
            "slot": "0",
            "type": "t_uint112"
          },
          {
            "astId": 703,
            "contract": "project/src/conquest_token/RewardsGenerator.sol:RewardsGenerator",
            "label": "totalRewardPerPointAccounted",
            "offset": 14,
            "slot": "0",
            "type": "t_uint104"
          },
          {
            "astId": 705,
            "contract": "project/src/conquest_token/RewardsGenerator.sol:RewardsGenerator",
            "label": "rewardsToWithdraw",
            "offset": 0,
            "slot": "1",
            "type": "t_uint112"
          }
        ],
        "numberOfBytes": "64"
      },
      "t_uint104": {
        "encoding": "inplace",
        "label": "uint104",
        "numberOfBytes": "13"
      },
      "t_uint112": {
        "encoding": "inplace",
        "label": "uint112",
        "numberOfBytes": "14"
      },
      "t_uint256": {
        "encoding": "inplace",
        "label": "uint256",
        "numberOfBytes": "32"
      },
      "t_uint40": {
        "encoding": "inplace",
        "label": "uint40",
        "numberOfBytes": "5"
      }
    }
  },
  "userdoc": {
    "kind": "user",
    "methods": {
      "claimFixedRewards(address)": {
        "notice": "claim the rewards earned so far using a fixed rate per point"
      },
      "claimSharedPoolRewards(address)": {
        "notice": "claim the rewards earned so far in the shared pool"
      },
      "earnedFromFixedRate(address)": {
        "notice": "The amount of reward an account has accrued so far. Does not include already withdrawn rewards."
      },
      "earnedFromPoolRate(address)": {
        "notice": "The amount of reward an account has accrued so far. Does not include already withdrawn rewards."
      },
      "getTotalRewardPerPointWithPrecision24()": {
        "notice": "The amount of reward each point has earned so far"
      },
      "update()": {
        "notice": "update the global pool rate"
      }
    },
    "version": 1
  },
  "argsData": "0x0000000000000000000000007bb08ea1dda74423f3878937e658aff92c1a28790000000000000000000000000000000000000000000000000000000000000000000000000000000000000000000000000000000000000000000000000000000000000000000000000000000000000000000000000000000000000000000000a000000000000000000000000000000000000000000000000000000000000000e000000000000000000000000000000000000000000000000000000000000000010000000000000000000000006dfb8fc368b69e0bbae8cedd052a6e6ce56a09cf0000000000000000000000000000000000000000000000000000000000000000",
  "transaction": {
    "nonce": "0x5c",
    "hash": "0x76eba31e79cdde6d492f0c9513fe1abe240dc56c439c3d5ec15329c48bd14eb9",
    "origin": "0x61c461ecc993aadeb7e4b47e96d1b8cc37314b20"
  }
}