{
  "address": "0x7edebd362d3138c32a9cb72634e711617c103476",
  "abi": [
    {
      "inputs": [
        {
          "internalType": "address",
          "name": "initialRewardReceiver",
          "type": "address"
        },
        {
          "internalType": "contract RewardsGenerator",
          "name": "initialGenerator",
          "type": "address"
        },
        {
          "internalType": "contract IOuterSpace",
          "name": "initialOuterSpace",
          "type": "address"
        },
        {
          "internalType": "contract PlayToken",
          "name": "initialPlayToken",
          "type": "address"
        },
        {
          "components": [
            {
              "internalType": "bytes32",
              "name": "genesis",
              "type": "bytes32"
            },
            {
              "internalType": "uint256",
              "name": "acquireNumSpaceships",
              "type": "uint256"
            },
            {
              "internalType": "uint256",
              "name": "productionCapAsDuration",
              "type": "uint256"
            },
            {
              "internalType": "uint256",
              "name": "frontrunningDelay",
              "type": "uint256"
            },
            {
              "internalType": "uint256",
              "name": "timePerDistance",
              "type": "uint256"
            },
            {
              "internalType": "uint256",
              "name": "productionSpeedUp",
              "type": "uint256"
            },
            {
              "internalType": "uint256",
              "name": "numSecondsPerTokens",
              "type": "uint256"
            },
            {
              "internalType": "uint256",
              "name": "spaceshipsToKeepPer10000",
              "type": "uint256"
            },
            {
              "internalType": "uint256",
              "name": "minAverageStakePerPlanet",
              "type": "uint256"
            },
            {
              "internalType": "uint256",
              "name": "maxClaimDelay",
              "type": "uint256"
            },
            {
              "internalType": "uint256",
              "name": "minimumSubscriptionWhenStaking",
              "type": "uint256"
            },
            {
              "internalType": "uint256",
              "name": "minimumSubscriptionWhenNotStaking",
              "type": "uint256"
            },
            {
              "internalType": "uint256",
              "name": "maxTimeRange",
              "type": "uint256"
            },
            {
              "internalType": "uint256",
              "name": "minAttackAmount",
              "type": "uint256"
            }
          ],
          "internalType": "struct Yakuza.Config",
          "name": "config",
          "type": "tuple"
        }
      ],
      "stateMutability": "nonpayable",
      "type": "constructor"
    },
    {
      "anonymous": false,
      "inputs": [
        {
          "indexed": true,
          "internalType": "address",
          "name": "owner",
          "type": "address"
        },
        {
          "indexed": true,
          "internalType": "address",
          "name": "spender",
          "type": "address"
        },
        {
          "indexed": false,
          "internalType": "uint256",
          "name": "value",
          "type": "uint256"
        }
      ],
      "name": "Approval",
      "type": "event"
    },
    {
      "anonymous": false,
      "inputs": [
        {
          "indexed": false,
          "internalType": "address",
          "name": "newRewardReceiver",
          "type": "address"
        }
      ],
      "name": "RewardReceiverSet",
      "type": "event"
    },
    {
      "anonymous": false,
      "inputs": [
        {
          "indexed": true,
          "internalType": "address",
          "name": "from",
          "type": "address"
        },
        {
          "indexed": true,
          "internalType": "address",
          "name": "to",
          "type": "address"
        },
        {
          "indexed": false,
          "internalType": "uint256",
          "name": "value",
          "type": "uint256"
        }
      ],
      "name": "Transfer",
      "type": "event"
    },
    {
      "anonymous": false,
      "inputs": [
        {
          "indexed": true,
          "internalType": "address",
          "name": "sender",
          "type": "address"
        },
        {
          "indexed": true,
          "internalType": "uint256",
          "name": "to",
          "type": "uint256"
        },
        {
          "indexed": false,
          "internalType": "uint256",
          "name": "fleetSentId",
          "type": "uint256"
        },
        {
          "indexed": false,
          "internalType": "uint256",
          "name": "amountSent",
          "type": "uint256"
        },
        {
          "indexed": false,
          "internalType": "uint256",
          "name": "lastAttackTime",
          "type": "uint256"
        },
        {
          "indexed": false,
          "internalType": "bytes32",
          "name": "secret",
          "type": "bytes32"
        }
      ],
      "name": "YakuzaAttack",
      "type": "event"
    },
    {
      "anonymous": false,
      "inputs": [
        {
          "indexed": true,
          "internalType": "address",
          "name": "sender",
          "type": "address"
        },
        {
          "indexed": true,
          "internalType": "uint256",
          "name": "fleetId",
          "type": "uint256"
        },
        {
          "indexed": true,
          "internalType": "uint256",
          "name": "attackedPlanet",
          "type": "uint256"
        },
        {
          "indexed": false,
          "internalType": "uint256",
          "name": "fleetSentId",
          "type": "uint256"
        },
        {
          "indexed": false,
          "internalType": "uint256",
          "name": "amount",
          "type": "uint256"
        },
        {
          "indexed": false,
          "internalType": "uint256",
          "name": "amountLeft",
          "type": "uint256"
        },
        {
          "indexed": false,
          "internalType": "uint256",
          "name": "lockTime",
          "type": "uint256"
        },
        {
          "indexed": false,
          "internalType": "bytes32",
          "name": "secret",
          "type": "bytes32"
        }
      ],
      "name": "YakuzaClaimed",
      "type": "event"
    },
    {
      "anonymous": false,
      "inputs": [
        {
          "indexed": true,
          "internalType": "address",
          "name": "subscriber",
          "type": "address"
        },
        {
          "indexed": false,
          "internalType": "uint256",
          "name": "startTime",
          "type": "uint256"
        },
        {
          "indexed": false,
          "internalType": "uint256",
          "name": "endTime",
          "type": "uint256"
        },
        {
          "indexed": false,
          "internalType": "uint256",
          "name": "contribution",
          "type": "uint256"
        },
        {
          "indexed": false,
          "internalType": "uint256[]",
          "name": "planets",
          "type": "uint256[]"
        }
      ],
      "name": "YakuzaSubscribed",
      "type": "event"
    },
    {
      "inputs": [],
      "name": "DOMAIN_SEPARATOR",
      "outputs": [
        {
          "internalType": "bytes32",
          "name": "",
          "type": "bytes32"
        }
      ],
      "stateMutability": "view",
      "type": "function"
    },
    {
      "inputs": [
        {
          "internalType": "address",
          "name": "owner",
          "type": "address"
        },
        {
          "internalType": "address",
          "name": "spender",
          "type": "address"
        }
      ],
      "name": "allowance",
      "outputs": [
        {
          "internalType": "uint256",
          "name": "",
          "type": "uint256"
        }
      ],
      "stateMutability": "view",
      "type": "function"
    },
    {
      "inputs": [
        {
          "internalType": "address",
          "name": "spender",
          "type": "address"
        },
        {
          "internalType": "uint256",
          "name": "amount",
          "type": "uint256"
        }
      ],
      "name": "approve",
      "outputs": [
        {
          "internalType": "bool",
          "name": "",
          "type": "bool"
        }
      ],
      "stateMutability": "nonpayable",
      "type": "function"
    },
    {
      "inputs": [
        {
          "internalType": "address",
          "name": "spender",
          "type": "address"
        },
        {
          "internalType": "uint256",
          "name": "amount",
          "type": "uint256"
        },
        {
          "internalType": "bytes",
          "name": "data",
          "type": "bytes"
        }
      ],
      "name": "approveAndCall",
      "outputs": [
        {
          "internalType": "bool",
          "name": "",
          "type": "bool"
        }
      ],
      "stateMutability": "nonpayable",
      "type": "function"
    },
    {
      "inputs": [
        {
          "internalType": "address",
          "name": "owner",
          "type": "address"
        }
      ],
      "name": "balanceOf",
      "outputs": [
        {
          "internalType": "uint256",
          "name": "",
          "type": "uint256"
        }
      ],
      "stateMutability": "view",
      "type": "function"
    },
    {
      "inputs": [
        {
          "internalType": "contract RewardsGenerator",
          "name": "newGenerator",
          "type": "address"
        }
      ],
      "name": "changegGenerator",
      "outputs": [],
      "stateMutability": "nonpayable",
      "type": "function"
    },
    {
      "inputs": [
        {
          "internalType": "uint256",
          "name": "fleetId",
          "type": "uint256"
        },
        {
          "components": [
            {
              "internalType": "uint256",
              "name": "from",
              "type": "uint256"
            },
            {
              "internalType": "uint256",
              "name": "to",
              "type": "uint256"
            },
            {
              "internalType": "uint256",
              "name": "distance",
              "type": "uint256"
            },
            {
              "internalType": "uint256",
              "name": "arrivalTimeWanted",
              "type": "uint256"
            },
            {
              "internalType": "bool",
              "name": "gift",
              "type": "bool"
            },
            {
              "internalType": "address",
              "name": "specific",
              "type": "address"
            },
            {
              "internalType": "bytes32",
              "name": "secret",
              "type": "bytes32"
            },
            {
              "internalType": "address",
              "name": "fleetSender",
              "type": "address"
            },
            {
              "internalType": "address",
              "name": "operator",
              "type": "address"
            }
          ],
          "internalType": "struct ImportingOuterSpaceTypes.FleetResolution",
          "name": "resolution",
          "type": "tuple"
        },
        {
          "internalType": "uint32",
          "name": "amount",
          "type": "uint32"
        },
        {
          "internalType": "uint256",
          "name": "from",
          "type": "uint256"
        },
        {
          "internalType": "bytes32",
          "name": "toHash",
          "type": "bytes32"
        },
        {
          "internalType": "uint256",
          "name": "distance",
          "type": "uint256"
        },
        {
          "internalType": "bytes32",
          "name": "secret",
          "type": "bytes32"
        },
        {
          "internalType": "address payable",
          "name": "payee",
          "type": "address"
        }
      ],
      "name": "claimCounterAttack",
      "outputs": [],
      "stateMutability": "payable",
      "type": "function"
    },
    {
      "inputs": [
        {
          "internalType": "address",
          "name": "to",
          "type": "address"
        }
      ],
      "name": "claimFixedRewards",
      "outputs": [],
      "stateMutability": "nonpayable",
      "type": "function"
    },
    {
      "inputs": [
        {
          "internalType": "address",
          "name": "to",
          "type": "address"
        }
      ],
      "name": "claimSharedPoolRewards",
      "outputs": [],
      "stateMutability": "nonpayable",
      "type": "function"
    },
    {
      "inputs": [
        {
          "internalType": "uint256",
          "name": "",
          "type": "uint256"
        }
      ],
      "name": "claims",
      "outputs": [
        {
          "internalType": "bool",
          "name": "claimed",
          "type": "bool"
        },
        {
          "internalType": "uint248",
          "name": "amountLeft",
          "type": "uint248"
        }
      ],
      "stateMutability": "view",
      "type": "function"
    },
    {
      "inputs": [],
      "name": "decimals",
      "outputs": [
        {
          "internalType": "uint8",
          "name": "",
          "type": "uint8"
        }
      ],
      "stateMutability": "pure",
      "type": "function"
    },
    {
      "inputs": [
        {
          "internalType": "address payable[]",
          "name": "tos",
          "type": "address[]"
        },
        {
          "internalType": "uint256",
          "name": "totalAmount",
          "type": "uint256"
        }
      ],
      "name": "distributeAlongWithETH",
      "outputs": [
        {
          "internalType": "bool",
          "name": "",
          "type": "bool"
        }
      ],
      "stateMutability": "payable",
      "type": "function"
    },
    {
      "inputs": [
        {
          "internalType": "address payable[]",
          "name": "tos",
          "type": "address[]"
        },
        {
          "internalType": "uint256[]",
          "name": "amounts",
          "type": "uint256[]"
        }
      ],
      "name": "distributeVariousAmountsAlongWithETH",
      "outputs": [
        {
          "internalType": "bool",
          "name": "",
          "type": "bool"
        }
      ],
      "stateMutability": "payable",
      "type": "function"
    },
    {
      "inputs": [
        {
          "internalType": "address payable[]",
          "name": "tos",
          "type": "address[]"
        },
        {
          "internalType": "uint256[]",
          "name": "tokenAmounts",
          "type": "uint256[]"
        },
        {
          "internalType": "uint256[]",
          "name": "etherAmounts",
          "type": "uint256[]"
        }
      ],
      "name": "distributeVariousAmountsOfTokenAndETH",
      "outputs": [
        {
          "internalType": "bool",
          "name": "",
          "type": "bool"
        }
      ],
      "stateMutability": "payable",
      "type": "function"
    },
    {
      "inputs": [
        {
          "internalType": "uint256",
          "name": "",
          "type": "uint256"
        }
      ],
      "name": "myPlanets",
      "outputs": [
        {
          "internalType": "bool",
          "name": "mine",
          "type": "bool"
        },
        {
          "internalType": "uint40",
          "name": "lastAttackTime",
          "type": "uint40"
        },
        {
          "internalType": "uint40",
          "name": "lockTime",
          "type": "uint40"
        }
      ],
      "stateMutability": "view",
      "type": "function"
    },
    {
      "inputs": [],
      "name": "name",
      "outputs": [
        {
          "internalType": "string",
          "name": "",
          "type": "string"
        }
      ],
      "stateMutability": "pure",
      "type": "function"
    },
    {
      "inputs": [
        {
          "internalType": "address",
          "name": "owner",
          "type": "address"
        }
      ],
      "name": "nonces",
      "outputs": [
        {
          "internalType": "uint256",
          "name": "",
          "type": "uint256"
        }
      ],
      "stateMutability": "view",
      "type": "function"
    },
    {
      "inputs": [
        {
          "internalType": "address",
          "name": "forAddress",
          "type": "address"
        },
        {
          "internalType": "address",
          "name": "to",
          "type": "address"
        },
        {
          "internalType": "uint256",
          "name": "amount",
          "type": "uint256"
        },
        {
          "internalType": "bytes",
          "name": "data",
          "type": "bytes"
        }
      ],
      "name": "payForAndCall",
      "outputs": [
        {
          "internalType": "bool",
          "name": "",
          "type": "bool"
        }
      ],
      "stateMutability": "nonpayable",
      "type": "function"
    },
    {
      "inputs": [
        {
          "internalType": "address",
          "name": "owner",
          "type": "address"
        },
        {
          "internalType": "address",
          "name": "spender",
          "type": "address"
        },
        {
          "internalType": "uint256",
          "name": "value",
          "type": "uint256"
        },
        {
          "internalType": "uint256",
          "name": "deadline",
          "type": "uint256"
        },
        {
          "internalType": "uint8",
          "name": "v",
          "type": "uint8"
        },
        {
          "internalType": "bytes32",
          "name": "r",
          "type": "bytes32"
        },
        {
          "internalType": "bytes32",
          "name": "s",
          "type": "bytes32"
        }
      ],
      "name": "permit",
      "outputs": [],
      "stateMutability": "nonpayable",
      "type": "function"
    },
    {
      "inputs": [
        {
          "internalType": "address",
          "name": "initialRewardReceiver",
          "type": "address"
        },
        {
          "internalType": "contract RewardsGenerator",
          "name": "initialGenerator",
          "type": "address"
        },
        {
          "internalType": "contract IOuterSpace",
          "name": "",
          "type": "address"
        },
        {
          "internalType": "contract PlayToken",
          "name": "",
          "type": "address"
        },
        {
          "components": [
            {
              "internalType": "bytes32",
              "name": "genesis",
              "type": "bytes32"
            },
            {
              "internalType": "uint256",
              "name": "acquireNumSpaceships",
              "type": "uint256"
            },
            {
              "internalType": "uint256",
              "name": "productionCapAsDuration",
              "type": "uint256"
            },
            {
              "internalType": "uint256",
              "name": "frontrunningDelay",
              "type": "uint256"
            },
            {
              "internalType": "uint256",
              "name": "timePerDistance",
              "type": "uint256"
            },
            {
              "internalType": "uint256",
              "name": "productionSpeedUp",
              "type": "uint256"
            },
            {
              "internalType": "uint256",
              "name": "numSecondsPerTokens",
              "type": "uint256"
            },
            {
              "internalType": "uint256",
              "name": "spaceshipsToKeepPer10000",
              "type": "uint256"
            },
            {
              "internalType": "uint256",
              "name": "minAverageStakePerPlanet",
              "type": "uint256"
            },
            {
              "internalType": "uint256",
              "name": "maxClaimDelay",
              "type": "uint256"
            },
            {
              "internalType": "uint256",
              "name": "minimumSubscriptionWhenStaking",
              "type": "uint256"
            },
            {
              "internalType": "uint256",
              "name": "minimumSubscriptionWhenNotStaking",
              "type": "uint256"
            },
            {
              "internalType": "uint256",
              "name": "maxTimeRange",
              "type": "uint256"
            },
            {
              "internalType": "uint256",
              "name": "minAttackAmount",
              "type": "uint256"
            }
          ],
          "internalType": "struct Yakuza.Config",
          "name": "",
          "type": "tuple"
        }
      ],
      "name": "postUpgrade",
      "outputs": [],
      "stateMutability": "nonpayable",
      "type": "function"
    },
    {
      "inputs": [],
      "name": "rewardReceiver",
      "outputs": [
        {
          "internalType": "address",
          "name": "",
          "type": "address"
        }
      ],
      "stateMutability": "view",
      "type": "function"
    },
    {
      "inputs": [
        {
          "internalType": "address",
          "name": "newRewardReceiver",
          "type": "address"
        }
      ],
      "name": "setRewardReceiver",
      "outputs": [],
      "stateMutability": "nonpayable",
      "type": "function"
    },
    {
      "inputs": [
        {
          "internalType": "uint256[]",
          "name": "locations",
          "type": "uint256[]"
        },
        {
          "internalType": "uint256",
          "name": "amountToMint",
          "type": "uint256"
        },
        {
          "internalType": "uint256",
          "name": "tokenAmount",
          "type": "uint256"
        },
        {
          "internalType": "uint256",
          "name": "amountFromYakuza",
          "type": "uint256"
        }
      ],
      "name": "subscribeViaStaking",
      "outputs": [],
      "stateMutability": "payable",
      "type": "function"
    },
    {
      "inputs": [
        {
          "internalType": "uint256",
          "name": "amountToMint",
          "type": "uint256"
        },
        {
          "internalType": "uint256",
          "name": "tokenAmount",
          "type": "uint256"
        }
      ],
      "name": "subscribeWithoutStaking",
      "outputs": [],
      "stateMutability": "payable",
      "type": "function"
    },
    {
      "inputs": [
        {
          "internalType": "address",
          "name": "",
          "type": "address"
        }
      ],
      "name": "subscriptions",
      "outputs": [
        {
          "internalType": "uint256",
          "name": "startTime",
          "type": "uint256"
        },
        {
          "internalType": "uint256",
          "name": "endTime",
          "type": "uint256"
        }
      ],
      "stateMutability": "view",
      "type": "function"
    },
    {
      "inputs": [],
      "name": "symbol",
      "outputs": [
        {
          "internalType": "string",
          "name": "",
          "type": "string"
        }
      ],
      "stateMutability": "view",
      "type": "function"
    },
    {
      "inputs": [
        {
          "internalType": "uint256",
          "name": "from",
          "type": "uint256"
        },
        {
          "internalType": "uint256",
          "name": "to",
          "type": "uint256"
        },
        {
          "internalType": "uint256",
          "name": "distance",
          "type": "uint256"
        },
        {
          "internalType": "uint32",
          "name": "amount",
          "type": "uint32"
        },
        {
          "internalType": "bytes32",
          "name": "toHash",
          "type": "bytes32"
        },
        {
          "internalType": "bytes32",
          "name": "secret",
          "type": "bytes32"
        },
        {
          "internalType": "address payable",
          "name": "payee",
          "type": "address"
        }
      ],
      "name": "takeItBack",
      "outputs": [],
      "stateMutability": "payable",
      "type": "function"
    },
    {
      "inputs": [],
      "name": "totalSupply",
      "outputs": [
        {
          "internalType": "uint256",
          "name": "",
          "type": "uint256"
        }
      ],
      "stateMutability": "view",
      "type": "function"
    },
    {
      "inputs": [
        {
          "internalType": "address",
          "name": "to",
          "type": "address"
        },
        {
          "internalType": "uint256",
          "name": "amount",
          "type": "uint256"
        }
      ],
      "name": "transfer",
      "outputs": [
        {
          "internalType": "bool",
          "name": "",
          "type": "bool"
        }
      ],
      "stateMutability": "nonpayable",
      "type": "function"
    },
    {
      "inputs": [
        {
          "internalType": "address payable",
          "name": "to",
          "type": "address"
        },
        {
          "internalType": "uint256",
          "name": "amount",
          "type": "uint256"
        }
      ],
      "name": "transferAlongWithETH",
      "outputs": [
        {
          "internalType": "bool",
          "name": "",
          "type": "bool"
        }
      ],
      "stateMutability": "payable",
      "type": "function"
    },
    {
      "inputs": [
        {
          "internalType": "address",
          "name": "to",
          "type": "address"
        },
        {
          "internalType": "uint256",
          "name": "amount",
          "type": "uint256"
        },
        {
          "internalType": "bytes",
          "name": "data",
          "type": "bytes"
        }
      ],
      "name": "transferAndCall",
      "outputs": [
        {
          "internalType": "bool",
          "name": "",
          "type": "bool"
        }
      ],
      "stateMutability": "nonpayable",
      "type": "function"
    },
    {
      "inputs": [
        {
          "internalType": "address",
          "name": "from",
          "type": "address"
        },
        {
          "internalType": "address",
          "name": "to",
          "type": "address"
        },
        {
          "internalType": "uint256",
          "name": "amount",
          "type": "uint256"
        }
      ],
      "name": "transferFrom",
      "outputs": [
        {
          "internalType": "bool",
          "name": "",
          "type": "bool"
        }
      ],
      "stateMutability": "nonpayable",
      "type": "function"
    },
    {
      "inputs": [
        {
          "internalType": "address",
          "name": "from",
          "type": "address"
        },
        {
          "internalType": "address",
          "name": "to",
          "type": "address"
        },
        {
          "internalType": "uint256",
          "name": "amount",
          "type": "uint256"
        },
        {
          "internalType": "bytes",
          "name": "data",
          "type": "bytes"
        }
      ],
      "name": "transferFromAndCall",
      "outputs": [
        {
          "internalType": "bool",
          "name": "",
          "type": "bool"
        }
      ],
      "stateMutability": "nonpayable",
      "type": "function"
    }
  ],
  "contractName": "Yakuza",
  "sourceName": "src/yakuza/Yakuza.sol",
  "bytecode": "0x6102a06040523480156200001257600080fd5b506040516200636f3803806200636f833981016040819052620000359162000281565b6040805180820190915260018152603160f81b60208201527f91ab3d17e3a50a9d89e63fd30b92be7f5336b03b287bb946787a83a9d62a27666200009360408051808201909152600781526659414b555a413160c81b602082015290565b8051602091820120835184830120604080519384019490945292820152606081019190915230608082015260a00160408051601f19818403018152918152815160209283012060809081526001600160a01b0380881660a052861660c052845160e052918401516101005283015161012052606083015161014052820151600091506200012390600490620003ac565b608083015190915062000138826004620003de565b63ffffffff1614620001905760405162461bcd60e51b815260206004820152601d60248201527f54494d455f5045525f444953545f4e4f545f444956495349424c455f34000000604482015260640160405180910390fd5b63ffffffff811661016090815260a083015161018090815260c08401516101a090815260e08501516101c052610120850151610200526101008501516101e0526101408501516102205291840151610240528301516102605282015161028052620002248686600480546001600160a01b039384166001600160a01b03199182161790915560058054929093169116179055565b50505050505062000419565b6001600160a01b03811681146200024657600080fd5b50565b6040516101c081016001600160401b03811182821017156200027b57634e487b7160e01b600052604160045260246000fd5b60405290565b60008060008060008587036102408112156200029c57600080fd5b8651620002a98162000230565b6020880151909650620002bc8162000230565b6040880151909550620002cf8162000230565b6060880151909450620002e28162000230565b92506101c0607f198201811315620002f957600080fd5b6200030362000249565b91506080880151825260a0880151602083015260c0880151604083015260e08801516060830152610100808901516080840152610120808a015160a0850152610140808b015160c0860152610160808c015160e0870152610180808d0151858801526101a09450848d015184880152858d0151838801526101e08d0151828801526102008d01518188015250505050610220890151818401525050809150509295509295909350565b600063ffffffff80841680620003d257634e487b7160e01b600052601260045260246000fd5b92169190910492915050565b600063ffffffff808316818516818304811182151516156200041057634e487b7160e01b600052601160045260246000fd5b02949350505050565b60805160a05160c05160e05161010051610120516101405161016051610180516101a0516101c0516101e0516102005161022051610240516102605161028051615df36200057c60003960008181612eab0152614860015260008181613617015261395401526000610dfe0152600061106201526000818161420e015281816142b701526142dd015260006113b901526000818161377e0152613ace0152600081816128be015261290c0152600061474c0152600081816135d80152613915015260008181612fca01528181613007015281816130460152614173015260006146d40152600061470d015260006144b2015260008181610ee801528181610f9b0152818161114b01526111f2015260008181611219015281816112fe01528181612b89015281816131e701528181613451015281816136d101528181613a2101528181613dd50152613f8c0152600081816103bf0152611aa20152615df36000f3fe6080604052600436106101fe5760003560e01c80637ecebe001161011d578063d505accf116100b0578063e412ea611161007f578063f046395a11610064578063f046395a14610721578063fc72b9761461076a578063ff1e03e91461077d57600080fd5b8063e412ea611461069e578063e7fcb0651461070e57600080fd5b8063d505accf1461062b578063dae254dd1461064b578063dd62ed3e1461066b578063df752eed1461068b57600080fd5b8063a888c2cd116100ec578063a888c2cd1461053c578063a9059cbb146105cb578063c1d34b89146105eb578063cae9ca511461060b57600080fd5b80637ecebe001461048a57806395d89b41146104cd5780639fe8ae3714610516578063a53ebf481461052957600080fd5b806323b872dd1161019557806363d994c71161016457806363d994c71461040157806364aa8347146104215780636b515ece1461043457806370a082311461044757600080fd5b806323b872dd14610371578063313ce567146103915780633644e515146103ad5780634000aea0146103e157600080fd5b80630e02df54116101d15780630e02df54146102cd57806318160ddd146102e05780631da51124146102ff5780631dac30b01461031f57600080fd5b8063066112f91461020357806306fdde0314610225578063095ea7b31461027d5780630ccdb355146102ad575b600080fd5b34801561020f57600080fd5b5061022361021e366004614b9c565b61079d565b005b34801561023157600080fd5b5060408051808201909152600781527f59414b555a41310000000000000000000000000000000000000000000000000060208201525b6040516102749190614bc0565b60405180910390f35b34801561028957600080fd5b5061029d610298366004614c33565b6108ac565b6040519015158152602001610274565b3480156102b957600080fd5b506102236102c8366004614c5f565b6108c3565b61029d6102db366004614d44565b6109d1565b3480156102ec57600080fd5b506000545b604051908152602001610274565b34801561030b57600080fd5b5061022361031a366004614b9c565b610b9a565b34801561032b57600080fd5b5060045461034c9073ffffffffffffffffffffffffffffffffffffffff1681565b60405173ffffffffffffffffffffffffffffffffffffffff9091168152602001610274565b34801561037d57600080fd5b5061029d61038c366004614d90565b610c62565b34801561039d57600080fd5b5060405160128152602001610274565b3480156103b957600080fd5b506102f17f000000000000000000000000000000000000000000000000000000000000000081565b3480156103ed57600080fd5b5061029d6103fc366004614e13565b610c79565b34801561040d57600080fd5b5061029d61041c366004614e6f565b610d39565b61022361042f366004614ee2565b610dfc565b610223610442366004614fac565b61105f565b34801561045357600080fd5b506102f1610462366004614b9c565b73ffffffffffffffffffffffffffffffffffffffff1660009081526001602052604090205490565b34801561049657600080fd5b506102f16104a5366004614b9c565b73ffffffffffffffffffffffffffffffffffffffff1660009081526003602052604090205490565b3480156104d957600080fd5b506102676040518060400160405280600481526020017f594b5a310000000000000000000000000000000000000000000000000000000081525081565b61022361052436600461507a565b611455565b6102236105373660046150e3565b611675565b34801561054857600080fd5b5061059461055736600461518e565b60076020526000908152604090205460ff81169061010090047effffffffffffffffffffffffffffffffffffffffffffffffffffffffffffff1682565b6040805192151583527effffffffffffffffffffffffffffffffffffffffffffffffffffffffffffff909116602083015201610274565b3480156105d757600080fd5b5061029d6105e6366004614c33565b61189b565b3480156105f757600080fd5b5061029d610606366004614e6f565b6118a8565b34801561061757600080fd5b5061029d610626366004614e13565b61190d565b34801561063757600080fd5b506102236106463660046151a7565b611970565b34801561065757600080fd5b50610223610666366004614b9c565b611ca5565b34801561067757600080fd5b506102f161068636600461521e565b611d9f565b61029d610699366004615257565b611e1f565b3480156106aa57600080fd5b506106e96106b936600461518e565b60086020526000908152604090205460ff81169064ffffffffff6101008204811691660100000000000090041683565b60408051931515845264ffffffffff9283166020850152911690820152606001610274565b61029d61071c366004614c33565b611fdc565b34801561072d57600080fd5b5061075561073c366004614b9c565b6006602052600090815260409020805460019091015482565b60408051928352602083019190915201610274565b61029d6107783660046152b7565b61202b565b34801561078957600080fd5b50610223610798366004614b9c565b6122be565b60045473ffffffffffffffffffffffffffffffffffffffff163314610823576040517f08c379a000000000000000000000000000000000000000000000000000000000815260206004820152600b60248201527f4e4f545f414c4c4f57454400000000000000000000000000000000000000000060448201526064015b60405180910390fd5b6005546040517f066112f900000000000000000000000000000000000000000000000000000000815273ffffffffffffffffffffffffffffffffffffffff83811660048301529091169063066112f9906024015b600060405180830381600087803b15801561089157600080fd5b505af11580156108a5573d6000803e3d6000fd5b5050505050565b60006108b9338484612397565b5060015b92915050565b7fb53127684a568b3173ae13b9f8a6016e243e63b6e8ee1178d6a717850b5d61035473ffffffffffffffffffffffffffffffffffffffff163373ffffffffffffffffffffffffffffffffffffffff1614610979576040517f08c379a000000000000000000000000000000000000000000000000000000000815260206004820152600e60248201527f4e4f545f415554484f52495a4544000000000000000000000000000000000000604482015260640161081a565b6108a585856004805473ffffffffffffffffffffffffffffffffffffffff9384167fffffffffffffffffffffffff00000000000000000000000000000000000000009182161790915560058054929093169116179055565b6000806109de84346153af565b90506109ea84826153c3565b3414610a52576040517f08c379a000000000000000000000000000000000000000000000000000000000815260206004820152601160248201527f494e56414c49445f4d53475f56414c5545000000000000000000000000000000604482015260640161081a565b6000610a5e85856153af565b9050610a6a85826153c3565b8414610ad2576040517f08c379a000000000000000000000000000000000000000000000000000000000815260206004820152601460248201527f494e56414c49445f544f54414c5f414d4f554e54000000000000000000000000604482015260640161081a565b60005b85811015610b8d57610b0e33888884818110610af357610af3615400565b9050602002016020810190610b089190614b9c565b846124a5565b868682818110610b2057610b20615400565b9050602002016020810190610b359190614b9c565b73ffffffffffffffffffffffffffffffffffffffff166108fc849081150290604051600060405180830381858888f19350505050158015610b7a573d6000803e3d6000fd5b5080610b858161542f565b915050610ad5565b5060019695505050505050565b60045473ffffffffffffffffffffffffffffffffffffffff163314610c1b576040517f08c379a000000000000000000000000000000000000000000000000000000000815260206004820152600b60248201527f4e4f545f414c4c4f574544000000000000000000000000000000000000000000604482015260640161081a565b600580547fffffffffffffffffffffffff00000000000000000000000000000000000000001673ffffffffffffffffffffffffffffffffffffffff92909216919091179055565b6000610c6f8484846126f3565b5060019392505050565b6000610c863386866124a5565b6040517fa4c0ed3600000000000000000000000000000000000000000000000000000000815273ffffffffffffffffffffffffffffffffffffffff86169063a4c0ed3690610cde9033908890889088906004016154b1565b602060405180830381600087803b158015610cf857600080fd5b505af1158015610d0c573d6000803e3d6000fd5b505050506040513d601f19601f82011682018060405250810190610d309190615505565b95945050505050565b6000610d463386866124a5565b6040517f9b6be06500000000000000000000000000000000000000000000000000000000815273ffffffffffffffffffffffffffffffffffffffff861690639b6be06590610da09033908a90899089908990600401615522565b602060405180830381600087803b158015610dba57600080fd5b505af1158015610dce573d6000803e3d6000fd5b505050506040513d601f19601f82011682018060405250810190610df29190615505565b9695505050505050565b7f0000000000000000000000000000000000000000000000000000000000000000610e27838361556d565b1015610e8f576040517f08c379a000000000000000000000000000000000000000000000000000000000815260206004820152601d60248201527f4d494e494d554d5f535542534352495054494f4e5f5245515549524544000000604482015260640161081a565b338115610f66576040517f23b872dd00000000000000000000000000000000000000000000000000000000815273ffffffffffffffffffffffffffffffffffffffff8281166004830152306024830152604482018490527f000000000000000000000000000000000000000000000000000000000000000016906323b872dd90606401602060405180830381600087803b158015610f2c57600080fd5b505af1158015610f40573d6000803e3d6000fd5b505050506040513d601f19601f82011682018060405250810190610f649190615505565b505b6040517f40c10f19000000000000000000000000000000000000000000000000000000008152306004820152602481018490527f000000000000000000000000000000000000000000000000000000000000000073ffffffffffffffffffffffffffffffffffffffff16906340c10f199034906044016000604051808303818588803b158015610ff557600080fd5b505af1158015611009573d6000803e3d6000fd5b5060009350839250611019915050565b604051908082528060200260200182016040528015611042578160200160208202803683370190505b50905061105982611053858761556d565b83612844565b50505050565b337f000000000000000000000000000000000000000000000000000000000000000061108b858561556d565b10156110f3576040517f08c379a000000000000000000000000000000000000000000000000000000000815260206004820152601d60248201527f4d494e494d554d5f535542534352495054494f4e5f5245515549524544000000604482015260640161081a565b82156111c9576040517f23b872dd00000000000000000000000000000000000000000000000000000000815273ffffffffffffffffffffffffffffffffffffffff8281166004830152306024830152604482018590527f000000000000000000000000000000000000000000000000000000000000000016906323b872dd90606401602060405180830381600087803b15801561118f57600080fd5b505af11580156111a3573d6000803e3d6000fd5b505050506040513d601f19601f820116820180604052508101906111c79190615505565b505b60006111d5838561556d565b11156112e75773ffffffffffffffffffffffffffffffffffffffff7f00000000000000000000000000000000000000000000000000000000000000001663095ea7b37f0000000000000000000000000000000000000000000000000000000000000000611242858761556d565b6040517fffffffff0000000000000000000000000000000000000000000000000000000060e085901b16815273ffffffffffffffffffffffffffffffffffffffff90921660048301526024820152604401602060405180830381600087803b1580156112ad57600080fd5b505af11580156112c1573d6000803e3d6000fd5b505050506040513d601f19601f820116820180604052508101906112e59190615505565b505b73ffffffffffffffffffffffffffffffffffffffff7f00000000000000000000000000000000000000000000000000000000000000001663861399e7348787611330878961556d565b6040518563ffffffff1660e01b815260040161134e939291906155c0565b6000604051808303818588803b15801561136757600080fd5b505af115801561137b573d6000803e3d6000fd5b50505050506000838561138e919061556d565b9050600086518486886113a1919061556d565b6113ab919061556d565b6113b591906153af565b90507f0000000000000000000000000000000000000000000000000000000000000000811015611441576040517f08c379a000000000000000000000000000000000000000000000000000000000815260206004820152601160248201527f504c414e4554535f544f4f5f534d414c4c000000000000000000000000000000604482015260640161081a565b61144c838389612844565b50505050505050565b341561151c5773ffffffffffffffffffffffffffffffffffffffff81166114d8576040517f08c379a000000000000000000000000000000000000000000000000000000000815260206004820152600860248201527f4e4f5f5041594545000000000000000000000000000000000000000000000000604482015260640161081a565b60405173ffffffffffffffffffffffffffffffffffffffff8216903480156108fc02916000818181858888f1935050505015801561151a573d6000803e3d6000fd5b505b6040805160208101849052908101879052600060608201819052606182018190526075820181905233916095016040516020818303038152906040528051906020012090508481146115ca576040517f08c379a000000000000000000000000000000000000000000000000000000000815260206004820152600f60248201527f494e56414c49445f544f5f484153480000000000000000000000000000000000604482015260640161081a565b73ffffffffffffffffffffffffffffffffffffffff8216600090815260066020526040902060010154421061165b576040517f08c379a000000000000000000000000000000000000000000000000000000000815260206004820152601460248201527f535542534352495054494f4e5f45585049524544000000000000000000000000604482015260640161081a565b61166a828a8a8a8a8a8a612a35565b505050505050505050565b341561173c5773ffffffffffffffffffffffffffffffffffffffff81166116f8576040517f08c379a000000000000000000000000000000000000000000000000000000000815260206004820152600860248201527f4e4f5f5041594545000000000000000000000000000000000000000000000000604482015260640161081a565b60405173ffffffffffffffffffffffffffffffffffffffff8216903480156108fc02916000818181858888f1935050505015801561173a573d6000803e3d6000fd5b505b60408051602080820185905289013591810191909152600060608201819052606182018190526075820181905233916095016040516020818303038152906040528051906020012090508581146117ef576040517f08c379a000000000000000000000000000000000000000000000000000000000815260206004820152600f60248201527f494e56414c49445f544f5f484153480000000000000000000000000000000000604482015260640161081a565b73ffffffffffffffffffffffffffffffffffffffff82166000908152600660205260409020600101544210611880576040517f08c379a000000000000000000000000000000000000000000000000000000000815260206004820152601460248201527f535542534352495054494f4e5f45585049524544000000000000000000000000604482015260640161081a565b61188f8a8a8a8a8a898b612cd0565b50505050505050505050565b60006108b93384846124a5565b60006118b58686866126f3565b6040517fa4c0ed3600000000000000000000000000000000000000000000000000000000815273ffffffffffffffffffffffffffffffffffffffff86169063a4c0ed3690610da09089908890889088906004016154b1565b600061191a338686612397565b6040517eba451f00000000000000000000000000000000000000000000000000000000815273ffffffffffffffffffffffffffffffffffffffff86169062ba451f90610cde9033908890889088906004016154b1565b73ffffffffffffffffffffffffffffffffffffffff87166119ed576040517f08c379a000000000000000000000000000000000000000000000000000000000815260206004820152601460248201527f494e56414c49445f5a45524f5f41444452455353000000000000000000000000604482015260640161081a565b73ffffffffffffffffffffffffffffffffffffffff87811660008181526003602090815260408083205481517f6e71edae12b1b97f4d1f60370fef10105fa2faae0126114a169c64845d6126c98185015280830195909552948b166060850152608084018a905260a0840185905260c08085018a90528151808603909101815260e0850190915280519101207f19010000000000000000000000000000000000000000000000000000000000006101008401527f00000000000000000000000000000000000000000000000000000000000000006101028401526101228301529061014201604080517fffffffffffffffffffffffffffffffffffffffffffffffffffffffffffffffe081840301815282825280516020918201206000845290830180835281905260ff8816918301919091526060820186905260808201859052915060019060a0016020604051602081039080840390855afa158015611b58573d6000803e3d6000fd5b5050506020604051035173ffffffffffffffffffffffffffffffffffffffff168973ffffffffffffffffffffffffffffffffffffffff1614611bf6576040517f08c379a000000000000000000000000000000000000000000000000000000000815260206004820152601160248201527f494e56414c49445f5349474e4154555245000000000000000000000000000000604482015260640161081a565b851580611c035750854211155b611c69576040517f08c379a000000000000000000000000000000000000000000000000000000000815260206004820152600860248201527f544f4f5f4c415445000000000000000000000000000000000000000000000000604482015260640161081a565b611c7482600161556d565b73ffffffffffffffffffffffffffffffffffffffff8a1660009081526003602052604090205561166a898989612397565b60045473ffffffffffffffffffffffffffffffffffffffff163314611d26576040517f08c379a000000000000000000000000000000000000000000000000000000000815260206004820152600b60248201527f4e4f545f414c4c4f574544000000000000000000000000000000000000000000604482015260640161081a565b600480547fffffffffffffffffffffffff00000000000000000000000000000000000000001673ffffffffffffffffffffffffffffffffffffffff83169081179091556040519081527f083dc55b3248fa3ebfe8473cfe49ec0028fb069195dc28d6513564cbc9f162df9060200160405180910390a150565b600073ffffffffffffffffffffffffffffffffffffffff8316301415611de657507fffffffffffffffffffffffffffffffffffffffffffffffffffffffffffffffff6108bd565b5073ffffffffffffffffffffffffffffffffffffffff918216600090815260026020908152604080832093909416825291909152205490565b600080611e2c85346153af565b9050611e3885826153c3565b3414611ea0576040517f08c379a000000000000000000000000000000000000000000000000000000000815260206004820152601160248201527f494e56414c49445f4d53475f56414c5545000000000000000000000000000000604482015260640161081a565b848314611f09576040517f08c379a000000000000000000000000000000000000000000000000000000000815260206004820152600f60248201527f4e4f545f53414d455f4c454e4754480000000000000000000000000000000000604482015260640161081a565b60005b85811015610b8d57611f5d33888884818110611f2a57611f2a615400565b9050602002016020810190611f3f9190614b9c565b878785818110611f5157611f51615400565b905060200201356124a5565b868682818110611f6f57611f6f615400565b9050602002016020810190611f849190614b9c565b73ffffffffffffffffffffffffffffffffffffffff166108fc839081150290604051600060405180830381858888f19350505050158015611fc9573d6000803e3d6000fd5b5080611fd48161542f565b915050611f0c565b6000611fe93384846124a5565b60405173ffffffffffffffffffffffffffffffffffffffff8416903480156108fc02916000818181858888f19350505050158015610c6f573d6000803e3d6000fd5b600080868514612097576040517f08c379a000000000000000000000000000000000000000000000000000000000815260206004820152601560248201527f544f4b454e5f4e4f545f53414d455f4c454e4754480000000000000000000000604482015260640161081a565b868314612100576040517f08c379a000000000000000000000000000000000000000000000000000000000815260206004820152601360248201527f4554485f4e4f545f53414d455f4c454e47544800000000000000000000000000604482015260640161081a565b60005b878110156122465786868281811061211d5761211d615400565b9050602002013560001461216857612168338a8a8481811061214157612141615400565b90506020020160208101906121569190614b9c565b898985818110611f5157611f51615400565b84848281811061217a5761217a615400565b905060200201356000146122345788888281811061219a5761219a615400565b90506020020160208101906121af9190614b9c565b73ffffffffffffffffffffffffffffffffffffffff166108fc8686848181106121da576121da615400565b905060200201359081150290604051600060405180830381858888f1935050505015801561220c573d6000803e3d6000fd5b5084848281811061221f5761221f615400565b9050602002013582612231919061556d565b91505b8061223e8161542f565b915050612103565b508034146122b0576040517f08c379a000000000000000000000000000000000000000000000000000000000815260206004820152601160248201527f494e56414c49445f4d53475f56414c5545000000000000000000000000000000604482015260640161081a565b506001979650505050505050565b60045473ffffffffffffffffffffffffffffffffffffffff16331461233f576040517f08c379a000000000000000000000000000000000000000000000000000000000815260206004820152600b60248201527f4e4f545f414c4c4f574544000000000000000000000000000000000000000000604482015260640161081a565b6005546040517fff1e03e900000000000000000000000000000000000000000000000000000000815273ffffffffffffffffffffffffffffffffffffffff83811660048301529091169063ff1e03e990602401610877565b73ffffffffffffffffffffffffffffffffffffffff8316158015906123d1575073ffffffffffffffffffffffffffffffffffffffff821615155b612437576040517f08c379a000000000000000000000000000000000000000000000000000000000815260206004820152601460248201527f494e56414c49445f5a45524f5f41444452455353000000000000000000000000604482015260640161081a565b73ffffffffffffffffffffffffffffffffffffffff83811660008181526002602090815260408083209487168084529482529182902085905590518481527f8c5be1e5ebec7d5bd14f71427d1e84f3dd0314c0f7b2291e5b200ac8c7c3b925910160405180910390a3505050565b73ffffffffffffffffffffffffffffffffffffffff8216612522576040517f08c379a000000000000000000000000000000000000000000000000000000000815260206004820152601460248201527f494e56414c49445f5a45524f5f41444452455353000000000000000000000000604482015260640161081a565b73ffffffffffffffffffffffffffffffffffffffff82163014156125a2576040517f08c379a000000000000000000000000000000000000000000000000000000000815260206004820152601460248201527f494e56414c49445f544849535f41444452455353000000000000000000000000604482015260640161081a565b73ffffffffffffffffffffffffffffffffffffffff831660009081526001602052604090205481811015612632576040517f08c379a000000000000000000000000000000000000000000000000000000000815260206004820152601160248201527f4e4f545f454e4f5547485f544f4b454e53000000000000000000000000000000604482015260640161081a565b61263c82826155e5565b73ffffffffffffffffffffffffffffffffffffffff808616600090815260016020526040808220939093559085168152908120805484929061267f90849061556d565b925050819055508273ffffffffffffffffffffffffffffffffffffffff168473ffffffffffffffffffffffffffffffffffffffff167fddf252ad1be2c89b69c2b068fc378daa952ba7f163c4a11628f55a4df523b3ef846040516126e591815260200190565b60405180910390a350505050565b3373ffffffffffffffffffffffffffffffffffffffff84161480159061272f575073ffffffffffffffffffffffffffffffffffffffff83163014155b156128345773ffffffffffffffffffffffffffffffffffffffff831660009081526002602090815260408083203384529091529020547fffffffffffffffffffffffffffffffffffffffffffffffffffffffffffffffff811461283257818110156127f6576040517f08c379a000000000000000000000000000000000000000000000000000000000815260206004820152601760248201527f4e4f545f415554484f495a45445f414c4c4f57414e4345000000000000000000604482015260640161081a565b61280082826155e5565b73ffffffffffffffffffffffffffffffffffffffff851660009081526002602090815260408083203384529091529020555b505b61283f8383836124a5565b505050565b61284e838361334c565b73ffffffffffffffffffffffffffffffffffffffff831660009081526006602052604090208054600190910154428110156128fd5773ffffffffffffffffffffffffffffffffffffffff8516600090815260066020526040902042908190559150670de0b6b3a76400006128e2857f00000000000000000000000000000000000000000000000000000000000000006153c3565b6128ec91906153af565b6128f6908361556d565b9050612947565b670de0b6b3a7640000612930857f00000000000000000000000000000000000000000000000000000000000000006153c3565b61293a91906153af565b612944908261556d565b90505b60005b83518110156129c45760016008600086848151811061296b5761296b615400565b602090810291909101810151825281019190915260400160002080547fffffffffffffffffffffffffffffffffffffffffffffffffffffffffffffff0016911515919091179055806129bc8161542f565b91505061294a565b5073ffffffffffffffffffffffffffffffffffffffff851660008181526006602052604090819020600101839055517f15d2bd1de44af0c75855c12bdee2654829d4e3f57c33b45267db054421410c1a90612a269085908590899089906155fc565b60405180910390a25050505050565b60008581526008602052604090205460ff16612aad576040517f08c379a000000000000000000000000000000000000000000000000000000000815260206004820152601860248201527f5441524745545f504c414e45545f4e4f545f59414b555a410000000000000000604482015260640161081a565b60008581526008602052604090205442660100000000000090910464ffffffffff1610612b36576040517f08c379a000000000000000000000000000000000000000000000000000000000815260206004820152601460248201527f5441524745545f504c414e45545f4c4f434b4544000000000000000000000000604482015260640161081a565b6000612b44878787876133ee565b6040517f112e68510000000000000000000000000000000000000000000000000000000081526004810189905263ffffffff86166024820152604481018590529091507f000000000000000000000000000000000000000000000000000000000000000073ffffffffffffffffffffffffffffffffffffffff169063112e685190606401600060405180830381600087803b158015612be257600080fd5b505af1158015612bf6573d6000803e3d6000fd5b50506040805160208082018890528183018c905230606090811b7fffffffffffffffffffffffffffffffffffffffff0000000000000000000000001690830181905260748301528251808303606801815260888301808552815191909201209081905263ffffffff891660a883015264ffffffffff861660c883015260e88201879052915191935089925073ffffffffffffffffffffffffffffffffffffffff8c16917fd231cd95035c0af619937b9299c7ebedd2b33abbdc2da46f77ecdc469bf9896191610108908290030190a3505050505050505050565b338760c08801356020890135612cec60a08b0160808c01615621565b612cfc60c08c0160a08d01614b9c565b8b60600135604051602001612d5b959493929190948552602085019390935290151560f81b604084015260601b7fffffffffffffffffffffffffffffffffffffffff000000000000000000000000166041830152605582015260750190565b604080517fffffffffffffffffffffffffffffffffffffffffffffffffffffffffffffffe081840301815291905280516020909101208835612da46101008b0160e08c01614b9c565b612db66101208c016101008d01614b9c565b6040805160208101959095528401929092527fffffffffffffffffffffffffffffffffffffffff000000000000000000000000606091821b81168285015291901b1660748201526088016040516020818303038152906040528051906020012060001c14612e80576040517f08c379a000000000000000000000000000000000000000000000000000000000815260206004820152601c60248201527f494e56414c49445f464c4545545f444154415f4f525f53454352455400000000604482015260640161081a565b6000612e9389878a60200135868b6138c2565b9050612ea9828a8a600001358460400151613d2a565b7f00000000000000000000000000000000000000000000000000000000000000008763ffffffff161015612f39576040517f08c379a000000000000000000000000000000000000000000000000000000000815260206004820152601760248201527f41545441434b5f414d4f554e545f544f4f5f534d414c4c000000000000000000604482015260640161081a565b6020888101356000908152600882526040808220805460017fffffffffffffffffffffffffffffffffffffffffffffffffffffffffffffff0090911617908190558c83526007909352902054660100000000000090910464ffffffffff169061010090047effffffffffffffffffffffffffffffffffffffffffffffffffffffffffffff16612ff6578151612fef907f00000000000000000000000000000000000000000000000000000000000000009061563e565b905061306e565b815164ffffffffff82169061302c907f00000000000000000000000000000000000000000000000000000000000000009061563e565b64ffffffffff161061303e578061306b565b815161306b907f00000000000000000000000000000000000000000000000000000000000000009061563e565b90505b6020898101356000908152600882526040902080547fffffffffffffffffffffffffffffffffffffffffff0000000000ffffffffffff16660100000000000064ffffffffff85160217905582015163ffffffff89161061310b57600060208084018290528b8252600790526040902080547fffffffffffffffffffffffffffffffffffffffffffffffffffffffffffffff00166001179055613148565b8763ffffffff16826020015161312191906155e5565b7effffffffffffffffffffffffffffffffffffffffffffffffffffffffffffff1660208301525b60208281015160008c8152600790925260409182902080547effffffffffffffffffffffffffffffffffffffffffffffffffffffffffffff9092166101000260ff909216919091179055517f112e68510000000000000000000000000000000000000000000000000000000081526004810188905263ffffffff891660248201526044810187905273ffffffffffffffffffffffffffffffffffffffff7f0000000000000000000000000000000000000000000000000000000000000000169063112e685190606401600060405180830381600087803b15801561322b57600080fd5b505af115801561323f573d6000803e3d6000fd5b505060408051602081018a90529081018a905230606090811b7fffffffffffffffffffffffffffffffffffffffff000000000000000000000000169082018190526074820152600092506088019050604080517fffffffffffffffffffffffffffffffffffffffffffffffffffffffffffffffe081840301815282825280516020918201208682015181855263ffffffff8e16858401529284019290925264ffffffffff85166060840152608083018990529092508b0135908c9073ffffffffffffffffffffffffffffffffffffffff8716907f28f0e70dc0a95cd80d6a14d6fd32d24213951768315b75439c43aee3ddbcc8d39060a00160405180910390a45050505050505050505050565b8060008082825461335d919061556d565b909155505073ffffffffffffffffffffffffffffffffffffffff82166000908152600160205260408120805483929061339790849061556d565b909155505060405181815273ffffffffffffffffffffffffffffffffffffffff8316906000907fddf252ad1be2c89b69c2b068fc378daa952ba7f163c4a11628f55a4df523b3ef9060200160405180910390a35050565b6000806133fa8661447a565b905060006134078661447a565b6040517f1e7c86ea0000000000000000000000000000000000000000000000000000000081526004810188905290915060009073ffffffffffffffffffffffffffffffffffffffff7f00000000000000000000000000000000000000000000000000000000000000001690631e7c86ea906024016101006040518083038186803b15801561349457600080fd5b505afa1580156134a8573d6000803e3d6000fd5b505050506040513d601f19601f820116820180604052508101906134cc9190615692565b90508060c00151613539576040517f08c379a000000000000000000000000000000000000000000000000000000000815260206004820152601860248201527f5441524745545f504c414e45545f4e4f545f4143544956450000000000000000604482015260640161081a565b805173ffffffffffffffffffffffffffffffffffffffff163014156135ba576040517f08c379a000000000000000000000000000000000000000000000000000000000815260206004820152601b60248201527f5441524745545f504c414e45545f414c52454144595f4f574e45440000000000604482015260640161081a565b6135c78689898686614555565b606083015160009061ffff166135ff7f00000000000000000000000000000000000000000000000000000000000000006127106153c3565b61360990896153c3565b61361391906153af565b90507f000000000000000000000000000000000000000000000000000000000000000081111561369f576040517f08c379a000000000000000000000000000000000000000000000000000000000815260206004820152600c60248201527f544f4f5f4641525f415741590000000000000000000000000000000000000000604482015260640161081a565b6040517f1e7c86ea000000000000000000000000000000000000000000000000000000008152600481018a90526000907f000000000000000000000000000000000000000000000000000000000000000073ffffffffffffffffffffffffffffffffffffffff1690631e7c86ea906024016101006040518083038186803b15801561372957600080fd5b505afa15801561373d573d6000803e3d6000fd5b505050506040513d601f19601f820116820180604052508101906137619190615692565b9050600061377286600001516146ca565b905060006127106137a37f0000000000000000000000000000000000000000000000000000000000000000846153c3565b6137ad91906153af565b905080836060015163ffffffff1611613822576040517f08c379a000000000000000000000000000000000000000000000000000000000815260206004820152601560248201527f4e4f545f454e4f5547485f535041434553484950530000000000000000000000604482015260640161081a565b80836060015163ffffffff1661383891906155e5565b8963ffffffff1611156138a7576040517f08c379a000000000000000000000000000000000000000000000000000000000815260206004820152601c60248201527f4e4545445f544f5f4c454156455f454e4f5547485f444546454e534500000000604482015260640161081a565b6138b28b878b614731565b9c9b505050505050505050505050565b60408051606081018252600080825260208201819052918101829052906138e88661447a565b905060006138f58661447a565b90506139048588888585614555565b606082015160009061ffff1661393c7f00000000000000000000000000000000000000000000000000000000000000006127106153c3565b61394690886153c3565b61395091906153af565b90507f00000000000000000000000000000000000000000000000000000000000000008111156139dc576040517f08c379a000000000000000000000000000000000000000000000000000000000815260206004820152600c60248201527f544f4f5f4641525f415741590000000000000000000000000000000000000000604482015260640161081a565b6139e6814261556d565b64ffffffffff1684526040517f1e7c86ea000000000000000000000000000000000000000000000000000000008152600481018990526000907f000000000000000000000000000000000000000000000000000000000000000073ffffffffffffffffffffffffffffffffffffffff1690631e7c86ea906024016101006040518083038186803b158015613a7957600080fd5b505afa158015613a8d573d6000803e3d6000fd5b505050506040513d601f19601f82011682018060405250810190613ab19190615692565b90506000613ac285600001516146ca565b90506000612710613af37f0000000000000000000000000000000000000000000000000000000000000000846153c3565b613afd91906153af565b905080836060015163ffffffff1611613b72576040517f08c379a000000000000000000000000000000000000000000000000000000000815260206004820152601560248201527f4e4f545f454e4f5547485f535041434553484950530000000000000000000000604482015260640161081a565b80836060015163ffffffff16613b8891906155e5565b8863ffffffff161115613bf7576040517f08c379a000000000000000000000000000000000000000000000000000000000815260206004820152601c60248201527f4e4545445f544f5f4c454156455f454e4f5547485f444546454e534500000000604482015260640161081a565b60008c81526007602090815260409091205461010090047effffffffffffffffffffffffffffffffffffffffffffffffffffffffffffff16908801819052613ca757600160408801528451600090613c4e906146ca565b9050866020015161ffff16866040015161ffff1610613c9e57866020015161ffff16866040015161ffff1682613c8491906153c3565b613c8e91906153af565b613c9990600161556d565b613ca0565b805b6020890152505b86602001518863ffffffff161115613d1b576040517f08c379a000000000000000000000000000000000000000000000000000000000815260206004820152601b60248201527f544f4f5f4d414e595f535041434553484950535f434c41494d45440000000000604482015260640161081a565b50505050505095945050505050565b60008381526007602052604090205460ff1615613da3576040517f08c379a000000000000000000000000000000000000000000000000000000000815260206004820152600f60248201527f414c52454144595f434c41494d45440000000000000000000000000000000000604482015260640161081a565b6040517f1e7c86ea000000000000000000000000000000000000000000000000000000008152600481018390526000907f000000000000000000000000000000000000000000000000000000000000000073ffffffffffffffffffffffffffffffffffffffff1690631e7c86ea906024016101006040518083038186803b158015613e2d57600080fd5b505afa158015613e41573d6000803e3d6000fd5b505050506040513d601f19601f82011682018060405250810190613e659190615692565b90508060c00151613ed2576040517f08c379a000000000000000000000000000000000000000000000000000000000815260206004820152601860248201527f5441524745545f504c414e45545f4e4f545f4143544956450000000000000000604482015260640161081a565b805173ffffffffffffffffffffffffffffffffffffffff16301415613f53576040517f08c379a000000000000000000000000000000000000000000000000000000000815260206004820152601b60248201527f5441524745545f504c414e45545f414c52454144595f4f574e45440000000000604482015260640161081a565b6040517f7a7f1e4200000000000000000000000000000000000000000000000000000000815260048101859052602481018490526000907f000000000000000000000000000000000000000000000000000000000000000073ffffffffffffffffffffffffffffffffffffffff1690637a7f1e42906044016101606040518083038186803b158015613fe457600080fd5b505afa158015613ff8573d6000803e3d6000fd5b505050506040513d601f19601f8201168201806040525081019061401c9190615770565b602081015190915073ffffffffffffffffffffffffffffffffffffffff163014156140a3576040517f08c379a000000000000000000000000000000000000000000000000000000000815260206004820152600f60248201527f464c4545545f49535f59414b555a410000000000000000000000000000000000604482015260640161081a565b8215614142578573ffffffffffffffffffffffffffffffffffffffff168160c0015173ffffffffffffffffffffffffffffffffffffffff1614614142576040517f08c379a000000000000000000000000000000000000000000000000000000000815260206004820152601460248201527f4449445f4e4f545f54415247455445445f594f55000000000000000000000000604482015260640161081a565b73ffffffffffffffffffffffffffffffffffffffff861660009081526006602052604090205460e082015161419f907f00000000000000000000000000000000000000000000000000000000000000009064ffffffffff166155e5565b11614206576040517f08c379a000000000000000000000000000000000000000000000000000000000815260206004820152601160248201527f464c4545545f4e4f545f434f5645524544000000000000000000000000000000604482015260640161081a565b82156142b0577f00000000000000000000000000000000000000000000000000000000000000008160e0015164ffffffffff16614243919061556d565b42106142ab576040517f08c379a000000000000000000000000000000000000000000000000000000000815260206004820152601160248201527f544f4f5f4c4154455f544f5f434c41494d000000000000000000000000000000604482015260640161081a565b614384565b6142db60027f00000000000000000000000000000000000000000000000000000000000000006153af565b7f00000000000000000000000000000000000000000000000000000000000000008260e0015164ffffffffff16614312919061556d565b61431c919061556d565b4210614384576040517f08c379a000000000000000000000000000000000000000000000000000000000815260206004820152601960248201527f544f4f5f4c4154455f544f5f434c41494d5f4655525448455200000000000000604482015260640161081a565b6000816060015163ffffffff16116143f8576040517f08c379a000000000000000000000000000000000000000000000000000000000815260206004820152600860248201527f4e4f5f464c454554000000000000000000000000000000000000000000000000604482015260640161081a565b806101200151801561440c57508061014001515b614472576040517f08c379a000000000000000000000000000000000000000000000000000000000815260206004820152601260248201527f4e4f545f4143544956455f564943544f52590000000000000000000000000000604482015260640161081a565b505050505050565b6040805160c0810182526000808252602080830182905282840182905260608084018390526080840183905260a084019290925283517f000000000000000000000000000000000000000000000000000000000000000081830152808501869052845180820386018152920190935280519201919091206144fa81614989565b61ffff168252614509816149b7565b61ffff16602083015261451b816149df565b61ffff16604083015261452d816149ec565b61ffff16606083015261453f81614a14565b600090810b60a08501520b608083015250919050565b600060028360a0015160000b608087901c6004614572919061584a565b61457c9190615900565b60a084015160000b614593608088901c600461584a565b61459d9190615900565b6145a79190615970565b6145b19190615bb2565b608084015160029060000b6145d96fffffffffffffffffffffffffffffffff8916600461584a565b6145e39190615900565b608085015160000b6146086fffffffffffffffffffffffffffffffff8916600461584a565b6146129190615900565b61461c9190615970565b6146269190615bb2565b6146309190615900565b600f0b905080614641600288615c71565b111580156146645750600261465787600161556d565b6146619190615c71565b81105b614472576040517f08c379a000000000000000000000000000000000000000000000000000000000815260206004820152600e60248201527f77726f6e672064697374616e6365000000000000000000000000000000000000604482015260640161081a565b6000610e106146fd7f000000000000000000000000000000000000000000000000000000000000000061ffff85166153c3565b61470791906153af565b6108bd907f000000000000000000000000000000000000000000000000000000000000000061556d565b815160009042908290614743906146ca565b90506000610e107f0000000000000000000000000000000000000000000000000000000000000000876000015161ffff1661477e91906153c3565b61478891906153af565b905080614793575060015b600061479f82846153af565b600089815260086020526040812054919250906147c890610100900464ffffffffff16866155e5565b9050818111156147d55750805b60006147e282600161556d565b6147f29063ffffffff8a166153af565b90508381111561485e576040517f08c379a000000000000000000000000000000000000000000000000000000000815260206004820152601960248201527f544f4f5f4d5543485f5350454e545f5045525f5345434f4e4400000000000000604482015260640161081a565b7f00000000000000000000000000000000000000000000000000000000000000008863ffffffff1610156148ee576040517f08c379a000000000000000000000000000000000000000000000000000000000815260206004820152601760248201527f41545441434b5f414d4f554e545f544f4f5f534d414c4c000000000000000000604482015260640161081a565b60006148fa83866153c3565b9050808963ffffffff1610156149355761491a8563ffffffff8b166153af565b61492484896155e5565b61492e919061556d565b9750614939565b8697505b5050506000978852505060086020525050604090932080547fffffffffffffffffffffffffffffffffffffffffffffffffffff0000000000ff1661010064ffffffffff8616021790555090919050565b60006108bd82600c7f0708083409600a8c0bb80ce40e100e100e100e101068151819c81e7823282ee0614a4f565b60006149c4826014614ac0565b6149d39060ff16610190615c80565b6108bd90610fa0615caa565b60006149c482601c614ac0565b60006149f9826024614ac0565b614a089060ff1661014d615c80565b6108bd9061138d615caa565b600080614a2383826003614b5a565b614a2e906001615cc7565b9150614a3d8360026003614b5a565b614a48906001615cc7565b9050915091565b600080614a5c8585614ac0565b905082614a6a826002615d1f565b614a75906001615d40565b60ff1660208110614a8857614a88615400565b1a83614a95836002615d1f565b60ff1660208110614aa857614aa8615400565b614ab691901a610100615c80565b610d309190615caa565b600080614acf84846040614b5a565b90506000614ade600283615d65565b90506000614aed600284615d87565b905060007f01223334444555555666666677777777888888889999999aaaaaabbbbcccddef60ff841660208110614b2657614b26615400565b1a905060ff8216614b445760048160ff16901c9450505050506108bd565b614b4f601082615d87565b9450505050506108bd565b6000614b6f60ff80841690851686901c615da9565b949350505050565b73ffffffffffffffffffffffffffffffffffffffff81168114614b9957600080fd5b50565b600060208284031215614bae57600080fd5b8135614bb981614b77565b9392505050565b600060208083528351808285015260005b81811015614bed57858101830151858201604001528201614bd1565b81811115614bff576000604083870101525b50601f017fffffffffffffffffffffffffffffffffffffffffffffffffffffffffffffffe016929092016040019392505050565b60008060408385031215614c4657600080fd5b8235614c5181614b77565b946020939093013593505050565b6000806000806000858703610240811215614c7957600080fd5b8635614c8481614b77565b95506020870135614c9481614b77565b94506040870135614ca481614b77565b93506060870135614cb481614b77565b92506101c07fffffffffffffffffffffffffffffffffffffffffffffffffffffffffffffff8082011215614ce757600080fd5b506080860190509295509295909350565b60008083601f840112614d0a57600080fd5b50813567ffffffffffffffff811115614d2257600080fd5b6020830191508360208260051b8501011115614d3d57600080fd5b9250929050565b600080600060408486031215614d5957600080fd5b833567ffffffffffffffff811115614d7057600080fd5b614d7c86828701614cf8565b909790965060209590950135949350505050565b600080600060608486031215614da557600080fd5b8335614db081614b77565b92506020840135614dc081614b77565b929592945050506040919091013590565b60008083601f840112614de357600080fd5b50813567ffffffffffffffff811115614dfb57600080fd5b602083019150836020828501011115614d3d57600080fd5b60008060008060608587031215614e2957600080fd5b8435614e3481614b77565b935060208501359250604085013567ffffffffffffffff811115614e5757600080fd5b614e6387828801614dd1565b95989497509550505050565b600080600080600060808688031215614e8757600080fd5b8535614e9281614b77565b94506020860135614ea281614b77565b935060408601359250606086013567ffffffffffffffff811115614ec557600080fd5b614ed188828901614dd1565b969995985093965092949392505050565b60008060408385031215614ef557600080fd5b50508035926020909101359150565b7f4e487b7100000000000000000000000000000000000000000000000000000000600052604160045260246000fd5b604051610160810167ffffffffffffffff81118282101715614f5757614f57614f04565b60405290565b604051601f82017fffffffffffffffffffffffffffffffffffffffffffffffffffffffffffffffe016810167ffffffffffffffff81118282101715614fa457614fa4614f04565b604052919050565b60008060008060808587031215614fc257600080fd5b843567ffffffffffffffff80821115614fda57600080fd5b818701915087601f830112614fee57600080fd5b813560208282111561500257615002614f04565b8160051b9250615013818401614f5d565b828152928401810192818101908b85111561502d57600080fd5b948201945b8486101561504b57853582529482019490820190615032565b9b918a01359a505060408901359860600135975095505050505050565b63ffffffff81168114614b9957600080fd5b600080600080600080600060e0888a03121561509557600080fd5b87359650602088013595506040880135945060608801356150b581615068565b93506080880135925060a0880135915060c08801356150d381614b77565b8091505092959891949750929550565b600080600080600080600080888a0361020081121561510157600080fd5b893598506101207fffffffffffffffffffffffffffffffffffffffffffffffffffffffffffffffe08201121561513657600080fd5b5060208901965061014089013561514c81615068565b9550610160890135945061018089013593506101a089013592506101c089013591506101e089013561517d81614b77565b809150509295985092959890939650565b6000602082840312156151a057600080fd5b5035919050565b600080600080600080600060e0888a0312156151c257600080fd5b87356151cd81614b77565b965060208801356151dd81614b77565b95506040880135945060608801359350608088013560ff8116811461520157600080fd5b9699959850939692959460a0840135945060c09093013592915050565b6000806040838503121561523157600080fd5b823561523c81614b77565b9150602083013561524c81614b77565b809150509250929050565b6000806000806040858703121561526d57600080fd5b843567ffffffffffffffff8082111561528557600080fd5b61529188838901614cf8565b909650945060208701359150808211156152aa57600080fd5b50614e6387828801614cf8565b600080600080600080606087890312156152d057600080fd5b863567ffffffffffffffff808211156152e857600080fd5b6152f48a838b01614cf8565b9098509650602089013591508082111561530d57600080fd5b6153198a838b01614cf8565b9096509450604089013591508082111561533257600080fd5b5061533f89828a01614cf8565b979a9699509497509295939492505050565b7f4e487b7100000000000000000000000000000000000000000000000000000000600052601260045260246000fd5b7f4e487b7100000000000000000000000000000000000000000000000000000000600052601160045260246000fd5b6000826153be576153be615351565b500490565b6000817fffffffffffffffffffffffffffffffffffffffffffffffffffffffffffffffff04831182151516156153fb576153fb615380565b500290565b7f4e487b7100000000000000000000000000000000000000000000000000000000600052603260045260246000fd5b60007fffffffffffffffffffffffffffffffffffffffffffffffffffffffffffffffff82141561546157615461615380565b5060010190565b8183528181602085013750600060208284010152600060207fffffffffffffffffffffffffffffffffffffffffffffffffffffffffffffffe0601f840116840101905092915050565b73ffffffffffffffffffffffffffffffffffffffff85168152836020820152606060408201526000610df2606083018486615468565b8015158114614b9957600080fd5b8051615500816154e7565b919050565b60006020828403121561551757600080fd5b8151614bb9816154e7565b600073ffffffffffffffffffffffffffffffffffffffff808816835280871660208401525084604083015260806060830152615562608083018486615468565b979650505050505050565b6000821982111561558057615580615380565b500190565b600081518084526020808501945080840160005b838110156155b557815187529582019590820190600101615599565b509495945050505050565b6060815260006155d36060830186615585565b60208301949094525060400152919050565b6000828210156155f7576155f7615380565b500390565b848152836020820152826040820152608060608201526000610df26080830184615585565b60006020828403121561563357600080fd5b8135614bb9816154e7565b600064ffffffffff80831681851680830382111561565e5761565e615380565b01949350505050565b805161550081614b77565b805164ffffffffff8116811461550057600080fd5b805161550081615068565b60006101008083850312156156a657600080fd5b6040519081019067ffffffffffffffff821181831017156156c9576156c9614f04565b81604052835191506156da82614b77565b8181526156e960208501615672565b60208201526156fa60408501615672565b604082015261570b60608501615687565b606082015261571c60808501615687565b608082015261572d60a08501615672565b60a082015261573e60c085016154f5565b60c082015260e084015160e0820152809250505092915050565b805167ffffffffffffffff8116811461550057600080fd5b6000610160828403121561578357600080fd5b61578b614f33565b615794836154f5565b81526157a260208401615667565b60208201526157b360408401615672565b60408201526157c460608401615687565b60608201526157d560808401615758565b60808201526157e660a08401615758565b60a08201526157f760c08401615667565b60c082015261580860e08401615672565b60e082015261010061581b818501615687565b9082015261012061582d8482016154f5565b9082015261014061583f8482016154f5565b908201529392505050565b600081600f0b83600f0b6f7fffffffffffffffffffffffffffffff60008213600084138383048511828216161561588357615883615380565b7fffffffffffffffffffffffffffffffff8000000000000000000000000000000060008512868205861281841616156158be576158be615380565b600087129250858205871284841616156158da576158da615380565b858505871281841616156158f0576158f0615380565b5050509290910295945050505050565b600081600f0b83600f0b60008212826f7fffffffffffffffffffffffffffffff0382138115161561593357615933615380565b827fffffffffffffffffffffffffffffffff8000000000000000000000000000000003821281161561596757615967615380565b50019392505050565b600081600f0b83600f0b60008112817fffffffffffffffffffffffffffffffff80000000000000000000000000000000018312811516156159b3576159b3615380565b816f7fffffffffffffffffffffffffffffff0183138116156159d7576159d7615380565b5090039392505050565b600181815b80851115615a3a57817fffffffffffffffffffffffffffffffffffffffffffffffffffffffffffffffff04821115615a2057615a20615380565b80851615615a2d57918102915b93841c93908002906159e6565b509250929050565b80825b6001808611615a545750615a8f565b816f7fffffffffffffffffffffffffffffff04821115615a7657615a76615380565b80861615615a8357918102915b9490941c938002615a45565b935093915050565b6000828015615aad5760018114615ab757615ac0565b60019150506108bd565b829150506108bd565b5081615ace575060006108bd565b50600160008213808214615ae7578015615b0e57615b30565b826f7fffffffffffffffffffffffffffffff04831115615b0957615b09615380565b615b30565b826f7fffffffffffffffffffffffffffffff05831215615b3057615b30615380565b5080831615615b3c5750805b615b4c8360011c83840283615a42565b806f7fffffffffffffffffffffffffffffff048211600083131615615b7357615b73615380565b807fffffffffffffffffffffffffffffffff80000000000000000000000000000000058212600083121615615baa57615baa615380565b029392505050565b6000614bb960ff841683600f0b615a97565b600082615bd3575060016108bd565b81615be0575060006108bd565b8160018114615aad5760028114615bf657615c12565b60ff841115615c0757615c07615380565b50506001821b6108bd565b5060208310610133831016604e8410600b8410161715615c35575081810a6108bd565b615c3f83836159e1565b807fffffffffffffffffffffffffffffffffffffffffffffffffffffffffffffffff04821115615baa57615baa615380565b6000614bb960ff841683615bc4565b600061ffff80831681851681830481118215151615615ca157615ca1615380565b02949350505050565b600061ffff80831681851680830382111561565e5761565e615380565b60008160000b8360000b60008112817fffffffffffffffffffffffffffffffffffffffffffffffffffffffffffffff8001831281151615615d0a57615d0a615380565b81607f0183138116156159d7576159d7615380565b600060ff821660ff84168160ff0481118215151615615baa57615baa615380565b600060ff821660ff84168060ff03821115615d5d57615d5d615380565b019392505050565b600060ff831680615d7857615d78615351565b8060ff84160491505092915050565b600060ff831680615d9a57615d9a615351565b8060ff84160691505092915050565b600082615db857615db8615351565b50069056fea264697066735822122014fbb8222b4ad2d87ff93ffb3d052c88e4f0e22f2ed39fa77d096c1958673ce964736f6c63430008090033",
  "linkReferences": {},
  "deployedLinkReferences": {},
  "immutableReferences": {
    "11872": [
      {
        "length": 32,
        "start": 959
      },
      {
        "length": 32,
        "start": 6818
      }
    ],
    "21080": [
      {
        "length": 32,
        "start": 4633
      },
      {
        "length": 32,
        "start": 4862
      },
      {
        "length": 32,
        "start": 11145
      },
      {
        "length": 32,
        "start": 12775
      },
      {
        "length": 32,
        "start": 13393
      },
      {
        "length": 32,
        "start": 14033
      },
      {
        "length": 32,
        "start": 14881
      },
      {
        "length": 32,
        "start": 15829
      },
      {
        "length": 32,
        "start": 16268
      }
    ],
    "21083": [
      {
        "length": 32,
        "start": 3816
      },
      {
        "length": 32,
        "start": 3995
      },
      {
        "length": 32,
        "start": 4427
      },
      {
        "length": 32,
        "start": 4594
      }
    ],
    "21085": [
      {
        "length": 32,
        "start": 17586
      }
    ],
    "21087": [
      {
        "length": 32,
        "start": 18189
      }
    ],
    "21089": [
      {
        "length": 32,
        "start": 18132
      }
    ],
    "21091": [
      {
        "length": 32,
        "start": 12234
      },
      {
        "length": 32,
        "start": 12295
      },
      {
        "length": 32,
        "start": 12358
      },
      {
        "length": 32,
        "start": 16755
      }
    ],
    "21093": [
      {
        "length": 32,
        "start": 13784
      },
      {
        "length": 32,
        "start": 14613
      }
    ],
    "21095": [
      {
        "length": 32,
        "start": 18252
      }
    ],
    "21097": [
      {
        "length": 32,
        "start": 10430
      },
      {
        "length": 32,
        "start": 10508
      }
    ],
    "21099": [
      {
        "length": 32,
        "start": 14206
      },
      {
        "length": 32,
        "start": 15054
      }
    ],
    "21101": [
      {
        "length": 32,
        "start": 5049
      }
    ],
    "21103": [
      {
        "length": 32,
        "start": 16910
      },
      {
        "length": 32,
        "start": 17079
      },
      {
        "length": 32,
        "start": 17117
      }
    ],
    "21105": [
      {
        "length": 32,
        "start": 4194
      }
    ],
    "21107": [
      {
        "length": 32,
        "start": 3582
      }
    ],
    "21109": [
      {
        "length": 32,
        "start": 13847
      },
      {
        "length": 32,
        "start": 14676
      }
    ],
    "21111": [
      {
        "length": 32,
        "start": 11947
      },
      {
        "length": 32,
        "start": 18528
      }
    ]
  },
  "inputSourceName": "project/src/yakuza/Yakuza.sol",
  "devdoc": {
    "kind": "dev",
    "methods": {
      "allowance(address,address)": {
        "details": "Returns the remaining number of tokens that `spender` will be allowed to spend on behalf of `owner` through {transferFrom}. This is zero by default. This value changes when {approve} or {transferFrom} are called."
      },
      "approve(address,uint256)": {
        "details": "Sets `amount` as the allowance of `spender` over the caller's tokens. Returns a boolean value indicating whether the operation succeeded. IMPORTANT: Beware that changing an allowance with this method brings the risk that someone may use both the old and the new allowance by unfortunate transaction ordering. One possible solution to mitigate this race condition is to first reduce the spender's allowance to 0 and set the desired value afterwards: https://github.com/ethereum/EIPs/issues/20#issuecomment-263524729 Emits an {Approval} event."
      },
      "totalSupply()": {
        "details": "Returns the amount of tokens in existence."
      }
    },
    "version": 1
  },
  "evm": {
    "gasEstimates": {
      "creation": {
        "codeDepositCost": "4810200",
        "executionCost": "infinite",
        "totalCost": "infinite"
      },
      "external": {
        "DOMAIN_SEPARATOR()": "infinite",
        "allowance(address,address)": "infinite",
        "approve(address,uint256)": "24654",
        "approveAndCall(address,uint256,bytes)": "infinite",
        "balanceOf(address)": "2618",
        "changegGenerator(address)": "26744",
        "claimCounterAttack(uint256,(uint256,uint256,uint256,uint256,bool,address,bytes32,address,address),uint32,uint256,bytes32,uint256,bytes32,address)": "infinite",
        "claimFixedRewards(address)": "infinite",
        "claimSharedPoolRewards(address)": "infinite",
        "claims(uint256)": "2545",
        "decimals()": "245",
        "distributeAlongWithETH(address[],uint256)": "infinite",
        "distributeVariousAmountsAlongWithETH(address[],uint256[])": "infinite",
        "distributeVariousAmountsOfTokenAndETH(address[],uint256[],uint256[])": "infinite",
        "myPlanets(uint256)": "2611",
        "name()": "infinite",
        "nonces(address)": "2553",
        "payForAndCall(address,address,uint256,bytes)": "infinite",
        "permit(address,address,uint256,uint256,uint8,bytes32,bytes32)": "infinite",
        "postUpgrade(address,address,address,address,(bytes32,uint256,uint256,uint256,uint256,uint256,uint256,uint256,uint256,uint256,uint256,uint256,uint256,uint256))": "infinite",
        "rewardReceiver()": "2425",
        "setRewardReceiver(address)": "27774",
        "subscribeViaStaking(uint256[],uint256,uint256,uint256)": "infinite",
        "subscribeWithoutStaking(uint256,uint256)": "infinite",
        "subscriptions(address)": "4706",
        "symbol()": "infinite",
        "takeItBack(uint256,uint256,uint256,uint32,bytes32,bytes32,address)": "infinite",
        "totalSupply()": "2349",
        "transfer(address,uint256)": "51209",
        "transferAlongWithETH(address,uint256)": "infinite",
        "transferAndCall(address,uint256,bytes)": "infinite",
        "transferFrom(address,address,uint256)": "infinite",
        "transferFromAndCall(address,address,uint256,bytes)": "infinite"
      },
      "internal": {
        "_attack(address,uint256,uint256,uint256,uint32,bytes32,bytes32)": "infinite",
        "_attack(bytes32)": "infinite",
        "_capWhenActive(uint16)": "infinite",
        "_checkValidFleet(address,uint256,uint256,bool)": "infinite",
        "_claimAttack(uint256,struct ImportingOuterSpaceTypes.FleetResolution calldata,uint32,uint256,bytes32,bytes32,uint256)": "infinite",
        "_computeArrivalTimeAndAmountLeft(uint256,uint256,uint256,uint256,uint32)": "infinite",
        "_defense(bytes32)": "infinite",
        "_exists(bytes32)": "infinite",
        "_getStats(uint256)": "infinite",
        "_handleAttackCap(uint256,struct Yakuza.Stats memory,uint32)": "infinite",
        "_planetData(uint256)": "infinite",
        "_postUpgrade(address,contract RewardsGenerator)": "infinite",
        "_production(bytes32)": "infinite",
        "_recordContribution(address,uint256,uint256[] memory)": "infinite",
        "_requireCorrectDistance(uint256,uint256,uint256,struct Yakuza.Stats memory,struct Yakuza.Stats memory)": "infinite",
        "_speed(bytes32)": "infinite",
        "_subLocation(bytes32)": "infinite",
        "_updatePlanet(uint256,uint256,uint256,uint32)": "infinite"
      }
    }
  },
  "storageLayout": {
    "storage": [
      {
        "astId": 11042,
        "contract": "project/src/yakuza/Yakuza.sol:Yakuza",
        "label": "_totalSupply",
        "offset": 0,
        "slot": "0",
        "type": "t_uint256"
      },
      {
        "astId": 11046,
        "contract": "project/src/yakuza/Yakuza.sol:Yakuza",
        "label": "_balances",
        "offset": 0,
        "slot": "1",
        "type": "t_mapping(t_address,t_uint256)"
      },
      {
        "astId": 11052,
        "contract": "project/src/yakuza/Yakuza.sol:Yakuza",
        "label": "_allowances",
        "offset": 0,
        "slot": "2",
        "type": "t_mapping(t_address,t_mapping(t_address,t_uint256))"
      },
      {
        "astId": 11876,
        "contract": "project/src/yakuza/Yakuza.sol:Yakuza",
        "label": "_nonces",
        "offset": 0,
        "slot": "3",
        "type": "t_mapping(t_address,t_uint256)"
      },
      {
        "astId": 21113,
        "contract": "project/src/yakuza/Yakuza.sol:Yakuza",
        "label": "rewardReceiver",
        "offset": 0,
        "slot": "4",
        "type": "t_address"
      },
      {
        "astId": 21116,
        "contract": "project/src/yakuza/Yakuza.sol:Yakuza",
        "label": "generator",
        "offset": 0,
        "slot": "5",
        "type": "t_contract(RewardsGenerator)13628"
      },
      {
        "astId": 21126,
        "contract": "project/src/yakuza/Yakuza.sol:Yakuza",
        "label": "subscriptions",
        "offset": 0,
        "slot": "6",
        "type": "t_mapping(t_address,t_struct(Subscription)21121_storage)"
      },
      {
        "astId": 21136,
        "contract": "project/src/yakuza/Yakuza.sol:Yakuza",
        "label": "claims",
        "offset": 0,
        "slot": "7",
        "type": "t_mapping(t_uint256,t_struct(Claim)21131_storage)"
      },
      {
        "astId": 21148,
        "contract": "project/src/yakuza/Yakuza.sol:Yakuza",
        "label": "myPlanets",
        "offset": 0,
        "slot": "8",
        "type": "t_mapping(t_uint256,t_struct(MyPlanet)21143_storage)"
      }
    ],
    "types": {
      "t_address": {
        "encoding": "inplace",
        "label": "address",
        "numberOfBytes": "20"
      },
      "t_bool": {
        "encoding": "inplace",
        "label": "bool",
        "numberOfBytes": "1"
      },
      "t_contract(RewardsGenerator)13628": {
        "encoding": "inplace",
        "label": "contract RewardsGenerator",
        "numberOfBytes": "20"
      },
      "t_mapping(t_address,t_mapping(t_address,t_uint256))": {
        "encoding": "mapping",
        "key": "t_address",
        "label": "mapping(address => mapping(address => uint256))",
        "numberOfBytes": "32",
        "value": "t_mapping(t_address,t_uint256)"
      },
      "t_mapping(t_address,t_struct(Subscription)21121_storage)": {
        "encoding": "mapping",
        "key": "t_address",
        "label": "mapping(address => struct Yakuza.Subscription)",
        "numberOfBytes": "32",
        "value": "t_struct(Subscription)21121_storage"
      },
      "t_mapping(t_address,t_uint256)": {
        "encoding": "mapping",
        "key": "t_address",
        "label": "mapping(address => uint256)",
        "numberOfBytes": "32",
        "value": "t_uint256"
      },
      "t_mapping(t_uint256,t_struct(Claim)21131_storage)": {
        "encoding": "mapping",
        "key": "t_uint256",
        "label": "mapping(uint256 => struct Yakuza.Claim)",
        "numberOfBytes": "32",
        "value": "t_struct(Claim)21131_storage"
      },
      "t_mapping(t_uint256,t_struct(MyPlanet)21143_storage)": {
        "encoding": "mapping",
        "key": "t_uint256",
        "label": "mapping(uint256 => struct Yakuza.MyPlanet)",
        "numberOfBytes": "32",
        "value": "t_struct(MyPlanet)21143_storage"
      },
      "t_struct(Claim)21131_storage": {
        "encoding": "inplace",
        "label": "struct Yakuza.Claim",
        "members": [
          {
            "astId": 21128,
            "contract": "project/src/yakuza/Yakuza.sol:Yakuza",
            "label": "claimed",
            "offset": 0,
            "slot": "0",
            "type": "t_bool"
          },
          {
            "astId": 21130,
            "contract": "project/src/yakuza/Yakuza.sol:Yakuza",
            "label": "amountLeft",
            "offset": 1,
            "slot": "0",
            "type": "t_uint248"
          }
        ],
        "numberOfBytes": "32"
      },
      "t_struct(MyPlanet)21143_storage": {
        "encoding": "inplace",
        "label": "struct Yakuza.MyPlanet",
        "members": [
          {
            "astId": 21138,
            "contract": "project/src/yakuza/Yakuza.sol:Yakuza",
            "label": "mine",
            "offset": 0,
            "slot": "0",
            "type": "t_bool"
          },
          {
            "astId": 21140,
            "contract": "project/src/yakuza/Yakuza.sol:Yakuza",
            "label": "lastAttackTime",
            "offset": 1,
            "slot": "0",
            "type": "t_uint40"
          },
          {
            "astId": 21142,
            "contract": "project/src/yakuza/Yakuza.sol:Yakuza",
            "label": "lockTime",
            "offset": 6,
            "slot": "0",
            "type": "t_uint40"
          }
        ],
        "numberOfBytes": "32"
      },
      "t_struct(Subscription)21121_storage": {
        "encoding": "inplace",
        "label": "struct Yakuza.Subscription",
        "members": [
          {
            "astId": 21118,
            "contract": "project/src/yakuza/Yakuza.sol:Yakuza",
            "label": "startTime",
            "offset": 0,
            "slot": "0",
            "type": "t_uint256"
          },
          {
            "astId": 21120,
            "contract": "project/src/yakuza/Yakuza.sol:Yakuza",
            "label": "endTime",
            "offset": 0,
            "slot": "1",
            "type": "t_uint256"
          }
        ],
        "numberOfBytes": "64"
      },
      "t_uint248": {
        "encoding": "inplace",
        "label": "uint248",
        "numberOfBytes": "31"
      },
      "t_uint256": {
        "encoding": "inplace",
        "label": "uint256",
        "numberOfBytes": "32"
      },
      "t_uint40": {
        "encoding": "inplace",
        "label": "uint40",
        "numberOfBytes": "5"
      }
    }
  },
  "userdoc": {
    "kind": "user",
    "methods": {},
    "version": 1
  },
  "argsData": "0x00000000000000000000000061c461ecc993aadeb7e4b47e96d1b8cc37314b20000000000000000000000000babf49136c3e5577ea38b6cfe643898af1ba1256000000000000000000000000460f3da794060fee095d551f3d788a4d38b7ac09000000000000000000000000cc0925082bfb1122534d1a7a33bd1dc990113a39cce77b122615b6093c0df0c7392bec6f537eb7a0595c337a573ee6d96d1107c800000000000000000000000000000000000000000000000000000000000186a0000000000000000000000000000000000000000000000000000000000003f48000000000000000000000000000000000000000000000000000000000000007080000000000000000000000000000000000000000000000000000000000001c2000000000000000000000000000000000000000000000000000000000000000010000000000000000000000000000000000000000000000000000000000049d4000000000000000000000000000000000000000000000000000000000000005dc0000000000000000000000000000000000000000000000000de0b6b3a764000000000000000000000000000000000000000000000000000000000000000151800000000000000000000000000000000000000000000000000de0b6b3a76400000000000000000000000000000000000000000000000000000de0b6b3a764000000000000000000000000000000000000000000000000000000000000000697800000000000000000000000000000000000000000000000000000000000004e20",
  "transaction": {
    "nonce": "0x29",
    "hash": "0x4f9ebd1f0c8b7e6cda4de19259c1e9c02891d1f54e680cc082a637e2c2fa01c6",
    "origin": "0x61c461ecc993aadeb7e4b47e96d1b8cc37314b20"
  }
}