{
  "address": "0x43253e135EEf26aC7C9D4158EBda5f2dC536A7E8",
  "abi": [
    {
      "inputs": [
        {
          "components": [
            {
              "internalType": "contract IERC721",
              "name": "tokenContract",
              "type": "address"
            },
            {
              "internalType": "uint256[]",
              "name": "tokens",
              "type": "uint256[]"
            }
          ],
          "internalType": "struct ERC721TransferGateway.TransfersPerContract[]",
          "name": "tokenTransfers",
          "type": "tuple[]"
        },
        {
          "internalType": "address",
          "name": "to",
          "type": "address"
        },
        {
          "internalType": "bytes",
          "name": "callData",
          "type": "bytes"
        }
      ],
      "name": "forward",
      "outputs": [
        {
          "internalType": "bytes",
          "name": "",
          "type": "bytes"
        }
      ],
      "stateMutability": "payable",
      "type": "function"
    },
    {
      "inputs": [
        {
          "components": [
            {
              "internalType": "contract IERC721",
              "name": "tokenContract",
              "type": "address"
            },
            {
              "internalType": "uint256[]",
              "name": "tokens",
              "type": "uint256[]"
            }
          ],
          "internalType": "struct ERC721TransferGateway.TransfersPerContract[]",
          "name": "tokenTransfers",
          "type": "tuple[]"
        },
        {
          "internalType": "address",
          "name": "to",
          "type": "address"
        },
        {
          "internalType": "bytes",
          "name": "callData",
          "type": "bytes"
        }
      ],
      "name": "transferAndCall",
      "outputs": [
        {
          "internalType": "bytes",
          "name": "",
          "type": "bytes"
        }
      ],
      "stateMutability": "payable",
      "type": "function"
    }
  ],
  "args": [],
  "bytecode": "0x608060405234801561001057600080fd5b506109ad806100206000396000f3fe6080604052600436106100295760003560e01c8063d7a8d3c71461002e578063e91ecd0814610057575b600080fd5b61004161003c3660046104c3565b61006a565b60405161004e9190610809565b60405180910390f35b6100416100653660046104c3565b610186565b60606000610076610288565b905060005b865181101561016c5760005b87828151811061009357fe5b60200260200101516020015151811015610163578782815181106100b357fe5b60200260200101516000015173ffffffffffffffffffffffffffffffffffffffff166323b872dd84898b86815181106100e857fe5b60200260200101516020015185815181106100ff57fe5b60200260200101516040518463ffffffff1660e01b8152600401610125939291906106f8565b600060405180830381600087803b15801561013f57600080fd5b505af1158015610153573d6000803e3d6000fd5b5050600190920191506100879050565b5060010161007b565b5061017a818787878761028c565b9150505b949350505050565b60606000610192610288565b905060005b865181101561016c5760005b8782815181106101af57fe5b6020026020010151602001515181101561027f578782815181106101cf57fe5b60200260200101516000015173ffffffffffffffffffffffffffffffffffffffff166323b872dd30898b868151811061020457fe5b602002602001015160200151858151811061021b57fe5b60200260200101516040518463ffffffff1660e01b8152600401610241939291906106f8565b600060405180830381600087803b15801561025b57600080fd5b505af115801561026f573d6000803e3d6000fd5b5050600190920191506101a39050565b50600101610197565b3390565b606080838387896040516020016102a4929190610729565b60408051601f19818403018152908290526102c39392916020016106b6565b60408051601f1981840301815291905290506102f673ffffffffffffffffffffffffffffffffffffffff86168234610301565b979650505050505050565b606061017e84848460405180606001604052806029815260200161094f6029913960608247101561034d5760405162461bcd60e51b815260040161034490610823565b60405180910390fd5b61035985858585610362565b95945050505050565b606061036d85610433565b6103895760405162461bcd60e51b815260040161034490610880565b600060608673ffffffffffffffffffffffffffffffffffffffff1685876040516103b391906106dc565b60006040518083038185875af1925050503d80600081146103f0576040519150601f19603f3d011682016040523d82523d6000602084013e6103f5565b606091505b5091509150811561040957915061017e9050565b8051156104195780518082602001fd5b8360405162461bcd60e51b81526004016103449190610809565b6000813f7fc5d2460186f7233c927e7db2dcc703c0e500b653ca82273b7bfad8045d85a47081811480159061046757508115155b925050505b919050565b803561046c81610929565b60008083601f84011261048d578182fd5b50813567ffffffffffffffff8111156104a4578182fd5b6020830191508360208285010111156104bc57600080fd5b9250929050565b600080600080606085870312156104d8578384fd5b67ffffffffffffffff853511156104ed578384fd5b8435850186601f8201126104ff578485fd5b61051161050c82356108db565b6108b7565b81358152602080820191908301875b843581101561062757813585016040601f19828e0301121561054057898afd5b60405180604082011067ffffffffffffffff6040830111171561055f57fe5b604081016040526105736020830135610929565b6020820135815267ffffffffffffffff60408301351115610592578a8bfd5b6040820135820191508c603f8301126105a9578a8bfd5b6105b961050c60208401356108db565b8060208401358252602082019150604084018f60406020808801350287010111156105e2578d8efd5b8d5b60208601358110156106065781358452602093840193909101906001016105e4565b50506020838101919091529187525094850194929092019150600101610520565b505080965050505061063b60208601610471565b925067ffffffffffffffff60408601351115610655578182fd5b610665866040870135870161047c565b949793965094505050565b73ffffffffffffffffffffffffffffffffffffffff169052565b600081518084526106a28160208601602086016108f9565b601f01601f19169290920160200192915050565b60008385833783820181815283516106d28183602088016108f9565b0195945050505050565b600082516106ee8184602087016108f9565b9190910192915050565b73ffffffffffffffffffffffffffffffffffffffff9384168152919092166020820152604081019190915260600190565b604080825283518282018190526000919060609081850190602080820287018401818a01875b848110156107eb578983037fffffffffffffffffffffffffffffffffffffffffffffffffffffffffffffffa00186528151805173ffffffffffffffffffffffffffffffffffffffff1684528401518484018990528051898501819052908501908a90898601905b808310156107d657835182529287019260019290920191908701906107b6565b5097860197945050509083019060010161074f565b5050809650506107fd81880189610670565b50505050509392505050565b60006020825261081c602083018461068a565b9392505050565b60208082526026908201527f416464726573733a20696e73756666696369656e742062616c616e636520666f60408201527f722063616c6c0000000000000000000000000000000000000000000000000000606082015260800190565b6020808252601d908201527f416464726573733a2063616c6c20746f206e6f6e2d636f6e7472616374000000604082015260600190565b60405181810167ffffffffffffffff811182821017156108d357fe5b604052919050565b600067ffffffffffffffff8211156108ef57fe5b5060209081020190565b60005b838110156109145781810151838201526020016108fc565b83811115610923576000848401525b50505050565b73ffffffffffffffffffffffffffffffffffffffff8116811461094b57600080fd5b5056fe416464726573733a206c6f772d6c6576656c2063616c6c20776974682076616c7565206661696c6564a2646970667358221220a21605b4c3edc360c38fb7deba610a79211098d051432903a0e2442b846985c364736f6c63430007030033",
  "devdoc": {
    "kind": "dev",
    "methods": {},
    "version": 1
  },
  "userdoc": {
    "kind": "user",
    "methods": {
      "forward((address,uint256[])[],address,bytes)": {
        "notice": "This functions is special in that it need to be called atomatically after the transfers are done. The transfers are made to the gateway itself before hand. The gateway will then forward them to the destination. This allows the gateway to proceed without being approved first at the cost of extra gas. For the receiver, it behaves exactly like `transferAndCall`. And so the information (sender, tokenTransfers) is appended to the function call the same way."
      },
      "transferAndCall((address,uint256[])[],address,bytes)": {
        "notice": "this transfers the tokens to the destination and call the function (callData). The information (sender, tokenTransfers) is appended to the function call. This allows the recipient contract to keep using normal solidity functions (abi-encoded)."
      }
    },
    "notice": "Gateway that forwward erc721 token transfers to the destination and call it. This allow the receiver to know the sender and tokens received. As the gateway append data to the call, contracts can continue using normal solidity functions (abi-encoded). The Gateway need to be approved for each token contract. For new contracts, they could be pre-approved it globally.",
    "version": 1
  },
  "storageLayout": {
    "storage": [],
    "types": null
  }
}