{
  "address": "0xe0b2Bd8389c442B167b3c931d10a557D7c00A259",
  "abi": [
    {
      "inputs": [
        {
          "internalType": "contract IERC20",
          "name": "stakingToken",
          "type": "address"
        },
        {
          "internalType": "bytes32",
          "name": "genesis",
          "type": "bytes32"
        },
        {
          "internalType": "uint32",
          "name": "resolveWindow",
          "type": "uint32"
        },
        {
          "internalType": "uint32",
          "name": "timePerDistance",
          "type": "uint32"
        },
        {
          "internalType": "uint32",
          "name": "exitDuration",
          "type": "uint32"
        },
        {
          "internalType": "uint32",
          "name": "acquireNumSpaceships",
          "type": "uint32"
        },
        {
          "internalType": "uint32",
          "name": "productionSpeedUp",
          "type": "uint32"
        }
      ],
      "stateMutability": "nonpayable",
      "type": "constructor"
    },
    {
      "anonymous": false,
      "inputs": [
        {
          "indexed": true,
          "internalType": "address",
          "name": "owner",
          "type": "address"
        },
        {
          "indexed": true,
          "internalType": "address",
          "name": "operator",
          "type": "address"
        },
        {
          "indexed": false,
          "internalType": "bool",
          "name": "approved",
          "type": "bool"
        }
      ],
      "name": "ApprovalForAll",
      "type": "event"
    },
    {
      "anonymous": false,
      "inputs": [
        {
          "indexed": true,
          "internalType": "address",
          "name": "owner",
          "type": "address"
        },
        {
          "indexed": true,
          "internalType": "uint256",
          "name": "location",
          "type": "uint256"
        },
        {
          "indexed": false,
          "internalType": "uint256",
          "name": "stake",
          "type": "uint256"
        }
      ],
      "name": "ExitComplete",
      "type": "event"
    },
    {
      "anonymous": false,
      "inputs": [
        {
          "indexed": true,
          "internalType": "uint256",
          "name": "fleet",
          "type": "uint256"
        },
        {
          "indexed": true,
          "internalType": "address",
          "name": "fleetOwner",
          "type": "address"
        },
        {
          "indexed": true,
          "internalType": "address",
          "name": "destinationOwner",
          "type": "address"
        },
        {
          "indexed": false,
          "internalType": "uint256",
          "name": "destination",
          "type": "uint256"
        },
        {
          "indexed": false,
          "internalType": "uint32",
          "name": "fleetLoss",
          "type": "uint32"
        },
        {
          "indexed": false,
          "internalType": "uint32",
          "name": "planetLoss",
          "type": "uint32"
        },
        {
          "indexed": false,
          "internalType": "uint32",
          "name": "inFlightFleetLoss",
          "type": "uint32"
        },
        {
          "indexed": false,
          "internalType": "uint32",
          "name": "inFlightPlanetLoss",
          "type": "uint32"
        },
        {
          "indexed": false,
          "internalType": "bool",
          "name": "won",
          "type": "bool"
        },
        {
          "indexed": false,
          "internalType": "uint32",
          "name": "newNumspaceships",
          "type": "uint32"
        }
      ],
      "name": "FleetArrived",
      "type": "event"
    },
    {
      "anonymous": false,
      "inputs": [
        {
          "indexed": true,
          "internalType": "address",
          "name": "fleetOwner",
          "type": "address"
        },
        {
          "indexed": true,
          "internalType": "uint256",
          "name": "from",
          "type": "uint256"
        },
        {
          "indexed": false,
          "internalType": "uint256",
          "name": "fleet",
          "type": "uint256"
        },
        {
          "indexed": false,
          "internalType": "uint32",
          "name": "quantity",
          "type": "uint32"
        },
        {
          "indexed": false,
          "internalType": "uint32",
          "name": "newNumSpaceships",
          "type": "uint32"
        }
      ],
      "name": "FleetSent",
      "type": "event"
    },
    {
      "anonymous": false,
      "inputs": [
        {
          "indexed": true,
          "internalType": "address",
          "name": "owner",
          "type": "address"
        },
        {
          "indexed": true,
          "internalType": "uint256",
          "name": "location",
          "type": "uint256"
        }
      ],
      "name": "PlanetExit",
      "type": "event"
    },
    {
      "anonymous": false,
      "inputs": [
        {
          "indexed": true,
          "internalType": "address",
          "name": "acquirer",
          "type": "address"
        },
        {
          "indexed": true,
          "internalType": "uint256",
          "name": "location",
          "type": "uint256"
        },
        {
          "indexed": false,
          "internalType": "uint32",
          "name": "numSpaceships",
          "type": "uint32"
        },
        {
          "indexed": false,
          "internalType": "uint256",
          "name": "stake",
          "type": "uint256"
        }
      ],
      "name": "PlanetStake",
      "type": "event"
    },
    {
      "anonymous": false,
      "inputs": [
        {
          "indexed": true,
          "internalType": "uint256",
          "name": "location",
          "type": "uint256"
        },
        {
          "indexed": false,
          "internalType": "uint256",
          "name": "rewardId",
          "type": "uint256"
        }
      ],
      "name": "RewardSetup",
      "type": "event"
    },
    {
      "anonymous": false,
      "inputs": [
        {
          "indexed": true,
          "internalType": "address",
          "name": "owner",
          "type": "address"
        },
        {
          "indexed": true,
          "internalType": "uint256",
          "name": "location",
          "type": "uint256"
        },
        {
          "indexed": true,
          "internalType": "uint256",
          "name": "rewardId",
          "type": "uint256"
        }
      ],
      "name": "RewardToWithdraw",
      "type": "event"
    },
    {
      "anonymous": false,
      "inputs": [
        {
          "indexed": true,
          "internalType": "address",
          "name": "owner",
          "type": "address"
        },
        {
          "indexed": false,
          "internalType": "uint256",
          "name": "newStake",
          "type": "uint256"
        }
      ],
      "name": "StakeToWithdraw",
      "type": "event"
    },
    {
      "inputs": [
        {
          "internalType": "uint256",
          "name": "location",
          "type": "uint256"
        },
        {
          "internalType": "uint256",
          "name": "amount",
          "type": "uint256"
        }
      ],
      "name": "acquireViaTransferFrom",
      "outputs": [],
      "stateMutability": "nonpayable",
      "type": "function"
    },
    {
      "inputs": [
        {
          "internalType": "uint256",
          "name": "location",
          "type": "uint256"
        },
        {
          "internalType": "address",
          "name": "sponsor",
          "type": "address"
        }
      ],
      "name": "addReward",
      "outputs": [],
      "stateMutability": "nonpayable",
      "type": "function"
    },
    {
      "inputs": [
        {
          "internalType": "address",
          "name": "owner",
          "type": "address"
        }
      ],
      "name": "balanceToWithdraw",
      "outputs": [
        {
          "internalType": "uint256",
          "name": "",
          "type": "uint256"
        }
      ],
      "stateMutability": "view",
      "type": "function"
    },
    {
      "inputs": [
        {
          "internalType": "address",
          "name": "owner",
          "type": "address"
        },
        {
          "internalType": "uint256",
          "name": "location",
          "type": "uint256"
        }
      ],
      "name": "exitFor",
      "outputs": [],
      "stateMutability": "nonpayable",
      "type": "function"
    },
    {
      "inputs": [
        {
          "internalType": "address",
          "name": "owner",
          "type": "address"
        },
        {
          "internalType": "uint256[]",
          "name": "locations",
          "type": "uint256[]"
        }
      ],
      "name": "fetchAndWithdrawFor",
      "outputs": [],
      "stateMutability": "nonpayable",
      "type": "function"
    },
    {
      "inputs": [],
      "name": "getDiscovered",
      "outputs": [
        {
          "components": [
            {
              "internalType": "uint32",
              "name": "minX",
              "type": "uint32"
            },
            {
              "internalType": "uint32",
              "name": "maxX",
              "type": "uint32"
            },
            {
              "internalType": "uint32",
              "name": "minY",
              "type": "uint32"
            },
            {
              "internalType": "uint32",
              "name": "maxY",
              "type": "uint32"
            }
          ],
          "internalType": "struct OuterSpace.Discovered",
          "name": "",
          "type": "tuple"
        }
      ],
      "stateMutability": "view",
      "type": "function"
    },
    {
      "inputs": [
        {
          "internalType": "uint256",
          "name": "fleetId",
          "type": "uint256"
        },
        {
          "internalType": "uint256",
          "name": "from",
          "type": "uint256"
        }
      ],
      "name": "getFleet",
      "outputs": [
        {
          "internalType": "address",
          "name": "owner",
          "type": "address"
        },
        {
          "internalType": "uint32",
          "name": "launchTime",
          "type": "uint32"
        },
        {
          "internalType": "uint32",
          "name": "quantity",
          "type": "uint32"
        },
        {
          "internalType": "uint64",
          "name": "flyingAtLaunch",
          "type": "uint64"
        },
        {
          "internalType": "uint64",
          "name": "destroyedAtLaunch",
          "type": "uint64"
        }
      ],
      "stateMutability": "view",
      "type": "function"
    },
    {
      "inputs": [],
      "name": "getGeneisHash",
      "outputs": [
        {
          "internalType": "bytes32",
          "name": "",
          "type": "bytes32"
        }
      ],
      "stateMutability": "view",
      "type": "function"
    },
    {
      "inputs": [
        {
          "internalType": "uint256",
          "name": "location",
          "type": "uint256"
        }
      ],
      "name": "getPlanet",
      "outputs": [
        {
          "components": [
            {
              "internalType": "address",
              "name": "owner",
              "type": "address"
            },
            {
              "internalType": "uint32",
              "name": "exitTime",
              "type": "uint32"
            },
            {
              "internalType": "uint32",
              "name": "numSpaceships",
              "type": "uint32"
            },
            {
              "internalType": "uint32",
              "name": "lastUpdated",
              "type": "uint32"
            },
            {
              "internalType": "bool",
              "name": "active",
              "type": "bool"
            },
            {
              "internalType": "uint256",
              "name": "reward",
              "type": "uint256"
            }
          ],
          "internalType": "struct OuterSpace.ExternalPlanet",
          "name": "state",
          "type": "tuple"
        },
        {
          "components": [
            {
              "internalType": "int8",
              "name": "subX",
              "type": "int8"
            },
            {
              "internalType": "int8",
              "name": "subY",
              "type": "int8"
            },
            {
              "internalType": "uint16",
              "name": "stake",
              "type": "uint16"
            },
            {
              "internalType": "uint16",
              "name": "production",
              "type": "uint16"
            },
            {
              "internalType": "uint16",
              "name": "attack",
              "type": "uint16"
            },
            {
              "internalType": "uint16",
              "name": "defense",
              "type": "uint16"
            },
            {
              "internalType": "uint16",
              "name": "speed",
              "type": "uint16"
            },
            {
              "internalType": "uint16",
              "name": "natives",
              "type": "uint16"
            }
          ],
          "internalType": "struct OuterSpace.PlanetStats",
          "name": "stats",
          "type": "tuple"
        }
      ],
      "stateMutability": "view",
      "type": "function"
    },
    {
      "inputs": [
        {
          "internalType": "uint256[]",
          "name": "locations",
          "type": "uint256[]"
        }
      ],
      "name": "getPlanetStates",
      "outputs": [
        {
          "components": [
            {
              "internalType": "address",
              "name": "owner",
              "type": "address"
            },
            {
              "internalType": "uint32",
              "name": "exitTime",
              "type": "uint32"
            },
            {
              "internalType": "uint32",
              "name": "numSpaceships",
              "type": "uint32"
            },
            {
              "internalType": "uint32",
              "name": "lastUpdated",
              "type": "uint32"
            },
            {
              "internalType": "bool",
              "name": "active",
              "type": "bool"
            },
            {
              "internalType": "uint256",
              "name": "reward",
              "type": "uint256"
            }
          ],
          "internalType": "struct OuterSpace.ExternalPlanet[]",
          "name": "planetStates",
          "type": "tuple[]"
        },
        {
          "components": [
            {
              "internalType": "uint32",
              "name": "minX",
              "type": "uint32"
            },
            {
              "internalType": "uint32",
              "name": "maxX",
              "type": "uint32"
            },
            {
              "internalType": "uint32",
              "name": "minY",
              "type": "uint32"
            },
            {
              "internalType": "uint32",
              "name": "maxY",
              "type": "uint32"
            }
          ],
          "internalType": "struct OuterSpace.Discovered",
          "name": "discovered",
          "type": "tuple"
        }
      ],
      "stateMutability": "view",
      "type": "function"
    },
    {
      "inputs": [
        {
          "internalType": "address",
          "name": "",
          "type": "address"
        },
        {
          "internalType": "address",
          "name": "forAddress",
          "type": "address"
        },
        {
          "internalType": "uint256",
          "name": "amount",
          "type": "uint256"
        },
        {
          "internalType": "bytes",
          "name": "data",
          "type": "bytes"
        }
      ],
      "name": "onTokenPaidFor",
      "outputs": [
        {
          "internalType": "bool",
          "name": "",
          "type": "bool"
        }
      ],
      "stateMutability": "nonpayable",
      "type": "function"
    },
    {
      "inputs": [
        {
          "internalType": "address",
          "name": "",
          "type": "address"
        },
        {
          "internalType": "uint256",
          "name": "amount",
          "type": "uint256"
        },
        {
          "internalType": "bytes",
          "name": "data",
          "type": "bytes"
        }
      ],
      "name": "onTokenTransfer",
      "outputs": [
        {
          "internalType": "bool",
          "name": "",
          "type": "bool"
        }
      ],
      "stateMutability": "nonpayable",
      "type": "function"
    },
    {
      "inputs": [
        {
          "internalType": "contract IERC20",
          "name": "",
          "type": "address"
        },
        {
          "internalType": "bytes32",
          "name": "",
          "type": "bytes32"
        },
        {
          "internalType": "uint32",
          "name": "",
          "type": "uint32"
        },
        {
          "internalType": "uint32",
          "name": "",
          "type": "uint32"
        },
        {
          "internalType": "uint32",
          "name": "",
          "type": "uint32"
        },
        {
          "internalType": "uint32",
          "name": "",
          "type": "uint32"
        },
        {
          "internalType": "uint32",
          "name": "",
          "type": "uint32"
        }
      ],
      "name": "postUpgrade",
      "outputs": [],
      "stateMutability": "nonpayable",
      "type": "function"
    },
    {
      "inputs": [
        {
          "internalType": "uint256",
          "name": "fleetId",
          "type": "uint256"
        },
        {
          "internalType": "uint256",
          "name": "from",
          "type": "uint256"
        },
        {
          "internalType": "uint256",
          "name": "to",
          "type": "uint256"
        },
        {
          "internalType": "uint256",
          "name": "distance",
          "type": "uint256"
        },
        {
          "internalType": "bytes32",
          "name": "secret",
          "type": "bytes32"
        }
      ],
      "name": "resolveFleet",
      "outputs": [],
      "stateMutability": "nonpayable",
      "type": "function"
    },
    {
      "inputs": [
        {
          "internalType": "uint256",
          "name": "from",
          "type": "uint256"
        },
        {
          "internalType": "uint32",
          "name": "quantity",
          "type": "uint32"
        },
        {
          "internalType": "bytes32",
          "name": "toHash",
          "type": "bytes32"
        }
      ],
      "name": "send",
      "outputs": [],
      "stateMutability": "nonpayable",
      "type": "function"
    },
    {
      "inputs": [
        {
          "internalType": "address",
          "name": "owner",
          "type": "address"
        },
        {
          "internalType": "uint256",
          "name": "from",
          "type": "uint256"
        },
        {
          "internalType": "uint32",
          "name": "quantity",
          "type": "uint32"
        },
        {
          "internalType": "bytes32",
          "name": "toHash",
          "type": "bytes32"
        }
      ],
      "name": "sendFor",
      "outputs": [],
      "stateMutability": "nonpayable",
      "type": "function"
    },
    {
      "inputs": [
        {
          "internalType": "address",
          "name": "operator",
          "type": "address"
        },
        {
          "internalType": "bool",
          "name": "approved",
          "type": "bool"
        }
      ],
      "name": "setApprovalForAll",
      "outputs": [],
      "stateMutability": "nonpayable",
      "type": "function"
    },
    {
      "inputs": [
        {
          "internalType": "address",
          "name": "owner",
          "type": "address"
        }
      ],
      "name": "withdrawFor",
      "outputs": [],
      "stateMutability": "nonpayable",
      "type": "function"
    }
  ],
  "transactionHash": "0xa19e22b5af9111942d17d970645b4cf10df741026ba9a4bfdcdc877302c89249",
  "args": [
    "0xAA568263f09C586Ba1764ed0368c540945fcA948",
    "0xcce77b122615b6093c0df0c7392bec6f537eb7a0595c337a573ee6d96d1107c8",
    43200,
    7200,
    259200,
    100000,
    1
  ],
  "linkedData": {
    "genesisHash": "0xcce77b122615b6093c0df0c7392bec6f537eb7a0595c337a573ee6d96d1107c8",
    "resolveWindow": 43200,
    "timePerDistance": 7200,
    "exitDuration": 259200,
    "acquireNumSpaceships": 100000,
    "productionSpeedUp": 1
  },
  "solcInputHash": "05476cdc740f79c9a125f2901c5b289b",
  "bytecode": "0x6101606040523480156200001257600080fd5b50604051620064ec380380620064ec83398181016040528101906200003891906200039e565b600060048563ffffffff16816200004b57fe5b0490508463ffffffff166004820263ffffffff1614620000a2576040517f08c379a000000000000000000000000000000000000000000000000000000000815260040162000099906200048d565b60405180910390fd5b8773ffffffffffffffffffffffffffffffffffffffff1660a08173ffffffffffffffffffffffffffffffffffffffff1660601b8152505086608081815250508563ffffffff1660c081815250508063ffffffff1660e081815250508363ffffffff1661010081815250508263ffffffff166101208163ffffffff1660e01b815250508163ffffffff166101408163ffffffff1660e01b8152505062000153888888888888886200016160201b60201c565b505050505050505062000570565b6000620001736200033060201b60201c565b9050600073ffffffffffffffffffffffffffffffffffffffff168173ffffffffffffffffffffffffffffffffffffffff161415620001e85773ffffffffffffffffffffffffffffffffffffffff7fb53127684a568b3173ae13b9f8a6016e243e63b6e8ee1178d6a717850b5d61035562000222565b8073ffffffffffffffffffffffffffffffffffffffff163373ffffffffffffffffffffffffffffffffffffffff16146200022157600080fd5b5b6000600560000160009054906101000a900463ffffffff1663ffffffff16141562000326576040518060800160405280601063ffffffff168152602001601063ffffffff168152602001601063ffffffff168152602001601063ffffffff16815250600560008201518160000160006101000a81548163ffffffff021916908363ffffffff16021790555060208201518160000160046101000a81548163ffffffff021916908363ffffffff16021790555060408201518160000160086101000a81548163ffffffff021916908363ffffffff160217905550606082015181600001600c6101000a81548163ffffffff021916908363ffffffff1602179055509050505b5050505050505050565b60007fb53127684a568b3173ae13b9f8a6016e243e63b6e8ee1178d6a717850b5d610354905090565b6000815190506200036a8162000522565b92915050565b60008151905062000381816200053c565b92915050565b600081519050620003988162000556565b92915050565b600080600080600080600060e0888a031215620003ba57600080fd5b6000620003ca8a828b0162000370565b9750506020620003dd8a828b0162000359565b9650506040620003f08a828b0162000387565b9550506060620004038a828b0162000387565b9450506080620004168a828b0162000387565b93505060a0620004298a828b0162000387565b92505060c06200043c8a828b0162000387565b91505092959891949750929550565b60006200045a601d83620004af565b91507f54494d455f5045525f444953545f4e4f545f444956495349424c455f340000006000830152602082019050919050565b60006020820190508181036000830152620004a8816200044b565b9050919050565b600082825260208201905092915050565b6000620004cd82620004f2565b9050919050565b6000819050919050565b6000620004eb82620004c0565b9050919050565b600073ffffffffffffffffffffffffffffffffffffffff82169050919050565b600063ffffffff82169050919050565b6200052d81620004d4565b81146200053957600080fd5b50565b6200054781620004de565b81146200055357600080fd5b50565b620005618162000512565b81146200056d57600080fd5b50565b60805160a05160601c60c05160e051610100516101205160e01c6101405160e01c615ef2620005fa6000398061232452508061289d5280612942528061299252806129db5280612a4a5280612a74525080611ba6525080613618525080613691525080610a675280610b465280610d5e5280611d1d525080610b1e528061226c5250615ef26000f3fe608060405234801561001057600080fd5b50600436106101165760003560e01c8063a22cb465116100a2578063b92ce46711610071578063b92ce467146102db578063c5aaa0ae146102f7578063c956083814610315578063e2e9b07914610345578063ee5433931461036157610116565b8063a22cb46514610242578063a4c0ed361461025e578063aba789f51461028e578063afc82370146102bf57610116565b8063653d4983116100e9578063653d4983146101a05780637ba423fb146101bc5780637cef64d8146101d85780639b6be065146101f65780639eca672c1461022657610116565b8063112e68511461011b57806334efcb8e1461013757806356bf642d1461016857806361f018c014610184575b600080fd5b61013560048036038101906101309190614e3a565b610395565b005b610151600480360381019061014c9190614d22565b6103ad565b60405161015f929190615bf4565b60405180910390f35b610182600480360381019061017d9190614d4b565b6104b9565b005b61019e60048036038101906101999190614bb3565b610768565b005b6101ba60048036038101906101b59190614c84565b61088b565b005b6101d660048036038101906101d19190614d87565b610a4e565b005b6101e0610b1a565b6040516101ed91906158de565b60405180910390f35b610210600480360381019061020b91906149f7565b610b42565b60405161021d91906158c3565b60405180910390f35b610240600480360381019061023b9190614992565b610bfe565b005b61025c60048036038101906102579190614acf565b610c50565b005b61027860048036038101906102739190614b47565b610d5a565b60405161028591906158c3565b60405180910390f35b6102a860048036038101906102a39190614c16565b610e19565b6040516102b6929190615893565b60405180910390f35b6102d960048036038101906102d49190614b0b565b611069565b005b6102f560048036038101906102f09190614dc3565b6111d1565b005b6102ff6111e5565b60405161030c9190615bd9565b60405180910390f35b61032f600480360381019061032a9190614992565b611297565b60405161033c9190615c1e565b60405180910390f35b61035f600480360381019061035a9190614a77565b6112e0565b005b61037b60048036038101906103769190614d87565b61144d565b60405161038c959493929190615840565b60405180910390f35b6103a86103a0611587565b84848461158f565b505050565b6103b5614606565b6103bd614666565b60006103c884611a10565b90506000806103ea8360000160189054906101000a900463ffffffff16611a2b565b915091506040518060c001604052808460000160009054906101000a900473ffffffffffffffffffffffffffffffffffffffff1673ffffffffffffffffffffffffffffffffffffffff1681526020018460000160149054906101000a900463ffffffff1663ffffffff1681526020018263ffffffff16815260200184600001601c9054906101000a900463ffffffff1663ffffffff1681526020018315158152602001600760008981526020019081526020016000205481525094506104af86611a6a565b9350505050915091565b6104c1611b69565b73ffffffffffffffffffffffffffffffffffffffff163373ffffffffffffffffffffffffffffffffffffffff1614610561576040517f08c379a000000000000000000000000000000000000000000000000000000000815260040180806020018281038252600e8152602001807f4e4f545f415554484f52495a454400000000000000000000000000000000000081525060200191505060405180910390fd5b6105696146c7565b6000808481526020019081526020016000206040518060800160405290816000820160009054906101000a900473ffffffffffffffffffffffffffffffffffffffff1673ffffffffffffffffffffffffffffffffffffffff1673ffffffffffffffffffffffffffffffffffffffff1681526020016000820160149054906101000a900463ffffffff1663ffffffff1663ffffffff1681526020016000820160189054906101000a900463ffffffff1663ffffffff1663ffffffff16815260200160008201601c9054906101000a900463ffffffff1663ffffffff1663ffffffff1681525050905061065d8160200151611b92565b1561068657610685838260000151600080878152602001908152602001600020600080611bd7565b5b600060076000858152602001908152602001600020549050600081141561072a57600660008473ffffffffffffffffffffffffffffffffffffffff1673ffffffffffffffffffffffffffffffffffffffff1681526020019081526020016000206000815460010191905081905590508060608473ffffffffffffffffffffffffffffffffffffffff16901b0160076000868152602001908152602001600020819055505b837f4c808d5eeb14d6e887046c8635adb3d27ad4977c0fda2a3ab15a0c95604e8d788260405161075a9190615c1e565b60405180910390a250505050565b6000610772611587565b90508473ffffffffffffffffffffffffffffffffffffffff168173ffffffffffffffffffffffffffffffffffffffff161461087157600360008673ffffffffffffffffffffffffffffffffffffffff1673ffffffffffffffffffffffffffffffffffffffff16815260200190815260200160002060008273ffffffffffffffffffffffffffffffffffffffff1673ffffffffffffffffffffffffffffffffffffffff16815260200190815260200160002060009054906101000a900460ff16610870576040517f08c379a000000000000000000000000000000000000000000000000000000000815260040161086790615b79565b60405180910390fd5b5b61088461087c611587565b85858561158f565b5050505050565b6000610895611b69565b9050600073ffffffffffffffffffffffffffffffffffffffff168173ffffffffffffffffffffffffffffffffffffffff1614156109085773ffffffffffffffffffffffffffffffffffffffff7fb53127684a568b3173ae13b9f8a6016e243e63b6e8ee1178d6a717850b5d610355610941565b8073ffffffffffffffffffffffffffffffffffffffff163373ffffffffffffffffffffffffffffffffffffffff161461094057600080fd5b5b6000600560000160009054906101000a900463ffffffff1663ffffffff161415610a44576040518060800160405280601063ffffffff168152602001601063ffffffff168152602001601063ffffffff168152602001601063ffffffff16815250600560008201518160000160006101000a81548163ffffffff021916908363ffffffff16021790555060208201518160000160046101000a81548163ffffffff021916908363ffffffff16021790555060408201518160000160086101000a81548163ffffffff021916908363ffffffff160217905550606082015181600001600c6101000a81548163ffffffff021916908363ffffffff1602179055509050505b5050505050505050565b6000610a58611587565b9050610a65818385611c3b565b7f000000000000000000000000000000000000000000000000000000000000000073ffffffffffffffffffffffffffffffffffffffff166323b872dd8230856040518463ffffffff1660e01b8152600401610ac2939291906157e0565b602060405180830381600087803b158015610adc57600080fd5b505af1158015610af0573d6000803e3d6000fd5b505050506040513d601f19601f82011682018060405250810190610b149190614c5b565b50505050565b60007f0000000000000000000000000000000000000000000000000000000000000000905090565b60007f000000000000000000000000000000000000000000000000000000000000000073ffffffffffffffffffffffffffffffffffffffff163373ffffffffffffffffffffffffffffffffffffffff1614610bd2576040517f08c379a0000000000000000000000000000000000000000000000000000000008152600401610bc990615959565b60405180910390fd5b60008383810190610be39190614d22565b9050610bf0868683611c3b565b600191505095945050505050565b6000600260008373ffffffffffffffffffffffffffffffffffffffff1673ffffffffffffffffffffffffffffffffffffffff168152602001908152602001600020549050610c4c8282611d10565b5050565b6000610c5a611587565b905081600360008373ffffffffffffffffffffffffffffffffffffffff1673ffffffffffffffffffffffffffffffffffffffff16815260200190815260200160002060008573ffffffffffffffffffffffffffffffffffffffff1673ffffffffffffffffffffffffffffffffffffffff16815260200190815260200160002060006101000a81548160ff0219169083151502179055508273ffffffffffffffffffffffffffffffffffffffff168173ffffffffffffffffffffffffffffffffffffffff167f17307eab39ab6107e8899845ad3d59bd9653f200f220920489ca2b5937696c3184604051610d4d91906158c3565b60405180910390a3505050565b60007f000000000000000000000000000000000000000000000000000000000000000073ffffffffffffffffffffffffffffffffffffffff163373ffffffffffffffffffffffffffffffffffffffff1614610dea576040517f08c379a0000000000000000000000000000000000000000000000000000000008152600401610de190615959565b60405180910390fd5b6000808484810190610dfc91906149bb565b91509150610e0b828783611c3b565b600192505050949350505050565b6060610e23614717565b8383905067ffffffffffffffff81118015610e3d57600080fd5b50604051908082528060200260200182016040528015610e7757816020015b610e64614606565b815260200190600190039081610e5c5790505b50915060005b84849050811015610fba576000610ea5868684818110610e9957fe5b90506020020135611a10565b9050600080610ec78360000160189054906101000a900463ffffffff16611a2b565b915091506040518060c001604052808460000160009054906101000a900473ffffffffffffffffffffffffffffffffffffffff1673ffffffffffffffffffffffffffffffffffffffff1681526020018460000160149054906101000a900463ffffffff1663ffffffff1681526020018263ffffffff16815260200184600001601c9054906101000a900463ffffffff1663ffffffff1681526020018315158152602001600760008b8b89818110610f7a57fe5b90506020020135815260200190815260200160002054815250868581518110610f9f57fe5b60200260200101819052505050508080600101915050610e7d565b5060056040518060800160405290816000820160009054906101000a900463ffffffff1663ffffffff1663ffffffff1681526020016000820160049054906101000a900463ffffffff1663ffffffff1663ffffffff1681526020016000820160089054906101000a900463ffffffff1663ffffffff1663ffffffff16815260200160008201600c9054906101000a900463ffffffff1663ffffffff1663ffffffff168152505090509250929050565b600061107482611a10565b90508060000160009054906101000a900473ffffffffffffffffffffffffffffffffffffffff1673ffffffffffffffffffffffffffffffffffffffff168373ffffffffffffffffffffffffffffffffffffffff1614611108576040517f08c379a00000000000000000000000000000000000000000000000000000000081526004016110ff90615b19565b60405180910390fd5b60008160000160149054906101000a900463ffffffff1663ffffffff1614611165576040517f08c379a000000000000000000000000000000000000000000000000000000000815260040161115c90615919565b60405180910390fd5b428160000160146101000a81548163ffffffff021916908363ffffffff160217905550818373ffffffffffffffffffffffffffffffffffffffff167fb9182e4e152947f1e6691fa0ee6f68f21f607fed825945c270e69995acad805f60405160405180910390a3505050565b6111de8585858585611e0b565b5050505050565b6111ed614717565b60056040518060800160405290816000820160009054906101000a900463ffffffff1663ffffffff1663ffffffff1681526020016000820160049054906101000a900463ffffffff1663ffffffff1663ffffffff1681526020016000820160089054906101000a900463ffffffff1663ffffffff1663ffffffff16815260200160008201600c9054906101000a900463ffffffff1663ffffffff1663ffffffff1681525050905090565b6000600260008373ffffffffffffffffffffffffffffffffffffffff1673ffffffffffffffffffffffffffffffffffffffff168152602001908152602001600020549050919050565b6000805b838390508110156113f557600061130c85858481811061130057fe5b90506020020135611a10565b905061132b8160000160149054906101000a900463ffffffff16611b92565b156113e7578060000160009054906101000a900473ffffffffffffffffffffffffffffffffffffffff1673ffffffffffffffffffffffffffffffffffffffff168673ffffffffffffffffffffffffffffffffffffffff16146113c2576040517f08c379a00000000000000000000000000000000000000000000000000000000081526004016113b990615b19565b60405180910390fd5b6113e28585848181106113d157fe5b90506020020135878360008061204c565b830192505b5080806001019150506112e4565b50600081600260008773ffffffffffffffffffffffffffffffffffffffff1673ffffffffffffffffffffffffffffffffffffffff168152602001908152602001600020540190506114468582611d10565b5050505050565b60008060008060006001600088815260200190815260200160002060000160149054906101000a900463ffffffff1693506001600088815260200190815260200160002060000160189054906101000a900463ffffffff1692506001600088815260200190815260200160002060000160009054906101000a900473ffffffffffffffffffffffffffffffffffffffff16945060006002610708816114ee57fe5b048563ffffffff16816114fd57fe5b04905060046000888152602001908152602001600020600082815260200190815260200160002060000160089054906101000a900467ffffffffffffffff16915060046000888152602001908152602001600020600082815260200190815260200160002060000160009054906101000a900467ffffffffffffffff169250509295509295909350565b600033905090565b600061159a84611a10565b905060008160000160149054906101000a900463ffffffff1663ffffffff16146115f9576040517f08c379a00000000000000000000000000000000000000000000000000000000081526004016115f090615979565b60405180910390fd5b8060000160009054906101000a900473ffffffffffffffffffffffffffffffffffffffff1673ffffffffffffffffffffffffffffffffffffffff168573ffffffffffffffffffffffffffffffffffffffff161461168b576040517f08c379a000000000000000000000000000000000000000000000000000000000815260040161168290615b19565b60405180910390fd5b600061169685612268565b905060006116a3826122ba565b90506000806116e18560000160189054906101000a900463ffffffff1686600001601c9054906101000a900463ffffffff1663ffffffff16856122fc565b915091508663ffffffff168163ffffffff161015611734576040517f08c379a000000000000000000000000000000000000000000000000000000000815260040161172b90615939565b60405180910390fd5b600060026107088161174257fe5b04428161174b57fe5b0490506000600460008b8152602001908152602001600020600083815260200190815260200160002060000160009054906101000a900467ffffffffffffffff1690508863ffffffff16810190508863ffffffff168167ffffffffffffffff1610156117ec576040517f08c379a00000000000000000000000000000000000000000000000000000000081526004016117e390615af9565b60405180910390fd5b80600460008c8152602001908152602001600020600084815260200190815260200160002060000160006101000a81548167ffffffffffffffff021916908367ffffffffffffffff160217905550600042905060008a850390506118508682612393565b8960000160186101000a81548163ffffffff021916908363ffffffff1602179055508189600001601c6101000a81548163ffffffff021916908363ffffffff16021790555060008a8d6040516020016118aa9291906157b4565b6040516020818303038152906040528051906020012060001c905060405180606001604052808f73ffffffffffffffffffffffffffffffffffffffff1681526020018463ffffffff1681526020018d63ffffffff168152506001600083815260200190815260200160002060008201518160000160006101000a81548173ffffffffffffffffffffffffffffffffffffffff021916908373ffffffffffffffffffffffffffffffffffffffff16021790555060208201518160000160146101000a81548163ffffffff021916908363ffffffff16021790555060408201518160000160186101000a81548163ffffffff021916908363ffffffff1602179055509050508c8e73ffffffffffffffffffffffffffffffffffffffff167fd7da2af85ac97f64039a5304a609fe0eb346f04985c4fd55e0d9b10b8b886ee7838f866040516119f893929190615c39565b60405180910390a35050505050505050505050505050565b60008060008381526020019081526020016000209050919050565b600080638000000063ffffffff166380000000841663ffffffff16149150638000000063ffffffff168363ffffffff1681611a6257fe5b069050915091565b611a72614666565b6000611a7d83612268565b9050611a88816123b1565b611ac7576040517f08c379a0000000000000000000000000000000000000000000000000000000008152600401611abe906159b9565b60405180910390fd5b600080611ad3836123d7565b915091506040518061010001604052808360000b81526020018260000b8152602001611afe85612417565b61ffff168152602001611b10856122ba565b61ffff168152602001611b22856124f4565b61ffff168152602001611b348561251c565b61ffff168152602001611b4685612544565b61ffff168152602001611b588561256c565b61ffff168152509350505050919050565b60007fb53127684a568b3173ae13b9f8a6016e243e63b6e8ee1178d6a717850b5d610354905090565b6000808263ffffffff16118015611bd057507f00000000000000000000000000000000000000000000000000000000000000008263ffffffff160142115b9050919050565b6000611be6868686868661204c565b9050611c338582600260008973ffffffffffffffffffffffffffffffffffffffff1673ffffffffffffffffffffffffffffffffffffffff1681526020019081526020016000205401612594565b505050505050565b6000611c4682612268565b9050670de0b6b3a7640000611c5a82612417565b61ffff16028314611ca0576040517f08c379a0000000000000000000000000000000000000000000000000000000008152600401611c9790615b99565b60405180910390fd5b6000611cad85848461262a565b9050611cb883612af9565b828573ffffffffffffffffffffffffffffffffffffffff167f5a2bd9d3c37a402271eaa8b4cd01a1a65831589c630b4b8ab1967eca76c0412c8387604051611d01929190615cdf565b60405180910390a35050505050565b611d1b826000612594565b7f000000000000000000000000000000000000000000000000000000000000000073ffffffffffffffffffffffffffffffffffffffff1663a9059cbb83836040518363ffffffff1660e01b8152600401611d76929190615817565b602060405180830381600087803b158015611d9057600080fd5b505af1158015611da4573d6000803e3d6000fd5b505050506040513d601f19601f82011682018060405250810190611dc89190614c5b565b611e07576040517f08c379a0000000000000000000000000000000000000000000000000000000008152600401611dfe906159d9565b60405180910390fd5b5050565b611e13614757565b600160008781526020019081526020016000206040518060600160405290816000820160009054906101000a900473ffffffffffffffffffffffffffffffffffffffff1673ffffffffffffffffffffffffffffffffffffffff1673ffffffffffffffffffffffffffffffffffffffff1681526020016000820160149054906101000a900463ffffffff1663ffffffff1663ffffffff1681526020016000820160189054906101000a900463ffffffff1663ffffffff1663ffffffff16815250509050600080611ee6838989898989612f19565b91509150611ef26146c7565b611efb87611a10565b6040518060800160405290816000820160009054906101000a900473ffffffffffffffffffffffffffffffffffffffff1673ffffffffffffffffffffffffffffffffffffffff1673ffffffffffffffffffffffffffffffffffffffff1681526020016000820160149054906101000a900463ffffffff1663ffffffff1663ffffffff1681526020016000820160189054906101000a900463ffffffff1663ffffffff1663ffffffff16815260200160008201601c9054906101000a900463ffffffff1663ffffffff1663ffffffff1681525050905061200b84600001518a611fe68460200151611b92565b611ff4578360000151611ff7565b60005b8a612005898e888f8c613040565b876130bd565b6000600160008b815260200190815260200160002060000160186101000a81548163ffffffff021916908363ffffffff160217905550505050505050505050565b60008061205887612268565b90506000670de0b6b3a764000061206e83612417565b61ffff16029050878773ffffffffffffffffffffffffffffffffffffffff167f1c363b29828a892b7cddafe9583ef52e0d5aca0ea7011bda6ccf039e1781f738836040516120bc9190615c1e565b60405180910390a36000600760008a8152602001908152602001600020549050600081146121ac576001600860008a73ffffffffffffffffffffffffffffffffffffffff1673ffffffffffffffffffffffffffffffffffffffff168152602001908152602001600020600083815260200190815260200160002060006101000a81548160ff0219169083151502179055506000600760008b81526020019081526020016000208190555080898973ffffffffffffffffffffffffffffffffffffffff167f74f110a1e0cd4892234c7ba49df9f8a354cd8d29b272f7557c9b8c3c38a6533660405160405180910390a45b60008760000160146101000a81548163ffffffff021916908363ffffffff160217905550858760000160006101000a81548173ffffffffffffffffffffffffffffffffffffffff021916908373ffffffffffffffffffffffffffffffffffffffff1602179055504287600001601c6101000a81548163ffffffff021916908363ffffffff160217905550848760000160186101000a81548163ffffffff021916908363ffffffff16021790555081935050505095945050505050565b60007f00000000000000000000000000000000000000000000000000000000000000008260405160200161229d9291906157b4565b604051602081830303815290604052805190602001209050919050565b60006122f5600c7f0708083409600a8c0bb80ce40e100e100e100e101068151819c81e7823282ee060001b8461314b9092919063ffffffff16565b9050919050565b60008061230885611a2b565b8092508193505050811561238b57600084420390506000610e107f000000000000000000000000000000000000000000000000000000000000000063ffffffff168661ffff168402028161235857fe5b048363ffffffff16019050638000000063ffffffff16811061238557600163800000000363ffffffff1690505b80925050505b935093915050565b600081836123a25760006123a8565b63800000005b01905092915050565b600060016123cc60346010856131a49092919063ffffffff16565b60ff16149050919050565b6000806123f160006003856131a49092919063ffffffff16565b600103915061240d60026003856131a49092919063ffffffff16565b6001039050915091565b60008061242e600c846131c590919063ffffffff16565b9050600061246860047c010001000200020003000300040004000500050006000600070007000860001b8661314b9092919063ffffffff16565b90506000818360ff1601905060048161ffff16101561248a57600090506124a8565b60138161ffff1611156124a057600f90506124a7565b6004810390505b5b7e0400050005000a000a000f000f00140014001e001e0028002800500050006460001b6001600283020161ffff16602081106124e057fe5b1a60f81b60f81c60ff169350505050919050565b600061019061250d6014846131c590919063ffffffff16565b60ff1602610fa0019050919050565b6000610190612535601c846131c590919063ffffffff16565b60ff1602610fa0019050919050565b600061014d61255d6024846131c590919063ffffffff16565b60ff160261138d019050919050565b6000610bb8612585602c846131c590919063ffffffff16565b60ff1602613a98019050919050565b80600260008473ffffffffffffffffffffffffffffffffffffffff1673ffffffffffffffffffffffffffffffffffffffff168152602001908152602001600020819055508173ffffffffffffffffffffffffffffffffffffffff167f4d135695228631e73b5a31e6fc8af4e5825cde63774c3c48695b4af814d7b0198260405161261e9190615c1e565b60405180910390a25050565b60008061263684611a10565b90506126406146c7565b816040518060800160405290816000820160009054906101000a900473ffffffffffffffffffffffffffffffffffffffff1673ffffffffffffffffffffffffffffffffffffffff1673ffffffffffffffffffffffffffffffffffffffff1681526020016000820160149054906101000a900463ffffffff1663ffffffff1663ffffffff1681526020016000820160189054906101000a900463ffffffff1663ffffffff1663ffffffff16815260200160008201601c9054906101000a900463ffffffff1663ffffffff1663ffffffff1681525050905060008061273a8360400151846060015163ffffffff16612735896122ba565b6122fc565b915091506000806000856060015163ffffffff1614156127685761275d8861256c565b61ffff169050612895565b6000856020015163ffffffff16146127cf576127878560200151611b92565b6127c6576040517f08c379a00000000000000000000000000000000000000000000000000000000081526004016127bd90615a59565b60405180910390fd5b60019150612894565b8315612810576040517f08c379a0000000000000000000000000000000000000000000000000000000008152600401612807906159f9565b60405180910390fd5b8973ffffffffffffffffffffffffffffffffffffffff16856000015173ffffffffffffffffffffffffffffffffffffffff161480612854575060008363ffffffff16145b612893576040517f08c379a000000000000000000000000000000000000000000000000000000000815260040161288a90615ab9565b60405180910390fd5b5b5b81156128de577f000000000000000000000000000000000000000000000000000000000000000092506128d9898660000151888d6128d4600189612393565b611bd7565b612ae9565b898660000160006101000a81548173ffffffffffffffffffffffffffffffffffffffff021916908373ffffffffffffffffffffffffffffffffffffffff16021790555060008163ffffffff1614612a725760006360916f8042111561298d576129837f000000000000000000000000000000000000000000000000000000000000000063ffffffff168363ffffffff1661271061297a8d61251c565b61ffff16613271565b50809150506129d9565b6129d37f000000000000000000000000000000000000000000000000000000000000000063ffffffff168363ffffffff166127106129ca8d61251c565b61ffff166132ee565b50809150505b7f000000000000000000000000000000000000000000000000000000000000000063ffffffff168163ffffffff1610612a47576040517f08c379a0000000000000000000000000000000000000000000000000000000008152600401612a3e90615a19565b60405180910390fd5b807f000000000000000000000000000000000000000000000000000000000000000003935050612a98565b7f0000000000000000000000000000000000000000000000000000000000000000830192505b612aa3600184612393565b8660000160186101000a81548163ffffffff021916908363ffffffff1602179055504286600001601c6101000a81548163ffffffff021916908363ffffffff1602179055505b8296505050505050509392505050565b612b01614717565b60056040518060800160405290816000820160009054906101000a900463ffffffff1663ffffffff1663ffffffff1681526020016000820160049054906101000a900463ffffffff1663ffffffff1663ffffffff1681526020016000820160089054906101000a900463ffffffff1663ffffffff1663ffffffff16815260200160008201600c9054906101000a900463ffffffff1663ffffffff1663ffffffff1681525050905060006fffffffffffffffffffffffffffffffff8316600f0b90506000608084901c600f0b9050600080831215612c7f57836000015163ffffffff16836000031315612c28576040517f08c379a0000000000000000000000000000000000000000000000000000000008152600401612c1f90615ad9565b60405180910390fd5b60088360000301925063ffffffff831315612c455763ffffffff92505b8263ffffffff16846000015163ffffffff161015612c7a5782846000019063ffffffff16908163ffffffff1681525050600190505b612d1c565b836020015163ffffffff16831315612ccc576040517f08c379a0000000000000000000000000000000000000000000000000000000008152600401612cc390615a39565b60405180910390fd5b60088301925063ffffffff831315612ce65763ffffffff92505b8263ffffffff16846020015163ffffffff161015612d1b5782846020019063ffffffff16908163ffffffff1681525050600190505b5b6000821215612dcc57836040015163ffffffff16826000031315612d75576040517f08c379a0000000000000000000000000000000000000000000000000000000008152600401612d6c906158f9565b60405180910390fd5b60088260000301915063ffffffff821315612d925763ffffffff91505b8163ffffffff16846040015163ffffffff161015612dc75781846040019063ffffffff16908163ffffffff1681525050600190505b612e69565b836060015163ffffffff16821315612e19576040517f08c379a0000000000000000000000000000000000000000000000000000000008152600401612e1090615bb9565b60405180910390fd5b60088201915063ffffffff821315612e335763ffffffff91505b8163ffffffff16846060015163ffffffff161015612e685781846060019063ffffffff16908163ffffffff1681525050600190505b5b8015612f125783600560008201518160000160006101000a81548163ffffffff021916908363ffffffff16021790555060208201518160000160046101000a81548163ffffffff021916908363ffffffff16021790555060408201518160000160086101000a81548163ffffffff021916908363ffffffff160217905550606082015181600001600c6101000a81548163ffffffff021916908363ffffffff1602179055509050505b5050505050565b600080868386604051602001612f309291906157b4565b6040516020818303038152906040528051906020012087604051602001612f589291906157b4565b6040516020818303038152906040528051906020012060001c14612fb1576040517f08c379a0000000000000000000000000000000000000000000000000000000008152600401612fa890615a79565b60405180910390fd5b8760400151915060008263ffffffff1611613001576040517f08c379a0000000000000000000000000000000000000000000000000000000008152600401612ff890615999565b60405180910390fd5b61301082878a602001516133cc565b9150818860400151039050613026848787613505565b61303584878a602001516135fc565b965096945050505050565b61304861479a565b856000015173ffffffffffffffffffffffffffffffffffffffff16846000015173ffffffffffffffffffffffffffffffffffffffff16141561309b5761309486600001518585856136f9565b90506130b4565b6130b18660000151876020015187878787613852565b90505b95945050505050565b8373ffffffffffffffffffffffffffffffffffffffff168673ffffffffffffffffffffffffffffffffffffffff16867f7997eb1d618b1121acb21162e437706631dea1be00abe485637cf356eb5a90fa86866020015187604001518789600001518a606001518b6080015160405161313b9796959493929190615c70565b60405180910390a4505050505050565b60008061315885856131c5565b9050826001600283020160ff166020811061316f57fe5b1a60f81b60f81c60ff16610100846002840260ff166020811061318e57fe5b1a60f81b60f81c60ff1602019150509392505050565b60008160ff168360ff1685901c60001c816131bb57fe5b0690509392505050565b6000806131d4848460406131a4565b9050600060028260ff16816131e557fe5b049050600060028360ff16816131f757fe5b06905060007f01223334444555555666666677777777888888889999999aaaaaabbbbcccddef60001b8360ff166020811061322e57fe5b1a60f81b60f81c905060008260ff1614156132565760048160ff16901c94505050505061326b565b60108160ff168161326357fe5b069450505050505b92915050565b60008060008614806132835750600085145b1561329457600080915091506132e5565b600083858802816132a157fe5b049050808611156132b7578692508091506132e3565b600085858802816132c457fe5b0463ffffffff1690508781106132db576001880390505b809350869250505b505b94509492505050565b60008060008614806133005750600085145b1561331157600080915091506133c3565b60008487029050600084870290506000826305f5e10089028161333057fe5b0490506305f5e1008802838202101561334c5780806001019150505b6000826305f5e1008b028161335d57fe5b0490506305f5e1008a0283820210156133795780806001019150505b60006133858383613928565b90506133a06305f5e1008583028161339957fe5b048c613928565b96506133bb6305f5e100868302816133b457fe5b048b613928565b955050505050505b94509492505050565b6000806002610708816133db57fe5b048363ffffffff16816133ea57fe5b049050600060046000868152602001908152602001600020600083815260200190815260200160002060000160089054906101000a900467ffffffffffffffff1690508563ffffffff168167ffffffffffffffff16101561349e578086039550600060046000878152602001908152602001600020600084815260200190815260200160002060000160086101000a81548167ffffffffffffffff021916908367ffffffffffffffff1602179055506134f9565b600095508563ffffffff16810360046000878152602001908152602001600020600084815260200190815260200160002060000160086101000a81548167ffffffffffffffff021916908367ffffffffffffffff1602179055505b85925050509392505050565b60008061351961351485612268565b6123d7565b9150915060008061353161352c86612268565b6123d7565b91509150600060028460000b600460808a901c02018360000b600460808a901c020103600f0b0a60028660000b60046fffffffffffffffffffffffffffffffff8b1602018560000b60046fffffffffffffffffffffffffffffffff8b16020103600f0b0a01600f0b9050806002890a111580156135b357506002600189010a81105b6135f2576040517f08c379a00000000000000000000000000000000000000000000000000000000081526004016135e990615b59565b60405180910390fd5b5050505050505050565b600061360f61360a84612268565b612544565b61ffff166127107f00000000000000000000000000000000000000000000000000000000000000000285028161364157fe5b048263ffffffff160190508042101561368f576040517f08c379a000000000000000000000000000000000000000000000000000000000815260040161368690615b39565b60405180910390fd5b7f0000000000000000000000000000000000000000000000000000000000000000810142106136f3576040517f08c379a00000000000000000000000000000000000000000000000000000000081526004016136ea90615a99565b60405180910390fd5b50505050565b61370161479a565b61370e8460200151611b92565b156137525761374b83856000015160008087815260200190815260200160002060008663ffffffff1611613743576000613745565b885b86613942565b905061384a565b600061375d84612268565b9050600061376a826122ba565b90506000806137888860400151896060015163ffffffff16856122fc565b91509150600086820163ffffffff169050638000000063ffffffff1681106137bb57600163800000000363ffffffff1690505b426000808a8152602001908152602001600020600001601c6101000a81548163ffffffff021916908363ffffffff1602179055506137f98382612393565b6000808a815260200190815260200160002060000160186101000a81548163ffffffff021916908363ffffffff16021790555080866080019063ffffffff16908163ffffffff168152505050505050505b949350505050565b61385a61479a565b6000846060015163ffffffff16141561389057600061387884612268565b90506138888888888785886139a7565b91505061391e565b61389d8460200151611b92565b156138cb576138c48385600001516000808781526020019081526020016000208a86613942565b905061391e565b60006138d684612268565b905060006138eb6138e688612268565b6124f4565b905060006138f88361251c565b90506000613905846122ba565b90506139178b8b85858c8c878d613ba3565b9450505050505b9695505050505050565b600081831115613938578161393a565b825b905092915050565b61394a61479a565b61396d86868660008663ffffffff1611613965576000613967565b865b86611bd7565b81816080019063ffffffff16908163ffffffff168152505060008263ffffffff161181606001901515908115158152505095945050505050565b6139af61479a565b60006139c26139bd87612268565b6124f4565b905060006139cf8561251c565b905060006139dc8661256c565b90506000806360916f808b63ffffffff161115613a1e57613a118763ffffffff168461ffff168761ffff168761ffff16613271565b8092508193505050613a45565b613a3c8763ffffffff168461ffff168761ffff168761ffff166132ee565b80925081935050505b81866020019063ffffffff16908163ffffffff16815250508261ffff168163ffffffff16148015613a8157508163ffffffff168763ffffffff16115b15613b9457818703866080019063ffffffff16908163ffffffff1681525050613aaf60008760800151612393565b6000808b815260200190815260200160002060000160186101000a81548163ffffffff021916908363ffffffff160217905550426000808b8152602001908152602001600020600001601c6101000a81548163ffffffff021916908363ffffffff1602179055508b6000808b815260200190815260200160002060000160006101000a81548173ffffffffffffffffffffffffffffffffffffffff021916908373ffffffffffffffffffffffffffffffffffffffff16021790555080866040019063ffffffff16908163ffffffff168152505060018660600190151590811515815250505b50505050509695505050505050565b613bab61479a565b613bb36147e3565b613bbe868686613d31565b90506000816040015163ffffffff16148015613be0575060008363ffffffff16115b15613d12578960008087815260200190815260200160002060000160006101000a81548173ffffffffffffffffffffffffffffffffffffffff021916908373ffffffffffffffffffffffffffffffffffffffff160217905550600080600087815260200190815260200160002060000160146101000a81548163ffffffff021916908363ffffffff160217905550613c7c816000015184612393565b60008087815260200190815260200160002060000160186101000a81548163ffffffff021916908363ffffffff16021790555042600080878152602001908152602001600020600001601c6101000a81548163ffffffff021916908363ffffffff160217905550600182606001901515908115158152505082826080019063ffffffff16908163ffffffff168152505050613d25565b613d21818b8b88878d8d613e43565b9150505b98975050505050505050565b613d396147e3565b600080613d558660400151876060015163ffffffff16866122fc565b915091506000806000806000613d6b868b6144b4565b945094509450945094508688600001901515908115158152505085886020019063ffffffff16908163ffffffff168152505084886040019063ffffffff16908163ffffffff168152505083886060019067ffffffffffffffff16908167ffffffffffffffff168152505082886080019067ffffffffffffffff16908167ffffffffffffffff1681525050818860a0019067ffffffffffffffff16908167ffffffffffffffff1681525050808860c0019067ffffffffffffffff16908167ffffffffffffffff1681525050505050505050509392505050565b613e4b61479a565b6000806360916f808863ffffffff161115613e9157613e848663ffffffff168b6040015163ffffffff168761ffff168761ffff16613271565b8092508193505050613ebe565b613eb58663ffffffff168b6040015163ffffffff168761ffff168761ffff166132ee565b80925081935050505b81836020019063ffffffff16908163ffffffff168152505080836040019063ffffffff16908163ffffffff1681525050896020015163ffffffff16836040015163ffffffff1611156142895789602001518103836000019063ffffffff16908163ffffffff16815250508960200151836040019063ffffffff16908163ffffffff1681525050826000015163ffffffff168a6060015167ffffffffffffffff1610613fc857826000015163ffffffff168a6060018181510391509067ffffffffffffffff16908167ffffffffffffffff1681525050826000015163ffffffff168a6080018181510191509067ffffffffffffffff16908167ffffffffffffffff16815250506140e6565b89606001518a6080018181510191509067ffffffffffffffff16908167ffffffffffffffff168152505060008a60600151846000015163ffffffff160390508067ffffffffffffffff168b60a0015167ffffffffffffffff161061407757808b60a0018181510391509067ffffffffffffffff16908167ffffffffffffffff1681525050808b60c0018181510191509067ffffffffffffffff16908167ffffffffffffffff16815250506140c3565b8a60a001518b60c0018181510191509067ffffffffffffffff16908167ffffffffffffffff168152505060008b60a0019067ffffffffffffffff16908167ffffffffffffffff16815250505b60008b6060019067ffffffffffffffff16908167ffffffffffffffff1681525050505b8960600151600460008981526020019081526020016000206000600160026107088161410e57fe5b04428161411757fe5b0403815260200190815260200160002060000160006101000a81548167ffffffffffffffff021916908367ffffffffffffffff1602179055508960800151600460008981526020019081526020016000206000600160026107088161417857fe5b04428161418157fe5b0403815260200190815260200160002060000160086101000a81548167ffffffffffffffff021916908367ffffffffffffffff1602179055508960a001516004600089815260200190815260200160002060006002610708816141e057fe5b0442816141e957fe5b04815260200190815260200160002060000160006101000a81548167ffffffffffffffff021916908367ffffffffffffffff1602179055508960c0015160046000898152602001908152602001600020600060026107088161424757fe5b04428161425057fe5b04815260200190815260200160002060000160086101000a81548167ffffffffffffffff021916908367ffffffffffffffff1602179055505b60008663ffffffff161180156142b25750896020015163ffffffff16836040015163ffffffff16145b156143e957818603836080019063ffffffff16908163ffffffff168152505060018360600190151590811515815250508860008089815260200190815260200160002060000160006101000a81548173ffffffffffffffffffffffffffffffffffffffff021916908373ffffffffffffffffffffffffffffffffffffffff160217905550600080600089815260200190815260200160002060000160146101000a81548163ffffffff021916908363ffffffff16021790555061437d8a600001518460800151612393565b60008089815260200190815260200160002060000160186101000a81548163ffffffff021916908363ffffffff16021790555042600080898152602001908152602001600020600001601c6101000a81548163ffffffff021916908363ffffffff1602179055506144a7565b8563ffffffff16836020015163ffffffff16141561449d57808a6020015103836080019063ffffffff16908163ffffffff16815250506144318a600001518460800151612393565b60008089815260200190815260200160002060000160186101000a81548163ffffffff021916908363ffffffff16021790555042600080898152602001908152602001600020600001601c6101000a81548163ffffffff021916908363ffffffff1602179055506144a6565b60006144a557fe5b5b5b5050979650505050505050565b600080600080600086945060006002610708816144cd57fe5b0442816144d657fe5b04905060046000888152602001908152602001600020600060018303815260200190815260200160002060000160009054906101000a900467ffffffffffffffff16945060046000888152602001908152602001600020600060018303815260200190815260200160002060000160009054906101000a900467ffffffffffffffff16935060046000888152602001908152602001600020600082815260200190815260200160002060000160009054906101000a900467ffffffffffffffff16925060046000888152602001908152602001600020600082815260200190815260200160002060000160089054906101000a900467ffffffffffffffff1691506145f98663ffffffff168487010167ffffffffffffffff1663ffffffff613928565b9550509295509295909350565b6040518060c00160405280600073ffffffffffffffffffffffffffffffffffffffff168152602001600063ffffffff168152602001600063ffffffff168152602001600063ffffffff168152602001600015158152602001600081525090565b6040518061010001604052806000800b81526020016000800b8152602001600061ffff168152602001600061ffff168152602001600061ffff168152602001600061ffff168152602001600061ffff168152602001600061ffff1681525090565b6040518060800160405280600073ffffffffffffffffffffffffffffffffffffffff168152602001600063ffffffff168152602001600063ffffffff168152602001600063ffffffff1681525090565b6040518060800160405280600063ffffffff168152602001600063ffffffff168152602001600063ffffffff168152602001600063ffffffff1681525090565b6040518060600160405280600073ffffffffffffffffffffffffffffffffffffffff168152602001600063ffffffff168152602001600063ffffffff1681525090565b6040518060a00160405280600063ffffffff168152602001600063ffffffff168152602001600063ffffffff168152602001600015158152602001600063ffffffff1681525090565b6040518060e00160405280600015158152602001600063ffffffff168152602001600063ffffffff168152602001600067ffffffffffffffff168152602001600067ffffffffffffffff168152602001600067ffffffffffffffff168152602001600067ffffffffffffffff1681525090565b60008135905061486581615e1b565b92915050565b60008135905061487a81615e32565b92915050565b60008083601f84011261489257600080fd5b8235905067ffffffffffffffff8111156148ab57600080fd5b6020830191508360208202830111156148c357600080fd5b9250929050565b6000813590506148d981615e49565b92915050565b6000815190506148ee81615e49565b92915050565b60008135905061490381615e60565b92915050565b60008083601f84011261491b57600080fd5b8235905067ffffffffffffffff81111561493457600080fd5b60208301915083600182028301111561494c57600080fd5b9250929050565b60008135905061496281615e77565b92915050565b60008135905061497781615e8e565b92915050565b60008135905061498c81615ea5565b92915050565b6000602082840312156149a457600080fd5b60006149b284828501614856565b91505092915050565b600080604083850312156149ce57600080fd5b60006149dc8582860161486b565b92505060206149ed85828601614968565b9150509250929050565b600080600080600060808688031215614a0f57600080fd5b6000614a1d88828901614856565b9550506020614a2e88828901614856565b9450506040614a3f88828901614968565b935050606086013567ffffffffffffffff811115614a5c57600080fd5b614a6888828901614909565b92509250509295509295909350565b600080600060408486031215614a8c57600080fd5b6000614a9a86828701614856565b935050602084013567ffffffffffffffff811115614ab757600080fd5b614ac386828701614880565b92509250509250925092565b60008060408385031215614ae257600080fd5b6000614af085828601614856565b9250506020614b01858286016148ca565b9150509250929050565b60008060408385031215614b1e57600080fd5b6000614b2c85828601614856565b9250506020614b3d85828601614968565b9150509250929050565b60008060008060608587031215614b5d57600080fd5b6000614b6b87828801614856565b9450506020614b7c87828801614968565b935050604085013567ffffffffffffffff811115614b9957600080fd5b614ba587828801614909565b925092505092959194509250565b60008060008060808587031215614bc957600080fd5b6000614bd787828801614856565b9450506020614be887828801614968565b9350506040614bf98782880161497d565b9250506060614c0a878288016148f4565b91505092959194509250565b60008060208385031215614c2957600080fd5b600083013567ffffffffffffffff811115614c4357600080fd5b614c4f85828601614880565b92509250509250929050565b600060208284031215614c6d57600080fd5b6000614c7b848285016148df565b91505092915050565b600080600080600080600060e0888a031215614c9f57600080fd5b6000614cad8a828b01614953565b9750506020614cbe8a828b016148f4565b9650506040614ccf8a828b0161497d565b9550506060614ce08a828b0161497d565b9450506080614cf18a828b0161497d565b93505060a0614d028a828b0161497d565b92505060c0614d138a828b0161497d565b91505092959891949750929550565b600060208284031215614d3457600080fd5b6000614d4284828501614968565b91505092915050565b60008060408385031215614d5e57600080fd5b6000614d6c85828601614968565b9250506020614d7d85828601614856565b9150509250929050565b60008060408385031215614d9a57600080fd5b6000614da885828601614968565b9250506020614db985828601614968565b9150509250929050565b600080600080600060a08688031215614ddb57600080fd5b6000614de988828901614968565b9550506020614dfa88828901614968565b9450506040614e0b88828901614968565b9350506060614e1c88828901614968565b9250506080614e2d888289016148f4565b9150509295509295909350565b600080600060608486031215614e4f57600080fd5b6000614e5d86828701614968565b9350506020614e6e8682870161497d565b9250506040614e7f868287016148f4565b9150509250925092565b6000614e9583836155ab565b60c08301905092915050565b614eaa81615d52565b82525050565b614eb981615d52565b82525050565b6000614eca82615d18565b614ed48185615d30565b9350614edf83615d08565b8060005b83811015614f10578151614ef78882614e89565b9750614f0283615d23565b925050600181019050614ee3565b5085935050505092915050565b614f2681615d76565b82525050565b614f3581615d76565b82525050565b614f4481615d82565b82525050565b614f5b614f5682615d82565b615e07565b82525050565b614f6a81615d9e565b82525050565b6000614f7d601683615d41565b91507f4e4f545f524541434841424c455f5945545f4d494e59000000000000000000006000830152602082019050919050565b6000614fbd600f83615d41565b91507f45584954494e475f414c524541445900000000000000000000000000000000006000830152602082019050919050565b6000614ffd601583615d41565b91507f535041434553484950535f4e4f545f454e4f55474800000000000000000000006000830152602082019050919050565b600061503d600d83615d41565b91507f494e56414c49445f4552433230000000000000000000000000000000000000006000830152602082019050919050565b600061507d600b83615d41565b91507f504c414e45545f455849540000000000000000000000000000000000000000006000830152602082019050919050565b60006150bd601283615d41565b91507f464c4545545f444f5f4e4f545f455849535400000000000000000000000000006000830152602082019050919050565b60006150fd601a83615d41565b91507f6e6f20706c616e657420696e2074686973206c6f636174696f6e0000000000006000830152602082019050919050565b600061513d600f83615d41565b91507f4641494c45445f5452414e5346455200000000000000000000000000000000006000830152602082019050919050565b600061517d600c83615d41565b91507f5354494c4c5f41435449564500000000000000000000000000000000000000006000830152602082019050919050565b60006151bd600f83615d41565b91507f4641494c45445f434150545552454400000000000000000000000000000000006000830152602082019050919050565b60006151fd601683615d41565b91507f4e4f545f524541434841424c455f5945545f4d415858000000000000000000006000830152602082019050919050565b600061523d600d83615d41565b91507f5354494c4c5f45584954494e47000000000000000000000000000000000000006000830152602082019050919050565b600061527d601d83615d41565b91507f494e56414c49445f464c4545545f444154415f4f525f534543524554270000006000830152602082019050919050565b60006152bd602b83615d41565b91507f746f6f206c6174652c20796f7572207370616365736869707320617265206c6f60008301527f737420696e2073706163650000000000000000000000000000000000000000006020830152604082019050919050565b6000615323600883615d41565b91507f4f434355504945440000000000000000000000000000000000000000000000006000830152602082019050919050565b6000615363601683615d41565b91507f4e4f545f524541434841424c455f5945545f4d494e58000000000000000000006000830152602082019050919050565b60006153a3600883615d41565b91507f4f564552464c4f570000000000000000000000000000000000000000000000006000830152602082019050919050565b60006153e3600983615d41565b91507f4e4f545f4f574e455200000000000000000000000000000000000000000000006000830152602082019050919050565b6000615423600983615d41565b91507f746f6f206561726c7900000000000000000000000000000000000000000000006000830152602082019050919050565b6000615463600e83615d41565b91507f77726f6e672064697374616e63650000000000000000000000000000000000006000830152602082019050919050565b60006154a3600e83615d41565b91507f4e4f545f415554484f52495a45440000000000000000000000000000000000006000830152602082019050919050565b60006154e3600e83615d41565b91507f494e56414c49445f414d4f554e540000000000000000000000000000000000006000830152602082019050919050565b6000615523601683615d41565b91507f4e4f545f524541434841424c455f5945545f4d415859000000000000000000006000830152602082019050919050565b60808201600082015161556c6000850182615787565b50602082015161557f6020850182615787565b5060408201516155926040850182615787565b5060608201516155a56060850182615787565b50505050565b60c0820160008201516155c16000850182614ea1565b5060208201516155d46020850182615787565b5060408201516155e76040850182615787565b5060608201516155fa6060850182615787565b50608082015161560d6080850182614f1d565b5060a082015161562060a0850182615752565b50505050565b60c08201600082015161563c6000850182614ea1565b50602082015161564f6020850182615787565b5060408201516156626040850182615787565b5060608201516156756060850182615787565b5060808201516156886080850182614f1d565b5060a082015161569b60a0850182615752565b50505050565b610100820160008201516156b86000850182614f61565b5060208201516156cb6020850182614f61565b5060408201516156de6040850182615743565b5060608201516156f16060850182615743565b5060808201516157046080850182615743565b5060a082015161571760a0850182615743565b5060c082015161572a60c0850182615743565b5060e082015161573d60e0850182615743565b50505050565b61574c81615dab565b82525050565b61575b81615dd9565b82525050565b61576a81615dd9565b82525050565b61578161577c82615dd9565b615e11565b82525050565b61579081615de3565b82525050565b61579f81615de3565b82525050565b6157ae81615df3565b82525050565b60006157c08285614f4a565b6020820191506157d08284615770565b6020820191508190509392505050565b60006060820190506157f56000830186614eb0565b6158026020830185614eb0565b61580f6040830184615761565b949350505050565b600060408201905061582c6000830185614eb0565b6158396020830184615761565b9392505050565b600060a0820190506158556000830188614eb0565b6158626020830187615796565b61586f6040830186615796565b61587c60608301856157a5565b61588960808301846157a5565b9695505050505050565b600060a08201905081810360008301526158ad8185614ebf565b90506158bc6020830184615556565b9392505050565b60006020820190506158d86000830184614f2c565b92915050565b60006020820190506158f36000830184614f3b565b92915050565b6000602082019050818103600083015261591281614f70565b9050919050565b6000602082019050818103600083015261593281614fb0565b9050919050565b6000602082019050818103600083015261595281614ff0565b9050919050565b6000602082019050818103600083015261597281615030565b9050919050565b6000602082019050818103600083015261599281615070565b9050919050565b600060208201905081810360008301526159b2816150b0565b9050919050565b600060208201905081810360008301526159d2816150f0565b9050919050565b600060208201905081810360008301526159f281615130565b9050919050565b60006020820190508181036000830152615a1281615170565b9050919050565b60006020820190508181036000830152615a32816151b0565b9050919050565b60006020820190508181036000830152615a52816151f0565b9050919050565b60006020820190508181036000830152615a7281615230565b9050919050565b60006020820190508181036000830152615a9281615270565b9050919050565b60006020820190508181036000830152615ab2816152b0565b9050919050565b60006020820190508181036000830152615ad281615316565b9050919050565b60006020820190508181036000830152615af281615356565b9050919050565b60006020820190508181036000830152615b1281615396565b9050919050565b60006020820190508181036000830152615b32816153d6565b9050919050565b60006020820190508181036000830152615b5281615416565b9050919050565b60006020820190508181036000830152615b7281615456565b9050919050565b60006020820190508181036000830152615b9281615496565b9050919050565b60006020820190508181036000830152615bb2816154d6565b9050919050565b60006020820190508181036000830152615bd281615516565b9050919050565b6000608082019050615bee6000830184615556565b92915050565b60006101c082019050615c0a6000830185615626565b615c1760c08301846156a1565b9392505050565b6000602082019050615c336000830184615761565b92915050565b6000606082019050615c4e6000830186615761565b615c5b6020830185615796565b615c686040830184615796565b949350505050565b600060e082019050615c85600083018a615761565b615c926020830189615796565b615c9f6040830188615796565b615cac6060830187615796565b615cb96080830186615796565b615cc660a0830185614f2c565b615cd360c0830184615796565b98975050505050505050565b6000604082019050615cf46000830185615796565b615d016020830184615761565b9392505050565b6000819050602082019050919050565b600081519050919050565b6000602082019050919050565b600082825260208201905092915050565b600082825260208201905092915050565b6000615d5d82615db9565b9050919050565b6000615d6f82615db9565b9050919050565b60008115159050919050565b6000819050919050565b6000615d9782615d52565b9050919050565b60008160000b9050919050565b600061ffff82169050919050565b600073ffffffffffffffffffffffffffffffffffffffff82169050919050565b6000819050919050565b600063ffffffff82169050919050565b600067ffffffffffffffff82169050919050565b6000819050919050565b6000819050919050565b615e2481615d52565b8114615e2f57600080fd5b50565b615e3b81615d64565b8114615e4657600080fd5b50565b615e5281615d76565b8114615e5d57600080fd5b50565b615e6981615d82565b8114615e7457600080fd5b50565b615e8081615d8c565b8114615e8b57600080fd5b50565b615e9781615dd9565b8114615ea257600080fd5b50565b615eae81615de3565b8114615eb957600080fd5b5056fea26469706673582212205ac1b5d32148e6ee0047b15b40f96521aaa9b7969291db3fddc2e6ae5d0436ec64736f6c63430007050033",
  "devdoc": {
    "kind": "dev",
    "methods": {},
    "version": 1
  },
  "userdoc": {
    "kind": "user",
    "methods": {},
    "version": 1
  },
  "storageLayout": {
    "storage": [
      {
        "astId": 9681,
        "contract": "src/OuterSpace.sol:OuterSpace",
        "label": "_planets",
        "offset": 0,
        "slot": "0",
        "type": "t_mapping(t_uint256,t_struct(Planet)9726_storage)"
      },
      {
        "astId": 9685,
        "contract": "src/OuterSpace.sol:OuterSpace",
        "label": "_fleets",
        "offset": 0,
        "slot": "1",
        "type": "t_mapping(t_uint256,t_struct(Fleet)9733_storage)"
      },
      {
        "astId": 9689,
        "contract": "src/OuterSpace.sol:OuterSpace",
        "label": "_stakeReadyToBeWithdrawn",
        "offset": 0,
        "slot": "2",
        "type": "t_mapping(t_address,t_uint256)"
      },
      {
        "astId": 9695,
        "contract": "src/OuterSpace.sol:OuterSpace",
        "label": "_operators",
        "offset": 0,
        "slot": "3",
        "type": "t_mapping(t_address,t_mapping(t_address,t_bool))"
      },
      {
        "astId": 9706,
        "contract": "src/OuterSpace.sol:OuterSpace",
        "label": "_inFlight",
        "offset": 0,
        "slot": "4",
        "type": "t_mapping(t_uint256,t_mapping(t_uint256,t_struct(InFlight)9700_storage))"
      },
      {
        "astId": 9717,
        "contract": "src/OuterSpace.sol:OuterSpace",
        "label": "_discovered",
        "offset": 0,
        "slot": "5",
        "type": "t_struct(Discovered)9715_storage"
      },
      {
        "astId": 9737,
        "contract": "src/OuterSpace.sol:OuterSpace",
        "label": "_prevRewardIds",
        "offset": 0,
        "slot": "6",
        "type": "t_mapping(t_address,t_uint256)"
      },
      {
        "astId": 9741,
        "contract": "src/OuterSpace.sol:OuterSpace",
        "label": "_rewards",
        "offset": 0,
        "slot": "7",
        "type": "t_mapping(t_uint256,t_uint256)"
      },
      {
        "astId": 9747,
        "contract": "src/OuterSpace.sol:OuterSpace",
        "label": "_rewardsToWithdraw",
        "offset": 0,
        "slot": "8",
        "type": "t_mapping(t_address,t_mapping(t_uint256,t_bool))"
      }
    ],
    "types": {
      "t_address": {
        "encoding": "inplace",
        "label": "address",
        "numberOfBytes": "20"
      },
      "t_bool": {
        "encoding": "inplace",
        "label": "bool",
        "numberOfBytes": "1"
      },
      "t_mapping(t_address,t_bool)": {
        "encoding": "mapping",
        "key": "t_address",
        "label": "mapping(address => bool)",
        "numberOfBytes": "32",
        "value": "t_bool"
      },
      "t_mapping(t_address,t_mapping(t_address,t_bool))": {
        "encoding": "mapping",
        "key": "t_address",
        "label": "mapping(address => mapping(address => bool))",
        "numberOfBytes": "32",
        "value": "t_mapping(t_address,t_bool)"
      },
      "t_mapping(t_address,t_mapping(t_uint256,t_bool))": {
        "encoding": "mapping",
        "key": "t_address",
        "label": "mapping(address => mapping(uint256 => bool))",
        "numberOfBytes": "32",
        "value": "t_mapping(t_uint256,t_bool)"
      },
      "t_mapping(t_address,t_uint256)": {
        "encoding": "mapping",
        "key": "t_address",
        "label": "mapping(address => uint256)",
        "numberOfBytes": "32",
        "value": "t_uint256"
      },
      "t_mapping(t_uint256,t_bool)": {
        "encoding": "mapping",
        "key": "t_uint256",
        "label": "mapping(uint256 => bool)",
        "numberOfBytes": "32",
        "value": "t_bool"
      },
      "t_mapping(t_uint256,t_mapping(t_uint256,t_struct(InFlight)9700_storage))": {
        "encoding": "mapping",
        "key": "t_uint256",
        "label": "mapping(uint256 => mapping(uint256 => struct OuterSpace.InFlight))",
        "numberOfBytes": "32",
        "value": "t_mapping(t_uint256,t_struct(InFlight)9700_storage)"
      },
      "t_mapping(t_uint256,t_struct(Fleet)9733_storage)": {
        "encoding": "mapping",
        "key": "t_uint256",
        "label": "mapping(uint256 => struct OuterSpace.Fleet)",
        "numberOfBytes": "32",
        "value": "t_struct(Fleet)9733_storage"
      },
      "t_mapping(t_uint256,t_struct(InFlight)9700_storage)": {
        "encoding": "mapping",
        "key": "t_uint256",
        "label": "mapping(uint256 => struct OuterSpace.InFlight)",
        "numberOfBytes": "32",
        "value": "t_struct(InFlight)9700_storage"
      },
      "t_mapping(t_uint256,t_struct(Planet)9726_storage)": {
        "encoding": "mapping",
        "key": "t_uint256",
        "label": "mapping(uint256 => struct OuterSpace.Planet)",
        "numberOfBytes": "32",
        "value": "t_struct(Planet)9726_storage"
      },
      "t_mapping(t_uint256,t_uint256)": {
        "encoding": "mapping",
        "key": "t_uint256",
        "label": "mapping(uint256 => uint256)",
        "numberOfBytes": "32",
        "value": "t_uint256"
      },
      "t_struct(Discovered)9715_storage": {
        "encoding": "inplace",
        "label": "struct OuterSpace.Discovered",
        "members": [
          {
            "astId": 9708,
            "contract": "src/OuterSpace.sol:OuterSpace",
            "label": "minX",
            "offset": 0,
            "slot": "0",
            "type": "t_uint32"
          },
          {
            "astId": 9710,
            "contract": "src/OuterSpace.sol:OuterSpace",
            "label": "maxX",
            "offset": 4,
            "slot": "0",
            "type": "t_uint32"
          },
          {
            "astId": 9712,
            "contract": "src/OuterSpace.sol:OuterSpace",
            "label": "minY",
            "offset": 8,
            "slot": "0",
            "type": "t_uint32"
          },
          {
            "astId": 9714,
            "contract": "src/OuterSpace.sol:OuterSpace",
            "label": "maxY",
            "offset": 12,
            "slot": "0",
            "type": "t_uint32"
          }
        ],
        "numberOfBytes": "32"
      },
      "t_struct(Fleet)9733_storage": {
        "encoding": "inplace",
        "label": "struct OuterSpace.Fleet",
        "members": [
          {
            "astId": 9728,
            "contract": "src/OuterSpace.sol:OuterSpace",
            "label": "owner",
            "offset": 0,
            "slot": "0",
            "type": "t_address"
          },
          {
            "astId": 9730,
            "contract": "src/OuterSpace.sol:OuterSpace",
            "label": "launchTime",
            "offset": 20,
            "slot": "0",
            "type": "t_uint32"
          },
          {
            "astId": 9732,
            "contract": "src/OuterSpace.sol:OuterSpace",
            "label": "quantity",
            "offset": 24,
            "slot": "0",
            "type": "t_uint32"
          }
        ],
        "numberOfBytes": "32"
      },
      "t_struct(InFlight)9700_storage": {
        "encoding": "inplace",
        "label": "struct OuterSpace.InFlight",
        "members": [
          {
            "astId": 9697,
            "contract": "src/OuterSpace.sol:OuterSpace",
            "label": "flying",
            "offset": 0,
            "slot": "0",
            "type": "t_uint64"
          },
          {
            "astId": 9699,
            "contract": "src/OuterSpace.sol:OuterSpace",
            "label": "destroyed",
            "offset": 8,
            "slot": "0",
            "type": "t_uint64"
          }
        ],
        "numberOfBytes": "32"
      },
      "t_struct(Planet)9726_storage": {
        "encoding": "inplace",
        "label": "struct OuterSpace.Planet",
        "members": [
          {
            "astId": 9719,
            "contract": "src/OuterSpace.sol:OuterSpace",
            "label": "owner",
            "offset": 0,
            "slot": "0",
            "type": "t_address"
          },
          {
            "astId": 9721,
            "contract": "src/OuterSpace.sol:OuterSpace",
            "label": "exitTime",
            "offset": 20,
            "slot": "0",
            "type": "t_uint32"
          },
          {
            "astId": 9723,
            "contract": "src/OuterSpace.sol:OuterSpace",
            "label": "numSpaceships",
            "offset": 24,
            "slot": "0",
            "type": "t_uint32"
          },
          {
            "astId": 9725,
            "contract": "src/OuterSpace.sol:OuterSpace",
            "label": "lastUpdated",
            "offset": 28,
            "slot": "0",
            "type": "t_uint32"
          }
        ],
        "numberOfBytes": "32"
      },
      "t_uint256": {
        "encoding": "inplace",
        "label": "uint256",
        "numberOfBytes": "32"
      },
      "t_uint32": {
        "encoding": "inplace",
        "label": "uint32",
        "numberOfBytes": "4"
      },
      "t_uint64": {
        "encoding": "inplace",
        "label": "uint64",
        "numberOfBytes": "8"
      }
    }
  }
}