{
  "address": "0x95F8d6241E0870e1FA7acB38CBd34698064E5Ee4",
  "abi": [
    {
      "inputs": [
        {
          "internalType": "address",
          "name": "l2Messenger",
          "type": "address"
        }
      ],
      "stateMutability": "nonpayable",
      "type": "constructor"
    },
    {
      "anonymous": false,
      "inputs": [
        {
          "indexed": true,
          "internalType": "address",
          "name": "owner",
          "type": "address"
        },
        {
          "indexed": true,
          "internalType": "address",
          "name": "spender",
          "type": "address"
        },
        {
          "indexed": false,
          "internalType": "uint256",
          "name": "value",
          "type": "uint256"
        }
      ],
      "name": "Approval",
      "type": "event"
    },
    {
      "anonymous": false,
      "inputs": [
        {
          "indexed": true,
          "internalType": "address",
          "name": "from",
          "type": "address"
        },
        {
          "indexed": true,
          "internalType": "address",
          "name": "to",
          "type": "address"
        },
        {
          "indexed": false,
          "internalType": "uint256",
          "name": "value",
          "type": "uint256"
        }
      ],
      "name": "Transfer",
      "type": "event"
    },
    {
      "inputs": [],
      "name": "DOMAIN_SEPARATOR",
      "outputs": [
        {
          "internalType": "bytes32",
          "name": "",
          "type": "bytes32"
        }
      ],
      "stateMutability": "view",
      "type": "function"
    },
    {
      "inputs": [
        {
          "internalType": "address",
          "name": "owner",
          "type": "address"
        },
        {
          "internalType": "address",
          "name": "spender",
          "type": "address"
        }
      ],
      "name": "allowance",
      "outputs": [
        {
          "internalType": "uint256",
          "name": "",
          "type": "uint256"
        }
      ],
      "stateMutability": "view",
      "type": "function"
    },
    {
      "inputs": [
        {
          "internalType": "address[]",
          "name": "accounts",
          "type": "address[]"
        }
      ],
      "name": "anyNotAuthorized",
      "outputs": [
        {
          "internalType": "bool",
          "name": "",
          "type": "bool"
        }
      ],
      "stateMutability": "view",
      "type": "function"
    },
    {
      "inputs": [
        {
          "internalType": "address",
          "name": "spender",
          "type": "address"
        },
        {
          "internalType": "uint256",
          "name": "amount",
          "type": "uint256"
        }
      ],
      "name": "approve",
      "outputs": [
        {
          "internalType": "bool",
          "name": "",
          "type": "bool"
        }
      ],
      "stateMutability": "nonpayable",
      "type": "function"
    },
    {
      "inputs": [
        {
          "internalType": "address",
          "name": "spender",
          "type": "address"
        },
        {
          "internalType": "uint256",
          "name": "amount",
          "type": "uint256"
        },
        {
          "internalType": "bytes",
          "name": "data",
          "type": "bytes"
        }
      ],
      "name": "approveAndCall",
      "outputs": [
        {
          "internalType": "bool",
          "name": "",
          "type": "bool"
        }
      ],
      "stateMutability": "nonpayable",
      "type": "function"
    },
    {
      "inputs": [
        {
          "internalType": "address[]",
          "name": "accounts",
          "type": "address[]"
        },
        {
          "internalType": "bool",
          "name": "auth",
          "type": "bool"
        }
      ],
      "name": "authorize",
      "outputs": [],
      "stateMutability": "nonpayable",
      "type": "function"
    },
    {
      "inputs": [
        {
          "internalType": "address",
          "name": "",
          "type": "address"
        }
      ],
      "name": "authorized",
      "outputs": [
        {
          "internalType": "bool",
          "name": "",
          "type": "bool"
        }
      ],
      "stateMutability": "view",
      "type": "function"
    },
    {
      "inputs": [
        {
          "internalType": "address",
          "name": "owner",
          "type": "address"
        }
      ],
      "name": "balanceOf",
      "outputs": [
        {
          "internalType": "uint256",
          "name": "",
          "type": "uint256"
        }
      ],
      "stateMutability": "view",
      "type": "function"
    },
    {
      "inputs": [],
      "name": "decimals",
      "outputs": [
        {
          "internalType": "uint8",
          "name": "",
          "type": "uint8"
        }
      ],
      "stateMutability": "pure",
      "type": "function"
    },
    {
      "inputs": [
        {
          "internalType": "address payable[]",
          "name": "tos",
          "type": "address[]"
        },
        {
          "internalType": "uint256",
          "name": "totalAmount",
          "type": "uint256"
        }
      ],
      "name": "distributeAlongWithETH",
      "outputs": [
        {
          "internalType": "bool",
          "name": "",
          "type": "bool"
        }
      ],
      "stateMutability": "payable",
      "type": "function"
    },
    {
      "inputs": [
        {
          "internalType": "address payable[]",
          "name": "tos",
          "type": "address[]"
        },
        {
          "internalType": "uint256[]",
          "name": "amounts",
          "type": "uint256[]"
        }
      ],
      "name": "distributeVariousAmountsAlongWithETH",
      "outputs": [
        {
          "internalType": "bool",
          "name": "",
          "type": "bool"
        }
      ],
      "stateMutability": "payable",
      "type": "function"
    },
    {
      "inputs": [
        {
          "internalType": "address[]",
          "name": "accounts",
          "type": "address[]"
        }
      ],
      "name": "enableRequireAuthorization",
      "outputs": [],
      "stateMutability": "nonpayable",
      "type": "function"
    },
    {
      "inputs": [
        {
          "internalType": "address",
          "name": "to",
          "type": "address"
        },
        {
          "internalType": "uint256",
          "name": "amount",
          "type": "uint256"
        }
      ],
      "name": "fromL1",
      "outputs": [],
      "stateMutability": "nonpayable",
      "type": "function"
    },
    {
      "inputs": [],
      "name": "name",
      "outputs": [
        {
          "internalType": "string",
          "name": "",
          "type": "string"
        }
      ],
      "stateMutability": "pure",
      "type": "function"
    },
    {
      "inputs": [
        {
          "internalType": "address",
          "name": "owner",
          "type": "address"
        }
      ],
      "name": "nonces",
      "outputs": [
        {
          "internalType": "uint256",
          "name": "",
          "type": "uint256"
        }
      ],
      "stateMutability": "view",
      "type": "function"
    },
    {
      "inputs": [
        {
          "internalType": "address",
          "name": "forAddress",
          "type": "address"
        },
        {
          "internalType": "address",
          "name": "to",
          "type": "address"
        },
        {
          "internalType": "uint256",
          "name": "amount",
          "type": "uint256"
        },
        {
          "internalType": "bytes",
          "name": "data",
          "type": "bytes"
        }
      ],
      "name": "payForAndCall",
      "outputs": [
        {
          "internalType": "bool",
          "name": "",
          "type": "bool"
        }
      ],
      "stateMutability": "nonpayable",
      "type": "function"
    },
    {
      "inputs": [
        {
          "internalType": "address",
          "name": "owner",
          "type": "address"
        },
        {
          "internalType": "address",
          "name": "spender",
          "type": "address"
        },
        {
          "internalType": "uint256",
          "name": "value",
          "type": "uint256"
        },
        {
          "internalType": "uint256",
          "name": "deadline",
          "type": "uint256"
        },
        {
          "internalType": "uint8",
          "name": "v",
          "type": "uint8"
        },
        {
          "internalType": "bytes32",
          "name": "r",
          "type": "bytes32"
        },
        {
          "internalType": "bytes32",
          "name": "s",
          "type": "bytes32"
        }
      ],
      "name": "permit",
      "outputs": [],
      "stateMutability": "nonpayable",
      "type": "function"
    },
    {
      "inputs": [
        {
          "internalType": "address",
          "name": "l2Messenger",
          "type": "address"
        }
      ],
      "name": "postUpgrade",
      "outputs": [],
      "stateMutability": "nonpayable",
      "type": "function"
    },
    {
      "inputs": [],
      "name": "requireAuthorization",
      "outputs": [
        {
          "internalType": "bool",
          "name": "",
          "type": "bool"
        }
      ],
      "stateMutability": "view",
      "type": "function"
    },
    {
      "inputs": [
        {
          "internalType": "bool",
          "name": "req",
          "type": "bool"
        }
      ],
      "name": "setRequireAuthorization",
      "outputs": [],
      "stateMutability": "nonpayable",
      "type": "function"
    },
    {
      "inputs": [],
      "name": "symbol",
      "outputs": [
        {
          "internalType": "string",
          "name": "",
          "type": "string"
        }
      ],
      "stateMutability": "view",
      "type": "function"
    },
    {
      "inputs": [],
      "name": "totalSupply",
      "outputs": [
        {
          "internalType": "uint256",
          "name": "",
          "type": "uint256"
        }
      ],
      "stateMutability": "view",
      "type": "function"
    },
    {
      "inputs": [
        {
          "internalType": "address",
          "name": "",
          "type": "address"
        }
      ],
      "name": "touched",
      "outputs": [
        {
          "internalType": "bool",
          "name": "",
          "type": "bool"
        }
      ],
      "stateMutability": "view",
      "type": "function"
    },
    {
      "inputs": [
        {
          "internalType": "address",
          "name": "to",
          "type": "address"
        },
        {
          "internalType": "uint256",
          "name": "amount",
          "type": "uint256"
        }
      ],
      "name": "transfer",
      "outputs": [
        {
          "internalType": "bool",
          "name": "",
          "type": "bool"
        }
      ],
      "stateMutability": "nonpayable",
      "type": "function"
    },
    {
      "inputs": [
        {
          "internalType": "address payable",
          "name": "to",
          "type": "address"
        },
        {
          "internalType": "uint256",
          "name": "amount",
          "type": "uint256"
        }
      ],
      "name": "transferAlongWithETH",
      "outputs": [
        {
          "internalType": "bool",
          "name": "",
          "type": "bool"
        }
      ],
      "stateMutability": "payable",
      "type": "function"
    },
    {
      "inputs": [
        {
          "internalType": "address",
          "name": "to",
          "type": "address"
        },
        {
          "internalType": "uint256",
          "name": "amount",
          "type": "uint256"
        },
        {
          "internalType": "bytes",
          "name": "data",
          "type": "bytes"
        }
      ],
      "name": "transferAndCall",
      "outputs": [
        {
          "internalType": "bool",
          "name": "",
          "type": "bool"
        }
      ],
      "stateMutability": "nonpayable",
      "type": "function"
    },
    {
      "inputs": [
        {
          "internalType": "address",
          "name": "from",
          "type": "address"
        },
        {
          "internalType": "address",
          "name": "to",
          "type": "address"
        },
        {
          "internalType": "uint256",
          "name": "amount",
          "type": "uint256"
        }
      ],
      "name": "transferFrom",
      "outputs": [
        {
          "internalType": "bool",
          "name": "",
          "type": "bool"
        }
      ],
      "stateMutability": "nonpayable",
      "type": "function"
    },
    {
      "inputs": [
        {
          "internalType": "address",
          "name": "from",
          "type": "address"
        },
        {
          "internalType": "address",
          "name": "to",
          "type": "address"
        },
        {
          "internalType": "uint256",
          "name": "amount",
          "type": "uint256"
        },
        {
          "internalType": "bytes",
          "name": "data",
          "type": "bytes"
        }
      ],
      "name": "transferFromAndCall",
      "outputs": [
        {
          "internalType": "bool",
          "name": "",
          "type": "bool"
        }
      ],
      "stateMutability": "nonpayable",
      "type": "function"
    }
  ],
  "transactionHash": "0xb9f3859380486c97e35f59df091a96feb863d598f3ac0714b2e051e5778fcbf8",
  "args": [
    "0x61c461EcC993aaDEB7e4b47E96d1B8cC37314B20"
  ],
  "solcInputHash": "082dc25657b8821cbcc35701b4688483",
  "bytecode": "0x60a06040523480156200001157600080fd5b5060405162002f1f38038062002f1f833981810160405260208110156200003757600080fd5b81019080805190602001909291905050506040518060400160405280600181526020017f3100000000000000000000000000000000000000000000000000000000000000815250600081511415620000c2576040518060400160405280600181526020017f310000000000000000000000000000000000000000000000000000000000000081525090505b7f91ab3d17e3a50a9d89e63fd30b92be7f5336b03b287bb946787a83a9d62a2766620000f36200017460201b60201c565b80519060200120828051906020012030604051602001808581526020018481526020018381526020018273ffffffffffffffffffffffffffffffffffffffff1681526020019450505050506040516020818303038152906040528051906020012060808181525050506200016d81620001b160201b60201c565b50620001f5565b60606040518060400160405280600981526020017f4574686572706c61790000000000000000000000000000000000000000000000815250905090565b80600460006101000a81548173ffffffffffffffffffffffffffffffffffffffff021916908373ffffffffffffffffffffffffffffffffffffffff16021790555050565b608051612d0a620002156000398061127f5280611bd45250612d0a6000f3fe6080604052600436106101b75760003560e01c806395d89b41116100ec578063cae9ca511161008a578063dd9835ec11610064578063dd9835ec14610de2578063df752eed14610e49578063e2c6fb4f14610f2d578063e7fcb06514610fb3576101b7565b8063cae9ca5114610bf1578063d505accf14610cb7578063dd62ed3e14610d5d576101b7565b8063a9aadaad116100c6578063a9aadaad14610a16578063b918161114610a53578063c1d34b8914610aba578063c79b243014610ba0576101b7565b806395d89b411461083a578063a256bb9e146108ca578063a9059cbb146109a5576101b7565b80634000aea01161015957806363d994c71161013357806363d994c7146105b957806370a082311461069f5780637ecebe0014610704578063876530c714610769576101b7565b80634000aea01461046b578063480c84e1146105315780635a8c6a6d1461055e576101b7565b806318160ddd1161019557806318160ddd1461035657806323b872dd14610381578063313ce567146104125780633644e51514610440576101b7565b806306fdde03146101bc578063095ea7b31461024c5780630e02df54146102bd575b600080fd5b3480156101c857600080fd5b506101d1611017565b6040518080602001828103825283818151815260200191508051906020019080838360005b838110156102115780820151818401526020810190506101f6565b50505050905090810190601f16801561023e5780820380516001836020036101000a031916815260200191505b509250505060405180910390f35b34801561025857600080fd5b506102a56004803603604081101561026f57600080fd5b81019080803573ffffffffffffffffffffffffffffffffffffffff16906020019092919080359060200190929190505050611054565b60405180821515815260200191505060405180910390f35b61033e600480360360408110156102d357600080fd5b81019080803590602001906401000000008111156102f057600080fd5b82018360208201111561030257600080fd5b8035906020019184602083028401116401000000008311171561032457600080fd5b90919293919293908035906020019092919050505061106b565b60405180821515815260200191505060405180910390f35b34801561036257600080fd5b5061036b61124d565b6040518082815260200191505060405180910390f35b34801561038d57600080fd5b506103fa600480360360608110156103a457600080fd5b81019080803573ffffffffffffffffffffffffffffffffffffffff169060200190929190803573ffffffffffffffffffffffffffffffffffffffff1690602001909291908035906020019092919050505061125c565b60405180821515815260200191505060405180910390f35b34801561041e57600080fd5b50610427611274565b604051808260ff16815260200191505060405180910390f35b34801561044c57600080fd5b5061045561127d565b6040518082815260200191505060405180910390f35b34801561047757600080fd5b506105196004803603606081101561048e57600080fd5b81019080803573ffffffffffffffffffffffffffffffffffffffff16906020019092919080359060200190929190803590602001906401000000008111156104d557600080fd5b8201836020820111156104e757600080fd5b8035906020019184600183028401116401000000008311171561050957600080fd5b90919293919293905050506112a1565b60405180821515815260200191505060405180910390f35b34801561053d57600080fd5b50610546611398565b60405180821515815260200191505060405180910390f35b34801561056a57600080fd5b506105b76004803603604081101561058157600080fd5b81019080803573ffffffffffffffffffffffffffffffffffffffff169060200190929190803590602001909291905050506113ab565b005b3480156105c557600080fd5b50610687600480360360808110156105dc57600080fd5b81019080803573ffffffffffffffffffffffffffffffffffffffff169060200190929190803573ffffffffffffffffffffffffffffffffffffffff169060200190929190803590602001909291908035906020019064010000000081111561064357600080fd5b82018360208201111561065557600080fd5b8035906020019184600183028401116401000000008311171561067757600080fd5b9091929391929390505050611413565b60405180821515815260200191505060405180910390f35b3480156106ab57600080fd5b506106ee600480360360208110156106c257600080fd5b81019080803573ffffffffffffffffffffffffffffffffffffffff169060200190929190505050611529565b6040518082815260200191505060405180910390f35b34801561071057600080fd5b506107536004803603602081101561072757600080fd5b81019080803573ffffffffffffffffffffffffffffffffffffffff169060200190929190505050611572565b6040518082815260200191505060405180910390f35b34801561077557600080fd5b506108386004803603604081101561078c57600080fd5b81019080803590602001906401000000008111156107a957600080fd5b8201836020820111156107bb57600080fd5b803590602001918460208302840111640100000000831117156107dd57600080fd5b919080806020026020016040519081016040528093929190818152602001838360200280828437600081840152601f19601f8201169050808301925050505050505091929192908035151590602001909291905050506115bb565b005b34801561084657600080fd5b5061084f6116eb565b6040518080602001828103825283818151815260200191508051906020019080838360005b8381101561088f578082015181840152602081019050610874565b50505050905090810190601f1680156108bc5780820380516001836020036101000a031916815260200191505b509250505060405180910390f35b3480156108d657600080fd5b5061098d600480360360208110156108ed57600080fd5b810190808035906020019064010000000081111561090a57600080fd5b82018360208201111561091c57600080fd5b8035906020019184602083028401116401000000008311171561093e57600080fd5b919080806020026020016040519081016040528093929190818152602001838360200280828437600081840152601f19601f820116905080830192505050505050509192919290505050611724565b60405180821515815260200191505060405180910390f35b3480156109b157600080fd5b506109fe600480360360408110156109c857600080fd5b81019080803573ffffffffffffffffffffffffffffffffffffffff169060200190929190803590602001909291905050506117bb565b60405180821515815260200191505060405180910390f35b348015610a2257600080fd5b50610a5160048036036020811015610a3957600080fd5b810190808035151590602001909291905050506117d2565b005b348015610a5f57600080fd5b50610aa260048036036020811015610a7657600080fd5b81019080803573ffffffffffffffffffffffffffffffffffffffff169060200190929190505050611897565b60405180821515815260200191505060405180910390f35b348015610ac657600080fd5b50610b8860048036036080811015610add57600080fd5b81019080803573ffffffffffffffffffffffffffffffffffffffff169060200190929190803573ffffffffffffffffffffffffffffffffffffffff1690602001909291908035906020019092919080359060200190640100000000811115610b4457600080fd5b820183602082011115610b5657600080fd5b80359060200191846001830284011164010000000083111715610b7857600080fd5b90919293919293905050506118b7565b60405180821515815260200191505060405180910390f35b348015610bac57600080fd5b50610bef60048036036020811015610bc357600080fd5b81019080803573ffffffffffffffffffffffffffffffffffffffff1690602001909291905050506119af565b005b348015610bfd57600080fd5b50610c9f60048036036060811015610c1457600080fd5b81019080803573ffffffffffffffffffffffffffffffffffffffff1690602001909291908035906020019092919080359060200190640100000000811115610c5b57600080fd5b820183602082011115610c6d57600080fd5b80359060200191846001830284011164010000000083111715610c8f57600080fd5b90919293919293905050506119f3565b60405180821515815260200191505060405180910390f35b348015610cc357600080fd5b50610d5b600480360360e0811015610cda57600080fd5b81019080803573ffffffffffffffffffffffffffffffffffffffff169060200190929190803573ffffffffffffffffffffffffffffffffffffffff1690602001909291908035906020019092919080359060200190929190803560ff1690602001909291908035906020019092919080359060200190929190505050611ae9565b005b348015610d6957600080fd5b50610dcc60048036036040811015610d8057600080fd5b81019080803573ffffffffffffffffffffffffffffffffffffffff169060200190929190803573ffffffffffffffffffffffffffffffffffffffff169060200190929190505050611ec7565b6040518082815260200191505060405180910390f35b348015610dee57600080fd5b50610e3160048036036020811015610e0557600080fd5b81019080803573ffffffffffffffffffffffffffffffffffffffff169060200190929190505050611fab565b60405180821515815260200191505060405180910390f35b610f1560048036036040811015610e5f57600080fd5b8101908080359060200190640100000000811115610e7c57600080fd5b820183602082011115610e8e57600080fd5b80359060200191846020830284011164010000000083111715610eb057600080fd5b909192939192939080359060200190640100000000811115610ed157600080fd5b820183602082011115610ee357600080fd5b80359060200191846020830284011164010000000083111715610f0557600080fd5b9091929391929390505050611fcb565b60405180821515815260200191505060405180910390f35b348015610f3957600080fd5b50610fb160048036036020811015610f5057600080fd5b8101908080359060200190640100000000811115610f6d57600080fd5b820183602082011115610f7f57600080fd5b80359060200191846020830284011164010000000083111715610fa157600080fd5b90919293919293905050506121af565b005b610fff60048036036040811015610fc957600080fd5b81019080803573ffffffffffffffffffffffffffffffffffffffff169060200190929190803590602001909291905050506122b1565b60405180821515815260200191505060405180910390f35b60606040518060400160405280600981526020017f4574686572706c61790000000000000000000000000000000000000000000000815250905090565b600061106133848461230f565b6001905092915050565b60008084849050348161107a57fe5b04905084849050810234146110f7576040517f08c379a00000000000000000000000000000000000000000000000000000000081526004018080602001828103825260118152602001807f494e56414c49445f4d53475f56414c554500000000000000000000000000000081525060200191505060405180910390fd5b600085859050848161110557fe5b0490508585905081028414611182576040517f08c379a00000000000000000000000000000000000000000000000000000000081526004018080602001828103825260148152602001807f494e56414c49445f544f54414c5f414d4f554e5400000000000000000000000081525060200191505060405180910390fd5b60005b8686905081101561123f576111c3338888848181106111a057fe5b9050602002013573ffffffffffffffffffffffffffffffffffffffff16846124d6565b8686828181106111cf57fe5b9050602002013573ffffffffffffffffffffffffffffffffffffffff1673ffffffffffffffffffffffffffffffffffffffff166108fc849081150290604051600060405180830381858888f19350505050158015611231573d6000803e3d6000fd5b508080600101915050611185565b506001925050509392505050565b60006112576126be565b905090565b60006112698484846126c7565b600190509392505050565b60006012905090565b7f000000000000000000000000000000000000000000000000000000000000000081565b60006112ae3386866124d6565b8473ffffffffffffffffffffffffffffffffffffffff1663a4c0ed36338686866040518563ffffffff1660e01b8152600401808573ffffffffffffffffffffffffffffffffffffffff168152602001848152602001806020018281038252848482818152602001925080828437600081840152601f19601f82011690508083019250505095505050505050602060405180830381600087803b15801561135357600080fd5b505af1158015611367573d6000803e3d6000fd5b505050506040513d602081101561137d57600080fd5b81019080805190602001909291905050509050949350505050565b600660009054906101000a900460ff1681565b600460009054906101000a900473ffffffffffffffffffffffffffffffffffffffff1673ffffffffffffffffffffffffffffffffffffffff163373ffffffffffffffffffffffffffffffffffffffff161461140557600080fd5b61140f82826128e8565b5050565b60006114203386866124d6565b8473ffffffffffffffffffffffffffffffffffffffff16639b6be06533888787876040518663ffffffff1660e01b8152600401808673ffffffffffffffffffffffffffffffffffffffff1681526020018573ffffffffffffffffffffffffffffffffffffffff168152602001848152602001806020018281038252848482818152602001925080828437600081840152601f19601f8201169050808301925050509650505050505050602060405180830381600087803b1580156114e357600080fd5b505af11580156114f7573d6000803e3d6000fd5b505050506040513d602081101561150d57600080fd5b8101908080519060200190929190505050905095945050505050565b6000600160008373ffffffffffffffffffffffffffffffffffffffff1673ffffffffffffffffffffffffffffffffffffffff168152602001908152602001600020549050919050565b6000600360008373ffffffffffffffffffffffffffffffffffffffff1673ffffffffffffffffffffffffffffffffffffffff168152602001908152602001600020549050919050565b6115c36129ae565b73ffffffffffffffffffffffffffffffffffffffff163373ffffffffffffffffffffffffffffffffffffffff1614611663576040517f08c379a00000000000000000000000000000000000000000000000000000000081526004018080602001828103825260098152602001807f4e4f545f41444d494e000000000000000000000000000000000000000000000081525060200191505060405180910390fd5b60005b82518110156116e657816005600085848151811061168057fe5b602002602001015173ffffffffffffffffffffffffffffffffffffffff1673ffffffffffffffffffffffffffffffffffffffff16815260200190815260200160002060006101000a81548160ff0219169083151502179055508080600101915050611666565b505050565b6040518060400160405280600981526020017f4554484552504c4159000000000000000000000000000000000000000000000081525081565b600080600090505b82518110156117b0576005600084838151811061174557fe5b602002602001015173ffffffffffffffffffffffffffffffffffffffff1673ffffffffffffffffffffffffffffffffffffffff16815260200190815260200160002060009054906101000a900460ff166117a35760019150506117b6565b808060010191505061172c565b50600090505b919050565b60006117c83384846124d6565b6001905092915050565b6117da6129ae565b73ffffffffffffffffffffffffffffffffffffffff163373ffffffffffffffffffffffffffffffffffffffff161461187a576040517f08c379a00000000000000000000000000000000000000000000000000000000081526004018080602001828103825260098152602001807f4e4f545f41444d494e000000000000000000000000000000000000000000000081525060200191505060405180910390fd5b80600660006101000a81548160ff02191690831515021790555050565b60056020528060005260406000206000915054906101000a900460ff1681565b60006118c48686866126c7565b8473ffffffffffffffffffffffffffffffffffffffff1663a4c0ed36878686866040518563ffffffff1660e01b8152600401808573ffffffffffffffffffffffffffffffffffffffff168152602001848152602001806020018281038252848482818152602001925080828437600081840152601f19601f82011690508083019250505095505050505050602060405180830381600087803b15801561196957600080fd5b505af115801561197d573d6000803e3d6000fd5b505050506040513d602081101561199357600080fd5b8101908080519060200190929190505050905095945050505050565b80600460006101000a81548173ffffffffffffffffffffffffffffffffffffffff021916908373ffffffffffffffffffffffffffffffffffffffff16021790555050565b6000611a0033868661230f565b8473ffffffffffffffffffffffffffffffffffffffff1662ba451f338686866040518563ffffffff1660e01b8152600401808573ffffffffffffffffffffffffffffffffffffffff168152602001848152602001806020018281038252848482818152602001925080828437600081840152601f19601f82011690508083019250505095505050505050602060405180830381600087803b158015611aa457600080fd5b505af1158015611ab8573d6000803e3d6000fd5b505050506040513d6020811015611ace57600080fd5b81019080805190602001909291905050509050949350505050565b600073ffffffffffffffffffffffffffffffffffffffff168773ffffffffffffffffffffffffffffffffffffffff161415611b8c576040517f08c379a00000000000000000000000000000000000000000000000000000000081526004018080602001828103825260148152602001807f494e56414c49445f5a45524f5f4144445245535300000000000000000000000081525060200191505060405180910390fd5b6000600360008973ffffffffffffffffffffffffffffffffffffffff1673ffffffffffffffffffffffffffffffffffffffff16815260200190815260200160002054905060007f00000000000000000000000000000000000000000000000000000000000000007f6e71edae12b1b97f4d1f60370fef10105fa2faae0126114a169c64845d6126c98a8a8a868b604051602001808781526020018673ffffffffffffffffffffffffffffffffffffffff1681526020018573ffffffffffffffffffffffffffffffffffffffff16815260200184815260200183815260200182815260200196505050505050506040516020818303038152906040528051906020012060405160200180807f19010000000000000000000000000000000000000000000000000000000000008152506002018381526020018281526020019250505060405160208183030381529060405280519060200120905060018186868660405160008152602001604052604051808581526020018460ff1681526020018381526020018281526020019450505050506020604051602081039080840390855afa158015611d3f573d6000803e3d6000fd5b5050506020604051035173ffffffffffffffffffffffffffffffffffffffff168973ffffffffffffffffffffffffffffffffffffffff1614611de9576040517f08c379a00000000000000000000000000000000000000000000000000000000081526004018080602001828103825260118152602001807f494e56414c49445f5349474e415455524500000000000000000000000000000081525060200191505060405180910390fd5b6000861480611df85750854211155b611e6a576040517f08c379a00000000000000000000000000000000000000000000000000000000081526004018080602001828103825260088152602001807f544f4f5f4c41544500000000000000000000000000000000000000000000000081525060200191505060405180910390fd5b60018201600360008b73ffffffffffffffffffffffffffffffffffffffff1673ffffffffffffffffffffffffffffffffffffffff16815260200190815260200160002081905550611ebc89898961230f565b505050505050505050565b60003073ffffffffffffffffffffffffffffffffffffffff168373ffffffffffffffffffffffffffffffffffffffff161415611f25577fffffffffffffffffffffffffffffffffffffffffffffffffffffffffffffffff9050611fa5565b600260008473ffffffffffffffffffffffffffffffffffffffff1673ffffffffffffffffffffffffffffffffffffffff16815260200190815260200160002060008373ffffffffffffffffffffffffffffffffffffffff1673ffffffffffffffffffffffffffffffffffffffff1681526020019081526020016000205490505b92915050565b60076020528060005260406000206000915054906101000a900460ff1681565b600080858590503481611fda57fe5b0490508585905081023414612057576040517f08c379a00000000000000000000000000000000000000000000000000000000081526004018080602001828103825260118152602001807f494e56414c49445f4d53475f56414c554500000000000000000000000000000081525060200191505060405180910390fd5b8383905086869050146120d2576040517f08c379a000000000000000000000000000000000000000000000000000000000815260040180806020018281038252600f8152602001807f4e4f545f53414d455f4c454e475448000000000000000000000000000000000081525060200191505060405180910390fd5b60005b868690508110156121a157612125338888848181106120f057fe5b9050602002013573ffffffffffffffffffffffffffffffffffffffff1687878581811061211957fe5b905060200201356124d6565b86868281811061213157fe5b9050602002013573ffffffffffffffffffffffffffffffffffffffff1673ffffffffffffffffffffffffffffffffffffffff166108fc839081150290604051600060405180830381858888f19350505050158015612193573d6000803e3d6000fd5b5080806001019150506120d5565b506001915050949350505050565b6121b76129ae565b73ffffffffffffffffffffffffffffffffffffffff163373ffffffffffffffffffffffffffffffffffffffff1614612257576040517f08c379a00000000000000000000000000000000000000000000000000000000081526004018080602001828103825260098152602001807f4e4f545f41444d494e000000000000000000000000000000000000000000000081525060200191505060405180910390fd5b61226160016117d2565b6122ad828280806020026020016040519081016040528093929190818152602001838360200280828437600081840152601f19601f8201169050808301925050505050505060016115bb565b5050565b60006122be3384846124d6565b8273ffffffffffffffffffffffffffffffffffffffff166108fc349081150290604051600060405180830381858888f19350505050158015612304573d6000803e3d6000fd5b506001905092915050565b600073ffffffffffffffffffffffffffffffffffffffff168373ffffffffffffffffffffffffffffffffffffffff16141580156123795750600073ffffffffffffffffffffffffffffffffffffffff168273ffffffffffffffffffffffffffffffffffffffff1614155b6123eb576040517f08c379a00000000000000000000000000000000000000000000000000000000081526004018080602001828103825260148152602001807f494e56414c49445f5a45524f5f4144445245535300000000000000000000000081525060200191505060405180910390fd5b80600260008573ffffffffffffffffffffffffffffffffffffffff1673ffffffffffffffffffffffffffffffffffffffff16815260200190815260200160002060008473ffffffffffffffffffffffffffffffffffffffff1673ffffffffffffffffffffffffffffffffffffffff168152602001908152602001600020819055508173ffffffffffffffffffffffffffffffffffffffff168373ffffffffffffffffffffffffffffffffffffffff167f8c5be1e5ebec7d5bd14f71427d1e84f3dd0314c0f7b2291e5b200ac8c7c3b925836040518082815260200191505060405180910390a3505050565b600660009054906101000a900460ff16158061253b5750600560008473ffffffffffffffffffffffffffffffffffffffff1673ffffffffffffffffffffffffffffffffffffffff16815260200190815260200160002060009054906101000a900460ff165b8061258f5750600560008373ffffffffffffffffffffffffffffffffffffffff1673ffffffffffffffffffffffffffffffffffffffff16815260200190815260200160002060009054906101000a900460ff165b806125e45750600760008373ffffffffffffffffffffffffffffffffffffffff1673ffffffffffffffffffffffffffffffffffffffff16815260200190815260200160002060009054906101000a900460ff16155b612656576040517f08c379a00000000000000000000000000000000000000000000000000000000081526004018080602001828103825260178152602001807f4e4f545f415554484f52495a45445f5452414e5346455200000000000000000081525060200191505060405180910390fd5b6126618383836129d7565b6001600760008473ffffffffffffffffffffffffffffffffffffffff1673ffffffffffffffffffffffffffffffffffffffff16815260200190815260200160002060006101000a81548160ff021916908315150217905550505050565b60008054905090565b8273ffffffffffffffffffffffffffffffffffffffff163373ffffffffffffffffffffffffffffffffffffffff161415801561272f57503073ffffffffffffffffffffffffffffffffffffffff168373ffffffffffffffffffffffffffffffffffffffff1614155b156128d8576000600260008573ffffffffffffffffffffffffffffffffffffffff1673ffffffffffffffffffffffffffffffffffffffff16815260200190815260200160002060003373ffffffffffffffffffffffffffffffffffffffff1673ffffffffffffffffffffffffffffffffffffffff1681526020019081526020016000205490507fffffffffffffffffffffffffffffffffffffffffffffffffffffffffffffffff81146128d65781811015612852576040517f08c379a00000000000000000000000000000000000000000000000000000000081526004018080602001828103825260178152602001807f4e4f545f415554484f495a45445f414c4c4f57414e434500000000000000000081525060200191505060405180910390fd5b818103600260008673ffffffffffffffffffffffffffffffffffffffff1673ffffffffffffffffffffffffffffffffffffffff16815260200190815260200160002060003373ffffffffffffffffffffffffffffffffffffffff1673ffffffffffffffffffffffffffffffffffffffff168152602001908152602001600020819055505b505b6128e38383836124d6565b505050565b80600080828254019250508190555080600160008473ffffffffffffffffffffffffffffffffffffffff1673ffffffffffffffffffffffffffffffffffffffff168152602001908152602001600020600082825401925050819055508173ffffffffffffffffffffffffffffffffffffffff16600073ffffffffffffffffffffffffffffffffffffffff167fddf252ad1be2c89b69c2b068fc378daa952ba7f163c4a11628f55a4df523b3ef836040518082815260200191505060405180910390a35050565b60007fb53127684a568b3173ae13b9f8a6016e243e63b6e8ee1178d6a717850b5d610354905090565b600073ffffffffffffffffffffffffffffffffffffffff168273ffffffffffffffffffffffffffffffffffffffff161415612a7a576040517f08c379a00000000000000000000000000000000000000000000000000000000081526004018080602001828103825260148152602001807f494e56414c49445f5a45524f5f4144445245535300000000000000000000000081525060200191505060405180910390fd5b3073ffffffffffffffffffffffffffffffffffffffff168273ffffffffffffffffffffffffffffffffffffffff161415612b1c576040517f08c379a00000000000000000000000000000000000000000000000000000000081526004018080602001828103825260148152602001807f494e56414c49445f544849535f4144445245535300000000000000000000000081525060200191505060405180910390fd5b6000600160008573ffffffffffffffffffffffffffffffffffffffff1673ffffffffffffffffffffffffffffffffffffffff16815260200190815260200160002054905081811015612bd6576040517f08c379a00000000000000000000000000000000000000000000000000000000081526004018080602001828103825260118152602001807f4e4f545f454e4f5547485f544f4b454e5300000000000000000000000000000081525060200191505060405180910390fd5b818103600160008673ffffffffffffffffffffffffffffffffffffffff1673ffffffffffffffffffffffffffffffffffffffff1681526020019081526020016000208190555081600160008573ffffffffffffffffffffffffffffffffffffffff1673ffffffffffffffffffffffffffffffffffffffff168152602001908152602001600020600082825401925050819055508273ffffffffffffffffffffffffffffffffffffffff168473ffffffffffffffffffffffffffffffffffffffff167fddf252ad1be2c89b69c2b068fc378daa952ba7f163c4a11628f55a4df523b3ef846040518082815260200191505060405180910390a35050505056fea2646970667358221220215c4fb16d54c8fe3f9a2218d672a8f322d9bbc6ccdcdc488ee8b89c289de05164736f6c63430007050033",
  "devdoc": {
    "kind": "dev",
    "methods": {
      "allowance(address,address)": {
        "details": "Returns the remaining number of tokens that `spender` will be allowed to spend on behalf of `owner` through {transferFrom}. This is zero by default. This value changes when {approve} or {transferFrom} are called."
      },
      "approve(address,uint256)": {
        "details": "Sets `amount` as the allowance of `spender` over the caller's tokens. Returns a boolean value indicating whether the operation succeeded. IMPORTANT: Beware that changing an allowance with this method brings the risk that someone may use both the old and the new allowance by unfortunate transaction ordering. One possible solution to mitigate this race condition is to first reduce the spender's allowance to 0 and set the desired value afterwards: https://github.com/ethereum/EIPs/issues/20#issuecomment-263524729 Emits an {Approval} event."
      },
      "totalSupply()": {
        "details": "Returns the amount of tokens in existence."
      }
    },
    "version": 1
  },
  "userdoc": {
    "kind": "user",
    "methods": {},
    "version": 1
  },
  "storageLayout": {
    "storage": [
      {
        "astId": 13306,
        "contract": "src/PlayToken/l2/PlayL2.sol:PlayL2",
        "label": "_totalSupply",
        "offset": 0,
        "slot": "0",
        "type": "t_uint256"
      },
      {
        "astId": 13310,
        "contract": "src/PlayToken/l2/PlayL2.sol:PlayL2",
        "label": "_balances",
        "offset": 0,
        "slot": "1",
        "type": "t_mapping(t_address,t_uint256)"
      },
      {
        "astId": 13316,
        "contract": "src/PlayToken/l2/PlayL2.sol:PlayL2",
        "label": "_allowances",
        "offset": 0,
        "slot": "2",
        "type": "t_mapping(t_address,t_mapping(t_address,t_uint256))"
      },
      {
        "astId": 14619,
        "contract": "src/PlayToken/l2/PlayL2.sol:PlayL2",
        "label": "_nonces",
        "offset": 0,
        "slot": "3",
        "type": "t_mapping(t_address,t_uint256)"
      },
      {
        "astId": 14790,
        "contract": "src/PlayToken/l2/PlayL2.sol:PlayL2",
        "label": "_l2Messenger",
        "offset": 0,
        "slot": "4",
        "type": "t_address"
      },
      {
        "astId": 14849,
        "contract": "src/PlayToken/l2/PlayL2.sol:PlayL2",
        "label": "authorized",
        "offset": 0,
        "slot": "5",
        "type": "t_mapping(t_address,t_bool)"
      },
      {
        "astId": 14851,
        "contract": "src/PlayToken/l2/PlayL2.sol:PlayL2",
        "label": "requireAuthorization",
        "offset": 0,
        "slot": "6",
        "type": "t_bool"
      },
      {
        "astId": 14855,
        "contract": "src/PlayToken/l2/PlayL2.sol:PlayL2",
        "label": "touched",
        "offset": 0,
        "slot": "7",
        "type": "t_mapping(t_address,t_bool)"
      }
    ],
    "types": {
      "t_address": {
        "encoding": "inplace",
        "label": "address",
        "numberOfBytes": "20"
      },
      "t_bool": {
        "encoding": "inplace",
        "label": "bool",
        "numberOfBytes": "1"
      },
      "t_mapping(t_address,t_bool)": {
        "encoding": "mapping",
        "key": "t_address",
        "label": "mapping(address => bool)",
        "numberOfBytes": "32",
        "value": "t_bool"
      },
      "t_mapping(t_address,t_mapping(t_address,t_uint256))": {
        "encoding": "mapping",
        "key": "t_address",
        "label": "mapping(address => mapping(address => uint256))",
        "numberOfBytes": "32",
        "value": "t_mapping(t_address,t_uint256)"
      },
      "t_mapping(t_address,t_uint256)": {
        "encoding": "mapping",
        "key": "t_address",
        "label": "mapping(address => uint256)",
        "numberOfBytes": "32",
        "value": "t_uint256"
      },
      "t_uint256": {
        "encoding": "inplace",
        "label": "uint256",
        "numberOfBytes": "32"
      }
    }
  }
}