{
  "address": "0x842D1b525Ee81Cd51fc8375E67eCA8E3870c5366",
  "abi": [
    {
      "inputs": [
        {
          "internalType": "contract AllianceRegistry",
          "name": "allianceRegistry",
          "type": "address"
        },
        {
          "internalType": "string",
          "name": "baseURI",
          "type": "string"
        }
      ],
      "stateMutability": "nonpayable",
      "type": "constructor"
    },
    {
      "inputs": [
        {
          "components": [
            {
              "internalType": "address",
              "name": "addr",
              "type": "address"
            },
            {
              "internalType": "uint32",
              "name": "nonce",
              "type": "uint32"
            },
            {
              "internalType": "bytes",
              "name": "signature",
              "type": "bytes"
            }
          ],
          "internalType": "struct AllianceRegistry.PlayerSubmission[]",
          "name": "playerSubmissions",
          "type": "tuple[]"
        }
      ],
      "name": "addMembers",
      "outputs": [],
      "stateMutability": "nonpayable",
      "type": "function"
    },
    {
      "inputs": [],
      "name": "admin",
      "outputs": [
        {
          "internalType": "address",
          "name": "",
          "type": "address"
        }
      ],
      "stateMutability": "view",
      "type": "function"
    },
    {
      "inputs": [
        {
          "internalType": "address",
          "name": "player",
          "type": "address"
        },
        {
          "internalType": "uint32",
          "name": "nonce",
          "type": "uint32"
        },
        {
          "internalType": "bytes",
          "name": "signature",
          "type": "bytes"
        },
        {
          "internalType": "uint32",
          "name": "inviteNonce",
          "type": "uint32"
        },
        {
          "internalType": "bytes",
          "name": "inviteSignature",
          "type": "bytes"
        }
      ],
      "name": "claimInvite",
      "outputs": [],
      "stateMutability": "nonpayable",
      "type": "function"
    },
    {
      "inputs": [],
      "name": "frontendURI",
      "outputs": [
        {
          "internalType": "string",
          "name": "",
          "type": "string"
        }
      ],
      "stateMutability": "view",
      "type": "function"
    },
    {
      "inputs": [
        {
          "internalType": "bytes32",
          "name": "salt",
          "type": "bytes32"
        }
      ],
      "name": "getAddress",
      "outputs": [
        {
          "internalType": "address",
          "name": "",
          "type": "address"
        }
      ],
      "stateMutability": "view",
      "type": "function"
    },
    {
      "inputs": [
        {
          "internalType": "string",
          "name": "baseURI",
          "type": "string"
        }
      ],
      "name": "init",
      "outputs": [],
      "stateMutability": "nonpayable",
      "type": "function"
    },
    {
      "inputs": [
        {
          "internalType": "address",
          "name": "initialAdmin",
          "type": "address"
        },
        {
          "components": [
            {
              "internalType": "address",
              "name": "addr",
              "type": "address"
            },
            {
              "internalType": "uint32",
              "name": "nonce",
              "type": "uint32"
            },
            {
              "internalType": "bytes",
              "name": "signature",
              "type": "bytes"
            }
          ],
          "internalType": "struct AllianceRegistry.PlayerSubmission[]",
          "name": "playerSubmissions",
          "type": "tuple[]"
        },
        {
          "internalType": "bytes32",
          "name": "salt",
          "type": "bytes32"
        }
      ],
      "name": "instantiate",
      "outputs": [],
      "stateMutability": "nonpayable",
      "type": "function"
    },
    {
      "inputs": [
        {
          "internalType": "address",
          "name": "",
          "type": "address"
        }
      ],
      "name": "memberNonces",
      "outputs": [
        {
          "internalType": "uint32",
          "name": "",
          "type": "uint32"
        }
      ],
      "stateMutability": "view",
      "type": "function"
    },
    {
      "inputs": [
        {
          "internalType": "address",
          "name": "player",
          "type": "address"
        }
      ],
      "name": "removeMember",
      "outputs": [],
      "stateMutability": "nonpayable",
      "type": "function"
    },
    {
      "inputs": [
        {
          "internalType": "address",
          "name": "newAdmin",
          "type": "address"
        },
        {
          "components": [
            {
              "internalType": "address",
              "name": "addr",
              "type": "address"
            },
            {
              "internalType": "uint32",
              "name": "nonce",
              "type": "uint32"
            },
            {
              "internalType": "bytes",
              "name": "signature",
              "type": "bytes"
            }
          ],
          "internalType": "struct AllianceRegistry.PlayerSubmission[]",
          "name": "playerSubmissions",
          "type": "tuple[]"
        }
      ],
      "name": "setAdminAndAddMembers",
      "outputs": [],
      "stateMutability": "nonpayable",
      "type": "function"
    }
  ],
  "transactionHash": "0x5e6e4ab37c0069c85b735daf1f440f33c0990a33b46f652344eb1d89220065f7",
  "args": [
    "0xE345AfBc1b76AE8BA45dAE732F7CD9bdf197ccEe",
    "https://basic-alliances-defcon.conquest.etherplay.io/alliances/#"
  ],
  "numDeployments": 1,
  "solcInputHash": "ea1c9f53cb603a0b162429e99eba0cfa",
  "bytecode": "0x60a06040523480156200001157600080fd5b50604051620024ec380380620024ec8339810160408190526200003491620001a0565b6001600160a01b038216608052600080546001600160a81b031916610101179055620000608162000068565b5050620002dd565b600180546200007790620002a0565b159050620000cb5760405162461bcd60e51b815260206004820152601360248201527f414c52454144595f494e495449414c4953454400000000000000000000000000604482015260640160405180910390fd5b8051620000e0906001906020840190620000e4565b5050565b828054620000f290620002a0565b90600052602060002090601f01602090048101928262000116576000855562000161565b82601f106200013157805160ff191683800117855562000161565b8280016001018555821562000161579182015b828111156200016157825182559160200191906001019062000144565b506200016f92915062000173565b5090565b5b808211156200016f576000815560010162000174565b634e487b7160e01b600052604160045260246000fd5b60008060408385031215620001b457600080fd5b82516001600160a01b0381168114620001cc57600080fd5b602084810151919350906001600160401b0380821115620001ec57600080fd5b818601915086601f8301126200020157600080fd5b8151818111156200021657620002166200018a565b604051601f8201601f19908116603f011681019083821181831017156200024157620002416200018a565b8160405282815289868487010111156200025a57600080fd5b600093505b828410156200027e57848401860151818501870152928501926200025f565b82841115620002905760008684830101525b8096505050505050509250929050565b600181811c90821680620002b557607f821691505b60208210811415620002d757634e487b7160e01b600052602260045260246000fd5b50919050565b6080516121de6200030e600039600081816102b9015281816103db015281816109e80152610e3501526121de6000f3fe608060405234801561001057600080fd5b50600436106100be5760003560e01c80634fcead5711610076578063f851a4401161005b578063f851a4401461019e578063f9fbdb9e146101c3578063fc4c03b4146101d657600080fd5b80634fcead57146101765780636ca1d0ed1461018b57600080fd5b806321f8a721116100a757806321f8a721146100eb5780633bfc54461461012857806340e2dfcf1461013b57600080fd5b80630b1ca49a146100c35780630b7465e4146100d8575b600080fd5b6100d66100d1366004611898565b6101e9565b005b6100d66100e63660046118f8565b610318565b6100fe6100f936600461193a565b610448565b60405173ffffffffffffffffffffffffffffffffffffffff90911681526020015b60405180910390f35b6100d66101363660046119a9565b61058b565b610161610149366004611898565b60026020526000908152604090205463ffffffff1681565b60405163ffffffff909116815260200161011f565b61017e610a62565b60405161011f9190611a7a565b6100d6610199366004611acb565b610a96565b6000546100fe90610100900473ffffffffffffffffffffffffffffffffffffffff1681565b6100d66101d1366004611b54565b610c7b565b6100d66101e4366004611c23565b610d08565b600054610100900473ffffffffffffffffffffffffffffffffffffffff163314610274576040517f08c379a000000000000000000000000000000000000000000000000000000000815260206004820152600b60248201527f4e4f545f414c4c4f57454400000000000000000000000000000000000000000060448201526064015b60405180910390fd5b6040517f17e796ea00000000000000000000000000000000000000000000000000000000815273ffffffffffffffffffffffffffffffffffffffff82811660048301527f000000000000000000000000000000000000000000000000000000000000000016906317e796ea90602401600060405180830381600087803b1580156102fd57600080fd5b505af1158015610311573d6000803e3d6000fd5b5050505050565b600054610100900473ffffffffffffffffffffffffffffffffffffffff16331461039e576040517f08c379a000000000000000000000000000000000000000000000000000000000815260206004820152600b60248201527f4e4f545f414c4c4f574544000000000000000000000000000000000000000000604482015260640161026b565b6040517f8efb75c300000000000000000000000000000000000000000000000000000000815273ffffffffffffffffffffffffffffffffffffffff7f00000000000000000000000000000000000000000000000000000000000000001690638efb75c3906104129085908590600401611de8565b600060405180830381600087803b15801561042c57600080fd5b505af1158015610440573d6000803e3d6000fd5b505050505050565b6000805460ff166104b5576040517f08c379a000000000000000000000000000000000000000000000000000000000815260206004820152601e60248201527f43414e4e4f545f494e5354414e54494154455f46524f4d5f434c4f4e45530000604482015260640161026b565b6105853083336040516020016104fa92919091825260601b7fffffffffffffffffffffffffffffffffffffffff00000000000000000000000016602082015260340190565b60405160208183030381529060405280519060200120306040517f3d602d80600a3d3981f3363d3d373d3d3d363d730000000000000000000000008152606093841b60148201527f5af43d82803e903d91602b57fd5bf3ff000000000000000000000000000000006028820152921b6038830152604c8201526037808220606c830152605591012090565b92915050565b73ffffffffffffffffffffffffffffffffffffffff871660009081526002602052604090205463ffffffff9081169084168114610624576040517f08c379a000000000000000000000000000000000000000000000000000000000815260206004820152600d60248201527f494e56414c49445f4e4f4e434500000000000000000000000000000000000000604482015260640161026b565b61062f846001611e33565b73ffffffffffffffffffffffffffffffffffffffff8916600090815260026020526040902080547fffffffffffffffffffffffffffffffffffffffffffffffffffffffff000000001663ffffffff9283161790556060908516610794576040517f19457468657265756d205369676e6564204d6573736167653a0a31313100000060208201527f496e7669746520506c6179657220307830303030303030303030303030303030603d8201527f30303030303030303030303030303030303030303030303020546f20416c6c69605d8201527f616e636520307830303030303030303030303030303030303030303030303030607d8201527f3030303030303030303030303030300000000000000000000000000000000000609d82015260ac0160405160208183030381529060405290506107838160548b73ffffffffffffffffffffffffffffffffffffffff16610ea5565b61078f81608b30610ea5565b6108cf565b6040517f19457468657265756d205369676e6564204d6573736167653a0a31333100000060208201527f496e7669746520506c6179657220307830303030303030303030303030303030603d8201527f30303030303030303030303030303030303030303030303020546f20416c6c69605d8201527f616e636520307830303030303030303030303030303030303030303030303030607d8201527f30303030303030303030303030303020286e6f6e63653a202020202020202020609d8201527f203029000000000000000000000000000000000000000000000000000000000060bd82015260c00160405160208183030381529060405290506108b18160548b73ffffffffffffffffffffffffffffffffffffffff16610ea5565b6108bd81608b30610ea5565b6108cf81609e8763ffffffff16610f84565b600081805190602001209050600061091f86868080601f016020809104026020016040519081016040528093929190818152602001838380828437600092019190915250869392505061105e9050565b60005490915073ffffffffffffffffffffffffffffffffffffffff80831661010090920416146109ab576040517f08c379a000000000000000000000000000000000000000000000000000000000815260206004820152601860248201527f494e56414c49445f494e564954455f5349474e41545552450000000000000000604482015260640161026b565b6040517f6da0663000000000000000000000000000000000000000000000000000000000815273ffffffffffffffffffffffffffffffffffffffff7f00000000000000000000000000000000000000000000000000000000000000001690636da0663090610a23908e908e908e908e90600401611e5b565b600060405180830381600087803b158015610a3d57600080fd5b505af1158015610a51573d6000803e3d6000fd5b505050505050505050505050505050565b60606001610a71306014611082565b604051602001610a82929190611ef5565b604051602081830303815290604052905090565b60005460ff16610b02576040517f08c379a000000000000000000000000000000000000000000000000000000000815260206004820152601e60248201527f43414e4e4f545f494e5354414e54494154455f46524f4d5f434c4f4e45530000604482015260640161026b565b6000610b64308333604051602001610b4992919091825260601b7fffffffffffffffffffffffffffffffffffffffff00000000000000000000000016602082015260340190565b604051602081830303815290604052805190602001206112cc565b6040517ff9fbdb9e00000000000000000000000000000000000000000000000000000000815290915073ffffffffffffffffffffffffffffffffffffffff82169063f9fbdb9e90610bba90600190600401611f8d565b600060405180830381600087803b158015610bd457600080fd5b505af1158015610be8573d6000803e3d6000fd5b50506040517ffc4c03b400000000000000000000000000000000000000000000000000000000815273ffffffffffffffffffffffffffffffffffffffff8416925063fc4c03b49150610c4290889088908890600401612030565b600060405180830381600087803b158015610c5c57600080fd5b505af1158015610c70573d6000803e3d6000fd5b505050505050505050565b60018054610c8890611ea1565b159050610cf1576040517f08c379a000000000000000000000000000000000000000000000000000000000815260206004820152601360248201527f414c52454144595f494e495449414c4953454400000000000000000000000000604482015260640161026b565b8051610d049060019060208401906117d6565b5050565b600054610100900473ffffffffffffffffffffffffffffffffffffffff16801580610d4857503373ffffffffffffffffffffffffffffffffffffffff8216145b610dae576040517f08c379a000000000000000000000000000000000000000000000000000000000815260206004820152600b60248201527f4e4f545f414c4c4f574544000000000000000000000000000000000000000000604482015260640161026b565b600080547fffffffffffffffffffffff0000000000000000000000000000000000000000ff1661010073ffffffffffffffffffffffffffffffffffffffff8716021790558115610e9f576040517f8efb75c300000000000000000000000000000000000000000000000000000000815273ffffffffffffffffffffffffffffffffffffffff7f00000000000000000000000000000000000000000000000000000000000000001690638efb75c390610e6c9086908690600401611de8565b600060405180830381600087803b158015610e8657600080fd5b505af1158015610e9a573d6000803e3d6000fd5b505050505b50505050565b8015610f7f576040805180820190915260108082527f30313233343536373839616263646566000000000000000000000000000000006020830152610eea9083612098565b81518110610efa57610efa6120ac565b01602001517fff00000000000000000000000000000000000000000000000000000000000000168383610f2c816120db565b945081518110610f3e57610f3e6120ac565b60200101907effffffffffffffffffffffffffffffffffffffffffffffffffffffffffffff1916908160001a905350610f78601082612110565b9050610ea5565b505050565b8015610f7f5760408051808201909152600a8082527f30313233343536373839000000000000000000000000000000000000000000006020830152610fc99083612098565b81518110610fd957610fd96120ac565b01602001517fff0000000000000000000000000000000000000000000000000000000000000016838361100b816120db565b94508151811061101d5761101d6120ac565b60200101907effffffffffffffffffffffffffffffffffffffffffffffffffffffffffffff1916908160001a905350611057600a82612110565b9050610f84565b600080600061106d85856113aa565b9150915061107a8161141a565b509392505050565b60606000611091836002612124565b61109c906002612161565b67ffffffffffffffff8111156110b4576110b4611b25565b6040519080825280601f01601f1916602001820160405280156110de576020820181803683370190505b5090507f300000000000000000000000000000000000000000000000000000000000000081600081518110611115576111156120ac565b60200101907effffffffffffffffffffffffffffffffffffffffffffffffffffffffffffff1916908160001a9053507f780000000000000000000000000000000000000000000000000000000000000081600181518110611178576111786120ac565b60200101907effffffffffffffffffffffffffffffffffffffffffffffffffffffffffffff1916908160001a90535060006111b4846002612124565b6111bf906001612161565b90505b600181111561125c577f303132333435363738396162636465660000000000000000000000000000000085600f1660108110611200576112006120ac565b1a60f81b828281518110611216576112166120ac565b60200101907effffffffffffffffffffffffffffffffffffffffffffffffffffffffffffff1916908160001a90535060049490941c93611255816120db565b90506111c2565b5083156112c5576040517f08c379a000000000000000000000000000000000000000000000000000000000815260206004820181905260248201527f537472696e67733a20686578206c656e67746820696e73756666696369656e74604482015260640161026b565b9392505050565b60006040517f3d602d80600a3d3981f3363d3d373d3d3d363d7300000000000000000000000081528360601b60148201527f5af43d82803e903d91602b57fd5bf300000000000000000000000000000000006028820152826037826000f591505073ffffffffffffffffffffffffffffffffffffffff8116610585576040517f08c379a000000000000000000000000000000000000000000000000000000000815260206004820152601760248201527f455243313136373a2063726561746532206661696c6564000000000000000000604482015260640161026b565b6000808251604114156113e15760208301516040840151606085015160001a6113d587828585611676565b94509450505050611413565b82516040141561140b576020830151604084015161140086838361178e565b935093505050611413565b506000905060025b9250929050565b600081600481111561142e5761142e612179565b14156114375750565b600181600481111561144b5761144b612179565b14156114b3576040517f08c379a000000000000000000000000000000000000000000000000000000000815260206004820152601860248201527f45434453413a20696e76616c6964207369676e61747572650000000000000000604482015260640161026b565b60028160048111156114c7576114c7612179565b141561152f576040517f08c379a000000000000000000000000000000000000000000000000000000000815260206004820152601f60248201527f45434453413a20696e76616c6964207369676e6174757265206c656e67746800604482015260640161026b565b600381600481111561154357611543612179565b14156115d1576040517f08c379a000000000000000000000000000000000000000000000000000000000815260206004820152602260248201527f45434453413a20696e76616c6964207369676e6174757265202773272076616c60448201527f7565000000000000000000000000000000000000000000000000000000000000606482015260840161026b565b60048160048111156115e5576115e5612179565b1415611673576040517f08c379a000000000000000000000000000000000000000000000000000000000815260206004820152602260248201527f45434453413a20696e76616c6964207369676e6174757265202776272076616c60448201527f7565000000000000000000000000000000000000000000000000000000000000606482015260840161026b565b50565b6000807f7fffffffffffffffffffffffffffffff5d576e7357a4501ddfe92f46681b20a08311156116ad5750600090506003611785565b8460ff16601b141580156116c557508460ff16601c14155b156116d65750600090506004611785565b6040805160008082526020820180845289905260ff881692820192909252606081018690526080810185905260019060a0016020604051602081039080840390855afa15801561172a573d6000803e3d6000fd5b50506040517fffffffffffffffffffffffffffffffffffffffffffffffffffffffffffffffe0015191505073ffffffffffffffffffffffffffffffffffffffff811661177e57600060019250925050611785565b9150600090505b94509492505050565b6000807f7fffffffffffffffffffffffffffffffffffffffffffffffffffffffffffffff831660ff84901c601b016117c887828885611676565b935093505050935093915050565b8280546117e290611ea1565b90600052602060002090601f016020900481019282611804576000855561184a565b82601f1061181d57805160ff191683800117855561184a565b8280016001018555821561184a579182015b8281111561184a57825182559160200191906001019061182f565b5061185692915061185a565b5090565b5b80821115611856576000815560010161185b565b803573ffffffffffffffffffffffffffffffffffffffff8116811461189357600080fd5b919050565b6000602082840312156118aa57600080fd5b6112c58261186f565b60008083601f8401126118c557600080fd5b50813567ffffffffffffffff8111156118dd57600080fd5b6020830191508360208260051b850101111561141357600080fd5b6000806020838503121561190b57600080fd5b823567ffffffffffffffff81111561192257600080fd5b61192e858286016118b3565b90969095509350505050565b60006020828403121561194c57600080fd5b5035919050565b803563ffffffff8116811461189357600080fd5b60008083601f84011261197957600080fd5b50813567ffffffffffffffff81111561199157600080fd5b60208301915083602082850101111561141357600080fd5b600080600080600080600060a0888a0312156119c457600080fd5b6119cd8861186f565b96506119db60208901611953565b9550604088013567ffffffffffffffff808211156119f857600080fd5b611a048b838c01611967565b9097509550859150611a1860608b01611953565b945060808a0135915080821115611a2e57600080fd5b50611a3b8a828b01611967565b989b979a50959850939692959293505050565b60005b83811015611a69578181015183820152602001611a51565b83811115610e9f5750506000910152565b6020815260008251806020840152611a99816040850160208701611a4e565b601f017fffffffffffffffffffffffffffffffffffffffffffffffffffffffffffffffe0169190910160400192915050565b60008060008060608587031215611ae157600080fd5b611aea8561186f565b9350602085013567ffffffffffffffff811115611b0657600080fd5b611b12878288016118b3565b9598909750949560400135949350505050565b7f4e487b7100000000000000000000000000000000000000000000000000000000600052604160045260246000fd5b600060208284031215611b6657600080fd5b813567ffffffffffffffff80821115611b7e57600080fd5b818401915084601f830112611b9257600080fd5b813581811115611ba457611ba4611b25565b604051601f82017fffffffffffffffffffffffffffffffffffffffffffffffffffffffffffffffe0908116603f01168101908382118183101715611bea57611bea611b25565b81604052828152876020848701011115611c0357600080fd5b826020860160208301376000928101602001929092525095945050505050565b600080600060408486031215611c3857600080fd5b611c418461186f565b9250602084013567ffffffffffffffff811115611c5d57600080fd5b611c69868287016118b3565b9497909650939450505050565b8183528181602085013750600060208284010152600060207fffffffffffffffffffffffffffffffffffffffffffffffffffffffffffffffe0601f840116840101905092915050565b81835260006020808501808196508560051b810191508460005b87811015611ddb57828403895281357fffffffffffffffffffffffffffffffffffffffffffffffffffffffffffffffa1883603018112611d1857600080fd5b8701606073ffffffffffffffffffffffffffffffffffffffff611d3a8361186f565b16865263ffffffff611d4d888401611953565b16878701526040808301357fffffffffffffffffffffffffffffffffffffffffffffffffffffffffffffffe1843603018112611d8857600080fd5b8301803567ffffffffffffffff811115611da157600080fd5b803603851315611db057600080fd5b83838a0152611dc4848a01828c8501611c76565b9d8a019d9850505093870193505050600101611cd9565b5091979650505050505050565b602081526000611dfc602083018486611cbf565b949350505050565b7f4e487b7100000000000000000000000000000000000000000000000000000000600052601160045260246000fd5b600063ffffffff808316818516808303821115611e5257611e52611e04565b01949350505050565b73ffffffffffffffffffffffffffffffffffffffff8516815263ffffffff84166020820152606060408201526000611e97606083018486611c76565b9695505050505050565b600181811c90821680611eb557607f821691505b60208210811415611eef577f4e487b7100000000000000000000000000000000000000000000000000000000600052602260045260246000fd5b50919050565b6000808454611f0381611ea1565b60018281168015611f1b5760018114611f4a57611f79565b7fffffffffffffffffffffffffffffffffffffffffffffffffffffffffffffff00841687528287019450611f79565b8860005260208060002060005b85811015611f705781548a820152908401908201611f57565b50505082870194505b505050508351611e52818360208801611a4e565b6000602080835260008454611fa181611ea1565b80848701526040600180841660008114611fc25760018114611ff457612022565b7fffffffffffffffffffffffffffffffffffffffffffffffffffffffffffffff008516838a0152606089019550612022565b896000528660002060005b8581101561201a5781548b8201860152908301908801611fff565b8a0184019650505b509398975050505050505050565b73ffffffffffffffffffffffffffffffffffffffff84168152604060208201526000612060604083018486611cbf565b95945050505050565b7f4e487b7100000000000000000000000000000000000000000000000000000000600052601260045260246000fd5b6000826120a7576120a7612069565b500690565b7f4e487b7100000000000000000000000000000000000000000000000000000000600052603260045260246000fd5b6000816120ea576120ea611e04565b507fffffffffffffffffffffffffffffffffffffffffffffffffffffffffffffffff0190565b60008261211f5761211f612069565b500490565b6000817fffffffffffffffffffffffffffffffffffffffffffffffffffffffffffffffff048311821515161561215c5761215c611e04565b500290565b6000821982111561217457612174611e04565b500190565b7f4e487b7100000000000000000000000000000000000000000000000000000000600052602160045260246000fdfea2646970667358221220994d0ede6f526c6908f80719fec169da224f0858f91d3cee53fa33acd99d143a64736f6c63430008090033",
  "devdoc": {
    "kind": "dev",
    "methods": {},
    "version": 1
  },
  "userdoc": {
    "kind": "user",
    "methods": {},
    "version": 1
  },
  "storageLayout": {
    "storage": [
      {
        "astId": 12611,
        "contract": "src/alliances/BasicAlliance.sol:BasicAlliance",
        "label": "_original",
        "offset": 0,
        "slot": "0",
        "type": "t_bool"
      },
      {
        "astId": 12616,
        "contract": "src/alliances/BasicAlliance.sol:BasicAlliance",
        "label": "admin",
        "offset": 1,
        "slot": "0",
        "type": "t_address"
      },
      {
        "astId": 12618,
        "contract": "src/alliances/BasicAlliance.sol:BasicAlliance",
        "label": "_baseURI",
        "offset": 0,
        "slot": "1",
        "type": "t_string_storage"
      },
      {
        "astId": 12622,
        "contract": "src/alliances/BasicAlliance.sol:BasicAlliance",
        "label": "memberNonces",
        "offset": 0,
        "slot": "2",
        "type": "t_mapping(t_address,t_uint32)"
      }
    ],
    "types": {
      "t_address": {
        "encoding": "inplace",
        "label": "address",
        "numberOfBytes": "20"
      },
      "t_bool": {
        "encoding": "inplace",
        "label": "bool",
        "numberOfBytes": "1"
      },
      "t_mapping(t_address,t_uint32)": {
        "encoding": "mapping",
        "key": "t_address",
        "label": "mapping(address => uint32)",
        "numberOfBytes": "32",
        "value": "t_uint32"
      },
      "t_string_storage": {
        "encoding": "bytes",
        "label": "string",
        "numberOfBytes": "32"
      },
      "t_uint32": {
        "encoding": "inplace",
        "label": "uint32",
        "numberOfBytes": "4"
      }
    }
  }
}