{
  "address": "0xE5dB7f47bA5e3C6498d4a94Bd4Be682734E85B64",
  "abi": [
    {
      "inputs": [
        {
          "internalType": "address",
          "name": "initialOwner",
          "type": "address"
        },
        {
          "internalType": "contract PlayToken",
          "name": "underlyingToken",
          "type": "address"
        },
        {
          "internalType": "contract FreePlayToken",
          "name": "freePlayToekn",
          "type": "address"
        }
      ],
      "stateMutability": "nonpayable",
      "type": "constructor"
    },
    {
      "anonymous": false,
      "inputs": [
        {
          "indexed": true,
          "internalType": "address",
          "name": "owner",
          "type": "address"
        },
        {
          "indexed": true,
          "internalType": "address",
          "name": "spender",
          "type": "address"
        },
        {
          "indexed": false,
          "internalType": "uint256",
          "name": "value",
          "type": "uint256"
        }
      ],
      "name": "Approval",
      "type": "event"
    },
    {
      "anonymous": false,
      "inputs": [
        {
          "indexed": true,
          "internalType": "address",
          "name": "previousOwner",
          "type": "address"
        },
        {
          "indexed": true,
          "internalType": "address",
          "name": "newOwner",
          "type": "address"
        }
      ],
      "name": "OwnershipTransferred",
      "type": "event"
    },
    {
      "anonymous": false,
      "inputs": [
        {
          "indexed": true,
          "internalType": "address",
          "name": "from",
          "type": "address"
        },
        {
          "indexed": true,
          "internalType": "address",
          "name": "to",
          "type": "address"
        },
        {
          "indexed": false,
          "internalType": "uint256",
          "name": "value",
          "type": "uint256"
        }
      ],
      "name": "Transfer",
      "type": "event"
    },
    {
      "inputs": [
        {
          "internalType": "address",
          "name": "",
          "type": "address"
        },
        {
          "internalType": "address",
          "name": "",
          "type": "address"
        }
      ],
      "name": "allowance",
      "outputs": [
        {
          "internalType": "uint256",
          "name": "",
          "type": "uint256"
        }
      ],
      "stateMutability": "pure",
      "type": "function"
    },
    {
      "inputs": [
        {
          "internalType": "address",
          "name": "",
          "type": "address"
        },
        {
          "internalType": "uint256",
          "name": "",
          "type": "uint256"
        }
      ],
      "name": "approve",
      "outputs": [
        {
          "internalType": "bool",
          "name": "",
          "type": "bool"
        }
      ],
      "stateMutability": "nonpayable",
      "type": "function"
    },
    {
      "inputs": [
        {
          "internalType": "address",
          "name": "owner",
          "type": "address"
        }
      ],
      "name": "balanceOf",
      "outputs": [
        {
          "internalType": "uint256",
          "name": "",
          "type": "uint256"
        }
      ],
      "stateMutability": "view",
      "type": "function"
    },
    {
      "inputs": [
        {
          "internalType": "address",
          "name": "to",
          "type": "address"
        },
        {
          "internalType": "uint256",
          "name": "amount",
          "type": "uint256"
        }
      ],
      "name": "claim",
      "outputs": [],
      "stateMutability": "nonpayable",
      "type": "function"
    },
    {
      "inputs": [],
      "name": "decimals",
      "outputs": [
        {
          "internalType": "uint8",
          "name": "",
          "type": "uint8"
        }
      ],
      "stateMutability": "pure",
      "type": "function"
    },
    {
      "inputs": [
        {
          "components": [
            {
              "internalType": "address",
              "name": "to",
              "type": "address"
            },
            {
              "internalType": "uint256",
              "name": "amount",
              "type": "uint256"
            }
          ],
          "internalType": "struct FreePlayTokenClaim.Claim[]",
          "name": "claims",
          "type": "tuple[]"
        }
      ],
      "name": "mintMultipleViaNativeToken",
      "outputs": [],
      "stateMutability": "payable",
      "type": "function"
    },
    {
      "inputs": [
        {
          "internalType": "address",
          "name": "to",
          "type": "address"
        },
        {
          "internalType": "uint256",
          "name": "amount",
          "type": "uint256"
        }
      ],
      "name": "mintViaNativeToken",
      "outputs": [],
      "stateMutability": "payable",
      "type": "function"
    },
    {
      "inputs": [],
      "name": "name",
      "outputs": [
        {
          "internalType": "string",
          "name": "",
          "type": "string"
        }
      ],
      "stateMutability": "pure",
      "type": "function"
    },
    {
      "inputs": [],
      "name": "owner",
      "outputs": [
        {
          "internalType": "address",
          "name": "",
          "type": "address"
        }
      ],
      "stateMutability": "view",
      "type": "function"
    },
    {
      "inputs": [
        {
          "internalType": "bytes4",
          "name": "interfaceID",
          "type": "bytes4"
        }
      ],
      "name": "supportsInterface",
      "outputs": [
        {
          "internalType": "bool",
          "name": "",
          "type": "bool"
        }
      ],
      "stateMutability": "pure",
      "type": "function"
    },
    {
      "inputs": [],
      "name": "symbol",
      "outputs": [
        {
          "internalType": "string",
          "name": "",
          "type": "string"
        }
      ],
      "stateMutability": "view",
      "type": "function"
    },
    {
      "inputs": [],
      "name": "totalSupply",
      "outputs": [
        {
          "internalType": "uint256",
          "name": "",
          "type": "uint256"
        }
      ],
      "stateMutability": "view",
      "type": "function"
    },
    {
      "inputs": [
        {
          "internalType": "address",
          "name": "",
          "type": "address"
        },
        {
          "internalType": "uint256",
          "name": "",
          "type": "uint256"
        }
      ],
      "name": "transfer",
      "outputs": [
        {
          "internalType": "bool",
          "name": "",
          "type": "bool"
        }
      ],
      "stateMutability": "nonpayable",
      "type": "function"
    },
    {
      "inputs": [
        {
          "internalType": "address",
          "name": "",
          "type": "address"
        },
        {
          "internalType": "address",
          "name": "",
          "type": "address"
        },
        {
          "internalType": "uint256",
          "name": "",
          "type": "uint256"
        }
      ],
      "name": "transferFrom",
      "outputs": [
        {
          "internalType": "bool",
          "name": "",
          "type": "bool"
        }
      ],
      "stateMutability": "nonpayable",
      "type": "function"
    },
    {
      "inputs": [
        {
          "internalType": "address",
          "name": "newOwner",
          "type": "address"
        }
      ],
      "name": "transferOwnership",
      "outputs": [],
      "stateMutability": "nonpayable",
      "type": "function"
    },
    {
      "inputs": [
        {
          "internalType": "address",
          "name": "from",
          "type": "address"
        },
        {
          "internalType": "address",
          "name": "to",
          "type": "address"
        },
        {
          "internalType": "uint256",
          "name": "amount",
          "type": "uint256"
        }
      ],
      "name": "withdrawUnderlyingToken",
      "outputs": [],
      "stateMutability": "nonpayable",
      "type": "function"
    }
  ],
  "transactionHash": "0xba1e2e6f5d481acfad8b5e226fe14ee8fa67acc79511a29705167b4a0da7e66a",
  "args": [
    "0xbE19B59E8C588d68f475A407C7BA5fE813AEb792",
    "0x1874F6326eEbcCe664410a93a5217741a977D14A",
    "0x8d82B1900bc77fACdf6f2209869E4f816E4fbcB2"
  ],
  "numDeployments": 1,
  "solcInputHash": "55061344d0184db49f57a95ccc370eab",
  "bytecode": "0x60c060405234801561001057600080fd5b506040516200127d3803806200127d833981016040819052610031916100c7565b8261003b81610054565b506001600160a01b039182166080521660a05250610114565b600080546040516001600160a01b03808516939216917f8be0079c531659141344cd1fd0a4f28419497f9722a3daafe3b4186f6b6457e091a3600080546001600160a01b0319166001600160a01b0392909216919091179055565b6001600160a01b03811681146100c457600080fd5b50565b6000806000606084860312156100dc57600080fd5b83516100e7816100af565b60208501519093506100f8816100af565b6040850151909250610109816100af565b809150509250925092565b60805160a05161112762000156600039600081816108ff01526109fd0152600081816105c6015281816106850152818161092e0152610c5f01526111276000f3fe6080604052600436106100f35760003560e01c806370a082311161008a578063aad3ec9611610059578063aad3ec96146102f8578063cb9b7c5d14610318578063dd62ed3e14610338578063f2fde38b1461035b57600080fd5b806370a082311461021a5780638da5cb5b1461025d57806395d89b41146102af578063a9059cbb1461017c57600080fd5b806323b872dd116100c657806323b872dd146101bb578063313ce567146101d65780635c5113d8146101f25780635ecb2d3f1461020757600080fd5b806301ffc9a7146100f857806306fdde031461012d578063095ea7b31461017c57806318160ddd1461019c575b600080fd5b34801561010457600080fd5b50610118610113366004610dfb565b61037b565b60405190151581526020015b60405180910390f35b34801561013957600080fd5b5060408051808201909152600f81527f4672656520506c617920436c61696d000000000000000000000000000000000060208201525b6040516101249190610e44565b34801561018857600080fd5b50610118610197366004610ee0565b610414565b3480156101a857600080fd5b506001545b604051908152602001610124565b3480156101c757600080fd5b50610118610197366004610f0a565b3480156101e257600080fd5b5060405160128152602001610124565b610205610200366004610f46565b61047e565b005b610205610215366004610ee0565b610650565b34801561022657600080fd5b506101ad610235366004610fbb565b73ffffffffffffffffffffffffffffffffffffffff1660009081526002602052604090205490565b34801561026957600080fd5b5060005461028a9073ffffffffffffffffffffffffffffffffffffffff1681565b60405173ffffffffffffffffffffffffffffffffffffffff9091168152602001610124565b3480156102bb57600080fd5b5061016f6040518060400160405280600581526020017f434c41494d00000000000000000000000000000000000000000000000000000081525081565b34801561030457600080fd5b50610205610313366004610ee0565b6107a4565b34801561032457600080fd5b50610205610333366004610f0a565b610a5e565b34801561034457600080fd5b506101ad610353366004610fd6565b600092915050565b34801561036757600080fd5b50610205610376366004610fbb565b610ce1565b60007f7f5828d0000000000000000000000000000000000000000000000000000000007fffffffff000000000000000000000000000000000000000000000000000000008316148061040e57507f01ffc9a7000000000000000000000000000000000000000000000000000000007fffffffff000000000000000000000000000000000000000000000000000000008316145b92915050565b6040517f08c379a000000000000000000000000000000000000000000000000000000000815260206004820152601060248201527f4e4f4e5f5452414e5346455241424c450000000000000000000000000000000060448201526000906064015b60405180910390fd5b806000805b8281101561059057600085858381811061049f5761049f611009565b90506040020160200135905060008686848181106104bf576104bf611009565b6104d59260206040909202019081019150610fbb565b90506104e18285611067565b73ffffffffffffffffffffffffffffffffffffffff8216600090815260026020526040902054909450610515908390611067565b73ffffffffffffffffffffffffffffffffffffffff82166000818152600260205260408082209390935591519091907fddf252ad1be2c89b69c2b068fc378daa952ba7f163c4a11628f55a4df523b3ef906105739086815260200190565b60405180910390a3505080806105889061107f565b915050610483565b506040517f40c10f19000000000000000000000000000000000000000000000000000000008152306004820152602481018290527f000000000000000000000000000000000000000000000000000000000000000073ffffffffffffffffffffffffffffffffffffffff16906340c10f199034906044016000604051808303818588803b15801561062057600080fd5b505af1158015610634573d6000803e3d6000fd5b5050505050806001546106479190611067565b60015550505050565b6040517f40c10f19000000000000000000000000000000000000000000000000000000008152306004820152602481018290527f000000000000000000000000000000000000000000000000000000000000000073ffffffffffffffffffffffffffffffffffffffff16906340c10f199034906044016000604051808303818588803b1580156106df57600080fd5b505af11580156106f3573d6000803e3d6000fd5b5050505050806001546107069190611067565b60015573ffffffffffffffffffffffffffffffffffffffff821660009081526002602052604090205461073a908290611067565b73ffffffffffffffffffffffffffffffffffffffff83166000818152600260205260408082209390935591519091907fddf252ad1be2c89b69c2b068fc378daa952ba7f163c4a11628f55a4df523b3ef906107989085815260200190565b60405180910390a35050565b3360008181526002602052604090205482111561081d576040517f08c379a000000000000000000000000000000000000000000000000000000000815260206004820152601460248201527f494e53554646494349454e545f42414c414e43450000000000000000000000006044820152606401610475565b8160015461082b91906110b8565b60015573ffffffffffffffffffffffffffffffffffffffff811660009081526002602052604090205461085f9083906110b8565b73ffffffffffffffffffffffffffffffffffffffff82166000818152600260205260408082209390935591517fddf252ad1be2c89b69c2b068fc378daa952ba7f163c4a11628f55a4df523b3ef906108ba9086815260200190565b60405180910390a36040517f095ea7b300000000000000000000000000000000000000000000000000000000815273ffffffffffffffffffffffffffffffffffffffff7f000000000000000000000000000000000000000000000000000000000000000081166004830152602482018490527f0000000000000000000000000000000000000000000000000000000000000000169063095ea7b390604401602060405180830381600087803b15801561097257600080fd5b505af1158015610986573d6000803e3d6000fd5b505050506040513d601f19601f820116820180604052508101906109aa91906110cf565b506040517fc6c3bbe600000000000000000000000000000000000000000000000000000000815230600482015273ffffffffffffffffffffffffffffffffffffffff8481166024830152604482018490527f0000000000000000000000000000000000000000000000000000000000000000169063c6c3bbe690606401600060405180830381600087803b158015610a4157600080fd5b505af1158015610a55573d6000803e3d6000fd5b50505050505050565b60005473ffffffffffffffffffffffffffffffffffffffff163314610adf576040517f08c379a000000000000000000000000000000000000000000000000000000000815260206004820152600e60248201527f4e4f545f415554484f52495a45440000000000000000000000000000000000006044820152606401610475565b73ffffffffffffffffffffffffffffffffffffffff8316600090815260026020526040902054811115610b6e576040517f08c379a000000000000000000000000000000000000000000000000000000000815260206004820152601460248201527f494e53554646494349454e545f42414c414e43450000000000000000000000006044820152606401610475565b80600154610b7c91906110b8565b60015573ffffffffffffffffffffffffffffffffffffffff8316600090815260026020526040902054610bb09082906110b8565b73ffffffffffffffffffffffffffffffffffffffff84166000818152600260205260408082209390935591517fddf252ad1be2c89b69c2b068fc378daa952ba7f163c4a11628f55a4df523b3ef90610c0b9085815260200190565b60405180910390a36040517fa9059cbb00000000000000000000000000000000000000000000000000000000815273ffffffffffffffffffffffffffffffffffffffff8381166004830152602482018390527f0000000000000000000000000000000000000000000000000000000000000000169063a9059cbb90604401602060405180830381600087803b158015610ca357600080fd5b505af1158015610cb7573d6000803e3d6000fd5b505050506040513d601f19601f82011682018060405250810190610cdb91906110cf565b50505050565b60005473ffffffffffffffffffffffffffffffffffffffff163314610d62576040517f08c379a000000000000000000000000000000000000000000000000000000000815260206004820152600e60248201527f4e4f545f415554484f52495a45440000000000000000000000000000000000006044820152606401610475565b610d6b81610d6e565b50565b6000805460405173ffffffffffffffffffffffffffffffffffffffff808516939216917f8be0079c531659141344cd1fd0a4f28419497f9722a3daafe3b4186f6b6457e091a3600080547fffffffffffffffffffffffff00000000000000000000000000000000000000001673ffffffffffffffffffffffffffffffffffffffff92909216919091179055565b600060208284031215610e0d57600080fd5b81357fffffffff0000000000000000000000000000000000000000000000000000000081168114610e3d57600080fd5b9392505050565b600060208083528351808285015260005b81811015610e7157858101830151858201604001528201610e55565b81811115610e83576000604083870101525b50601f017fffffffffffffffffffffffffffffffffffffffffffffffffffffffffffffffe016929092016040019392505050565b803573ffffffffffffffffffffffffffffffffffffffff81168114610edb57600080fd5b919050565b60008060408385031215610ef357600080fd5b610efc83610eb7565b946020939093013593505050565b600080600060608486031215610f1f57600080fd5b610f2884610eb7565b9250610f3660208501610eb7565b9150604084013590509250925092565b60008060208385031215610f5957600080fd5b823567ffffffffffffffff80821115610f7157600080fd5b818501915085601f830112610f8557600080fd5b813581811115610f9457600080fd5b8660208260061b8501011115610fa957600080fd5b60209290920196919550909350505050565b600060208284031215610fcd57600080fd5b610e3d82610eb7565b60008060408385031215610fe957600080fd5b610ff283610eb7565b915061100060208401610eb7565b90509250929050565b7f4e487b7100000000000000000000000000000000000000000000000000000000600052603260045260246000fd5b7f4e487b7100000000000000000000000000000000000000000000000000000000600052601160045260246000fd5b6000821982111561107a5761107a611038565b500190565b60007fffffffffffffffffffffffffffffffffffffffffffffffffffffffffffffffff8214156110b1576110b1611038565b5060010190565b6000828210156110ca576110ca611038565b500390565b6000602082840312156110e157600080fd5b81518015158114610e3d57600080fdfea26469706673582212202428a9b251f681ff3ec2d58053b35eb55fb5b85094d6c656482fad77b9586b9e64736f6c63430008090033",
  "devdoc": {
    "kind": "dev",
    "methods": {
      "totalSupply()": {
        "details": "Returns the amount of tokens in existence."
      }
    },
    "version": 1
  },
  "userdoc": {
    "kind": "user",
    "methods": {},
    "version": 1
  },
  "storageLayout": {
    "storage": [
      {
        "astId": 1751,
        "contract": "src/conquest_token/FreePlayTokenClaim.sol:FreePlayTokenClaim",
        "label": "owner",
        "offset": 0,
        "slot": "0",
        "type": "t_address"
      },
      {
        "astId": 2311,
        "contract": "src/conquest_token/FreePlayTokenClaim.sol:FreePlayTokenClaim",
        "label": "_totalSupply",
        "offset": 0,
        "slot": "1",
        "type": "t_uint256"
      },
      {
        "astId": 2315,
        "contract": "src/conquest_token/FreePlayTokenClaim.sol:FreePlayTokenClaim",
        "label": "_balances",
        "offset": 0,
        "slot": "2",
        "type": "t_mapping(t_address,t_uint256)"
      }
    ],
    "types": {
      "t_address": {
        "encoding": "inplace",
        "label": "address",
        "numberOfBytes": "20"
      },
      "t_mapping(t_address,t_uint256)": {
        "encoding": "mapping",
        "key": "t_address",
        "label": "mapping(address => uint256)",
        "numberOfBytes": "32",
        "value": "t_uint256"
      },
      "t_uint256": {
        "encoding": "inplace",
        "label": "uint256",
        "numberOfBytes": "32"
      }
    }
  }
}