{
  "address": "0x17F580BB795d8e197566Ed778EF0Ea56Eda2F835",
  "abi": [
    {
      "inputs": [
        {
          "components": [
            {
              "internalType": "contract StakingToken",
              "name": "stakingToken",
              "type": "address"
            },
            {
              "internalType": "contract IFreePlayToken",
              "name": "freeStakingToken",
              "type": "address"
            },
            {
              "internalType": "contract AllianceRegistry",
              "name": "allianceRegistry",
              "type": "address"
            },
            {
              "internalType": "bytes32",
              "name": "genesis",
              "type": "bytes32"
            },
            {
              "internalType": "uint256",
              "name": "resolveWindow",
              "type": "uint256"
            },
            {
              "internalType": "uint256",
              "name": "timePerDistance",
              "type": "uint256"
            },
            {
              "internalType": "uint256",
              "name": "exitDuration",
              "type": "uint256"
            },
            {
              "internalType": "uint32",
              "name": "acquireNumSpaceships",
              "type": "uint32"
            },
            {
              "internalType": "uint32",
              "name": "productionSpeedUp",
              "type": "uint32"
            },
            {
              "internalType": "uint256",
              "name": "frontrunningDelay",
              "type": "uint256"
            },
            {
              "internalType": "uint256",
              "name": "productionCapAsDuration",
              "type": "uint256"
            },
            {
              "internalType": "uint256",
              "name": "upkeepProductionDecreaseRatePer10000th",
              "type": "uint256"
            },
            {
              "internalType": "uint256",
              "name": "fleetSizeFactor6",
              "type": "uint256"
            },
            {
              "internalType": "uint32",
              "name": "initialSpaceExpansion",
              "type": "uint32"
            },
            {
              "internalType": "uint32",
              "name": "expansionDelta",
              "type": "uint32"
            },
            {
              "internalType": "uint256",
              "name": "giftTaxPer10000",
              "type": "uint256"
            },
            {
              "internalType": "bytes32",
              "name": "stakeRange",
              "type": "bytes32"
            },
            {
              "internalType": "uint256",
              "name": "stakeMultiplier10000th",
              "type": "uint256"
            },
            {
              "internalType": "uint256",
              "name": "bootstrapSessionEndTime",
              "type": "uint256"
            },
            {
              "internalType": "uint256",
              "name": "infinityStartTime",
              "type": "uint256"
            }
          ],
          "internalType": "struct OuterSpaceFacetBase.Config",
          "name": "config",
          "type": "tuple"
        }
      ],
      "stateMutability": "nonpayable",
      "type": "constructor"
    },
    {
      "anonymous": false,
      "inputs": [
        {
          "indexed": true,
          "internalType": "address",
          "name": "owner",
          "type": "address"
        },
        {
          "indexed": true,
          "internalType": "address",
          "name": "operator",
          "type": "address"
        },
        {
          "indexed": false,
          "internalType": "bool",
          "name": "approved",
          "type": "bool"
        }
      ],
      "name": "ApprovalForAll",
      "type": "event"
    },
    {
      "anonymous": false,
      "inputs": [
        {
          "indexed": false,
          "internalType": "uint256",
          "name": "block",
          "type": "uint256"
        },
        {
          "indexed": false,
          "internalType": "uint256",
          "name": "timestamp",
          "type": "uint256"
        }
      ],
      "name": "BlockTime",
      "type": "event"
    },
    {
      "anonymous": false,
      "inputs": [
        {
          "indexed": true,
          "internalType": "address",
          "name": "owner",
          "type": "address"
        },
        {
          "indexed": true,
          "internalType": "uint256",
          "name": "location",
          "type": "uint256"
        },
        {
          "indexed": false,
          "internalType": "uint256",
          "name": "stake",
          "type": "uint256"
        }
      ],
      "name": "ExitComplete",
      "type": "event"
    },
    {
      "anonymous": false,
      "inputs": [
        {
          "indexed": true,
          "internalType": "uint256",
          "name": "fleet",
          "type": "uint256"
        },
        {
          "indexed": true,
          "internalType": "address",
          "name": "fleetOwner",
          "type": "address"
        },
        {
          "indexed": true,
          "internalType": "address",
          "name": "destinationOwner",
          "type": "address"
        },
        {
          "indexed": false,
          "internalType": "uint256",
          "name": "destination",
          "type": "uint256"
        },
        {
          "indexed": false,
          "internalType": "bool",
          "name": "gift",
          "type": "bool"
        },
        {
          "indexed": false,
          "internalType": "bool",
          "name": "won",
          "type": "bool"
        },
        {
          "components": [
            {
              "internalType": "uint32",
              "name": "newNumspaceships",
              "type": "uint32"
            },
            {
              "internalType": "int40",
              "name": "newTravelingUpkeep",
              "type": "int40"
            },
            {
              "internalType": "uint32",
              "name": "newOverflow",
              "type": "uint32"
            },
            {
              "internalType": "uint32",
              "name": "numSpaceshipsAtArrival",
              "type": "uint32"
            },
            {
              "internalType": "uint32",
              "name": "taxLoss",
              "type": "uint32"
            },
            {
              "internalType": "uint32",
              "name": "fleetLoss",
              "type": "uint32"
            },
            {
              "internalType": "uint32",
              "name": "planetLoss",
              "type": "uint32"
            },
            {
              "internalType": "uint32",
              "name": "inFlightFleetLoss",
              "type": "uint32"
            },
            {
              "internalType": "uint32",
              "name": "inFlightPlanetLoss",
              "type": "uint32"
            },
            {
              "internalType": "uint32",
              "name": "accumulatedDefenseAdded",
              "type": "uint32"
            },
            {
              "internalType": "uint32",
              "name": "accumulatedAttackAdded",
              "type": "uint32"
            }
          ],
          "indexed": false,
          "internalType": "struct ImportingOuterSpaceEvents.ArrivalData",
          "name": "data",
          "type": "tuple"
        }
      ],
      "name": "FleetArrived",
      "type": "event"
    },
    {
      "anonymous": false,
      "inputs": [
        {
          "indexed": true,
          "internalType": "address",
          "name": "fleetSender",
          "type": "address"
        },
        {
          "indexed": true,
          "internalType": "address",
          "name": "fleetOwner",
          "type": "address"
        },
        {
          "indexed": true,
          "internalType": "uint256",
          "name": "from",
          "type": "uint256"
        },
        {
          "indexed": false,
          "internalType": "address",
          "name": "operator",
          "type": "address"
        },
        {
          "indexed": false,
          "internalType": "uint256",
          "name": "fleet",
          "type": "uint256"
        },
        {
          "indexed": false,
          "internalType": "uint32",
          "name": "quantity",
          "type": "uint32"
        },
        {
          "indexed": false,
          "internalType": "uint32",
          "name": "newNumSpaceships",
          "type": "uint32"
        },
        {
          "indexed": false,
          "internalType": "int40",
          "name": "newTravelingUpkeep",
          "type": "int40"
        },
        {
          "indexed": false,
          "internalType": "uint32",
          "name": "newOverflow",
          "type": "uint32"
        }
      ],
      "name": "FleetSent",
      "type": "event"
    },
    {
      "anonymous": false,
      "inputs": [
        {
          "indexed": false,
          "internalType": "address",
          "name": "newGeneratorAdmin",
          "type": "address"
        }
      ],
      "name": "GeneratorAdminChanged",
      "type": "event"
    },
    {
      "anonymous": false,
      "inputs": [
        {
          "indexed": false,
          "internalType": "address",
          "name": "newGenerator",
          "type": "address"
        }
      ],
      "name": "GeneratorChanged",
      "type": "event"
    },
    {
      "anonymous": false,
      "inputs": [
        {
          "indexed": false,
          "internalType": "bytes32",
          "name": "genesis",
          "type": "bytes32"
        },
        {
          "indexed": false,
          "internalType": "uint256",
          "name": "resolveWindow",
          "type": "uint256"
        },
        {
          "indexed": false,
          "internalType": "uint256",
          "name": "timePerDistance",
          "type": "uint256"
        },
        {
          "indexed": false,
          "internalType": "uint256",
          "name": "exitDuration",
          "type": "uint256"
        },
        {
          "indexed": false,
          "internalType": "uint32",
          "name": "acquireNumSpaceships",
          "type": "uint32"
        },
        {
          "indexed": false,
          "internalType": "uint32",
          "name": "productionSpeedUp",
          "type": "uint32"
        },
        {
          "indexed": false,
          "internalType": "uint256",
          "name": "frontrunningDelay",
          "type": "uint256"
        },
        {
          "indexed": false,
          "internalType": "uint256",
          "name": "productionCapAsDuration",
          "type": "uint256"
        },
        {
          "indexed": false,
          "internalType": "uint256",
          "name": "upkeepProductionDecreaseRatePer10000th",
          "type": "uint256"
        },
        {
          "indexed": false,
          "internalType": "uint256",
          "name": "fleetSizeFactor6",
          "type": "uint256"
        },
        {
          "indexed": false,
          "internalType": "uint32",
          "name": "initialSpaceExpansion",
          "type": "uint32"
        },
        {
          "indexed": false,
          "internalType": "uint32",
          "name": "expansionDelta",
          "type": "uint32"
        },
        {
          "indexed": false,
          "internalType": "uint256",
          "name": "giftTaxPer10000",
          "type": "uint256"
        }
      ],
      "name": "Initialized",
      "type": "event"
    },
    {
      "anonymous": false,
      "inputs": [
        {
          "indexed": true,
          "internalType": "address",
          "name": "owner",
          "type": "address"
        },
        {
          "indexed": true,
          "internalType": "uint256",
          "name": "location",
          "type": "uint256"
        }
      ],
      "name": "PlanetExit",
      "type": "event"
    },
    {
      "anonymous": false,
      "inputs": [
        {
          "indexed": true,
          "internalType": "uint256",
          "name": "location",
          "type": "uint256"
        }
      ],
      "name": "PlanetReset",
      "type": "event"
    },
    {
      "anonymous": false,
      "inputs": [
        {
          "indexed": true,
          "internalType": "address",
          "name": "acquirer",
          "type": "address"
        },
        {
          "indexed": true,
          "internalType": "uint256",
          "name": "location",
          "type": "uint256"
        },
        {
          "indexed": false,
          "internalType": "uint32",
          "name": "numSpaceships",
          "type": "uint32"
        },
        {
          "indexed": false,
          "internalType": "int40",
          "name": "travelingUpkeep",
          "type": "int40"
        },
        {
          "indexed": false,
          "internalType": "uint32",
          "name": "overflow",
          "type": "uint32"
        },
        {
          "indexed": false,
          "internalType": "uint256",
          "name": "stake",
          "type": "uint256"
        },
        {
          "indexed": false,
          "internalType": "bool",
          "name": "freegift",
          "type": "bool"
        }
      ],
      "name": "PlanetStake",
      "type": "event"
    },
    {
      "anonymous": false,
      "inputs": [
        {
          "indexed": true,
          "internalType": "address",
          "name": "previousOwner",
          "type": "address"
        },
        {
          "indexed": true,
          "internalType": "address",
          "name": "newOwner",
          "type": "address"
        },
        {
          "indexed": true,
          "internalType": "uint256",
          "name": "location",
          "type": "uint256"
        },
        {
          "indexed": false,
          "internalType": "uint32",
          "name": "newNumspaceships",
          "type": "uint32"
        },
        {
          "indexed": false,
          "internalType": "int40",
          "name": "newTravelingUpkeep",
          "type": "int40"
        },
        {
          "indexed": false,
          "internalType": "uint32",
          "name": "newOverflow",
          "type": "uint32"
        }
      ],
      "name": "PlanetTransfer",
      "type": "event"
    },
    {
      "anonymous": false,
      "inputs": [
        {
          "indexed": true,
          "internalType": "uint256",
          "name": "location",
          "type": "uint256"
        },
        {
          "indexed": true,
          "internalType": "address",
          "name": "giver",
          "type": "address"
        },
        {
          "indexed": false,
          "internalType": "uint256",
          "name": "rewardId",
          "type": "uint256"
        }
      ],
      "name": "RewardSetup",
      "type": "event"
    },
    {
      "anonymous": false,
      "inputs": [
        {
          "indexed": true,
          "internalType": "address",
          "name": "owner",
          "type": "address"
        },
        {
          "indexed": true,
          "internalType": "uint256",
          "name": "location",
          "type": "uint256"
        },
        {
          "indexed": true,
          "internalType": "uint256",
          "name": "rewardId",
          "type": "uint256"
        }
      ],
      "name": "RewardToWithdraw",
      "type": "event"
    },
    {
      "anonymous": false,
      "inputs": [
        {
          "indexed": true,
          "internalType": "address",
          "name": "owner",
          "type": "address"
        },
        {
          "indexed": false,
          "internalType": "uint256",
          "name": "newStake",
          "type": "uint256"
        },
        {
          "indexed": false,
          "internalType": "bool",
          "name": "freegift",
          "type": "bool"
        }
      ],
      "name": "StakeToWithdraw",
      "type": "event"
    },
    {
      "anonymous": false,
      "inputs": [
        {
          "indexed": true,
          "internalType": "address",
          "name": "from",
          "type": "address"
        },
        {
          "indexed": true,
          "internalType": "address",
          "name": "to",
          "type": "address"
        },
        {
          "indexed": true,
          "internalType": "uint256",
          "name": "location",
          "type": "uint256"
        }
      ],
      "name": "Transfer",
      "type": "event"
    },
    {
      "anonymous": false,
      "inputs": [
        {
          "indexed": true,
          "internalType": "uint256",
          "name": "origin",
          "type": "uint256"
        },
        {
          "indexed": true,
          "internalType": "uint256",
          "name": "fleet",
          "type": "uint256"
        },
        {
          "indexed": false,
          "internalType": "uint32",
          "name": "newNumspaceships",
          "type": "uint32"
        },
        {
          "indexed": false,
          "internalType": "int40",
          "name": "newTravelingUpkeep",
          "type": "int40"
        },
        {
          "indexed": false,
          "internalType": "uint32",
          "name": "newOverflow",
          "type": "uint32"
        }
      ],
      "name": "TravelingUpkeepRefund",
      "type": "event"
    },
    {
      "inputs": [
        {
          "internalType": "uint256",
          "name": "location",
          "type": "uint256"
        },
        {
          "internalType": "uint256",
          "name": "amount",
          "type": "uint256"
        }
      ],
      "name": "acquireViaFreeTokenTransferFrom",
      "outputs": [],
      "stateMutability": "nonpayable",
      "type": "function"
    },
    {
      "inputs": [
        {
          "internalType": "uint256",
          "name": "location",
          "type": "uint256"
        },
        {
          "internalType": "uint256",
          "name": "amountToMint",
          "type": "uint256"
        },
        {
          "internalType": "uint256",
          "name": "tokenAmount",
          "type": "uint256"
        }
      ],
      "name": "acquireViaNativeTokenAndStakingToken",
      "outputs": [],
      "stateMutability": "payable",
      "type": "function"
    },
    {
      "inputs": [
        {
          "internalType": "uint256",
          "name": "location",
          "type": "uint256"
        },
        {
          "internalType": "uint256",
          "name": "amount",
          "type": "uint256"
        }
      ],
      "name": "acquireViaTransferFrom",
      "outputs": [],
      "stateMutability": "nonpayable",
      "type": "function"
    },
    {
      "inputs": [
        {
          "internalType": "address",
          "name": "owner",
          "type": "address"
        }
      ],
      "name": "balanceToWithdraw",
      "outputs": [
        {
          "internalType": "uint256",
          "name": "",
          "type": "uint256"
        }
      ],
      "stateMutability": "view",
      "type": "function"
    },
    {
      "inputs": [
        {
          "internalType": "address",
          "name": "owner",
          "type": "address"
        },
        {
          "internalType": "uint256",
          "name": "location",
          "type": "uint256"
        }
      ],
      "name": "exitFor",
      "outputs": [],
      "stateMutability": "nonpayable",
      "type": "function"
    },
    {
      "inputs": [
        {
          "internalType": "address",
          "name": "owner",
          "type": "address"
        },
        {
          "internalType": "uint256[]",
          "name": "locations",
          "type": "uint256[]"
        }
      ],
      "name": "exitMultipleFor",
      "outputs": [],
      "stateMutability": "nonpayable",
      "type": "function"
    },
    {
      "inputs": [
        {
          "internalType": "address",
          "name": "owner",
          "type": "address"
        },
        {
          "internalType": "uint256[]",
          "name": "locations",
          "type": "uint256[]"
        }
      ],
      "name": "fetchAndWithdrawFor",
      "outputs": [],
      "stateMutability": "nonpayable",
      "type": "function"
    },
    {
      "inputs": [
        {
          "internalType": "address",
          "name": "",
          "type": "address"
        },
        {
          "internalType": "address",
          "name": "forAddress",
          "type": "address"
        },
        {
          "internalType": "uint256",
          "name": "amount",
          "type": "uint256"
        },
        {
          "internalType": "bytes",
          "name": "data",
          "type": "bytes"
        }
      ],
      "name": "onTokenPaidFor",
      "outputs": [
        {
          "internalType": "bool",
          "name": "",
          "type": "bool"
        }
      ],
      "stateMutability": "nonpayable",
      "type": "function"
    },
    {
      "inputs": [
        {
          "internalType": "address",
          "name": "",
          "type": "address"
        },
        {
          "internalType": "uint256",
          "name": "amount",
          "type": "uint256"
        },
        {
          "internalType": "bytes",
          "name": "data",
          "type": "bytes"
        }
      ],
      "name": "onTokenTransfer",
      "outputs": [
        {
          "internalType": "bool",
          "name": "",
          "type": "bool"
        }
      ],
      "stateMutability": "nonpayable",
      "type": "function"
    },
    {
      "inputs": [
        {
          "internalType": "address",
          "name": "owner",
          "type": "address"
        }
      ],
      "name": "withdrawFor",
      "outputs": [],
      "stateMutability": "nonpayable",
      "type": "function"
    }
  ],
  "transactionHash": "0x28626e3054dc6df345734c7225df7c51f7ea15bd805175903763b32d5a5f94f2",
  "args": [
    {
      "stakingToken": "0x1874F6326eEbcCe664410a93a5217741a977D14A",
      "freeStakingToken": "0x8d82B1900bc77fACdf6f2209869E4f816E4fbcB2",
      "allianceRegistry": "0x10927DfafAc6915dE45CDd9955b7Cd18beaCeAbb",
      "genesis": "0x2E8844C4BE4BB08968BF024167442FF346C1277CFA814ADCE21207B6A4BCD005",
      "resolveWindow": 43200,
      "timePerDistance": 7200,
      "exitDuration": 259200,
      "acquireNumSpaceships": 100000,
      "productionSpeedUp": 1,
      "frontrunningDelay": 1800,
      "productionCapAsDuration": 259200,
      "upkeepProductionDecreaseRatePer10000th": 5000,
      "fleetSizeFactor6": 500000,
      "initialSpaceExpansion": 12,
      "expansionDelta": 6,
      "giftTaxPer10000": 2000,
      "stakeRange": "0x0064008200aa00c800f0010e012c014a014a017201900212029e032003a204b0",
      "stakeMultiplier10000th": 100,
      "bootstrapSessionEndTime": 1739976129,
      "infinityStartTime": 1740062529
    }
  ],
  "numDeployments": 2,
  "linkedData": {
    "genesisHash": "0x2E8844C4BE4BB08968BF024167442FF346C1277CFA814ADCE21207B6A4BCD005",
    "resolveWindow": 43200,
    "timePerDistance": 7200,
    "exitDuration": 259200,
    "acquireNumSpaceships": 100000,
    "productionSpeedUp": 1,
    "chainGenesisHash": "",
    "frontrunningDelay": 1800,
    "productionCapAsDuration": 259200,
    "upkeepProductionDecreaseRatePer10000th": 5000,
    "fleetSizeFactor6": 500000,
    "initialSpaceExpansion": 12,
    "expansionDelta": 6,
    "giftTaxPer10000": 2000,
    "stakeRange": "0x0064008200aa00c800f0010e012c014a014a017201900212029e032003a204b0",
    "stakeMultiplier10000th": 100,
    "bootstrapSessionEndTime": 1739976129,
    "infinityStartTime": 1740062529,
    "deploymentTimestamp": 1737384129
  },
  "solcInputHash": "38f0e143439d3b6f8b2decef74fbc861",
  "bytecode": "0x6103006040523480156200001257600080fd5b5060405162004819380380620048198339810160408190526200003591620001ff565b80600060048260a001516200004b919062000333565b60a08301519091506200006082600462000365565b63ffffffff1614620000b85760405162461bcd60e51b815260206004820152601d60248201527f54494d455f5045525f444953545f4e4f545f444956495349424c455f34000000604482015260640160405180910390fd5b81516001600160a01b0390811660809081526020840151821660a052604084015190911660c0908152606084015160e09081529184015161010090815263ffffffff93841661012090815291850151610140908152928501518416610160908152908501518416610180908152918501516101a0908152928501516101c0908152908501516101e09081529185015161020090815292850151841661022090815290850151909316610240908152908401516102609081529184015161028052918301516102a052908201516102c05201516102e05250620003a0565b60405161028081016001600160401b0381118282101715620001c757634e487b7160e01b600052604160045260246000fd5b60405290565b80516001600160a01b0381168114620001e557600080fd5b919050565b805163ffffffff81168114620001e557600080fd5b600061028082840312156200021357600080fd5b6200021d62000195565b6200022883620001cd565b81526200023860208401620001cd565b60208201526200024b60408401620001cd565b6040820152606083015160608201526080830151608082015260a083015160a082015260c083015160c08201526200028660e08401620001ea565b60e08201526101006200029b818501620001ea565b9082015261012083810151908201526101408084015190820152610160808401519082015261018080840151908201526101a0620002db818501620001ea565b908201526101c0620002ef848201620001ea565b908201526101e08381015190820152610200808401519082015261022080840151908201526102408084015190820152610260928301519281019290925250919050565b600063ffffffff808416806200035957634e487b7160e01b600052601260045260246000fd5b92169190910492915050565b600063ffffffff808316818516818304811182151516156200039757634e487b7160e01b600052601160045260246000fd5b02949350505050565b60805160a05160c05160e05161010051610120516101405161016051610180516101a0516101c0516101e05161020051610220516102405161026051610280516102a0516102c0516102e05161429e6200057b60003960008181610b2c0152612df5015260008181610ae401528181610b0b01528181612d9f0152612dc9015260006110cb015260006110ec0152600050506000818161274b015281816128300152818161291d0152612a080152600050506000818161340301528181613436015281816134b701526134ea015260008181611cd101528181611e2201526122db015260008181611b800152818161226a015261324b015260005050600081816115da01528181611b3401528181611c2701528181611cff01528181611d7d01528181611ece01526135b701526000818161210d01528181612158015281816121f10152818161222f015261328901526000612e31015260005050600050506000818161062e015281816113cf015281816116970152611a4601526000505060008181610291015281816103be015281816105090152818161173401528181613073015261363c015260008181610374015281816104040152818161054f0152818161099901528181610a5b0152610f0d015261429e6000f3fe6080604052600436106100b15760003560e01c8063afc8237011610069578063c95608381161004e578063c9560838146101ad578063e2e9b079146101fe578063f7e111e71461021e57600080fd5b8063afc823701461016d578063b9a1e8461461018d57600080fd5b80639b6be0651161009a5780639b6be065146100f85780639eca672c1461012d578063a4c0ed361461014d57600080fd5b80632f646f95146100b65780637ba423fb146100d8575b600080fd5b3480156100c257600080fd5b506100d66100d13660046139eb565b610231565b005b3480156100e457600080fd5b506100d66100f33660046139eb565b610314565b34801561010457600080fd5b50610118610113366004613a7b565b6103a3565b60405190151581526020015b60405180910390f35b34801561013957600080fd5b506100d6610148366004613aee565b6104ba565b34801561015957600080fd5b50610118610168366004613b0b565b6104ee565b34801561017957600080fd5b506100d6610188366004613b67565b610777565b34801561019957600080fd5b506100d66101a8366004613b93565b610840565b3480156101b957600080fd5b506101f06101c8366004613aee565b73ffffffffffffffffffffffffffffffffffffffff1660009081526002602052604090205490565b604051908152602001610124565b34801561020a57600080fd5b506100d6610219366004613b93565b610942565b6100d661022c366004613c1b565b61094d565b3361023f8183856001610ae2565b6040517f23b872dd00000000000000000000000000000000000000000000000000000000815273ffffffffffffffffffffffffffffffffffffffff8281166004830152306024830152604482018490527f000000000000000000000000000000000000000000000000000000000000000016906323b872dd906064015b602060405180830381600087803b1580156102d657600080fd5b505af11580156102ea573d6000803e3d6000fd5b505050506040513d601f19601f8201168201806040525081019061030e9190613c47565b50505050565b336103228183856000610ae2565b6040517f23b872dd00000000000000000000000000000000000000000000000000000000815273ffffffffffffffffffffffffffffffffffffffff8281166004830152306024830152604482018490527f000000000000000000000000000000000000000000000000000000000000000016906323b872dd906064016102bc565b6000803373ffffffffffffffffffffffffffffffffffffffff7f00000000000000000000000000000000000000000000000000000000000000001614156103ec57506001610490565b3373ffffffffffffffffffffffffffffffffffffffff7f00000000000000000000000000000000000000000000000000000000000000001614610490576040517f08c379a000000000000000000000000000000000000000000000000000000000815260206004820152600d60248201527f494e56414c49445f45524332300000000000000000000000000000000000000060448201526064015b60405180910390fd5b600061049e84860186613c69565b90506104ac87878385610ae2565b506001979650505050505050565b73ffffffffffffffffffffffffffffffffffffffff81166000908152600260205260409020546104ea8282610e5f565b5050565b6000803373ffffffffffffffffffffffffffffffffffffffff7f0000000000000000000000000000000000000000000000000000000000000000161415610537575060016105d6565b3373ffffffffffffffffffffffffffffffffffffffff7f000000000000000000000000000000000000000000000000000000000000000016146105d6576040517f08c379a000000000000000000000000000000000000000000000000000000000815260206004820152600d60248201527f494e56414c49445f4552433230000000000000000000000000000000000000006044820152606401610487565b6040831115610749576000806105ee85870187613cb1565b915091506000805b82518110156106d7576000655af3107a400061068061067b86858151811061062057610620613da2565b6020026020010151604080517f00000000000000000000000000000000000000000000000000000000000000006020820152908101829052600090606001604051602081830303815290604052805190602001209050919050565b611045565b63ffffffff166106909190613e00565b90506106b785828685815181106106a9576106a9613da2565b602002602001015189610ae2565b6106c18184613e3d565b92505080806106cf90613e55565b9150506105f6565b50808814610741576040517f08c379a000000000000000000000000000000000000000000000000000000000815260206004820152600e60248201527f494e56414c49445f414d4f554e540000000000000000000000000000000000006044820152606401610487565b50505061076b565b60008061075885870187613b67565b9150915061076882888386610ae2565b50505b50600195945050505050565b3373ffffffffffffffffffffffffffffffffffffffff831681146108315773ffffffffffffffffffffffffffffffffffffffff80841660009081526003602090815260408083209385168352929052205460ff16610831576040517f08c379a000000000000000000000000000000000000000000000000000000000815260206004820152601660248201527f4e4f545f415554484f52495a45445f544f5f53454e44000000000000000000006044820152606401610487565b61083b8383611149565b505050565b3373ffffffffffffffffffffffffffffffffffffffff841681146108fa5773ffffffffffffffffffffffffffffffffffffffff80851660009081526003602090815260408083209385168352929052205460ff166108fa576040517f08c379a000000000000000000000000000000000000000000000000000000000815260206004820152601660248201527f4e4f545f415554484f52495a45445f544f5f53454e44000000000000000000006044820152606401610487565b8160005b8181101561093a576109288686868481811061091c5761091c613da2565b90506020020135611149565b8061093281613e55565b9150506108fe565b505050505050565b61083b838383611431565b336109648161095c8486613e3d565b866000610ae2565b6040517f40c10f19000000000000000000000000000000000000000000000000000000008152306004820152602481018490527f000000000000000000000000000000000000000000000000000000000000000073ffffffffffffffffffffffffffffffffffffffff16906340c10f199034906044016000604051808303818588803b1580156109f357600080fd5b505af1158015610a07573d6000803e3d6000fd5b50506040517f23b872dd00000000000000000000000000000000000000000000000000000000815273ffffffffffffffffffffffffffffffffffffffff8581166004830152306024830152604482018790527f00000000000000000000000000000000000000000000000000000000000000001693506323b872dd92506064019050602060405180830381600087803b158015610aa357600080fd5b505af1158015610ab7573d6000803e3d6000fd5b505050506040513d601f19601f82011682018060405250810190610adb9190613c47565b5050505050565b7f000000000000000000000000000000000000000000000000000000000000000015610bc357427f00000000000000000000000000000000000000000000000000000000000000007f000000000000000000000000000000000000000000000000000000000000000081831080610b595750808310155b610bbf576040517f08c379a000000000000000000000000000000000000000000000000000000000815260206004820152600660248201527f50415553454400000000000000000000000000000000000000000000000000006044820152606401610487565b5050505b60008281526020819052604081206040805160e081018252825473ffffffffffffffffffffffffffffffffffffffff8116825264ffffffffff74010000000000000000000000000000000000000000820481166020840152790100000000000000000000000000000000000000000000000000909104811692820192909252600183015463ffffffff8082166060840152640100000000820490931660808301526901000000000000000000810460040b60a08301526e010000000000000000000000000000900490911660c0820152909150600090610ca3908561193a565b9050655af3107a4000610cba826101400151611045565b63ffffffff16610cca9190613e00565b8514610d32576040517f08c379a000000000000000000000000000000000000000000000000000000000815260206004820152600e60248201527f494e56414c49445f414d4f554e540000000000000000000000000000000000006044820152606401610487565b610d3b81611aa2565b610d458682611f8a565b610d518282600061233c565b610d5a84612657565b8215610d76576000848152600b60205260409020429055610d86565b6000848152600b60205260408120555b604080514381524260208201527f438e507c246c311193c77528e3de231eec8ce4727cce091a1dbbecf85b427893910160405180910390a1838673ffffffffffffffffffffffffffffffffffffffff167f9b17abd3d9e9f2eb79e7b7c875e68b77a80c7379ba64ec6ac0d1c254d303269b836060015184608001518560e001518a89604051610e4895949392919063ffffffff958616815260049490940b60208501529190931660408301526060820192909252901515608082015260a00190565b60405180910390a361093a81610120015186612b37565b73ffffffffffffffffffffffffffffffffffffffff821660008181526002602090815260408083208390558051858152918201929092527f05eefb5f2a67125e8c65550a4ffa0f542f75624e866ef58fb72bfb5475403092910160405180910390a26040517fa9059cbb00000000000000000000000000000000000000000000000000000000815273ffffffffffffffffffffffffffffffffffffffff8381166004830152602482018390527f0000000000000000000000000000000000000000000000000000000000000000169063a9059cbb90604401602060405180830381600087803b158015610f5157600080fd5b505af1158015610f65573d6000803e3d6000fd5b505050506040513d601f19601f82011682018060405250810190610f899190613c47565b610fef576040517f08c379a000000000000000000000000000000000000000000000000000000000815260206004820152600f60248201527f4641494c45445f5452414e5346455200000000000000000000000000000000006044820152606401610487565b604080516000808252602082015273ffffffffffffffffffffffffffffffffffffffff8416917f05eefb5f2a67125e8c65550a4ffa0f542f75624e866ef58fb72bfb547540309291015b60405180910390a25050565b600061105082612c34565b6110b6576040517f08c379a000000000000000000000000000000000000000000000000000000000815260206004820152601160248201527f504c414e45545f4e4f545f4558495354530000000000000000000000000000006044820152606401610487565b60006110c383600c612c50565b905060ff81167f00000000000000000000000000000000000000000000000000000000000000007f0000000000000000000000000000000000000000000000000000000000000000611116836002613e8e565b611121906001613eb8565b61ffff166020811061113557611135613da2565b6111419291901a613e00565b949350505050565b6000818152602081905260408120600181015490919061116e9063ffffffff16612cec565b509050806111d8576040517f08c379a000000000000000000000000000000000000000000000000000000000815260206004820152600a60248201527f4e4f545f414354495645000000000000000000000000000000000000000000006044820152606401610487565b815473ffffffffffffffffffffffffffffffffffffffff85811691161461125b576040517f08c379a000000000000000000000000000000000000000000000000000000000815260206004820152600960248201527f4e4f545f4f574e455200000000000000000000000000000000000000000000006044820152606401610487565b8154790100000000000000000000000000000000000000000000000000900464ffffffffff16156112e8576040517f08c379a000000000000000000000000000000000000000000000000000000000815260206004820152600f60248201527f45584954494e475f414c524541445900000000000000000000000000000000006044820152606401610487565b81547fffff0000000000ffffffffffffffffffffffffffffffffffffffffffffffffff167901000000000000000000000000000000000000000000000000004264ffffffffff8116919091029190911783556040805143815260208101929092527f438e507c246c311193c77528e3de231eec8ce4727cce091a1dbbecf85b427893910160405180910390a1604051839073ffffffffffffffffffffffffffffffffffffffff8616907fb9182e4e152947f1e6691fa0ee6f68f21f607fed825945c270e69995acad805f90600090a361030e84655af3107a400061141c61067b87604080517f00000000000000000000000000000000000000000000000000000000000000006020820152908101829052600090606001604051602081830303815290604052805190602001209050919050565b63ffffffff1661142c9190613e00565b612d0b565b60008060005b838110156118b657600061146e86868481811061145657611456613da2565b90506020020135600090815260208190526040902090565b80549091506114a090790100000000000000000000000000000000000000000000000000900464ffffffffff16612d86565b156118a357805473ffffffffffffffffffffffffffffffffffffffff888116911614611528576040517f08c379a000000000000000000000000000000000000000000000000000000000815260206004820152600960248201527f4e4f545f4f574e455200000000000000000000000000000000000000000000006044820152606401610487565b85858381811061153a5761153a613da2565b90506020020135600073ffffffffffffffffffffffffffffffffffffffff168873ffffffffffffffffffffffffffffffffffffffff167fddf252ad1be2c89b69c2b068fc378daa952ba7f163c4a11628f55a4df523b3ef60405160405180910390a46000600b60008888868181106115b4576115b4613da2565b9050602002013581526020019081526020016000205490506000811115611806576116027f00000000000000000000000000000000000000000000000000000000000000006207e900613f0d565b6116129063ffffffff1682613e3d565b8254790100000000000000000000000000000000000000000000000000900464ffffffffff16106117ab5781546000906116e99073ffffffffffffffffffffffffffffffffffffffff1689898781811061166e5761166e613da2565b905060200201356116e48b8b8981811061168a5761168a613da2565b90506020020135604080517f00000000000000000000000000000000000000000000000000000000000000006020820152908101829052600090606001604051602081830303815290604052805190602001209050919050565b612e64565b90506116f58187613e3d565b6040517ff6b911bc00000000000000000000000000000000000000000000000000000000815230600482018190526024820152604481018390529096507f000000000000000000000000000000000000000000000000000000000000000073ffffffffffffffffffffffffffffffffffffffff169063f6b911bc90606401600060405180830381600087803b15801561178d57600080fd5b505af11580156117a1573d6000803e3d6000fd5b5050505050611841565b81546117f59073ffffffffffffffffffffffffffffffffffffffff168888868181106117d9576117d9613da2565b905060200201356116e48a8a8881811061168a5761168a613da2565b6117ff9085613e3d565b9350611841565b81546118349073ffffffffffffffffffffffffffffffffffffffff168888868181106117d9576117d9613da2565b61183e9086613e3d565b94505b5080547fffff0000000000000000000000000000000000000000000000000000000000001681556001810180547fffffffffffffffffffffffffffff0000000000000000000000000000000000001664010000000064ffffffffff4216021790555b50806118ae81613e55565b915050611437565b5073ffffffffffffffffffffffffffffffffffffffff85166000908152600260205260408120546118e8908490613e3d565b90506118f48682610e5f565b73ffffffffffffffffffffffffffffffffffffffff86166000908152600a6020526040812054611925908490613e3d565b90506119318782612fc2565b50505050505050565b6040805161018081018252600080825260208201819052918101829052606081018290526080810182905260a0810182905260c0810182905260e081018290526101008101829052610120810182905261014081018290526101608101919091526000806119ab8560600151612cec565b85855260808088015164ffffffffff908116602088015283151560408089019190915263ffffffff80851660608a015260a0808c015160040b948a0194909452908a01805183169389019390935291511660c0808801919091528801511660e0860152865173ffffffffffffffffffffffffffffffffffffffff9081166101008701528751166101208601529092509050611a9384604080517f00000000000000000000000000000000000000000000000000000000000000006020820152908101829052600090606001604051602081830303815290604052805190602001209050919050565b61014084015250909392505050565b60a081015164ffffffffff1615611af357611ac08160a00151612d86565b15611af357600060c082018190526060820181905260808201819052610120820181905260e08201819052604090910152565b6000816020015164ffffffffff1642611b0c9190613f30565b90506000611b1e8361014001516131a4565b90506000610e1061ffff8316611b5a63ffffffff7f00000000000000000000000000000000000000000000000000000000000000001686613e00565b611b649190613e00565b611b6e9190613f47565b606085015190915063ffffffff1660007f000000000000000000000000000000000000000000000000000000000000000015611ea4576000611baf85613241565b905060008760400151611bc3576000611bc5565b815b905080841115611cab5760e08801516107089063ffffffff1615611c1757828960e0015163ffffffff16610708611bfc9190613e00565b611c069190613f47565b9050610708811015611c1757506107085b6000610e1082611c4d63ffffffff7f0000000000000000000000000000000000000000000000000000000000000000168c613e00565b611c579190613e00565b611c619190613f47565b905080611c6c575060015b611c768387613f30565b811115611c8a57611c878387613f30565b90505b896040015115611c98578094505b611ca28187613f30565b95505050611e0d565b876040015115611e0d5760008590506000896080015160040b1315611dd35760006127107f0000000000000000000000000000000000000000000000000000000000000000611d2461ffff8b1663ffffffff7f000000000000000000000000000000000000000000000000000000000000000016613e00565b611d2e9190613e00565b611d389190613f47565b60808b0151611d509064ffffffffff16610e10613e00565b611d5a9190613f47565b9050888110611d6b57819450611dc5565b610e1061ffff8916611da363ffffffff7f00000000000000000000000000000000000000000000000000000000000000001684613e00565b611dad9190613e00565b611db79190613f47565b945081851115611dc5578194505b611dcf8583613f30565b9150505b6000611ddf8684613f30565b905080821115611e0357611df38183613f30565b611dfd9086613e3d565b94508091505b611ca28287613e3d565b876040015115611e9d57600083612710611e477f000000000000000000000000000000000000000000000000000000000000000089613e00565b611e519190613f47565b611e5b9190613e3d565b905060008160040b8a6080015160040b611e759190613f5b565b9050611e8083613fcf565b811215611e9357611e9083613fcf565b90505b60040b60808a0152505b5050611f2c565b856040015115611ebf57611eb88383613e3d565b9150611f2c565b6000610e10611ef463ffffffff7f00000000000000000000000000000000000000000000000000000000000000001688613e00565b611f0090610708613e00565b611f0a9190613f47565b905082811115611f1d5750600091611f2a565b611f278184613f30565b92505b505b63800000008210611f4f57611f4660016380000000614008565b63ffffffff1691505b63ffffffff821660608701526040860151158015611f755750606086015163ffffffff16155b1561093a576000610120870152505050505050565b806040015115611ff6576040517f08c379a000000000000000000000000000000000000000000000000000000000815260206004820152600c60248201527f5354494c4c5f41435449564500000000000000000000000000000000000000006044820152606401610487565b6000816060015163ffffffff1660001415612024576120198261014001516132ae565b61ffff1690506120be565b8273ffffffffffffffffffffffffffffffffffffffff1682610100015173ffffffffffffffffffffffffffffffffffffffff16146120be576040517f08c379a000000000000000000000000000000000000000000000000000000000815260206004820152600860248201527f4f434355504945440000000000000000000000000000000000000000000000006044820152606401610487565b60006120ce8361014001516131a4565b905060006120db82613241565b73ffffffffffffffffffffffffffffffffffffffff8616610120860152905063ffffffff83161561222d5760006121537f000000000000000000000000000000000000000000000000000000000000000063ffffffff168563ffffffff1661271061214a896101400151613345565b61ffff166133dc565b5090507f000000000000000000000000000000000000000000000000000000000000000063ffffffff168163ffffffff16106121eb576040517f08c379a000000000000000000000000000000000000000000000000000000000815260206004820152600f60248201527f4641494c45445f434150545552454400000000000000000000000000000000006044820152606401610487565b612215817f0000000000000000000000000000000000000000000000000000000000000000614008565b63ffffffff16606086015250600060e08501526122ce565b7f00000000000000000000000000000000000000000000000000000000000000008460600181815161225f919061402d565b63ffffffff169052507f0000000000000000000000000000000000000000000000000000000000000000156122ce578063ffffffff16846060015163ffffffff1611156122c6578084606001516122b69190614008565b63ffffffff1660e08501526122ce565b600060e08501525b60608401516127106123067f000000000000000000000000000000000000000000000000000000000000000063ffffffff8516613e00565b6123109190613f47565b6123199061404c565b612323919061408b565b60030b6080850152505060016040909201919091525050565b60008260a0015164ffffffffff16118015612360575060c082015164ffffffffff16155b1561236e5761236e8261357d565b81610120015173ffffffffffffffffffffffffffffffffffffffff1682610100015173ffffffffffffffffffffffffffffffffffffffff16146124d35761012082015183547fffffffffffffffffffffffff00000000000000000000000000000000000000001673ffffffffffffffffffffffffffffffffffffffff9091169081178455156124425782547fffffffffffffff0000000000ffffffffffffffffffffffffffffffffffffffff16740100000000000000000000000000000000000000004264ffffffffff1602178355612469565b82547fffffffffffffff0000000000ffffffffffffffffffffffffffffffffffffffff1683555b816000015182610120015173ffffffffffffffffffffffffffffffffffffffff1683610100015173ffffffffffffffffffffffffffffffffffffffff167fddf252ad1be2c89b69c2b068fc378daa952ba7f163c4a11628f55a4df523b3ef60405160405180910390a45b80156125045782547fffff0000000000ffffffffffffffffffffffffffffffffffffffffffffffffff168355612575565b8160a0015164ffffffffff168260c0015164ffffffffff16146125755760c0820151835464ffffffffff909116790100000000000000000000000000000000000000000000000000027fffff0000000000ffffffffffffffffffffffffffffffffffffffffffffffffff9091161783555b61258782604001518360600151613839565b60019093018054608084015160e0909401514264ffffffffff908116640100000000027fffffffffffffffffffffffffffffffffffffffffffffff0000000000ffffffff63ffffffff9384166e01000000000000000000000000000002167fffffffffffffffffffffffffffff00000000ffffffffff0000000000ffffffff929097166901000000000000000000027fffffffffffffffffffffffffffffffffffff0000000000ffffffffff00000000909416979092169690961791909117949094169290921792909217905550565b604080516080808201835260055463ffffffff80821684526401000000008204811660208501526801000000000000000082048116948401949094526c0100000000000000000000000090049092166060820152906fffffffffffffffffffffffffffffffff8316600f0b9083901d6000808312156127b757835163ffffffff166126e184613fcf565b1315612749576040517f08c379a000000000000000000000000000000000000000000000000000000000815260206004820152601660248201527f4e4f545f524541434841424c455f5945545f4d494e58000000000000000000006044820152606401610487565b7f000000000000000000000000000000000000000000000000000000000000000060030b61277684613fcf565b61278091906140f0565b925063ffffffff8313156127965763ffffffff92505b835163ffffffff168313156127b2575063ffffffff8216835260015b612896565b836020015163ffffffff1683131561282b576040517f08c379a000000000000000000000000000000000000000000000000000000000815260206004820152601660248201527f4e4f545f524541434841424c455f5945545f4d415858000000000000000000006044820152606401610487565b6128587f000000000000000000000000000000000000000000000000000000000000000060030b846140f0565b925063ffffffff83131561286e5763ffffffff92505b8263ffffffff16846020015163ffffffff161015612896575063ffffffff8216602084015260015b600082121561298f57604084015163ffffffff166128b383613fcf565b131561291b576040517f08c379a000000000000000000000000000000000000000000000000000000000815260206004820152601660248201527f4e4f545f524541434841424c455f5945545f4d494e59000000000000000000006044820152606401610487565b7f000000000000000000000000000000000000000000000000000000000000000060030b61294883613fcf565b61295291906140f0565b915063ffffffff8213156129685763ffffffff91505b81846040015163ffffffff16121561298a575063ffffffff8116604084015260015b612a68565b836060015163ffffffff16821315612a03576040517f08c379a000000000000000000000000000000000000000000000000000000000815260206004820152601660248201527f4e4f545f524541434841424c455f5945545f4d415859000000000000000000006044820152606401610487565b612a307f000000000000000000000000000000000000000000000000000000000000000060030b836140f0565b915063ffffffff821315612a465763ffffffff91505b81846060015163ffffffff161215612a68575063ffffffff8116606084015260015b8015610adb5783516005805460208701516040880151606089015163ffffffff9081166c01000000000000000000000000027fffffffffffffffffffffffffffffffff00000000ffffffffffffffffffffffff9282166801000000000000000002929092167fffffffffffffffffffffffffffffffff0000000000000000ffffffffffffffff938216640100000000027fffffffffffffffffffffffffffffffffffffffffffffffff000000000000000090951691909616179290921716929092179190911790555050505050565b6104ea612b627f27ec6af4a6510eb9b7e0cc7f39415b7f15e430e53eb0cd3997e7c7e0cf680f6e5490565b60405173ffffffffffffffffffffffffffffffffffffffff85166024820152604481018490527ff5d82b6b00000000000000000000000000000000000000000000000000000000906064015b604080517fffffffffffffffffffffffffffffffffffffffffffffffffffffffffffffffe08184030181529190526020810180517bffffffffffffffffffffffffffffffffffffffffffffffffffffffff167fffffffff00000000000000000000000000000000000000000000000000000000909316929092179091526201770061385f565b6000612c43826034601061395c565b60ff166001149050919050565b600080612c5f8484604061395c565b90506000612c6e600283614164565b90506000612c7d600284614186565b905060007f01223334444555555666666677777777888888889999999aaaaaabbbbcccddef60ff841660208110612cb657612cb6613da2565b1a905060ff8216612cd45760048160ff16901c945050505050612ce6565b612cdf601082614186565b9450505050505b92915050565b6380000000818116811490600090612d0490846141a8565b9050915091565b6104ea612d367f27ec6af4a6510eb9b7e0cc7f39415b7f15e430e53eb0cd3997e7c7e0cf680f6e5490565b60405173ffffffffffffffffffffffffffffffffffffffff85166024820152604481018490527fabe7f1ab0000000000000000000000000000000000000000000000000000000090606401612bae565b600064ffffffffff8216612d9c57506000919050565b427f000000000000000000000000000000000000000000000000000000000000000015801590612dec57507f00000000000000000000000000000000000000000000000000000000000000008110155b8015612e1e57507f00000000000000000000000000000000000000000000000000000000000000008364ffffffffff16105b15612e2c5750600192915050565b612e5d7f000000000000000000000000000000000000000000000000000000000000000064ffffffffff8516613e3d565b1092915050565b6000655af3107a4000612e7683611045565b63ffffffff16612e869190613e00565b604080514381524260208201529192507f438e507c246c311193c77528e3de231eec8ce4727cce091a1dbbecf85b427893910160405180910390a1828473ffffffffffffffffffffffffffffffffffffffff167f1c363b29828a892b7cddafe9583ef52e0d5aca0ea7011bda6ccf039e1781f73883604051612f0a91815260200190565b60405180910390a36000838152600760205260409020548015612fba5773ffffffffffffffffffffffffffffffffffffffff85166000818152600860209081526040808320858452825280832080547fffffffffffffffffffffffffffffffffffffffffffffffffffffffffffffff001660011790558783526007909152808220829055518392879290917f74f110a1e0cd4892234c7ba49df9f8a354cd8d29b272f7557c9b8c3c38a653369190a45b509392505050565b73ffffffffffffffffffffffffffffffffffffffff82166000818152600a602090815260408083209290925581518481526001918101919091527f05eefb5f2a67125e8c65550a4ffa0f542f75624e866ef58fb72bfb5475403092910160405180910390a26040517fa9059cbb00000000000000000000000000000000000000000000000000000000815273ffffffffffffffffffffffffffffffffffffffff8381166004830152602482018390527f0000000000000000000000000000000000000000000000000000000000000000169063a9059cbb90604401602060405180830381600087803b1580156130b757600080fd5b505af11580156130cb573d6000803e3d6000fd5b505050506040513d601f19601f820116820180604052508101906130ef9190613c47565b613155576040517f08c379a000000000000000000000000000000000000000000000000000000000815260206004820152600f60248201527f4641494c45445f5452414e5346455200000000000000000000000000000000006044820152606401610487565b60408051600081526001602082015273ffffffffffffffffffffffffffffffffffffffff8416917f05eefb5f2a67125e8c65550a4ffa0f542f75624e866ef58fb72bfb54754030929101611039565b60006131af82612c34565b613215576040517f08c379a000000000000000000000000000000000000000000000000000000000815260206004820152601160248201527f504c414e45545f4e4f545f4558495354530000000000000000000000000000006044820152606401610487565b612ce682600c7f0708083409600a8c0bb80ce40e100e100e100e101068151819c81e7823282ee0613971565b6000610e106132747f000000000000000000000000000000000000000000000000000000000000000061ffff8516613e00565b61327e9190613f47565b612ce69063ffffffff7f000000000000000000000000000000000000000000000000000000000000000016613e3d565b60006132b982612c34565b61331f576040517f08c379a000000000000000000000000000000000000000000000000000000000815260206004820152601160248201527f504c414e45545f4e4f545f4558495354530000000000000000000000000000006044820152606401610487565b61332a82602c612c50565b6133399060ff16610bb8613e8e565b612ce690613a98613eb8565b600061335082612c34565b6133b6576040517f08c379a000000000000000000000000000000000000000000000000000000000815260206004820152601160248201527f504c414e45545f4e4f545f4558495354530000000000000000000000000000006044820152606401610487565b6133c182601c612c50565b6133d09060ff16610190613e8e565b612ce690610fa0613eb8565b6000808515806133ea575084155b156133fa57506000905080613574565b600085613427887f0000000000000000000000000000000000000000000000000000000000000000613e00565b6134319190613f47565b61345e7f0000000000000000000000000000000000000000000000000000000000000000620f4240613f30565b6134689190613e3d565b6134729088613e00565b90506000620f4240856134858885613e00565b61348f9190613f47565b6134999190613f47565b9050808711156134ae57879350809250613571565b6000886134db897f0000000000000000000000000000000000000000000000000000000000000000613e00565b6134e59190613f47565b6135127f0000000000000000000000000000000000000000000000000000000000000000620f4240613f30565b61351c9190613e3d565b6135269089613e00565b90506000620f4240886135398985613e00565b6135439190613f47565b61354d9190613f47565b63ffffffff16905089811061356a5761356760018b613f30565b90505b9450879350505b50505b94509492505050565b60006135988261010001518360000151846101400151612e64565b82516000908152600b60205260409020549091508015613803576135df7f00000000000000000000000000000000000000000000000000000000000000006207e900613f0d565b6135ef9063ffffffff1682613e3d565b8360a0015164ffffffffff161061375b576040517ff6b911bc00000000000000000000000000000000000000000000000000000000815230600482018190526024820152604481018390527f000000000000000000000000000000000000000000000000000000000000000073ffffffffffffffffffffffffffffffffffffffff169063f6b911bc90606401600060405180830381600087803b15801561369557600080fd5b505af11580156136a9573d6000803e3d6000fd5b5050505061010083015173ffffffffffffffffffffffffffffffffffffffff166000908152600260205260408120546136e3908490613e3d565b6101008501805173ffffffffffffffffffffffffffffffffffffffff9081166000908152600260209081526040808320869055935184518681529182019290925293945016917f05eefb5f2a67125e8c65550a4ffa0f542f75624e866ef58fb72bfb547540309291015b60405180910390a250505050565b61010083015173ffffffffffffffffffffffffffffffffffffffff166000908152600a6020526040812054613791908490613e3d565b6101008501805173ffffffffffffffffffffffffffffffffffffffff9081166000908152600a6020908152604091829020859055925181518581526001948101949094529394509216917f05eefb5f2a67125e8c65550a4ffa0f542f75624e866ef58fb72bfb5475403092910161374d565b61010083015173ffffffffffffffffffffffffffffffffffffffff166000908152600260205260408120546136e3908490613e3d565b6000818361384857600061384e565b63800000005b613858919061402d565b9392505050565b73ffffffffffffffffffffffffffffffffffffffff83161561083b578273ffffffffffffffffffffffffffffffffffffffff1681836040516138a191906141cb565b60006040518083038160008787f1925050503d80600081146138df576040519150601f19603f3d011682016040523d82523d6000602084013e6138e4565b606091505b505050603f816138f49190613f47565b5a1161083b576040517f08c379a000000000000000000000000000000000000000000000000000000000815260206004820152601d60248201527f4e4f545f454e4f5547485f4741535f464f525f494e4e45525f43414c4c0000006044820152606401610487565b600061114160ff80841690851686901c614206565b60008061397e8585612c50565b90508261398c82600261421a565b613997906001614243565b60ff16602081106139aa576139aa613da2565b1a836139b783600261421a565b60ff16602081106139ca576139ca613da2565b6139d891901a610100613e8e565b6139e29190613eb8565b95945050505050565b600080604083850312156139fe57600080fd5b50508035926020909101359150565b73ffffffffffffffffffffffffffffffffffffffff81168114613a2f57600080fd5b50565b60008083601f840112613a4457600080fd5b50813567ffffffffffffffff811115613a5c57600080fd5b602083019150836020828501011115613a7457600080fd5b9250929050565b600080600080600060808688031215613a9357600080fd5b8535613a9e81613a0d565b94506020860135613aae81613a0d565b935060408601359250606086013567ffffffffffffffff811115613ad157600080fd5b613add88828901613a32565b969995985093965092949392505050565b600060208284031215613b0057600080fd5b813561385881613a0d565b60008060008060608587031215613b2157600080fd5b8435613b2c81613a0d565b935060208501359250604085013567ffffffffffffffff811115613b4f57600080fd5b613b5b87828801613a32565b95989497509550505050565b60008060408385031215613b7a57600080fd5b8235613b8581613a0d565b946020939093013593505050565b600080600060408486031215613ba857600080fd5b8335613bb381613a0d565b9250602084013567ffffffffffffffff80821115613bd057600080fd5b818601915086601f830112613be457600080fd5b813581811115613bf357600080fd5b8760208260051b8501011115613c0857600080fd5b6020830194508093505050509250925092565b600080600060608486031215613c3057600080fd5b505081359360208301359350604090920135919050565b600060208284031215613c5957600080fd5b8151801515811461385857600080fd5b600060208284031215613c7b57600080fd5b5035919050565b7f4e487b7100000000000000000000000000000000000000000000000000000000600052604160045260246000fd5b60008060408385031215613cc457600080fd5b8235613ccf81613a0d565b915060208381013567ffffffffffffffff80821115613ced57600080fd5b818601915086601f830112613d0157600080fd5b813581811115613d1357613d13613c82565b8060051b6040517fffffffffffffffffffffffffffffffffffffffffffffffffffffffffffffffe0603f83011681018181108582111715613d5657613d56613c82565b604052918252848201925083810185019189831115613d7457600080fd5b938501935b82851015613d9257843584529385019392850192613d79565b8096505050505050509250929050565b7f4e487b7100000000000000000000000000000000000000000000000000000000600052603260045260246000fd5b7f4e487b7100000000000000000000000000000000000000000000000000000000600052601160045260246000fd5b6000817fffffffffffffffffffffffffffffffffffffffffffffffffffffffffffffffff0483118215151615613e3857613e38613dd1565b500290565b60008219821115613e5057613e50613dd1565b500190565b60007fffffffffffffffffffffffffffffffffffffffffffffffffffffffffffffffff821415613e8757613e87613dd1565b5060010190565b600061ffff80831681851681830481118215151615613eaf57613eaf613dd1565b02949350505050565b600061ffff808316818516808303821115613ed557613ed5613dd1565b01949350505050565b7f4e487b7100000000000000000000000000000000000000000000000000000000600052601260045260246000fd5b600063ffffffff80841680613f2457613f24613ede565b92169190910492915050565b600082821015613f4257613f42613dd1565b500390565b600082613f5657613f56613ede565b500490565b6000808312837f800000000000000000000000000000000000000000000000000000000000000001831281151615613f9557613f95613dd1565b837f7fffffffffffffffffffffffffffffffffffffffffffffffffffffffffffffff018313811615613fc957613fc9613dd1565b50500390565b60007f800000000000000000000000000000000000000000000000000000000000000082141561400157614001613dd1565b5060000390565b600063ffffffff8381169083168181101561402557614025613dd1565b039392505050565b600063ffffffff808316818516808303821115613ed557613ed5613dd1565b60008160030b7fffffffffffffffffffffffffffffffffffffffffffffffffffffffff8000000081141561408257614082613dd1565b60000392915050565b60008160030b8360030b60008112817fffffffffffffffffffffffffffffffffffffffffffffffffffffffff80000000018312811516156140ce576140ce613dd1565b81637fffffff0183138116156140e6576140e6613dd1565b5090039392505050565b6000808212827f7fffffffffffffffffffffffffffffffffffffffffffffffffffffffffffffff0384138115161561412a5761412a613dd1565b827f800000000000000000000000000000000000000000000000000000000000000003841281161561415e5761415e613dd1565b50500190565b600060ff83168061417757614177613ede565b8060ff84160491505092915050565b600060ff83168061419957614199613ede565b8060ff84160691505092915050565b600063ffffffff808416806141bf576141bf613ede565b92169190910692915050565b6000825160005b818110156141ec57602081860181015185830152016141d2565b818111156141fb576000828501525b509190910192915050565b60008261421557614215613ede565b500690565b600060ff821660ff84168160ff048111821515161561423b5761423b613dd1565b029392505050565b600060ff821660ff84168060ff0382111561426057614260613dd1565b01939250505056fea2646970667358221220d864fa5612631f0060a7c21a56718a13818f9232067543ccf6bea9302e4ff18064736f6c63430008090033",
  "devdoc": {
    "kind": "dev",
    "methods": {},
    "version": 1
  },
  "userdoc": {
    "kind": "user",
    "methods": {},
    "version": 1
  },
  "storageLayout": {
    "storage": [
      {
        "astId": 19504,
        "contract": "src/outerspace/facets/OuterSpaceStakingFacet.sol:OuterSpaceStakingFacet",
        "label": "_planets",
        "offset": 0,
        "slot": "0",
        "type": "t_mapping(t_uint256,t_struct(Planet)28057_storage)"
      },
      {
        "astId": 19509,
        "contract": "src/outerspace/facets/OuterSpaceStakingFacet.sol:OuterSpaceStakingFacet",
        "label": "_fleets",
        "offset": 0,
        "slot": "1",
        "type": "t_mapping(t_uint256,t_struct(Fleet)28066_storage)"
      },
      {
        "astId": 19513,
        "contract": "src/outerspace/facets/OuterSpaceStakingFacet.sol:OuterSpaceStakingFacet",
        "label": "_stakeReadyToBeWithdrawn",
        "offset": 0,
        "slot": "2",
        "type": "t_mapping(t_address,t_uint256)"
      },
      {
        "astId": 19519,
        "contract": "src/outerspace/facets/OuterSpaceStakingFacet.sol:OuterSpaceStakingFacet",
        "label": "_operators",
        "offset": 0,
        "slot": "3",
        "type": "t_mapping(t_address,t_mapping(t_address,t_bool))"
      },
      {
        "astId": 19526,
        "contract": "src/outerspace/facets/OuterSpaceStakingFacet.sol:OuterSpaceStakingFacet",
        "label": "_inFlight",
        "offset": 0,
        "slot": "4",
        "type": "t_mapping(t_uint256,t_mapping(t_uint256,t_struct(InFlight)28033_storage))"
      },
      {
        "astId": 19529,
        "contract": "src/outerspace/facets/OuterSpaceStakingFacet.sol:OuterSpaceStakingFacet",
        "label": "_discovered",
        "offset": 0,
        "slot": "5",
        "type": "t_struct(Discovered)28042_storage"
      },
      {
        "astId": 19533,
        "contract": "src/outerspace/facets/OuterSpaceStakingFacet.sol:OuterSpaceStakingFacet",
        "label": "_prevRewardIds",
        "offset": 0,
        "slot": "6",
        "type": "t_mapping(t_address,t_uint256)"
      },
      {
        "astId": 19537,
        "contract": "src/outerspace/facets/OuterSpaceStakingFacet.sol:OuterSpaceStakingFacet",
        "label": "_rewards",
        "offset": 0,
        "slot": "7",
        "type": "t_mapping(t_uint256,t_uint256)"
      },
      {
        "astId": 19543,
        "contract": "src/outerspace/facets/OuterSpaceStakingFacet.sol:OuterSpaceStakingFacet",
        "label": "_rewardsToWithdraw",
        "offset": 0,
        "slot": "8",
        "type": "t_mapping(t_address,t_mapping(t_uint256,t_bool))"
      },
      {
        "astId": 19552,
        "contract": "src/outerspace/facets/OuterSpaceStakingFacet.sol:OuterSpaceStakingFacet",
        "label": "_attacks",
        "offset": 0,
        "slot": "9",
        "type": "t_mapping(t_uint256,t_mapping(t_address,t_mapping(t_uint256,t_struct(AccumulatedAttack)28139_storage)))"
      },
      {
        "astId": 19556,
        "contract": "src/outerspace/facets/OuterSpaceStakingFacet.sol:OuterSpaceStakingFacet",
        "label": "_freeStakeReadyToBeWithdrawn",
        "offset": 0,
        "slot": "10",
        "type": "t_mapping(t_address,t_uint256)"
      },
      {
        "astId": 19560,
        "contract": "src/outerspace/facets/OuterSpaceStakingFacet.sol:OuterSpaceStakingFacet",
        "label": "_planetFlagged",
        "offset": 0,
        "slot": "11",
        "type": "t_mapping(t_uint256,t_uint256)"
      }
    ],
    "types": {
      "t_address": {
        "encoding": "inplace",
        "label": "address",
        "numberOfBytes": "20"
      },
      "t_bool": {
        "encoding": "inplace",
        "label": "bool",
        "numberOfBytes": "1"
      },
      "t_int40": {
        "encoding": "inplace",
        "label": "int40",
        "numberOfBytes": "5"
      },
      "t_mapping(t_address,t_bool)": {
        "encoding": "mapping",
        "key": "t_address",
        "label": "mapping(address => bool)",
        "numberOfBytes": "32",
        "value": "t_bool"
      },
      "t_mapping(t_address,t_mapping(t_address,t_bool))": {
        "encoding": "mapping",
        "key": "t_address",
        "label": "mapping(address => mapping(address => bool))",
        "numberOfBytes": "32",
        "value": "t_mapping(t_address,t_bool)"
      },
      "t_mapping(t_address,t_mapping(t_uint256,t_bool))": {
        "encoding": "mapping",
        "key": "t_address",
        "label": "mapping(address => mapping(uint256 => bool))",
        "numberOfBytes": "32",
        "value": "t_mapping(t_uint256,t_bool)"
      },
      "t_mapping(t_address,t_mapping(t_uint256,t_struct(AccumulatedAttack)28139_storage))": {
        "encoding": "mapping",
        "key": "t_address",
        "label": "mapping(address => mapping(uint256 => struct ImportingOuterSpaceTypes.AccumulatedAttack))",
        "numberOfBytes": "32",
        "value": "t_mapping(t_uint256,t_struct(AccumulatedAttack)28139_storage)"
      },
      "t_mapping(t_address,t_uint256)": {
        "encoding": "mapping",
        "key": "t_address",
        "label": "mapping(address => uint256)",
        "numberOfBytes": "32",
        "value": "t_uint256"
      },
      "t_mapping(t_uint256,t_bool)": {
        "encoding": "mapping",
        "key": "t_uint256",
        "label": "mapping(uint256 => bool)",
        "numberOfBytes": "32",
        "value": "t_bool"
      },
      "t_mapping(t_uint256,t_mapping(t_address,t_mapping(t_uint256,t_struct(AccumulatedAttack)28139_storage)))": {
        "encoding": "mapping",
        "key": "t_uint256",
        "label": "mapping(uint256 => mapping(address => mapping(uint256 => struct ImportingOuterSpaceTypes.AccumulatedAttack)))",
        "numberOfBytes": "32",
        "value": "t_mapping(t_address,t_mapping(t_uint256,t_struct(AccumulatedAttack)28139_storage))"
      },
      "t_mapping(t_uint256,t_mapping(t_uint256,t_struct(InFlight)28033_storage))": {
        "encoding": "mapping",
        "key": "t_uint256",
        "label": "mapping(uint256 => mapping(uint256 => struct ImportingOuterSpaceTypes.InFlight))",
        "numberOfBytes": "32",
        "value": "t_mapping(t_uint256,t_struct(InFlight)28033_storage)"
      },
      "t_mapping(t_uint256,t_struct(AccumulatedAttack)28139_storage)": {
        "encoding": "mapping",
        "key": "t_uint256",
        "label": "mapping(uint256 => struct ImportingOuterSpaceTypes.AccumulatedAttack)",
        "numberOfBytes": "32",
        "value": "t_struct(AccumulatedAttack)28139_storage"
      },
      "t_mapping(t_uint256,t_struct(Fleet)28066_storage)": {
        "encoding": "mapping",
        "key": "t_uint256",
        "label": "mapping(uint256 => struct ImportingOuterSpaceTypes.Fleet)",
        "numberOfBytes": "32",
        "value": "t_struct(Fleet)28066_storage"
      },
      "t_mapping(t_uint256,t_struct(InFlight)28033_storage)": {
        "encoding": "mapping",
        "key": "t_uint256",
        "label": "mapping(uint256 => struct ImportingOuterSpaceTypes.InFlight)",
        "numberOfBytes": "32",
        "value": "t_struct(InFlight)28033_storage"
      },
      "t_mapping(t_uint256,t_struct(Planet)28057_storage)": {
        "encoding": "mapping",
        "key": "t_uint256",
        "label": "mapping(uint256 => struct ImportingOuterSpaceTypes.Planet)",
        "numberOfBytes": "32",
        "value": "t_struct(Planet)28057_storage"
      },
      "t_mapping(t_uint256,t_uint256)": {
        "encoding": "mapping",
        "key": "t_uint256",
        "label": "mapping(uint256 => uint256)",
        "numberOfBytes": "32",
        "value": "t_uint256"
      },
      "t_struct(AccumulatedAttack)28139_storage": {
        "encoding": "inplace",
        "label": "struct ImportingOuterSpaceTypes.AccumulatedAttack",
        "members": [
          {
            "astId": 28132,
            "contract": "src/outerspace/facets/OuterSpaceStakingFacet.sol:OuterSpaceStakingFacet",
            "label": "target",
            "offset": 0,
            "slot": "0",
            "type": "t_address"
          },
          {
            "astId": 28134,
            "contract": "src/outerspace/facets/OuterSpaceStakingFacet.sol:OuterSpaceStakingFacet",
            "label": "numAttackSpent",
            "offset": 20,
            "slot": "0",
            "type": "t_uint32"
          },
          {
            "astId": 28136,
            "contract": "src/outerspace/facets/OuterSpaceStakingFacet.sol:OuterSpaceStakingFacet",
            "label": "damageCausedSoFar",
            "offset": 24,
            "slot": "0",
            "type": "t_uint32"
          },
          {
            "astId": 28138,
            "contract": "src/outerspace/facets/OuterSpaceStakingFacet.sol:OuterSpaceStakingFacet",
            "label": "averageAttackPower",
            "offset": 28,
            "slot": "0",
            "type": "t_uint16"
          }
        ],
        "numberOfBytes": "32"
      },
      "t_struct(Discovered)28042_storage": {
        "encoding": "inplace",
        "label": "struct ImportingOuterSpaceTypes.Discovered",
        "members": [
          {
            "astId": 28035,
            "contract": "src/outerspace/facets/OuterSpaceStakingFacet.sol:OuterSpaceStakingFacet",
            "label": "minX",
            "offset": 0,
            "slot": "0",
            "type": "t_uint32"
          },
          {
            "astId": 28037,
            "contract": "src/outerspace/facets/OuterSpaceStakingFacet.sol:OuterSpaceStakingFacet",
            "label": "maxX",
            "offset": 4,
            "slot": "0",
            "type": "t_uint32"
          },
          {
            "astId": 28039,
            "contract": "src/outerspace/facets/OuterSpaceStakingFacet.sol:OuterSpaceStakingFacet",
            "label": "minY",
            "offset": 8,
            "slot": "0",
            "type": "t_uint32"
          },
          {
            "astId": 28041,
            "contract": "src/outerspace/facets/OuterSpaceStakingFacet.sol:OuterSpaceStakingFacet",
            "label": "maxY",
            "offset": 12,
            "slot": "0",
            "type": "t_uint32"
          }
        ],
        "numberOfBytes": "32"
      },
      "t_struct(Fleet)28066_storage": {
        "encoding": "inplace",
        "label": "struct ImportingOuterSpaceTypes.Fleet",
        "members": [
          {
            "astId": 28059,
            "contract": "src/outerspace/facets/OuterSpaceStakingFacet.sol:OuterSpaceStakingFacet",
            "label": "owner",
            "offset": 0,
            "slot": "0",
            "type": "t_address"
          },
          {
            "astId": 28061,
            "contract": "src/outerspace/facets/OuterSpaceStakingFacet.sol:OuterSpaceStakingFacet",
            "label": "launchTime",
            "offset": 20,
            "slot": "0",
            "type": "t_uint40"
          },
          {
            "astId": 28063,
            "contract": "src/outerspace/facets/OuterSpaceStakingFacet.sol:OuterSpaceStakingFacet",
            "label": "quantity",
            "offset": 25,
            "slot": "0",
            "type": "t_uint32"
          },
          {
            "astId": 28065,
            "contract": "src/outerspace/facets/OuterSpaceStakingFacet.sol:OuterSpaceStakingFacet",
            "label": "futureExtraProduction",
            "offset": 29,
            "slot": "0",
            "type": "t_uint24"
          }
        ],
        "numberOfBytes": "32"
      },
      "t_struct(InFlight)28033_storage": {
        "encoding": "inplace",
        "label": "struct ImportingOuterSpaceTypes.InFlight",
        "members": [
          {
            "astId": 28030,
            "contract": "src/outerspace/facets/OuterSpaceStakingFacet.sol:OuterSpaceStakingFacet",
            "label": "flying",
            "offset": 0,
            "slot": "0",
            "type": "t_uint32"
          },
          {
            "astId": 28032,
            "contract": "src/outerspace/facets/OuterSpaceStakingFacet.sol:OuterSpaceStakingFacet",
            "label": "destroyed",
            "offset": 4,
            "slot": "0",
            "type": "t_uint32"
          }
        ],
        "numberOfBytes": "32"
      },
      "t_struct(Planet)28057_storage": {
        "encoding": "inplace",
        "label": "struct ImportingOuterSpaceTypes.Planet",
        "members": [
          {
            "astId": 28044,
            "contract": "src/outerspace/facets/OuterSpaceStakingFacet.sol:OuterSpaceStakingFacet",
            "label": "owner",
            "offset": 0,
            "slot": "0",
            "type": "t_address"
          },
          {
            "astId": 28046,
            "contract": "src/outerspace/facets/OuterSpaceStakingFacet.sol:OuterSpaceStakingFacet",
            "label": "ownershipStartTime",
            "offset": 20,
            "slot": "0",
            "type": "t_uint40"
          },
          {
            "astId": 28048,
            "contract": "src/outerspace/facets/OuterSpaceStakingFacet.sol:OuterSpaceStakingFacet",
            "label": "exitStartTime",
            "offset": 25,
            "slot": "0",
            "type": "t_uint40"
          },
          {
            "astId": 28050,
            "contract": "src/outerspace/facets/OuterSpaceStakingFacet.sol:OuterSpaceStakingFacet",
            "label": "numSpaceships",
            "offset": 0,
            "slot": "1",
            "type": "t_uint32"
          },
          {
            "astId": 28052,
            "contract": "src/outerspace/facets/OuterSpaceStakingFacet.sol:OuterSpaceStakingFacet",
            "label": "lastUpdated",
            "offset": 4,
            "slot": "1",
            "type": "t_uint40"
          },
          {
            "astId": 28054,
            "contract": "src/outerspace/facets/OuterSpaceStakingFacet.sol:OuterSpaceStakingFacet",
            "label": "travelingUpkeep",
            "offset": 9,
            "slot": "1",
            "type": "t_int40"
          },
          {
            "astId": 28056,
            "contract": "src/outerspace/facets/OuterSpaceStakingFacet.sol:OuterSpaceStakingFacet",
            "label": "overflow",
            "offset": 14,
            "slot": "1",
            "type": "t_uint32"
          }
        ],
        "numberOfBytes": "64"
      },
      "t_uint16": {
        "encoding": "inplace",
        "label": "uint16",
        "numberOfBytes": "2"
      },
      "t_uint24": {
        "encoding": "inplace",
        "label": "uint24",
        "numberOfBytes": "3"
      },
      "t_uint256": {
        "encoding": "inplace",
        "label": "uint256",
        "numberOfBytes": "32"
      },
      "t_uint32": {
        "encoding": "inplace",
        "label": "uint32",
        "numberOfBytes": "4"
      },
      "t_uint40": {
        "encoding": "inplace",
        "label": "uint40",
        "numberOfBytes": "5"
      }
    }
  }
}