{
  "address": "0xe2Dc8E8e85e7795460619cefb4Dfbc7cb411b87E",
  "abi": [
    {
      "inputs": [
        {
          "components": [
            {
              "internalType": "contract StakingToken",
              "name": "stakingToken",
              "type": "address"
            },
            {
              "internalType": "contract IFreePlayToken",
              "name": "freeStakingToken",
              "type": "address"
            },
            {
              "internalType": "contract AllianceRegistry",
              "name": "allianceRegistry",
              "type": "address"
            },
            {
              "internalType": "bytes32",
              "name": "genesis",
              "type": "bytes32"
            },
            {
              "internalType": "uint256",
              "name": "resolveWindow",
              "type": "uint256"
            },
            {
              "internalType": "uint256",
              "name": "timePerDistance",
              "type": "uint256"
            },
            {
              "internalType": "uint256",
              "name": "exitDuration",
              "type": "uint256"
            },
            {
              "internalType": "uint32",
              "name": "acquireNumSpaceships",
              "type": "uint32"
            },
            {
              "internalType": "uint32",
              "name": "productionSpeedUp",
              "type": "uint32"
            },
            {
              "internalType": "uint256",
              "name": "frontrunningDelay",
              "type": "uint256"
            },
            {
              "internalType": "uint256",
              "name": "productionCapAsDuration",
              "type": "uint256"
            },
            {
              "internalType": "uint256",
              "name": "upkeepProductionDecreaseRatePer10000th",
              "type": "uint256"
            },
            {
              "internalType": "uint256",
              "name": "fleetSizeFactor6",
              "type": "uint256"
            },
            {
              "internalType": "uint32",
              "name": "initialSpaceExpansion",
              "type": "uint32"
            },
            {
              "internalType": "uint32",
              "name": "expansionDelta",
              "type": "uint32"
            },
            {
              "internalType": "uint256",
              "name": "giftTaxPer10000",
              "type": "uint256"
            },
            {
              "internalType": "bytes32",
              "name": "stakeRange",
              "type": "bytes32"
            },
            {
              "internalType": "uint256",
              "name": "stakeMultiplier10000th",
              "type": "uint256"
            },
            {
              "internalType": "uint256",
              "name": "bootstrapSessionEndTime",
              "type": "uint256"
            },
            {
              "internalType": "uint256",
              "name": "infinityStartTime",
              "type": "uint256"
            }
          ],
          "internalType": "struct OuterSpaceFacetBase.Config",
          "name": "config",
          "type": "tuple"
        }
      ],
      "stateMutability": "nonpayable",
      "type": "constructor"
    },
    {
      "anonymous": false,
      "inputs": [
        {
          "indexed": true,
          "internalType": "address",
          "name": "owner",
          "type": "address"
        },
        {
          "indexed": true,
          "internalType": "address",
          "name": "operator",
          "type": "address"
        },
        {
          "indexed": false,
          "internalType": "bool",
          "name": "approved",
          "type": "bool"
        }
      ],
      "name": "ApprovalForAll",
      "type": "event"
    },
    {
      "anonymous": false,
      "inputs": [
        {
          "indexed": false,
          "internalType": "uint256",
          "name": "block",
          "type": "uint256"
        },
        {
          "indexed": false,
          "internalType": "uint256",
          "name": "timestamp",
          "type": "uint256"
        }
      ],
      "name": "BlockTime",
      "type": "event"
    },
    {
      "anonymous": false,
      "inputs": [
        {
          "indexed": true,
          "internalType": "address",
          "name": "owner",
          "type": "address"
        },
        {
          "indexed": true,
          "internalType": "uint256",
          "name": "location",
          "type": "uint256"
        },
        {
          "indexed": false,
          "internalType": "uint256",
          "name": "stake",
          "type": "uint256"
        }
      ],
      "name": "ExitComplete",
      "type": "event"
    },
    {
      "anonymous": false,
      "inputs": [
        {
          "indexed": true,
          "internalType": "uint256",
          "name": "fleet",
          "type": "uint256"
        },
        {
          "indexed": true,
          "internalType": "address",
          "name": "fleetOwner",
          "type": "address"
        },
        {
          "indexed": true,
          "internalType": "address",
          "name": "destinationOwner",
          "type": "address"
        },
        {
          "indexed": false,
          "internalType": "uint256",
          "name": "destination",
          "type": "uint256"
        },
        {
          "indexed": false,
          "internalType": "bool",
          "name": "gift",
          "type": "bool"
        },
        {
          "indexed": false,
          "internalType": "bool",
          "name": "won",
          "type": "bool"
        },
        {
          "components": [
            {
              "internalType": "uint32",
              "name": "newNumspaceships",
              "type": "uint32"
            },
            {
              "internalType": "int40",
              "name": "newTravelingUpkeep",
              "type": "int40"
            },
            {
              "internalType": "uint32",
              "name": "newOverflow",
              "type": "uint32"
            },
            {
              "internalType": "uint32",
              "name": "numSpaceshipsAtArrival",
              "type": "uint32"
            },
            {
              "internalType": "uint32",
              "name": "taxLoss",
              "type": "uint32"
            },
            {
              "internalType": "uint32",
              "name": "fleetLoss",
              "type": "uint32"
            },
            {
              "internalType": "uint32",
              "name": "planetLoss",
              "type": "uint32"
            },
            {
              "internalType": "uint32",
              "name": "inFlightFleetLoss",
              "type": "uint32"
            },
            {
              "internalType": "uint32",
              "name": "inFlightPlanetLoss",
              "type": "uint32"
            },
            {
              "internalType": "uint32",
              "name": "accumulatedDefenseAdded",
              "type": "uint32"
            },
            {
              "internalType": "uint32",
              "name": "accumulatedAttackAdded",
              "type": "uint32"
            }
          ],
          "indexed": false,
          "internalType": "struct ImportingOuterSpaceEvents.ArrivalData",
          "name": "data",
          "type": "tuple"
        }
      ],
      "name": "FleetArrived",
      "type": "event"
    },
    {
      "anonymous": false,
      "inputs": [
        {
          "indexed": true,
          "internalType": "address",
          "name": "fleetSender",
          "type": "address"
        },
        {
          "indexed": true,
          "internalType": "address",
          "name": "fleetOwner",
          "type": "address"
        },
        {
          "indexed": true,
          "internalType": "uint256",
          "name": "from",
          "type": "uint256"
        },
        {
          "indexed": false,
          "internalType": "address",
          "name": "operator",
          "type": "address"
        },
        {
          "indexed": false,
          "internalType": "uint256",
          "name": "fleet",
          "type": "uint256"
        },
        {
          "indexed": false,
          "internalType": "uint32",
          "name": "quantity",
          "type": "uint32"
        },
        {
          "indexed": false,
          "internalType": "uint32",
          "name": "newNumSpaceships",
          "type": "uint32"
        },
        {
          "indexed": false,
          "internalType": "int40",
          "name": "newTravelingUpkeep",
          "type": "int40"
        },
        {
          "indexed": false,
          "internalType": "uint32",
          "name": "newOverflow",
          "type": "uint32"
        }
      ],
      "name": "FleetSent",
      "type": "event"
    },
    {
      "anonymous": false,
      "inputs": [
        {
          "indexed": false,
          "internalType": "address",
          "name": "newGeneratorAdmin",
          "type": "address"
        }
      ],
      "name": "GeneratorAdminChanged",
      "type": "event"
    },
    {
      "anonymous": false,
      "inputs": [
        {
          "indexed": false,
          "internalType": "address",
          "name": "newGenerator",
          "type": "address"
        }
      ],
      "name": "GeneratorChanged",
      "type": "event"
    },
    {
      "anonymous": false,
      "inputs": [
        {
          "indexed": false,
          "internalType": "bytes32",
          "name": "genesis",
          "type": "bytes32"
        },
        {
          "indexed": false,
          "internalType": "uint256",
          "name": "resolveWindow",
          "type": "uint256"
        },
        {
          "indexed": false,
          "internalType": "uint256",
          "name": "timePerDistance",
          "type": "uint256"
        },
        {
          "indexed": false,
          "internalType": "uint256",
          "name": "exitDuration",
          "type": "uint256"
        },
        {
          "indexed": false,
          "internalType": "uint32",
          "name": "acquireNumSpaceships",
          "type": "uint32"
        },
        {
          "indexed": false,
          "internalType": "uint32",
          "name": "productionSpeedUp",
          "type": "uint32"
        },
        {
          "indexed": false,
          "internalType": "uint256",
          "name": "frontrunningDelay",
          "type": "uint256"
        },
        {
          "indexed": false,
          "internalType": "uint256",
          "name": "productionCapAsDuration",
          "type": "uint256"
        },
        {
          "indexed": false,
          "internalType": "uint256",
          "name": "upkeepProductionDecreaseRatePer10000th",
          "type": "uint256"
        },
        {
          "indexed": false,
          "internalType": "uint256",
          "name": "fleetSizeFactor6",
          "type": "uint256"
        },
        {
          "indexed": false,
          "internalType": "uint32",
          "name": "initialSpaceExpansion",
          "type": "uint32"
        },
        {
          "indexed": false,
          "internalType": "uint32",
          "name": "expansionDelta",
          "type": "uint32"
        },
        {
          "indexed": false,
          "internalType": "uint256",
          "name": "giftTaxPer10000",
          "type": "uint256"
        }
      ],
      "name": "Initialized",
      "type": "event"
    },
    {
      "anonymous": false,
      "inputs": [
        {
          "indexed": true,
          "internalType": "address",
          "name": "owner",
          "type": "address"
        },
        {
          "indexed": true,
          "internalType": "uint256",
          "name": "location",
          "type": "uint256"
        }
      ],
      "name": "PlanetExit",
      "type": "event"
    },
    {
      "anonymous": false,
      "inputs": [
        {
          "indexed": true,
          "internalType": "uint256",
          "name": "location",
          "type": "uint256"
        }
      ],
      "name": "PlanetReset",
      "type": "event"
    },
    {
      "anonymous": false,
      "inputs": [
        {
          "indexed": true,
          "internalType": "address",
          "name": "acquirer",
          "type": "address"
        },
        {
          "indexed": true,
          "internalType": "uint256",
          "name": "location",
          "type": "uint256"
        },
        {
          "indexed": false,
          "internalType": "uint32",
          "name": "numSpaceships",
          "type": "uint32"
        },
        {
          "indexed": false,
          "internalType": "int40",
          "name": "travelingUpkeep",
          "type": "int40"
        },
        {
          "indexed": false,
          "internalType": "uint32",
          "name": "overflow",
          "type": "uint32"
        },
        {
          "indexed": false,
          "internalType": "uint256",
          "name": "stake",
          "type": "uint256"
        },
        {
          "indexed": false,
          "internalType": "bool",
          "name": "freegift",
          "type": "bool"
        }
      ],
      "name": "PlanetStake",
      "type": "event"
    },
    {
      "anonymous": false,
      "inputs": [
        {
          "indexed": true,
          "internalType": "address",
          "name": "previousOwner",
          "type": "address"
        },
        {
          "indexed": true,
          "internalType": "address",
          "name": "newOwner",
          "type": "address"
        },
        {
          "indexed": true,
          "internalType": "uint256",
          "name": "location",
          "type": "uint256"
        },
        {
          "indexed": false,
          "internalType": "uint32",
          "name": "newNumspaceships",
          "type": "uint32"
        },
        {
          "indexed": false,
          "internalType": "int40",
          "name": "newTravelingUpkeep",
          "type": "int40"
        },
        {
          "indexed": false,
          "internalType": "uint32",
          "name": "newOverflow",
          "type": "uint32"
        }
      ],
      "name": "PlanetTransfer",
      "type": "event"
    },
    {
      "anonymous": false,
      "inputs": [
        {
          "indexed": true,
          "internalType": "uint256",
          "name": "location",
          "type": "uint256"
        },
        {
          "indexed": true,
          "internalType": "address",
          "name": "giver",
          "type": "address"
        },
        {
          "indexed": false,
          "internalType": "uint256",
          "name": "rewardId",
          "type": "uint256"
        }
      ],
      "name": "RewardSetup",
      "type": "event"
    },
    {
      "anonymous": false,
      "inputs": [
        {
          "indexed": true,
          "internalType": "address",
          "name": "owner",
          "type": "address"
        },
        {
          "indexed": true,
          "internalType": "uint256",
          "name": "location",
          "type": "uint256"
        },
        {
          "indexed": true,
          "internalType": "uint256",
          "name": "rewardId",
          "type": "uint256"
        }
      ],
      "name": "RewardToWithdraw",
      "type": "event"
    },
    {
      "anonymous": false,
      "inputs": [
        {
          "indexed": true,
          "internalType": "address",
          "name": "owner",
          "type": "address"
        },
        {
          "indexed": false,
          "internalType": "uint256",
          "name": "newStake",
          "type": "uint256"
        },
        {
          "indexed": false,
          "internalType": "bool",
          "name": "freegift",
          "type": "bool"
        }
      ],
      "name": "StakeToWithdraw",
      "type": "event"
    },
    {
      "anonymous": false,
      "inputs": [
        {
          "indexed": true,
          "internalType": "address",
          "name": "from",
          "type": "address"
        },
        {
          "indexed": true,
          "internalType": "address",
          "name": "to",
          "type": "address"
        },
        {
          "indexed": true,
          "internalType": "uint256",
          "name": "location",
          "type": "uint256"
        }
      ],
      "name": "Transfer",
      "type": "event"
    },
    {
      "anonymous": false,
      "inputs": [
        {
          "indexed": true,
          "internalType": "uint256",
          "name": "origin",
          "type": "uint256"
        },
        {
          "indexed": true,
          "internalType": "uint256",
          "name": "fleet",
          "type": "uint256"
        },
        {
          "indexed": false,
          "internalType": "uint32",
          "name": "newNumspaceships",
          "type": "uint32"
        },
        {
          "indexed": false,
          "internalType": "int40",
          "name": "newTravelingUpkeep",
          "type": "int40"
        },
        {
          "indexed": false,
          "internalType": "uint32",
          "name": "newOverflow",
          "type": "uint32"
        }
      ],
      "name": "TravelingUpkeepRefund",
      "type": "event"
    },
    {
      "inputs": [],
      "name": "contractURI",
      "outputs": [
        {
          "internalType": "string",
          "name": "",
          "type": "string"
        }
      ],
      "stateMutability": "pure",
      "type": "function"
    },
    {
      "inputs": [
        {
          "internalType": "uint256",
          "name": "location",
          "type": "uint256"
        }
      ],
      "name": "getPlanet",
      "outputs": [
        {
          "components": [
            {
              "internalType": "address",
              "name": "owner",
              "type": "address"
            },
            {
              "internalType": "uint40",
              "name": "ownershipStartTime",
              "type": "uint40"
            },
            {
              "internalType": "uint40",
              "name": "exitStartTime",
              "type": "uint40"
            },
            {
              "internalType": "uint32",
              "name": "numSpaceships",
              "type": "uint32"
            },
            {
              "internalType": "uint32",
              "name": "overflow",
              "type": "uint32"
            },
            {
              "internalType": "uint40",
              "name": "lastUpdated",
              "type": "uint40"
            },
            {
              "internalType": "bool",
              "name": "active",
              "type": "bool"
            },
            {
              "internalType": "uint256",
              "name": "reward",
              "type": "uint256"
            }
          ],
          "internalType": "struct ImportingOuterSpaceTypes.ExternalPlanet",
          "name": "state",
          "type": "tuple"
        },
        {
          "components": [
            {
              "internalType": "int8",
              "name": "subX",
              "type": "int8"
            },
            {
              "internalType": "int8",
              "name": "subY",
              "type": "int8"
            },
            {
              "internalType": "uint32",
              "name": "stake",
              "type": "uint32"
            },
            {
              "internalType": "uint16",
              "name": "production",
              "type": "uint16"
            },
            {
              "internalType": "uint16",
              "name": "attack",
              "type": "uint16"
            },
            {
              "internalType": "uint16",
              "name": "defense",
              "type": "uint16"
            },
            {
              "internalType": "uint16",
              "name": "speed",
              "type": "uint16"
            },
            {
              "internalType": "uint16",
              "name": "natives",
              "type": "uint16"
            }
          ],
          "internalType": "struct ImportingOuterSpaceTypes.PlanetStats",
          "name": "stats",
          "type": "tuple"
        }
      ],
      "stateMutability": "view",
      "type": "function"
    },
    {
      "inputs": [
        {
          "internalType": "uint256",
          "name": "location",
          "type": "uint256"
        }
      ],
      "name": "getPlanetState",
      "outputs": [
        {
          "components": [
            {
              "internalType": "address",
              "name": "owner",
              "type": "address"
            },
            {
              "internalType": "uint40",
              "name": "ownershipStartTime",
              "type": "uint40"
            },
            {
              "internalType": "uint40",
              "name": "exitStartTime",
              "type": "uint40"
            },
            {
              "internalType": "uint32",
              "name": "numSpaceships",
              "type": "uint32"
            },
            {
              "internalType": "uint32",
              "name": "overflow",
              "type": "uint32"
            },
            {
              "internalType": "uint40",
              "name": "lastUpdated",
              "type": "uint40"
            },
            {
              "internalType": "bool",
              "name": "active",
              "type": "bool"
            },
            {
              "internalType": "uint256",
              "name": "reward",
              "type": "uint256"
            }
          ],
          "internalType": "struct ImportingOuterSpaceTypes.ExternalPlanet",
          "name": "state",
          "type": "tuple"
        }
      ],
      "stateMutability": "view",
      "type": "function"
    },
    {
      "inputs": [
        {
          "internalType": "uint256",
          "name": "location",
          "type": "uint256"
        }
      ],
      "name": "getUpdatedPlanetState",
      "outputs": [
        {
          "components": [
            {
              "internalType": "address",
              "name": "owner",
              "type": "address"
            },
            {
              "internalType": "uint40",
              "name": "ownershipStartTime",
              "type": "uint40"
            },
            {
              "internalType": "uint40",
              "name": "exitStartTime",
              "type": "uint40"
            },
            {
              "internalType": "uint32",
              "name": "numSpaceships",
              "type": "uint32"
            },
            {
              "internalType": "uint32",
              "name": "overflow",
              "type": "uint32"
            },
            {
              "internalType": "uint40",
              "name": "lastUpdated",
              "type": "uint40"
            },
            {
              "internalType": "bool",
              "name": "active",
              "type": "bool"
            },
            {
              "internalType": "uint256",
              "name": "reward",
              "type": "uint256"
            }
          ],
          "internalType": "struct ImportingOuterSpaceTypes.ExternalPlanet",
          "name": "state",
          "type": "tuple"
        }
      ],
      "stateMutability": "view",
      "type": "function"
    },
    {
      "inputs": [
        {
          "internalType": "address",
          "name": "owner",
          "type": "address"
        },
        {
          "internalType": "address",
          "name": "operator",
          "type": "address"
        }
      ],
      "name": "isApprovedForAll",
      "outputs": [
        {
          "internalType": "bool",
          "name": "",
          "type": "bool"
        }
      ],
      "stateMutability": "view",
      "type": "function"
    },
    {
      "inputs": [],
      "name": "name",
      "outputs": [
        {
          "internalType": "string",
          "name": "_name",
          "type": "string"
        }
      ],
      "stateMutability": "pure",
      "type": "function"
    },
    {
      "inputs": [
        {
          "internalType": "uint256",
          "name": "location",
          "type": "uint256"
        }
      ],
      "name": "ownerAndOwnershipStartTimeOf",
      "outputs": [
        {
          "internalType": "address",
          "name": "owner",
          "type": "address"
        },
        {
          "internalType": "uint40",
          "name": "ownershipStartTime",
          "type": "uint40"
        }
      ],
      "stateMutability": "view",
      "type": "function"
    },
    {
      "inputs": [
        {
          "internalType": "uint256",
          "name": "location",
          "type": "uint256"
        }
      ],
      "name": "ownerOf",
      "outputs": [
        {
          "internalType": "address",
          "name": "currentOwner",
          "type": "address"
        }
      ],
      "stateMutability": "view",
      "type": "function"
    },
    {
      "inputs": [
        {
          "internalType": "address",
          "name": "from",
          "type": "address"
        },
        {
          "internalType": "address",
          "name": "to",
          "type": "address"
        },
        {
          "internalType": "uint256",
          "name": "location",
          "type": "uint256"
        }
      ],
      "name": "safeTransferFrom",
      "outputs": [],
      "stateMutability": "nonpayable",
      "type": "function"
    },
    {
      "inputs": [
        {
          "internalType": "address",
          "name": "from",
          "type": "address"
        },
        {
          "internalType": "address",
          "name": "to",
          "type": "address"
        },
        {
          "internalType": "uint256",
          "name": "location",
          "type": "uint256"
        },
        {
          "internalType": "bytes",
          "name": "data",
          "type": "bytes"
        }
      ],
      "name": "safeTransferFrom",
      "outputs": [],
      "stateMutability": "nonpayable",
      "type": "function"
    },
    {
      "inputs": [
        {
          "internalType": "address",
          "name": "operator",
          "type": "address"
        },
        {
          "internalType": "bool",
          "name": "approved",
          "type": "bool"
        }
      ],
      "name": "setApprovalForAll",
      "outputs": [],
      "stateMutability": "nonpayable",
      "type": "function"
    },
    {
      "inputs": [
        {
          "internalType": "contract IApprovalForAllReceiver",
          "name": "operator",
          "type": "address"
        },
        {
          "internalType": "bytes",
          "name": "data",
          "type": "bytes"
        }
      ],
      "name": "setApprovalForAllIfNeededAndCall",
      "outputs": [],
      "stateMutability": "nonpayable",
      "type": "function"
    },
    {
      "inputs": [],
      "name": "symbol",
      "outputs": [
        {
          "internalType": "string",
          "name": "_symbol",
          "type": "string"
        }
      ],
      "stateMutability": "pure",
      "type": "function"
    },
    {
      "inputs": [
        {
          "internalType": "uint256",
          "name": "_tokenId",
          "type": "uint256"
        }
      ],
      "name": "tokenURI",
      "outputs": [
        {
          "internalType": "string",
          "name": "uri",
          "type": "string"
        }
      ],
      "stateMutability": "view",
      "type": "function"
    },
    {
      "inputs": [
        {
          "internalType": "address",
          "name": "from",
          "type": "address"
        },
        {
          "internalType": "address",
          "name": "to",
          "type": "address"
        },
        {
          "internalType": "uint256",
          "name": "location",
          "type": "uint256"
        }
      ],
      "name": "transferFrom",
      "outputs": [],
      "stateMutability": "nonpayable",
      "type": "function"
    }
  ],
  "transactionHash": "0xe17f9f0092595f9819ce66cf226221100afe888717edf80083a79a4f4a699e7a",
  "args": [
    {
      "stakingToken": "0x1874F6326eEbcCe664410a93a5217741a977D14A",
      "freeStakingToken": "0x8d82B1900bc77fACdf6f2209869E4f816E4fbcB2",
      "allianceRegistry": "0x10927DfafAc6915dE45CDd9955b7Cd18beaCeAbb",
      "genesis": "0x2E8844C4BE4BB08968BF024167442FF346C1277CFA814ADCE21207B6A4BCD005",
      "resolveWindow": 43200,
      "timePerDistance": 7200,
      "exitDuration": 259200,
      "acquireNumSpaceships": 100000,
      "productionSpeedUp": 1,
      "frontrunningDelay": 1800,
      "productionCapAsDuration": 259200,
      "upkeepProductionDecreaseRatePer10000th": 5000,
      "fleetSizeFactor6": 500000,
      "initialSpaceExpansion": 12,
      "expansionDelta": 6,
      "giftTaxPer10000": 2000,
      "stakeRange": "0x0064008200aa00c800f0010e012c014a014a017201900212029e032003a204b0",
      "stakeMultiplier10000th": 100,
      "bootstrapSessionEndTime": 1739976129,
      "infinityStartTime": 1740062529
    }
  ],
  "numDeployments": 10,
  "linkedData": {
    "genesisHash": "0x2E8844C4BE4BB08968BF024167442FF346C1277CFA814ADCE21207B6A4BCD005",
    "resolveWindow": 43200,
    "timePerDistance": 7200,
    "exitDuration": 259200,
    "acquireNumSpaceships": 100000,
    "productionSpeedUp": 1,
    "chainGenesisHash": "",
    "frontrunningDelay": 1800,
    "productionCapAsDuration": 259200,
    "upkeepProductionDecreaseRatePer10000th": 5000,
    "fleetSizeFactor6": 500000,
    "initialSpaceExpansion": 12,
    "expansionDelta": 6,
    "giftTaxPer10000": 2000,
    "stakeRange": "0x0064008200aa00c800f0010e012c014a014a017201900212029e032003a204b0",
    "stakeMultiplier10000th": 100,
    "bootstrapSessionEndTime": 1739976129,
    "infinityStartTime": 1740062529,
    "deploymentTimestamp": 1737384129
  },
  "solcInputHash": "b55c1431e883f7e73ea77f76836c2011",
  "bytecode": "0x6103006040523480156200001257600080fd5b5060405162004947380380620049478339810160408190526200003591620001ff565b80600060048260a001516200004b919062000333565b60a08301519091506200006082600462000365565b63ffffffff1614620000b85760405162461bcd60e51b815260206004820152601d60248201527f54494d455f5045525f444953545f4e4f545f444956495349424c455f34000000604482015260640160405180910390fd5b81516001600160a01b0390811660809081526020840151821660a052604084015190911660c0908152606084015160e09081529184015161010090815263ffffffff93841661012090815291850151610140908152928501518416610160908152908501518416610180908152918501516101a0908152928501516101c0908152908501516101e09081529185015161020090815292850151841661022090815290850151909316610240908152908401516102609081529184015161028052918301516102a052908201516102c05201516102e05250620003a0565b60405161028081016001600160401b0381118282101715620001c757634e487b7160e01b600052604160045260246000fd5b60405290565b80516001600160a01b0381168114620001e557600080fd5b919050565b805163ffffffff81168114620001e557600080fd5b600061028082840312156200021357600080fd5b6200021d62000195565b6200022883620001cd565b81526200023860208401620001cd565b60208201526200024b60408401620001cd565b6040820152606083015160608201526080830151608082015260a083015160a082015260c083015160c08201526200028660e08401620001ea565b60e08201526101006200029b818501620001ea565b9082015261012083810151908201526101408084015190820152610160808401519082015261018080840151908201526101a0620002db818501620001ea565b908201526101c0620002ef848201620001ea565b908201526101e08381015190820152610200808401519082015261022080840151908201526102408084015190820152610260928301519281019290925250919050565b600063ffffffff808416806200035957634e487b7160e01b600052601260045260246000fd5b92169190910492915050565b600063ffffffff808316818516818304811182151516156200039757634e487b7160e01b600052601160045260246000fd5b02949350505050565b60805160a05160c05160e05161010051610120516101405161016051610180516101a0516101c0516101e05161020051610220516102405161026051610280516102a0516102c0516102e051614470620004d76000396000818161139a0152611dc80152600081816113520152818161137901528181611d720152611d9c0152600061243501526000818161245601526124a2015260006117db01526000505060005050600050506000818161109601526111e7015260008181610f450152611ede01526000505060008181610ef901528181610fec015281816110c4015281816111420152818161129301526129d001526000611f1c01526000611e040152600050506000505060008181610e0b015281816119c60152611c0801526000611fdc01526000612a550152600050506144706000f3fe608060405234801561001057600080fd5b50600436106100f55760003560e01c806395d89b4111610097578063d522989e11610066578063d522989e14610305578063d61b2c1e14610318578063e8a3d4851461032b578063e985e9c51461033357600080fd5b806395d89b4114610293578063a22cb465146102cc578063b88d4fde146102df578063c87b56dd146102f257600080fd5b806334efcb8e116100d357806334efcb8e1461017a57806342842e0e1461019b5780636352211e146101ae5780638a886cd51461020957600080fd5b806306fdde03146100fa5780631e7c86ea1461014557806323b872dd14610165575b600080fd5b60408051808201909152601381527f436f6e717565737420563020506c616e6574730000000000000000000000000060208201525b60405161013c91906130d6565b60405180910390f35b6101586101533660046130e9565b610356565b60405161013c9190613189565b6101786101733660046131bd565b61058b565b005b61018d6101883660046130e9565b61059b565b60405161013c9291906131fe565b6101786101a93660046131bd565b61072a565b6101e46101bc3660046130e9565b60009081526020819052604090205473ffffffffffffffffffffffffffffffffffffffff1690565b60405173ffffffffffffffffffffffffffffffffffffffff909116815260200161013c565b6102616102173660046130e9565b60009081526020819052604090205473ffffffffffffffffffffffffffffffffffffffff8116917401000000000000000000000000000000000000000090910464ffffffffff1690565b6040805173ffffffffffffffffffffffffffffffffffffffff909316835264ffffffffff90911660208301520161013c565b60408051808201909152600881527f504c414e45545630000000000000000000000000000000000000000000000000602082015261012f565b6101786102da36600461328e565b6107d9565b6101786102ed366004613315565b61086f565b61012f6103003660046130e9565b610947565b6101586103133660046130e9565b610a13565b610178610326366004613388565b610b49565b61012f610ca2565b6103466103413660046133dd565b610cc2565b604051901515815260200161013c565b6040805161010081018252600080825260208201819052918101829052606081018290526080810182905260a0810182905260c0810182905260e081019190915260008281526020819052604081206040805160e081018252825473ffffffffffffffffffffffffffffffffffffffff8116825264ffffffffff74010000000000000000000000000000000000000000820481166020840152790100000000000000000000000000000000000000000000000000909104811692820192909252600183015463ffffffff8082166060840152640100000000820490931660808301526901000000000000000000810460040b60a08301526e010000000000000000000000000000900490911660c08201529091506000906104779085610cff565b905061048281610e67565b60405180610100016040528082610120015173ffffffffffffffffffffffffffffffffffffffff16815260200182610100015173ffffffffffffffffffffffffffffffffffffffff1683610120015173ffffffffffffffffffffffffffffffffffffffff16141561051357835474010000000000000000000000000000000000000000900464ffffffffff16610515565b425b64ffffffffff1681526020018260c0015164ffffffffff168152602001826060015163ffffffff1681526020018260e0015163ffffffff1681526020014264ffffffffff168152602001826040015115158152602001600760008781526020019081526020016000205481525092505050919050565b610596838383611350565b505050565b6040805161010081018252600080825260208201819052918101829052606081018290526080810182905260a0810182905260c0810182905260e08101919091526040805161010081018252600080825260208201819052918101829052606081018290526080810182905260a0810182905260c0810182905260e08101919091526000838152602081905260408120600181015490915060009081906106479063ffffffff16611960565b6040805161010081018252865473ffffffffffffffffffffffffffffffffffffffff8116825264ffffffffff740100000000000000000000000000000000000000008204811660208085019190915279010000000000000000000000000000000000000000000000000090920481168385015263ffffffff808616606085015260018a01546e0100000000000000000000000000008104909116608085015264010000000090041660a083015284151560c083015260008b81526007909152919091205460e0820152965090925090506107208661197f565b9350505050915091565b610735838383611350565b73ffffffffffffffffffffffffffffffffffffffff82163b156105965761076e3384848460405180602001604052806000815250611b16565b610596576040517f08c379a000000000000000000000000000000000000000000000000000000000815260206004820152601160248201527f5452414e534645525f52454a454354454400000000000000000000000000000060448201526064015b60405180910390fd5b33600081815260036020908152604080832073ffffffffffffffffffffffffffffffffffffffff87168085529083529281902080547fffffffffffffffffffffffffffffffffffffffffffffffffffffffffffffff00168615159081179091558151908152905184927f17307eab39ab6107e8899845ad3d59bd9653f200f220920489ca2b5937696c31928290030190a3505050565b61087a858585611350565b73ffffffffffffffffffffffffffffffffffffffff84163b15610940576108da3386868686868080601f016020809104026020016040519081016040528093929190818152602001838380828437600092019190915250611b1692505050565b610940576040517f08c379a000000000000000000000000000000000000000000000000000000000815260206004820152601160248201527f5452414e534645525f52454a454354454400000000000000000000000000000060448201526064016107d0565b5050505050565b60606fffffffffffffffffffffffffffffffff8216600f0b608083901d600061096f85611bfa565b9050600061097c84611d0b565b61098584611d0b565b604051602001610996929190613427565b6040516020818303038152906040529050808182846040516020016109bc92919061347f565b604080517fffffffffffffffffffffffffffffffffffffffffffffffffffffffffffffffe0818403018152908290526109f99392916020016138b2565b604051602081830303815290604052945050505050919050565b604080516101008101825260008082526020808301829052828401829052606083018290526080830182905260a0830182905260c0830182905260e083018290528482528190529182206001810154919290918190610a779063ffffffff16611960565b6040805161010081018252865473ffffffffffffffffffffffffffffffffffffffff8116825264ffffffffff740100000000000000000000000000000000000000008204811660208085019190915279010000000000000000000000000000000000000000000000000090920481168385015263ffffffff94851660608401526001909801546e0100000000000000000000000000008104909416608083015264010000000090930490961660a087015291151560c08601526000968752600790529094205460e08301525092915050565b33600081815260036020908152604080832073ffffffffffffffffffffffffffffffffffffffff8816845290915290205460ff16610c145773ffffffffffffffffffffffffffffffffffffffff81811660008181526003602090815260408083209489168084529482529182902080547fffffffffffffffffffffffffffffffffffffffffffffffffffffffffffffff0016600190811790915591519182527f17307eab39ab6107e8899845ad3d59bd9653f200f220920489ca2b5937696c31910160405180910390a35b6040517fcffb4f5100000000000000000000000000000000000000000000000000000000815273ffffffffffffffffffffffffffffffffffffffff85169063cffb4f5190610c6a908490879087906004016139e8565b600060405180830381600087803b158015610c8457600080fd5b505af1158015610c98573d6000803e3d6000fd5b5050505050505050565b60606040518060c00160405280608481526020016143b760849139905090565b73ffffffffffffffffffffffffffffffffffffffff80831660009081526003602090815260408083209385168352929052205460ff165b92915050565b6040805161018081018252600080825260208201819052918101829052606081018290526080810182905260a0810182905260c0810182905260e08101829052610100810182905261012081018290526101408101829052610160810191909152600080610d708560600151611960565b85855260808088015164ffffffffff908116602088015283151560408089019190915263ffffffff80851660608a015260a0808c015160040b948a0194909452908a01805183169389019390935291511660c0808801919091528801511660e0860152865173ffffffffffffffffffffffffffffffffffffffff9081166101008701528751166101208601529092509050610e5884604080517f00000000000000000000000000000000000000000000000000000000000000006020820152908101829052600090606001604051602081830303815290604052805190602001209050919050565b61014084015250909392505050565b60a081015164ffffffffff1615610eb857610e858160a00151611d59565b15610eb857600060c082018190526060820181905260808201819052610120820181905260e08201819052604090910152565b6000816020015164ffffffffff1642610ed19190613a81565b90506000610ee3836101400151611e37565b90506000610e1061ffff8316610f1f63ffffffff7f00000000000000000000000000000000000000000000000000000000000000001686613a98565b610f299190613a98565b610f339190613b04565b606085015190915063ffffffff1660007f000000000000000000000000000000000000000000000000000000000000000015611269576000610f7485611ed4565b905060008760400151610f88576000610f8a565b815b9050808411156110705760e08801516107089063ffffffff1615610fdc57828960e0015163ffffffff16610708610fc19190613a98565b610fcb9190613b04565b9050610708811015610fdc57506107085b6000610e108261101263ffffffff7f0000000000000000000000000000000000000000000000000000000000000000168c613a98565b61101c9190613a98565b6110269190613b04565b905080611031575060015b61103b8387613a81565b81111561104f5761104c8387613a81565b90505b89604001511561105d578094505b6110678187613a81565b955050506111d2565b8760400151156111d25760008590506000896080015160040b13156111985760006127107f00000000000000000000000000000000000000000000000000000000000000006110e961ffff8b1663ffffffff7f000000000000000000000000000000000000000000000000000000000000000016613a98565b6110f39190613a98565b6110fd9190613b04565b60808b01516111159064ffffffffff16610e10613a98565b61111f9190613b04565b90508881106111305781945061118a565b610e1061ffff891661116863ffffffff7f00000000000000000000000000000000000000000000000000000000000000001684613a98565b6111729190613a98565b61117c9190613b04565b94508185111561118a578194505b6111948583613a81565b9150505b60006111a48684613a81565b9050808211156111c8576111b88183613a81565b6111c29086613b18565b94508091505b6110678287613b18565b8760400151156112625760008361271061120c7f000000000000000000000000000000000000000000000000000000000000000089613a98565b6112169190613b04565b6112209190613b18565b905060008160040b8a6080015160040b61123a9190613b30565b905061124583613ba4565b8112156112585761125583613ba4565b90505b60040b60808a0152505b50506112f1565b8560400151156112845761127d8383613b18565b91506112f1565b6000610e106112b963ffffffff7f00000000000000000000000000000000000000000000000000000000000000001688613a98565b6112c590610708613a98565b6112cf9190613b04565b9050828111156112e257506000916112ef565b6112ec8184613a81565b92505b505b638000000082106113145761130b60016380000000613bdd565b63ffffffff1691505b63ffffffff82166060870152604086015115801561133a5750606086015163ffffffff16155b156113485760006101208701525b505050505050565b7f00000000000000000000000000000000000000000000000000000000000000001561143157427f00000000000000000000000000000000000000000000000000000000000000007f0000000000000000000000000000000000000000000000000000000000000000818310806113c75750808310155b61142d576040517f08c379a000000000000000000000000000000000000000000000000000000000815260206004820152600660248201527f504155534544000000000000000000000000000000000000000000000000000060448201526064016107d0565b5050505b73ffffffffffffffffffffffffffffffffffffffff83166114ae576040517f08c379a000000000000000000000000000000000000000000000000000000000815260206004820152601060248201527f4e4f545f5a45524f5f414444524553530000000000000000000000000000000060448201526064016107d0565b73ffffffffffffffffffffffffffffffffffffffff821661152b576040517f08c379a000000000000000000000000000000000000000000000000000000000815260206004820152601060248201527f4e4f545f5a45524f5f414444524553530000000000000000000000000000000060448201526064016107d0565b60008181526020819052604081206040805160e081018252825473ffffffffffffffffffffffffffffffffffffffff8116825264ffffffffff74010000000000000000000000000000000000000000820481166020840152790100000000000000000000000000000000000000000000000000909104811692820192909252600183015463ffffffff8082166060840152640100000000820490931660808301526901000000000000000000810460040b60a08301526e010000000000000000000000000000900490911660c082015290915060009061160b9084610cff565b905061161681610e67565b8473ffffffffffffffffffffffffffffffffffffffff1681610120015173ffffffffffffffffffffffffffffffffffffffff16146116b0576040517f08c379a000000000000000000000000000000000000000000000000000000000815260206004820152600e60248201527f46524f4d5f4e4f545f4f574e455200000000000000000000000000000000000060448201526064016107d0565b80610120015173ffffffffffffffffffffffffffffffffffffffff163373ffffffffffffffffffffffffffffffffffffffff16146117875761012081015173ffffffffffffffffffffffffffffffffffffffff16600090815260036020908152604080832033845290915290205460ff16611787576040517f08c379a000000000000000000000000000000000000000000000000000000000815260206004820152600c60248201527f4e4f545f4f50455241544f52000000000000000000000000000000000000000060448201526064016107d0565b73ffffffffffffffffffffffffffffffffffffffff8416610120820152606081015163ffffffff16158015906117d157506117cf85856117ca6203f48042613a81565b611f41565b155b1561183a576127107f0000000000000000000000000000000000000000000000000000000000000000826060015163ffffffff1661180f9190613a98565b6118199190613b04565b816060015163ffffffff1661182e9190613a81565b63ffffffff1660608201525b61184682826000612094565b604080514381524260208201527f438e507c246c311193c77528e3de231eec8ce4727cce091a1dbbecf85b427893910160405180910390a1828473ffffffffffffffffffffffffffffffffffffffff168673ffffffffffffffffffffffffffffffffffffffff167f0162c11e05aed256d6c4963bf2a6ee4e0066b6c224a89214e4ff80730bd2565b846060015185608001518660e0015160405161190a9392919063ffffffff938416815260049290920b6020830152909116604082015260600190565b60405180910390a48060400151801561192c575060c081015164ffffffffff16155b15610940576109408585655af3107a400061194b8561014001516123af565b63ffffffff1661195b9190613a98565b61250e565b63800000008181168114906000906119789084613c02565b9050915091565b60408051610100810182526000808252602080830182905282840182905260608084018390526080840183905260a0840183905260c0840183905260e084019290925283517f00000000000000000000000000000000000000000000000000000000000000008183015280850186905284518082038601815292019093528051920191909120611a0e816125cc565b611a74576040517f08c379a000000000000000000000000000000000000000000000000000000000815260206004820152601a60248201527f6e6f20706c616e657420696e2074686973206c6f636174696f6e00000000000060448201526064016107d0565b600080611a80836125e8565b915091506040518061010001604052808360000b81526020018260000b8152602001611aab856123af565b63ffffffff168152602001611abf85611e37565b61ffff168152602001611ad18561261c565b61ffff168152602001611ae3856126b3565b61ffff168152602001611af58561272f565b61ffff168152602001611b07856127c6565b61ffff16905295945050505050565b6000808473ffffffffffffffffffffffffffffffffffffffff1663150b7a02888887876040518563ffffffff1660e01b8152600401611b589493929190613c25565b602060405180830381600087803b158015611b7257600080fd5b505af1158015611b86573d6000803e3d6000fd5b505050506040513d601f19601f82011682018060405250810190611baa9190613c6e565b7fffffffff00000000000000000000000000000000000000000000000000000000167f150b7a02000000000000000000000000000000000000000000000000000000001491505095945050505050565b60606000611c5583604080517f00000000000000000000000000000000000000000000000000000000000000006020820152908101829052600090606001604051602081830303815290604052805190602001209050919050565b90506000611c62826123af565b63ffffffff1690506000611c7861271083613b04565b9050611c8681612710613a98565b611c909083613a81565b9150611ca7611c9e84611e37565b61ffff1661285d565b611cb3611c9e8561272f565b611cbf611c9e8661261c565b611ccb611c9e876126b3565b611cd48561285d565b611cdd8761285d565b604051602001611cf296959493929190613cb0565b6040516020818303038152906040529350505050919050565b606060008212611d2357611d1e8261285d565b610cf9565b611d34611d2f83613ba4565b61285d565b604051602001611d44919061411d565b60405160208183030381529060405292915050565b600064ffffffffff8216611d6f57506000919050565b427f000000000000000000000000000000000000000000000000000000000000000015801590611dbf57507f00000000000000000000000000000000000000000000000000000000000000008110155b8015611df157507f00000000000000000000000000000000000000000000000000000000000000008364ffffffffff16105b15611dff5750600192915050565b611e307f000000000000000000000000000000000000000000000000000000000000000064ffffffffff8516613b18565b1092915050565b6000611e42826125cc565b611ea8576040517f08c379a000000000000000000000000000000000000000000000000000000000815260206004820152601160248201527f504c414e45545f4e4f545f45584953545300000000000000000000000000000060448201526064016107d0565b610cf982600c7f0708083409600a8c0bb80ce40e100e100e100e101068151819c81e7823282ee0612925565b6000610e10611f077f000000000000000000000000000000000000000000000000000000000000000061ffff8516613a98565b611f119190613b04565b610cf99063ffffffff7f000000000000000000000000000000000000000000000000000000000000000016613b18565b60008273ffffffffffffffffffffffffffffffffffffffff168473ffffffffffffffffffffffffffffffffffffffff161415611f7f5750600061208d565b6040517fdf2c0f4900000000000000000000000000000000000000000000000000000000815273ffffffffffffffffffffffffffffffffffffffff8581166004830152848116602483015264ffffffffff841660448301526000917f00000000000000000000000000000000000000000000000000000000000000009091169063df2c0f4990606401604080518083038186803b15801561201f57600080fd5b505afa158015612033573d6000803e3d6000fd5b505050506040513d601f19601f820116820180604052508101906120579190614162565b9150506bffffffffffffffffffffffff8116158061208957508264ffffffffff16816bffffffffffffffffffffffff16115b9150505b9392505050565b60008260a0015164ffffffffff161180156120b8575060c082015164ffffffffff16155b156120c6576120c682612996565b81610120015173ffffffffffffffffffffffffffffffffffffffff1682610100015173ffffffffffffffffffffffffffffffffffffffff161461222b5761012082015183547fffffffffffffffffffffffff00000000000000000000000000000000000000001673ffffffffffffffffffffffffffffffffffffffff90911690811784551561219a5782547fffffffffffffff0000000000ffffffffffffffffffffffffffffffffffffffff16740100000000000000000000000000000000000000004264ffffffffff16021783556121c1565b82547fffffffffffffff0000000000ffffffffffffffffffffffffffffffffffffffff1683555b816000015182610120015173ffffffffffffffffffffffffffffffffffffffff1683610100015173ffffffffffffffffffffffffffffffffffffffff167fddf252ad1be2c89b69c2b068fc378daa952ba7f163c4a11628f55a4df523b3ef60405160405180910390a45b801561225c5782547fffff0000000000ffffffffffffffffffffffffffffffffffffffffffffffffff1683556122cd565b8160a0015164ffffffffff168260c0015164ffffffffff16146122cd5760c0820151835464ffffffffff909116790100000000000000000000000000000000000000000000000000027fffff0000000000ffffffffffffffffffffffffffffffffffffffffffffffffff9091161783555b6122df82604001518360600151612c52565b60019093018054608084015160e0909401514264ffffffffff908116640100000000027fffffffffffffffffffffffffffffffffffffffffffffff0000000000ffffffff63ffffffff9384166e01000000000000000000000000000002167fffffffffffffffffffffffffffff00000000ffffffffff0000000000ffffffff929097166901000000000000000000027fffffffffffffffffffffffffffffffffffff0000000000ffffffffff00000000909416979092169690961791909117949094169290921792909217905550565b60006123ba826125cc565b612420576040517f08c379a000000000000000000000000000000000000000000000000000000000815260206004820152601160248201527f504c414e45545f4e4f545f45584953545300000000000000000000000000000060448201526064016107d0565b600061242d83600c612c71565b905060ff81167f00000000000000000000000000000000000000000000000000000000000000007f00000000000000000000000000000000000000000000000000000000000000006124808360026141a2565b61248b9060016141cc565b61ffff166020811061249f5761249f6141f2565b1a7f00000000000000000000000000000000000000000000000000000000000000006124cc8460026141a2565b61ffff16602081106124e0576124e06141f2565b6124ee91901a6101006141a2565b6124f891906141cc565b61ffff166125069190613a98565b949350505050565b6105966125397f27ec6af4a6510eb9b7e0cc7f39415b7f15e430e53eb0cd3997e7c7e0cf680f6e5490565b6040805173ffffffffffffffffffffffffffffffffffffffff87811660248301528616604482015260648082018690528251808303909101815260849091019091526020810180517bffffffffffffffffffffffffffffffffffffffffffffffffffffffff167fbb35783b000000000000000000000000000000000000000000000000000000001790526202ee00612d0b565b60006125db8260346010612e08565b60ff166001149050919050565b6000806125f783826003612e08565b612602906001614221565b91506126118360026003612e08565b611978906001614221565b6000612627826125cc565b61268d576040517f08c379a000000000000000000000000000000000000000000000000000000000815260206004820152601160248201527f504c414e45545f4e4f545f45584953545300000000000000000000000000000060448201526064016107d0565b612698826014612c71565b6126a79060ff166101906141a2565b610cf990610fa06141cc565b60006126be826125cc565b612724576040517f08c379a000000000000000000000000000000000000000000000000000000000815260206004820152601160248201527f504c414e45545f4e4f545f45584953545300000000000000000000000000000060448201526064016107d0565b61269882601c612c71565b600061273a826125cc565b6127a0576040517f08c379a000000000000000000000000000000000000000000000000000000000815260206004820152601160248201527f504c414e45545f4e4f545f45584953545300000000000000000000000000000060448201526064016107d0565b6127ab826024612c71565b6127ba9060ff1661014d6141a2565b610cf99061138d6141cc565b60006127d1826125cc565b612837576040517f08c379a000000000000000000000000000000000000000000000000000000000815260206004820152601160248201527f504c414e45545f4e4f545f45584953545300000000000000000000000000000060448201526064016107d0565b61284282602c612c71565b6128519060ff16610bb86141a2565b610cf990613a986141cc565b6060600061286a83612e1d565b600101905060008167ffffffffffffffff81111561288a5761288a614283565b6040519080825280601f01601f1916602001820160405280156128b4576020820181803683370190505b5090508181016020015b7fffffffffffffffffffffffffffffffffffffffffffffffffffffffffffffffff017f3031323334353637383961626364656600000000000000000000000000000000600a86061a8153600a85049450846129185761291d565b6128be565b509392505050565b6000806129328585612c71565b9050826129408260026142b2565b61294b9060016142db565b60ff166020811061295e5761295e6141f2565b1a8361296b8360026142b2565b60ff166020811061297e5761297e6141f2565b61298c91901a6101006141a2565b61208991906141cc565b60006129b18261010001518360000151846101400151612eff565b82516000908152600b60205260409020549091508015612c1c576129f87f00000000000000000000000000000000000000000000000000000000000000006207e900614300565b612a089063ffffffff1682613b18565b8360a0015164ffffffffff1610612b74576040517ff6b911bc00000000000000000000000000000000000000000000000000000000815230600482018190526024820152604481018390527f000000000000000000000000000000000000000000000000000000000000000073ffffffffffffffffffffffffffffffffffffffff169063f6b911bc90606401600060405180830381600087803b158015612aae57600080fd5b505af1158015612ac2573d6000803e3d6000fd5b5050505061010083015173ffffffffffffffffffffffffffffffffffffffff16600090815260026020526040812054612afc908490613b18565b6101008501805173ffffffffffffffffffffffffffffffffffffffff9081166000908152600260209081526040808320869055935184518681529182019290925293945016917f05eefb5f2a67125e8c65550a4ffa0f542f75624e866ef58fb72bfb547540309291015b60405180910390a250505050565b61010083015173ffffffffffffffffffffffffffffffffffffffff166000908152600a6020526040812054612baa908490613b18565b6101008501805173ffffffffffffffffffffffffffffffffffffffff9081166000908152600a6020908152604091829020859055925181518581526001948101949094529394509216917f05eefb5f2a67125e8c65550a4ffa0f542f75624e866ef58fb72bfb54754030929101612b66565b61010083015173ffffffffffffffffffffffffffffffffffffffff16600090815260026020526040812054612afc908490613b18565b60008183612c61576000612c67565b63800000005b61208d9190614323565b600080612c8084846040612e08565b90506000612c8f600283614342565b90506000612c9e600284614364565b905060007f01223334444555555666666677777777888888889999999aaaaaabbbbcccddef60ff841660208110612cd757612cd76141f2565b1a905060ff8216612cf55760048160ff16901c945050505050610cf9565b612d00601082614364565b945050505050610cf9565b73ffffffffffffffffffffffffffffffffffffffff831615610596578273ffffffffffffffffffffffffffffffffffffffff168183604051612d4d9190614386565b60006040518083038160008787f1925050503d8060008114612d8b576040519150601f19603f3d011682016040523d82523d6000602084013e612d90565b606091505b505050603f81612da09190613b04565b5a11610596576040517f08c379a000000000000000000000000000000000000000000000000000000000815260206004820152601d60248201527f4e4f545f454e4f5547485f4741535f464f525f494e4e45525f43414c4c00000060448201526064016107d0565b600061250660ff80841690851686901c6143a2565b6000807a184f03e93ff9f4daa797ed6e38ed64bf6a1f0100000000000000008310612e66577a184f03e93ff9f4daa797ed6e38ed64bf6a1f010000000000000000830492506040015b6d04ee2d6d415b85acef81000000008310612e92576d04ee2d6d415b85acef8100000000830492506020015b662386f26fc100008310612eb057662386f26fc10000830492506010015b6305f5e1008310612ec8576305f5e100830492506008015b6127108310612edc57612710830492506004015b60648310612eee576064830492506002015b600a8310610cf95760010192915050565b6000655af3107a4000612f11836123af565b63ffffffff16612f219190613a98565b604080514381524260208201529192507f438e507c246c311193c77528e3de231eec8ce4727cce091a1dbbecf85b427893910160405180910390a1828473ffffffffffffffffffffffffffffffffffffffff167f1c363b29828a892b7cddafe9583ef52e0d5aca0ea7011bda6ccf039e1781f73883604051612fa591815260200190565b60405180910390a3600083815260076020526040902054801561291d5773ffffffffffffffffffffffffffffffffffffffff85166000818152600860209081526040808320858452825280832080547fffffffffffffffffffffffffffffffffffffffffffffffffffffffffffffff001660011790558783526007909152808220829055518392879290917f74f110a1e0cd4892234c7ba49df9f8a354cd8d29b272f7557c9b8c3c38a653369190a4509392505050565b60005b8381101561307757818101518382015260200161305f565b83811115613086576000848401525b50505050565b600081518084526130a481602086016020860161305c565b601f017fffffffffffffffffffffffffffffffffffffffffffffffffffffffffffffffe0169290920160200192915050565b60208152600061208d602083018461308c565b6000602082840312156130fb57600080fd5b5035919050565b73ffffffffffffffffffffffffffffffffffffffff8151168252602081015164ffffffffff80821660208501528060408401511660408501526060830151915063ffffffff8083166060860152806080850151166080860152508060a08401511660a0850152505060c081015161317d60c084018215159052565b5060e090810151910152565b6101008101610cf98284613102565b73ffffffffffffffffffffffffffffffffffffffff811681146131ba57600080fd5b50565b6000806000606084860312156131d257600080fd5b83356131dd81613198565b925060208401356131ed81613198565b929592945050506040919091013590565b610200810161320d8285613102565b825160000b610100830152602083015160000b61012083015263ffffffff60408401511661014083015261ffff606084015116610160830152608083015161325c61018084018261ffff169052565b5060a083015161ffff9081166101a084015260c084015181166101c084015260e08401519081166101e084015261291d565b600080604083850312156132a157600080fd5b82356132ac81613198565b9150602083013580151581146132c157600080fd5b809150509250929050565b60008083601f8401126132de57600080fd5b50813567ffffffffffffffff8111156132f657600080fd5b60208301915083602082850101111561330e57600080fd5b9250929050565b60008060008060006080868803121561332d57600080fd5b853561333881613198565b9450602086013561334881613198565b935060408601359250606086013567ffffffffffffffff81111561336b57600080fd5b613377888289016132cc565b969995985093965092949392505050565b60008060006040848603121561339d57600080fd5b83356133a881613198565b9250602084013567ffffffffffffffff8111156133c457600080fd5b6133d0868287016132cc565b9497909650939450505050565b600080604083850312156133f057600080fd5b82356133fb81613198565b915060208301356132c181613198565b6000815161341d81856020860161305c565b9290920192915050565b6000835161343981846020880161305c565b7f2c00000000000000000000000000000000000000000000000000000000000000908301908152835161347381600184016020880161305c565b01600101949350505050565b7f646174613a696d6167652f7376672b786d6c2c3c7376672532353230786d6c6e81527f733d27687474703a2f2f7777772e77332e6f72672f323030302f73766727253260208201527f35323076696577426f783d27302532353230302532353230353132253235323060408201527f35313227253235323066696c6c3d27253235323336363737383827253235323060608201527f7374726f6b653d272532353233363637373838273e3c636972636c652532353260808201527f3063783d2732353627253235323063793d2732353627253235323066696c6c3d60a08201527f2725323532336666666666663030272532353230723d2732323027253235323060c08201527f7374726f6b652d77696474683d2731302725323532307374796c653d2766696c60e08201527f6c2d6f7061636974793a30272f3e3c746578742532353230666f6e742d66616d6101008201527f696c793d274d6f6e6f7370616365272532353230666f6e742d73697a653d27336101208201527f322725323532307374726f6b652d77696474683d2730272532353230746578746101408201527f2d616e63686f723d276d6964646c65272532353230783d2732353627253235326101608201527f30786d6c3a73706163653d277072657365727665272532353230793d273132306101808201527f2725323532307374796c653d27746578742d6465636f726174696f6e3a756e646101a08201527f65726c696e65273e436f6e71756573742e6574683c2f746578743e3c746578746101c08201527f2532353230666f6e742d66616d696c793d274d6f6e6f737061636527253235326101e08201527f30666f6e742d73697a653d2733322725323532307374726f6b652d77696474686102008201527f3d2730272532353230746578742d616e63686f723d276d6964646c65272532356102208201527f3230783d27323536272532353230786d6c3a73706163653d27707265736572766102408201527f65272532353230793d27313836273e506c616e65743c2f746578743e3c7465786102608201527f742532353230666f6e742d66616d696c793d274d6f6e6f7370616365272532356102808201527f3230666f6e742d73697a653d2733322725323532307374726f6b652d776964746102a08201527f683d2730272532353230746578742d616e63686f723d276d6964646c652725326102c08201527f353230783d27323536272532353230786d6c3a73706163653d277072657365726102e08201527f7665272532353230793d27323335273e00000000000000000000000000000000610300820152600061385361031083018561340b565b7f3c2f746578743e2c0000000000000000000000000000000000000000000000008152613883600882018561340b565b7f3c2f7376673e0000000000000000000000000000000000000000000000000000815260060195945050505050565b7f646174613a6170706c69636174696f6e2f6a736f6e2c7b226e616d65223a225081527f6c616e657425323000000000000000000000000000000000000000000000000060208201526000845161391081602885016020890161305c565b7f222c226465736372697074696f6e223a22506c616e65742532306174253230706028918401918201527f6f736974696f6e253230000000000000000000000000000000000000000000006048820152845161397381605284016020890161305c565b7f222c22696d616765223a220000000000000000000000000000000000000000006052929091019182015283516139b181605d84016020880161305c565b7f227d000000000000000000000000000000000000000000000000000000000000605d9290910191820152605f0195945050505050565b73ffffffffffffffffffffffffffffffffffffffff8416815260406020820152816040820152818360608301376000818301606090810191909152601f9092017fffffffffffffffffffffffffffffffffffffffffffffffffffffffffffffffe016010192915050565b7f4e487b7100000000000000000000000000000000000000000000000000000000600052601160045260246000fd5b600082821015613a9357613a93613a52565b500390565b6000817fffffffffffffffffffffffffffffffffffffffffffffffffffffffffffffffff0483118215151615613ad057613ad0613a52565b500290565b7f4e487b7100000000000000000000000000000000000000000000000000000000600052601260045260246000fd5b600082613b1357613b13613ad5565b500490565b60008219821115613b2b57613b2b613a52565b500190565b6000808312837f800000000000000000000000000000000000000000000000000000000000000001831281151615613b6a57613b6a613a52565b837f7fffffffffffffffffffffffffffffffffffffffffffffffffffffffffffffff018313811615613b9e57613b9e613a52565b50500390565b60007f8000000000000000000000000000000000000000000000000000000000000000821415613bd657613bd6613a52565b5060000390565b600063ffffffff83811690831681811015613bfa57613bfa613a52565b039392505050565b600063ffffffff80841680613c1957613c19613ad5565b92169190910692915050565b600073ffffffffffffffffffffffffffffffffffffffff808716835280861660208401525083604083015260806060830152613c64608083018461308c565b9695505050505050565b600060208284031215613c8057600080fd5b81517fffffffff000000000000000000000000000000000000000000000000000000008116811461208d57600080fd5b7f3c746578742532353230666f6e742d66616d696c793d274d6f6e6f737061636581527f272532353230666f6e742d73697a653d2733322725323532307374726f6b652d60208201527f77696474683d2730272532353230746578742d616e63686f723d276d6964646c60408201527f65272532353230783d27313536272532353230786d6c3a73706163653d27707260608201527f657365727665272532353230793d27333030273e000000000000000000000000608082015260008751613d80816094850160208c0161305c565b7f3c2f746578743e3c746578742532353230666f6e742d66616d696c793d274d6f6094918401918201527f6e6f7370616365272532353230666f6e742d73697a653d27333227253235323060b48201527f7374726f6b652d77696474683d2730272532353230746578742d616e63686f7260d48201527f3d276d6964646c65272532353230783d27333536272532353230786d6c3a737060f48201527f6163653d277072657365727665272532353230793d27333030273e00000000006101148201526140b86140b2613ff1613feb613f2a613f24613e6361012f88018f61340b565b7f3c2f746578743e3c746578742532353230666f6e742d66616d696c793d274d6f81527f6e6f7370616365272532353230666f6e742d73697a653d27333227253235323060208201527f7374726f6b652d77696474683d2730272532353230746578742d616e63686f7260408201527f3d276d6964646c65272532353230783d27313536272532353230786d6c3a737060608201527f6163653d277072657365727665272532353230793d27333530273e00000000006080820152609b0190565b8c61340b565b7f3c2f746578743e3c746578742532353230666f6e742d66616d696c793d274d6f81527f6e6f7370616365272532353230666f6e742d73697a653d27333227253235323060208201527f7374726f6b652d77696474683d2730272532353230746578742d616e63686f7260408201527f3d276d6964646c65272532353230783d27333536272532353230786d6c3a737060608201527f6163653d277072657365727665272532353230793d27333530273e00000000006080820152609b0190565b8961340b565b7f3c2f746578743e3c746578742532353230666f6e742d66616d696c793d274d6f81527f6e6f7370616365272532353230666f6e742d73697a653d27333227253235323060208201527f7374726f6b652d77696474683d2730272532353230746578742d616e63686f7260408201527f3d276d6964646c65272532353230783d27323536272532353230786d6c3a737060608201527f6163653d277072657365727665272532353230793d27343030273e00000000006080820152609b0190565b8661340b565b7f2e00000000000000000000000000000000000000000000000000000000000000815290506140ea600182018561340b565b7f3c2f746578743e0000000000000000000000000000000000000000000000000081526007019998505050505050505050565b7f2d0000000000000000000000000000000000000000000000000000000000000081526000825161415581600185016020870161305c565b9190910160010192915050565b6000806040838503121561417557600080fd5b825161418081613198565b60208401519092506bffffffffffffffffffffffff811681146132c157600080fd5b600061ffff808316818516818304811182151516156141c3576141c3613a52565b02949350505050565b600061ffff8083168185168083038211156141e9576141e9613a52565b01949350505050565b7f4e487b7100000000000000000000000000000000000000000000000000000000600052603260045260246000fd5b60008160000b8360000b60008112817fffffffffffffffffffffffffffffffffffffffffffffffffffffffffffffff800183128115161561426457614264613a52565b81607f01831381161561427957614279613a52565b5090039392505050565b7f4e487b7100000000000000000000000000000000000000000000000000000000600052604160045260246000fd5b600060ff821660ff84168160ff04811182151516156142d3576142d3613a52565b029392505050565b600060ff821660ff84168060ff038211156142f8576142f8613a52565b019392505050565b600063ffffffff8084168061431757614317613ad5565b92169190910492915050565b600063ffffffff8083168185168083038211156141e9576141e9613a52565b600060ff83168061435557614355613ad5565b8060ff84160491505092915050565b600060ff83168061437757614377613ad5565b8060ff84160691505092915050565b6000825161439881846020870161305c565b9190910192915050565b6000826143b1576143b1613ad5565b50069056fe646174613a6170706c69636174696f6e2f6a736f6e2c7b226e616d65223a22436f6e71756573742e6574682532307630253230506c616e657473222c226465736372697074696f6e223a22506c616e6574732532305374616b6564253230496e253230436f6e71756573742e657468253230444546434f4e25323045646974696f6e227da2646970667358221220cb72a408d434e47b55a899a4dd5bc87f4e441e6005b8e3f20d19b0fa0af53b0864736f6c63430008090033",
  "devdoc": {
    "kind": "dev",
    "methods": {},
    "version": 1
  },
  "userdoc": {
    "kind": "user",
    "methods": {},
    "version": 1
  },
  "storageLayout": {
    "storage": [
      {
        "astId": 12437,
        "contract": "src/outerspace/facets/OuterSpacePlanetsFacet.sol:OuterSpacePlanetsFacet",
        "label": "_planets",
        "offset": 0,
        "slot": "0",
        "type": "t_mapping(t_uint256,t_struct(Planet)21022_storage)"
      },
      {
        "astId": 12442,
        "contract": "src/outerspace/facets/OuterSpacePlanetsFacet.sol:OuterSpacePlanetsFacet",
        "label": "_fleets",
        "offset": 0,
        "slot": "1",
        "type": "t_mapping(t_uint256,t_struct(Fleet)21031_storage)"
      },
      {
        "astId": 12446,
        "contract": "src/outerspace/facets/OuterSpacePlanetsFacet.sol:OuterSpacePlanetsFacet",
        "label": "_stakeReadyToBeWithdrawn",
        "offset": 0,
        "slot": "2",
        "type": "t_mapping(t_address,t_uint256)"
      },
      {
        "astId": 12452,
        "contract": "src/outerspace/facets/OuterSpacePlanetsFacet.sol:OuterSpacePlanetsFacet",
        "label": "_operators",
        "offset": 0,
        "slot": "3",
        "type": "t_mapping(t_address,t_mapping(t_address,t_bool))"
      },
      {
        "astId": 12459,
        "contract": "src/outerspace/facets/OuterSpacePlanetsFacet.sol:OuterSpacePlanetsFacet",
        "label": "_inFlight",
        "offset": 0,
        "slot": "4",
        "type": "t_mapping(t_uint256,t_mapping(t_uint256,t_struct(InFlight)20998_storage))"
      },
      {
        "astId": 12462,
        "contract": "src/outerspace/facets/OuterSpacePlanetsFacet.sol:OuterSpacePlanetsFacet",
        "label": "_discovered",
        "offset": 0,
        "slot": "5",
        "type": "t_struct(Discovered)21007_storage"
      },
      {
        "astId": 12466,
        "contract": "src/outerspace/facets/OuterSpacePlanetsFacet.sol:OuterSpacePlanetsFacet",
        "label": "_prevRewardIds",
        "offset": 0,
        "slot": "6",
        "type": "t_mapping(t_address,t_uint256)"
      },
      {
        "astId": 12470,
        "contract": "src/outerspace/facets/OuterSpacePlanetsFacet.sol:OuterSpacePlanetsFacet",
        "label": "_rewards",
        "offset": 0,
        "slot": "7",
        "type": "t_mapping(t_uint256,t_uint256)"
      },
      {
        "astId": 12476,
        "contract": "src/outerspace/facets/OuterSpacePlanetsFacet.sol:OuterSpacePlanetsFacet",
        "label": "_rewardsToWithdraw",
        "offset": 0,
        "slot": "8",
        "type": "t_mapping(t_address,t_mapping(t_uint256,t_bool))"
      },
      {
        "astId": 12485,
        "contract": "src/outerspace/facets/OuterSpacePlanetsFacet.sol:OuterSpacePlanetsFacet",
        "label": "_attacks",
        "offset": 0,
        "slot": "9",
        "type": "t_mapping(t_uint256,t_mapping(t_address,t_mapping(t_uint256,t_struct(AccumulatedAttack)21104_storage)))"
      },
      {
        "astId": 12489,
        "contract": "src/outerspace/facets/OuterSpacePlanetsFacet.sol:OuterSpacePlanetsFacet",
        "label": "_freeStakeReadyToBeWithdrawn",
        "offset": 0,
        "slot": "10",
        "type": "t_mapping(t_address,t_uint256)"
      },
      {
        "astId": 12493,
        "contract": "src/outerspace/facets/OuterSpacePlanetsFacet.sol:OuterSpacePlanetsFacet",
        "label": "_planetFlagged",
        "offset": 0,
        "slot": "11",
        "type": "t_mapping(t_uint256,t_uint256)"
      }
    ],
    "types": {
      "t_address": {
        "encoding": "inplace",
        "label": "address",
        "numberOfBytes": "20"
      },
      "t_bool": {
        "encoding": "inplace",
        "label": "bool",
        "numberOfBytes": "1"
      },
      "t_int40": {
        "encoding": "inplace",
        "label": "int40",
        "numberOfBytes": "5"
      },
      "t_mapping(t_address,t_bool)": {
        "encoding": "mapping",
        "key": "t_address",
        "label": "mapping(address => bool)",
        "numberOfBytes": "32",
        "value": "t_bool"
      },
      "t_mapping(t_address,t_mapping(t_address,t_bool))": {
        "encoding": "mapping",
        "key": "t_address",
        "label": "mapping(address => mapping(address => bool))",
        "numberOfBytes": "32",
        "value": "t_mapping(t_address,t_bool)"
      },
      "t_mapping(t_address,t_mapping(t_uint256,t_bool))": {
        "encoding": "mapping",
        "key": "t_address",
        "label": "mapping(address => mapping(uint256 => bool))",
        "numberOfBytes": "32",
        "value": "t_mapping(t_uint256,t_bool)"
      },
      "t_mapping(t_address,t_mapping(t_uint256,t_struct(AccumulatedAttack)21104_storage))": {
        "encoding": "mapping",
        "key": "t_address",
        "label": "mapping(address => mapping(uint256 => struct ImportingOuterSpaceTypes.AccumulatedAttack))",
        "numberOfBytes": "32",
        "value": "t_mapping(t_uint256,t_struct(AccumulatedAttack)21104_storage)"
      },
      "t_mapping(t_address,t_uint256)": {
        "encoding": "mapping",
        "key": "t_address",
        "label": "mapping(address => uint256)",
        "numberOfBytes": "32",
        "value": "t_uint256"
      },
      "t_mapping(t_uint256,t_bool)": {
        "encoding": "mapping",
        "key": "t_uint256",
        "label": "mapping(uint256 => bool)",
        "numberOfBytes": "32",
        "value": "t_bool"
      },
      "t_mapping(t_uint256,t_mapping(t_address,t_mapping(t_uint256,t_struct(AccumulatedAttack)21104_storage)))": {
        "encoding": "mapping",
        "key": "t_uint256",
        "label": "mapping(uint256 => mapping(address => mapping(uint256 => struct ImportingOuterSpaceTypes.AccumulatedAttack)))",
        "numberOfBytes": "32",
        "value": "t_mapping(t_address,t_mapping(t_uint256,t_struct(AccumulatedAttack)21104_storage))"
      },
      "t_mapping(t_uint256,t_mapping(t_uint256,t_struct(InFlight)20998_storage))": {
        "encoding": "mapping",
        "key": "t_uint256",
        "label": "mapping(uint256 => mapping(uint256 => struct ImportingOuterSpaceTypes.InFlight))",
        "numberOfBytes": "32",
        "value": "t_mapping(t_uint256,t_struct(InFlight)20998_storage)"
      },
      "t_mapping(t_uint256,t_struct(AccumulatedAttack)21104_storage)": {
        "encoding": "mapping",
        "key": "t_uint256",
        "label": "mapping(uint256 => struct ImportingOuterSpaceTypes.AccumulatedAttack)",
        "numberOfBytes": "32",
        "value": "t_struct(AccumulatedAttack)21104_storage"
      },
      "t_mapping(t_uint256,t_struct(Fleet)21031_storage)": {
        "encoding": "mapping",
        "key": "t_uint256",
        "label": "mapping(uint256 => struct ImportingOuterSpaceTypes.Fleet)",
        "numberOfBytes": "32",
        "value": "t_struct(Fleet)21031_storage"
      },
      "t_mapping(t_uint256,t_struct(InFlight)20998_storage)": {
        "encoding": "mapping",
        "key": "t_uint256",
        "label": "mapping(uint256 => struct ImportingOuterSpaceTypes.InFlight)",
        "numberOfBytes": "32",
        "value": "t_struct(InFlight)20998_storage"
      },
      "t_mapping(t_uint256,t_struct(Planet)21022_storage)": {
        "encoding": "mapping",
        "key": "t_uint256",
        "label": "mapping(uint256 => struct ImportingOuterSpaceTypes.Planet)",
        "numberOfBytes": "32",
        "value": "t_struct(Planet)21022_storage"
      },
      "t_mapping(t_uint256,t_uint256)": {
        "encoding": "mapping",
        "key": "t_uint256",
        "label": "mapping(uint256 => uint256)",
        "numberOfBytes": "32",
        "value": "t_uint256"
      },
      "t_struct(AccumulatedAttack)21104_storage": {
        "encoding": "inplace",
        "label": "struct ImportingOuterSpaceTypes.AccumulatedAttack",
        "members": [
          {
            "astId": 21097,
            "contract": "src/outerspace/facets/OuterSpacePlanetsFacet.sol:OuterSpacePlanetsFacet",
            "label": "target",
            "offset": 0,
            "slot": "0",
            "type": "t_address"
          },
          {
            "astId": 21099,
            "contract": "src/outerspace/facets/OuterSpacePlanetsFacet.sol:OuterSpacePlanetsFacet",
            "label": "numAttackSpent",
            "offset": 20,
            "slot": "0",
            "type": "t_uint32"
          },
          {
            "astId": 21101,
            "contract": "src/outerspace/facets/OuterSpacePlanetsFacet.sol:OuterSpacePlanetsFacet",
            "label": "damageCausedSoFar",
            "offset": 24,
            "slot": "0",
            "type": "t_uint32"
          },
          {
            "astId": 21103,
            "contract": "src/outerspace/facets/OuterSpacePlanetsFacet.sol:OuterSpacePlanetsFacet",
            "label": "averageAttackPower",
            "offset": 28,
            "slot": "0",
            "type": "t_uint16"
          }
        ],
        "numberOfBytes": "32"
      },
      "t_struct(Discovered)21007_storage": {
        "encoding": "inplace",
        "label": "struct ImportingOuterSpaceTypes.Discovered",
        "members": [
          {
            "astId": 21000,
            "contract": "src/outerspace/facets/OuterSpacePlanetsFacet.sol:OuterSpacePlanetsFacet",
            "label": "minX",
            "offset": 0,
            "slot": "0",
            "type": "t_uint32"
          },
          {
            "astId": 21002,
            "contract": "src/outerspace/facets/OuterSpacePlanetsFacet.sol:OuterSpacePlanetsFacet",
            "label": "maxX",
            "offset": 4,
            "slot": "0",
            "type": "t_uint32"
          },
          {
            "astId": 21004,
            "contract": "src/outerspace/facets/OuterSpacePlanetsFacet.sol:OuterSpacePlanetsFacet",
            "label": "minY",
            "offset": 8,
            "slot": "0",
            "type": "t_uint32"
          },
          {
            "astId": 21006,
            "contract": "src/outerspace/facets/OuterSpacePlanetsFacet.sol:OuterSpacePlanetsFacet",
            "label": "maxY",
            "offset": 12,
            "slot": "0",
            "type": "t_uint32"
          }
        ],
        "numberOfBytes": "32"
      },
      "t_struct(Fleet)21031_storage": {
        "encoding": "inplace",
        "label": "struct ImportingOuterSpaceTypes.Fleet",
        "members": [
          {
            "astId": 21024,
            "contract": "src/outerspace/facets/OuterSpacePlanetsFacet.sol:OuterSpacePlanetsFacet",
            "label": "owner",
            "offset": 0,
            "slot": "0",
            "type": "t_address"
          },
          {
            "astId": 21026,
            "contract": "src/outerspace/facets/OuterSpacePlanetsFacet.sol:OuterSpacePlanetsFacet",
            "label": "launchTime",
            "offset": 20,
            "slot": "0",
            "type": "t_uint40"
          },
          {
            "astId": 21028,
            "contract": "src/outerspace/facets/OuterSpacePlanetsFacet.sol:OuterSpacePlanetsFacet",
            "label": "quantity",
            "offset": 25,
            "slot": "0",
            "type": "t_uint32"
          },
          {
            "astId": 21030,
            "contract": "src/outerspace/facets/OuterSpacePlanetsFacet.sol:OuterSpacePlanetsFacet",
            "label": "futureExtraProduction",
            "offset": 29,
            "slot": "0",
            "type": "t_uint24"
          }
        ],
        "numberOfBytes": "32"
      },
      "t_struct(InFlight)20998_storage": {
        "encoding": "inplace",
        "label": "struct ImportingOuterSpaceTypes.InFlight",
        "members": [
          {
            "astId": 20995,
            "contract": "src/outerspace/facets/OuterSpacePlanetsFacet.sol:OuterSpacePlanetsFacet",
            "label": "flying",
            "offset": 0,
            "slot": "0",
            "type": "t_uint32"
          },
          {
            "astId": 20997,
            "contract": "src/outerspace/facets/OuterSpacePlanetsFacet.sol:OuterSpacePlanetsFacet",
            "label": "destroyed",
            "offset": 4,
            "slot": "0",
            "type": "t_uint32"
          }
        ],
        "numberOfBytes": "32"
      },
      "t_struct(Planet)21022_storage": {
        "encoding": "inplace",
        "label": "struct ImportingOuterSpaceTypes.Planet",
        "members": [
          {
            "astId": 21009,
            "contract": "src/outerspace/facets/OuterSpacePlanetsFacet.sol:OuterSpacePlanetsFacet",
            "label": "owner",
            "offset": 0,
            "slot": "0",
            "type": "t_address"
          },
          {
            "astId": 21011,
            "contract": "src/outerspace/facets/OuterSpacePlanetsFacet.sol:OuterSpacePlanetsFacet",
            "label": "ownershipStartTime",
            "offset": 20,
            "slot": "0",
            "type": "t_uint40"
          },
          {
            "astId": 21013,
            "contract": "src/outerspace/facets/OuterSpacePlanetsFacet.sol:OuterSpacePlanetsFacet",
            "label": "exitStartTime",
            "offset": 25,
            "slot": "0",
            "type": "t_uint40"
          },
          {
            "astId": 21015,
            "contract": "src/outerspace/facets/OuterSpacePlanetsFacet.sol:OuterSpacePlanetsFacet",
            "label": "numSpaceships",
            "offset": 0,
            "slot": "1",
            "type": "t_uint32"
          },
          {
            "astId": 21017,
            "contract": "src/outerspace/facets/OuterSpacePlanetsFacet.sol:OuterSpacePlanetsFacet",
            "label": "lastUpdated",
            "offset": 4,
            "slot": "1",
            "type": "t_uint40"
          },
          {
            "astId": 21019,
            "contract": "src/outerspace/facets/OuterSpacePlanetsFacet.sol:OuterSpacePlanetsFacet",
            "label": "travelingUpkeep",
            "offset": 9,
            "slot": "1",
            "type": "t_int40"
          },
          {
            "astId": 21021,
            "contract": "src/outerspace/facets/OuterSpacePlanetsFacet.sol:OuterSpacePlanetsFacet",
            "label": "overflow",
            "offset": 14,
            "slot": "1",
            "type": "t_uint32"
          }
        ],
        "numberOfBytes": "64"
      },
      "t_uint16": {
        "encoding": "inplace",
        "label": "uint16",
        "numberOfBytes": "2"
      },
      "t_uint24": {
        "encoding": "inplace",
        "label": "uint24",
        "numberOfBytes": "3"
      },
      "t_uint256": {
        "encoding": "inplace",
        "label": "uint256",
        "numberOfBytes": "32"
      },
      "t_uint32": {
        "encoding": "inplace",
        "label": "uint32",
        "numberOfBytes": "4"
      },
      "t_uint40": {
        "encoding": "inplace",
        "label": "uint40",
        "numberOfBytes": "5"
      }
    }
  }
}