{
  "address": "0xCF10D1b87e6786b88594F8C91dC23d2fCE59D03c",
  "abi": [
    {
      "inputs": [
        {
          "components": [
            {
              "internalType": "contract StakingToken",
              "name": "stakingToken",
              "type": "address"
            },
            {
              "internalType": "contract IFreePlayToken",
              "name": "freeStakingToken",
              "type": "address"
            },
            {
              "internalType": "contract AllianceRegistry",
              "name": "allianceRegistry",
              "type": "address"
            },
            {
              "internalType": "bytes32",
              "name": "genesis",
              "type": "bytes32"
            },
            {
              "internalType": "uint256",
              "name": "resolveWindow",
              "type": "uint256"
            },
            {
              "internalType": "uint256",
              "name": "timePerDistance",
              "type": "uint256"
            },
            {
              "internalType": "uint256",
              "name": "exitDuration",
              "type": "uint256"
            },
            {
              "internalType": "uint32",
              "name": "acquireNumSpaceships",
              "type": "uint32"
            },
            {
              "internalType": "uint32",
              "name": "productionSpeedUp",
              "type": "uint32"
            },
            {
              "internalType": "uint256",
              "name": "frontrunningDelay",
              "type": "uint256"
            },
            {
              "internalType": "uint256",
              "name": "productionCapAsDuration",
              "type": "uint256"
            },
            {
              "internalType": "uint256",
              "name": "upkeepProductionDecreaseRatePer10000th",
              "type": "uint256"
            },
            {
              "internalType": "uint256",
              "name": "fleetSizeFactor6",
              "type": "uint256"
            },
            {
              "internalType": "uint32",
              "name": "initialSpaceExpansion",
              "type": "uint32"
            },
            {
              "internalType": "uint32",
              "name": "expansionDelta",
              "type": "uint32"
            },
            {
              "internalType": "uint256",
              "name": "giftTaxPer10000",
              "type": "uint256"
            },
            {
              "internalType": "bytes32",
              "name": "stakeRange",
              "type": "bytes32"
            },
            {
              "internalType": "uint256",
              "name": "stakeMultiplier10000th",
              "type": "uint256"
            },
            {
              "internalType": "uint256",
              "name": "bootstrapSessionEndTime",
              "type": "uint256"
            },
            {
              "internalType": "uint256",
              "name": "infinityStartTime",
              "type": "uint256"
            }
          ],
          "internalType": "struct OuterSpaceFacetBase.Config",
          "name": "config",
          "type": "tuple"
        }
      ],
      "stateMutability": "nonpayable",
      "type": "constructor"
    },
    {
      "anonymous": false,
      "inputs": [
        {
          "indexed": true,
          "internalType": "address",
          "name": "owner",
          "type": "address"
        },
        {
          "indexed": true,
          "internalType": "address",
          "name": "operator",
          "type": "address"
        },
        {
          "indexed": false,
          "internalType": "bool",
          "name": "approved",
          "type": "bool"
        }
      ],
      "name": "ApprovalForAll",
      "type": "event"
    },
    {
      "anonymous": false,
      "inputs": [
        {
          "indexed": false,
          "internalType": "uint256",
          "name": "block",
          "type": "uint256"
        },
        {
          "indexed": false,
          "internalType": "uint256",
          "name": "timestamp",
          "type": "uint256"
        }
      ],
      "name": "BlockTime",
      "type": "event"
    },
    {
      "anonymous": false,
      "inputs": [
        {
          "indexed": true,
          "internalType": "address",
          "name": "owner",
          "type": "address"
        },
        {
          "indexed": true,
          "internalType": "uint256",
          "name": "location",
          "type": "uint256"
        },
        {
          "indexed": false,
          "internalType": "uint256",
          "name": "stake",
          "type": "uint256"
        }
      ],
      "name": "ExitComplete",
      "type": "event"
    },
    {
      "anonymous": false,
      "inputs": [
        {
          "indexed": true,
          "internalType": "uint256",
          "name": "fleet",
          "type": "uint256"
        },
        {
          "indexed": true,
          "internalType": "address",
          "name": "fleetOwner",
          "type": "address"
        },
        {
          "indexed": true,
          "internalType": "address",
          "name": "destinationOwner",
          "type": "address"
        },
        {
          "indexed": false,
          "internalType": "uint256",
          "name": "destination",
          "type": "uint256"
        },
        {
          "indexed": false,
          "internalType": "bool",
          "name": "gift",
          "type": "bool"
        },
        {
          "indexed": false,
          "internalType": "bool",
          "name": "won",
          "type": "bool"
        },
        {
          "components": [
            {
              "internalType": "uint32",
              "name": "newNumspaceships",
              "type": "uint32"
            },
            {
              "internalType": "int40",
              "name": "newTravelingUpkeep",
              "type": "int40"
            },
            {
              "internalType": "uint32",
              "name": "newOverflow",
              "type": "uint32"
            },
            {
              "internalType": "uint32",
              "name": "numSpaceshipsAtArrival",
              "type": "uint32"
            },
            {
              "internalType": "uint32",
              "name": "taxLoss",
              "type": "uint32"
            },
            {
              "internalType": "uint32",
              "name": "fleetLoss",
              "type": "uint32"
            },
            {
              "internalType": "uint32",
              "name": "planetLoss",
              "type": "uint32"
            },
            {
              "internalType": "uint32",
              "name": "inFlightFleetLoss",
              "type": "uint32"
            },
            {
              "internalType": "uint32",
              "name": "inFlightPlanetLoss",
              "type": "uint32"
            },
            {
              "internalType": "uint32",
              "name": "accumulatedDefenseAdded",
              "type": "uint32"
            },
            {
              "internalType": "uint32",
              "name": "accumulatedAttackAdded",
              "type": "uint32"
            }
          ],
          "indexed": false,
          "internalType": "struct ImportingOuterSpaceEvents.ArrivalData",
          "name": "data",
          "type": "tuple"
        }
      ],
      "name": "FleetArrived",
      "type": "event"
    },
    {
      "anonymous": false,
      "inputs": [
        {
          "indexed": true,
          "internalType": "address",
          "name": "fleetSender",
          "type": "address"
        },
        {
          "indexed": true,
          "internalType": "address",
          "name": "fleetOwner",
          "type": "address"
        },
        {
          "indexed": true,
          "internalType": "uint256",
          "name": "from",
          "type": "uint256"
        },
        {
          "indexed": false,
          "internalType": "address",
          "name": "operator",
          "type": "address"
        },
        {
          "indexed": false,
          "internalType": "uint256",
          "name": "fleet",
          "type": "uint256"
        },
        {
          "indexed": false,
          "internalType": "uint32",
          "name": "quantity",
          "type": "uint32"
        },
        {
          "indexed": false,
          "internalType": "uint32",
          "name": "newNumSpaceships",
          "type": "uint32"
        },
        {
          "indexed": false,
          "internalType": "int40",
          "name": "newTravelingUpkeep",
          "type": "int40"
        },
        {
          "indexed": false,
          "internalType": "uint32",
          "name": "newOverflow",
          "type": "uint32"
        }
      ],
      "name": "FleetSent",
      "type": "event"
    },
    {
      "anonymous": false,
      "inputs": [
        {
          "indexed": false,
          "internalType": "address",
          "name": "newGeneratorAdmin",
          "type": "address"
        }
      ],
      "name": "GeneratorAdminChanged",
      "type": "event"
    },
    {
      "anonymous": false,
      "inputs": [
        {
          "indexed": false,
          "internalType": "address",
          "name": "newGenerator",
          "type": "address"
        }
      ],
      "name": "GeneratorChanged",
      "type": "event"
    },
    {
      "anonymous": false,
      "inputs": [
        {
          "indexed": false,
          "internalType": "bytes32",
          "name": "genesis",
          "type": "bytes32"
        },
        {
          "indexed": false,
          "internalType": "uint256",
          "name": "resolveWindow",
          "type": "uint256"
        },
        {
          "indexed": false,
          "internalType": "uint256",
          "name": "timePerDistance",
          "type": "uint256"
        },
        {
          "indexed": false,
          "internalType": "uint256",
          "name": "exitDuration",
          "type": "uint256"
        },
        {
          "indexed": false,
          "internalType": "uint32",
          "name": "acquireNumSpaceships",
          "type": "uint32"
        },
        {
          "indexed": false,
          "internalType": "uint32",
          "name": "productionSpeedUp",
          "type": "uint32"
        },
        {
          "indexed": false,
          "internalType": "uint256",
          "name": "frontrunningDelay",
          "type": "uint256"
        },
        {
          "indexed": false,
          "internalType": "uint256",
          "name": "productionCapAsDuration",
          "type": "uint256"
        },
        {
          "indexed": false,
          "internalType": "uint256",
          "name": "upkeepProductionDecreaseRatePer10000th",
          "type": "uint256"
        },
        {
          "indexed": false,
          "internalType": "uint256",
          "name": "fleetSizeFactor6",
          "type": "uint256"
        },
        {
          "indexed": false,
          "internalType": "uint32",
          "name": "initialSpaceExpansion",
          "type": "uint32"
        },
        {
          "indexed": false,
          "internalType": "uint32",
          "name": "expansionDelta",
          "type": "uint32"
        },
        {
          "indexed": false,
          "internalType": "uint256",
          "name": "giftTaxPer10000",
          "type": "uint256"
        }
      ],
      "name": "Initialized",
      "type": "event"
    },
    {
      "anonymous": false,
      "inputs": [
        {
          "indexed": true,
          "internalType": "address",
          "name": "owner",
          "type": "address"
        },
        {
          "indexed": true,
          "internalType": "uint256",
          "name": "location",
          "type": "uint256"
        }
      ],
      "name": "PlanetExit",
      "type": "event"
    },
    {
      "anonymous": false,
      "inputs": [
        {
          "indexed": true,
          "internalType": "uint256",
          "name": "location",
          "type": "uint256"
        }
      ],
      "name": "PlanetReset",
      "type": "event"
    },
    {
      "anonymous": false,
      "inputs": [
        {
          "indexed": true,
          "internalType": "address",
          "name": "acquirer",
          "type": "address"
        },
        {
          "indexed": true,
          "internalType": "uint256",
          "name": "location",
          "type": "uint256"
        },
        {
          "indexed": false,
          "internalType": "uint32",
          "name": "numSpaceships",
          "type": "uint32"
        },
        {
          "indexed": false,
          "internalType": "int40",
          "name": "travelingUpkeep",
          "type": "int40"
        },
        {
          "indexed": false,
          "internalType": "uint32",
          "name": "overflow",
          "type": "uint32"
        },
        {
          "indexed": false,
          "internalType": "uint256",
          "name": "stake",
          "type": "uint256"
        },
        {
          "indexed": false,
          "internalType": "bool",
          "name": "freegift",
          "type": "bool"
        }
      ],
      "name": "PlanetStake",
      "type": "event"
    },
    {
      "anonymous": false,
      "inputs": [
        {
          "indexed": true,
          "internalType": "address",
          "name": "previousOwner",
          "type": "address"
        },
        {
          "indexed": true,
          "internalType": "address",
          "name": "newOwner",
          "type": "address"
        },
        {
          "indexed": true,
          "internalType": "uint256",
          "name": "location",
          "type": "uint256"
        },
        {
          "indexed": false,
          "internalType": "uint32",
          "name": "newNumspaceships",
          "type": "uint32"
        },
        {
          "indexed": false,
          "internalType": "int40",
          "name": "newTravelingUpkeep",
          "type": "int40"
        },
        {
          "indexed": false,
          "internalType": "uint32",
          "name": "newOverflow",
          "type": "uint32"
        }
      ],
      "name": "PlanetTransfer",
      "type": "event"
    },
    {
      "anonymous": false,
      "inputs": [
        {
          "indexed": true,
          "internalType": "uint256",
          "name": "location",
          "type": "uint256"
        },
        {
          "indexed": true,
          "internalType": "address",
          "name": "giver",
          "type": "address"
        },
        {
          "indexed": false,
          "internalType": "uint256",
          "name": "rewardId",
          "type": "uint256"
        }
      ],
      "name": "RewardSetup",
      "type": "event"
    },
    {
      "anonymous": false,
      "inputs": [
        {
          "indexed": true,
          "internalType": "address",
          "name": "owner",
          "type": "address"
        },
        {
          "indexed": true,
          "internalType": "uint256",
          "name": "location",
          "type": "uint256"
        },
        {
          "indexed": true,
          "internalType": "uint256",
          "name": "rewardId",
          "type": "uint256"
        }
      ],
      "name": "RewardToWithdraw",
      "type": "event"
    },
    {
      "anonymous": false,
      "inputs": [
        {
          "indexed": true,
          "internalType": "address",
          "name": "owner",
          "type": "address"
        },
        {
          "indexed": false,
          "internalType": "uint256",
          "name": "newStake",
          "type": "uint256"
        },
        {
          "indexed": false,
          "internalType": "bool",
          "name": "freegift",
          "type": "bool"
        }
      ],
      "name": "StakeToWithdraw",
      "type": "event"
    },
    {
      "anonymous": false,
      "inputs": [
        {
          "indexed": true,
          "internalType": "address",
          "name": "from",
          "type": "address"
        },
        {
          "indexed": true,
          "internalType": "address",
          "name": "to",
          "type": "address"
        },
        {
          "indexed": true,
          "internalType": "uint256",
          "name": "location",
          "type": "uint256"
        }
      ],
      "name": "Transfer",
      "type": "event"
    },
    {
      "anonymous": false,
      "inputs": [
        {
          "indexed": true,
          "internalType": "uint256",
          "name": "origin",
          "type": "uint256"
        },
        {
          "indexed": true,
          "internalType": "uint256",
          "name": "fleet",
          "type": "uint256"
        },
        {
          "indexed": false,
          "internalType": "uint32",
          "name": "newNumspaceships",
          "type": "uint32"
        },
        {
          "indexed": false,
          "internalType": "int40",
          "name": "newTravelingUpkeep",
          "type": "int40"
        },
        {
          "indexed": false,
          "internalType": "uint32",
          "name": "newOverflow",
          "type": "uint32"
        }
      ],
      "name": "TravelingUpkeepRefund",
      "type": "event"
    },
    {
      "inputs": [
        {
          "internalType": "uint256",
          "name": "fleetId",
          "type": "uint256"
        },
        {
          "components": [
            {
              "internalType": "uint256",
              "name": "from",
              "type": "uint256"
            },
            {
              "internalType": "uint256",
              "name": "to",
              "type": "uint256"
            },
            {
              "internalType": "uint256",
              "name": "distance",
              "type": "uint256"
            },
            {
              "internalType": "uint256",
              "name": "arrivalTimeWanted",
              "type": "uint256"
            },
            {
              "internalType": "bool",
              "name": "gift",
              "type": "bool"
            },
            {
              "internalType": "address",
              "name": "specific",
              "type": "address"
            },
            {
              "internalType": "bytes32",
              "name": "secret",
              "type": "bytes32"
            },
            {
              "internalType": "address",
              "name": "fleetSender",
              "type": "address"
            },
            {
              "internalType": "address",
              "name": "operator",
              "type": "address"
            }
          ],
          "internalType": "struct ImportingOuterSpaceTypes.FleetResolution",
          "name": "resolution",
          "type": "tuple"
        }
      ],
      "name": "resolveFleet",
      "outputs": [],
      "stateMutability": "nonpayable",
      "type": "function"
    }
  ],
  "transactionHash": "0x07c39fa88bbc684124056018ea68edc0f41ba3a7438488b30846c1403825938f",
  "args": [
    {
      "stakingToken": "0x1874F6326eEbcCe664410a93a5217741a977D14A",
      "freeStakingToken": "0x8d82B1900bc77fACdf6f2209869E4f816E4fbcB2",
      "allianceRegistry": "0x7E254360C1b9f0c1903dcb6800eEED2500504940",
      "genesis": "0x2E8844C4BE4BB08968BF024167442FF346C1277CFA814ADCE21207B6A4BCD005",
      "resolveWindow": 1728,
      "timePerDistance": 72,
      "exitDuration": 2592,
      "acquireNumSpaceships": 100000,
      "productionSpeedUp": 100,
      "frontrunningDelay": 18,
      "productionCapAsDuration": 259200,
      "upkeepProductionDecreaseRatePer10000th": 5000,
      "fleetSizeFactor6": 500000,
      "initialSpaceExpansion": 12,
      "expansionDelta": 6,
      "giftTaxPer10000": 2000,
      "stakeRange": "0x0064008200aa00c800f0010e012c014a014a017201900212029e032003a204b0",
      "stakeMultiplier10000th": 100,
      "bootstrapSessionEndTime": 1738749600,
      "infinityStartTime": 1738836000
    }
  ],
  "numDeployments": 1,
  "linkedData": {
    "genesisHash": "0x2E8844C4BE4BB08968BF024167442FF346C1277CFA814ADCE21207B6A4BCD005",
    "resolveWindow": 1728,
    "timePerDistance": 72,
    "exitDuration": 2592,
    "acquireNumSpaceships": 100000,
    "productionSpeedUp": 100,
    "chainGenesisHash": "",
    "frontrunningDelay": 18,
    "productionCapAsDuration": 259200,
    "upkeepProductionDecreaseRatePer10000th": 5000,
    "fleetSizeFactor6": 500000,
    "initialSpaceExpansion": 12,
    "expansionDelta": 6,
    "giftTaxPer10000": 2000,
    "stakeRange": "0x0064008200aa00c800f0010e012c014a014a017201900212029e032003a204b0",
    "stakeMultiplier10000th": 100,
    "bootstrapSessionEndTime": 1738749600,
    "infinityStartTime": 1738836000,
    "deploymentTimestamp": 1738078599
  },
  "solcInputHash": "ce47e213dd2e6735af834bcd17cd7b29",
  "bytecode": "0x6103006040523480156200001257600080fd5b5060405162005b9a38038062005b9a8339810160408190526200003591620001ff565b80600060048260a001516200004b919062000333565b60a08301519091506200006082600462000365565b63ffffffff1614620000b85760405162461bcd60e51b815260206004820152601d60248201527f54494d455f5045525f444953545f4e4f545f444956495349424c455f34000000604482015260640160405180910390fd5b81516001600160a01b0390811660809081526020840151821660a052604084015190911660c0908152606084015160e09081529184015161010090815263ffffffff93841661012090815291850151610140908152928501518416610160908152908501518416610180908152918501516101a0908152928501516101c0908152908501516101e09081529185015161020090815292850151841661022090815290850151909316610240908152908401516102609081529184015161028052918301516102a052908201516102c05201516102e05250620003a0565b60405161028081016001600160401b0381118282101715620001c757634e487b7160e01b600052604160045260246000fd5b60405290565b80516001600160a01b0381168114620001e557600080fd5b919050565b805163ffffffff81168114620001e557600080fd5b600061028082840312156200021357600080fd5b6200021d62000195565b6200022883620001cd565b81526200023860208401620001cd565b60208201526200024b60408401620001cd565b6040820152606083015160608201526080830151608082015260a083015160a082015260c083015160c08201526200028660e08401620001ea565b60e08201526101006200029b818501620001ea565b9082015261012083810151908201526101408084015190820152610160808401519082015261018080840151908201526101a0620002db818501620001ea565b908201526101c0620002ef848201620001ea565b908201526101e08381015190820152610200808401519082015261022080840151908201526102408084015190820152610260928301519281019290925250919050565b600063ffffffff808416806200035957634e487b7160e01b600052601260045260246000fd5b92169190910492915050565b600063ffffffff808316818516818304811182151516156200039757634e487b7160e01b600052601160045260246000fd5b02949350505050565b60805160a05160c05160e05161010051610120516101405161016051610180516101a0516101c0516101e05161020051610220516102405161026051610280516102a0516102c0516102e051615624620005766000396000818161046b015261258a01526000818161041d0152818161044401528181612534015261255e0152600061212901526000818161214a0152612196015260006114a20152600050506000505060008181614150015281816141830152818161420401526142370152600081816110e20152818161123301526118c6015260008181610f91015281816126a00152818161328501528181613eb9015281816145c801526148c10152600081816113a501528181611549015281816115f80152818161169f01526142d3015260008181610f4501528181611038015281816111100152818161118e015281816112df01528181611880015261339a015260006126de015260006125c601526000610d0d01526000610e0001526000818161090f0152610afa0152600081816128c101528181612a4501528181612b5f01528181612c6f01528181612da601528181612e9e01528181612f9b0152818161307e0152818161317501526139220152600061341f0152600050506156246000f3fe608060405234801561001057600080fd5b506004361061002b5760003560e01c8063f69438c314610030575b600080fd5b61004361003e366004614a52565b610045565b005b8160c0820135602083013561006060a0850160808601614abf565b61007060c0860160a08701614b0a565b85606001356040516020016100cf959493929190948552602085019390935290151560f81b604084015260601b7fffffffffffffffffffffffffffffffffffffffff000000000000000000000000166041830152605582015260750190565b604080517fffffffffffffffffffffffffffffffffffffffffffffffffffffffffffffffe081840301815291905280516020909101208235610118610100850160e08601614b0a565b61012a61012086016101008701614b0a565b6040805160208101959095528401929092527fffffffffffffffffffffffffffffffffffffffff000000000000000000000000606091821b81168285015291901b1660748201526088016040516020818303038152906040528051906020012060001c146101f9576040517f08c379a000000000000000000000000000000000000000000000000000000000815260206004820152601c60248201527f494e56414c49445f464c4545545f444154415f4f525f5345435245540000000060448201526064015b60405180910390fd5b6102038282610207565b5050565b60208181013560008181528083526040808220815160e081018352815473ffffffffffffffffffffffffffffffffffffffff8116825264ffffffffff7401000000000000000000000000000000000000000082048116978301979097527901000000000000000000000000000000000000000000000000009004861692810192909252600181015463ffffffff8082166060850152640100000000820490961660808401526901000000000000000000810460040b60a08401526e010000000000000000000000000000900490941660c082015290916102e79190610803565b60008581526001602052604081209192509061030490853561096b565b6060810151815191925063ffffffff1615159073ffffffffffffffffffffffffffffffffffffffff1661036c576040518060400160405280601281526020017f464c4545545f444f5f4e4f545f455849535400000000000000000000000000008152506103a3565b6040518060400160405280601681526020017f464c4545545f5245534f4c5645445f414c5245414459000000000000000000008152505b906103db576040517f08c379a00000000000000000000000000000000000000000000000000000000081526004016101f09190614b53565b506103fe8460400135856000013586602001358460800151866101400151610b68565b61041b846040013585606001358360200151846080015185610cf9565b7f00000000000000000000000000000000000000000000000000000000000000001561050057427f000000000000000000000000000000000000000000000000000000000000000081106104fe577f0000000000000000000000000000000000000000000000000000000000000000826020015164ffffffffff1610156104fe576040517f08c379a000000000000000000000000000000000000000000000000000000000815260206004820152601b60248201527f464c4545545f4c41554e434845445f494e5f424f4f545354524150000000000060448201526064016101f0565b505b61050982610eb3565b610120820151606083015161052c8361052736899003890189614bf5565b61139c565b61054a8361053f36899003890189614bf5565b86610120015161146a565b6105548385611492565b61055e838561151f565b6105768361057136899003890189614bf5565b611686565b6105828784883561173d565b6105928585856101200151611a15565b61059c8385611d30565b60008781526001602081815260409283902080547fffffff00000000ffffffffffffffffffffffffffffffffffffffffffffffffff81167901000000000000000000000000000000000000000000000000009182900463ffffffff9081166380000000178302919091178355919093018054610160890151958a01516101208a015173ffffffffffffffffffffffffffffffffffffffff8a167fffffff00000000ffffffffff00000000000000000000000000000000000000009093169290921796909316909402949094177fffff00ffffffff0000000000ffffffffffffffffffffffffffffffffffffffff16740100000000000000000000000000000000000000004264ffffffffff16027fffff00ffffffffffffffffffffffffffffffffffffffffffffffffffffffffff16177d01000000000000000000000000000000000000000000000000000000000091151591909102177fff00ffffffffffffffffffffffffffffffffffffffffffffffffffffffffffff167e010000000000000000000000000000000000000000000000000000000000009215159290920291909117909155610760908890859085908a013561075b838a88611ec5565b611feb565b8360400151801561077357508261012001515b156107fa5760a084015164ffffffffff16156107c1576107bc846101200151655af3107a40006107a78761014001516120a3565b63ffffffff166107b79190614cb7565b612202565b6107fa565b6107fa846101000151856101200151655af3107a40006107e58861014001516120a3565b63ffffffff166107f59190614cb7565b6122b8565b50505050505050565b6040805161018081018252600080825260208201819052918101829052606081018290526080810182905260a0810182905260c0810182905260e08101829052610100810182905261012081018290526101408101829052610160810191909152600080610874856060015161237b565b85855260808088015164ffffffffff908116602088015283151560408089019190915263ffffffff80851660608a015260a0808c015160040b948a0194909452908a01805183169389019390935291511660c0808801919091528801511660e0860152865173ffffffffffffffffffffffffffffffffffffffff908116610100870152875116610120860152909250905061095c84604080517f00000000000000000000000000000000000000000000000000000000000000006020820152908101829052600090606001604051602081830303815290604052805190602001209050919050565b61014084015250909392505050565b604080516102a081018252600080825260208201819052918101829052606081018290526080810182905260a0810182905260c0810182905260e08101829052610100810182905261012081018290526101408101829052610160810182905261018081018290526101a081018290526101c081018290526101e08101829052610200810182905261022081018290526102408101829052610260810182905261028081019190915282546000906001790100000000000000000000000000000000000000000000000000909104601f1c811614610a6d578354790100000000000000000000000000000000000000000000000000900463ffffffff16610a70565b60005b845473ffffffffffffffffffffffffffffffffffffffff8116845274010000000000000000000000000000000000000000810464ffffffffff16602085015263ffffffff82166040850181905260608501527d010000000000000000000000000000000000000000000000000000000000900462ffffff166102808401529050610b4783604080517f00000000000000000000000000000000000000000000000000000000000000006020820152908101829052600090606001604051602081830303815290604052805190602001209050919050565b60808301819052610b579061239a565b61ffff166102608301525092915050565b600080610b7484612437565b91509150600080610b8485612437565b90925090506000600284820b610b9f60808c901c6004614cf4565b610ba99190614daa565b600084900b610bbd60808c901c6004614cf4565b610bc79190614daa565b610bd19190614e1a565b610bdb9190615054565b6002600087900b610bff6fffffffffffffffffffffffffffffffff8d166004614cf4565b610c099190614daa565b600086900b610c2b6fffffffffffffffffffffffffffffffff8d166004614cf4565b610c359190614daa565b610c3f9190614e1a565b610c499190615054565b610c539190614daa565b600f0b905080610c6460028c615113565b11158015610c8757506002610c7a8b6001615122565b610c849190615113565b81105b610ced576040517f08c379a000000000000000000000000000000000000000000000000000000000815260206004820152600e60248201527f77726f6e672064697374616e636500000000000000000000000000000000000060448201526064016101f0565b50505050505050505050565b6000610d048361246b565b61ffff16610d347f0000000000000000000000000000000000000000000000000000000000000000612710614cb7565b610d3e9088614cb7565b610d489190615169565b610d599064ffffffffff8616615122565b90506000610d678683612502565b90508515610d825764ffffffffff8616610200840152610d91565b64ffffffffff82166102008401525b80421015610dfb576040517f08c379a000000000000000000000000000000000000000000000000000000000815260206004820152600960248201527f746f6f206561726c79000000000000000000000000000000000000000000000060448201526064016101f0565b610e257f000000000000000000000000000000000000000000000000000000000000000082615122565b42106107fa576040517f08c379a000000000000000000000000000000000000000000000000000000000815260206004820152602b60248201527f746f6f206c6174652c20796f7572207370616365736869707320617265206c6f60448201527f737420696e20737061636500000000000000000000000000000000000000000060648201526084016101f0565b60a081015164ffffffffff1615610f0457610ed18160a0015161251b565b15610f0457600060c082018190526060820181905260808201819052610120820181905260e08201819052604090910152565b6000816020015164ffffffffff1642610f1d919061517d565b90506000610f2f8361014001516125f9565b90506000610e1061ffff8316610f6b63ffffffff7f00000000000000000000000000000000000000000000000000000000000000001686614cb7565b610f759190614cb7565b610f7f9190615169565b606085015190915063ffffffff1660007f0000000000000000000000000000000000000000000000000000000000000000156112b5576000610fc085612696565b905060008760400151610fd4576000610fd6565b815b9050808411156110bc5760e08801516107089063ffffffff161561102857828960e0015163ffffffff1661070861100d9190614cb7565b6110179190615169565b905061070881101561102857506107085b6000610e108261105e63ffffffff7f0000000000000000000000000000000000000000000000000000000000000000168c614cb7565b6110689190614cb7565b6110729190615169565b90508061107d575060015b611087838761517d565b81111561109b57611098838761517d565b90505b8960400151156110a9578094505b6110b3818761517d565b9550505061121e565b87604001511561121e5760008590506000896080015160040b13156111e45760006127107f000000000000000000000000000000000000000000000000000000000000000061113561ffff8b1663ffffffff7f000000000000000000000000000000000000000000000000000000000000000016614cb7565b61113f9190614cb7565b6111499190615169565b60808b01516111619064ffffffffff16610e10614cb7565b61116b9190615169565b905088811061117c578194506111d6565b610e1061ffff89166111b463ffffffff7f00000000000000000000000000000000000000000000000000000000000000001684614cb7565b6111be9190614cb7565b6111c89190615169565b9450818511156111d6578194505b6111e0858361517d565b9150505b60006111f0868461517d565b90508082111561121457611204818361517d565b61120e9086615122565b94508091505b6110b38287615122565b8760400151156112ae576000836127106112587f000000000000000000000000000000000000000000000000000000000000000089614cb7565b6112629190615169565b61126c9190615122565b905060008160040b8a6080015160040b6112869190615194565b905061129183615208565b8112156112a4576112a183615208565b90505b60040b60808a0152505b505061133d565b8560400151156112d0576112c98383615122565b915061133d565b6000610e1061130563ffffffff7f00000000000000000000000000000000000000000000000000000000000000001688614cb7565b61131190610708614cb7565b61131b9190615169565b90508281111561132e575060009161133b565b611338818461517d565b92505b505b638000000082106113605761135760016380000000615241565b63ffffffff1691505b63ffffffff8216606087015260408601511580156113865750606086015163ffffffff16155b156113945760006101208701525b505050505050565b60006113c960027f0000000000000000000000000000000000000000000000000000000000000000615169565b836020015164ffffffffff166113df9190615169565b82516000908152600460209081526040808320848452909152902054606085015191925063ffffffff64010000000090910481169190811682101561143e5781856060018181516114309190615241565b63ffffffff16905250611446565b600060608601525b60608501516114559082615241565b63ffffffff1660a09095019490945250505050565b600080611478838587612703565b90151560e087015215156101009095019490945250505050565b81610100015115611501576127107f0000000000000000000000000000000000000000000000000000000000000000836060015163ffffffff166114d69190614cb7565b6114e09190615169565b826060015163ffffffff166114f5919061517d565b63ffffffff1660608301525b8160e00151156115155761020382826131cc565b6102038282613311565b60c082015163ffffffff1615610203578051600090815260046020526040812081600161156d60027f0000000000000000000000000000000000000000000000000000000000000000615169565b6115779042615169565b611581919061517d565b81526020808201929092526040908101600090812061018087015181546101a089015163ffffffff908116640100000000027fffffffffffffffffffffffffffffffffffffffffffffffff0000000000000000909216921691909117178155855182526004909352908120919250908161161c60027f0000000000000000000000000000000000000000000000000000000000000000615169565b6116269042615169565b815260208101919091526040016000206101c085015181546101e087015163ffffffff908116640100000000027fffffffffffffffffffffffffffffffffffffffffffffffff000000000000000090921692169190911717905550505050565b60a082015163ffffffff16156102035760006116c360027f0000000000000000000000000000000000000000000000000000000000000000615169565b836020015164ffffffffff166116d99190615169565b60a0840151835160009081526004602081815260408084208685529091529091208054939450919261171a908490640100000000900463ffffffff16615241565b92506101000a81548163ffffffff021916908363ffffffff160217905550505050565b600081815260208181526040808320815160e081018352815473ffffffffffffffffffffffffffffffffffffffff8116825264ffffffffff7401000000000000000000000000000000000000000082048116958301959095527901000000000000000000000000000000000000000000000000009004841692810192909252600181015463ffffffff8082166060850152640100000000820490941660808401526901000000000000000000810460040b60a08401526e010000000000000000000000000000900490921660c082015290919061181a9084610803565b905061182581610eb3565b60006118358261014001516125f9565b9050600061184282612696565b610280870151602088015191925062ffffff169060009061186a9064ffffffffff164261517d565b90506000610e1061ffff86166118a663ffffffff7f00000000000000000000000000000000000000000000000000000000000000001685614cb7565b6118b09190614cb7565b6118ba9190615169565b905060006127106118eb7f000000000000000000000000000000000000000000000000000000000000000084614cb7565b6118f59190615169565b6118ff9083615122565b905083811115611912576000935061191f565b61191c818561517d565b93505b600084886080015160040b6119349190615194565b905061193f86615208565b8112156119525761194f86615208565b90505b600481900b608089015261196889896000611a15565b604080514381524260208201527f438e507c246c311193c77528e3de231eec8ce4727cce091a1dbbecf85b427893910160405180910390a18b8a7f2d45b84a4a4a5856647775e31f7c00f62fd79e6e9ba64426dad78c4c8e4bb7df8a606001518b608001518c60e001516040516119ff9392919063ffffffff938416815260049290920b6020830152909116604082015260600190565b60405180910390a3505050505050505050505050565b60008260a0015164ffffffffff16118015611a39575060c082015164ffffffffff16155b15611a4757611a4782613360565b81610120015173ffffffffffffffffffffffffffffffffffffffff1682610100015173ffffffffffffffffffffffffffffffffffffffff1614611bac5761012082015183547fffffffffffffffffffffffff00000000000000000000000000000000000000001673ffffffffffffffffffffffffffffffffffffffff909116908117845515611b1b5782547fffffffffffffff0000000000ffffffffffffffffffffffffffffffffffffffff16740100000000000000000000000000000000000000004264ffffffffff1602178355611b42565b82547fffffffffffffff0000000000ffffffffffffffffffffffffffffffffffffffff1683555b816000015182610120015173ffffffffffffffffffffffffffffffffffffffff1683610100015173ffffffffffffffffffffffffffffffffffffffff167fddf252ad1be2c89b69c2b068fc378daa952ba7f163c4a11628f55a4df523b3ef60405160405180910390a45b8015611bdd5782547fffff0000000000ffffffffffffffffffffffffffffffffffffffffffffffffff168355611c4e565b8160a0015164ffffffffff168260c0015164ffffffffff1614611c4e5760c0820151835464ffffffffff909116790100000000000000000000000000000000000000000000000000027fffff0000000000ffffffffffffffffffffffffffffffffffffffffffffffffff9091161783555b611c608260400151836060015161361c565b60019093018054608084015160e0909401514264ffffffffff908116640100000000027fffffffffffffffffffffffffffffffffffffffffffffff0000000000ffffffff63ffffffff9384166e01000000000000000000000000000002167fffffffffffffffffffffffffffff00000000ffffffffff0000000000ffffffff929097166901000000000000000000027fffffffffffffffffffffffffffffffffffff0000000000ffffffffff00000000909416979092169690961791909117949094169290921792909217905550565b8161010001516102035780516000908152600960209081526040808320855173ffffffffffffffffffffffffffffffffffffffff168452825280832061020086015164ffffffffff168452909152902061022083015160c0840151610160850151611d9b9190615266565b611da59190615266565b815463ffffffff919091167801000000000000000000000000000000000000000000000000027fffffffff00000000ffffffffffffffffffffffffffffffffffffffffffffffff909116178155610120830151611e03576000611e09565b81606001515b836102400151846101400151611e1f9190615266565b611e299190615266565b815461026085015161ffff167c0100000000000000000000000000000000000000000000000000000000027fffff0000ffffffffffffffffffffffffffffffffffffffffffffffffffffffff63ffffffff939093167401000000000000000000000000000000000000000002929092167fffff0000ffffffff00000000ffffffffffffffffffffffffffffffffffffffff909116171790555050565b6040805161016081018252600080825260208201819052918101829052606081018290526080810182905260a0810182905260c0810182905260e081018290526101008101829052610120810182905261014081019190915260608084015163ffffffff9081168352608085015160040b602084015260e085015181166040840152831690820152610100840151611f5e576000611f81565b83606001518460a001518560400151611f779190615241565b611f819190615241565b63ffffffff908116608083015261014080860151821660a080850191909152610160870151831660c08086019190915290870151831660e0850152860151821661010084015261022086015182166101208401526102409095015116938101939093525090919050565b604080514381524260208201527f438e507c246c311193c77528e3de231eec8ce4727cce091a1dbbecf85b427893910160405180910390a18273ffffffffffffffffffffffffffffffffffffffff16846000015173ffffffffffffffffffffffffffffffffffffffff16867fce4582dbaeda56557d7e73ae521699bff0c6e3a470f1f1089e8f977cac2083dd858860e0015189610120015187604051612094949392919061528e565b60405180910390a45050505050565b60006120ae8261363b565b612114576040517f08c379a000000000000000000000000000000000000000000000000000000000815260206004820152601160248201527f504c414e45545f4e4f545f45584953545300000000000000000000000000000060448201526064016101f0565b600061212183600c613657565b905060ff81167f00000000000000000000000000000000000000000000000000000000000000007f0000000000000000000000000000000000000000000000000000000000000000612174836002615383565b61217f9060016153ad565b61ffff1660208110612193576121936153ca565b1a7f00000000000000000000000000000000000000000000000000000000000000006121c0846002615383565b61ffff16602081106121d4576121d46153ca565b6121e291901a610100615383565b6121ec91906153ad565b61ffff166121fa9190614cb7565b949350505050565b61020361222d7f27ec6af4a6510eb9b7e0cc7f39415b7f15e430e53eb0cd3997e7c7e0cf680f6e5490565b6040805173ffffffffffffffffffffffffffffffffffffffff8616602482015260448082018690528251808303909101815260649091019091526020810180517bffffffffffffffffffffffffffffffffffffffffffffffffffffffff167ff5d82b6b00000000000000000000000000000000000000000000000000000000179052620177006136fb565b6123766122e37f27ec6af4a6510eb9b7e0cc7f39415b7f15e430e53eb0cd3997e7c7e0cf680f6e5490565b6040805173ffffffffffffffffffffffffffffffffffffffff87811660248301528616604482015260648082018690528251808303909101815260849091019091526020810180517bffffffffffffffffffffffffffffffffffffffffffffffffffffffff167fbb35783b000000000000000000000000000000000000000000000000000000001790526202ee006136fb565b505050565b638000000081811681149060009061239390846153f9565b9050915091565b60006123a58261363b565b61240b576040517f08c379a000000000000000000000000000000000000000000000000000000000815260206004820152601160248201527f504c414e45545f4e4f545f45584953545300000000000000000000000000000060448201526064016101f0565b612416826014613657565b6124259060ff16610190615383565b61243190610fa06153ad565b92915050565b600080612446838260036137f8565b61245190600161541c565b915061246083600260036137f8565b61239390600161541c565b60006124768261363b565b6124dc576040517f08c379a000000000000000000000000000000000000000000000000000000000815260206004820152601160248201527f504c414e45545f4e4f545f45584953545300000000000000000000000000000060448201526064016101f0565b6124e7826024613657565b6124f69060ff1661014d615383565b6124319061138d6153ad565b6000818310156125125781612514565b825b9392505050565b600064ffffffffff821661253157506000919050565b427f00000000000000000000000000000000000000000000000000000000000000001580159061258157507f00000000000000000000000000000000000000000000000000000000000000008110155b80156125b357507f00000000000000000000000000000000000000000000000000000000000000008364ffffffffff16105b156125c15750600192915050565b6125f27f000000000000000000000000000000000000000000000000000000000000000064ffffffffff8516615122565b1092915050565b60006126048261363b565b61266a576040517f08c379a000000000000000000000000000000000000000000000000000000000815260206004820152601160248201527f504c414e45545f4e4f545f45584953545300000000000000000000000000000060448201526064016101f0565b61243182600c7f0708083409600a8c0bb80ce40e100e100e100e101068151819c81e7823282ee061380d565b6000610e106126c97f000000000000000000000000000000000000000000000000000000000000000061ffff8516614cb7565b6126d39190615169565b6124319063ffffffff7f000000000000000000000000000000000000000000000000000000000000000016615122565b60008073ffffffffffffffffffffffffffffffffffffffff851661274357600061273a84600001518660e001518660200151613887565b915091506131c4565b825173ffffffffffffffffffffffffffffffffffffffff868116911614801561279b57508360e0015173ffffffffffffffffffffffffffffffffffffffff168573ffffffffffffffffffffffffffffffffffffffff16145b156127ac57506001905060006131c4565b8360800151806127d55750825173ffffffffffffffffffffffffffffffffffffffff8681169116145b15612ed45760a084015173ffffffffffffffffffffffffffffffffffffffff16158061283057508473ffffffffffffffffffffffffffffffffffffffff168460a0015173ffffffffffffffffffffffffffffffffffffffff16145b806128545750825173ffffffffffffffffffffffffffffffffffffffff8681169116145b1561297e5760e084015160208401516040517fdf2c0f4900000000000000000000000000000000000000000000000000000000815273ffffffffffffffffffffffffffffffffffffffff9283166004820152878316602482015264ffffffffff90911660448201526000917f0000000000000000000000000000000000000000000000000000000000000000169063df2c0f4990606401604080518083038186803b15801561290257600080fd5b505afa158015612916573d6000803e3d6000fd5b505050506040513d601f19601f8201168201806040525081019061293a9190615490565b9150506001816bffffffffffffffffffffffff16600014806129745750846020015164ffffffffff16826bffffffffffffffffffffffff16115b92509250506131c4565b60a084015173ffffffffffffffffffffffffffffffffffffffff1660011415612d2e578360e0015173ffffffffffffffffffffffffffffffffffffffff16836000015173ffffffffffffffffffffffffffffffffffffffff161415612afa5760e084015160208401516040517fdf2c0f4900000000000000000000000000000000000000000000000000000000815273ffffffffffffffffffffffffffffffffffffffff9283166004820152878316602482015264ffffffffff90911660448201526000917f0000000000000000000000000000000000000000000000000000000000000000169063df2c0f49906064015b604080518083038186803b158015612a8757600080fd5b505afa158015612a9b573d6000803e3d6000fd5b505050506040513d601f19601f82011682018060405250810190612abf9190615490565b9150506000816bffffffffffffffffffffffff1611846020015164ffffffffff16826bffffffffffffffffffffffff161192509250506131c4565b825160208401516040517fdf2c0f4900000000000000000000000000000000000000000000000000000000815273ffffffffffffffffffffffffffffffffffffffff9283166004820152878316602482015264ffffffffff90911660448201526000917f0000000000000000000000000000000000000000000000000000000000000000169063df2c0f4990606401604080518083038186803b158015612ba057600080fd5b505afa158015612bb4573d6000803e3d6000fd5b505050506040513d601f19601f82011682018060405250810190612bd89190615490565b9150506bffffffffffffffffffffffff8116612c0757600061297485600001518760e001518760200151613887565b60e085015160208501516040517fdf2c0f4900000000000000000000000000000000000000000000000000000000815273ffffffffffffffffffffffffffffffffffffffff9283166004820152888316602482015264ffffffffff90911660448201526000917f0000000000000000000000000000000000000000000000000000000000000000169063df2c0f49906064015b604080518083038186803b158015612cb157600080fd5b505afa158015612cc5573d6000803e3d6000fd5b505050506040513d601f19601f82011682018060405250810190612ce99190615490565b9150506001816bffffffffffffffffffffffff1660001480612d235750856020015164ffffffffff16826bffffffffffffffffffffffff16115b9350935050506131c4565b60018460a0015173ffffffffffffffffffffffffffffffffffffffff161115612ecf5760a08401516040517f4ed2986d00000000000000000000000000000000000000000000000000000000815273ffffffffffffffffffffffffffffffffffffffff878116600483015291821660248201526000917f00000000000000000000000000000000000000000000000000000000000000001690634ed2986d90604401604080518083038186803b158015612de757600080fd5b505afa158015612dfb573d6000803e3d6000fd5b505050506040513d601f19601f82011682018060405250810190612e1f91906154c5565b5090506bffffffffffffffffffffffff811615612ecd5760e085015160208501516040517fdf2c0f4900000000000000000000000000000000000000000000000000000000815273ffffffffffffffffffffffffffffffffffffffff9283166004820152888316602482015264ffffffffff90911660448201526000917f0000000000000000000000000000000000000000000000000000000000000000169063df2c0f4990606401612c9a565b505b6131a6565b60a084015173ffffffffffffffffffffffffffffffffffffffff1660011415612fca578360e0015173ffffffffffffffffffffffffffffffffffffffff16836000015173ffffffffffffffffffffffffffffffffffffffff161415612afa5760e084015160208401516040517fdf2c0f4900000000000000000000000000000000000000000000000000000000815273ffffffffffffffffffffffffffffffffffffffff9283166004820152878316602482015264ffffffffff90911660448201526000917f0000000000000000000000000000000000000000000000000000000000000000169063df2c0f4990606401612a70565b60018460a0015173ffffffffffffffffffffffffffffffffffffffff1611801561302457508473ffffffffffffffffffffffffffffffffffffffff168460a0015173ffffffffffffffffffffffffffffffffffffffff1614155b156131a65760a08401516040517f4ed2986d00000000000000000000000000000000000000000000000000000000815273ffffffffffffffffffffffffffffffffffffffff878116600483015291821660248201526000917f00000000000000000000000000000000000000000000000000000000000000001690634ed2986d90604401604080518083038186803b1580156130bf57600080fd5b505afa1580156130d3573d6000803e3d6000fd5b505050506040513d601f19601f820116820180604052508101906130f791906154c5565b5090506bffffffffffffffffffffffff81166131a45760e085015160208501516040517fdf2c0f4900000000000000000000000000000000000000000000000000000000815273ffffffffffffffffffffffffffffffffffffffff9283166004820152888316602482015264ffffffffff90911660448201526000917f0000000000000000000000000000000000000000000000000000000000000000169063df2c0f4990606401612c9a565b505b60006131bf84600001518660e001518660200151613887565b915091505b935093915050565b60006131d883836139d8565b836060015183606001516131ec9190615266565b63ffffffff166131fc9190615122565b9050638000000081106132215761321860016380000000615241565b63ffffffff1690505b63ffffffff811660608301526040820151613267578160e0015163ffffffff16826060015163ffffffff16111561237657606082015163ffffffff1660e0830152505050565b600061327f61327a8461014001516125f9565b612696565b905060007f00000000000000000000000000000000000000000000000000000000000000001180156132b657508063ffffffff1682115b15613303578260e0015163ffffffff168184606001516132d69190615241565b63ffffffff1611156132fe578083606001516132f29190615241565b63ffffffff1660e08401525b61330b565b600060e08401525b50505050565b806040015115801561333d575061332c816101400151613ad1565b61ffff16816060015163ffffffff16105b1561334c576102038282613b68565b6133568282613c53565b6102038282613df3565b600061337b8261010001518360000151846101400151613f4f565b82516000908152600b602052604090205490915080156135e6576133c27f00000000000000000000000000000000000000000000000000000000000000006207e9006154f1565b6133d29063ffffffff1682615122565b8360a0015164ffffffffff161061353e576040517ff6b911bc00000000000000000000000000000000000000000000000000000000815230600482018190526024820152604481018390527f000000000000000000000000000000000000000000000000000000000000000073ffffffffffffffffffffffffffffffffffffffff169063f6b911bc90606401600060405180830381600087803b15801561347857600080fd5b505af115801561348c573d6000803e3d6000fd5b5050505061010083015173ffffffffffffffffffffffffffffffffffffffff166000908152600260205260408120546134c6908490615122565b6101008501805173ffffffffffffffffffffffffffffffffffffffff9081166000908152600260209081526040808320869055935184518681529182019290925293945016917f05eefb5f2a67125e8c65550a4ffa0f542f75624e866ef58fb72bfb547540309291015b60405180910390a250505050565b61010083015173ffffffffffffffffffffffffffffffffffffffff166000908152600a6020526040812054613574908490615122565b6101008501805173ffffffffffffffffffffffffffffffffffffffff9081166000908152600a6020908152604091829020859055925181518581526001948101949094529394509216917f05eefb5f2a67125e8c65550a4ffa0f542f75624e866ef58fb72bfb54754030929101613530565b61010083015173ffffffffffffffffffffffffffffffffffffffff166000908152600260205260408120546134c6908490615122565b6000818361362b576000613631565b63800000005b6125149190615266565b600061364a82603460106137f8565b60ff166001149050919050565b600080613666848460406137f8565b90506000613675600283615514565b90506000613684600284615536565b905060007f01223334444555555666666677777777888888889999999aaaaaabbbbcccddef60ff8416602081106136bd576136bd6153ca565b1a905060ff82166136db5760048160ff16901c945050505050612431565b6136e6601082615536565b945050505050612431565b5050505092915050565b73ffffffffffffffffffffffffffffffffffffffff831615612376578273ffffffffffffffffffffffffffffffffffffffff16818360405161373d9190615558565b60006040518083038160008787f1925050503d806000811461377b576040519150601f19603f3d011682016040523d82523d6000602084013e613780565b606091505b505050603f816137909190615169565b5a11612376576040517f08c379a000000000000000000000000000000000000000000000000000000000815260206004820152601d60248201527f4e4f545f454e4f5547485f4741535f464f525f494e4e45525f43414c4c00000060448201526064016101f0565b60006121fa60ff80841690851686901c615574565b60008061381a8585613657565b905082613828826002615588565b6138339060016155a9565b60ff1660208110613846576138466153ca565b1a83613853836002615588565b60ff1660208110613866576138666153ca565b61387491901a610100615383565b61387e91906153ad565b95945050505050565b60008273ffffffffffffffffffffffffffffffffffffffff168473ffffffffffffffffffffffffffffffffffffffff1614156138c557506000612514565b6040517fdf2c0f4900000000000000000000000000000000000000000000000000000000815273ffffffffffffffffffffffffffffffffffffffff8581166004830152848116602483015264ffffffffff841660448301526000917f00000000000000000000000000000000000000000000000000000000000000009091169063df2c0f4990606401604080518083038186803b15801561396557600080fd5b505afa158015613979573d6000803e3d6000fd5b505050506040513d601f19601f8201168201806040525081019061399d9190615490565b9150506bffffffffffffffffffffffff8116158061387e57508264ffffffffff16816bffffffffffffffffffffffff16119150509392505050565b60006139e48383613c53565b61024083015163ffffffff161561243157610260830151610140830151600090613a0d906140ad565b905060008561024001518660600151613a269190615266565b63ffffffff1690506000613a4f8288610220015163ffffffff168661ffff168661ffff16614129565b5090508063ffffffff1687610240015163ffffffff1611156136f15780876102400151613a7c9190615241565b63ffffffff16945086610240015163ffffffff16851115613aa45760006102408801526136f1565b8487610240015163ffffffff16613abb919061517d565b63ffffffff166102408801525050505092915050565b6000613adc8261363b565b613b42576040517f08c379a000000000000000000000000000000000000000000000000000000000815260206004820152601160248201527f504c414e45545f4e4f545f45584953545300000000000000000000000000000060448201526064016101f0565b613b4d82602c613657565b613b5c9060ff16610bb8615383565b61243190613a986153ad565b6000613b77836080015161239a565b90506000613b898361014001516140ad565b90506000613b9b846101400151613ad1565b9050600080613bc2876060015163ffffffff168461ffff168761ffff168761ffff16614129565b63ffffffff8083166101408b01529193509150811661ffff8416148015613bf857508163ffffffff16876060015163ffffffff16115b156107fa57818760600151613c0d9190615241565b63ffffffff90811660608801528116610160880152600161012080890191909152875173ffffffffffffffffffffffffffffffffffffffff169087015250505050505050565b816101000151158015613c7d5750610200820151613c7390610a8c6155ce565b64ffffffffff1642105b156102035780516000908152600960209081526040808320855173ffffffffffffffffffffffffffffffffffffffff908116855290835281842061020087015164ffffffffff16855283529281902081516080810183529054938416815274010000000000000000000000000000000000000000840463ffffffff9081169382018490527801000000000000000000000000000000000000000000000000850416918101919091527c010000000000000000000000000000000000000000000000000000000090920461ffff1660608301521561237657806020015163ffffffff16836060015163ffffffff16613d749190615122565b816020015163ffffffff16826060015161ffff16613d929190614cb7565b846060015163ffffffff1685610260015161ffff16613db19190614cb7565b613dbb9190615122565b613dc59190615169565b61ffff16610260840152602081015163ffffffff908116610240850152604082015116610220840152505050565b613dfd82826142ca565b6000826101c001518361018001518461022001518460600151613e209190615266565b613e2a9190615266565b613e349190615266565b63ffffffff1690506000613e4c8361014001516125f9565b905081158015613e6657506000846060015163ffffffff16115b15613f3957835173ffffffffffffffffffffffffffffffffffffffff1661012084015260608085015163ffffffff16908401526040830151613eb757606083015163ffffffff1660e0840152613f2c565b7f000000000000000000000000000000000000000000000000000000000000000015613f2c576000613ee882612696565b90508063ffffffff16846060015163ffffffff161115613f2257808460600151613f129190615241565b63ffffffff1660e0850152613f2a565b600060e08501525b505b600161012085015261330b565b613f4484848461443f565b61330b8484836149db565b6000655af3107a4000613f61836120a3565b63ffffffff16613f719190614cb7565b604080514381524260208201529192507f438e507c246c311193c77528e3de231eec8ce4727cce091a1dbbecf85b427893910160405180910390a1828473ffffffffffffffffffffffffffffffffffffffff167f1c363b29828a892b7cddafe9583ef52e0d5aca0ea7011bda6ccf039e1781f73883604051613ff591815260200190565b60405180910390a360008381526007602052604090205480156140a55773ffffffffffffffffffffffffffffffffffffffff85166000818152600860209081526040808320858452825280832080547fffffffffffffffffffffffffffffffffffffffffffffffffffffffffffffff001660011790558783526007909152808220829055518392879290917f74f110a1e0cd4892234c7ba49df9f8a354cd8d29b272f7557c9b8c3c38a653369190a45b509392505050565b60006140b88261363b565b61411e576040517f08c379a000000000000000000000000000000000000000000000000000000000815260206004820152601160248201527f504c414e45545f4e4f545f45584953545300000000000000000000000000000060448201526064016101f0565b61241682601c613657565b600080851580614137575084155b15614147575060009050806142c1565b600085614174887f0000000000000000000000000000000000000000000000000000000000000000614cb7565b61417e9190615169565b6141ab7f0000000000000000000000000000000000000000000000000000000000000000620f424061517d565b6141b59190615122565b6141bf9088614cb7565b90506000620f4240856141d28885614cb7565b6141dc9190615169565b6141e69190615169565b9050808711156141fb578793508092506142be565b600088614228897f0000000000000000000000000000000000000000000000000000000000000000614cb7565b6142329190615169565b61425f7f0000000000000000000000000000000000000000000000000000000000000000620f424061517d565b6142699190615122565b6142739089614cb7565b90506000620f4240886142868985614cb7565b6142909190615169565b61429a9190615169565b63ffffffff1690508981106142b7576142b460018b61517d565b90505b9450879350505b50505b94509492505050565b60006142f760027f0000000000000000000000000000000000000000000000000000000000000000615169565b6143019042615169565b82516000908152600460205260408120919250908161432160018561517d565b815260208101919091526040016000208054909150638000000063ffffffff9091161161435557805463ffffffff1661435b565b637fffffff5b63ffffffff9081166101808601528154638000000064010000000090910490911611614396578054640100000000900463ffffffff1661439c565b637fffffff5b63ffffffff9081166101a08601528351600090815260046020908152604080832086845290915290208054909163800000009116116143e257805463ffffffff166143e8565b637fffffff5b63ffffffff9081166101c08701528154638000000064010000000090910490911611614423578054640100000000900463ffffffff16614429565b637fffffff5b63ffffffff166101e09095019490945250505050565b610260830151610140830151600090614457906140ad565b9050600085610240015186606001516144709190615266565b63ffffffff16905060008061448f83878761ffff168761ffff16614129565b63ffffffff81166101608b01526102408a015191935091506144b19083615241565b63ffffffff9081166101408a0152606089015116158015906144dd57508588610160015163ffffffff16145b1561467c57600088610220015163ffffffff16886060015163ffffffff1688614506919061517d565b614510919061517d565b905063800000008111156145365761452d60016380000000615241565b63ffffffff1690505b63ffffffff811660c08a018190526101608a01516145549190615241565b63ffffffff166101608a015261014089015160608a01516145759190615241565b63ffffffff1660608901526001610120808b0191909152895173ffffffffffffffffffffffffffffffffffffffff169089015260408801516145c657606088015163ffffffff1660e0890152614676565b7f0000000000000000000000000000000000000000000000000000000000000000156146765760006145fc8961014001516125f9565b9050600061460982612696565b90508063ffffffff168a6060015163ffffffff16111561466b578960e0015163ffffffff16818b6060015161463e9190615241565b63ffffffff16111561466657808a6060015161465a9190615241565b63ffffffff1660e08b01525b614673565b600060e08b01525b50505b506149d1565b876060015163ffffffff1688610140015163ffffffff16141561496f5787610220015187606001516146ae9190615266565b63ffffffff168163ffffffff1611156148155761022088015160608801516146d69083615241565b6146e09190615241565b63ffffffff90811660c08a01908152600060608a0152516101808a015190821691161061474c578760c00151886101800181815161471e9190615241565b63ffffffff1690525060c08801516101a08901805161473e908390615266565b63ffffffff16905250614841565b876101800151886101a0018181516147649190615266565b63ffffffff1690525061018088015160c089015160009161478491615241565b90508063ffffffff16896101c0015163ffffffff16106147dd5780896101c0018181516147b19190615241565b63ffffffff169052506101e0890180518291906147cf908390615266565b63ffffffff16905250614807565b886101c00151896101e0018181516147f59190615266565b63ffffffff1690525060006101c08a01525b506000610180890152614841565b80886102200151886060015161482b9190615266565b6148359190615241565b63ffffffff1660608801525b8761022001518860c0015189610160015161485c9190615241565b6148669190615241565b63ffffffff1661016089015260408701516148bf578660e0015163ffffffff168163ffffffff16111561489f57600060e08801526149d1565b808760e0018181516148b19190615241565b63ffffffff169052506149d1565b7f00000000000000000000000000000000000000000000000000000000000000001561496a5760006148f58861014001516125f9565b9050600061490282612696565b90508063ffffffff16896060015163ffffffff16111561495f578860e0015163ffffffff168363ffffffff161161495357828960e0018181516149459190615241565b63ffffffff16905250614967565b600060e08a0152614967565b600060e08a01525b50505b6149d1565b6040517f08c379a000000000000000000000000000000000000000000000000000000000815260206004820152600960248201527f5a45524f5f5a45524f000000000000000000000000000000000000000000000060448201526064016101f0565b5050505050505050565b60006149e682612696565b905060008460c0015163ffffffff1685610160015163ffffffff16614a0b9190615122565b9050600081856080015160040b614a229190615194565b9050614a2d83615208565b811215614a4057614a3d83615208565b90505b60040b60809094019390935250505050565b600080828403610140811215614a6757600080fd5b833592506101207fffffffffffffffffffffffffffffffffffffffffffffffffffffffffffffffe082011215614a9c57600080fd5b506020830190509250929050565b80358015158114614aba57600080fd5b919050565b600060208284031215614ad157600080fd5b61251482614aaa565b73ffffffffffffffffffffffffffffffffffffffff81168114614afc57600080fd5b50565b8035614aba81614ada565b600060208284031215614b1c57600080fd5b813561251481614ada565b60005b83811015614b42578181015183820152602001614b2a565b8381111561330b5750506000910152565b6020815260008251806020840152614b72816040850160208701614b27565b601f017fffffffffffffffffffffffffffffffffffffffffffffffffffffffffffffffe0169190910160400192915050565b604051610120810167ffffffffffffffff81118282101715614bef577f4e487b7100000000000000000000000000000000000000000000000000000000600052604160045260246000fd5b60405290565b60006101208284031215614c0857600080fd5b614c10614ba4565b82358152602083013560208201526040830135604082015260608301356060820152614c3e60808401614aaa565b6080820152614c4f60a08401614aff565b60a082015260c083013560c0820152614c6a60e08401614aff565b60e0820152610100614c7d818501614aff565b908201529392505050565b7f4e487b7100000000000000000000000000000000000000000000000000000000600052601160045260246000fd5b6000817fffffffffffffffffffffffffffffffffffffffffffffffffffffffffffffffff0483118215151615614cef57614cef614c88565b500290565b600081600f0b83600f0b6f7fffffffffffffffffffffffffffffff600082136000841383830485118282161615614d2d57614d2d614c88565b7fffffffffffffffffffffffffffffffff800000000000000000000000000000006000851286820586128184161615614d6857614d68614c88565b60008712925085820587128484161615614d8457614d84614c88565b85850587128184161615614d9a57614d9a614c88565b5050509290910295945050505050565b600081600f0b83600f0b60008212826f7fffffffffffffffffffffffffffffff03821381151615614ddd57614ddd614c88565b827fffffffffffffffffffffffffffffffff80000000000000000000000000000000038212811615614e1157614e11614c88565b50019392505050565b600081600f0b83600f0b60008112817fffffffffffffffffffffffffffffffff8000000000000000000000000000000001831281151615614e5d57614e5d614c88565b816f7fffffffffffffffffffffffffffffff018313811615614e8157614e81614c88565b5090039392505050565b600181815b80851115614ee457817fffffffffffffffffffffffffffffffffffffffffffffffffffffffffffffffff04821115614eca57614eca614c88565b80851615614ed757918102915b93841c9390800290614e90565b509250929050565b80825b6001808611614efe57506131c4565b816f7fffffffffffffffffffffffffffffff04821115614f2057614f20614c88565b80861615614f2d57918102915b9490941c938002614eef565b6000828015614f4f5760018114614f5957614f62565b6001915050612431565b82915050612431565b5081614f7057506000612431565b50600160008213808214614f89578015614fb057614fd2565b826f7fffffffffffffffffffffffffffffff04831115614fab57614fab614c88565b614fd2565b826f7fffffffffffffffffffffffffffffff05831215614fd257614fd2614c88565b5080831615614fde5750805b614fee8360011c83840283614eec565b806f7fffffffffffffffffffffffffffffff04821160008313161561501557615015614c88565b807fffffffffffffffffffffffffffffffff8000000000000000000000000000000005821260008312161561504c5761504c614c88565b029392505050565b600061251460ff841683600f0b614f39565b60008261507557506001612431565b8161508257506000612431565b8160018114614f4f5760028114615098576150b4565b60ff8411156150a9576150a9614c88565b50506001821b612431565b5060208310610133831016604e8410600b84101617156150d7575081810a612431565b6150e18383614e8b565b807fffffffffffffffffffffffffffffffffffffffffffffffffffffffffffffffff0482111561504c5761504c614c88565b600061251460ff841683615066565b6000821982111561513557615135614c88565b500190565b7f4e487b7100000000000000000000000000000000000000000000000000000000600052601260045260246000fd5b6000826151785761517861513a565b500490565b60008282101561518f5761518f614c88565b500390565b6000808312837f8000000000000000000000000000000000000000000000000000000000000000018312811516156151ce576151ce614c88565b837f7fffffffffffffffffffffffffffffffffffffffffffffffffffffffffffffff01831381161561520257615202614c88565b50500390565b60007f800000000000000000000000000000000000000000000000000000000000000082141561523a5761523a614c88565b5060000390565b600063ffffffff8381169083168181101561525e5761525e614c88565b039392505050565b600063ffffffff80831681851680830382111561528557615285614c88565b01949350505050565b84815283151560208201528215156040820152815163ffffffff1660608201526101c0810160208301516152c7608084018260040b9052565b50604083015163ffffffff811660a084015250606083015163ffffffff811660c084015250608083015163ffffffff811660e08401525060a08301516101006153178185018363ffffffff169052565b60c085015191506101206153328186018463ffffffff169052565b60e0860151925061014061534d8187018563ffffffff169052565b9186015163ffffffff9081166101608701529086015181166101808601529401519093166101a090920191909152949350505050565b600061ffff808316818516818304811182151516156153a4576153a4614c88565b02949350505050565b600061ffff80831681851680830382111561528557615285614c88565b7f4e487b7100000000000000000000000000000000000000000000000000000000600052603260045260246000fd5b600063ffffffff808416806154105761541061513a565b92169190910692915050565b60008160000b8360000b60008112817fffffffffffffffffffffffffffffffffffffffffffffffffffffffffffffff800183128115161561545f5761545f614c88565b81607f018313811615614e8157614e81614c88565b80516bffffffffffffffffffffffff81168114614aba57600080fd5b600080604083850312156154a357600080fd5b82516154ae81614ada565b91506154bc60208401615474565b90509250929050565b600080604083850312156154d857600080fd5b6154e183615474565b9150602083015190509250929050565b600063ffffffff808416806155085761550861513a565b92169190910492915050565b600060ff8316806155275761552761513a565b8060ff84160491505092915050565b600060ff8316806155495761554961513a565b8060ff84160691505092915050565b6000825161556a818460208701614b27565b9190910192915050565b6000826155835761558361513a565b500690565b600060ff821660ff84168160ff048111821515161561504c5761504c614c88565b600060ff821660ff84168060ff038211156155c6576155c6614c88565b019392505050565b600064ffffffffff80831681851680830382111561528557615285614c8856fea26469706673582212201cdced078fbfa2a34fe334c4a51d70b4251c245d59df921ad7b2856663ed3a9164736f6c63430008090033",
  "devdoc": {
    "kind": "dev",
    "methods": {},
    "version": 1
  },
  "userdoc": {
    "kind": "user",
    "methods": {},
    "version": 1
  },
  "storageLayout": {
    "storage": [
      {
        "astId": 13745,
        "contract": "src/outerspace/facets/OuterSpaceFleetsRevealFacet.sol:OuterSpaceFleetsRevealFacet",
        "label": "_planets",
        "offset": 0,
        "slot": "0",
        "type": "t_mapping(t_uint256,t_struct(Planet)22718_storage)"
      },
      {
        "astId": 13750,
        "contract": "src/outerspace/facets/OuterSpaceFleetsRevealFacet.sol:OuterSpaceFleetsRevealFacet",
        "label": "_fleets",
        "offset": 0,
        "slot": "1",
        "type": "t_mapping(t_uint256,t_struct(Fleet)22737_storage)"
      },
      {
        "astId": 13754,
        "contract": "src/outerspace/facets/OuterSpaceFleetsRevealFacet.sol:OuterSpaceFleetsRevealFacet",
        "label": "_stakeReadyToBeWithdrawn",
        "offset": 0,
        "slot": "2",
        "type": "t_mapping(t_address,t_uint256)"
      },
      {
        "astId": 13760,
        "contract": "src/outerspace/facets/OuterSpaceFleetsRevealFacet.sol:OuterSpaceFleetsRevealFacet",
        "label": "_operators",
        "offset": 0,
        "slot": "3",
        "type": "t_mapping(t_address,t_mapping(t_address,t_bool))"
      },
      {
        "astId": 13767,
        "contract": "src/outerspace/facets/OuterSpaceFleetsRevealFacet.sol:OuterSpaceFleetsRevealFacet",
        "label": "_inFlight",
        "offset": 0,
        "slot": "4",
        "type": "t_mapping(t_uint256,t_mapping(t_uint256,t_struct(InFlight)22694_storage))"
      },
      {
        "astId": 13770,
        "contract": "src/outerspace/facets/OuterSpaceFleetsRevealFacet.sol:OuterSpaceFleetsRevealFacet",
        "label": "_discovered",
        "offset": 0,
        "slot": "5",
        "type": "t_struct(Discovered)22703_storage"
      },
      {
        "astId": 13774,
        "contract": "src/outerspace/facets/OuterSpaceFleetsRevealFacet.sol:OuterSpaceFleetsRevealFacet",
        "label": "_prevRewardIds",
        "offset": 0,
        "slot": "6",
        "type": "t_mapping(t_address,t_uint256)"
      },
      {
        "astId": 13778,
        "contract": "src/outerspace/facets/OuterSpaceFleetsRevealFacet.sol:OuterSpaceFleetsRevealFacet",
        "label": "_rewards",
        "offset": 0,
        "slot": "7",
        "type": "t_mapping(t_uint256,t_uint256)"
      },
      {
        "astId": 13784,
        "contract": "src/outerspace/facets/OuterSpaceFleetsRevealFacet.sol:OuterSpaceFleetsRevealFacet",
        "label": "_rewardsToWithdraw",
        "offset": 0,
        "slot": "8",
        "type": "t_mapping(t_address,t_mapping(t_uint256,t_bool))"
      },
      {
        "astId": 13793,
        "contract": "src/outerspace/facets/OuterSpaceFleetsRevealFacet.sol:OuterSpaceFleetsRevealFacet",
        "label": "_attacks",
        "offset": 0,
        "slot": "9",
        "type": "t_mapping(t_uint256,t_mapping(t_address,t_mapping(t_uint256,t_struct(AccumulatedAttack)22833_storage)))"
      },
      {
        "astId": 13797,
        "contract": "src/outerspace/facets/OuterSpaceFleetsRevealFacet.sol:OuterSpaceFleetsRevealFacet",
        "label": "_freeStakeReadyToBeWithdrawn",
        "offset": 0,
        "slot": "10",
        "type": "t_mapping(t_address,t_uint256)"
      },
      {
        "astId": 13801,
        "contract": "src/outerspace/facets/OuterSpaceFleetsRevealFacet.sol:OuterSpaceFleetsRevealFacet",
        "label": "_planetFlagged",
        "offset": 0,
        "slot": "11",
        "type": "t_mapping(t_uint256,t_uint256)"
      }
    ],
    "types": {
      "t_address": {
        "encoding": "inplace",
        "label": "address",
        "numberOfBytes": "20"
      },
      "t_bool": {
        "encoding": "inplace",
        "label": "bool",
        "numberOfBytes": "1"
      },
      "t_int40": {
        "encoding": "inplace",
        "label": "int40",
        "numberOfBytes": "5"
      },
      "t_mapping(t_address,t_bool)": {
        "encoding": "mapping",
        "key": "t_address",
        "label": "mapping(address => bool)",
        "numberOfBytes": "32",
        "value": "t_bool"
      },
      "t_mapping(t_address,t_mapping(t_address,t_bool))": {
        "encoding": "mapping",
        "key": "t_address",
        "label": "mapping(address => mapping(address => bool))",
        "numberOfBytes": "32",
        "value": "t_mapping(t_address,t_bool)"
      },
      "t_mapping(t_address,t_mapping(t_uint256,t_bool))": {
        "encoding": "mapping",
        "key": "t_address",
        "label": "mapping(address => mapping(uint256 => bool))",
        "numberOfBytes": "32",
        "value": "t_mapping(t_uint256,t_bool)"
      },
      "t_mapping(t_address,t_mapping(t_uint256,t_struct(AccumulatedAttack)22833_storage))": {
        "encoding": "mapping",
        "key": "t_address",
        "label": "mapping(address => mapping(uint256 => struct ImportingOuterSpaceTypes.AccumulatedAttack))",
        "numberOfBytes": "32",
        "value": "t_mapping(t_uint256,t_struct(AccumulatedAttack)22833_storage)"
      },
      "t_mapping(t_address,t_uint256)": {
        "encoding": "mapping",
        "key": "t_address",
        "label": "mapping(address => uint256)",
        "numberOfBytes": "32",
        "value": "t_uint256"
      },
      "t_mapping(t_uint256,t_bool)": {
        "encoding": "mapping",
        "key": "t_uint256",
        "label": "mapping(uint256 => bool)",
        "numberOfBytes": "32",
        "value": "t_bool"
      },
      "t_mapping(t_uint256,t_mapping(t_address,t_mapping(t_uint256,t_struct(AccumulatedAttack)22833_storage)))": {
        "encoding": "mapping",
        "key": "t_uint256",
        "label": "mapping(uint256 => mapping(address => mapping(uint256 => struct ImportingOuterSpaceTypes.AccumulatedAttack)))",
        "numberOfBytes": "32",
        "value": "t_mapping(t_address,t_mapping(t_uint256,t_struct(AccumulatedAttack)22833_storage))"
      },
      "t_mapping(t_uint256,t_mapping(t_uint256,t_struct(InFlight)22694_storage))": {
        "encoding": "mapping",
        "key": "t_uint256",
        "label": "mapping(uint256 => mapping(uint256 => struct ImportingOuterSpaceTypes.InFlight))",
        "numberOfBytes": "32",
        "value": "t_mapping(t_uint256,t_struct(InFlight)22694_storage)"
      },
      "t_mapping(t_uint256,t_struct(AccumulatedAttack)22833_storage)": {
        "encoding": "mapping",
        "key": "t_uint256",
        "label": "mapping(uint256 => struct ImportingOuterSpaceTypes.AccumulatedAttack)",
        "numberOfBytes": "32",
        "value": "t_struct(AccumulatedAttack)22833_storage"
      },
      "t_mapping(t_uint256,t_struct(Fleet)22737_storage)": {
        "encoding": "mapping",
        "key": "t_uint256",
        "label": "mapping(uint256 => struct ImportingOuterSpaceTypes.Fleet)",
        "numberOfBytes": "32",
        "value": "t_struct(Fleet)22737_storage"
      },
      "t_mapping(t_uint256,t_struct(InFlight)22694_storage)": {
        "encoding": "mapping",
        "key": "t_uint256",
        "label": "mapping(uint256 => struct ImportingOuterSpaceTypes.InFlight)",
        "numberOfBytes": "32",
        "value": "t_struct(InFlight)22694_storage"
      },
      "t_mapping(t_uint256,t_struct(Planet)22718_storage)": {
        "encoding": "mapping",
        "key": "t_uint256",
        "label": "mapping(uint256 => struct ImportingOuterSpaceTypes.Planet)",
        "numberOfBytes": "32",
        "value": "t_struct(Planet)22718_storage"
      },
      "t_mapping(t_uint256,t_uint256)": {
        "encoding": "mapping",
        "key": "t_uint256",
        "label": "mapping(uint256 => uint256)",
        "numberOfBytes": "32",
        "value": "t_uint256"
      },
      "t_struct(AccumulatedAttack)22833_storage": {
        "encoding": "inplace",
        "label": "struct ImportingOuterSpaceTypes.AccumulatedAttack",
        "members": [
          {
            "astId": 22826,
            "contract": "src/outerspace/facets/OuterSpaceFleetsRevealFacet.sol:OuterSpaceFleetsRevealFacet",
            "label": "target",
            "offset": 0,
            "slot": "0",
            "type": "t_address"
          },
          {
            "astId": 22828,
            "contract": "src/outerspace/facets/OuterSpaceFleetsRevealFacet.sol:OuterSpaceFleetsRevealFacet",
            "label": "numAttackSpent",
            "offset": 20,
            "slot": "0",
            "type": "t_uint32"
          },
          {
            "astId": 22830,
            "contract": "src/outerspace/facets/OuterSpaceFleetsRevealFacet.sol:OuterSpaceFleetsRevealFacet",
            "label": "damageCausedSoFar",
            "offset": 24,
            "slot": "0",
            "type": "t_uint32"
          },
          {
            "astId": 22832,
            "contract": "src/outerspace/facets/OuterSpaceFleetsRevealFacet.sol:OuterSpaceFleetsRevealFacet",
            "label": "averageAttackPower",
            "offset": 28,
            "slot": "0",
            "type": "t_uint16"
          }
        ],
        "numberOfBytes": "32"
      },
      "t_struct(Discovered)22703_storage": {
        "encoding": "inplace",
        "label": "struct ImportingOuterSpaceTypes.Discovered",
        "members": [
          {
            "astId": 22696,
            "contract": "src/outerspace/facets/OuterSpaceFleetsRevealFacet.sol:OuterSpaceFleetsRevealFacet",
            "label": "minX",
            "offset": 0,
            "slot": "0",
            "type": "t_uint32"
          },
          {
            "astId": 22698,
            "contract": "src/outerspace/facets/OuterSpaceFleetsRevealFacet.sol:OuterSpaceFleetsRevealFacet",
            "label": "maxX",
            "offset": 4,
            "slot": "0",
            "type": "t_uint32"
          },
          {
            "astId": 22700,
            "contract": "src/outerspace/facets/OuterSpaceFleetsRevealFacet.sol:OuterSpaceFleetsRevealFacet",
            "label": "minY",
            "offset": 8,
            "slot": "0",
            "type": "t_uint32"
          },
          {
            "astId": 22702,
            "contract": "src/outerspace/facets/OuterSpaceFleetsRevealFacet.sol:OuterSpaceFleetsRevealFacet",
            "label": "maxY",
            "offset": 12,
            "slot": "0",
            "type": "t_uint32"
          }
        ],
        "numberOfBytes": "32"
      },
      "t_struct(Fleet)22737_storage": {
        "encoding": "inplace",
        "label": "struct ImportingOuterSpaceTypes.Fleet",
        "members": [
          {
            "astId": 22720,
            "contract": "src/outerspace/facets/OuterSpaceFleetsRevealFacet.sol:OuterSpaceFleetsRevealFacet",
            "label": "owner",
            "offset": 0,
            "slot": "0",
            "type": "t_address"
          },
          {
            "astId": 22722,
            "contract": "src/outerspace/facets/OuterSpaceFleetsRevealFacet.sol:OuterSpaceFleetsRevealFacet",
            "label": "launchTime",
            "offset": 20,
            "slot": "0",
            "type": "t_uint40"
          },
          {
            "astId": 22724,
            "contract": "src/outerspace/facets/OuterSpaceFleetsRevealFacet.sol:OuterSpaceFleetsRevealFacet",
            "label": "quantity",
            "offset": 25,
            "slot": "0",
            "type": "t_uint32"
          },
          {
            "astId": 22726,
            "contract": "src/outerspace/facets/OuterSpaceFleetsRevealFacet.sol:OuterSpaceFleetsRevealFacet",
            "label": "futureExtraProduction",
            "offset": 29,
            "slot": "0",
            "type": "t_uint24"
          },
          {
            "astId": 22728,
            "contract": "src/outerspace/facets/OuterSpaceFleetsRevealFacet.sol:OuterSpaceFleetsRevealFacet",
            "label": "defender",
            "offset": 0,
            "slot": "1",
            "type": "t_address"
          },
          {
            "astId": 22730,
            "contract": "src/outerspace/facets/OuterSpaceFleetsRevealFacet.sol:OuterSpaceFleetsRevealFacet",
            "label": "arrivalTime",
            "offset": 20,
            "slot": "1",
            "type": "t_uint40"
          },
          {
            "astId": 22732,
            "contract": "src/outerspace/facets/OuterSpaceFleetsRevealFacet.sol:OuterSpaceFleetsRevealFacet",
            "label": "defenderLoss",
            "offset": 25,
            "slot": "1",
            "type": "t_uint32"
          },
          {
            "astId": 22734,
            "contract": "src/outerspace/facets/OuterSpaceFleetsRevealFacet.sol:OuterSpaceFleetsRevealFacet",
            "label": "planetActive",
            "offset": 29,
            "slot": "1",
            "type": "t_bool"
          },
          {
            "astId": 22736,
            "contract": "src/outerspace/facets/OuterSpaceFleetsRevealFacet.sol:OuterSpaceFleetsRevealFacet",
            "label": "victory",
            "offset": 30,
            "slot": "1",
            "type": "t_bool"
          }
        ],
        "numberOfBytes": "64"
      },
      "t_struct(InFlight)22694_storage": {
        "encoding": "inplace",
        "label": "struct ImportingOuterSpaceTypes.InFlight",
        "members": [
          {
            "astId": 22691,
            "contract": "src/outerspace/facets/OuterSpaceFleetsRevealFacet.sol:OuterSpaceFleetsRevealFacet",
            "label": "flying",
            "offset": 0,
            "slot": "0",
            "type": "t_uint32"
          },
          {
            "astId": 22693,
            "contract": "src/outerspace/facets/OuterSpaceFleetsRevealFacet.sol:OuterSpaceFleetsRevealFacet",
            "label": "destroyed",
            "offset": 4,
            "slot": "0",
            "type": "t_uint32"
          }
        ],
        "numberOfBytes": "32"
      },
      "t_struct(Planet)22718_storage": {
        "encoding": "inplace",
        "label": "struct ImportingOuterSpaceTypes.Planet",
        "members": [
          {
            "astId": 22705,
            "contract": "src/outerspace/facets/OuterSpaceFleetsRevealFacet.sol:OuterSpaceFleetsRevealFacet",
            "label": "owner",
            "offset": 0,
            "slot": "0",
            "type": "t_address"
          },
          {
            "astId": 22707,
            "contract": "src/outerspace/facets/OuterSpaceFleetsRevealFacet.sol:OuterSpaceFleetsRevealFacet",
            "label": "ownershipStartTime",
            "offset": 20,
            "slot": "0",
            "type": "t_uint40"
          },
          {
            "astId": 22709,
            "contract": "src/outerspace/facets/OuterSpaceFleetsRevealFacet.sol:OuterSpaceFleetsRevealFacet",
            "label": "exitStartTime",
            "offset": 25,
            "slot": "0",
            "type": "t_uint40"
          },
          {
            "astId": 22711,
            "contract": "src/outerspace/facets/OuterSpaceFleetsRevealFacet.sol:OuterSpaceFleetsRevealFacet",
            "label": "numSpaceships",
            "offset": 0,
            "slot": "1",
            "type": "t_uint32"
          },
          {
            "astId": 22713,
            "contract": "src/outerspace/facets/OuterSpaceFleetsRevealFacet.sol:OuterSpaceFleetsRevealFacet",
            "label": "lastUpdated",
            "offset": 4,
            "slot": "1",
            "type": "t_uint40"
          },
          {
            "astId": 22715,
            "contract": "src/outerspace/facets/OuterSpaceFleetsRevealFacet.sol:OuterSpaceFleetsRevealFacet",
            "label": "travelingUpkeep",
            "offset": 9,
            "slot": "1",
            "type": "t_int40"
          },
          {
            "astId": 22717,
            "contract": "src/outerspace/facets/OuterSpaceFleetsRevealFacet.sol:OuterSpaceFleetsRevealFacet",
            "label": "overflow",
            "offset": 14,
            "slot": "1",
            "type": "t_uint32"
          }
        ],
        "numberOfBytes": "64"
      },
      "t_uint16": {
        "encoding": "inplace",
        "label": "uint16",
        "numberOfBytes": "2"
      },
      "t_uint24": {
        "encoding": "inplace",
        "label": "uint24",
        "numberOfBytes": "3"
      },
      "t_uint256": {
        "encoding": "inplace",
        "label": "uint256",
        "numberOfBytes": "32"
      },
      "t_uint32": {
        "encoding": "inplace",
        "label": "uint32",
        "numberOfBytes": "4"
      },
      "t_uint40": {
        "encoding": "inplace",
        "label": "uint40",
        "numberOfBytes": "5"
      }
    }
  }
}