{
  "address": "0xf504D457e41904c8b1309327e3C2AEfa24EC0541",
  "abi": [
    {
      "inputs": [
        {
          "components": [
            {
              "internalType": "contract StakingToken",
              "name": "stakingToken",
              "type": "address"
            },
            {
              "internalType": "contract IFreePlayToken",
              "name": "freeStakingToken",
              "type": "address"
            },
            {
              "internalType": "contract AllianceRegistry",
              "name": "allianceRegistry",
              "type": "address"
            },
            {
              "internalType": "bytes32",
              "name": "genesis",
              "type": "bytes32"
            },
            {
              "internalType": "uint256",
              "name": "resolveWindow",
              "type": "uint256"
            },
            {
              "internalType": "uint256",
              "name": "timePerDistance",
              "type": "uint256"
            },
            {
              "internalType": "uint256",
              "name": "exitDuration",
              "type": "uint256"
            },
            {
              "internalType": "uint32",
              "name": "acquireNumSpaceships",
              "type": "uint32"
            },
            {
              "internalType": "uint32",
              "name": "productionSpeedUp",
              "type": "uint32"
            },
            {
              "internalType": "uint256",
              "name": "frontrunningDelay",
              "type": "uint256"
            },
            {
              "internalType": "uint256",
              "name": "productionCapAsDuration",
              "type": "uint256"
            },
            {
              "internalType": "uint256",
              "name": "upkeepProductionDecreaseRatePer10000th",
              "type": "uint256"
            },
            {
              "internalType": "uint256",
              "name": "fleetSizeFactor6",
              "type": "uint256"
            },
            {
              "internalType": "uint32",
              "name": "initialSpaceExpansion",
              "type": "uint32"
            },
            {
              "internalType": "uint32",
              "name": "expansionDelta",
              "type": "uint32"
            },
            {
              "internalType": "uint256",
              "name": "giftTaxPer10000",
              "type": "uint256"
            },
            {
              "internalType": "bytes32",
              "name": "stakeRange",
              "type": "bytes32"
            },
            {
              "internalType": "uint256",
              "name": "stakeMultiplier10000th",
              "type": "uint256"
            },
            {
              "internalType": "uint256",
              "name": "bootstrapSessionEndTime",
              "type": "uint256"
            },
            {
              "internalType": "uint256",
              "name": "infinityStartTime",
              "type": "uint256"
            }
          ],
          "internalType": "struct OuterSpaceFacetBase.Config",
          "name": "config",
          "type": "tuple"
        }
      ],
      "stateMutability": "nonpayable",
      "type": "constructor"
    },
    {
      "anonymous": false,
      "inputs": [
        {
          "indexed": true,
          "internalType": "address",
          "name": "owner",
          "type": "address"
        },
        {
          "indexed": true,
          "internalType": "address",
          "name": "operator",
          "type": "address"
        },
        {
          "indexed": false,
          "internalType": "bool",
          "name": "approved",
          "type": "bool"
        }
      ],
      "name": "ApprovalForAll",
      "type": "event"
    },
    {
      "anonymous": false,
      "inputs": [
        {
          "indexed": false,
          "internalType": "uint256",
          "name": "block",
          "type": "uint256"
        },
        {
          "indexed": false,
          "internalType": "uint256",
          "name": "timestamp",
          "type": "uint256"
        }
      ],
      "name": "BlockTime",
      "type": "event"
    },
    {
      "anonymous": false,
      "inputs": [
        {
          "indexed": true,
          "internalType": "address",
          "name": "owner",
          "type": "address"
        },
        {
          "indexed": true,
          "internalType": "uint256",
          "name": "location",
          "type": "uint256"
        },
        {
          "indexed": false,
          "internalType": "uint256",
          "name": "stake",
          "type": "uint256"
        }
      ],
      "name": "ExitComplete",
      "type": "event"
    },
    {
      "anonymous": false,
      "inputs": [
        {
          "indexed": true,
          "internalType": "uint256",
          "name": "fleet",
          "type": "uint256"
        },
        {
          "indexed": true,
          "internalType": "address",
          "name": "fleetOwner",
          "type": "address"
        },
        {
          "indexed": true,
          "internalType": "address",
          "name": "destinationOwner",
          "type": "address"
        },
        {
          "indexed": false,
          "internalType": "uint256",
          "name": "destination",
          "type": "uint256"
        },
        {
          "indexed": false,
          "internalType": "bool",
          "name": "gift",
          "type": "bool"
        },
        {
          "indexed": false,
          "internalType": "bool",
          "name": "won",
          "type": "bool"
        },
        {
          "components": [
            {
              "internalType": "uint32",
              "name": "newNumspaceships",
              "type": "uint32"
            },
            {
              "internalType": "int40",
              "name": "newTravelingUpkeep",
              "type": "int40"
            },
            {
              "internalType": "uint32",
              "name": "newOverflow",
              "type": "uint32"
            },
            {
              "internalType": "uint32",
              "name": "numSpaceshipsAtArrival",
              "type": "uint32"
            },
            {
              "internalType": "uint32",
              "name": "taxLoss",
              "type": "uint32"
            },
            {
              "internalType": "uint32",
              "name": "fleetLoss",
              "type": "uint32"
            },
            {
              "internalType": "uint32",
              "name": "planetLoss",
              "type": "uint32"
            },
            {
              "internalType": "uint32",
              "name": "inFlightFleetLoss",
              "type": "uint32"
            },
            {
              "internalType": "uint32",
              "name": "inFlightPlanetLoss",
              "type": "uint32"
            },
            {
              "internalType": "uint32",
              "name": "accumulatedDefenseAdded",
              "type": "uint32"
            },
            {
              "internalType": "uint32",
              "name": "accumulatedAttackAdded",
              "type": "uint32"
            }
          ],
          "indexed": false,
          "internalType": "struct ImportingOuterSpaceEvents.ArrivalData",
          "name": "data",
          "type": "tuple"
        }
      ],
      "name": "FleetArrived",
      "type": "event"
    },
    {
      "anonymous": false,
      "inputs": [
        {
          "indexed": true,
          "internalType": "address",
          "name": "fleetSender",
          "type": "address"
        },
        {
          "indexed": true,
          "internalType": "address",
          "name": "fleetOwner",
          "type": "address"
        },
        {
          "indexed": true,
          "internalType": "uint256",
          "name": "from",
          "type": "uint256"
        },
        {
          "indexed": false,
          "internalType": "address",
          "name": "operator",
          "type": "address"
        },
        {
          "indexed": false,
          "internalType": "uint256",
          "name": "fleet",
          "type": "uint256"
        },
        {
          "indexed": false,
          "internalType": "uint32",
          "name": "quantity",
          "type": "uint32"
        },
        {
          "indexed": false,
          "internalType": "uint32",
          "name": "newNumSpaceships",
          "type": "uint32"
        },
        {
          "indexed": false,
          "internalType": "int40",
          "name": "newTravelingUpkeep",
          "type": "int40"
        },
        {
          "indexed": false,
          "internalType": "uint32",
          "name": "newOverflow",
          "type": "uint32"
        }
      ],
      "name": "FleetSent",
      "type": "event"
    },
    {
      "anonymous": false,
      "inputs": [
        {
          "indexed": false,
          "internalType": "address",
          "name": "newGeneratorAdmin",
          "type": "address"
        }
      ],
      "name": "GeneratorAdminChanged",
      "type": "event"
    },
    {
      "anonymous": false,
      "inputs": [
        {
          "indexed": false,
          "internalType": "address",
          "name": "newGenerator",
          "type": "address"
        }
      ],
      "name": "GeneratorChanged",
      "type": "event"
    },
    {
      "anonymous": false,
      "inputs": [
        {
          "indexed": false,
          "internalType": "bytes32",
          "name": "genesis",
          "type": "bytes32"
        },
        {
          "indexed": false,
          "internalType": "uint256",
          "name": "resolveWindow",
          "type": "uint256"
        },
        {
          "indexed": false,
          "internalType": "uint256",
          "name": "timePerDistance",
          "type": "uint256"
        },
        {
          "indexed": false,
          "internalType": "uint256",
          "name": "exitDuration",
          "type": "uint256"
        },
        {
          "indexed": false,
          "internalType": "uint32",
          "name": "acquireNumSpaceships",
          "type": "uint32"
        },
        {
          "indexed": false,
          "internalType": "uint32",
          "name": "productionSpeedUp",
          "type": "uint32"
        },
        {
          "indexed": false,
          "internalType": "uint256",
          "name": "frontrunningDelay",
          "type": "uint256"
        },
        {
          "indexed": false,
          "internalType": "uint256",
          "name": "productionCapAsDuration",
          "type": "uint256"
        },
        {
          "indexed": false,
          "internalType": "uint256",
          "name": "upkeepProductionDecreaseRatePer10000th",
          "type": "uint256"
        },
        {
          "indexed": false,
          "internalType": "uint256",
          "name": "fleetSizeFactor6",
          "type": "uint256"
        },
        {
          "indexed": false,
          "internalType": "uint32",
          "name": "initialSpaceExpansion",
          "type": "uint32"
        },
        {
          "indexed": false,
          "internalType": "uint32",
          "name": "expansionDelta",
          "type": "uint32"
        },
        {
          "indexed": false,
          "internalType": "uint256",
          "name": "giftTaxPer10000",
          "type": "uint256"
        }
      ],
      "name": "Initialized",
      "type": "event"
    },
    {
      "anonymous": false,
      "inputs": [
        {
          "indexed": true,
          "internalType": "address",
          "name": "owner",
          "type": "address"
        },
        {
          "indexed": true,
          "internalType": "uint256",
          "name": "location",
          "type": "uint256"
        }
      ],
      "name": "PlanetExit",
      "type": "event"
    },
    {
      "anonymous": false,
      "inputs": [
        {
          "indexed": true,
          "internalType": "uint256",
          "name": "location",
          "type": "uint256"
        }
      ],
      "name": "PlanetReset",
      "type": "event"
    },
    {
      "anonymous": false,
      "inputs": [
        {
          "indexed": true,
          "internalType": "address",
          "name": "acquirer",
          "type": "address"
        },
        {
          "indexed": true,
          "internalType": "uint256",
          "name": "location",
          "type": "uint256"
        },
        {
          "indexed": false,
          "internalType": "uint32",
          "name": "numSpaceships",
          "type": "uint32"
        },
        {
          "indexed": false,
          "internalType": "int40",
          "name": "travelingUpkeep",
          "type": "int40"
        },
        {
          "indexed": false,
          "internalType": "uint32",
          "name": "overflow",
          "type": "uint32"
        },
        {
          "indexed": false,
          "internalType": "uint256",
          "name": "stake",
          "type": "uint256"
        },
        {
          "indexed": false,
          "internalType": "bool",
          "name": "freegift",
          "type": "bool"
        }
      ],
      "name": "PlanetStake",
      "type": "event"
    },
    {
      "anonymous": false,
      "inputs": [
        {
          "indexed": true,
          "internalType": "address",
          "name": "previousOwner",
          "type": "address"
        },
        {
          "indexed": true,
          "internalType": "address",
          "name": "newOwner",
          "type": "address"
        },
        {
          "indexed": true,
          "internalType": "uint256",
          "name": "location",
          "type": "uint256"
        },
        {
          "indexed": false,
          "internalType": "uint32",
          "name": "newNumspaceships",
          "type": "uint32"
        },
        {
          "indexed": false,
          "internalType": "int40",
          "name": "newTravelingUpkeep",
          "type": "int40"
        },
        {
          "indexed": false,
          "internalType": "uint32",
          "name": "newOverflow",
          "type": "uint32"
        }
      ],
      "name": "PlanetTransfer",
      "type": "event"
    },
    {
      "anonymous": false,
      "inputs": [
        {
          "indexed": true,
          "internalType": "uint256",
          "name": "location",
          "type": "uint256"
        },
        {
          "indexed": true,
          "internalType": "address",
          "name": "giver",
          "type": "address"
        },
        {
          "indexed": false,
          "internalType": "uint256",
          "name": "rewardId",
          "type": "uint256"
        }
      ],
      "name": "RewardSetup",
      "type": "event"
    },
    {
      "anonymous": false,
      "inputs": [
        {
          "indexed": true,
          "internalType": "address",
          "name": "owner",
          "type": "address"
        },
        {
          "indexed": true,
          "internalType": "uint256",
          "name": "location",
          "type": "uint256"
        },
        {
          "indexed": true,
          "internalType": "uint256",
          "name": "rewardId",
          "type": "uint256"
        }
      ],
      "name": "RewardToWithdraw",
      "type": "event"
    },
    {
      "anonymous": false,
      "inputs": [
        {
          "indexed": true,
          "internalType": "address",
          "name": "owner",
          "type": "address"
        },
        {
          "indexed": false,
          "internalType": "uint256",
          "name": "newStake",
          "type": "uint256"
        },
        {
          "indexed": false,
          "internalType": "bool",
          "name": "freegift",
          "type": "bool"
        }
      ],
      "name": "StakeToWithdraw",
      "type": "event"
    },
    {
      "anonymous": false,
      "inputs": [
        {
          "indexed": true,
          "internalType": "address",
          "name": "from",
          "type": "address"
        },
        {
          "indexed": true,
          "internalType": "address",
          "name": "to",
          "type": "address"
        },
        {
          "indexed": true,
          "internalType": "uint256",
          "name": "location",
          "type": "uint256"
        }
      ],
      "name": "Transfer",
      "type": "event"
    },
    {
      "anonymous": false,
      "inputs": [
        {
          "indexed": true,
          "internalType": "uint256",
          "name": "origin",
          "type": "uint256"
        },
        {
          "indexed": true,
          "internalType": "uint256",
          "name": "fleet",
          "type": "uint256"
        },
        {
          "indexed": false,
          "internalType": "uint32",
          "name": "newNumspaceships",
          "type": "uint32"
        },
        {
          "indexed": false,
          "internalType": "int40",
          "name": "newTravelingUpkeep",
          "type": "int40"
        },
        {
          "indexed": false,
          "internalType": "uint32",
          "name": "newOverflow",
          "type": "uint32"
        }
      ],
      "name": "TravelingUpkeepRefund",
      "type": "event"
    },
    {
      "inputs": [
        {
          "internalType": "uint256[]",
          "name": "locations",
          "type": "uint256[]"
        },
        {
          "internalType": "uint256",
          "name": "amountToMint",
          "type": "uint256"
        },
        {
          "internalType": "uint256",
          "name": "tokenAmount",
          "type": "uint256"
        }
      ],
      "name": "acquireMultipleViaNativeTokenAndStakingToken",
      "outputs": [],
      "stateMutability": "payable",
      "type": "function"
    },
    {
      "inputs": [
        {
          "internalType": "uint256",
          "name": "location",
          "type": "uint256"
        },
        {
          "internalType": "uint256",
          "name": "amount",
          "type": "uint256"
        }
      ],
      "name": "acquireViaFreeTokenTransferFrom",
      "outputs": [],
      "stateMutability": "nonpayable",
      "type": "function"
    },
    {
      "inputs": [
        {
          "internalType": "uint256",
          "name": "location",
          "type": "uint256"
        },
        {
          "internalType": "uint256",
          "name": "amountToMint",
          "type": "uint256"
        },
        {
          "internalType": "uint256",
          "name": "tokenAmount",
          "type": "uint256"
        }
      ],
      "name": "acquireViaNativeTokenAndStakingToken",
      "outputs": [],
      "stateMutability": "payable",
      "type": "function"
    },
    {
      "inputs": [
        {
          "internalType": "uint256",
          "name": "location",
          "type": "uint256"
        },
        {
          "internalType": "uint256",
          "name": "amount",
          "type": "uint256"
        }
      ],
      "name": "acquireViaTransferFrom",
      "outputs": [],
      "stateMutability": "nonpayable",
      "type": "function"
    },
    {
      "inputs": [
        {
          "internalType": "address",
          "name": "owner",
          "type": "address"
        }
      ],
      "name": "balanceToWithdraw",
      "outputs": [
        {
          "internalType": "uint256",
          "name": "",
          "type": "uint256"
        }
      ],
      "stateMutability": "view",
      "type": "function"
    },
    {
      "inputs": [
        {
          "internalType": "address",
          "name": "owner",
          "type": "address"
        },
        {
          "internalType": "uint256",
          "name": "location",
          "type": "uint256"
        }
      ],
      "name": "exitFor",
      "outputs": [],
      "stateMutability": "nonpayable",
      "type": "function"
    },
    {
      "inputs": [
        {
          "internalType": "address",
          "name": "owner",
          "type": "address"
        },
        {
          "internalType": "uint256[]",
          "name": "locations",
          "type": "uint256[]"
        }
      ],
      "name": "exitMultipleFor",
      "outputs": [],
      "stateMutability": "nonpayable",
      "type": "function"
    },
    {
      "inputs": [
        {
          "internalType": "address",
          "name": "owner",
          "type": "address"
        },
        {
          "internalType": "uint256[]",
          "name": "locations",
          "type": "uint256[]"
        }
      ],
      "name": "fetchAndWithdrawFor",
      "outputs": [],
      "stateMutability": "nonpayable",
      "type": "function"
    },
    {
      "inputs": [
        {
          "internalType": "address",
          "name": "",
          "type": "address"
        },
        {
          "internalType": "address",
          "name": "forAddress",
          "type": "address"
        },
        {
          "internalType": "uint256",
          "name": "amount",
          "type": "uint256"
        },
        {
          "internalType": "bytes",
          "name": "data",
          "type": "bytes"
        }
      ],
      "name": "onTokenPaidFor",
      "outputs": [
        {
          "internalType": "bool",
          "name": "",
          "type": "bool"
        }
      ],
      "stateMutability": "nonpayable",
      "type": "function"
    },
    {
      "inputs": [
        {
          "internalType": "address",
          "name": "",
          "type": "address"
        },
        {
          "internalType": "uint256",
          "name": "amount",
          "type": "uint256"
        },
        {
          "internalType": "bytes",
          "name": "data",
          "type": "bytes"
        }
      ],
      "name": "onTokenTransfer",
      "outputs": [
        {
          "internalType": "bool",
          "name": "",
          "type": "bool"
        }
      ],
      "stateMutability": "nonpayable",
      "type": "function"
    },
    {
      "inputs": [
        {
          "internalType": "address",
          "name": "owner",
          "type": "address"
        }
      ],
      "name": "withdrawFor",
      "outputs": [],
      "stateMutability": "nonpayable",
      "type": "function"
    }
  ],
  "transactionHash": "0x267b23f0ff482fe9fa06ac1b756d60cb68ff953eee455a5aab230831f595e445",
  "args": [
    {
      "stakingToken": "0x1874F6326eEbcCe664410a93a5217741a977D14A",
      "freeStakingToken": "0x8d82B1900bc77fACdf6f2209869E4f816E4fbcB2",
      "allianceRegistry": "0x7E254360C1b9f0c1903dcb6800eEED2500504940",
      "genesis": "0x2E8844C4BE4BB08968BF024167442FF346C1277CFA814ADCE21207B6A4BCD005",
      "resolveWindow": 1728,
      "timePerDistance": 72,
      "exitDuration": 2592,
      "acquireNumSpaceships": 100000,
      "productionSpeedUp": 100,
      "frontrunningDelay": 18,
      "productionCapAsDuration": 259200,
      "upkeepProductionDecreaseRatePer10000th": 5000,
      "fleetSizeFactor6": 500000,
      "initialSpaceExpansion": 12,
      "expansionDelta": 6,
      "giftTaxPer10000": 2000,
      "stakeRange": "0x0064008200aa00c800f0010e012c014a014a017201900212029e032003a204b0",
      "stakeMultiplier10000th": 100,
      "bootstrapSessionEndTime": 1738162800,
      "infinityStartTime": 1738164600
    }
  ],
  "numDeployments": 4,
  "linkedData": {
    "genesisHash": "0x2E8844C4BE4BB08968BF024167442FF346C1277CFA814ADCE21207B6A4BCD005",
    "resolveWindow": 1728,
    "timePerDistance": 72,
    "exitDuration": 2592,
    "acquireNumSpaceships": 100000,
    "productionSpeedUp": 100,
    "chainGenesisHash": "",
    "frontrunningDelay": 18,
    "productionCapAsDuration": 259200,
    "upkeepProductionDecreaseRatePer10000th": 5000,
    "fleetSizeFactor6": 500000,
    "initialSpaceExpansion": 12,
    "expansionDelta": 6,
    "giftTaxPer10000": 2000,
    "stakeRange": "0x0064008200aa00c800f0010e012c014a014a017201900212029e032003a204b0",
    "stakeMultiplier10000th": 100,
    "bootstrapSessionEndTime": 1738162800,
    "infinityStartTime": 1738164600,
    "deploymentTimestamp": 1738078599
  },
  "solcInputHash": "02282026b82788901280a3e7fe160df8",
  "bytecode": "0x6103006040523480156200001257600080fd5b5060405162004b7e38038062004b7e8339810160408190526200003591620001ff565b80600060048260a001516200004b919062000333565b60a08301519091506200006082600462000365565b63ffffffff1614620000b85760405162461bcd60e51b815260206004820152601d60248201527f54494d455f5045525f444953545f4e4f545f444956495349424c455f34000000604482015260640160405180910390fd5b81516001600160a01b0390811660809081526020840151821660a052604084015190911660c0908152606084015160e09081529184015161010090815263ffffffff93841661012090815291850151610140908152928501518416610160908152908501518416610180908152918501516101a0908152928501516101c0908152908501516101e09081529185015161020090815292850151841661022090815290850151909316610240908152908401516102609081529184015161028052918301516102a052908201516102c05201516102e05250620003a0565b60405161028081016001600160401b0381118282101715620001c757634e487b7160e01b600052604160045260246000fd5b60405290565b80516001600160a01b0381168114620001e557600080fd5b919050565b805163ffffffff81168114620001e557600080fd5b600061028082840312156200021357600080fd5b6200021d62000195565b6200022883620001cd565b81526200023860208401620001cd565b60208201526200024b60408401620001cd565b6040820152606083015160608201526080830151608082015260a083015160a082015260c083015160c08201526200028660e08401620001ea565b60e08201526101006200029b818501620001ea565b9082015261012083810151908201526101408084015190820152610160808401519082015261018080840151908201526101a0620002db818501620001ea565b908201526101c0620002ef848201620001ea565b908201526101e08381015190820152610200808401519082015261022080840151908201526102408084015190820152610260928301519281019290925250919050565b600063ffffffff808416806200035957634e487b7160e01b600052601260045260246000fd5b92169190910492915050565b600063ffffffff808316818516818304811182151516156200039757634e487b7160e01b600052601160045260246000fd5b02949350505050565b60805160a05160c05160e05161010051610120516101405161016051610180516101a0516101c0516101e05161020051610220516102405161026051610280516102a0516102c0516102e0516145ee6200059060003960008181610dbb01526130df015260008181610d7301528181610d9a0152818161308901526130b30152600061117401526000818161119501526111e101526000505060008181612a3501528181612b1a01528181612c070152612cf2015260005050600081816136ed01528181613720015281816137a101526137d4015260008181611fbb0152818161210c01526125c5015260008181611e6a015281816125540152613535015260005050600081816118c401528181611e1e01528181611f1101528181611fe901528181612067015281816121b801526138a10152600081816123f701528181612442015281816124db0152818161251901526135730152600061311b01526000505060005050600081816103fe015281816116b9015281816119810152611d30015260005050600081816102af015281816106ba0152818161080001528181611a1e0152818161335d01526139260152600081816103920152818161055501528181610617015281816107000152818161084601528181610c2801528181610cea01526112fb01526145ee6000f3fe6080604052600436106100bc5760003560e01c8063a4c0ed3611610074578063c95608381161004e578063c9560838146101cb578063e2e9b0791461021c578063f7e111e71461023c57600080fd5b8063a4c0ed361461016b578063afc823701461018b578063b9a1e846146101ab57600080fd5b8063861399e7116100a5578063861399e7146101035780639b6be065146101165780639eca672c1461014b57600080fd5b80632f646f95146100c15780637ba423fb146100e3575b600080fd5b3480156100cd57600080fd5b506100e16100dc366004613cd5565b61024f565b005b3480156100ef57600080fd5b506100e16100fe366004613cd5565b610332565b6100e1610111366004613ddf565b6103c1565b34801561012257600080fd5b50610136610131366004613e9b565b61069f565b60405190151581526020015b60405180910390f35b34801561015757600080fd5b506100e1610166366004613f0e565b6107b1565b34801561017757600080fd5b50610136610186366004613f2b565b6107e5565b34801561019757600080fd5b506100e16101a6366004613f87565b610a0e565b3480156101b757600080fd5b506100e16101c6366004613fb3565b610ad7565b3480156101d757600080fd5b5061020e6101e6366004613f0e565b73ffffffffffffffffffffffffffffffffffffffff1660009081526002602052604090205490565b604051908152602001610142565b34801561022857600080fd5b506100e1610237366004613fb3565b610bd1565b6100e161024a36600461403b565b610bdc565b3361025d8183856001610d71565b6040517f23b872dd00000000000000000000000000000000000000000000000000000000815273ffffffffffffffffffffffffffffffffffffffff8281166004830152306024830152604482018490527f000000000000000000000000000000000000000000000000000000000000000016906323b872dd906064015b602060405180830381600087803b1580156102f457600080fd5b505af1158015610308573d6000803e3d6000fd5b505050506040513d601f19601f8201168201806040525081019061032c9190614067565b50505050565b336103408183856000610d71565b6040517f23b872dd00000000000000000000000000000000000000000000000000000000815273ffffffffffffffffffffffffffffffffffffffff8281166004830152306024830152604482018490527f000000000000000000000000000000000000000000000000000000000000000016906323b872dd906064016102da565b336000805b85518110156104a8576000655af3107a400061045061044b8985815181106103f0576103f0614089565b6020026020010151604080517f00000000000000000000000000000000000000000000000000000000000000006020820152908101829052600090606001604051602081830303815290604052805190602001209050919050565b6110ee565b63ffffffff1661046091906140e7565b9050610488848289858151811061047957610479614089565b60200260200101516000610d71565b6104928184614124565b92505080806104a09061413c565b9150506103c6565b50806104b48486614124565b14610520576040517f08c379a000000000000000000000000000000000000000000000000000000000815260206004820152600e60248201527f494e56414c49445f414d4f554e5400000000000000000000000000000000000060448201526064015b60405180910390fd5b6040517f40c10f19000000000000000000000000000000000000000000000000000000008152306004820152602481018590527f000000000000000000000000000000000000000000000000000000000000000073ffffffffffffffffffffffffffffffffffffffff16906340c10f199034906044016000604051808303818588803b1580156105af57600080fd5b505af11580156105c3573d6000803e3d6000fd5b50506040517f23b872dd00000000000000000000000000000000000000000000000000000000815273ffffffffffffffffffffffffffffffffffffffff8681166004830152306024830152604482018890527f00000000000000000000000000000000000000000000000000000000000000001693506323b872dd92506064019050602060405180830381600087803b15801561065f57600080fd5b505af1158015610673573d6000803e3d6000fd5b505050506040513d601f19601f820116820180604052508101906106979190614067565b505050505050565b6000803373ffffffffffffffffffffffffffffffffffffffff7f00000000000000000000000000000000000000000000000000000000000000001614156106e857506001610787565b3373ffffffffffffffffffffffffffffffffffffffff7f00000000000000000000000000000000000000000000000000000000000000001614610787576040517f08c379a000000000000000000000000000000000000000000000000000000000815260206004820152600d60248201527f494e56414c49445f4552433230000000000000000000000000000000000000006044820152606401610517565b600061079584860186614175565b90506107a387878385610d71565b506001979650505050505050565b73ffffffffffffffffffffffffffffffffffffffff81166000908152600260205260409020546107e1828261124d565b5050565b6000803373ffffffffffffffffffffffffffffffffffffffff7f000000000000000000000000000000000000000000000000000000000000000016141561082e575060016108cd565b3373ffffffffffffffffffffffffffffffffffffffff7f000000000000000000000000000000000000000000000000000000000000000016146108cd576040517f08c379a000000000000000000000000000000000000000000000000000000000815260206004820152600d60248201527f494e56414c49445f4552433230000000000000000000000000000000000000006044820152606401610517565b60408311156109e0576000806108e58587018761418e565b915091506000805b825181101561096e576000655af3107a400061091761044b8685815181106103f0576103f0614089565b63ffffffff1661092791906140e7565b905061094e858286858151811061094057610940614089565b602002602001015189610d71565b6109588184614124565b92505080806109669061413c565b9150506108ed565b508088146109d8576040517f08c379a000000000000000000000000000000000000000000000000000000000815260206004820152600e60248201527f494e56414c49445f414d4f554e540000000000000000000000000000000000006044820152606401610517565b505050610a02565b6000806109ef85870187613f87565b915091506109ff82888386610d71565b50505b50600195945050505050565b3373ffffffffffffffffffffffffffffffffffffffff83168114610ac85773ffffffffffffffffffffffffffffffffffffffff80841660009081526003602090815260408083209385168352929052205460ff16610ac8576040517f08c379a000000000000000000000000000000000000000000000000000000000815260206004820152601660248201527f4e4f545f415554484f52495a45445f544f5f53454e44000000000000000000006044820152606401610517565b610ad28383611433565b505050565b3373ffffffffffffffffffffffffffffffffffffffff84168114610b915773ffffffffffffffffffffffffffffffffffffffff80851660009081526003602090815260408083209385168352929052205460ff16610b91576040517f08c379a000000000000000000000000000000000000000000000000000000000815260206004820152601660248201527f4e4f545f415554484f52495a45445f544f5f53454e44000000000000000000006044820152606401610517565b8160005b8181101561069757610bbf86868684818110610bb357610bb3614089565b90506020020135611433565b80610bc98161413c565b915050610b95565b610ad283838361171b565b33610bf381610beb8486614124565b866000610d71565b6040517f40c10f19000000000000000000000000000000000000000000000000000000008152306004820152602481018490527f000000000000000000000000000000000000000000000000000000000000000073ffffffffffffffffffffffffffffffffffffffff16906340c10f199034906044016000604051808303818588803b158015610c8257600080fd5b505af1158015610c96573d6000803e3d6000fd5b50506040517f23b872dd00000000000000000000000000000000000000000000000000000000815273ffffffffffffffffffffffffffffffffffffffff8581166004830152306024830152604482018790527f00000000000000000000000000000000000000000000000000000000000000001693506323b872dd92506064019050602060405180830381600087803b158015610d3257600080fd5b505af1158015610d46573d6000803e3d6000fd5b505050506040513d601f19601f82011682018060405250810190610d6a9190614067565b5050505050565b7f000000000000000000000000000000000000000000000000000000000000000015610e5257427f00000000000000000000000000000000000000000000000000000000000000007f000000000000000000000000000000000000000000000000000000000000000081831080610de85750808310155b610e4e576040517f08c379a000000000000000000000000000000000000000000000000000000000815260206004820152600660248201527f50415553454400000000000000000000000000000000000000000000000000006044820152606401610517565b5050505b60008281526020819052604081206040805160e081018252825473ffffffffffffffffffffffffffffffffffffffff8116825264ffffffffff74010000000000000000000000000000000000000000820481166020840152790100000000000000000000000000000000000000000000000000909104811692820192909252600183015463ffffffff8082166060840152640100000000820490931660808301526901000000000000000000810460040b60a08301526e010000000000000000000000000000900490911660c0820152909150600090610f329085611c24565b9050655af3107a4000610f498261014001516110ee565b63ffffffff16610f5991906140e7565b8514610fc1576040517f08c379a000000000000000000000000000000000000000000000000000000000815260206004820152601460248201527f494e56414c49445f5354414b455f414d4f554e540000000000000000000000006044820152606401610517565b610fca81611d8c565b610fd48682612274565b610fe082826000612626565b610fe984612941565b8215611005576000848152600b60205260409020429055611015565b6000848152600b60205260408120555b604080514381524260208201527f438e507c246c311193c77528e3de231eec8ce4727cce091a1dbbecf85b427893910160405180910390a1838673ffffffffffffffffffffffffffffffffffffffff167f9b17abd3d9e9f2eb79e7b7c875e68b77a80c7379ba64ec6ac0d1c254d303269b836060015184608001518560e001518a896040516110d795949392919063ffffffff958616815260049490940b60208501529190931660408301526060820192909252901515608082015260a00190565b60405180910390a361069781610120015186612e21565b60006110f982612f1e565b61115f576040517f08c379a000000000000000000000000000000000000000000000000000000000815260206004820152601160248201527f504c414e45545f4e4f545f4558495354530000000000000000000000000000006044820152606401610517565b600061116c83600c612f3a565b905060ff81167f00000000000000000000000000000000000000000000000000000000000000007f00000000000000000000000000000000000000000000000000000000000000006111bf8360026141de565b6111ca906001614208565b61ffff16602081106111de576111de614089565b1a7f000000000000000000000000000000000000000000000000000000000000000061120b8460026141de565b61ffff166020811061121f5761121f614089565b61122d91901a6101006141de565b6112379190614208565b61ffff1661124591906140e7565b949350505050565b73ffffffffffffffffffffffffffffffffffffffff821660008181526002602090815260408083208390558051858152918201929092527f05eefb5f2a67125e8c65550a4ffa0f542f75624e866ef58fb72bfb5475403092910160405180910390a26040517fa9059cbb00000000000000000000000000000000000000000000000000000000815273ffffffffffffffffffffffffffffffffffffffff8381166004830152602482018390527f0000000000000000000000000000000000000000000000000000000000000000169063a9059cbb90604401602060405180830381600087803b15801561133f57600080fd5b505af1158015611353573d6000803e3d6000fd5b505050506040513d601f19601f820116820180604052508101906113779190614067565b6113dd576040517f08c379a000000000000000000000000000000000000000000000000000000000815260206004820152600f60248201527f4641494c45445f5452414e5346455200000000000000000000000000000000006044820152606401610517565b604080516000808252602082015273ffffffffffffffffffffffffffffffffffffffff8416917f05eefb5f2a67125e8c65550a4ffa0f542f75624e866ef58fb72bfb547540309291015b60405180910390a25050565b600081815260208190526040812060018101549091906114589063ffffffff16612fd6565b509050806114c2576040517f08c379a000000000000000000000000000000000000000000000000000000000815260206004820152600a60248201527f4e4f545f414354495645000000000000000000000000000000000000000000006044820152606401610517565b815473ffffffffffffffffffffffffffffffffffffffff858116911614611545576040517f08c379a000000000000000000000000000000000000000000000000000000000815260206004820152600960248201527f4e4f545f4f574e455200000000000000000000000000000000000000000000006044820152606401610517565b8154790100000000000000000000000000000000000000000000000000900464ffffffffff16156115d2576040517f08c379a000000000000000000000000000000000000000000000000000000000815260206004820152600f60248201527f45584954494e475f414c524541445900000000000000000000000000000000006044820152606401610517565b81547fffff0000000000ffffffffffffffffffffffffffffffffffffffffffffffffff167901000000000000000000000000000000000000000000000000004264ffffffffff8116919091029190911783556040805143815260208101929092527f438e507c246c311193c77528e3de231eec8ce4727cce091a1dbbecf85b427893910160405180910390a1604051839073ffffffffffffffffffffffffffffffffffffffff8616907fb9182e4e152947f1e6691fa0ee6f68f21f607fed825945c270e69995acad805f90600090a361032c84655af3107a400061170661044b87604080517f00000000000000000000000000000000000000000000000000000000000000006020820152908101829052600090606001604051602081830303815290604052805190602001209050919050565b63ffffffff1661171691906140e7565b612ff5565b60008060005b83811015611ba057600061175886868481811061174057611740614089565b90506020020135600090815260208190526040902090565b805490915061178a90790100000000000000000000000000000000000000000000000000900464ffffffffff16613070565b15611b8d57805473ffffffffffffffffffffffffffffffffffffffff888116911614611812576040517f08c379a000000000000000000000000000000000000000000000000000000000815260206004820152600960248201527f4e4f545f4f574e455200000000000000000000000000000000000000000000006044820152606401610517565b85858381811061182457611824614089565b90506020020135600073ffffffffffffffffffffffffffffffffffffffff168873ffffffffffffffffffffffffffffffffffffffff167fddf252ad1be2c89b69c2b068fc378daa952ba7f163c4a11628f55a4df523b3ef60405160405180910390a46000600b600088888681811061189e5761189e614089565b9050602002013581526020019081526020016000205490506000811115611af0576118ec7f00000000000000000000000000000000000000000000000000000000000000006207e90061425d565b6118fc9063ffffffff1682614124565b8254790100000000000000000000000000000000000000000000000000900464ffffffffff1610611a955781546000906119d39073ffffffffffffffffffffffffffffffffffffffff1689898781811061195857611958614089565b905060200201356119ce8b8b8981811061197457611974614089565b90506020020135604080517f00000000000000000000000000000000000000000000000000000000000000006020820152908101829052600090606001604051602081830303815290604052805190602001209050919050565b61314e565b90506119df8187614124565b6040517ff6b911bc00000000000000000000000000000000000000000000000000000000815230600482018190526024820152604481018390529096507f000000000000000000000000000000000000000000000000000000000000000073ffffffffffffffffffffffffffffffffffffffff169063f6b911bc90606401600060405180830381600087803b158015611a7757600080fd5b505af1158015611a8b573d6000803e3d6000fd5b5050505050611b2b565b8154611adf9073ffffffffffffffffffffffffffffffffffffffff16888886818110611ac357611ac3614089565b905060200201356119ce8a8a8881811061197457611974614089565b611ae99085614124565b9350611b2b565b8154611b1e9073ffffffffffffffffffffffffffffffffffffffff16888886818110611ac357611ac3614089565b611b289086614124565b94505b5080547fffff0000000000000000000000000000000000000000000000000000000000001681556001810180547fffffffffffffffffffffffffffff0000000000000000000000000000000000001664010000000064ffffffffff4216021790555b5080611b988161413c565b915050611721565b5073ffffffffffffffffffffffffffffffffffffffff8516600090815260026020526040812054611bd2908490614124565b9050611bde868261124d565b73ffffffffffffffffffffffffffffffffffffffff86166000908152600a6020526040812054611c0f908490614124565b9050611c1b87826132ac565b50505050505050565b6040805161018081018252600080825260208201819052918101829052606081018290526080810182905260a0810182905260c0810182905260e08101829052610100810182905261012081018290526101408101829052610160810191909152600080611c958560600151612fd6565b85855260808088015164ffffffffff908116602088015283151560408089019190915263ffffffff80851660608a015260a0808c015160040b948a0194909452908a01805183169389019390935291511660c0808801919091528801511660e0860152865173ffffffffffffffffffffffffffffffffffffffff9081166101008701528751166101208601529092509050611d7d84604080517f00000000000000000000000000000000000000000000000000000000000000006020820152908101829052600090606001604051602081830303815290604052805190602001209050919050565b61014084015250909392505050565b60a081015164ffffffffff1615611ddd57611daa8160a00151613070565b15611ddd57600060c082018190526060820181905260808201819052610120820181905260e08201819052604090910152565b6000816020015164ffffffffff1642611df69190614280565b90506000611e0883610140015161348e565b90506000610e1061ffff8316611e4463ffffffff7f000000000000000000000000000000000000000000000000000000000000000016866140e7565b611e4e91906140e7565b611e589190614297565b606085015190915063ffffffff1660007f00000000000000000000000000000000000000000000000000000000000000001561218e576000611e998561352b565b905060008760400151611ead576000611eaf565b815b905080841115611f955760e08801516107089063ffffffff1615611f0157828960e0015163ffffffff16610708611ee691906140e7565b611ef09190614297565b9050610708811015611f0157506107085b6000610e1082611f3763ffffffff7f0000000000000000000000000000000000000000000000000000000000000000168c6140e7565b611f4191906140e7565b611f4b9190614297565b905080611f56575060015b611f608387614280565b811115611f7457611f718387614280565b90505b896040015115611f82578094505b611f8c8187614280565b955050506120f7565b8760400151156120f75760008590506000896080015160040b13156120bd5760006127107f000000000000000000000000000000000000000000000000000000000000000061200e61ffff8b1663ffffffff7f0000000000000000000000000000000000000000000000000000000000000000166140e7565b61201891906140e7565b6120229190614297565b60808b015161203a9064ffffffffff16610e106140e7565b6120449190614297565b9050888110612055578194506120af565b610e1061ffff891661208d63ffffffff7f000000000000000000000000000000000000000000000000000000000000000016846140e7565b61209791906140e7565b6120a19190614297565b9450818511156120af578194505b6120b98583614280565b9150505b60006120c98684614280565b9050808211156120ed576120dd8183614280565b6120e79086614124565b94508091505b611f8c8287614124565b876040015115612187576000836127106121317f0000000000000000000000000000000000000000000000000000000000000000896140e7565b61213b9190614297565b6121459190614124565b905060008160040b8a6080015160040b61215f91906142ab565b905061216a8361431f565b81121561217d5761217a8361431f565b90505b60040b60808a0152505b5050612216565b8560400151156121a9576121a28383614124565b9150612216565b6000610e106121de63ffffffff7f000000000000000000000000000000000000000000000000000000000000000016886140e7565b6121ea906107086140e7565b6121f49190614297565b9050828111156122075750600091612214565b6122118184614280565b92505b505b638000000082106122395761223060016380000000614358565b63ffffffff1691505b63ffffffff82166060870152604086015115801561225f5750606086015163ffffffff16155b15610697576000610120870152505050505050565b8060400151156122e0576040517f08c379a000000000000000000000000000000000000000000000000000000000815260206004820152600c60248201527f5354494c4c5f41435449564500000000000000000000000000000000000000006044820152606401610517565b6000816060015163ffffffff166000141561230e57612303826101400151613598565b61ffff1690506123a8565b8273ffffffffffffffffffffffffffffffffffffffff1682610100015173ffffffffffffffffffffffffffffffffffffffff16146123a8576040517f08c379a000000000000000000000000000000000000000000000000000000000815260206004820152600860248201527f4f434355504945440000000000000000000000000000000000000000000000006044820152606401610517565b60006123b883610140015161348e565b905060006123c58261352b565b73ffffffffffffffffffffffffffffffffffffffff8616610120860152905063ffffffff83161561251757600061243d7f000000000000000000000000000000000000000000000000000000000000000063ffffffff168563ffffffff1661271061243489610140015161362f565b61ffff166136c6565b5090507f000000000000000000000000000000000000000000000000000000000000000063ffffffff168163ffffffff16106124d5576040517f08c379a000000000000000000000000000000000000000000000000000000000815260206004820152600f60248201527f4641494c45445f434150545552454400000000000000000000000000000000006044820152606401610517565b6124ff817f0000000000000000000000000000000000000000000000000000000000000000614358565b63ffffffff16606086015250600060e08501526125b8565b7f000000000000000000000000000000000000000000000000000000000000000084606001818151612549919061437d565b63ffffffff169052507f0000000000000000000000000000000000000000000000000000000000000000156125b8578063ffffffff16846060015163ffffffff1611156125b0578084606001516125a09190614358565b63ffffffff1660e08501526125b8565b600060e08501525b60608401516127106125f07f000000000000000000000000000000000000000000000000000000000000000063ffffffff85166140e7565b6125fa9190614297565b6126039061439c565b61260d91906143db565b60030b6080850152505060016040909201919091525050565b60008260a0015164ffffffffff1611801561264a575060c082015164ffffffffff16155b156126585761265882613867565b81610120015173ffffffffffffffffffffffffffffffffffffffff1682610100015173ffffffffffffffffffffffffffffffffffffffff16146127bd5761012082015183547fffffffffffffffffffffffff00000000000000000000000000000000000000001673ffffffffffffffffffffffffffffffffffffffff90911690811784551561272c5782547fffffffffffffff0000000000ffffffffffffffffffffffffffffffffffffffff16740100000000000000000000000000000000000000004264ffffffffff1602178355612753565b82547fffffffffffffff0000000000ffffffffffffffffffffffffffffffffffffffff1683555b816000015182610120015173ffffffffffffffffffffffffffffffffffffffff1683610100015173ffffffffffffffffffffffffffffffffffffffff167fddf252ad1be2c89b69c2b068fc378daa952ba7f163c4a11628f55a4df523b3ef60405160405180910390a45b80156127ee5782547fffff0000000000ffffffffffffffffffffffffffffffffffffffffffffffffff16835561285f565b8160a0015164ffffffffff168260c0015164ffffffffff161461285f5760c0820151835464ffffffffff909116790100000000000000000000000000000000000000000000000000027fffff0000000000ffffffffffffffffffffffffffffffffffffffffffffffffff9091161783555b61287182604001518360600151613b23565b60019093018054608084015160e0909401514264ffffffffff908116640100000000027fffffffffffffffffffffffffffffffffffffffffffffff0000000000ffffffff63ffffffff9384166e01000000000000000000000000000002167fffffffffffffffffffffffffffff00000000ffffffffff0000000000ffffffff929097166901000000000000000000027fffffffffffffffffffffffffffffffffffff0000000000ffffffffff00000000909416979092169690961791909117949094169290921792909217905550565b604080516080808201835260055463ffffffff80821684526401000000008204811660208501526801000000000000000082048116948401949094526c0100000000000000000000000090049092166060820152906fffffffffffffffffffffffffffffffff8316600f0b9083901d600080831215612aa157835163ffffffff166129cb8461431f565b1315612a33576040517f08c379a000000000000000000000000000000000000000000000000000000000815260206004820152601660248201527f4e4f545f524541434841424c455f5945545f4d494e58000000000000000000006044820152606401610517565b7f000000000000000000000000000000000000000000000000000000000000000060030b612a608461431f565b612a6a9190614440565b925063ffffffff831315612a805763ffffffff92505b835163ffffffff16831315612a9c575063ffffffff8216835260015b612b80565b836020015163ffffffff16831315612b15576040517f08c379a000000000000000000000000000000000000000000000000000000000815260206004820152601660248201527f4e4f545f524541434841424c455f5945545f4d415858000000000000000000006044820152606401610517565b612b427f000000000000000000000000000000000000000000000000000000000000000060030b84614440565b925063ffffffff831315612b585763ffffffff92505b8263ffffffff16846020015163ffffffff161015612b80575063ffffffff8216602084015260015b6000821215612c7957604084015163ffffffff16612b9d8361431f565b1315612c05576040517f08c379a000000000000000000000000000000000000000000000000000000000815260206004820152601660248201527f4e4f545f524541434841424c455f5945545f4d494e59000000000000000000006044820152606401610517565b7f000000000000000000000000000000000000000000000000000000000000000060030b612c328361431f565b612c3c9190614440565b915063ffffffff821315612c525763ffffffff91505b81846040015163ffffffff161215612c74575063ffffffff8116604084015260015b612d52565b836060015163ffffffff16821315612ced576040517f08c379a000000000000000000000000000000000000000000000000000000000815260206004820152601660248201527f4e4f545f524541434841424c455f5945545f4d415859000000000000000000006044820152606401610517565b612d1a7f000000000000000000000000000000000000000000000000000000000000000060030b83614440565b915063ffffffff821315612d305763ffffffff91505b81846060015163ffffffff161215612d52575063ffffffff8116606084015260015b8015610d6a5783516005805460208701516040880151606089015163ffffffff9081166c01000000000000000000000000027fffffffffffffffffffffffffffffffff00000000ffffffffffffffffffffffff9282166801000000000000000002929092167fffffffffffffffffffffffffffffffff0000000000000000ffffffffffffffff938216640100000000027fffffffffffffffffffffffffffffffffffffffffffffffff000000000000000090951691909616179290921716929092179190911790555050505050565b6107e1612e4c7f27ec6af4a6510eb9b7e0cc7f39415b7f15e430e53eb0cd3997e7c7e0cf680f6e5490565b60405173ffffffffffffffffffffffffffffffffffffffff85166024820152604481018490527ff5d82b6b00000000000000000000000000000000000000000000000000000000906064015b604080517fffffffffffffffffffffffffffffffffffffffffffffffffffffffffffffffe08184030181529190526020810180517bffffffffffffffffffffffffffffffffffffffffffffffffffffffff167fffffffff000000000000000000000000000000000000000000000000000000009093169290921790915262017700613b49565b6000612f2d8260346010613c46565b60ff166001149050919050565b600080612f4984846040613c46565b90506000612f586002836144b4565b90506000612f676002846144d6565b905060007f01223334444555555666666677777777888888889999999aaaaaabbbbcccddef60ff841660208110612fa057612fa0614089565b1a905060ff8216612fbe5760048160ff16901c945050505050612fd0565b612fc96010826144d6565b9450505050505b92915050565b6380000000818116811490600090612fee90846144f8565b9050915091565b6107e16130207f27ec6af4a6510eb9b7e0cc7f39415b7f15e430e53eb0cd3997e7c7e0cf680f6e5490565b60405173ffffffffffffffffffffffffffffffffffffffff85166024820152604481018490527fabe7f1ab0000000000000000000000000000000000000000000000000000000090606401612e98565b600064ffffffffff821661308657506000919050565b427f0000000000000000000000000000000000000000000000000000000000000000158015906130d657507f00000000000000000000000000000000000000000000000000000000000000008110155b801561310857507f00000000000000000000000000000000000000000000000000000000000000008364ffffffffff16105b156131165750600192915050565b6131477f000000000000000000000000000000000000000000000000000000000000000064ffffffffff8516614124565b1092915050565b6000655af3107a4000613160836110ee565b63ffffffff1661317091906140e7565b604080514381524260208201529192507f438e507c246c311193c77528e3de231eec8ce4727cce091a1dbbecf85b427893910160405180910390a1828473ffffffffffffffffffffffffffffffffffffffff167f1c363b29828a892b7cddafe9583ef52e0d5aca0ea7011bda6ccf039e1781f738836040516131f491815260200190565b60405180910390a360008381526007602052604090205480156132a45773ffffffffffffffffffffffffffffffffffffffff85166000818152600860209081526040808320858452825280832080547fffffffffffffffffffffffffffffffffffffffffffffffffffffffffffffff001660011790558783526007909152808220829055518392879290917f74f110a1e0cd4892234c7ba49df9f8a354cd8d29b272f7557c9b8c3c38a653369190a45b509392505050565b73ffffffffffffffffffffffffffffffffffffffff82166000818152600a602090815260408083209290925581518481526001918101919091527f05eefb5f2a67125e8c65550a4ffa0f542f75624e866ef58fb72bfb5475403092910160405180910390a26040517fa9059cbb00000000000000000000000000000000000000000000000000000000815273ffffffffffffffffffffffffffffffffffffffff8381166004830152602482018390527f0000000000000000000000000000000000000000000000000000000000000000169063a9059cbb90604401602060405180830381600087803b1580156133a157600080fd5b505af11580156133b5573d6000803e3d6000fd5b505050506040513d601f19601f820116820180604052508101906133d99190614067565b61343f576040517f08c379a000000000000000000000000000000000000000000000000000000000815260206004820152600f60248201527f4641494c45445f5452414e5346455200000000000000000000000000000000006044820152606401610517565b60408051600081526001602082015273ffffffffffffffffffffffffffffffffffffffff8416917f05eefb5f2a67125e8c65550a4ffa0f542f75624e866ef58fb72bfb54754030929101611427565b600061349982612f1e565b6134ff576040517f08c379a000000000000000000000000000000000000000000000000000000000815260206004820152601160248201527f504c414e45545f4e4f545f4558495354530000000000000000000000000000006044820152606401610517565b612fd082600c7f0708083409600a8c0bb80ce40e100e100e100e101068151819c81e7823282ee0613c5b565b6000610e1061355e7f000000000000000000000000000000000000000000000000000000000000000061ffff85166140e7565b6135689190614297565b612fd09063ffffffff7f000000000000000000000000000000000000000000000000000000000000000016614124565b60006135a382612f1e565b613609576040517f08c379a000000000000000000000000000000000000000000000000000000000815260206004820152601160248201527f504c414e45545f4e4f545f4558495354530000000000000000000000000000006044820152606401610517565b61361482602c612f3a565b6136239060ff16610bb86141de565b612fd090613a98614208565b600061363a82612f1e565b6136a0576040517f08c379a000000000000000000000000000000000000000000000000000000000815260206004820152601160248201527f504c414e45545f4e4f545f4558495354530000000000000000000000000000006044820152606401610517565b6136ab82601c612f3a565b6136ba9060ff166101906141de565b612fd090610fa0614208565b6000808515806136d4575084155b156136e45750600090508061385e565b600085613711887f00000000000000000000000000000000000000000000000000000000000000006140e7565b61371b9190614297565b6137487f0000000000000000000000000000000000000000000000000000000000000000620f4240614280565b6137529190614124565b61375c90886140e7565b90506000620f42408561376f88856140e7565b6137799190614297565b6137839190614297565b9050808711156137985787935080925061385b565b6000886137c5897f00000000000000000000000000000000000000000000000000000000000000006140e7565b6137cf9190614297565b6137fc7f0000000000000000000000000000000000000000000000000000000000000000620f4240614280565b6138069190614124565b61381090896140e7565b90506000620f42408861382389856140e7565b61382d9190614297565b6138379190614297565b63ffffffff1690508981106138545761385160018b614280565b90505b9450879350505b50505b94509492505050565b6000613882826101000151836000015184610140015161314e565b82516000908152600b60205260409020549091508015613aed576138c97f00000000000000000000000000000000000000000000000000000000000000006207e90061425d565b6138d99063ffffffff1682614124565b8360a0015164ffffffffff1610613a45576040517ff6b911bc00000000000000000000000000000000000000000000000000000000815230600482018190526024820152604481018390527f000000000000000000000000000000000000000000000000000000000000000073ffffffffffffffffffffffffffffffffffffffff169063f6b911bc90606401600060405180830381600087803b15801561397f57600080fd5b505af1158015613993573d6000803e3d6000fd5b5050505061010083015173ffffffffffffffffffffffffffffffffffffffff166000908152600260205260408120546139cd908490614124565b6101008501805173ffffffffffffffffffffffffffffffffffffffff9081166000908152600260209081526040808320869055935184518681529182019290925293945016917f05eefb5f2a67125e8c65550a4ffa0f542f75624e866ef58fb72bfb547540309291015b60405180910390a250505050565b61010083015173ffffffffffffffffffffffffffffffffffffffff166000908152600a6020526040812054613a7b908490614124565b6101008501805173ffffffffffffffffffffffffffffffffffffffff9081166000908152600a6020908152604091829020859055925181518581526001948101949094529394509216917f05eefb5f2a67125e8c65550a4ffa0f542f75624e866ef58fb72bfb54754030929101613a37565b61010083015173ffffffffffffffffffffffffffffffffffffffff166000908152600260205260408120546139cd908490614124565b60008183613b32576000613b38565b63800000005b613b42919061437d565b9392505050565b73ffffffffffffffffffffffffffffffffffffffff831615610ad2578273ffffffffffffffffffffffffffffffffffffffff168183604051613b8b919061451b565b60006040518083038160008787f1925050503d8060008114613bc9576040519150601f19603f3d011682016040523d82523d6000602084013e613bce565b606091505b505050603f81613bde9190614297565b5a11610ad2576040517f08c379a000000000000000000000000000000000000000000000000000000000815260206004820152601d60248201527f4e4f545f454e4f5547485f4741535f464f525f494e4e45525f43414c4c0000006044820152606401610517565b600061124560ff80841690851686901c614556565b600080613c688585612f3a565b905082613c7682600261456a565b613c81906001614593565b60ff1660208110613c9457613c94614089565b1a83613ca183600261456a565b60ff1660208110613cb457613cb4614089565b613cc291901a6101006141de565b613ccc9190614208565b95945050505050565b60008060408385031215613ce857600080fd5b50508035926020909101359150565b7f4e487b7100000000000000000000000000000000000000000000000000000000600052604160045260246000fd5b600082601f830112613d3757600080fd5b8135602067ffffffffffffffff80831115613d5457613d54613cf7565b8260051b6040517fffffffffffffffffffffffffffffffffffffffffffffffffffffffffffffffe0603f83011681018181108482111715613d9757613d97613cf7565b604052938452858101830193838101925087851115613db557600080fd5b83870191505b84821015613dd457813583529183019190830190613dbb565b979650505050505050565b600080600060608486031215613df457600080fd5b833567ffffffffffffffff811115613e0b57600080fd5b613e1786828701613d26565b9660208601359650604090950135949350505050565b73ffffffffffffffffffffffffffffffffffffffff81168114613e4f57600080fd5b50565b60008083601f840112613e6457600080fd5b50813567ffffffffffffffff811115613e7c57600080fd5b602083019150836020828501011115613e9457600080fd5b9250929050565b600080600080600060808688031215613eb357600080fd5b8535613ebe81613e2d565b94506020860135613ece81613e2d565b935060408601359250606086013567ffffffffffffffff811115613ef157600080fd5b613efd88828901613e52565b969995985093965092949392505050565b600060208284031215613f2057600080fd5b8135613b4281613e2d565b60008060008060608587031215613f4157600080fd5b8435613f4c81613e2d565b935060208501359250604085013567ffffffffffffffff811115613f6f57600080fd5b613f7b87828801613e52565b95989497509550505050565b60008060408385031215613f9a57600080fd5b8235613fa581613e2d565b946020939093013593505050565b600080600060408486031215613fc857600080fd5b8335613fd381613e2d565b9250602084013567ffffffffffffffff80821115613ff057600080fd5b818601915086601f83011261400457600080fd5b81358181111561401357600080fd5b8760208260051b850101111561402857600080fd5b6020830194508093505050509250925092565b60008060006060848603121561405057600080fd5b505081359360208301359350604090920135919050565b60006020828403121561407957600080fd5b81518015158114613b4257600080fd5b7f4e487b7100000000000000000000000000000000000000000000000000000000600052603260045260246000fd5b7f4e487b7100000000000000000000000000000000000000000000000000000000600052601160045260246000fd5b6000817fffffffffffffffffffffffffffffffffffffffffffffffffffffffffffffffff048311821515161561411f5761411f6140b8565b500290565b60008219821115614137576141376140b8565b500190565b60007fffffffffffffffffffffffffffffffffffffffffffffffffffffffffffffffff82141561416e5761416e6140b8565b5060010190565b60006020828403121561418757600080fd5b5035919050565b600080604083850312156141a157600080fd5b82356141ac81613e2d565b9150602083013567ffffffffffffffff8111156141c857600080fd5b6141d485828601613d26565b9150509250929050565b600061ffff808316818516818304811182151516156141ff576141ff6140b8565b02949350505050565b600061ffff808316818516808303821115614225576142256140b8565b01949350505050565b7f4e487b7100000000000000000000000000000000000000000000000000000000600052601260045260246000fd5b600063ffffffff808416806142745761427461422e565b92169190910492915050565b600082821015614292576142926140b8565b500390565b6000826142a6576142a661422e565b500490565b6000808312837f8000000000000000000000000000000000000000000000000000000000000000018312811516156142e5576142e56140b8565b837f7fffffffffffffffffffffffffffffffffffffffffffffffffffffffffffffff018313811615614319576143196140b8565b50500390565b60007f8000000000000000000000000000000000000000000000000000000000000000821415614351576143516140b8565b5060000390565b600063ffffffff83811690831681811015614375576143756140b8565b039392505050565b600063ffffffff808316818516808303821115614225576142256140b8565b60008160030b7fffffffffffffffffffffffffffffffffffffffffffffffffffffffff800000008114156143d2576143d26140b8565b60000392915050565b60008160030b8360030b60008112817fffffffffffffffffffffffffffffffffffffffffffffffffffffffff800000000183128115161561441e5761441e6140b8565b81637fffffff018313811615614436576144366140b8565b5090039392505050565b6000808212827f7fffffffffffffffffffffffffffffffffffffffffffffffffffffffffffffff0384138115161561447a5761447a6140b8565b827f80000000000000000000000000000000000000000000000000000000000000000384128116156144ae576144ae6140b8565b50500190565b600060ff8316806144c7576144c761422e565b8060ff84160491505092915050565b600060ff8316806144e9576144e961422e565b8060ff84160691505092915050565b600063ffffffff8084168061450f5761450f61422e565b92169190910692915050565b6000825160005b8181101561453c5760208186018101518583015201614522565b8181111561454b576000828501525b509190910192915050565b6000826145655761456561422e565b500690565b600060ff821660ff84168160ff048111821515161561458b5761458b6140b8565b029392505050565b600060ff821660ff84168060ff038211156145b0576145b06140b8565b01939250505056fea2646970667358221220b1fd52208f66afe3994c20263a4745fa276c500e7b19c8177e207f7c1980974164736f6c63430008090033",
  "devdoc": {
    "kind": "dev",
    "methods": {},
    "version": 1
  },
  "userdoc": {
    "kind": "user",
    "methods": {},
    "version": 1
  },
  "storageLayout": {
    "storage": [
      {
        "astId": 12437,
        "contract": "src/outerspace/facets/OuterSpaceStakingFacet.sol:OuterSpaceStakingFacet",
        "label": "_planets",
        "offset": 0,
        "slot": "0",
        "type": "t_mapping(t_uint256,t_struct(Planet)21448_storage)"
      },
      {
        "astId": 12442,
        "contract": "src/outerspace/facets/OuterSpaceStakingFacet.sol:OuterSpaceStakingFacet",
        "label": "_fleets",
        "offset": 0,
        "slot": "1",
        "type": "t_mapping(t_uint256,t_struct(Fleet)21467_storage)"
      },
      {
        "astId": 12446,
        "contract": "src/outerspace/facets/OuterSpaceStakingFacet.sol:OuterSpaceStakingFacet",
        "label": "_stakeReadyToBeWithdrawn",
        "offset": 0,
        "slot": "2",
        "type": "t_mapping(t_address,t_uint256)"
      },
      {
        "astId": 12452,
        "contract": "src/outerspace/facets/OuterSpaceStakingFacet.sol:OuterSpaceStakingFacet",
        "label": "_operators",
        "offset": 0,
        "slot": "3",
        "type": "t_mapping(t_address,t_mapping(t_address,t_bool))"
      },
      {
        "astId": 12459,
        "contract": "src/outerspace/facets/OuterSpaceStakingFacet.sol:OuterSpaceStakingFacet",
        "label": "_inFlight",
        "offset": 0,
        "slot": "4",
        "type": "t_mapping(t_uint256,t_mapping(t_uint256,t_struct(InFlight)21424_storage))"
      },
      {
        "astId": 12462,
        "contract": "src/outerspace/facets/OuterSpaceStakingFacet.sol:OuterSpaceStakingFacet",
        "label": "_discovered",
        "offset": 0,
        "slot": "5",
        "type": "t_struct(Discovered)21433_storage"
      },
      {
        "astId": 12466,
        "contract": "src/outerspace/facets/OuterSpaceStakingFacet.sol:OuterSpaceStakingFacet",
        "label": "_prevRewardIds",
        "offset": 0,
        "slot": "6",
        "type": "t_mapping(t_address,t_uint256)"
      },
      {
        "astId": 12470,
        "contract": "src/outerspace/facets/OuterSpaceStakingFacet.sol:OuterSpaceStakingFacet",
        "label": "_rewards",
        "offset": 0,
        "slot": "7",
        "type": "t_mapping(t_uint256,t_uint256)"
      },
      {
        "astId": 12476,
        "contract": "src/outerspace/facets/OuterSpaceStakingFacet.sol:OuterSpaceStakingFacet",
        "label": "_rewardsToWithdraw",
        "offset": 0,
        "slot": "8",
        "type": "t_mapping(t_address,t_mapping(t_uint256,t_bool))"
      },
      {
        "astId": 12485,
        "contract": "src/outerspace/facets/OuterSpaceStakingFacet.sol:OuterSpaceStakingFacet",
        "label": "_attacks",
        "offset": 0,
        "slot": "9",
        "type": "t_mapping(t_uint256,t_mapping(t_address,t_mapping(t_uint256,t_struct(AccumulatedAttack)21563_storage)))"
      },
      {
        "astId": 12489,
        "contract": "src/outerspace/facets/OuterSpaceStakingFacet.sol:OuterSpaceStakingFacet",
        "label": "_freeStakeReadyToBeWithdrawn",
        "offset": 0,
        "slot": "10",
        "type": "t_mapping(t_address,t_uint256)"
      },
      {
        "astId": 12493,
        "contract": "src/outerspace/facets/OuterSpaceStakingFacet.sol:OuterSpaceStakingFacet",
        "label": "_planetFlagged",
        "offset": 0,
        "slot": "11",
        "type": "t_mapping(t_uint256,t_uint256)"
      }
    ],
    "types": {
      "t_address": {
        "encoding": "inplace",
        "label": "address",
        "numberOfBytes": "20"
      },
      "t_bool": {
        "encoding": "inplace",
        "label": "bool",
        "numberOfBytes": "1"
      },
      "t_int40": {
        "encoding": "inplace",
        "label": "int40",
        "numberOfBytes": "5"
      },
      "t_mapping(t_address,t_bool)": {
        "encoding": "mapping",
        "key": "t_address",
        "label": "mapping(address => bool)",
        "numberOfBytes": "32",
        "value": "t_bool"
      },
      "t_mapping(t_address,t_mapping(t_address,t_bool))": {
        "encoding": "mapping",
        "key": "t_address",
        "label": "mapping(address => mapping(address => bool))",
        "numberOfBytes": "32",
        "value": "t_mapping(t_address,t_bool)"
      },
      "t_mapping(t_address,t_mapping(t_uint256,t_bool))": {
        "encoding": "mapping",
        "key": "t_address",
        "label": "mapping(address => mapping(uint256 => bool))",
        "numberOfBytes": "32",
        "value": "t_mapping(t_uint256,t_bool)"
      },
      "t_mapping(t_address,t_mapping(t_uint256,t_struct(AccumulatedAttack)21563_storage))": {
        "encoding": "mapping",
        "key": "t_address",
        "label": "mapping(address => mapping(uint256 => struct ImportingOuterSpaceTypes.AccumulatedAttack))",
        "numberOfBytes": "32",
        "value": "t_mapping(t_uint256,t_struct(AccumulatedAttack)21563_storage)"
      },
      "t_mapping(t_address,t_uint256)": {
        "encoding": "mapping",
        "key": "t_address",
        "label": "mapping(address => uint256)",
        "numberOfBytes": "32",
        "value": "t_uint256"
      },
      "t_mapping(t_uint256,t_bool)": {
        "encoding": "mapping",
        "key": "t_uint256",
        "label": "mapping(uint256 => bool)",
        "numberOfBytes": "32",
        "value": "t_bool"
      },
      "t_mapping(t_uint256,t_mapping(t_address,t_mapping(t_uint256,t_struct(AccumulatedAttack)21563_storage)))": {
        "encoding": "mapping",
        "key": "t_uint256",
        "label": "mapping(uint256 => mapping(address => mapping(uint256 => struct ImportingOuterSpaceTypes.AccumulatedAttack)))",
        "numberOfBytes": "32",
        "value": "t_mapping(t_address,t_mapping(t_uint256,t_struct(AccumulatedAttack)21563_storage))"
      },
      "t_mapping(t_uint256,t_mapping(t_uint256,t_struct(InFlight)21424_storage))": {
        "encoding": "mapping",
        "key": "t_uint256",
        "label": "mapping(uint256 => mapping(uint256 => struct ImportingOuterSpaceTypes.InFlight))",
        "numberOfBytes": "32",
        "value": "t_mapping(t_uint256,t_struct(InFlight)21424_storage)"
      },
      "t_mapping(t_uint256,t_struct(AccumulatedAttack)21563_storage)": {
        "encoding": "mapping",
        "key": "t_uint256",
        "label": "mapping(uint256 => struct ImportingOuterSpaceTypes.AccumulatedAttack)",
        "numberOfBytes": "32",
        "value": "t_struct(AccumulatedAttack)21563_storage"
      },
      "t_mapping(t_uint256,t_struct(Fleet)21467_storage)": {
        "encoding": "mapping",
        "key": "t_uint256",
        "label": "mapping(uint256 => struct ImportingOuterSpaceTypes.Fleet)",
        "numberOfBytes": "32",
        "value": "t_struct(Fleet)21467_storage"
      },
      "t_mapping(t_uint256,t_struct(InFlight)21424_storage)": {
        "encoding": "mapping",
        "key": "t_uint256",
        "label": "mapping(uint256 => struct ImportingOuterSpaceTypes.InFlight)",
        "numberOfBytes": "32",
        "value": "t_struct(InFlight)21424_storage"
      },
      "t_mapping(t_uint256,t_struct(Planet)21448_storage)": {
        "encoding": "mapping",
        "key": "t_uint256",
        "label": "mapping(uint256 => struct ImportingOuterSpaceTypes.Planet)",
        "numberOfBytes": "32",
        "value": "t_struct(Planet)21448_storage"
      },
      "t_mapping(t_uint256,t_uint256)": {
        "encoding": "mapping",
        "key": "t_uint256",
        "label": "mapping(uint256 => uint256)",
        "numberOfBytes": "32",
        "value": "t_uint256"
      },
      "t_struct(AccumulatedAttack)21563_storage": {
        "encoding": "inplace",
        "label": "struct ImportingOuterSpaceTypes.AccumulatedAttack",
        "members": [
          {
            "astId": 21556,
            "contract": "src/outerspace/facets/OuterSpaceStakingFacet.sol:OuterSpaceStakingFacet",
            "label": "target",
            "offset": 0,
            "slot": "0",
            "type": "t_address"
          },
          {
            "astId": 21558,
            "contract": "src/outerspace/facets/OuterSpaceStakingFacet.sol:OuterSpaceStakingFacet",
            "label": "numAttackSpent",
            "offset": 20,
            "slot": "0",
            "type": "t_uint32"
          },
          {
            "astId": 21560,
            "contract": "src/outerspace/facets/OuterSpaceStakingFacet.sol:OuterSpaceStakingFacet",
            "label": "damageCausedSoFar",
            "offset": 24,
            "slot": "0",
            "type": "t_uint32"
          },
          {
            "astId": 21562,
            "contract": "src/outerspace/facets/OuterSpaceStakingFacet.sol:OuterSpaceStakingFacet",
            "label": "averageAttackPower",
            "offset": 28,
            "slot": "0",
            "type": "t_uint16"
          }
        ],
        "numberOfBytes": "32"
      },
      "t_struct(Discovered)21433_storage": {
        "encoding": "inplace",
        "label": "struct ImportingOuterSpaceTypes.Discovered",
        "members": [
          {
            "astId": 21426,
            "contract": "src/outerspace/facets/OuterSpaceStakingFacet.sol:OuterSpaceStakingFacet",
            "label": "minX",
            "offset": 0,
            "slot": "0",
            "type": "t_uint32"
          },
          {
            "astId": 21428,
            "contract": "src/outerspace/facets/OuterSpaceStakingFacet.sol:OuterSpaceStakingFacet",
            "label": "maxX",
            "offset": 4,
            "slot": "0",
            "type": "t_uint32"
          },
          {
            "astId": 21430,
            "contract": "src/outerspace/facets/OuterSpaceStakingFacet.sol:OuterSpaceStakingFacet",
            "label": "minY",
            "offset": 8,
            "slot": "0",
            "type": "t_uint32"
          },
          {
            "astId": 21432,
            "contract": "src/outerspace/facets/OuterSpaceStakingFacet.sol:OuterSpaceStakingFacet",
            "label": "maxY",
            "offset": 12,
            "slot": "0",
            "type": "t_uint32"
          }
        ],
        "numberOfBytes": "32"
      },
      "t_struct(Fleet)21467_storage": {
        "encoding": "inplace",
        "label": "struct ImportingOuterSpaceTypes.Fleet",
        "members": [
          {
            "astId": 21450,
            "contract": "src/outerspace/facets/OuterSpaceStakingFacet.sol:OuterSpaceStakingFacet",
            "label": "owner",
            "offset": 0,
            "slot": "0",
            "type": "t_address"
          },
          {
            "astId": 21452,
            "contract": "src/outerspace/facets/OuterSpaceStakingFacet.sol:OuterSpaceStakingFacet",
            "label": "launchTime",
            "offset": 20,
            "slot": "0",
            "type": "t_uint40"
          },
          {
            "astId": 21454,
            "contract": "src/outerspace/facets/OuterSpaceStakingFacet.sol:OuterSpaceStakingFacet",
            "label": "quantity",
            "offset": 25,
            "slot": "0",
            "type": "t_uint32"
          },
          {
            "astId": 21456,
            "contract": "src/outerspace/facets/OuterSpaceStakingFacet.sol:OuterSpaceStakingFacet",
            "label": "futureExtraProduction",
            "offset": 29,
            "slot": "0",
            "type": "t_uint24"
          },
          {
            "astId": 21458,
            "contract": "src/outerspace/facets/OuterSpaceStakingFacet.sol:OuterSpaceStakingFacet",
            "label": "defender",
            "offset": 0,
            "slot": "1",
            "type": "t_address"
          },
          {
            "astId": 21460,
            "contract": "src/outerspace/facets/OuterSpaceStakingFacet.sol:OuterSpaceStakingFacet",
            "label": "arrivalTime",
            "offset": 20,
            "slot": "1",
            "type": "t_uint40"
          },
          {
            "astId": 21462,
            "contract": "src/outerspace/facets/OuterSpaceStakingFacet.sol:OuterSpaceStakingFacet",
            "label": "defenderLoss",
            "offset": 25,
            "slot": "1",
            "type": "t_uint32"
          },
          {
            "astId": 21464,
            "contract": "src/outerspace/facets/OuterSpaceStakingFacet.sol:OuterSpaceStakingFacet",
            "label": "planetActive",
            "offset": 29,
            "slot": "1",
            "type": "t_bool"
          },
          {
            "astId": 21466,
            "contract": "src/outerspace/facets/OuterSpaceStakingFacet.sol:OuterSpaceStakingFacet",
            "label": "victory",
            "offset": 30,
            "slot": "1",
            "type": "t_bool"
          }
        ],
        "numberOfBytes": "64"
      },
      "t_struct(InFlight)21424_storage": {
        "encoding": "inplace",
        "label": "struct ImportingOuterSpaceTypes.InFlight",
        "members": [
          {
            "astId": 21421,
            "contract": "src/outerspace/facets/OuterSpaceStakingFacet.sol:OuterSpaceStakingFacet",
            "label": "flying",
            "offset": 0,
            "slot": "0",
            "type": "t_uint32"
          },
          {
            "astId": 21423,
            "contract": "src/outerspace/facets/OuterSpaceStakingFacet.sol:OuterSpaceStakingFacet",
            "label": "destroyed",
            "offset": 4,
            "slot": "0",
            "type": "t_uint32"
          }
        ],
        "numberOfBytes": "32"
      },
      "t_struct(Planet)21448_storage": {
        "encoding": "inplace",
        "label": "struct ImportingOuterSpaceTypes.Planet",
        "members": [
          {
            "astId": 21435,
            "contract": "src/outerspace/facets/OuterSpaceStakingFacet.sol:OuterSpaceStakingFacet",
            "label": "owner",
            "offset": 0,
            "slot": "0",
            "type": "t_address"
          },
          {
            "astId": 21437,
            "contract": "src/outerspace/facets/OuterSpaceStakingFacet.sol:OuterSpaceStakingFacet",
            "label": "ownershipStartTime",
            "offset": 20,
            "slot": "0",
            "type": "t_uint40"
          },
          {
            "astId": 21439,
            "contract": "src/outerspace/facets/OuterSpaceStakingFacet.sol:OuterSpaceStakingFacet",
            "label": "exitStartTime",
            "offset": 25,
            "slot": "0",
            "type": "t_uint40"
          },
          {
            "astId": 21441,
            "contract": "src/outerspace/facets/OuterSpaceStakingFacet.sol:OuterSpaceStakingFacet",
            "label": "numSpaceships",
            "offset": 0,
            "slot": "1",
            "type": "t_uint32"
          },
          {
            "astId": 21443,
            "contract": "src/outerspace/facets/OuterSpaceStakingFacet.sol:OuterSpaceStakingFacet",
            "label": "lastUpdated",
            "offset": 4,
            "slot": "1",
            "type": "t_uint40"
          },
          {
            "astId": 21445,
            "contract": "src/outerspace/facets/OuterSpaceStakingFacet.sol:OuterSpaceStakingFacet",
            "label": "travelingUpkeep",
            "offset": 9,
            "slot": "1",
            "type": "t_int40"
          },
          {
            "astId": 21447,
            "contract": "src/outerspace/facets/OuterSpaceStakingFacet.sol:OuterSpaceStakingFacet",
            "label": "overflow",
            "offset": 14,
            "slot": "1",
            "type": "t_uint32"
          }
        ],
        "numberOfBytes": "64"
      },
      "t_uint16": {
        "encoding": "inplace",
        "label": "uint16",
        "numberOfBytes": "2"
      },
      "t_uint24": {
        "encoding": "inplace",
        "label": "uint24",
        "numberOfBytes": "3"
      },
      "t_uint256": {
        "encoding": "inplace",
        "label": "uint256",
        "numberOfBytes": "32"
      },
      "t_uint32": {
        "encoding": "inplace",
        "label": "uint32",
        "numberOfBytes": "4"
      },
      "t_uint40": {
        "encoding": "inplace",
        "label": "uint40",
        "numberOfBytes": "5"
      }
    }
  }
}