{
  "address": "0xC7E8aeDB1cCB65570BDb5b60Af50254779249e96",
  "abi": [
    {
      "inputs": [
        {
          "internalType": "contract IReward",
          "name": "rewardAddress",
          "type": "address"
        },
        {
          "components": [
            {
              "internalType": "uint256",
              "name": "rewardRateMillionth",
              "type": "uint256"
            },
            {
              "internalType": "uint256",
              "name": "fixedRewardRateThousandsMillionth",
              "type": "uint256"
            }
          ],
          "internalType": "struct RewardsGenerator.Config",
          "name": "config",
          "type": "tuple"
        },
        {
          "internalType": "address[]",
          "name": "initialGames",
          "type": "address[]"
        },
        {
          "components": [
            {
              "internalType": "address",
              "name": "account",
              "type": "address"
            },
            {
              "internalType": "uint256",
              "name": "amount",
              "type": "uint256"
            }
          ],
          "internalType": "struct RewardsGenerator.InitialAccount[]",
          "name": "initialAccounts",
          "type": "tuple[]"
        }
      ],
      "stateMutability": "nonpayable",
      "type": "constructor"
    },
    {
      "anonymous": false,
      "inputs": [
        {
          "indexed": true,
          "internalType": "address",
          "name": "owner",
          "type": "address"
        },
        {
          "indexed": true,
          "internalType": "address",
          "name": "spender",
          "type": "address"
        },
        {
          "indexed": false,
          "internalType": "uint256",
          "name": "value",
          "type": "uint256"
        }
      ],
      "name": "Approval",
      "type": "event"
    },
    {
      "anonymous": false,
      "inputs": [
        {
          "indexed": true,
          "internalType": "address",
          "name": "game",
          "type": "address"
        },
        {
          "indexed": false,
          "internalType": "uint256",
          "name": "weight",
          "type": "uint256"
        },
        {
          "indexed": false,
          "internalType": "uint256",
          "name": "timestamp",
          "type": "uint256"
        }
      ],
      "name": "GameEnabled",
      "type": "event"
    },
    {
      "anonymous": false,
      "inputs": [
        {
          "indexed": true,
          "internalType": "address",
          "name": "from",
          "type": "address"
        },
        {
          "indexed": true,
          "internalType": "address",
          "name": "to",
          "type": "address"
        },
        {
          "indexed": false,
          "internalType": "uint256",
          "name": "value",
          "type": "uint256"
        }
      ],
      "name": "Transfer",
      "type": "event"
    },
    {
      "inputs": [],
      "name": "FIXED_REWARD_RATE_thousands_millionth",
      "outputs": [
        {
          "internalType": "uint256",
          "name": "",
          "type": "uint256"
        }
      ],
      "stateMutability": "view",
      "type": "function"
    },
    {
      "inputs": [],
      "name": "REWARD_RATE_millionth",
      "outputs": [
        {
          "internalType": "uint256",
          "name": "",
          "type": "uint256"
        }
      ],
      "stateMutability": "view",
      "type": "function"
    },
    {
      "inputs": [
        {
          "internalType": "address",
          "name": "account",
          "type": "address"
        },
        {
          "internalType": "uint256",
          "name": "amount",
          "type": "uint256"
        }
      ],
      "name": "add",
      "outputs": [],
      "stateMutability": "nonpayable",
      "type": "function"
    },
    {
      "inputs": [
        {
          "internalType": "address",
          "name": "",
          "type": "address"
        },
        {
          "internalType": "address",
          "name": "",
          "type": "address"
        }
      ],
      "name": "allowance",
      "outputs": [
        {
          "internalType": "uint256",
          "name": "",
          "type": "uint256"
        }
      ],
      "stateMutability": "pure",
      "type": "function"
    },
    {
      "inputs": [
        {
          "internalType": "address",
          "name": "",
          "type": "address"
        },
        {
          "internalType": "uint256",
          "name": "",
          "type": "uint256"
        }
      ],
      "name": "approve",
      "outputs": [
        {
          "internalType": "bool",
          "name": "",
          "type": "bool"
        }
      ],
      "stateMutability": "nonpayable",
      "type": "function"
    },
    {
      "inputs": [
        {
          "internalType": "address",
          "name": "owner",
          "type": "address"
        }
      ],
      "name": "balanceOf",
      "outputs": [
        {
          "internalType": "uint256",
          "name": "",
          "type": "uint256"
        }
      ],
      "stateMutability": "view",
      "type": "function"
    },
    {
      "inputs": [
        {
          "internalType": "address",
          "name": "to",
          "type": "address"
        }
      ],
      "name": "claimFixedRewards",
      "outputs": [],
      "stateMutability": "nonpayable",
      "type": "function"
    },
    {
      "inputs": [
        {
          "internalType": "address",
          "name": "to",
          "type": "address"
        }
      ],
      "name": "claimSharedPoolRewards",
      "outputs": [],
      "stateMutability": "nonpayable",
      "type": "function"
    },
    {
      "inputs": [],
      "name": "decimals",
      "outputs": [
        {
          "internalType": "uint8",
          "name": "",
          "type": "uint8"
        }
      ],
      "stateMutability": "pure",
      "type": "function"
    },
    {
      "inputs": [
        {
          "internalType": "address",
          "name": "account",
          "type": "address"
        }
      ],
      "name": "earnedFromFixedRate",
      "outputs": [
        {
          "internalType": "uint256",
          "name": "",
          "type": "uint256"
        }
      ],
      "stateMutability": "view",
      "type": "function"
    },
    {
      "inputs": [
        {
          "internalType": "address",
          "name": "account",
          "type": "address"
        }
      ],
      "name": "earnedFromPoolRate",
      "outputs": [
        {
          "internalType": "uint256",
          "name": "",
          "type": "uint256"
        }
      ],
      "stateMutability": "view",
      "type": "function"
    },
    {
      "inputs": [
        {
          "internalType": "address",
          "name": "game",
          "type": "address"
        },
        {
          "internalType": "uint256",
          "name": "weight",
          "type": "uint256"
        }
      ],
      "name": "enableGame",
      "outputs": [],
      "stateMutability": "nonpayable",
      "type": "function"
    },
    {
      "inputs": [],
      "name": "getTotalRewardPerPointWithPrecision24",
      "outputs": [
        {
          "internalType": "uint256",
          "name": "",
          "type": "uint256"
        }
      ],
      "stateMutability": "view",
      "type": "function"
    },
    {
      "inputs": [],
      "name": "lastUpdated",
      "outputs": [
        {
          "internalType": "uint256",
          "name": "",
          "type": "uint256"
        }
      ],
      "stateMutability": "view",
      "type": "function"
    },
    {
      "inputs": [
        {
          "internalType": "address",
          "name": "from",
          "type": "address"
        },
        {
          "internalType": "address",
          "name": "to",
          "type": "address"
        },
        {
          "internalType": "uint256",
          "name": "amount",
          "type": "uint256"
        }
      ],
      "name": "move",
      "outputs": [],
      "stateMutability": "nonpayable",
      "type": "function"
    },
    {
      "inputs": [],
      "name": "name",
      "outputs": [
        {
          "internalType": "string",
          "name": "",
          "type": "string"
        }
      ],
      "stateMutability": "pure",
      "type": "function"
    },
    {
      "inputs": [
        {
          "internalType": "contract IReward",
          "name": "rewardAddress",
          "type": "address"
        },
        {
          "components": [
            {
              "internalType": "uint256",
              "name": "rewardRateMillionth",
              "type": "uint256"
            },
            {
              "internalType": "uint256",
              "name": "fixedRewardRateThousandsMillionth",
              "type": "uint256"
            }
          ],
          "internalType": "struct RewardsGenerator.Config",
          "name": "config",
          "type": "tuple"
        },
        {
          "internalType": "address[]",
          "name": "initialGames",
          "type": "address[]"
        },
        {
          "components": [
            {
              "internalType": "address",
              "name": "account",
              "type": "address"
            },
            {
              "internalType": "uint256",
              "name": "amount",
              "type": "uint256"
            }
          ],
          "internalType": "struct RewardsGenerator.InitialAccount[]",
          "name": "initialAccounts",
          "type": "tuple[]"
        }
      ],
      "name": "postUpgrade",
      "outputs": [],
      "stateMutability": "nonpayable",
      "type": "function"
    },
    {
      "inputs": [
        {
          "internalType": "address",
          "name": "account",
          "type": "address"
        },
        {
          "internalType": "uint256",
          "name": "amount",
          "type": "uint256"
        }
      ],
      "name": "remove",
      "outputs": [],
      "stateMutability": "nonpayable",
      "type": "function"
    },
    {
      "inputs": [],
      "name": "reward",
      "outputs": [
        {
          "internalType": "contract IReward",
          "name": "",
          "type": "address"
        }
      ],
      "stateMutability": "view",
      "type": "function"
    },
    {
      "inputs": [],
      "name": "symbol",
      "outputs": [
        {
          "internalType": "string",
          "name": "",
          "type": "string"
        }
      ],
      "stateMutability": "view",
      "type": "function"
    },
    {
      "inputs": [],
      "name": "totalSupply",
      "outputs": [
        {
          "internalType": "uint256",
          "name": "",
          "type": "uint256"
        }
      ],
      "stateMutability": "view",
      "type": "function"
    },
    {
      "inputs": [
        {
          "internalType": "address",
          "name": "",
          "type": "address"
        },
        {
          "internalType": "uint256",
          "name": "",
          "type": "uint256"
        }
      ],
      "name": "transfer",
      "outputs": [
        {
          "internalType": "bool",
          "name": "",
          "type": "bool"
        }
      ],
      "stateMutability": "nonpayable",
      "type": "function"
    },
    {
      "inputs": [
        {
          "internalType": "address",
          "name": "",
          "type": "address"
        },
        {
          "internalType": "address",
          "name": "",
          "type": "address"
        },
        {
          "internalType": "uint256",
          "name": "",
          "type": "uint256"
        }
      ],
      "name": "transferFrom",
      "outputs": [
        {
          "internalType": "bool",
          "name": "",
          "type": "bool"
        }
      ],
      "stateMutability": "nonpayable",
      "type": "function"
    },
    {
      "inputs": [],
      "name": "update",
      "outputs": [],
      "stateMutability": "nonpayable",
      "type": "function"
    }
  ],
  "transactionHash": "0x36b492bb8217b49cec69583979f2731aac9227ad5b1e59f50fbf00f68fea9df8",
  "args": [
    "0x9a010664A4c3a612af47F9a38AdF8B10Bb48E172",
    {
      "rewardRateMillionth": 0,
      "fixedRewardRateThousandsMillionth": 0
    },
    [
      "0x365E18Ec7d716D21B75DD0715F3Fcdfa5d23D142"
    ],
    []
  ],
  "numDeployments": 1,
  "linkedData": {
    "rewardRateMillionth": 0,
    "fixedRewardRateThousandsMillionth": 0
  },
  "solcInputHash": "18c2b5a503286e564db20f3be3fc9de9",
  "bytecode": "0x60e06040523480156200001157600080fd5b50604051620023c2380380620023c28339810160408190526200003491620006c0565b6001600160a01b03841660c0528251608052602083015160a0526200005c8484848462000066565b50505050620008ce565b60045460ff166200014d5760005b8251811015620000c957620000b4838281518110620000975762000097620007dc565b6020026020010151670de0b6b3a76400006200015360201b60201c565b80620000c08162000808565b91505062000074565b5060005b81518110156200013e5762000129828281518110620000f057620000f0620007dc565b602002602001015160000151838381518110620001115762000111620007dc565b602002602001015160200151620001b660201b60201c565b80620001358162000808565b915050620000cd565b506004805460ff191660011790555b50505050565b6001600160a01b03821660008181526003602052604090819020839055517f50b08f8489c009db3c1b3f160cc0dae1c0c6706774750c001e4c083f9483d5f390620001aa9084904290918252602082015260400190565b60405180910390a25050565b80620001c0575050565b600080620001ce8462000270565b600080546001600160701b038785018116600160901b026001600160901b039092169190911782556001600160a01b0388168083526001602052604080842080548a87019094166001600160701b031990941693909317909255905193955091935090917fddf252ad1be2c89b69c2b068fc378daa952ba7f163c4a11628f55a4df523b3ef90620002629087815260200190565b60405180910390a350505050565b60008080806200027f6200029f565b909250905060006200029286836200032f565b9296929550919350505050565b600080546080516001600160701b03600160901b83041692918291620002cf9185919064ffffffffff16620004b8565b600054909150620002f49082906501000000000090046001600160681b031662000826565b600080546001600160901b031916650100000000006001600160681b0384160264ffffffffff1916174264ffffffffff161790559293915050565b6001600160a01b038216600090815260016020819052604090912080549101546001600160701b03808316926200037d92600160701b9091046001600160681b031691849186911662000510565b6001600160a01b038416600090815260016020818152604080842092830180546001600160701b0319166001600160701b0396909616959095179094558154600160701b600160d81b031916600160701b6001600160681b03881681029190911790925560a0516002909152928220549192633b9aca0092909185916200040e91900464ffffffffff164262000841565b6200041a91906200085b565b6200042691906200085b565b6200043291906200087d565b6001600160a01b0385166000908152600260205260408120805464ffffffffff4216600160701b0264ffffffffff60701b1982168117835593945084939192916200048d9185916001600160701b03908116911617620008a0565b92506101000a8154816001600160701b0302191690836001600160701b031602179055505092915050565b600083620004c95750600062000509565b8369d3c21bcecceda100000084620004e2854262000841565b620004ee91906200085b565b620004fa91906200085b565b6200050691906200087d565b90505b9392505050565b600069d3c21bcecceda100000064e8d4a510006200052f878662000841565b6200053b90876200085b565b6200054791906200085b565b6200055391906200087d565b6200055f908362000826565b95945050505050565b6001600160a01b03811681146200057e57600080fd5b50565b634e487b7160e01b600052604160045260246000fd5b604080519081016001600160401b0381118282101715620005bc57620005bc62000581565b60405290565b604051601f8201601f191681016001600160401b0381118282101715620005ed57620005ed62000581565b604052919050565b60006001600160401b0382111562000611576200061162000581565b5060051b60200190565b600082601f8301126200062d57600080fd5b81516020620006466200064083620005f5565b620005c2565b82815260069290921b840181019181810190868411156200066657600080fd5b8286015b84811015620006b55760408189031215620006855760008081fd5b6200068f62000597565b81516200069c8162000568565b815281850151858201528352918301916040016200066a565b509695505050505050565b60008060008084860360a0811215620006d857600080fd5b8551620006e58162000568565b945060206040601f1983011215620006fc57600080fd5b6200070662000597565b878201518152604088015182820152606088015190955091506001600160401b03808311156200073557600080fd5b828801925088601f8401126200074a57600080fd5b82516200075b6200064082620005f5565b81815260059190911b8401830190838101908b8311156200077b57600080fd5b948401945b82861015620007a6578551620007968162000568565b8252948401949084019062000780565b60808b01519097509450505080831115620007c057600080fd5b5050620007d0878288016200061b565b91505092959194509250565b634e487b7160e01b600052603260045260246000fd5b634e487b7160e01b600052601160045260246000fd5b60006000198214156200081f576200081f620007f2565b5060010190565b600082198211156200083c576200083c620007f2565b500190565b600082821015620008565762000856620007f2565b500390565b6000816000190483118215151615620008785762000878620007f2565b500290565b6000826200089b57634e487b7160e01b600052601260045260246000fd5b500490565b60006001600160701b03828116848216808303821115620008c557620008c5620007f2565b01949350505050565b60805160a05160c051611a936200092f600039600081816102ae015281816105350152610d4c0152600081816102250152818161085901526113ee01526000818161031f015281816107c001528181610a160152610f8b0152611a936000f3fe608060405234801561001057600080fd5b50600436106101985760003560e01c806370a08231116100e3578063b061963c1161008c578063dd62ed3e11610066578063dd62ed3e14610426578063f5d82b6b1461043c578063ff1e03e91461044f57600080fd5b8063b061963c146103f1578063bb35783b14610404578063d0b06f5d1461041757600080fd5b8063a8671f6a116100bd578063a8671f6a146103cb578063a9059cbb146101fd578063abe7f1ab146103de57600080fd5b806370a082311461034157806395d89b4114610387578063a2e62045146103c357600080fd5b80631eadd9b411610145578063313ce5671161011f578063313ce5671461030357806348483382146103125780635d5edd071461031a57600080fd5b80631eadd9b414610296578063228cb733146102a957806323b872dd146102f557600080fd5b806312fd78191161017657806312fd78191461022057806316cf09f81461025557806318160ddd1461026857600080fd5b8063066112f91461019d57806306fdde03146101b2578063095ea7b3146101fd575b600080fd5b6101b06101ab36600461152e565b610462565b005b60408051808201909152601281527f436f6e717565737420763020506f696e7473000000000000000000000000000060208201525b6040516101f4919061154b565b60405180910390f35b61021061020b3660046115be565b610599565b60405190151581526020016101f4565b6102477f000000000000000000000000000000000000000000000000000000000000000081565b6040519081526020016101f4565b6101b06102633660046115be565b610603565b600054720100000000000000000000000000000000000090046dffffffffffffffffffffffffffff16610247565b6101b06102a436600461174d565b6106c7565b6102d07f000000000000000000000000000000000000000000000000000000000000000081565b60405173ffffffffffffffffffffffffffffffffffffffff90911681526020016101f4565b61021061020b366004611873565b604051601281526020016101f4565b61024761078f565b6102477f000000000000000000000000000000000000000000000000000000000000000081565b61024761034f36600461152e565b73ffffffffffffffffffffffffffffffffffffffff166000908152600160205260409020546dffffffffffffffffffffffffffff1690565b6101e76040518060400160405280600581526020017f504f494e5400000000000000000000000000000000000000000000000000000081525081565b6101b0610816565b6102476103d936600461152e565b61081e565b6101b06103ec3660046115be565b610915565b6102476103ff36600461152e565b610995565b6101b0610412366004611873565b610aac565b60005464ffffffffff16610247565b6102476104343660046118b4565b600092915050565b6101b061044a3660046115be565b610b36565b6101b061045d36600461152e565b610bb6565b33600061046e8261081e565b905080156105945773ffffffffffffffffffffffffffffffffffffffff8281166000908152600260205260409081902080547fffffffffffffffffffffffffff00000000000000000000000000000000000000166e0100000000000000000000000000004264ffffffffff16027fffffffffffffffffffffffffffffffffffff000000000000000000000000000016179055517f21670f220000000000000000000000000000000000000000000000000000000081528482166004820152602481018390527f0000000000000000000000000000000000000000000000000000000000000000909116906321670f2290604401600060405180830381600087803b15801561057b57600080fd5b505af115801561058f573d6000803e3d6000fd5b505050505b505050565b6040517f08c379a000000000000000000000000000000000000000000000000000000000815260206004820152601060248201527f4e4f4e5f5452414e5346455241424c450000000000000000000000000000000060448201526000906064015b60405180910390fd5b7fb53127684a568b3173ae13b9f8a6016e243e63b6e8ee1178d6a717850b5d61035473ffffffffffffffffffffffffffffffffffffffff163373ffffffffffffffffffffffffffffffffffffffff16146106b9576040517f08c379a000000000000000000000000000000000000000000000000000000000815260206004820152600e60248201527f4e4f545f415554484f52495a454400000000000000000000000000000000000060448201526064016105fa565b6106c38282610db2565b5050565b7fb53127684a568b3173ae13b9f8a6016e243e63b6e8ee1178d6a717850b5d61035473ffffffffffffffffffffffffffffffffffffffff163373ffffffffffffffffffffffffffffffffffffffff161461077d576040517f08c379a000000000000000000000000000000000000000000000000000000000815260206004820152600e60248201527f4e4f545f415554484f52495a454400000000000000000000000000000000000060448201526064016105fa565b61078984848484610e21565b50505050565b600080546107ec906dffffffffffffffffffffffffffff7201000000000000000000000000000000000000820416907f00000000000000000000000000000000000000000000000000000000000000009064ffffffffff16610f09565b60005461081191906501000000000090046cffffffffffffffffffffffffff1661191c565b905090565b6106c3610f55565b73ffffffffffffffffffffffffffffffffffffffff811660009081526001602090815260408083205460029092528220548291633b9aca00917f0000000000000000000000000000000000000000000000000000000000000000916dffffffffffffffffffffffffffff16906108ad906e010000000000000000000000000000900464ffffffffff1642611934565b6108b7919061194b565b6108c1919061194b565b6108cb9190611988565b73ffffffffffffffffffffffffffffffffffffffff841660009081526002602052604090205490915061090e906dffffffffffffffffffffffffffff168261191c565b9392505050565b3360009081526003602052604090205461098b576040517f08c379a000000000000000000000000000000000000000000000000000000000815260206004820152601360248201527f4e4f545f415554484f52495a45445f47414d450000000000000000000000000060448201526064016105fa565b6106c38282611053565b73ffffffffffffffffffffffffffffffffffffffff81166000908152600160205260408120548154610aa6916cffffffffffffffffffffffffff6e010000000000000000000000000000820416916dffffffffffffffffffffffffffff91821691610a429172010000000000000000000000000000000000008104909116907f00000000000000000000000000000000000000000000000000000000000000009064ffffffffff16610f09565b600054610a6791906501000000000090046cffffffffffffffffffffffffff1661191c565b73ffffffffffffffffffffffffffffffffffffffff8616600090815260016020819052604090912001546dffffffffffffffffffffffffffff1661114e565b92915050565b33600090815260036020526040902054610b22576040517f08c379a000000000000000000000000000000000000000000000000000000000815260206004820152601360248201527f4e4f545f415554484f52495a45445f47414d450000000000000000000000000060448201526064016105fa565b610b2c8382611053565b610594828261119c565b33600090815260036020526040902054610bac576040517f08c379a000000000000000000000000000000000000000000000000000000000815260206004820152601360248201527f4e4f545f415554484f52495a45445f47414d450000000000000000000000000060448201526064016105fa565b6106c3828261119c565b336000818152600160205260408120546dffffffffffffffffffffffffffff1690610bdf610f55565b73ffffffffffffffffffffffffffffffffffffffff8516600090815260016020819052604082208054910154929450909250610c51916e0100000000000000000000000000009091046cffffffffffffffffffffffffff1690859085906dffffffffffffffffffffffffffff1661114e565b73ffffffffffffffffffffffffffffffffffffffff8516600090815260016020526040902080547fffffffffff00000000000000000000000000ffffffffffffffffffffffffffff166e0100000000000000000000000000006cffffffffffffffffffffffffff86160217905590508015610dab5773ffffffffffffffffffffffffffffffffffffffff8481166000908152600160208190526040918290200180547fffffffffffffffffffffffffffffffffffff0000000000000000000000000000169055517f21670f220000000000000000000000000000000000000000000000000000000081528682166004820152602481018390527f0000000000000000000000000000000000000000000000000000000000000000909116906321670f2290604401600060405180830381600087803b158015610d9257600080fd5b505af1158015610da6573d6000803e3d6000fd5b505050505b5050505050565b73ffffffffffffffffffffffffffffffffffffffff821660008181526003602052604090819020839055517f50b08f8489c009db3c1b3f160cc0dae1c0c6706774750c001e4c083f9483d5f390610e159084904290918252602082015260400190565b60405180910390a25050565b60045460ff166107895760005b8251811015610e7457610e62838281518110610e4c57610e4c6119c3565b6020026020010151670de0b6b3a7640000610db2565b80610e6c816119f2565b915050610e2e565b5060005b8151811015610ed757610ec5828281518110610e9657610e966119c3565b602002602001015160000151838381518110610eb457610eb46119c3565b60200260200101516020015161119c565b80610ecf816119f2565b915050610e78565b50600480547fffffffffffffffffffffffffffffffffffffffffffffffffffffffffffffff0016600117905550505050565b600083610f185750600061090e565b8369d3c21bcecceda100000084610f2f8542611934565b610f39919061194b565b610f43919061194b565b610f4d9190611988565b949350505050565b600080546dffffffffffffffffffffffffffff720100000000000000000000000000000000000082041691908190610fb79084907f00000000000000000000000000000000000000000000000000000000000000009064ffffffffff16610f09565b600054909150610fe09082906501000000000090046cffffffffffffffffffffffffff1661191c565b600080547fffffffffffffffffffffffffffff00000000000000000000000000000000000016650100000000006cffffffffffffffffffffffffff8416027fffffffffffffffffffffffffffffffffffffffffffffffffffffff000000000016174264ffffffffff161790559293915050565b8061105c575050565b6000806110688461128a565b600080546dffffffffffffffffffffffffffff878503811672010000000000000000000000000000000000000271ffffffffffffffffffffffffffffffffffff90921691909117825573ffffffffffffffffffffffffffffffffffffffff88168083526001602052604080842080548a87039094167fffffffffffffffffffffffffffffffffffff0000000000000000000000000000909416939093179092559051939550919350917fddf252ad1be2c89b69c2b068fc378daa952ba7f163c4a11628f55a4df523b3ef906111409087815260200190565b60405180910390a350505050565b600069d3c21bcecceda100000064e8d4a5100061116b8786611934565b611175908761194b565b61117f919061194b565b6111899190611988565b611193908361191c565b95945050505050565b806111a5575050565b6000806111b18461128a565b600080546dffffffffffffffffffffffffffff878501811672010000000000000000000000000000000000000271ffffffffffffffffffffffffffffffffffff90921691909117825573ffffffffffffffffffffffffffffffffffffffff88168083526001602052604080842080548a87019094167fffffffffffffffffffffffffffffffffffff000000000000000000000000000090941693909317909255905193955091935090917fddf252ad1be2c89b69c2b068fc378daa952ba7f163c4a11628f55a4df523b3ef906111409087815260200190565b600080600080611298610f55565b9150915060006112a886836112b5565b9296929550919350505050565b73ffffffffffffffffffffffffffffffffffffffff8216600090815260016020819052604090912080549101546dffffffffffffffffffffffffffff80831692611326926e0100000000000000000000000000009091046cffffffffffffffffffffffffff1691849186911661114e565b73ffffffffffffffffffffffffffffffffffffffff8416600090815260016020818152604080842092830180547fffffffffffffffffffffffffffffffffffff0000000000000000000000000000166dffffffffffffffffffffffffffff969096169590951790945581547fffffffffff00000000000000000000000000ffffffffffffffffffffffffffff166e0100000000000000000000000000006cffffffffffffffffffffffffff881681029190911790925560029052918120549091633b9aca00917f000000000000000000000000000000000000000000000000000000000000000091859161142391900464ffffffffff1642611934565b61142d919061194b565b611437919061194b565b6114419190611988565b73ffffffffffffffffffffffffffffffffffffffff85166000908152600260205260408120805464ffffffffff42166e010000000000000000000000000000027fffffffffffffffffffffffffff0000000000ffffffffffffffffffffffffffff82168117835593945084939192916114d09185916dffffffffffffffffffffffffffff908116911617611a2b565b92506101000a8154816dffffffffffffffffffffffffffff02191690836dffffffffffffffffffffffffffff1602179055505092915050565b73ffffffffffffffffffffffffffffffffffffffff8116811461152b57600080fd5b50565b60006020828403121561154057600080fd5b813561090e81611509565b600060208083528351808285015260005b818110156115785785810183015185820160400152820161155c565b8181111561158a576000604083870101525b50601f017fffffffffffffffffffffffffffffffffffffffffffffffffffffffffffffffe016929092016040019392505050565b600080604083850312156115d157600080fd5b82356115dc81611509565b946020939093013593505050565b7f4e487b7100000000000000000000000000000000000000000000000000000000600052604160045260246000fd5b6040805190810167ffffffffffffffff8111828210171561163c5761163c6115ea565b60405290565b604051601f82017fffffffffffffffffffffffffffffffffffffffffffffffffffffffffffffffe016810167ffffffffffffffff81118282101715611689576116896115ea565b604052919050565b600067ffffffffffffffff8211156116ab576116ab6115ea565b5060051b60200190565b600082601f8301126116c657600080fd5b813560206116db6116d683611691565b611642565b82815260069290921b840181019181810190868411156116fa57600080fd5b8286015b8481101561174257604081890312156117175760008081fd5b61171f611619565b813561172a81611509565b815281850135858201528352918301916040016116fe565b509695505050505050565b60008060008084860360a081121561176457600080fd5b853561176f81611509565b9450602060407fffffffffffffffffffffffffffffffffffffffffffffffffffffffffffffffe0830112156117a357600080fd5b6117ab611619565b87820135815260408801358282015294506060870135915067ffffffffffffffff808311156117d957600080fd5b828801925088601f8401126117ed57600080fd5b82356117fb6116d682611691565b81815260059190911b8401830190838101908b83111561181a57600080fd5b948401945b8286101561184157853561183281611509565b8252948401949084019061181f565b96505050608088013592508083111561185957600080fd5b5050611867878288016116b5565b91505092959194509250565b60008060006060848603121561188857600080fd5b833561189381611509565b925060208401356118a381611509565b929592945050506040919091013590565b600080604083850312156118c757600080fd5b82356118d281611509565b915060208301356118e281611509565b809150509250929050565b7f4e487b7100000000000000000000000000000000000000000000000000000000600052601160045260246000fd5b6000821982111561192f5761192f6118ed565b500190565b600082821015611946576119466118ed565b500390565b6000817fffffffffffffffffffffffffffffffffffffffffffffffffffffffffffffffff0483118215151615611983576119836118ed565b500290565b6000826119be577f4e487b7100000000000000000000000000000000000000000000000000000000600052601260045260246000fd5b500490565b7f4e487b7100000000000000000000000000000000000000000000000000000000600052603260045260246000fd5b60007fffffffffffffffffffffffffffffffffffffffffffffffffffffffffffffffff821415611a2457611a246118ed565b5060010190565b60006dffffffffffffffffffffffffffff808316818516808303821115611a5457611a546118ed565b0194935050505056fea26469706673582212209f8396abc523139b92cdb247d4fd6ac963a7550065cfb7aa8fbe4dee5201036064736f6c63430008090033",
  "devdoc": {
    "kind": "dev",
    "methods": {
      "totalSupply()": {
        "details": "Returns the amount of tokens in existence."
      }
    },
    "version": 1
  },
  "userdoc": {
    "kind": "user",
    "methods": {
      "claimFixedRewards(address)": {
        "notice": "claim the rewards earned so far using a fixed rate per point"
      },
      "claimSharedPoolRewards(address)": {
        "notice": "claim the rewards earned so far in the shared pool"
      },
      "earnedFromFixedRate(address)": {
        "notice": "The amount of reward an account has accrued so far. Does not include already withdrawn rewards."
      },
      "earnedFromPoolRate(address)": {
        "notice": "The amount of reward an account has accrued so far. Does not include already withdrawn rewards."
      },
      "getTotalRewardPerPointWithPrecision24()": {
        "notice": "The amount of reward each point has earned so far"
      },
      "update()": {
        "notice": "update the global pool rate"
      }
    },
    "version": 1
  },
  "storageLayout": {
    "storage": [
      {
        "astId": 15457,
        "contract": "src/conquest_token/RewardsGenerator.sol:RewardsGenerator",
        "label": "_global",
        "offset": 0,
        "slot": "0",
        "type": "t_struct(GlobalState)15454_storage"
      },
      {
        "astId": 15469,
        "contract": "src/conquest_token/RewardsGenerator.sol:RewardsGenerator",
        "label": "_sharedRateRewardPerAccount",
        "offset": 0,
        "slot": "1",
        "type": "t_mapping(t_address,t_struct(SharedRatePerAccount)15464_storage)"
      },
      {
        "astId": 15479,
        "contract": "src/conquest_token/RewardsGenerator.sol:RewardsGenerator",
        "label": "_fixedRateRewardPerAccount",
        "offset": 0,
        "slot": "2",
        "type": "t_mapping(t_address,t_struct(FixedRate)15474_storage)"
      },
      {
        "astId": 15483,
        "contract": "src/conquest_token/RewardsGenerator.sol:RewardsGenerator",
        "label": "_games",
        "offset": 0,
        "slot": "3",
        "type": "t_mapping(t_address,t_uint256)"
      },
      {
        "astId": 15498,
        "contract": "src/conquest_token/RewardsGenerator.sol:RewardsGenerator",
        "label": "_init",
        "offset": 0,
        "slot": "4",
        "type": "t_bool"
      }
    ],
    "types": {
      "t_address": {
        "encoding": "inplace",
        "label": "address",
        "numberOfBytes": "20"
      },
      "t_bool": {
        "encoding": "inplace",
        "label": "bool",
        "numberOfBytes": "1"
      },
      "t_mapping(t_address,t_struct(FixedRate)15474_storage)": {
        "encoding": "mapping",
        "key": "t_address",
        "label": "mapping(address => struct RewardsGenerator.FixedRate)",
        "numberOfBytes": "32",
        "value": "t_struct(FixedRate)15474_storage"
      },
      "t_mapping(t_address,t_struct(SharedRatePerAccount)15464_storage)": {
        "encoding": "mapping",
        "key": "t_address",
        "label": "mapping(address => struct RewardsGenerator.SharedRatePerAccount)",
        "numberOfBytes": "32",
        "value": "t_struct(SharedRatePerAccount)15464_storage"
      },
      "t_mapping(t_address,t_uint256)": {
        "encoding": "mapping",
        "key": "t_address",
        "label": "mapping(address => uint256)",
        "numberOfBytes": "32",
        "value": "t_uint256"
      },
      "t_struct(FixedRate)15474_storage": {
        "encoding": "inplace",
        "label": "struct RewardsGenerator.FixedRate",
        "members": [
          {
            "astId": 15471,
            "contract": "src/conquest_token/RewardsGenerator.sol:RewardsGenerator",
            "label": "toWithdraw",
            "offset": 0,
            "slot": "0",
            "type": "t_uint112"
          },
          {
            "astId": 15473,
            "contract": "src/conquest_token/RewardsGenerator.sol:RewardsGenerator",
            "label": "lastTime",
            "offset": 14,
            "slot": "0",
            "type": "t_uint40"
          }
        ],
        "numberOfBytes": "32"
      },
      "t_struct(GlobalState)15454_storage": {
        "encoding": "inplace",
        "label": "struct RewardsGenerator.GlobalState",
        "members": [
          {
            "astId": 15449,
            "contract": "src/conquest_token/RewardsGenerator.sol:RewardsGenerator",
            "label": "lastUpdateTime",
            "offset": 0,
            "slot": "0",
            "type": "t_uint40"
          },
          {
            "astId": 15451,
            "contract": "src/conquest_token/RewardsGenerator.sol:RewardsGenerator",
            "label": "totalRewardPerPointAtLastUpdate",
            "offset": 5,
            "slot": "0",
            "type": "t_uint104"
          },
          {
            "astId": 15453,
            "contract": "src/conquest_token/RewardsGenerator.sol:RewardsGenerator",
            "label": "totalPoints",
            "offset": 18,
            "slot": "0",
            "type": "t_uint112"
          }
        ],
        "numberOfBytes": "32"
      },
      "t_struct(SharedRatePerAccount)15464_storage": {
        "encoding": "inplace",
        "label": "struct RewardsGenerator.SharedRatePerAccount",
        "members": [
          {
            "astId": 15459,
            "contract": "src/conquest_token/RewardsGenerator.sol:RewardsGenerator",
            "label": "points",
            "offset": 0,
            "slot": "0",
            "type": "t_uint112"
          },
          {
            "astId": 15461,
            "contract": "src/conquest_token/RewardsGenerator.sol:RewardsGenerator",
            "label": "totalRewardPerPointAccounted",
            "offset": 14,
            "slot": "0",
            "type": "t_uint104"
          },
          {
            "astId": 15463,
            "contract": "src/conquest_token/RewardsGenerator.sol:RewardsGenerator",
            "label": "rewardsToWithdraw",
            "offset": 0,
            "slot": "1",
            "type": "t_uint112"
          }
        ],
        "numberOfBytes": "64"
      },
      "t_uint104": {
        "encoding": "inplace",
        "label": "uint104",
        "numberOfBytes": "13"
      },
      "t_uint112": {
        "encoding": "inplace",
        "label": "uint112",
        "numberOfBytes": "14"
      },
      "t_uint256": {
        "encoding": "inplace",
        "label": "uint256",
        "numberOfBytes": "32"
      },
      "t_uint40": {
        "encoding": "inplace",
        "label": "uint40",
        "numberOfBytes": "5"
      }
    }
  }
}