{
  "address": "0x2cd976982cd64c55a04b22242efbc105df5c146e",
  "abi": [
    {
      "inputs": [
        {
          "internalType": "contract AllianceRegistry",
          "name": "allianceRegistry",
          "type": "address"
        },
        {
          "internalType": "address",
          "name": "initialAdmin",
          "type": "address"
        },
        {
          "internalType": "string",
          "name": "initialBaseURI",
          "type": "string"
        }
      ],
      "stateMutability": "nonpayable",
      "type": "constructor"
    },
    {
      "anonymous": false,
      "inputs": [
        {
          "indexed": false,
          "internalType": "address",
          "name": "newAdmin",
          "type": "address"
        }
      ],
      "name": "AdminSet",
      "type": "event"
    },
    {
      "inputs": [
        {
          "components": [
            {
              "internalType": "address",
              "name": "addr",
              "type": "address"
            },
            {
              "internalType": "uint32",
              "name": "nonce",
              "type": "uint32"
            },
            {
              "internalType": "bytes",
              "name": "signature",
              "type": "bytes"
            }
          ],
          "internalType": "struct AllianceRegistry.PlayerSubmission[]",
          "name": "playerSubmissions",
          "type": "tuple[]"
        }
      ],
      "name": "addMembers",
      "outputs": [],
      "stateMutability": "nonpayable",
      "type": "function"
    },
    {
      "inputs": [],
      "name": "admin",
      "outputs": [
        {
          "internalType": "address",
          "name": "",
          "type": "address"
        }
      ],
      "stateMutability": "view",
      "type": "function"
    },
    {
      "inputs": [],
      "name": "baseURI",
      "outputs": [
        {
          "internalType": "string",
          "name": "",
          "type": "string"
        }
      ],
      "stateMutability": "view",
      "type": "function"
    },
    {
      "inputs": [
        {
          "internalType": "address",
          "name": "player",
          "type": "address"
        },
        {
          "internalType": "uint32",
          "name": "nonce",
          "type": "uint32"
        },
        {
          "internalType": "bytes",
          "name": "signature",
          "type": "bytes"
        },
        {
          "internalType": "uint32",
          "name": "inviteNonce",
          "type": "uint32"
        },
        {
          "internalType": "bytes",
          "name": "inviteSignature",
          "type": "bytes"
        }
      ],
      "name": "claimInvite",
      "outputs": [],
      "stateMutability": "nonpayable",
      "type": "function"
    },
    {
      "inputs": [],
      "name": "frontendURI",
      "outputs": [
        {
          "internalType": "string",
          "name": "",
          "type": "string"
        }
      ],
      "stateMutability": "view",
      "type": "function"
    },
    {
      "inputs": [
        {
          "internalType": "bytes32",
          "name": "salt",
          "type": "bytes32"
        }
      ],
      "name": "getAddress",
      "outputs": [
        {
          "internalType": "address",
          "name": "",
          "type": "address"
        }
      ],
      "stateMutability": "view",
      "type": "function"
    },
    {
      "inputs": [
        {
          "internalType": "contract BasicAlliance",
          "name": "factory",
          "type": "address"
        }
      ],
      "name": "initInstance",
      "outputs": [],
      "stateMutability": "nonpayable",
      "type": "function"
    },
    {
      "inputs": [
        {
          "internalType": "address",
          "name": "initialAdmin",
          "type": "address"
        },
        {
          "components": [
            {
              "internalType": "address",
              "name": "addr",
              "type": "address"
            },
            {
              "internalType": "uint32",
              "name": "nonce",
              "type": "uint32"
            },
            {
              "internalType": "bytes",
              "name": "signature",
              "type": "bytes"
            }
          ],
          "internalType": "struct AllianceRegistry.PlayerSubmission[]",
          "name": "playerSubmissions",
          "type": "tuple[]"
        },
        {
          "internalType": "bytes32",
          "name": "salt",
          "type": "bytes32"
        }
      ],
      "name": "instantiate",
      "outputs": [],
      "stateMutability": "nonpayable",
      "type": "function"
    },
    {
      "inputs": [
        {
          "internalType": "address",
          "name": "",
          "type": "address"
        }
      ],
      "name": "memberNonces",
      "outputs": [
        {
          "internalType": "uint32",
          "name": "",
          "type": "uint32"
        }
      ],
      "stateMutability": "view",
      "type": "function"
    },
    {
      "inputs": [
        {
          "internalType": "address",
          "name": "player",
          "type": "address"
        }
      ],
      "name": "removeMember",
      "outputs": [],
      "stateMutability": "nonpayable",
      "type": "function"
    },
    {
      "inputs": [
        {
          "internalType": "address",
          "name": "newAdmin",
          "type": "address"
        }
      ],
      "name": "setAdmin",
      "outputs": [],
      "stateMutability": "nonpayable",
      "type": "function"
    },
    {
      "inputs": [
        {
          "internalType": "address",
          "name": "newAdmin",
          "type": "address"
        },
        {
          "components": [
            {
              "internalType": "address",
              "name": "addr",
              "type": "address"
            },
            {
              "internalType": "uint32",
              "name": "nonce",
              "type": "uint32"
            },
            {
              "internalType": "bytes",
              "name": "signature",
              "type": "bytes"
            }
          ],
          "internalType": "struct AllianceRegistry.PlayerSubmission[]",
          "name": "playerSubmissions",
          "type": "tuple[]"
        }
      ],
      "name": "setAdminAndAddMembers",
      "outputs": [],
      "stateMutability": "nonpayable",
      "type": "function"
    },
    {
      "inputs": [
        {
          "internalType": "string",
          "name": "newBaseURI",
          "type": "string"
        }
      ],
      "name": "setBaseURI",
      "outputs": [],
      "stateMutability": "nonpayable",
      "type": "function"
    }
  ],
  "contractName": "BasicAlliance",
  "sourceName": "src/alliances/BasicAlliance.sol",
  "bytecode": "0x60a06040523480156200001157600080fd5b5060405162002bbb38038062002bbb8339810160408190526200003491620001c6565b6001600160a01b03838116608052600080546001600160a01b03191691841691821790556040519081527f8fe72c3e0020beb3234e76ae6676fa576fbfcae600af1c4fea44784cf0db329c9060200160405180910390a16000815111620000d25760405162461bcd60e51b815260206004820152600e60248201526d4e454544535f424153455f55524960901b604482015260640160405180910390fd5b8051620000e7906001906020840190620000f1565b505050506200030d565b828054620000ff90620002d0565b90600052602060002090601f0160209004810192826200012357600085556200016e565b82601f106200013e57805160ff19168380011785556200016e565b828001600101855582156200016e579182015b828111156200016e57825182559160200191906001019062000151565b506200017c92915062000180565b5090565b5b808211156200017c576000815560010162000181565b6001600160a01b0381168114620001ad57600080fd5b50565b634e487b7160e01b600052604160045260246000fd5b600080600060608486031215620001dc57600080fd5b8351620001e98162000197565b80935050602080850151620001fe8162000197565b60408601519093506001600160401b03808211156200021c57600080fd5b818701915087601f8301126200023157600080fd5b815181811115620002465762000246620001b0565b604051601f8201601f19908116603f01168101908382118183101715620002715762000271620001b0565b816040528281528a868487010111156200028a57600080fd5b600093505b82841015620002ae57848401860151818501870152928501926200028f565b82841115620002c05760008684830101525b8096505050505050509250925092565b600181811c90821680620002e557607f821691505b602082108114156200030757634e487b7160e01b600052602260045260246000fd5b50919050565b60805161287d6200033e6000396000818161037d0152818161051901528181610cf50152611533015261287d6000f3fe608060405234801561001057600080fd5b50600436106100df5760003560e01c80634fcead571161008c5780636ca1d0ed116100665780636ca1d0ed146101da578063704b6c02146101ed578063f851a44014610200578063fc4c03b41461022057600080fd5b80634fcead57146101aa57806355f804b3146101bf5780636c0360eb146101d257600080fd5b80632d5444af116100bd5780632d5444af146101495780633bfc54461461015c57806340e2dfcf1461016f57600080fd5b80630b1ca49a146100e45780630b7465e4146100f957806321f8a7211461010c575b600080fd5b6100f76100f2366004611f91565b610233565b005b6100f7610107366004611ff3565b6103dc565b61011f61011a366004612035565b610586565b60405173ffffffffffffffffffffffffffffffffffffffff90911681526020015b60405180910390f35b6100f7610157366004611f91565b6106e1565b6100f761016a3660046120a4565b61081e565b61019561017d366004611f91565b60036020526000908152604090205463ffffffff1681565b60405163ffffffff9091168152602001610140565b6101b2610d6f565b6040516101409190612177565b6100f76101cd36600461228c565b610da9565b6101b2610f2c565b6100f76101e836600461230c565b6110a3565b6100f76101fb366004611f91565b611296565b60005461011f9073ffffffffffffffffffffffffffffffffffffffff1681565b6100f761022e366004612368565b611390565b60025473ffffffffffffffffffffffffffffffffffffffff166102b7576040517f08c379a000000000000000000000000000000000000000000000000000000000815260206004820152601360248201527f464143544f52595f4e4f545f414c4c4f5745440000000000000000000000000060448201526064015b60405180910390fd5b60005473ffffffffffffffffffffffffffffffffffffffff163314610338576040517f08c379a000000000000000000000000000000000000000000000000000000000815260206004820152600b60248201527f4e4f545f414c4c4f57454400000000000000000000000000000000000000000060448201526064016102ae565b6040517f17e796ea00000000000000000000000000000000000000000000000000000000815273ffffffffffffffffffffffffffffffffffffffff82811660048301527f000000000000000000000000000000000000000000000000000000000000000016906317e796ea90602401600060405180830381600087803b1580156103c157600080fd5b505af11580156103d5573d6000803e3d6000fd5b5050505050565b60025473ffffffffffffffffffffffffffffffffffffffff1661045b576040517f08c379a000000000000000000000000000000000000000000000000000000000815260206004820152601360248201527f464143544f52595f4e4f545f414c4c4f5745440000000000000000000000000060448201526064016102ae565b60005473ffffffffffffffffffffffffffffffffffffffff1633146104dc576040517f08c379a000000000000000000000000000000000000000000000000000000000815260206004820152600b60248201527f4e4f545f414c4c4f57454400000000000000000000000000000000000000000060448201526064016102ae565b6040517f8efb75c300000000000000000000000000000000000000000000000000000000815273ffffffffffffffffffffffffffffffffffffffff7f00000000000000000000000000000000000000000000000000000000000000001690638efb75c390610550908590859060040161252e565b600060405180830381600087803b15801561056a57600080fd5b505af115801561057e573d6000803e3d6000fd5b505050505050565b60025460009073ffffffffffffffffffffffffffffffffffffffff1615610609576040517f08c379a000000000000000000000000000000000000000000000000000000000815260206004820152601460248201527f4f4e4c595f464143544f52595f414c4c4f57454400000000000000000000000060448201526064016102ae565b6106d930833360405160200161064e92919091825260601b7fffffffffffffffffffffffffffffffffffffffff00000000000000000000000016602082015260340190565b60405160208183030381529060405280519060200120306040517f3d602d80600a3d3981f3363d3d373d3d3d363d730000000000000000000000008152606093841b60148201527f5af43d82803e903d91602b57fd5bf3ff000000000000000000000000000000006028820152921b6038830152604c8201526037808220606c830152605591012090565b90505b919050565b600180546106ee9061254a565b159050610757576040517f08c379a000000000000000000000000000000000000000000000000000000000815260206004820152601b60248201527f414c52454144595f494e495449414c495345445f464143544f5259000000000060448201526064016102ae565b60025473ffffffffffffffffffffffffffffffffffffffff16156107d7576040517f08c379a000000000000000000000000000000000000000000000000000000000815260206004820152601960248201527f414c52454144595f494e495449414c495345445f434c4f4e450000000000000060448201526064016102ae565b600280547fffffffffffffffffffffffff00000000000000000000000000000000000000001673ffffffffffffffffffffffffffffffffffffffff92909216919091179055565b60025473ffffffffffffffffffffffffffffffffffffffff1661089d576040517f08c379a000000000000000000000000000000000000000000000000000000000815260206004820152601360248201527f464143544f52595f4e4f545f414c4c4f5745440000000000000000000000000060448201526064016102ae565b73ffffffffffffffffffffffffffffffffffffffff871660009081526003602052604090205463ffffffff9081169084168114610936576040517f08c379a000000000000000000000000000000000000000000000000000000000815260206004820152600d60248201527f494e56414c49445f4e4f4e43450000000000000000000000000000000000000060448201526064016102ae565b6109418460016125cd565b73ffffffffffffffffffffffffffffffffffffffff8916600090815260036020526040902080547fffffffffffffffffffffffffffffffffffffffffffffffffffffffff000000001663ffffffff9283161790556060908516610aa6576040517f19457468657265756d205369676e6564204d6573736167653a0a31313100000060208201527f496e7669746520506c6179657220307830303030303030303030303030303030603d8201527f30303030303030303030303030303030303030303030303020546f20416c6c69605d8201527f616e636520307830303030303030303030303030303030303030303030303030607d8201527f3030303030303030303030303030300000000000000000000000000000000000609d82015260ac016040516020818303038152906040529050610a958160548b73ffffffffffffffffffffffffffffffffffffffff166115a3565b610aa181608b306115a3565b610be1565b6040517f19457468657265756d205369676e6564204d6573736167653a0a31333100000060208201527f496e7669746520506c6179657220307830303030303030303030303030303030603d8201527f30303030303030303030303030303030303030303030303020546f20416c6c69605d8201527f616e636520307830303030303030303030303030303030303030303030303030607d8201527f30303030303030303030303030303020286e6f6e63653a202020202020202020609d8201527f203029000000000000000000000000000000000000000000000000000000000060bd82015260c0016040516020818303038152906040529050610bc38160548b73ffffffffffffffffffffffffffffffffffffffff166115a3565b610bcf81608b306115a3565b610be181609e8763ffffffff16611682565b6000818051906020012090506000610c3186868080601f016020809104026020016040519081016040528093929190818152602001838380828437600092019190915250869392505061175c9050565b60005490915073ffffffffffffffffffffffffffffffffffffffff808316911614610cb8576040517f08c379a000000000000000000000000000000000000000000000000000000000815260206004820152601860248201527f494e56414c49445f494e564954455f5349474e4154555245000000000000000060448201526064016102ae565b6040517f6da0663000000000000000000000000000000000000000000000000000000000815273ffffffffffffffffffffffffffffffffffffffff7f00000000000000000000000000000000000000000000000000000000000000001690636da0663090610d30908e908e908e908e906004016125f5565b600060405180830381600087803b158015610d4a57600080fd5b505af1158015610d5e573d6000803e3d6000fd5b505050505050505050505050505050565b6060610d79610f2c565b610d84306014611782565b604051602001610d9592919061263b565b604051602081830303815290604052905090565b60025473ffffffffffffffffffffffffffffffffffffffff1615610e29576040517f08c379a000000000000000000000000000000000000000000000000000000000815260206004820152601460248201527f4f4e4c595f464143544f52595f414c4c4f57454400000000000000000000000060448201526064016102ae565b60005473ffffffffffffffffffffffffffffffffffffffff163314610eaa576040517f08c379a000000000000000000000000000000000000000000000000000000000815260206004820152600b60248201527f4e4f545f414c4c4f57454400000000000000000000000000000000000000000060448201526064016102ae565b6000815111610f15576040517f08c379a000000000000000000000000000000000000000000000000000000000815260206004820152600e60248201527f4e454544535f424153455f55524900000000000000000000000000000000000060448201526064016102ae565b8051610f28906001906020840190611ed6565b5050565b60025460609073ffffffffffffffffffffffffffffffffffffffff16610fdc5760018054610f599061254a565b80601f0160208091040260200160405190810160405280929190818152602001828054610f859061254a565b8015610fd25780601f10610fa757610100808354040283529160200191610fd2565b820191906000526020600020905b815481529060010190602001808311610fb557829003601f168201915b5050505050905090565b600260009054906101000a900473ffffffffffffffffffffffffffffffffffffffff1673ffffffffffffffffffffffffffffffffffffffff16636c0360eb6040518163ffffffff1660e01b815260040160006040518083038186803b15801561104457600080fd5b505afa158015611058573d6000803e3d6000fd5b505050506040513d6000823e601f3d9081017fffffffffffffffffffffffffffffffffffffffffffffffffffffffffffffffe016820160405261109e9190810190612661565b905090565b60025473ffffffffffffffffffffffffffffffffffffffff1615611123576040517f08c379a000000000000000000000000000000000000000000000000000000000815260206004820152601460248201527f4f4e4c595f464143544f52595f414c4c4f57454400000000000000000000000060448201526064016102ae565b600061118530833360405160200161116a92919091825260601b7fffffffffffffffffffffffffffffffffffffffff00000000000000000000000016602082015260340190565b604051602081830303815290604052805190602001206119cc565b6040517f2d5444af00000000000000000000000000000000000000000000000000000000815230600482015290915073ffffffffffffffffffffffffffffffffffffffff821690632d5444af90602401600060405180830381600087803b1580156111ef57600080fd5b505af1158015611203573d6000803e3d6000fd5b50506040517ffc4c03b400000000000000000000000000000000000000000000000000000000815273ffffffffffffffffffffffffffffffffffffffff8416925063fc4c03b4915061125d908890889088906004016126d8565b600060405180830381600087803b15801561127757600080fd5b505af115801561128b573d6000803e3d6000fd5b505050505050505050565b60005473ffffffffffffffffffffffffffffffffffffffff163314611317576040517f08c379a000000000000000000000000000000000000000000000000000000000815260206004820152600b60248201527f4e4f545f414c4c4f57454400000000000000000000000000000000000000000060448201526064016102ae565b600080547fffffffffffffffffffffffff00000000000000000000000000000000000000001673ffffffffffffffffffffffffffffffffffffffff83169081179091556040519081527f8fe72c3e0020beb3234e76ae6676fa576fbfcae600af1c4fea44784cf0db329c9060200160405180910390a150565b60025473ffffffffffffffffffffffffffffffffffffffff1661140f576040517f08c379a000000000000000000000000000000000000000000000000000000000815260206004820152601360248201527f464143544f52595f4e4f545f414c4c4f5745440000000000000000000000000060448201526064016102ae565b60005473ffffffffffffffffffffffffffffffffffffffff1680158061144a57503373ffffffffffffffffffffffffffffffffffffffff8216145b6114b0576040517f08c379a000000000000000000000000000000000000000000000000000000000815260206004820152600b60248201527f4e4f545f414c4c4f57454400000000000000000000000000000000000000000060448201526064016102ae565b600080547fffffffffffffffffffffffff00000000000000000000000000000000000000001673ffffffffffffffffffffffffffffffffffffffff8616179055811561159d576040517f8efb75c300000000000000000000000000000000000000000000000000000000815273ffffffffffffffffffffffffffffffffffffffff7f00000000000000000000000000000000000000000000000000000000000000001690638efb75c39061156a908690869060040161252e565b600060405180830381600087803b15801561158457600080fd5b505af1158015611598573d6000803e3d6000fd5b505050505b50505050565b801561167d576040805180820190915260108082527f303132333435363738396162636465660000000000000000000000000000000060208301526115e89083612737565b815181106115f8576115f861274b565b01602001517fff0000000000000000000000000000000000000000000000000000000000000016838361162a8161277a565b94508151811061163c5761163c61274b565b60200101907effffffffffffffffffffffffffffffffffffffffffffffffffffffffffffff1916908160001a9053506116766010826127af565b90506115a3565b505050565b801561167d5760408051808201909152600a8082527f303132333435363738390000000000000000000000000000000000000000000060208301526116c79083612737565b815181106116d7576116d761274b565b01602001517fff000000000000000000000000000000000000000000000000000000000000001683836117098161277a565b94508151811061171b5761171b61274b565b60200101907effffffffffffffffffffffffffffffffffffffffffffffffffffffffffffff1916908160001a905350611755600a826127af565b9050611682565b600080600061176b8585611aaa565b9150915061177881611b1a565b5090505b92915050565b606060006117918360026127c3565b61179c906002612800565b67ffffffffffffffff8111156117b4576117b46121c8565b6040519080825280601f01601f1916602001820160405280156117de576020820181803683370190505b5090507f3000000000000000000000000000000000000000000000000000000000000000816000815181106118155761181561274b565b60200101907effffffffffffffffffffffffffffffffffffffffffffffffffffffffffffff1916908160001a9053507f7800000000000000000000000000000000000000000000000000000000000000816001815181106118785761187861274b565b60200101907effffffffffffffffffffffffffffffffffffffffffffffffffffffffffffff1916908160001a90535060006118b48460026127c3565b6118bf906001612800565b90505b600181111561195c577f303132333435363738396162636465660000000000000000000000000000000085600f16601081106119005761190061274b565b1a60f81b8282815181106119165761191661274b565b60200101907effffffffffffffffffffffffffffffffffffffffffffffffffffffffffffff1916908160001a90535060049490941c936119558161277a565b90506118c2565b5083156119c5576040517f08c379a000000000000000000000000000000000000000000000000000000000815260206004820181905260248201527f537472696e67733a20686578206c656e67746820696e73756666696369656e7460448201526064016102ae565b9392505050565b60006040517f3d602d80600a3d3981f3363d3d373d3d3d363d7300000000000000000000000081528360601b60148201527f5af43d82803e903d91602b57fd5bf300000000000000000000000000000000006028820152826037826000f591505073ffffffffffffffffffffffffffffffffffffffff811661177c576040517f08c379a000000000000000000000000000000000000000000000000000000000815260206004820152601760248201527f455243313136373a2063726561746532206661696c656400000000000000000060448201526064016102ae565b600080825160411415611ae15760208301516040840151606085015160001a611ad587828585611d76565b94509450505050611b13565b825160401415611b0b5760208301516040840151611b00868383611e8e565b935093505050611b13565b506000905060025b9250929050565b6000816004811115611b2e57611b2e612818565b1415611b375750565b6001816004811115611b4b57611b4b612818565b1415611bb3576040517f08c379a000000000000000000000000000000000000000000000000000000000815260206004820152601860248201527f45434453413a20696e76616c6964207369676e6174757265000000000000000060448201526064016102ae565b6002816004811115611bc757611bc7612818565b1415611c2f576040517f08c379a000000000000000000000000000000000000000000000000000000000815260206004820152601f60248201527f45434453413a20696e76616c6964207369676e6174757265206c656e6774680060448201526064016102ae565b6003816004811115611c4357611c43612818565b1415611cd1576040517f08c379a000000000000000000000000000000000000000000000000000000000815260206004820152602260248201527f45434453413a20696e76616c6964207369676e6174757265202773272076616c60448201527f756500000000000000000000000000000000000000000000000000000000000060648201526084016102ae565b6004816004811115611ce557611ce5612818565b1415611d73576040517f08c379a000000000000000000000000000000000000000000000000000000000815260206004820152602260248201527f45434453413a20696e76616c6964207369676e6174757265202776272076616c60448201527f756500000000000000000000000000000000000000000000000000000000000060648201526084016102ae565b50565b6000807f7fffffffffffffffffffffffffffffff5d576e7357a4501ddfe92f46681b20a0831115611dad5750600090506003611e85565b8460ff16601b14158015611dc557508460ff16601c14155b15611dd65750600090506004611e85565b6040805160008082526020820180845289905260ff881692820192909252606081018690526080810185905260019060a0016020604051602081039080840390855afa158015611e2a573d6000803e3d6000fd5b50506040517fffffffffffffffffffffffffffffffffffffffffffffffffffffffffffffffe0015191505073ffffffffffffffffffffffffffffffffffffffff8116611e7e57600060019250925050611e85565b9150600090505b94509492505050565b6000807f7fffffffffffffffffffffffffffffffffffffffffffffffffffffffffffffff831660ff84901c601b01611ec887828885611d76565b935093505050935093915050565b828054611ee29061254a565b90600052602060002090601f016020900481019282611f045760008555611f4a565b82601f10611f1d57805160ff1916838001178555611f4a565b82800160010185558215611f4a579182015b82811115611f4a578251825591602001919060010190611f2f565b50611f56929150611f5a565b5090565b5b80821115611f565760008155600101611f5b565b73ffffffffffffffffffffffffffffffffffffffff81168114611d7357600080fd5b600060208284031215611fa357600080fd5b81356119c581611f6f565b60008083601f840112611fc057600080fd5b50813567ffffffffffffffff811115611fd857600080fd5b6020830191508360208260051b8501011115611b1357600080fd5b6000806020838503121561200657600080fd5b823567ffffffffffffffff81111561201d57600080fd5b61202985828601611fae565b90969095509350505050565b60006020828403121561204757600080fd5b5035919050565b803563ffffffff811681146106dc57600080fd5b60008083601f84011261207457600080fd5b50813567ffffffffffffffff81111561208c57600080fd5b602083019150836020828501011115611b1357600080fd5b600080600080600080600060a0888a0312156120bf57600080fd5b87356120ca81611f6f565b96506120d86020890161204e565b9550604088013567ffffffffffffffff808211156120f557600080fd5b6121018b838c01612062565b909750955085915061211560608b0161204e565b945060808a013591508082111561212b57600080fd5b506121388a828b01612062565b989b979a50959850939692959293505050565b60005b8381101561216657818101518382015260200161214e565b8381111561159d5750506000910152565b602081526000825180602084015261219681604085016020870161214b565b601f017fffffffffffffffffffffffffffffffffffffffffffffffffffffffffffffffe0169190910160400192915050565b7f4e487b7100000000000000000000000000000000000000000000000000000000600052604160045260246000fd5b604051601f82017fffffffffffffffffffffffffffffffffffffffffffffffffffffffffffffffe016810167ffffffffffffffff8111828210171561223e5761223e6121c8565b604052919050565b600067ffffffffffffffff821115612260576122606121c8565b50601f017fffffffffffffffffffffffffffffffffffffffffffffffffffffffffffffffe01660200190565b60006020828403121561229e57600080fd5b813567ffffffffffffffff8111156122b557600080fd5b8201601f810184136122c657600080fd5b80356122d96122d482612246565b6121f7565b8181528560208385010111156122ee57600080fd5b81602084016020830137600091810160200191909152949350505050565b6000806000806060858703121561232257600080fd5b843561232d81611f6f565b9350602085013567ffffffffffffffff81111561234957600080fd5b61235587828801611fae565b9598909750949560400135949350505050565b60008060006040848603121561237d57600080fd5b833561238881611f6f565b9250602084013567ffffffffffffffff8111156123a457600080fd5b6123b086828701611fae565b9497909650939450505050565b8183528181602085013750600060208284010152600060207fffffffffffffffffffffffffffffffffffffffffffffffffffffffffffffffe0601f840116840101905092915050565b818352600060208085019450848460051b86018460005b8781101561252157838303895281357fffffffffffffffffffffffffffffffffffffffffffffffffffffffffffffffa188360301811261245c57600080fd5b87016060813561246b81611f6f565b73ffffffffffffffffffffffffffffffffffffffff16855263ffffffff61249383890161204e565b16878601526040808301357fffffffffffffffffffffffffffffffffffffffffffffffffffffffffffffffe18436030181126124ce57600080fd5b8301803567ffffffffffffffff8111156124e757600080fd5b8036038513156124f657600080fd5b838389015261250a848901828c85016123bd565b9d8a019d975050509387019350505060010161241d565b5090979650505050505050565b602081526000612542602083018486612406565b949350505050565b600181811c9082168061255e57607f821691505b60208210811415612598577f4e487b7100000000000000000000000000000000000000000000000000000000600052602260045260246000fd5b50919050565b7f4e487b7100000000000000000000000000000000000000000000000000000000600052601160045260246000fd5b600063ffffffff8083168185168083038211156125ec576125ec61259e565b01949350505050565b73ffffffffffffffffffffffffffffffffffffffff8516815263ffffffff841660208201526060604082015260006126316060830184866123bd565b9695505050505050565b6000835161264d81846020880161214b565b8351908301906125ec81836020880161214b565b60006020828403121561267357600080fd5b815167ffffffffffffffff81111561268a57600080fd5b8201601f8101841361269b57600080fd5b80516126a96122d482612246565b8181528560208385010111156126be57600080fd5b6126cf82602083016020860161214b565b95945050505050565b73ffffffffffffffffffffffffffffffffffffffff841681526040602082015260006126cf604083018486612406565b7f4e487b7100000000000000000000000000000000000000000000000000000000600052601260045260246000fd5b60008261274657612746612708565b500690565b7f4e487b7100000000000000000000000000000000000000000000000000000000600052603260045260246000fd5b6000816127895761278961259e565b507fffffffffffffffffffffffffffffffffffffffffffffffffffffffffffffffff0190565b6000826127be576127be612708565b500490565b6000817fffffffffffffffffffffffffffffffffffffffffffffffffffffffffffffffff04831182151516156127fb576127fb61259e565b500290565b600082198211156128135761281361259e565b500190565b7f4e487b7100000000000000000000000000000000000000000000000000000000600052602160045260246000fdfea26469706673582212201ee036a8051a28e956279a83511e60ae637e45931063a1a3f0c8f307f4d6512d64736f6c63430008090033",
  "linkReferences": {},
  "deployedLinkReferences": {},
  "immutableReferences": {
    "2853": [
      {
        "length": 32,
        "start": 893
      },
      {
        "length": 32,
        "start": 1305
      },
      {
        "length": 32,
        "start": 3317
      },
      {
        "length": 32,
        "start": 5427
      }
    ]
  },
  "inputSourceName": "project/src/alliances/BasicAlliance.sol",
  "devdoc": {
    "kind": "dev",
    "methods": {},
    "version": 1
  },
  "evm": {
    "gasEstimates": {
      "creation": {
        "codeDepositCost": "2073000",
        "executionCost": "infinite",
        "totalCost": "infinite"
      },
      "external": {
        "addMembers((address,uint32,bytes)[])": "infinite",
        "admin()": "2368",
        "baseURI()": "infinite",
        "claimInvite(address,uint32,bytes,uint32,bytes)": "infinite",
        "frontendURI()": "infinite",
        "getAddress(bytes32)": "2904",
        "initInstance(address)": "28924",
        "instantiate(address,(address,uint32,bytes)[],bytes32)": "infinite",
        "memberNonces(address)": "2583",
        "removeMember(address)": "infinite",
        "setAdmin(address)": "27751",
        "setAdminAndAddMembers(address,(address,uint32,bytes)[])": "infinite",
        "setBaseURI(string)": "infinite"
      },
      "internal": {
        "_writeUintAsDecimal(bytes memory,uint256,uint256)": "infinite",
        "_writeUintAsHex(bytes memory,uint256,uint256)": "infinite"
      }
    }
  },
  "storageLayout": {
    "storage": [
      {
        "astId": 2855,
        "contract": "project/src/alliances/BasicAlliance.sol:BasicAlliance",
        "label": "admin",
        "offset": 0,
        "slot": "0",
        "type": "t_address"
      },
      {
        "astId": 2857,
        "contract": "project/src/alliances/BasicAlliance.sol:BasicAlliance",
        "label": "_baseURI",
        "offset": 0,
        "slot": "1",
        "type": "t_string_storage"
      },
      {
        "astId": 2860,
        "contract": "project/src/alliances/BasicAlliance.sol:BasicAlliance",
        "label": "_factory",
        "offset": 0,
        "slot": "2",
        "type": "t_contract(BasicAlliance)3475"
      },
      {
        "astId": 2864,
        "contract": "project/src/alliances/BasicAlliance.sol:BasicAlliance",
        "label": "memberNonces",
        "offset": 0,
        "slot": "3",
        "type": "t_mapping(t_address,t_uint32)"
      }
    ],
    "types": {
      "t_address": {
        "encoding": "inplace",
        "label": "address",
        "numberOfBytes": "20"
      },
      "t_contract(BasicAlliance)3475": {
        "encoding": "inplace",
        "label": "contract BasicAlliance",
        "numberOfBytes": "20"
      },
      "t_mapping(t_address,t_uint32)": {
        "encoding": "mapping",
        "key": "t_address",
        "label": "mapping(address => uint32)",
        "numberOfBytes": "32",
        "value": "t_uint32"
      },
      "t_string_storage": {
        "encoding": "bytes",
        "label": "string",
        "numberOfBytes": "32"
      },
      "t_uint32": {
        "encoding": "inplace",
        "label": "uint32",
        "numberOfBytes": "4"
      }
    }
  },
  "userdoc": {
    "kind": "user",
    "methods": {},
    "version": 1
  },
  "argsData": "0x000000000000000000000000201f2100b30d4129fda590ad664fc6800a05c140000000000000000000000000be19b59e8c588d68f475a407c7ba5fe813aeb7920000000000000000000000000000000000000000000000000000000000000060000000000000000000000000000000000000000000000000000000000000003768747470733a2f2f6d6f6e61642e636f6e71756573742e67616d652f62617369632d616c6c69616e6365732f616c6c69616e6365732f23000000000000000000",
  "transaction": {
    "nonce": "0x22",
    "hash": "0x1ff7d6ec789bfeda298cc11f9c30d6d1480cc31d6243321a1c49ac6955df0567",
    "origin": "0xbe19b59e8c588d68f475a407c7ba5fe813aeb792"
  }
}