{
  "address": "0x785a72db340efB3B954881C28054559F2f1Bd3C7",
  "abi": [
    {
      "inputs": [
        {
          "components": [
            {
              "internalType": "contract StakingToken",
              "name": "stakingToken",
              "type": "address"
            },
            {
              "internalType": "contract IFreePlayToken",
              "name": "freeStakingToken",
              "type": "address"
            },
            {
              "internalType": "contract AllianceRegistry",
              "name": "allianceRegistry",
              "type": "address"
            },
            {
              "internalType": "bytes32",
              "name": "genesis",
              "type": "bytes32"
            },
            {
              "internalType": "uint256",
              "name": "resolveWindow",
              "type": "uint256"
            },
            {
              "internalType": "uint256",
              "name": "timePerDistance",
              "type": "uint256"
            },
            {
              "internalType": "uint256",
              "name": "exitDuration",
              "type": "uint256"
            },
            {
              "internalType": "uint32",
              "name": "acquireNumSpaceships",
              "type": "uint32"
            },
            {
              "internalType": "uint32",
              "name": "productionSpeedUp",
              "type": "uint32"
            },
            {
              "internalType": "uint256",
              "name": "frontrunningDelay",
              "type": "uint256"
            },
            {
              "internalType": "uint256",
              "name": "productionCapAsDuration",
              "type": "uint256"
            },
            {
              "internalType": "uint256",
              "name": "upkeepProductionDecreaseRatePer10000th",
              "type": "uint256"
            },
            {
              "internalType": "uint256",
              "name": "fleetSizeFactor6",
              "type": "uint256"
            },
            {
              "internalType": "uint32",
              "name": "initialSpaceExpansion",
              "type": "uint32"
            },
            {
              "internalType": "uint32",
              "name": "expansionDelta",
              "type": "uint32"
            },
            {
              "internalType": "uint256",
              "name": "giftTaxPer10000",
              "type": "uint256"
            },
            {
              "internalType": "bytes32",
              "name": "stakeRange",
              "type": "bytes32"
            },
            {
              "internalType": "uint256",
              "name": "stakeMultiplier10000th",
              "type": "uint256"
            },
            {
              "internalType": "uint256",
              "name": "bootstrapSessionEndTime",
              "type": "uint256"
            },
            {
              "internalType": "uint256",
              "name": "infinityStartTime",
              "type": "uint256"
            }
          ],
          "internalType": "struct OuterSpaceFacetBase.Config",
          "name": "config",
          "type": "tuple"
        }
      ],
      "stateMutability": "nonpayable",
      "type": "constructor"
    },
    {
      "anonymous": false,
      "inputs": [
        {
          "indexed": true,
          "internalType": "address",
          "name": "owner",
          "type": "address"
        },
        {
          "indexed": true,
          "internalType": "address",
          "name": "operator",
          "type": "address"
        },
        {
          "indexed": false,
          "internalType": "bool",
          "name": "approved",
          "type": "bool"
        }
      ],
      "name": "ApprovalForAll",
      "type": "event"
    },
    {
      "anonymous": false,
      "inputs": [
        {
          "indexed": false,
          "internalType": "uint256",
          "name": "block",
          "type": "uint256"
        },
        {
          "indexed": false,
          "internalType": "uint256",
          "name": "timestamp",
          "type": "uint256"
        }
      ],
      "name": "BlockTime",
      "type": "event"
    },
    {
      "anonymous": false,
      "inputs": [
        {
          "indexed": true,
          "internalType": "address",
          "name": "owner",
          "type": "address"
        },
        {
          "indexed": true,
          "internalType": "uint256",
          "name": "location",
          "type": "uint256"
        },
        {
          "indexed": false,
          "internalType": "uint256",
          "name": "stake",
          "type": "uint256"
        }
      ],
      "name": "ExitComplete",
      "type": "event"
    },
    {
      "anonymous": false,
      "inputs": [
        {
          "indexed": true,
          "internalType": "uint256",
          "name": "fleet",
          "type": "uint256"
        },
        {
          "indexed": true,
          "internalType": "address",
          "name": "fleetOwner",
          "type": "address"
        },
        {
          "indexed": true,
          "internalType": "address",
          "name": "destinationOwner",
          "type": "address"
        },
        {
          "indexed": false,
          "internalType": "uint256",
          "name": "destination",
          "type": "uint256"
        },
        {
          "indexed": false,
          "internalType": "bool",
          "name": "gift",
          "type": "bool"
        },
        {
          "indexed": false,
          "internalType": "bool",
          "name": "won",
          "type": "bool"
        },
        {
          "components": [
            {
              "internalType": "uint32",
              "name": "newNumspaceships",
              "type": "uint32"
            },
            {
              "internalType": "int40",
              "name": "newTravelingUpkeep",
              "type": "int40"
            },
            {
              "internalType": "uint32",
              "name": "newOverflow",
              "type": "uint32"
            },
            {
              "internalType": "uint32",
              "name": "numSpaceshipsAtArrival",
              "type": "uint32"
            },
            {
              "internalType": "uint32",
              "name": "taxLoss",
              "type": "uint32"
            },
            {
              "internalType": "uint32",
              "name": "fleetLoss",
              "type": "uint32"
            },
            {
              "internalType": "uint32",
              "name": "planetLoss",
              "type": "uint32"
            },
            {
              "internalType": "uint32",
              "name": "inFlightFleetLoss",
              "type": "uint32"
            },
            {
              "internalType": "uint32",
              "name": "inFlightPlanetLoss",
              "type": "uint32"
            },
            {
              "internalType": "uint32",
              "name": "accumulatedDefenseAdded",
              "type": "uint32"
            },
            {
              "internalType": "uint32",
              "name": "accumulatedAttackAdded",
              "type": "uint32"
            }
          ],
          "indexed": false,
          "internalType": "struct ImportingOuterSpaceEvents.ArrivalData",
          "name": "data",
          "type": "tuple"
        }
      ],
      "name": "FleetArrived",
      "type": "event"
    },
    {
      "anonymous": false,
      "inputs": [
        {
          "indexed": true,
          "internalType": "uint256",
          "name": "fleetId",
          "type": "uint256"
        },
        {
          "indexed": true,
          "internalType": "uint256",
          "name": "from",
          "type": "uint256"
        },
        {
          "indexed": true,
          "internalType": "uint256",
          "name": "to",
          "type": "uint256"
        },
        {
          "indexed": false,
          "internalType": "uint256",
          "name": "arrivalTimeWanted",
          "type": "uint256"
        },
        {
          "indexed": false,
          "internalType": "bool",
          "name": "gift",
          "type": "bool"
        },
        {
          "indexed": false,
          "internalType": "address",
          "name": "specific",
          "type": "address"
        },
        {
          "indexed": false,
          "internalType": "bytes32",
          "name": "secret",
          "type": "bytes32"
        },
        {
          "indexed": false,
          "internalType": "address",
          "name": "fleetSender",
          "type": "address"
        },
        {
          "indexed": false,
          "internalType": "address",
          "name": "operator",
          "type": "address"
        }
      ],
      "name": "FleetRevealed",
      "type": "event"
    },
    {
      "anonymous": false,
      "inputs": [
        {
          "indexed": true,
          "internalType": "address",
          "name": "fleetSender",
          "type": "address"
        },
        {
          "indexed": true,
          "internalType": "address",
          "name": "fleetOwner",
          "type": "address"
        },
        {
          "indexed": true,
          "internalType": "uint256",
          "name": "from",
          "type": "uint256"
        },
        {
          "indexed": false,
          "internalType": "address",
          "name": "operator",
          "type": "address"
        },
        {
          "indexed": false,
          "internalType": "uint256",
          "name": "fleet",
          "type": "uint256"
        },
        {
          "indexed": false,
          "internalType": "uint32",
          "name": "quantity",
          "type": "uint32"
        },
        {
          "indexed": false,
          "internalType": "uint32",
          "name": "newNumSpaceships",
          "type": "uint32"
        },
        {
          "indexed": false,
          "internalType": "int40",
          "name": "newTravelingUpkeep",
          "type": "int40"
        },
        {
          "indexed": false,
          "internalType": "uint32",
          "name": "newOverflow",
          "type": "uint32"
        }
      ],
      "name": "FleetSent",
      "type": "event"
    },
    {
      "anonymous": false,
      "inputs": [
        {
          "indexed": false,
          "internalType": "address",
          "name": "newGeneratorAdmin",
          "type": "address"
        }
      ],
      "name": "GeneratorAdminChanged",
      "type": "event"
    },
    {
      "anonymous": false,
      "inputs": [
        {
          "indexed": false,
          "internalType": "address",
          "name": "newGenerator",
          "type": "address"
        }
      ],
      "name": "GeneratorChanged",
      "type": "event"
    },
    {
      "anonymous": false,
      "inputs": [
        {
          "indexed": false,
          "internalType": "bytes32",
          "name": "genesis",
          "type": "bytes32"
        },
        {
          "indexed": false,
          "internalType": "uint256",
          "name": "resolveWindow",
          "type": "uint256"
        },
        {
          "indexed": false,
          "internalType": "uint256",
          "name": "timePerDistance",
          "type": "uint256"
        },
        {
          "indexed": false,
          "internalType": "uint256",
          "name": "exitDuration",
          "type": "uint256"
        },
        {
          "indexed": false,
          "internalType": "uint32",
          "name": "acquireNumSpaceships",
          "type": "uint32"
        },
        {
          "indexed": false,
          "internalType": "uint32",
          "name": "productionSpeedUp",
          "type": "uint32"
        },
        {
          "indexed": false,
          "internalType": "uint256",
          "name": "frontrunningDelay",
          "type": "uint256"
        },
        {
          "indexed": false,
          "internalType": "uint256",
          "name": "productionCapAsDuration",
          "type": "uint256"
        },
        {
          "indexed": false,
          "internalType": "uint256",
          "name": "upkeepProductionDecreaseRatePer10000th",
          "type": "uint256"
        },
        {
          "indexed": false,
          "internalType": "uint256",
          "name": "fleetSizeFactor6",
          "type": "uint256"
        },
        {
          "indexed": false,
          "internalType": "uint32",
          "name": "initialSpaceExpansion",
          "type": "uint32"
        },
        {
          "indexed": false,
          "internalType": "uint32",
          "name": "expansionDelta",
          "type": "uint32"
        },
        {
          "indexed": false,
          "internalType": "uint256",
          "name": "giftTaxPer10000",
          "type": "uint256"
        }
      ],
      "name": "Initialized",
      "type": "event"
    },
    {
      "anonymous": false,
      "inputs": [
        {
          "indexed": true,
          "internalType": "address",
          "name": "owner",
          "type": "address"
        },
        {
          "indexed": true,
          "internalType": "uint256",
          "name": "location",
          "type": "uint256"
        }
      ],
      "name": "PlanetExit",
      "type": "event"
    },
    {
      "anonymous": false,
      "inputs": [
        {
          "indexed": true,
          "internalType": "uint256",
          "name": "location",
          "type": "uint256"
        }
      ],
      "name": "PlanetReset",
      "type": "event"
    },
    {
      "anonymous": false,
      "inputs": [
        {
          "indexed": true,
          "internalType": "address",
          "name": "acquirer",
          "type": "address"
        },
        {
          "indexed": true,
          "internalType": "uint256",
          "name": "location",
          "type": "uint256"
        },
        {
          "indexed": false,
          "internalType": "uint32",
          "name": "numSpaceships",
          "type": "uint32"
        },
        {
          "indexed": false,
          "internalType": "int40",
          "name": "travelingUpkeep",
          "type": "int40"
        },
        {
          "indexed": false,
          "internalType": "uint32",
          "name": "overflow",
          "type": "uint32"
        },
        {
          "indexed": false,
          "internalType": "uint256",
          "name": "stake",
          "type": "uint256"
        },
        {
          "indexed": false,
          "internalType": "bool",
          "name": "freegift",
          "type": "bool"
        }
      ],
      "name": "PlanetStake",
      "type": "event"
    },
    {
      "anonymous": false,
      "inputs": [
        {
          "indexed": true,
          "internalType": "address",
          "name": "previousOwner",
          "type": "address"
        },
        {
          "indexed": true,
          "internalType": "address",
          "name": "newOwner",
          "type": "address"
        },
        {
          "indexed": true,
          "internalType": "uint256",
          "name": "location",
          "type": "uint256"
        },
        {
          "indexed": false,
          "internalType": "uint32",
          "name": "newNumspaceships",
          "type": "uint32"
        },
        {
          "indexed": false,
          "internalType": "int40",
          "name": "newTravelingUpkeep",
          "type": "int40"
        },
        {
          "indexed": false,
          "internalType": "uint32",
          "name": "newOverflow",
          "type": "uint32"
        }
      ],
      "name": "PlanetTransfer",
      "type": "event"
    },
    {
      "anonymous": false,
      "inputs": [
        {
          "indexed": true,
          "internalType": "uint256",
          "name": "location",
          "type": "uint256"
        },
        {
          "indexed": true,
          "internalType": "address",
          "name": "giver",
          "type": "address"
        },
        {
          "indexed": false,
          "internalType": "uint256",
          "name": "rewardId",
          "type": "uint256"
        }
      ],
      "name": "RewardSetup",
      "type": "event"
    },
    {
      "anonymous": false,
      "inputs": [
        {
          "indexed": true,
          "internalType": "address",
          "name": "owner",
          "type": "address"
        },
        {
          "indexed": true,
          "internalType": "uint256",
          "name": "location",
          "type": "uint256"
        },
        {
          "indexed": true,
          "internalType": "uint256",
          "name": "rewardId",
          "type": "uint256"
        }
      ],
      "name": "RewardToWithdraw",
      "type": "event"
    },
    {
      "anonymous": false,
      "inputs": [
        {
          "indexed": true,
          "internalType": "address",
          "name": "owner",
          "type": "address"
        },
        {
          "indexed": false,
          "internalType": "uint256",
          "name": "newStake",
          "type": "uint256"
        },
        {
          "indexed": false,
          "internalType": "bool",
          "name": "freegift",
          "type": "bool"
        }
      ],
      "name": "StakeToWithdraw",
      "type": "event"
    },
    {
      "anonymous": false,
      "inputs": [
        {
          "indexed": true,
          "internalType": "address",
          "name": "from",
          "type": "address"
        },
        {
          "indexed": true,
          "internalType": "address",
          "name": "to",
          "type": "address"
        },
        {
          "indexed": true,
          "internalType": "uint256",
          "name": "location",
          "type": "uint256"
        }
      ],
      "name": "Transfer",
      "type": "event"
    },
    {
      "anonymous": false,
      "inputs": [
        {
          "indexed": true,
          "internalType": "uint256",
          "name": "origin",
          "type": "uint256"
        },
        {
          "indexed": true,
          "internalType": "uint256",
          "name": "fleet",
          "type": "uint256"
        },
        {
          "indexed": false,
          "internalType": "uint32",
          "name": "newNumspaceships",
          "type": "uint32"
        },
        {
          "indexed": false,
          "internalType": "int40",
          "name": "newTravelingUpkeep",
          "type": "int40"
        },
        {
          "indexed": false,
          "internalType": "uint32",
          "name": "newOverflow",
          "type": "uint32"
        }
      ],
      "name": "TravelingUpkeepRefund",
      "type": "event"
    },
    {
      "inputs": [
        {
          "internalType": "uint256",
          "name": "fleetId",
          "type": "uint256"
        },
        {
          "components": [
            {
              "internalType": "uint256",
              "name": "from",
              "type": "uint256"
            },
            {
              "internalType": "uint256",
              "name": "to",
              "type": "uint256"
            },
            {
              "internalType": "uint256",
              "name": "distance",
              "type": "uint256"
            },
            {
              "internalType": "uint256",
              "name": "arrivalTimeWanted",
              "type": "uint256"
            },
            {
              "internalType": "bool",
              "name": "gift",
              "type": "bool"
            },
            {
              "internalType": "address",
              "name": "specific",
              "type": "address"
            },
            {
              "internalType": "bytes32",
              "name": "secret",
              "type": "bytes32"
            },
            {
              "internalType": "address",
              "name": "fleetSender",
              "type": "address"
            },
            {
              "internalType": "address",
              "name": "operator",
              "type": "address"
            }
          ],
          "internalType": "struct ImportingOuterSpaceTypes.FleetResolution",
          "name": "resolution",
          "type": "tuple"
        }
      ],
      "name": "resolveFleet",
      "outputs": [],
      "stateMutability": "nonpayable",
      "type": "function"
    }
  ],
  "contractName": "OuterSpaceFleetsRevealFacet",
  "sourceName": "src/outerspace/facets/OuterSpaceFleetsRevealFacet.sol",
  "bytecode": "0x6103006040523480156200001257600080fd5b5060405162005aeb38038062005aeb8339810160408190526200003591620001ff565b80600060048260a001516200004b919062000333565b60a08301519091506200006082600462000365565b63ffffffff1614620000b85760405162461bcd60e51b815260206004820152601d60248201527f54494d455f5045525f444953545f4e4f545f444956495349424c455f34000000604482015260640160405180910390fd5b81516001600160a01b0390811660809081526020840151821660a052604084015190911660c0908152606084015160e09081529184015161010090815263ffffffff93841661012090815291850151610140908152928501518416610160908152908501518416610180908152918501516101a0908152928501516101c0908152908501516101e09081529185015161020090815292850151841661022090815290850151909316610240908152908401516102609081529184015161028052918301516102a052908201516102c05201516102e05250620003a0565b60405161028081016001600160401b0381118282101715620001c757634e487b7160e01b600052604160045260246000fd5b60405290565b80516001600160a01b0381168114620001e557600080fd5b919050565b805163ffffffff81168114620001e557600080fd5b600061028082840312156200021357600080fd5b6200021d62000195565b6200022883620001cd565b81526200023860208401620001cd565b60208201526200024b60408401620001cd565b6040820152606083015160608201526080830151608082015260a083015160a082015260c083015160c08201526200028660e08401620001ea565b60e08201526101006200029b818501620001ea565b9082015261012083810151908201526101408084015190820152610160808401519082015261018080840151908201526101a0620002db818501620001ea565b908201526101c0620002ef848201620001ea565b908201526101e08381015190820152610200808401519082015261022080840151908201526102408084015190820152610260928301519281019290925250919050565b600063ffffffff808416806200035957634e487b7160e01b600052601260045260246000fd5b92169190910492915050565b600063ffffffff808316818516818304811182151516156200039757634e487b7160e01b600052601160045260246000fd5b02949350505050565b60805160a05160c05160e05161010051610120516101405161016051610180516101a0516101c0516101e05161020051610220516102405161026051610280516102a0516102c0516102e05161557f6200056c6000396000818161046b015261261f01526000818161041d01528181610444015281816125c901526125f3015260006121be0152600081816121df015261222b015260006114a601526000505060005050600081816140b4015281816140e701528181614168015261419b0152600081816110e60152818161123701526118ca015260008181610f95015281816127350152818161331a01528181613e1d01528181614546015261483f0152600081816113a90152818161154d015281816115fc015281816116a30152614237015260008181610f490152818161103c0152818161111401528181611192015281816112e30152611884015260006127730152600061265b01526000610d1101526000610e040152600081816109130152610afe01526000818161295601528181612ada01528181612bf401528181612d0401528181612e3b01528181612f3301528181613030015281816131130152818161320a01526138860152600050506000505061557f6000f3fe608060405234801561001057600080fd5b506004361061002b5760003560e01c8063f69438c314610030575b600080fd5b61004361003e3660046149d0565b610045565b005b8160c0820135602083013561006060a0850160808601614a3d565b61007060c0860160a08701614a88565b85606001356040516020016100cf959493929190948552602085019390935290151560f81b604084015260601b7fffffffffffffffffffffffffffffffffffffffff000000000000000000000000166041830152605582015260750190565b604080517fffffffffffffffffffffffffffffffffffffffffffffffffffffffffffffffe081840301815291905280516020909101208235610118610100850160e08601614a88565b61012a61012086016101008701614a88565b6040805160208101959095528401929092527fffffffffffffffffffffffffffffffffffffffff000000000000000000000000606091821b81168285015291901b1660748201526088016040516020818303038152906040528051906020012060001c146101f9576040517f08c379a000000000000000000000000000000000000000000000000000000000815260206004820152601c60248201527f494e56414c49445f464c4545545f444154415f4f525f5345435245540000000060448201526064015b60405180910390fd5b6102038282610207565b5050565b60208181013560008181528083526040808220815160e081018352815473ffffffffffffffffffffffffffffffffffffffff8116825264ffffffffff7401000000000000000000000000000000000000000082048116978301979097527901000000000000000000000000000000000000000000000000009004861692810192909252600181015463ffffffff8082166060850152640100000000820490961660808401526901000000000000000000810460040b60a08401526e010000000000000000000000000000900490941660c082015290916102e79190610807565b60008581526001602052604081209192509061030490853561096f565b6060810151815191925063ffffffff1615159073ffffffffffffffffffffffffffffffffffffffff1661036c576040518060400160405280601281526020017f464c4545545f444f5f4e4f545f455849535400000000000000000000000000008152506103a3565b6040518060400160405280601681526020017f464c4545545f5245534f4c5645445f414c5245414459000000000000000000008152505b906103db576040517f08c379a00000000000000000000000000000000000000000000000000000000081526004016101f09190614ad1565b506103fe8460400135856000013586602001358460800151866101400151610b6c565b61041b846040013585606001358360200151846080015185610cfd565b7f00000000000000000000000000000000000000000000000000000000000000001561050057427f000000000000000000000000000000000000000000000000000000000000000081106104fe577f0000000000000000000000000000000000000000000000000000000000000000826020015164ffffffffff1610156104fe576040517f08c379a000000000000000000000000000000000000000000000000000000000815260206004820152601b60248201527f464c4545545f4c41554e434845445f494e5f424f4f545354524150000000000060448201526064016101f0565b505b61050982610eb7565b610120820151606083015161052c8361052736899003890189614b73565b6113a0565b61054a8361053f36899003890189614b73565b86610120015161146e565b6105548385611496565b61055e8385611523565b6105768361057136899003890189614b73565b61168a565b61058287848835611741565b6105928585856101200151611a19565b61059c8385611d34565b60008781526001602081905260409182902080547fffffff00000000ffffffffffffffffffffffffffffffffffffffffffffffffff81167901000000000000000000000000000000000000000000000000009182900463ffffffff90811663800000001783029190911783559190920180546101608801519489015161012089015173ffffffffffffffffffffffffffffffffffffffff89167fffffff00000000ffffffffff00000000000000000000000000000000000000009093169290921795909316909302939093177fffff00ffffffff0000000000ffffffffffffffffffffffffffffffffffffffff16740100000000000000000000000000000000000000004264ffffffffff16027fffff00ffffffffffffffffffffffffffffffffffffffffffffffffffffffffff16177d01000000000000000000000000000000000000000000000000000000000091151591909102177fff00ffffffffffffffffffffffffffffffffffffffffffffffffffffffffffff167e0100000000000000000000000000000000000000000000000000000000000091151591909102179055610764878484610754368b90038b018b614b73565b61075f888a88611ec9565b611fef565b8360400151801561077757508261012001515b156107fe5760a084015164ffffffffff16156107c5576107c0846101200151655af3107a40006107ab876101400151612138565b63ffffffff166107bb9190614c35565b612297565b6107fe565b6107fe846101000151856101200151655af3107a40006107e9886101400151612138565b63ffffffff166107f99190614c35565b61234d565b50505050505050565b6040805161018081018252600080825260208201819052918101829052606081018290526080810182905260a0810182905260c0810182905260e081018290526101008101829052610120810182905261014081018290526101608101919091526000806108788560600151612410565b85855260808088015164ffffffffff908116602088015283151560408089019190915263ffffffff80851660608a015260a0808c015160040b948a0194909452908a01805183169389019390935291511660c0808801919091528801511660e0860152865173ffffffffffffffffffffffffffffffffffffffff908116610100870152875116610120860152909250905061096084604080517f00000000000000000000000000000000000000000000000000000000000000006020820152908101829052600090606001604051602081830303815290604052805190602001209050919050565b61014084015250909392505050565b604080516102a081018252600080825260208201819052918101829052606081018290526080810182905260a0810182905260c0810182905260e08101829052610100810182905261012081018290526101408101829052610160810182905261018081018290526101a081018290526101c081018290526101e08101829052610200810182905261022081018290526102408101829052610260810182905261028081019190915282546000906001790100000000000000000000000000000000000000000000000000909104601f1c811614610a71578354790100000000000000000000000000000000000000000000000000900463ffffffff16610a74565b60005b845473ffffffffffffffffffffffffffffffffffffffff8116845274010000000000000000000000000000000000000000810464ffffffffff16602085015263ffffffff82166040850181905260608501527d010000000000000000000000000000000000000000000000000000000000900462ffffff166102808401529050610b4b83604080517f00000000000000000000000000000000000000000000000000000000000000006020820152908101829052600090606001604051602081830303815290604052805190602001209050919050565b60808301819052610b5b9061242f565b61ffff166102608301525092915050565b600080610b78846124cc565b91509150600080610b88856124cc565b90925090506000600284820b610ba360808c901c6004614c72565b610bad9190614d28565b600084900b610bc160808c901c6004614c72565b610bcb9190614d28565b610bd59190614d98565b610bdf9190614fd2565b6002600087900b610c036fffffffffffffffffffffffffffffffff8d166004614c72565b610c0d9190614d28565b600086900b610c2f6fffffffffffffffffffffffffffffffff8d166004614c72565b610c399190614d28565b610c439190614d98565b610c4d9190614fd2565b610c579190614d28565b600f0b905080610c6860028c615091565b11158015610c8b57506002610c7e8b60016150a0565b610c889190615091565b81105b610cf1576040517f08c379a000000000000000000000000000000000000000000000000000000000815260206004820152600e60248201527f77726f6e672064697374616e636500000000000000000000000000000000000060448201526064016101f0565b50505050505050505050565b6000610d0883612500565b61ffff16610d387f0000000000000000000000000000000000000000000000000000000000000000612710614c35565b610d429088614c35565b610d4c91906150e7565b610d5d9064ffffffffff86166150a0565b90506000610d6b8683612597565b90508515610d865764ffffffffff8616610200840152610d95565b64ffffffffff82166102008401525b80421015610dff576040517f08c379a000000000000000000000000000000000000000000000000000000000815260206004820152600960248201527f746f6f206561726c79000000000000000000000000000000000000000000000060448201526064016101f0565b610e297f0000000000000000000000000000000000000000000000000000000000000000826150a0565b42106107fe576040517f08c379a000000000000000000000000000000000000000000000000000000000815260206004820152602b60248201527f746f6f206c6174652c20796f7572207370616365736869707320617265206c6f60448201527f737420696e20737061636500000000000000000000000000000000000000000060648201526084016101f0565b60a081015164ffffffffff1615610f0857610ed58160a001516125b0565b15610f0857600060c082018190526060820181905260808201819052610120820181905260e08201819052604090910152565b6000816020015164ffffffffff1642610f2191906150fb565b90506000610f3383610140015161268e565b90506000610e1061ffff8316610f6f63ffffffff7f00000000000000000000000000000000000000000000000000000000000000001686614c35565b610f799190614c35565b610f8391906150e7565b606085015190915063ffffffff1660007f0000000000000000000000000000000000000000000000000000000000000000156112b9576000610fc48561272b565b905060008760400151610fd8576000610fda565b815b9050808411156110c05760e08801516107089063ffffffff161561102c57828960e0015163ffffffff166107086110119190614c35565b61101b91906150e7565b905061070881101561102c57506107085b6000610e108261106263ffffffff7f0000000000000000000000000000000000000000000000000000000000000000168c614c35565b61106c9190614c35565b61107691906150e7565b905080611081575060015b61108b83876150fb565b81111561109f5761109c83876150fb565b90505b8960400151156110ad578094505b6110b781876150fb565b95505050611222565b8760400151156112225760008590506000896080015160040b13156111e85760006127107f000000000000000000000000000000000000000000000000000000000000000061113961ffff8b1663ffffffff7f000000000000000000000000000000000000000000000000000000000000000016614c35565b6111439190614c35565b61114d91906150e7565b60808b01516111659064ffffffffff16610e10614c35565b61116f91906150e7565b9050888110611180578194506111da565b610e1061ffff89166111b863ffffffff7f00000000000000000000000000000000000000000000000000000000000000001684614c35565b6111c29190614c35565b6111cc91906150e7565b9450818511156111da578194505b6111e485836150fb565b9150505b60006111f486846150fb565b9050808211156112185761120881836150fb565b61121290866150a0565b94508091505b6110b782876150a0565b8760400151156112b25760008361271061125c7f000000000000000000000000000000000000000000000000000000000000000089614c35565b61126691906150e7565b61127091906150a0565b905060008160040b8a6080015160040b61128a9190615112565b905061129583615186565b8112156112a8576112a583615186565b90505b60040b60808a0152505b5050611341565b8560400151156112d4576112cd83836150a0565b9150611341565b6000610e1061130963ffffffff7f00000000000000000000000000000000000000000000000000000000000000001688614c35565b61131590610708614c35565b61131f91906150e7565b905082811115611332575060009161133f565b61133c81846150fb565b92505b505b638000000082106113645761135b600163800000006151bf565b63ffffffff1691505b63ffffffff82166060870152604086015115801561138a5750606086015163ffffffff16155b156113985760006101208701525b505050505050565b60006113cd60027f00000000000000000000000000000000000000000000000000000000000000006150e7565b836020015164ffffffffff166113e391906150e7565b82516000908152600460209081526040808320848452909152902054606085015191925063ffffffff64010000000090910481169190811682101561144257818560600181815161143491906151bf565b63ffffffff1690525061144a565b600060608601525b606085015161145990826151bf565b63ffffffff1660a09095019490945250505050565b60008061147c838587612798565b90151560e087015215156101009095019490945250505050565b81610100015115611505576127107f0000000000000000000000000000000000000000000000000000000000000000836060015163ffffffff166114da9190614c35565b6114e491906150e7565b826060015163ffffffff166114f991906150fb565b63ffffffff1660608301525b8160e0015115611519576102038282613261565b61020382826133a6565b60c082015163ffffffff1615610203578051600090815260046020526040812081600161157160027f00000000000000000000000000000000000000000000000000000000000000006150e7565b61157b90426150e7565b61158591906150fb565b81526020808201929092526040908101600090812061018087015181546101a089015163ffffffff908116640100000000027fffffffffffffffffffffffffffffffffffffffffffffffff0000000000000000909216921691909117178155855182526004909352908120919250908161162060027f00000000000000000000000000000000000000000000000000000000000000006150e7565b61162a90426150e7565b815260208101919091526040016000206101c085015181546101e087015163ffffffff908116640100000000027fffffffffffffffffffffffffffffffffffffffffffffffff000000000000000090921692169190911717905550505050565b60a082015163ffffffff16156102035760006116c760027f00000000000000000000000000000000000000000000000000000000000000006150e7565b836020015164ffffffffff166116dd91906150e7565b60a0840151835160009081526004602081815260408084208685529091529091208054939450919261171e908490640100000000900463ffffffff166151bf565b92506101000a81548163ffffffff021916908363ffffffff160217905550505050565b600081815260208181526040808320815160e081018352815473ffffffffffffffffffffffffffffffffffffffff8116825264ffffffffff7401000000000000000000000000000000000000000082048116958301959095527901000000000000000000000000000000000000000000000000009004841692810192909252600181015463ffffffff8082166060850152640100000000820490941660808401526901000000000000000000810460040b60a08401526e010000000000000000000000000000900490921660c082015290919061181e9084610807565b905061182981610eb7565b600061183982610140015161268e565b905060006118468261272b565b610280870151602088015191925062ffffff169060009061186e9064ffffffffff16426150fb565b90506000610e1061ffff86166118aa63ffffffff7f00000000000000000000000000000000000000000000000000000000000000001685614c35565b6118b49190614c35565b6118be91906150e7565b905060006127106118ef7f000000000000000000000000000000000000000000000000000000000000000084614c35565b6118f991906150e7565b61190390836150a0565b9050838111156119165760009350611923565b61192081856150fb565b93505b600084886080015160040b6119389190615112565b905061194386615186565b8112156119565761195386615186565b90505b600481900b608089015261196c89896000611a19565b604080514381524260208201527f438e507c246c311193c77528e3de231eec8ce4727cce091a1dbbecf85b427893910160405180910390a18b8a7f2d45b84a4a4a5856647775e31f7c00f62fd79e6e9ba64426dad78c4c8e4bb7df8a606001518b608001518c60e00151604051611a039392919063ffffffff938416815260049290920b6020830152909116604082015260600190565b60405180910390a3505050505050505050505050565b60008260a0015164ffffffffff16118015611a3d575060c082015164ffffffffff16155b15611a4b57611a4b826133f5565b81610120015173ffffffffffffffffffffffffffffffffffffffff1682610100015173ffffffffffffffffffffffffffffffffffffffff1614611bb05761012082015183547fffffffffffffffffffffffff00000000000000000000000000000000000000001673ffffffffffffffffffffffffffffffffffffffff909116908117845515611b1f5782547fffffffffffffff0000000000ffffffffffffffffffffffffffffffffffffffff16740100000000000000000000000000000000000000004264ffffffffff1602178355611b46565b82547fffffffffffffff0000000000ffffffffffffffffffffffffffffffffffffffff1683555b816000015182610120015173ffffffffffffffffffffffffffffffffffffffff1683610100015173ffffffffffffffffffffffffffffffffffffffff167fddf252ad1be2c89b69c2b068fc378daa952ba7f163c4a11628f55a4df523b3ef60405160405180910390a45b8015611be15782547fffff0000000000ffffffffffffffffffffffffffffffffffffffffffffffffff168355611c52565b8160a0015164ffffffffff168260c0015164ffffffffff1614611c525760c0820151835464ffffffffff909116790100000000000000000000000000000000000000000000000000027fffff0000000000ffffffffffffffffffffffffffffffffffffffffffffffffff9091161783555b611c6482604001518360600151613580565b60019093018054608084015160e0909401514264ffffffffff908116640100000000027fffffffffffffffffffffffffffffffffffffffffffffff0000000000ffffffff63ffffffff9384166e01000000000000000000000000000002167fffffffffffffffffffffffffffff00000000ffffffffff0000000000ffffffff929097166901000000000000000000027fffffffffffffffffffffffffffffffffffff0000000000ffffffffff00000000909416979092169690961791909117949094169290921792909217905550565b8161010001516102035780516000908152600960209081526040808320855173ffffffffffffffffffffffffffffffffffffffff168452825280832061020086015164ffffffffff168452909152902061022083015160c0840151610160850151611d9f91906151e4565b611da991906151e4565b815463ffffffff919091167801000000000000000000000000000000000000000000000000027fffffffff00000000ffffffffffffffffffffffffffffffffffffffffffffffff909116178155610120830151611e07576000611e0d565b81606001515b836102400151846101400151611e2391906151e4565b611e2d91906151e4565b815461026085015161ffff167c0100000000000000000000000000000000000000000000000000000000027fffff0000ffffffffffffffffffffffffffffffffffffffffffffffffffffffff63ffffffff939093167401000000000000000000000000000000000000000002929092167fffff0000ffffffff00000000ffffffffffffffffffffffffffffffffffffffff909116171790555050565b6040805161016081018252600080825260208201819052918101829052606081018290526080810182905260a0810182905260c0810182905260e081018290526101008101829052610120810182905261014081019190915260608084015163ffffffff9081168352608085015160040b602084015260e085015181166040840152831690820152610100840151611f62576000611f85565b83606001518460a001518560400151611f7b91906151bf565b611f8591906151bf565b63ffffffff908116608083015261014080860151821660a080850191909152610160870151831660c08086019190915290870151831660e0850152860151821661010084015261022086015182166101208401526102409095015116938101939093525090919050565b604080514381524260208201527f438e507c246c311193c77528e3de231eec8ce4727cce091a1dbbecf85b427893910160405180910390a181602001518260000151867fed9fd214803bf963977497f2478fb9b1570a9397bde7964e19cbe219149dba50856060015186608001518760a001518860c001518960e001518a61010001516040516120c296959493929190958652931515602086015273ffffffffffffffffffffffffffffffffffffffff92831660408601526060850191909152811660808401521660a082015260c00190565b60405180910390a48351602083015160e086015161012087015160405173ffffffffffffffffffffffffffffffffffffffff8089169516938a937fce4582dbaeda56557d7e73ae521699bff0c6e3a470f1f1089e8f977cac2083dd9361212993899061520c565b60405180910390a45050505050565b60006121438261359f565b6121a9576040517f08c379a000000000000000000000000000000000000000000000000000000000815260206004820152601160248201527f504c414e45545f4e4f545f45584953545300000000000000000000000000000060448201526064016101f0565b60006121b683600c6135bb565b905060ff81167f00000000000000000000000000000000000000000000000000000000000000007f0000000000000000000000000000000000000000000000000000000000000000612209836002615301565b61221490600161532b565b61ffff166020811061222857612228615348565b1a7f0000000000000000000000000000000000000000000000000000000000000000612255846002615301565b61ffff166020811061226957612269615348565b61227791901a610100615301565b612281919061532b565b61ffff1661228f9190614c35565b949350505050565b6102036122c27f27ec6af4a6510eb9b7e0cc7f39415b7f15e430e53eb0cd3997e7c7e0cf680f6e5490565b6040805173ffffffffffffffffffffffffffffffffffffffff8616602482015260448082018690528251808303909101815260649091019091526020810180517bffffffffffffffffffffffffffffffffffffffffffffffffffffffff167ff5d82b6b000000000000000000000000000000000000000000000000000000001790526201770061365f565b61240b6123787f27ec6af4a6510eb9b7e0cc7f39415b7f15e430e53eb0cd3997e7c7e0cf680f6e5490565b6040805173ffffffffffffffffffffffffffffffffffffffff87811660248301528616604482015260648082018690528251808303909101815260849091019091526020810180517bffffffffffffffffffffffffffffffffffffffffffffffffffffffff167fbb35783b000000000000000000000000000000000000000000000000000000001790526202ee0061365f565b505050565b63800000008181168114906000906124289084615377565b9050915091565b600061243a8261359f565b6124a0576040517f08c379a000000000000000000000000000000000000000000000000000000000815260206004820152601160248201527f504c414e45545f4e4f545f45584953545300000000000000000000000000000060448201526064016101f0565b6124ab8260146135bb565b6124ba9060ff16610190615301565b6124c690610fa061532b565b92915050565b6000806124db8382600361375c565b6124e690600161539a565b91506124f5836002600361375c565b61242890600161539a565b600061250b8261359f565b612571576040517f08c379a000000000000000000000000000000000000000000000000000000000815260206004820152601160248201527f504c414e45545f4e4f545f45584953545300000000000000000000000000000060448201526064016101f0565b61257c8260246135bb565b61258b9060ff1661014d615301565b6124c69061138d61532b565b6000818310156125a757816125a9565b825b9392505050565b600064ffffffffff82166125c657506000919050565b427f00000000000000000000000000000000000000000000000000000000000000001580159061261657507f00000000000000000000000000000000000000000000000000000000000000008110155b801561264857507f00000000000000000000000000000000000000000000000000000000000000008364ffffffffff16105b156126565750600192915050565b6126877f000000000000000000000000000000000000000000000000000000000000000064ffffffffff85166150a0565b1092915050565b60006126998261359f565b6126ff576040517f08c379a000000000000000000000000000000000000000000000000000000000815260206004820152601160248201527f504c414e45545f4e4f545f45584953545300000000000000000000000000000060448201526064016101f0565b6124c682600c7f0708083409600a8c0bb80ce40e100e100e100e101068151819c81e7823282ee0613771565b6000610e1061275e7f000000000000000000000000000000000000000000000000000000000000000061ffff8516614c35565b61276891906150e7565b6124c69063ffffffff7f0000000000000000000000000000000000000000000000000000000000000000166150a0565b60008073ffffffffffffffffffffffffffffffffffffffff85166127d85760006127cf84600001518660e0015186602001516137eb565b91509150613259565b825173ffffffffffffffffffffffffffffffffffffffff868116911614801561283057508360e0015173ffffffffffffffffffffffffffffffffffffffff168573ffffffffffffffffffffffffffffffffffffffff16145b156128415750600190506000613259565b83608001518061286a5750825173ffffffffffffffffffffffffffffffffffffffff8681169116145b15612f695760a084015173ffffffffffffffffffffffffffffffffffffffff1615806128c557508473ffffffffffffffffffffffffffffffffffffffff168460a0015173ffffffffffffffffffffffffffffffffffffffff16145b806128e95750825173ffffffffffffffffffffffffffffffffffffffff8681169116145b15612a135760e084015160208401516040517fdf2c0f4900000000000000000000000000000000000000000000000000000000815273ffffffffffffffffffffffffffffffffffffffff9283166004820152878316602482015264ffffffffff90911660448201526000917f0000000000000000000000000000000000000000000000000000000000000000169063df2c0f4990606401604080518083038186803b15801561299757600080fd5b505afa1580156129ab573d6000803e3d6000fd5b505050506040513d601f19601f820116820180604052508101906129cf919061540e565b9150506001816bffffffffffffffffffffffff1660001480612a095750846020015164ffffffffff16826bffffffffffffffffffffffff16115b9250925050613259565b60a084015173ffffffffffffffffffffffffffffffffffffffff1660011415612dc3578360e0015173ffffffffffffffffffffffffffffffffffffffff16836000015173ffffffffffffffffffffffffffffffffffffffff161415612b8f5760e084015160208401516040517fdf2c0f4900000000000000000000000000000000000000000000000000000000815273ffffffffffffffffffffffffffffffffffffffff9283166004820152878316602482015264ffffffffff90911660448201526000917f0000000000000000000000000000000000000000000000000000000000000000169063df2c0f49906064015b604080518083038186803b158015612b1c57600080fd5b505afa158015612b30573d6000803e3d6000fd5b505050506040513d601f19601f82011682018060405250810190612b54919061540e565b9150506000816bffffffffffffffffffffffff1611846020015164ffffffffff16826bffffffffffffffffffffffff16119250925050613259565b825160208401516040517fdf2c0f4900000000000000000000000000000000000000000000000000000000815273ffffffffffffffffffffffffffffffffffffffff9283166004820152878316602482015264ffffffffff90911660448201526000917f0000000000000000000000000000000000000000000000000000000000000000169063df2c0f4990606401604080518083038186803b158015612c3557600080fd5b505afa158015612c49573d6000803e3d6000fd5b505050506040513d601f19601f82011682018060405250810190612c6d919061540e565b9150506bffffffffffffffffffffffff8116612c9c576000612a0985600001518760e0015187602001516137eb565b60e085015160208501516040517fdf2c0f4900000000000000000000000000000000000000000000000000000000815273ffffffffffffffffffffffffffffffffffffffff9283166004820152888316602482015264ffffffffff90911660448201526000917f0000000000000000000000000000000000000000000000000000000000000000169063df2c0f49906064015b604080518083038186803b158015612d4657600080fd5b505afa158015612d5a573d6000803e3d6000fd5b505050506040513d601f19601f82011682018060405250810190612d7e919061540e565b9150506001816bffffffffffffffffffffffff1660001480612db85750856020015164ffffffffff16826bffffffffffffffffffffffff16115b935093505050613259565b60018460a0015173ffffffffffffffffffffffffffffffffffffffff161115612f645760a08401516040517f4ed2986d00000000000000000000000000000000000000000000000000000000815273ffffffffffffffffffffffffffffffffffffffff878116600483015291821660248201526000917f00000000000000000000000000000000000000000000000000000000000000001690634ed2986d90604401604080518083038186803b158015612e7c57600080fd5b505afa158015612e90573d6000803e3d6000fd5b505050506040513d601f19601f82011682018060405250810190612eb49190615443565b5090506bffffffffffffffffffffffff811615612f625760e085015160208501516040517fdf2c0f4900000000000000000000000000000000000000000000000000000000815273ffffffffffffffffffffffffffffffffffffffff9283166004820152888316602482015264ffffffffff90911660448201526000917f0000000000000000000000000000000000000000000000000000000000000000169063df2c0f4990606401612d2f565b505b61323b565b60a084015173ffffffffffffffffffffffffffffffffffffffff166001141561305f578360e0015173ffffffffffffffffffffffffffffffffffffffff16836000015173ffffffffffffffffffffffffffffffffffffffff161415612b8f5760e084015160208401516040517fdf2c0f4900000000000000000000000000000000000000000000000000000000815273ffffffffffffffffffffffffffffffffffffffff9283166004820152878316602482015264ffffffffff90911660448201526000917f0000000000000000000000000000000000000000000000000000000000000000169063df2c0f4990606401612b05565b60018460a0015173ffffffffffffffffffffffffffffffffffffffff161180156130b957508473ffffffffffffffffffffffffffffffffffffffff168460a0015173ffffffffffffffffffffffffffffffffffffffff1614155b1561323b5760a08401516040517f4ed2986d00000000000000000000000000000000000000000000000000000000815273ffffffffffffffffffffffffffffffffffffffff878116600483015291821660248201526000917f00000000000000000000000000000000000000000000000000000000000000001690634ed2986d90604401604080518083038186803b15801561315457600080fd5b505afa158015613168573d6000803e3d6000fd5b505050506040513d601f19601f8201168201806040525081019061318c9190615443565b5090506bffffffffffffffffffffffff81166132395760e085015160208501516040517fdf2c0f4900000000000000000000000000000000000000000000000000000000815273ffffffffffffffffffffffffffffffffffffffff9283166004820152888316602482015264ffffffffff90911660448201526000917f0000000000000000000000000000000000000000000000000000000000000000169063df2c0f4990606401612d2f565b505b600061325484600001518660e0015186602001516137eb565b915091505b935093915050565b600061326d838361393c565b8360600151836060015161328191906151e4565b63ffffffff1661329191906150a0565b9050638000000081106132b6576132ad600163800000006151bf565b63ffffffff1690505b63ffffffff8116606083015260408201516132fc578160e0015163ffffffff16826060015163ffffffff16111561240b57606082015163ffffffff1660e0830152505050565b600061331461330f84610140015161268e565b61272b565b905060007f000000000000000000000000000000000000000000000000000000000000000011801561334b57508063ffffffff1682115b15613398578260e0015163ffffffff1681846060015161336b91906151bf565b63ffffffff1611156133935780836060015161338791906151bf565b63ffffffff1660e08401525b6133a0565b600060e08401525b50505050565b80604001511580156133d257506133c1816101400151613a35565b61ffff16816060015163ffffffff16105b156133e1576102038282613acc565b6133eb8282613bb7565b6102038282613d57565b60006134108261010001518360000151846101400151613eb3565b82516000908152600b602052604090205490915080156134dc5761010083015173ffffffffffffffffffffffffffffffffffffffff166000908152600a60205260408120546134609084906150a0565b6101008501805173ffffffffffffffffffffffffffffffffffffffff9081166000908152600a6020908152604091829020859055925181518581526001948101949094529394509216917f05eefb5f2a67125e8c65550a4ffa0f542f75624e866ef58fb72bfb547540309291015b60405180910390a250505050565b61010083015173ffffffffffffffffffffffffffffffffffffffff166000908152600260205260408120546135129084906150a0565b6101008501805173ffffffffffffffffffffffffffffffffffffffff9081166000908152600260209081526040808320869055935184518681529182019290925293945016917f05eefb5f2a67125e8c65550a4ffa0f542f75624e866ef58fb72bfb547540309291016134ce565b6000818361358f576000613595565b63800000005b6125a991906151e4565b60006135ae826034601061375c565b60ff166001149050919050565b6000806135ca8484604061375c565b905060006135d960028361546f565b905060006135e8600284615491565b905060007f01223334444555555666666677777777888888889999999aaaaaabbbbcccddef60ff84166020811061362157613621615348565b1a905060ff821661363f5760048160ff16901c9450505050506124c6565b61364a601082615491565b9450505050506124c6565b5050505092915050565b73ffffffffffffffffffffffffffffffffffffffff83161561240b578273ffffffffffffffffffffffffffffffffffffffff1681836040516136a191906154b3565b60006040518083038160008787f1925050503d80600081146136df576040519150601f19603f3d011682016040523d82523d6000602084013e6136e4565b606091505b505050603f816136f491906150e7565b5a1161240b576040517f08c379a000000000000000000000000000000000000000000000000000000000815260206004820152601d60248201527f4e4f545f454e4f5547485f4741535f464f525f494e4e45525f43414c4c00000060448201526064016101f0565b600061228f60ff80841690851686901c6154cf565b60008061377e85856135bb565b90508261378c8260026154e3565b613797906001615504565b60ff16602081106137aa576137aa615348565b1a836137b78360026154e3565b60ff16602081106137ca576137ca615348565b6137d891901a610100615301565b6137e2919061532b565b95945050505050565b60008273ffffffffffffffffffffffffffffffffffffffff168473ffffffffffffffffffffffffffffffffffffffff161415613829575060006125a9565b6040517fdf2c0f4900000000000000000000000000000000000000000000000000000000815273ffffffffffffffffffffffffffffffffffffffff8581166004830152848116602483015264ffffffffff841660448301526000917f00000000000000000000000000000000000000000000000000000000000000009091169063df2c0f4990606401604080518083038186803b1580156138c957600080fd5b505afa1580156138dd573d6000803e3d6000fd5b505050506040513d601f19601f82011682018060405250810190613901919061540e565b9150506bffffffffffffffffffffffff811615806137e257508264ffffffffff16816bffffffffffffffffffffffff16119150509392505050565b60006139488383613bb7565b61024083015163ffffffff16156124c65761026083015161014083015160009061397190614011565b90506000856102400151866060015161398a91906151e4565b63ffffffff16905060006139b38288610220015163ffffffff168661ffff168661ffff1661408d565b5090508063ffffffff1687610240015163ffffffff16111561365557808761024001516139e091906151bf565b63ffffffff16945086610240015163ffffffff16851115613a08576000610240880152613655565b8487610240015163ffffffff16613a1f91906150fb565b63ffffffff166102408801525050505092915050565b6000613a408261359f565b613aa6576040517f08c379a000000000000000000000000000000000000000000000000000000000815260206004820152601160248201527f504c414e45545f4e4f545f45584953545300000000000000000000000000000060448201526064016101f0565b613ab182602c6135bb565b613ac09060ff16610bb8615301565b6124c690613a9861532b565b6000613adb836080015161242f565b90506000613aed836101400151614011565b90506000613aff846101400151613a35565b9050600080613b26876060015163ffffffff168461ffff168761ffff168761ffff1661408d565b63ffffffff8083166101408b01529193509150811661ffff8416148015613b5c57508163ffffffff16876060015163ffffffff16115b156107fe57818760600151613b7191906151bf565b63ffffffff90811660608801528116610160880152600161012080890191909152875173ffffffffffffffffffffffffffffffffffffffff169087015250505050505050565b816101000151158015613be15750610200820151613bd790610a8c615529565b64ffffffffff1642105b156102035780516000908152600960209081526040808320855173ffffffffffffffffffffffffffffffffffffffff908116855290835281842061020087015164ffffffffff16855283529281902081516080810183529054938416815274010000000000000000000000000000000000000000840463ffffffff9081169382018490527801000000000000000000000000000000000000000000000000850416918101919091527c010000000000000000000000000000000000000000000000000000000090920461ffff1660608301521561240b57806020015163ffffffff16836060015163ffffffff16613cd891906150a0565b816020015163ffffffff16826060015161ffff16613cf69190614c35565b846060015163ffffffff1685610260015161ffff16613d159190614c35565b613d1f91906150a0565b613d2991906150e7565b61ffff16610260840152602081015163ffffffff908116610240850152604082015116610220840152505050565b613d61828261422e565b6000826101c001518361018001518461022001518460600151613d8491906151e4565b613d8e91906151e4565b613d9891906151e4565b63ffffffff1690506000613db083610140015161268e565b905081158015613dca57506000846060015163ffffffff16115b15613e9d57835173ffffffffffffffffffffffffffffffffffffffff1661012084015260608085015163ffffffff16908401526040830151613e1b57606083015163ffffffff1660e0840152613e90565b7f000000000000000000000000000000000000000000000000000000000000000015613e90576000613e4c8261272b565b90508063ffffffff16846060015163ffffffff161115613e8657808460600151613e7691906151bf565b63ffffffff1660e0850152613e8e565b600060e08501525b505b60016101208501526133a0565b613ea88484846143a3565b6133a0848483614959565b6000655af3107a4000613ec583612138565b63ffffffff16613ed59190614c35565b604080514381524260208201529192507f438e507c246c311193c77528e3de231eec8ce4727cce091a1dbbecf85b427893910160405180910390a1828473ffffffffffffffffffffffffffffffffffffffff167f1c363b29828a892b7cddafe9583ef52e0d5aca0ea7011bda6ccf039e1781f73883604051613f5991815260200190565b60405180910390a360008381526007602052604090205480156140095773ffffffffffffffffffffffffffffffffffffffff85166000818152600860209081526040808320858452825280832080547fffffffffffffffffffffffffffffffffffffffffffffffffffffffffffffff001660011790558783526007909152808220829055518392879290917f74f110a1e0cd4892234c7ba49df9f8a354cd8d29b272f7557c9b8c3c38a653369190a45b509392505050565b600061401c8261359f565b614082576040517f08c379a000000000000000000000000000000000000000000000000000000000815260206004820152601160248201527f504c414e45545f4e4f545f45584953545300000000000000000000000000000060448201526064016101f0565b6124ab82601c6135bb565b60008085158061409b575084155b156140ab57506000905080614225565b6000856140d8887f0000000000000000000000000000000000000000000000000000000000000000614c35565b6140e291906150e7565b61410f7f0000000000000000000000000000000000000000000000000000000000000000620f42406150fb565b61411991906150a0565b6141239088614c35565b90506000620f4240856141368885614c35565b61414091906150e7565b61414a91906150e7565b90508087111561415f57879350809250614222565b60008861418c897f0000000000000000000000000000000000000000000000000000000000000000614c35565b61419691906150e7565b6141c37f0000000000000000000000000000000000000000000000000000000000000000620f42406150fb565b6141cd91906150a0565b6141d79089614c35565b90506000620f4240886141ea8985614c35565b6141f491906150e7565b6141fe91906150e7565b63ffffffff16905089811061421b5761421860018b6150fb565b90505b9450879350505b50505b94509492505050565b600061425b60027f00000000000000000000000000000000000000000000000000000000000000006150e7565b61426590426150e7565b8251600090815260046020526040812091925090816142856001856150fb565b815260208101919091526040016000208054909150638000000063ffffffff909116116142b957805463ffffffff166142bf565b637fffffff5b63ffffffff90811661018086015281546380000000640100000000909104909116116142fa578054640100000000900463ffffffff16614300565b637fffffff5b63ffffffff9081166101a086015283516000908152600460209081526040808320868452909152902080549091638000000091161161434657805463ffffffff1661434c565b637fffffff5b63ffffffff9081166101c08701528154638000000064010000000090910490911611614387578054640100000000900463ffffffff1661438d565b637fffffff5b63ffffffff166101e09095019490945250505050565b6102608301516101408301516000906143bb90614011565b9050600085610240015186606001516143d491906151e4565b63ffffffff1690506000806143f383878761ffff168761ffff1661408d565b63ffffffff8082166101608c01526102408b015192945090925080841691161161442c5761024088015161442790836151bf565b61442f565b60005b63ffffffff9081166101408a01526060890151161580159061445b57508588610160015163ffffffff16145b156145fa57600088610220015163ffffffff16886060015163ffffffff168861448491906150fb565b61448e91906150fb565b905063800000008111156144b4576144ab600163800000006151bf565b63ffffffff1690505b63ffffffff811660c08a018190526101608a01516144d291906151bf565b63ffffffff166101608a015261014089015160608a01516144f391906151bf565b63ffffffff1660608901526001610120808b0191909152895173ffffffffffffffffffffffffffffffffffffffff1690890152604088015161454457606088015163ffffffff1660e08901526145f4565b7f0000000000000000000000000000000000000000000000000000000000000000156145f457600061457a89610140015161268e565b905060006145878261272b565b90508063ffffffff168a6060015163ffffffff1611156145e9578960e0015163ffffffff16818b606001516145bc91906151bf565b63ffffffff1611156145e457808a606001516145d891906151bf565b63ffffffff1660e08b01525b6145f1565b600060e08b01525b50505b5061494f565b876060015163ffffffff1688610140015163ffffffff1614156148ed57876102200151876060015161462c91906151e4565b63ffffffff168163ffffffff16111561479357610220880151606088015161465490836151bf565b61465e91906151bf565b63ffffffff90811660c08a01908152600060608a0152516101808a01519082169116106146ca578760c00151886101800181815161469c91906151bf565b63ffffffff1690525060c08801516101a0890180516146bc9083906151e4565b63ffffffff169052506147bf565b876101800151886101a0018181516146e291906151e4565b63ffffffff1690525061018088015160c0890151600091614702916151bf565b90508063ffffffff16896101c0015163ffffffff161061475b5780896101c00181815161472f91906151bf565b63ffffffff169052506101e08901805182919061474d9083906151e4565b63ffffffff16905250614785565b886101c00151896101e00181815161477391906151e4565b63ffffffff1690525060006101c08a01525b5060006101808901526147bf565b8088610220015188606001516147a991906151e4565b6147b391906151bf565b63ffffffff1660608801525b8761022001518860c001518961016001516147da91906151bf565b6147e491906151bf565b63ffffffff16610160890152604087015161483d578660e0015163ffffffff168163ffffffff16111561481d57600060e088015261494f565b808760e00181815161482f91906151bf565b63ffffffff1690525061494f565b7f0000000000000000000000000000000000000000000000000000000000000000156148e857600061487388610140015161268e565b905060006148808261272b565b90508063ffffffff16896060015163ffffffff1611156148dd578860e0015163ffffffff168363ffffffff16116148d157828960e0018181516148c391906151bf565b63ffffffff169052506148e5565b600060e08a01526148e5565b600060e08a01525b50505b61494f565b6040517f08c379a000000000000000000000000000000000000000000000000000000000815260206004820152600960248201527f5a45524f5f5a45524f000000000000000000000000000000000000000000000060448201526064016101f0565b5050505050505050565b60006149648261272b565b905060008460c0015163ffffffff1685610160015163ffffffff1661498991906150a0565b9050600081856080015160040b6149a09190615112565b90506149ab83615186565b8112156149be576149bb83615186565b90505b60040b60809094019390935250505050565b6000808284036101408112156149e557600080fd5b833592506101207fffffffffffffffffffffffffffffffffffffffffffffffffffffffffffffffe082011215614a1a57600080fd5b506020830190509250929050565b80358015158114614a3857600080fd5b919050565b600060208284031215614a4f57600080fd5b6125a982614a28565b73ffffffffffffffffffffffffffffffffffffffff81168114614a7a57600080fd5b50565b8035614a3881614a58565b600060208284031215614a9a57600080fd5b81356125a981614a58565b60005b83811015614ac0578181015183820152602001614aa8565b838111156133a05750506000910152565b6020815260008251806020840152614af0816040850160208701614aa5565b601f017fffffffffffffffffffffffffffffffffffffffffffffffffffffffffffffffe0169190910160400192915050565b604051610120810167ffffffffffffffff81118282101715614b6d577f4e487b7100000000000000000000000000000000000000000000000000000000600052604160045260246000fd5b60405290565b60006101208284031215614b8657600080fd5b614b8e614b22565b82358152602083013560208201526040830135604082015260608301356060820152614bbc60808401614a28565b6080820152614bcd60a08401614a7d565b60a082015260c083013560c0820152614be860e08401614a7d565b60e0820152610100614bfb818501614a7d565b908201529392505050565b7f4e487b7100000000000000000000000000000000000000000000000000000000600052601160045260246000fd5b6000817fffffffffffffffffffffffffffffffffffffffffffffffffffffffffffffffff0483118215151615614c6d57614c6d614c06565b500290565b600081600f0b83600f0b6f7fffffffffffffffffffffffffffffff600082136000841383830485118282161615614cab57614cab614c06565b7fffffffffffffffffffffffffffffffff800000000000000000000000000000006000851286820586128184161615614ce657614ce6614c06565b60008712925085820587128484161615614d0257614d02614c06565b85850587128184161615614d1857614d18614c06565b5050509290910295945050505050565b600081600f0b83600f0b60008212826f7fffffffffffffffffffffffffffffff03821381151615614d5b57614d5b614c06565b827fffffffffffffffffffffffffffffffff80000000000000000000000000000000038212811615614d8f57614d8f614c06565b50019392505050565b600081600f0b83600f0b60008112817fffffffffffffffffffffffffffffffff8000000000000000000000000000000001831281151615614ddb57614ddb614c06565b816f7fffffffffffffffffffffffffffffff018313811615614dff57614dff614c06565b5090039392505050565b600181815b80851115614e6257817fffffffffffffffffffffffffffffffffffffffffffffffffffffffffffffffff04821115614e4857614e48614c06565b80851615614e5557918102915b93841c9390800290614e0e565b509250929050565b80825b6001808611614e7c5750613259565b816f7fffffffffffffffffffffffffffffff04821115614e9e57614e9e614c06565b80861615614eab57918102915b9490941c938002614e6d565b6000828015614ecd5760018114614ed757614ee0565b60019150506124c6565b829150506124c6565b5081614eee575060006124c6565b50600160008213808214614f07578015614f2e57614f50565b826f7fffffffffffffffffffffffffffffff04831115614f2957614f29614c06565b614f50565b826f7fffffffffffffffffffffffffffffff05831215614f5057614f50614c06565b5080831615614f5c5750805b614f6c8360011c83840283614e6a565b806f7fffffffffffffffffffffffffffffff048211600083131615614f9357614f93614c06565b807fffffffffffffffffffffffffffffffff80000000000000000000000000000000058212600083121615614fca57614fca614c06565b029392505050565b60006125a960ff841683600f0b614eb7565b600082614ff3575060016124c6565b81615000575060006124c6565b8160018114614ecd576002811461501657615032565b60ff84111561502757615027614c06565b50506001821b6124c6565b5060208310610133831016604e8410600b8410161715615055575081810a6124c6565b61505f8383614e09565b807fffffffffffffffffffffffffffffffffffffffffffffffffffffffffffffffff04821115614fca57614fca614c06565b60006125a960ff841683614fe4565b600082198211156150b3576150b3614c06565b500190565b7f4e487b7100000000000000000000000000000000000000000000000000000000600052601260045260246000fd5b6000826150f6576150f66150b8565b500490565b60008282101561510d5761510d614c06565b500390565b6000808312837f80000000000000000000000000000000000000000000000000000000000000000183128115161561514c5761514c614c06565b837f7fffffffffffffffffffffffffffffffffffffffffffffffffffffffffffffff01831381161561518057615180614c06565b50500390565b60007f80000000000000000000000000000000000000000000000000000000000000008214156151b8576151b8614c06565b5060000390565b600063ffffffff838116908316818110156151dc576151dc614c06565b039392505050565b600063ffffffff80831681851680830382111561520357615203614c06565b01949350505050565b84815283151560208201528215156040820152815163ffffffff1660608201526101c081016020830151615245608084018260040b9052565b50604083015163ffffffff811660a084015250606083015163ffffffff811660c084015250608083015163ffffffff811660e08401525060a08301516101006152958185018363ffffffff169052565b60c085015191506101206152b08186018463ffffffff169052565b60e086015192506101406152cb8187018563ffffffff169052565b9186015163ffffffff9081166101608701529086015181166101808601529401519093166101a090920191909152949350505050565b600061ffff8083168185168183048111821515161561532257615322614c06565b02949350505050565b600061ffff80831681851680830382111561520357615203614c06565b7f4e487b7100000000000000000000000000000000000000000000000000000000600052603260045260246000fd5b600063ffffffff8084168061538e5761538e6150b8565b92169190910692915050565b60008160000b8360000b60008112817fffffffffffffffffffffffffffffffffffffffffffffffffffffffffffffff80018312811516156153dd576153dd614c06565b81607f018313811615614dff57614dff614c06565b80516bffffffffffffffffffffffff81168114614a3857600080fd5b6000806040838503121561542157600080fd5b825161542c81614a58565b915061543a602084016153f2565b90509250929050565b6000806040838503121561545657600080fd5b61545f836153f2565b9150602083015190509250929050565b600060ff831680615482576154826150b8565b8060ff84160491505092915050565b600060ff8316806154a4576154a46150b8565b8060ff84160691505092915050565b600082516154c5818460208701614aa5565b9190910192915050565b6000826154de576154de6150b8565b500690565b600060ff821660ff84168160ff0481118215151615614fca57614fca614c06565b600060ff821660ff84168060ff0382111561552157615521614c06565b019392505050565b600064ffffffffff80831681851680830382111561520357615203614c0656fea264697066735822122056d92dde02b48b901c054e246e9dd1787b5edf81df065c429c65dace8087005f64736f6c63430008090033",
  "linkReferences": {},
  "deployedLinkReferences": {},
  "immutableReferences": {
    "11579": [
      {
        "length": 32,
        "start": 10582
      },
      {
        "length": 32,
        "start": 10970
      },
      {
        "length": 32,
        "start": 11252
      },
      {
        "length": 32,
        "start": 11524
      },
      {
        "length": 32,
        "start": 11835
      },
      {
        "length": 32,
        "start": 12083
      },
      {
        "length": 32,
        "start": 12336
      },
      {
        "length": 32,
        "start": 12563
      },
      {
        "length": 32,
        "start": 12810
      },
      {
        "length": 32,
        "start": 14470
      }
    ],
    "11581": [
      {
        "length": 32,
        "start": 2323
      },
      {
        "length": 32,
        "start": 2814
      }
    ],
    "11583": [
      {
        "length": 32,
        "start": 3588
      }
    ],
    "11585": [
      {
        "length": 32,
        "start": 3345
      }
    ],
    "11587": [
      {
        "length": 32,
        "start": 9819
      }
    ],
    "11589": [
      {
        "length": 32,
        "start": 10099
      }
    ],
    "11591": [
      {
        "length": 32,
        "start": 3913
      },
      {
        "length": 32,
        "start": 4156
      },
      {
        "length": 32,
        "start": 4372
      },
      {
        "length": 32,
        "start": 4498
      },
      {
        "length": 32,
        "start": 4835
      },
      {
        "length": 32,
        "start": 6276
      }
    ],
    "11593": [
      {
        "length": 32,
        "start": 5033
      },
      {
        "length": 32,
        "start": 5453
      },
      {
        "length": 32,
        "start": 5628
      },
      {
        "length": 32,
        "start": 5795
      },
      {
        "length": 32,
        "start": 16951
      }
    ],
    "11595": [
      {
        "length": 32,
        "start": 3989
      },
      {
        "length": 32,
        "start": 10037
      },
      {
        "length": 32,
        "start": 13082
      },
      {
        "length": 32,
        "start": 15901
      },
      {
        "length": 32,
        "start": 17734
      },
      {
        "length": 32,
        "start": 18495
      }
    ],
    "11597": [
      {
        "length": 32,
        "start": 4326
      },
      {
        "length": 32,
        "start": 4663
      },
      {
        "length": 32,
        "start": 6346
      }
    ],
    "11599": [
      {
        "length": 32,
        "start": 16564
      },
      {
        "length": 32,
        "start": 16615
      },
      {
        "length": 32,
        "start": 16744
      },
      {
        "length": 32,
        "start": 16795
      }
    ],
    "11605": [
      {
        "length": 32,
        "start": 5286
      }
    ],
    "11607": [
      {
        "length": 32,
        "start": 8671
      },
      {
        "length": 32,
        "start": 8747
      }
    ],
    "11609": [
      {
        "length": 32,
        "start": 8638
      }
    ],
    "11611": [
      {
        "length": 32,
        "start": 1053
      },
      {
        "length": 32,
        "start": 1092
      },
      {
        "length": 32,
        "start": 9673
      },
      {
        "length": 32,
        "start": 9715
      }
    ],
    "11613": [
      {
        "length": 32,
        "start": 1131
      },
      {
        "length": 32,
        "start": 9759
      }
    ]
  },
  "inputSourceName": "project/src/outerspace/facets/OuterSpaceFleetsRevealFacet.sol",
  "devdoc": {
    "kind": "dev",
    "methods": {},
    "version": 1
  },
  "evm": {
    "gasEstimates": {
      "creation": {
        "codeDepositCost": "4377400",
        "executionCost": "infinite",
        "totalCost": "infinite"
      },
      "external": {
        "resolveFleet(uint256,(uint256,uint256,uint256,uint256,bool,address,bytes32,address,address))": "infinite"
      }
    }
  },
  "storageLayout": {
    "storage": [
      {
        "astId": 11256,
        "contract": "project/src/outerspace/facets/OuterSpaceFleetsRevealFacet.sol:OuterSpaceFleetsRevealFacet",
        "label": "_planets",
        "offset": 0,
        "slot": "0",
        "type": "t_mapping(t_uint256,t_struct(Planet)17656_storage)"
      },
      {
        "astId": 11261,
        "contract": "project/src/outerspace/facets/OuterSpaceFleetsRevealFacet.sol:OuterSpaceFleetsRevealFacet",
        "label": "_fleets",
        "offset": 0,
        "slot": "1",
        "type": "t_mapping(t_uint256,t_struct(Fleet)17675_storage)"
      },
      {
        "astId": 11265,
        "contract": "project/src/outerspace/facets/OuterSpaceFleetsRevealFacet.sol:OuterSpaceFleetsRevealFacet",
        "label": "_stakeReadyToBeWithdrawn",
        "offset": 0,
        "slot": "2",
        "type": "t_mapping(t_address,t_uint256)"
      },
      {
        "astId": 11271,
        "contract": "project/src/outerspace/facets/OuterSpaceFleetsRevealFacet.sol:OuterSpaceFleetsRevealFacet",
        "label": "_operators",
        "offset": 0,
        "slot": "3",
        "type": "t_mapping(t_address,t_mapping(t_address,t_bool))"
      },
      {
        "astId": 11278,
        "contract": "project/src/outerspace/facets/OuterSpaceFleetsRevealFacet.sol:OuterSpaceFleetsRevealFacet",
        "label": "_inFlight",
        "offset": 0,
        "slot": "4",
        "type": "t_mapping(t_uint256,t_mapping(t_uint256,t_struct(InFlight)17632_storage))"
      },
      {
        "astId": 11281,
        "contract": "project/src/outerspace/facets/OuterSpaceFleetsRevealFacet.sol:OuterSpaceFleetsRevealFacet",
        "label": "_discovered",
        "offset": 0,
        "slot": "5",
        "type": "t_struct(Discovered)17641_storage"
      },
      {
        "astId": 11285,
        "contract": "project/src/outerspace/facets/OuterSpaceFleetsRevealFacet.sol:OuterSpaceFleetsRevealFacet",
        "label": "_prevRewardIds",
        "offset": 0,
        "slot": "6",
        "type": "t_mapping(t_address,t_uint256)"
      },
      {
        "astId": 11289,
        "contract": "project/src/outerspace/facets/OuterSpaceFleetsRevealFacet.sol:OuterSpaceFleetsRevealFacet",
        "label": "_rewards",
        "offset": 0,
        "slot": "7",
        "type": "t_mapping(t_uint256,t_uint256)"
      },
      {
        "astId": 11295,
        "contract": "project/src/outerspace/facets/OuterSpaceFleetsRevealFacet.sol:OuterSpaceFleetsRevealFacet",
        "label": "_rewardsToWithdraw",
        "offset": 0,
        "slot": "8",
        "type": "t_mapping(t_address,t_mapping(t_uint256,t_bool))"
      },
      {
        "astId": 11304,
        "contract": "project/src/outerspace/facets/OuterSpaceFleetsRevealFacet.sol:OuterSpaceFleetsRevealFacet",
        "label": "_attacks",
        "offset": 0,
        "slot": "9",
        "type": "t_mapping(t_uint256,t_mapping(t_address,t_mapping(t_uint256,t_struct(AccumulatedAttack)17771_storage)))"
      },
      {
        "astId": 11308,
        "contract": "project/src/outerspace/facets/OuterSpaceFleetsRevealFacet.sol:OuterSpaceFleetsRevealFacet",
        "label": "_freeStakeReadyToBeWithdrawn",
        "offset": 0,
        "slot": "10",
        "type": "t_mapping(t_address,t_uint256)"
      },
      {
        "astId": 11312,
        "contract": "project/src/outerspace/facets/OuterSpaceFleetsRevealFacet.sol:OuterSpaceFleetsRevealFacet",
        "label": "_planetFlagged",
        "offset": 0,
        "slot": "11",
        "type": "t_mapping(t_uint256,t_uint256)"
      }
    ],
    "types": {
      "t_address": {
        "encoding": "inplace",
        "label": "address",
        "numberOfBytes": "20"
      },
      "t_bool": {
        "encoding": "inplace",
        "label": "bool",
        "numberOfBytes": "1"
      },
      "t_int40": {
        "encoding": "inplace",
        "label": "int40",
        "numberOfBytes": "5"
      },
      "t_mapping(t_address,t_bool)": {
        "encoding": "mapping",
        "key": "t_address",
        "label": "mapping(address => bool)",
        "numberOfBytes": "32",
        "value": "t_bool"
      },
      "t_mapping(t_address,t_mapping(t_address,t_bool))": {
        "encoding": "mapping",
        "key": "t_address",
        "label": "mapping(address => mapping(address => bool))",
        "numberOfBytes": "32",
        "value": "t_mapping(t_address,t_bool)"
      },
      "t_mapping(t_address,t_mapping(t_uint256,t_bool))": {
        "encoding": "mapping",
        "key": "t_address",
        "label": "mapping(address => mapping(uint256 => bool))",
        "numberOfBytes": "32",
        "value": "t_mapping(t_uint256,t_bool)"
      },
      "t_mapping(t_address,t_mapping(t_uint256,t_struct(AccumulatedAttack)17771_storage))": {
        "encoding": "mapping",
        "key": "t_address",
        "label": "mapping(address => mapping(uint256 => struct ImportingOuterSpaceTypes.AccumulatedAttack))",
        "numberOfBytes": "32",
        "value": "t_mapping(t_uint256,t_struct(AccumulatedAttack)17771_storage)"
      },
      "t_mapping(t_address,t_uint256)": {
        "encoding": "mapping",
        "key": "t_address",
        "label": "mapping(address => uint256)",
        "numberOfBytes": "32",
        "value": "t_uint256"
      },
      "t_mapping(t_uint256,t_bool)": {
        "encoding": "mapping",
        "key": "t_uint256",
        "label": "mapping(uint256 => bool)",
        "numberOfBytes": "32",
        "value": "t_bool"
      },
      "t_mapping(t_uint256,t_mapping(t_address,t_mapping(t_uint256,t_struct(AccumulatedAttack)17771_storage)))": {
        "encoding": "mapping",
        "key": "t_uint256",
        "label": "mapping(uint256 => mapping(address => mapping(uint256 => struct ImportingOuterSpaceTypes.AccumulatedAttack)))",
        "numberOfBytes": "32",
        "value": "t_mapping(t_address,t_mapping(t_uint256,t_struct(AccumulatedAttack)17771_storage))"
      },
      "t_mapping(t_uint256,t_mapping(t_uint256,t_struct(InFlight)17632_storage))": {
        "encoding": "mapping",
        "key": "t_uint256",
        "label": "mapping(uint256 => mapping(uint256 => struct ImportingOuterSpaceTypes.InFlight))",
        "numberOfBytes": "32",
        "value": "t_mapping(t_uint256,t_struct(InFlight)17632_storage)"
      },
      "t_mapping(t_uint256,t_struct(AccumulatedAttack)17771_storage)": {
        "encoding": "mapping",
        "key": "t_uint256",
        "label": "mapping(uint256 => struct ImportingOuterSpaceTypes.AccumulatedAttack)",
        "numberOfBytes": "32",
        "value": "t_struct(AccumulatedAttack)17771_storage"
      },
      "t_mapping(t_uint256,t_struct(Fleet)17675_storage)": {
        "encoding": "mapping",
        "key": "t_uint256",
        "label": "mapping(uint256 => struct ImportingOuterSpaceTypes.Fleet)",
        "numberOfBytes": "32",
        "value": "t_struct(Fleet)17675_storage"
      },
      "t_mapping(t_uint256,t_struct(InFlight)17632_storage)": {
        "encoding": "mapping",
        "key": "t_uint256",
        "label": "mapping(uint256 => struct ImportingOuterSpaceTypes.InFlight)",
        "numberOfBytes": "32",
        "value": "t_struct(InFlight)17632_storage"
      },
      "t_mapping(t_uint256,t_struct(Planet)17656_storage)": {
        "encoding": "mapping",
        "key": "t_uint256",
        "label": "mapping(uint256 => struct ImportingOuterSpaceTypes.Planet)",
        "numberOfBytes": "32",
        "value": "t_struct(Planet)17656_storage"
      },
      "t_mapping(t_uint256,t_uint256)": {
        "encoding": "mapping",
        "key": "t_uint256",
        "label": "mapping(uint256 => uint256)",
        "numberOfBytes": "32",
        "value": "t_uint256"
      },
      "t_struct(AccumulatedAttack)17771_storage": {
        "encoding": "inplace",
        "label": "struct ImportingOuterSpaceTypes.AccumulatedAttack",
        "members": [
          {
            "astId": 17764,
            "contract": "project/src/outerspace/facets/OuterSpaceFleetsRevealFacet.sol:OuterSpaceFleetsRevealFacet",
            "label": "target",
            "offset": 0,
            "slot": "0",
            "type": "t_address"
          },
          {
            "astId": 17766,
            "contract": "project/src/outerspace/facets/OuterSpaceFleetsRevealFacet.sol:OuterSpaceFleetsRevealFacet",
            "label": "numAttackSpent",
            "offset": 20,
            "slot": "0",
            "type": "t_uint32"
          },
          {
            "astId": 17768,
            "contract": "project/src/outerspace/facets/OuterSpaceFleetsRevealFacet.sol:OuterSpaceFleetsRevealFacet",
            "label": "damageCausedSoFar",
            "offset": 24,
            "slot": "0",
            "type": "t_uint32"
          },
          {
            "astId": 17770,
            "contract": "project/src/outerspace/facets/OuterSpaceFleetsRevealFacet.sol:OuterSpaceFleetsRevealFacet",
            "label": "averageAttackPower",
            "offset": 28,
            "slot": "0",
            "type": "t_uint16"
          }
        ],
        "numberOfBytes": "32"
      },
      "t_struct(Discovered)17641_storage": {
        "encoding": "inplace",
        "label": "struct ImportingOuterSpaceTypes.Discovered",
        "members": [
          {
            "astId": 17634,
            "contract": "project/src/outerspace/facets/OuterSpaceFleetsRevealFacet.sol:OuterSpaceFleetsRevealFacet",
            "label": "minX",
            "offset": 0,
            "slot": "0",
            "type": "t_uint32"
          },
          {
            "astId": 17636,
            "contract": "project/src/outerspace/facets/OuterSpaceFleetsRevealFacet.sol:OuterSpaceFleetsRevealFacet",
            "label": "maxX",
            "offset": 4,
            "slot": "0",
            "type": "t_uint32"
          },
          {
            "astId": 17638,
            "contract": "project/src/outerspace/facets/OuterSpaceFleetsRevealFacet.sol:OuterSpaceFleetsRevealFacet",
            "label": "minY",
            "offset": 8,
            "slot": "0",
            "type": "t_uint32"
          },
          {
            "astId": 17640,
            "contract": "project/src/outerspace/facets/OuterSpaceFleetsRevealFacet.sol:OuterSpaceFleetsRevealFacet",
            "label": "maxY",
            "offset": 12,
            "slot": "0",
            "type": "t_uint32"
          }
        ],
        "numberOfBytes": "32"
      },
      "t_struct(Fleet)17675_storage": {
        "encoding": "inplace",
        "label": "struct ImportingOuterSpaceTypes.Fleet",
        "members": [
          {
            "astId": 17658,
            "contract": "project/src/outerspace/facets/OuterSpaceFleetsRevealFacet.sol:OuterSpaceFleetsRevealFacet",
            "label": "owner",
            "offset": 0,
            "slot": "0",
            "type": "t_address"
          },
          {
            "astId": 17660,
            "contract": "project/src/outerspace/facets/OuterSpaceFleetsRevealFacet.sol:OuterSpaceFleetsRevealFacet",
            "label": "launchTime",
            "offset": 20,
            "slot": "0",
            "type": "t_uint40"
          },
          {
            "astId": 17662,
            "contract": "project/src/outerspace/facets/OuterSpaceFleetsRevealFacet.sol:OuterSpaceFleetsRevealFacet",
            "label": "quantity",
            "offset": 25,
            "slot": "0",
            "type": "t_uint32"
          },
          {
            "astId": 17664,
            "contract": "project/src/outerspace/facets/OuterSpaceFleetsRevealFacet.sol:OuterSpaceFleetsRevealFacet",
            "label": "futureExtraProduction",
            "offset": 29,
            "slot": "0",
            "type": "t_uint24"
          },
          {
            "astId": 17666,
            "contract": "project/src/outerspace/facets/OuterSpaceFleetsRevealFacet.sol:OuterSpaceFleetsRevealFacet",
            "label": "defender",
            "offset": 0,
            "slot": "1",
            "type": "t_address"
          },
          {
            "astId": 17668,
            "contract": "project/src/outerspace/facets/OuterSpaceFleetsRevealFacet.sol:OuterSpaceFleetsRevealFacet",
            "label": "arrivalTime",
            "offset": 20,
            "slot": "1",
            "type": "t_uint40"
          },
          {
            "astId": 17670,
            "contract": "project/src/outerspace/facets/OuterSpaceFleetsRevealFacet.sol:OuterSpaceFleetsRevealFacet",
            "label": "defenderLoss",
            "offset": 25,
            "slot": "1",
            "type": "t_uint32"
          },
          {
            "astId": 17672,
            "contract": "project/src/outerspace/facets/OuterSpaceFleetsRevealFacet.sol:OuterSpaceFleetsRevealFacet",
            "label": "planetActive",
            "offset": 29,
            "slot": "1",
            "type": "t_bool"
          },
          {
            "astId": 17674,
            "contract": "project/src/outerspace/facets/OuterSpaceFleetsRevealFacet.sol:OuterSpaceFleetsRevealFacet",
            "label": "victory",
            "offset": 30,
            "slot": "1",
            "type": "t_bool"
          }
        ],
        "numberOfBytes": "64"
      },
      "t_struct(InFlight)17632_storage": {
        "encoding": "inplace",
        "label": "struct ImportingOuterSpaceTypes.InFlight",
        "members": [
          {
            "astId": 17629,
            "contract": "project/src/outerspace/facets/OuterSpaceFleetsRevealFacet.sol:OuterSpaceFleetsRevealFacet",
            "label": "flying",
            "offset": 0,
            "slot": "0",
            "type": "t_uint32"
          },
          {
            "astId": 17631,
            "contract": "project/src/outerspace/facets/OuterSpaceFleetsRevealFacet.sol:OuterSpaceFleetsRevealFacet",
            "label": "destroyed",
            "offset": 4,
            "slot": "0",
            "type": "t_uint32"
          }
        ],
        "numberOfBytes": "32"
      },
      "t_struct(Planet)17656_storage": {
        "encoding": "inplace",
        "label": "struct ImportingOuterSpaceTypes.Planet",
        "members": [
          {
            "astId": 17643,
            "contract": "project/src/outerspace/facets/OuterSpaceFleetsRevealFacet.sol:OuterSpaceFleetsRevealFacet",
            "label": "owner",
            "offset": 0,
            "slot": "0",
            "type": "t_address"
          },
          {
            "astId": 17645,
            "contract": "project/src/outerspace/facets/OuterSpaceFleetsRevealFacet.sol:OuterSpaceFleetsRevealFacet",
            "label": "ownershipStartTime",
            "offset": 20,
            "slot": "0",
            "type": "t_uint40"
          },
          {
            "astId": 17647,
            "contract": "project/src/outerspace/facets/OuterSpaceFleetsRevealFacet.sol:OuterSpaceFleetsRevealFacet",
            "label": "exitStartTime",
            "offset": 25,
            "slot": "0",
            "type": "t_uint40"
          },
          {
            "astId": 17649,
            "contract": "project/src/outerspace/facets/OuterSpaceFleetsRevealFacet.sol:OuterSpaceFleetsRevealFacet",
            "label": "numSpaceships",
            "offset": 0,
            "slot": "1",
            "type": "t_uint32"
          },
          {
            "astId": 17651,
            "contract": "project/src/outerspace/facets/OuterSpaceFleetsRevealFacet.sol:OuterSpaceFleetsRevealFacet",
            "label": "lastUpdated",
            "offset": 4,
            "slot": "1",
            "type": "t_uint40"
          },
          {
            "astId": 17653,
            "contract": "project/src/outerspace/facets/OuterSpaceFleetsRevealFacet.sol:OuterSpaceFleetsRevealFacet",
            "label": "travelingUpkeep",
            "offset": 9,
            "slot": "1",
            "type": "t_int40"
          },
          {
            "astId": 17655,
            "contract": "project/src/outerspace/facets/OuterSpaceFleetsRevealFacet.sol:OuterSpaceFleetsRevealFacet",
            "label": "overflow",
            "offset": 14,
            "slot": "1",
            "type": "t_uint32"
          }
        ],
        "numberOfBytes": "64"
      },
      "t_uint16": {
        "encoding": "inplace",
        "label": "uint16",
        "numberOfBytes": "2"
      },
      "t_uint24": {
        "encoding": "inplace",
        "label": "uint24",
        "numberOfBytes": "3"
      },
      "t_uint256": {
        "encoding": "inplace",
        "label": "uint256",
        "numberOfBytes": "32"
      },
      "t_uint32": {
        "encoding": "inplace",
        "label": "uint32",
        "numberOfBytes": "4"
      },
      "t_uint40": {
        "encoding": "inplace",
        "label": "uint40",
        "numberOfBytes": "5"
      }
    }
  },
  "userdoc": {
    "kind": "user",
    "methods": {},
    "version": 1
  },
  "argsData": "0x000000000000000000000000324ee6b63aa524207eb00dc1baebdc2ec77bd3f00000000000000000000000008b3360cdefde2ac4ddf63d805e8d61d630694196000000000000000000000000201f2100b30d4129fda590ad664fc6800a05c140cce77b122615b6093c0df0c7392bec6f537eb7a0595c337a573ee6d96d1107c8000000000000000000000000000000000000000000000000000000000000a8c00000000000000000000000000000000000000000000000000000000000001c20000000000000000000000000000000000000000000000000000000000003f48000000000000000000000000000000000000000000000000000000000000186a000000000000000000000000000000000000000000000000000000000000000010000000000000000000000000000000000000000000000000000000000000708000000000000000000000000000000000000000000000000000000000003f4800000000000000000000000000000000000000000000000000000000000001388000000000000000000000000000000000000000000000000000000000007a120000000000000000000000000000000000000000000000000000000000000000c000000000000000000000000000000000000000000000000000000000000000600000000000000000000000000000000000000000000000000000000000007d00064008200aa00c800f0010e012c014a014a017201900212029e032003a204b000000000000000000000000000000000000000000000000000000000000000640000000000000000000000000000000000000000000000000000000069b2cea90000000000000000000000000000000000000000000000000000000069b42029",
  "linkedData": {
    "stakingToken": "0x324ee6b63aa524207eb00dc1baebdc2ec77bd3f0",
    "freeStakingToken": "0x8b3360cdefde2ac4ddf63d805e8d61d630694196",
    "allianceRegistry": "0x201f2100b30d4129fda590ad664fc6800a05c140",
    "genesis": "0xcce77b122615b6093c0df0c7392bec6f537eb7a0595c337a573ee6d96d1107c8",
    "resolveWindow": 43200,
    "timePerDistance": 7200,
    "exitDuration": 259200,
    "acquireNumSpaceships": 100000,
    "productionSpeedUp": 1,
    "frontrunningDelay": 1800,
    "productionCapAsDuration": 259200,
    "upkeepProductionDecreaseRatePer10000th": 5000,
    "fleetSizeFactor6": 500000,
    "initialSpaceExpansion": 12,
    "expansionDelta": 6,
    "giftTaxPer10000": 2000,
    "stakeRange": "0x0064008200aa00c800f0010e012c014a014a017201900212029e032003a204b0",
    "stakeMultiplier10000th": 100,
    "bootstrapSessionEndTime": 1773325993,
    "infinityStartTime": 1773412393,
    "chainGenesisHash": "",
    "deploymentTimestamp": 1770733993
  },
  "transaction": {
    "nonce": "0xe",
    "hash": "0xac1db82323f1117c0588808444583ad75be270b8dfc45ebd4b3bc60d66f06a71",
    "origin": "0xbe19b59e8c588d68f475a407c7ba5fe813aeb792"
  }
}