{
  "address": "0xf8012228c56550bF4D77F9e0ae2158F0bE33B852",
  "abi": [
    {
      "inputs": [
        {
          "internalType": "contract IOuterSpace",
          "name": "outerspace",
          "type": "address"
        }
      ],
      "stateMutability": "nonpayable",
      "type": "constructor"
    },
    {
      "anonymous": false,
      "inputs": [
        {
          "indexed": true,
          "internalType": "uint256",
          "name": "location",
          "type": "uint256"
        },
        {
          "indexed": true,
          "internalType": "address",
          "name": "owner",
          "type": "address"
        }
      ],
      "name": "SaleCancelled",
      "type": "event"
    },
    {
      "anonymous": false,
      "inputs": [
        {
          "indexed": true,
          "internalType": "uint256",
          "name": "location",
          "type": "uint256"
        },
        {
          "indexed": true,
          "internalType": "address",
          "name": "owner",
          "type": "address"
        },
        {
          "indexed": false,
          "internalType": "uint256",
          "name": "pricePerUnit",
          "type": "uint256"
        },
        {
          "indexed": false,
          "internalType": "uint256",
          "name": "spaceshipsToKeep",
          "type": "uint256"
        },
        {
          "indexed": false,
          "internalType": "uint256",
          "name": "spaceshipsToSell",
          "type": "uint256"
        }
      ],
      "name": "SpaceshipsForSale",
      "type": "event"
    },
    {
      "anonymous": false,
      "inputs": [
        {
          "indexed": true,
          "internalType": "uint256",
          "name": "location",
          "type": "uint256"
        },
        {
          "indexed": true,
          "internalType": "address",
          "name": "fleetOwner",
          "type": "address"
        },
        {
          "indexed": false,
          "internalType": "uint256",
          "name": "numSpaceships",
          "type": "uint256"
        }
      ],
      "name": "SpaceshipsSold",
      "type": "event"
    },
    {
      "inputs": [
        {
          "internalType": "uint256",
          "name": "location",
          "type": "uint256"
        }
      ],
      "name": "cancelSale",
      "outputs": [],
      "stateMutability": "nonpayable",
      "type": "function"
    },
    {
      "inputs": [
        {
          "internalType": "uint256[]",
          "name": "locations",
          "type": "uint256[]"
        }
      ],
      "name": "getSales",
      "outputs": [
        {
          "components": [
            {
              "internalType": "uint144",
              "name": "pricePerUnit",
              "type": "uint144"
            },
            {
              "internalType": "uint256",
              "name": "spaceshipsToKeep",
              "type": "uint256"
            },
            {
              "internalType": "uint40",
              "name": "spaceshipsLeftToSell",
              "type": "uint40"
            },
            {
              "internalType": "uint40",
              "name": "timestamp",
              "type": "uint40"
            }
          ],
          "internalType": "struct BasicSpaceshipMarket.SpaceshipSale[]",
          "name": "sales",
          "type": "tuple[]"
        }
      ],
      "stateMutability": "view",
      "type": "function"
    },
    {
      "inputs": [
        {
          "internalType": "address",
          "name": "owner",
          "type": "address"
        },
        {
          "internalType": "bytes",
          "name": "data",
          "type": "bytes"
        }
      ],
      "name": "onApprovalForAllBy",
      "outputs": [],
      "stateMutability": "nonpayable",
      "type": "function"
    },
    {
      "inputs": [
        {
          "internalType": "uint256",
          "name": "location",
          "type": "uint256"
        },
        {
          "internalType": "uint32",
          "name": "numSpaceships",
          "type": "uint32"
        },
        {
          "internalType": "address payable",
          "name": "fleetSender",
          "type": "address"
        },
        {
          "internalType": "bytes32",
          "name": "toHash",
          "type": "bytes32"
        },
        {
          "internalType": "address payable",
          "name": "payee",
          "type": "address"
        },
        {
          "internalType": "uint256",
          "name": "amountForPayee",
          "type": "uint256"
        }
      ],
      "name": "purchase",
      "outputs": [],
      "stateMutability": "payable",
      "type": "function"
    },
    {
      "inputs": [
        {
          "internalType": "uint256",
          "name": "location",
          "type": "uint256"
        },
        {
          "internalType": "uint144",
          "name": "pricePerUnit",
          "type": "uint144"
        },
        {
          "internalType": "uint32",
          "name": "spaceshipsToKeep",
          "type": "uint32"
        },
        {
          "internalType": "uint40",
          "name": "spaceshipsToSell",
          "type": "uint40"
        }
      ],
      "name": "setSpaceshipsForSale",
      "outputs": [],
      "stateMutability": "nonpayable",
      "type": "function"
    }
  ],
  "transactionHash": "0xd4ab25e19f13d8d8f5a02e53f5024efba5bf05747c75132e3980a87355194c26",
  "args": [
    "0x9a68049067Fe90556A89b2105FE548e0c524Ee28"
  ],
  "numDeployments": 1,
  "solcInputHash": "618664d1a7647b39725401d635195974",
  "bytecode": "0x60a060405234801561001057600080fd5b506040516113c73803806113c783398101604081905261002f91610040565b6001600160a01b0316608052610070565b60006020828403121561005257600080fd5b81516001600160a01b038116811461006957600080fd5b9392505050565b6080516113196100ae600039600081816102a001528181610475015281816105b701528181610928015281816109c70152610b4f01526113196000f3fe6080604052600436106100595760003560e01c8063bd94b00511610043578063bd94b005146100b6578063cffb4f51146100d6578063d8554a6a146100f657600080fd5b8062313a681461005e5780636c0000d014610094575b600080fd5b34801561006a57600080fd5b5061007e610079366004610d7a565b610109565b60405161008b9190610def565b60405180910390f35b3480156100a057600080fd5b506100b46100af366004610e99565b61025b565b005b3480156100c257600080fd5b506100b46100d1366004610f03565b61026e565b3480156100e257600080fd5b506100b46100f1366004610f3e565b61045d565b6100b4610104366004610fc3565b61052b565b60608167ffffffffffffffff8111156101245761012461102a565b60405190808252806020026020018201604052801561019457816020015b6040805160808101825260008082526020808301829052928201819052606082015282527fffffffffffffffffffffffffffffffffffffffffffffffffffffffffffffffff9092019101816101425790505b50905060005b82811015610254576000808585848181106101b7576101b7611059565b602090810292909201358352508181019290925260409081016000208151608081018352815471ffffffffffffffffffffffffffffffffffff1681526001820154938101939093526002015464ffffffffff80821692840192909252650100000000009004166060820152825183908390811061023657610236611059565b6020026020010181905250808061024c906110b7565b91505061019a565b5092915050565b6102683385858585610b1d565b50505050565b6040517f6352211e000000000000000000000000000000000000000000000000000000008152600481018290526000907f000000000000000000000000000000000000000000000000000000000000000073ffffffffffffffffffffffffffffffffffffffff1690636352211e9060240160206040518083038186803b1580156102f757600080fd5b505afa15801561030b573d6000803e3d6000fd5b505050506040513d601f19601f8201168201806040525081019061032f9190611100565b905073ffffffffffffffffffffffffffffffffffffffff811633146103b5576040517f08c379a000000000000000000000000000000000000000000000000000000000815260206004820152601060248201527f4e4f545f504c414e45545f4f574e45520000000000000000000000000000000060448201526064015b60405180910390fd5b60008281526020819052604080822080547fffffffffffffffffffffffffffff0000000000000000000000000000000000001681556001810183905560020180547fffffffffffffffffffffffffffffffffffffffffffff000000000000000000001690555173ffffffffffffffffffffffffffffffffffffffff83169184917fd9e530acb8429c8e5337d9d3230e4cc7d742e32c2fc8d76608c19f2e1701ed049190a35050565b3373ffffffffffffffffffffffffffffffffffffffff7f000000000000000000000000000000000000000000000000000000000000000016146104fc576040517f08c379a000000000000000000000000000000000000000000000000000000000815260206004820152601d60248201527f415050524f56454442595f455850454354535f4f55544552535041434500000060448201526064016103ac565b600080808061050d85870187610e99565b93509350935093506105228785858585610b1d565b50505050505050565b6000868152602081815260408083208151608081018352815471ffffffffffffffffffffffffffffffffffff1681526001820154938101939093526002015464ffffffffff8082168484015265010000000000909104166060830152517f8a886cd5000000000000000000000000000000000000000000000000000000008152600481018990529091907f000000000000000000000000000000000000000000000000000000000000000073ffffffffffffffffffffffffffffffffffffffff1690638a886cd590602401604080518083038186803b15801561060d57600080fd5b505afa158015610621573d6000803e3d6000fd5b505050506040513d601f19601f82011682018060405250810190610645919061112f565b9150508064ffffffffff16826060015164ffffffffff16116106c3576040517f08c379a000000000000000000000000000000000000000000000000000000000815260206004820152601f60248201527f4f574e4552534849505f4348414e4745445f53414c455f4f555444415445440060448201526064016103ac565b8663ffffffff16826040015164ffffffffff16101561073e576040517f08c379a000000000000000000000000000000000000000000000000000000000815260206004820152601260248201527f4e4f545f454e4f5547485f4f4e5f53414c45000000000000000000000000000060448201526064016103ac565b8663ffffffff16826040018181516107569190611169565b64ffffffffff1690525081516000906107759063ffffffff8a1661118f565b71ffffffffffffffffffffffffffffffffffff169050600061079785346111c9565b905081811015610803576040517f08c379a000000000000000000000000000000000000000000000000000000000815260206004820152600f60248201527f4e4f545f454e4f5547485f46554e44000000000000000000000000000000000060448201526064016103ac565b60405173ffffffffffffffffffffffffffffffffffffffff89169083156108fc029084906000818181858888f19350505050158015610846573d6000803e3d6000fd5b508181111561088757336108fc61085d84846111c9565b6040518115909202916000818181858888f19350505050158015610885573d6000803e3d6000fd5b505b6040805160a08101825273ffffffffffffffffffffffffffffffffffffffff8a8116825233602083019081528284018e815263ffffffff8e811660608601908152608086018e815296517f08b74b970000000000000000000000000000000000000000000000000000000081528651861660048201529351851660248501529151604484015290511660648201529251608484015288811660a484015290917f0000000000000000000000000000000000000000000000000000000000000000909116906308b74b9790889060c4016000604051808303818588803b15801561096f57600080fd5b505af1158015610983573d6000803e3d6000fd5b5050505050600085602001511115610ad3576040517fd522989e000000000000000000000000000000000000000000000000000000008152600481018c90526000907f000000000000000000000000000000000000000000000000000000000000000073ffffffffffffffffffffffffffffffffffffffff169063d522989e906024016101006040518083038186803b158015610a1f57600080fd5b505afa158015610a33573d6000803e3d6000fd5b505050506040513d601f19601f82011682018060405250810190610a5791906111fb565b90508560200151816060015163ffffffff161015610ad1576040517f08c379a000000000000000000000000000000000000000000000000000000000815260206004820152601a60248201527f544f4f5f4d414e595f535041434553484950535f424f5547485400000000000060448201526064016103ac565b505b60405163ffffffff8b16815233908c907f8b6f89fabaaf5afc397f49d27a56a776e556e3901166876ef1f0240d0e8b4f6f9060200160405180910390a35050505050505050505050565b6040517f6352211e000000000000000000000000000000000000000000000000000000008152600481018590526000907f000000000000000000000000000000000000000000000000000000000000000073ffffffffffffffffffffffffffffffffffffffff1690636352211e9060240160206040518083038186803b158015610ba657600080fd5b505afa158015610bba573d6000803e3d6000fd5b505050506040513d601f19601f82011682018060405250810190610bde9190611100565b90508573ffffffffffffffffffffffffffffffffffffffff168173ffffffffffffffffffffffffffffffffffffffff1614610c75576040517f08c379a000000000000000000000000000000000000000000000000000000000815260206004820152601060248201527f4e4f545f504c414e45545f4f574e45520000000000000000000000000000000060448201526064016103ac565b6000858152602081815260409182902080547fffffffffffffffffffffffffffff0000000000000000000000000000000000001671ffffffffffffffffffffffffffffffffffff8816908117825563ffffffff8716600183018190556002909201805464ffffffffff8881167fffffffffffffffffffffffffffffffffffffffffffff00000000000000000000909216821765010000000000429290921691909102179091558451918252928101919091529182015273ffffffffffffffffffffffffffffffffffffffff82169086907f8e29bd07f1849718cb90b01b7744544687836ed3612e0ba9180d868462c19dcc9060600160405180910390a3505050505050565b60008060208385031215610d8d57600080fd5b823567ffffffffffffffff80821115610da557600080fd5b818501915085601f830112610db957600080fd5b813581811115610dc857600080fd5b8660208260051b8501011115610ddd57600080fd5b60209290920196919550909350505050565b602080825282518282018190526000919060409081850190868401855b82811015610e64578151805171ffffffffffffffffffffffffffffffffffff16855286810151878601528581015164ffffffffff90811687870152606091820151169085015260809093019290850190600101610e0c565b5091979650505050505050565b63ffffffff81168114610e8357600080fd5b50565b64ffffffffff81168114610e8357600080fd5b60008060008060808587031215610eaf57600080fd5b84359350602085013571ffffffffffffffffffffffffffffffffffff81168114610ed857600080fd5b92506040850135610ee881610e71565b91506060850135610ef881610e86565b939692955090935050565b600060208284031215610f1557600080fd5b5035919050565b73ffffffffffffffffffffffffffffffffffffffff81168114610e8357600080fd5b600080600060408486031215610f5357600080fd5b8335610f5e81610f1c565b9250602084013567ffffffffffffffff80821115610f7b57600080fd5b818601915086601f830112610f8f57600080fd5b813581811115610f9e57600080fd5b876020828501011115610fb057600080fd5b6020830194508093505050509250925092565b60008060008060008060c08789031215610fdc57600080fd5b863595506020870135610fee81610e71565b94506040870135610ffe81610f1c565b935060608701359250608087013561101581610f1c565b8092505060a087013590509295509295509295565b7f4e487b7100000000000000000000000000000000000000000000000000000000600052604160045260246000fd5b7f4e487b7100000000000000000000000000000000000000000000000000000000600052603260045260246000fd5b7f4e487b7100000000000000000000000000000000000000000000000000000000600052601160045260246000fd5b60007fffffffffffffffffffffffffffffffffffffffffffffffffffffffffffffffff8214156110e9576110e9611088565b5060010190565b80516110fb81610f1c565b919050565b60006020828403121561111257600080fd5b815161111d81610f1c565b9392505050565b80516110fb81610e86565b6000806040838503121561114257600080fd5b825161114d81610f1c565b602084015190925061115e81610e86565b809150509250929050565b600064ffffffffff8381169083168181101561118757611187611088565b039392505050565b600071ffffffffffffffffffffffffffffffffffff808316818516818304811182151516156111c0576111c0611088565b02949350505050565b6000828210156111db576111db611088565b500390565b80516110fb81610e71565b805180151581146110fb57600080fd5b600061010080838503121561120f57600080fd5b6040519081019067ffffffffffffffff82118183101715611259577f4e487b7100000000000000000000000000000000000000000000000000000000600052604160045260246000fd5b81604052611266846110f0565b815261127460208501611124565b602082015261128560408501611124565b6040820152611296606085016111e0565b60608201526112a7608085016111e0565b60808201526112b860a08501611124565b60a08201526112c960c085016111eb565b60c082015260e084015160e082015280925050509291505056fea26469706673582212200206cdf6da3110e7faaddcbc92f9786c80583b6089e48a8d426dafa80d88c67664736f6c63430008090033",
  "devdoc": {
    "kind": "dev",
    "methods": {
      "getSales(uint256[])": {
        "details": "useful to get data without any off-chain caching, but does not scale to many locations"
      }
    },
    "version": 1
  },
  "userdoc": {
    "kind": "user",
    "methods": {},
    "version": 1
  },
  "storageLayout": {
    "storage": [
      {
        "astId": 28278,
        "contract": "src/plugins/basic-spaceship-marketplace/BasicSpaceshipMarket.sol:BasicSpaceshipMarket",
        "label": "_sales",
        "offset": 0,
        "slot": "0",
        "type": "t_mapping(t_uint256,t_struct(SpaceshipSale)28273_storage)"
      }
    ],
    "types": {
      "t_mapping(t_uint256,t_struct(SpaceshipSale)28273_storage)": {
        "encoding": "mapping",
        "key": "t_uint256",
        "label": "mapping(uint256 => struct BasicSpaceshipMarket.SpaceshipSale)",
        "numberOfBytes": "32",
        "value": "t_struct(SpaceshipSale)28273_storage"
      },
      "t_struct(SpaceshipSale)28273_storage": {
        "encoding": "inplace",
        "label": "struct BasicSpaceshipMarket.SpaceshipSale",
        "members": [
          {
            "astId": 28266,
            "contract": "src/plugins/basic-spaceship-marketplace/BasicSpaceshipMarket.sol:BasicSpaceshipMarket",
            "label": "pricePerUnit",
            "offset": 0,
            "slot": "0",
            "type": "t_uint144"
          },
          {
            "astId": 28268,
            "contract": "src/plugins/basic-spaceship-marketplace/BasicSpaceshipMarket.sol:BasicSpaceshipMarket",
            "label": "spaceshipsToKeep",
            "offset": 0,
            "slot": "1",
            "type": "t_uint256"
          },
          {
            "astId": 28270,
            "contract": "src/plugins/basic-spaceship-marketplace/BasicSpaceshipMarket.sol:BasicSpaceshipMarket",
            "label": "spaceshipsLeftToSell",
            "offset": 0,
            "slot": "2",
            "type": "t_uint40"
          },
          {
            "astId": 28272,
            "contract": "src/plugins/basic-spaceship-marketplace/BasicSpaceshipMarket.sol:BasicSpaceshipMarket",
            "label": "timestamp",
            "offset": 5,
            "slot": "2",
            "type": "t_uint40"
          }
        ],
        "numberOfBytes": "96"
      },
      "t_uint144": {
        "encoding": "inplace",
        "label": "uint144",
        "numberOfBytes": "18"
      },
      "t_uint256": {
        "encoding": "inplace",
        "label": "uint256",
        "numberOfBytes": "32"
      },
      "t_uint40": {
        "encoding": "inplace",
        "label": "uint40",
        "numberOfBytes": "5"
      }
    }
  }
}