{
  "address": "0xf219079a5f90b08a988e76d4eFE7AC224BC132ea",
  "abi": [
    {
      "inputs": [
        {
          "internalType": "address",
          "name": "initialOwner",
          "type": "address"
        }
      ],
      "stateMutability": "nonpayable",
      "type": "constructor"
    },
    {
      "anonymous": false,
      "inputs": [
        {
          "indexed": true,
          "internalType": "address",
          "name": "owner",
          "type": "address"
        },
        {
          "indexed": true,
          "internalType": "address",
          "name": "spender",
          "type": "address"
        },
        {
          "indexed": false,
          "internalType": "uint256",
          "name": "value",
          "type": "uint256"
        }
      ],
      "name": "Approval",
      "type": "event"
    },
    {
      "anonymous": false,
      "inputs": [
        {
          "indexed": false,
          "internalType": "address",
          "name": "generator",
          "type": "address"
        },
        {
          "indexed": false,
          "internalType": "bool",
          "name": "enabled",
          "type": "bool"
        }
      ],
      "name": "GeneratorEnabled",
      "type": "event"
    },
    {
      "anonymous": false,
      "inputs": [
        {
          "indexed": true,
          "internalType": "address",
          "name": "previousOwner",
          "type": "address"
        },
        {
          "indexed": true,
          "internalType": "address",
          "name": "newOwner",
          "type": "address"
        }
      ],
      "name": "OwnershipTransferred",
      "type": "event"
    },
    {
      "anonymous": false,
      "inputs": [
        {
          "indexed": true,
          "internalType": "address",
          "name": "from",
          "type": "address"
        },
        {
          "indexed": true,
          "internalType": "address",
          "name": "to",
          "type": "address"
        },
        {
          "indexed": false,
          "internalType": "uint256",
          "name": "value",
          "type": "uint256"
        }
      ],
      "name": "Transfer",
      "type": "event"
    },
    {
      "inputs": [],
      "name": "DOMAIN_SEPARATOR",
      "outputs": [
        {
          "internalType": "bytes32",
          "name": "",
          "type": "bytes32"
        }
      ],
      "stateMutability": "view",
      "type": "function"
    },
    {
      "inputs": [
        {
          "internalType": "address",
          "name": "owner",
          "type": "address"
        },
        {
          "internalType": "address",
          "name": "spender",
          "type": "address"
        }
      ],
      "name": "allowance",
      "outputs": [
        {
          "internalType": "uint256",
          "name": "",
          "type": "uint256"
        }
      ],
      "stateMutability": "view",
      "type": "function"
    },
    {
      "inputs": [
        {
          "internalType": "address",
          "name": "spender",
          "type": "address"
        },
        {
          "internalType": "uint256",
          "name": "amount",
          "type": "uint256"
        }
      ],
      "name": "approve",
      "outputs": [
        {
          "internalType": "bool",
          "name": "",
          "type": "bool"
        }
      ],
      "stateMutability": "nonpayable",
      "type": "function"
    },
    {
      "inputs": [
        {
          "internalType": "address",
          "name": "spender",
          "type": "address"
        },
        {
          "internalType": "uint256",
          "name": "amount",
          "type": "uint256"
        },
        {
          "internalType": "bytes",
          "name": "data",
          "type": "bytes"
        }
      ],
      "name": "approveAndCall",
      "outputs": [
        {
          "internalType": "bool",
          "name": "",
          "type": "bool"
        }
      ],
      "stateMutability": "nonpayable",
      "type": "function"
    },
    {
      "inputs": [
        {
          "internalType": "address",
          "name": "owner",
          "type": "address"
        }
      ],
      "name": "balanceOf",
      "outputs": [
        {
          "internalType": "uint256",
          "name": "",
          "type": "uint256"
        }
      ],
      "stateMutability": "view",
      "type": "function"
    },
    {
      "inputs": [],
      "name": "decimals",
      "outputs": [
        {
          "internalType": "uint8",
          "name": "",
          "type": "uint8"
        }
      ],
      "stateMutability": "pure",
      "type": "function"
    },
    {
      "inputs": [
        {
          "internalType": "address payable[]",
          "name": "tos",
          "type": "address[]"
        },
        {
          "internalType": "uint256",
          "name": "totalAmount",
          "type": "uint256"
        }
      ],
      "name": "distributeAlongWithETH",
      "outputs": [
        {
          "internalType": "bool",
          "name": "",
          "type": "bool"
        }
      ],
      "stateMutability": "payable",
      "type": "function"
    },
    {
      "inputs": [
        {
          "internalType": "address payable[]",
          "name": "tos",
          "type": "address[]"
        },
        {
          "internalType": "uint256[]",
          "name": "amounts",
          "type": "uint256[]"
        }
      ],
      "name": "distributeVariousAmountsAlongWithETH",
      "outputs": [
        {
          "internalType": "bool",
          "name": "",
          "type": "bool"
        }
      ],
      "stateMutability": "payable",
      "type": "function"
    },
    {
      "inputs": [
        {
          "internalType": "address payable[]",
          "name": "tos",
          "type": "address[]"
        },
        {
          "internalType": "uint256[]",
          "name": "tokenAmounts",
          "type": "uint256[]"
        },
        {
          "internalType": "uint256[]",
          "name": "etherAmounts",
          "type": "uint256[]"
        }
      ],
      "name": "distributeVariousAmountsOfTokenAndETH",
      "outputs": [
        {
          "internalType": "bool",
          "name": "",
          "type": "bool"
        }
      ],
      "stateMutability": "payable",
      "type": "function"
    },
    {
      "inputs": [
        {
          "internalType": "address",
          "name": "",
          "type": "address"
        }
      ],
      "name": "generators",
      "outputs": [
        {
          "internalType": "bool",
          "name": "",
          "type": "bool"
        }
      ],
      "stateMutability": "view",
      "type": "function"
    },
    {
      "inputs": [],
      "name": "name",
      "outputs": [
        {
          "internalType": "string",
          "name": "",
          "type": "string"
        }
      ],
      "stateMutability": "pure",
      "type": "function"
    },
    {
      "inputs": [
        {
          "internalType": "address",
          "name": "owner",
          "type": "address"
        }
      ],
      "name": "nonces",
      "outputs": [
        {
          "internalType": "uint256",
          "name": "",
          "type": "uint256"
        }
      ],
      "stateMutability": "view",
      "type": "function"
    },
    {
      "inputs": [],
      "name": "owner",
      "outputs": [
        {
          "internalType": "address",
          "name": "",
          "type": "address"
        }
      ],
      "stateMutability": "view",
      "type": "function"
    },
    {
      "inputs": [
        {
          "internalType": "address",
          "name": "forAddress",
          "type": "address"
        },
        {
          "internalType": "address",
          "name": "to",
          "type": "address"
        },
        {
          "internalType": "uint256",
          "name": "amount",
          "type": "uint256"
        },
        {
          "internalType": "bytes",
          "name": "data",
          "type": "bytes"
        }
      ],
      "name": "payForAndCall",
      "outputs": [
        {
          "internalType": "bool",
          "name": "",
          "type": "bool"
        }
      ],
      "stateMutability": "nonpayable",
      "type": "function"
    },
    {
      "inputs": [
        {
          "internalType": "address",
          "name": "owner",
          "type": "address"
        },
        {
          "internalType": "address",
          "name": "spender",
          "type": "address"
        },
        {
          "internalType": "uint256",
          "name": "value",
          "type": "uint256"
        },
        {
          "internalType": "uint256",
          "name": "deadline",
          "type": "uint256"
        },
        {
          "internalType": "uint8",
          "name": "v",
          "type": "uint8"
        },
        {
          "internalType": "bytes32",
          "name": "r",
          "type": "bytes32"
        },
        {
          "internalType": "bytes32",
          "name": "s",
          "type": "bytes32"
        }
      ],
      "name": "permit",
      "outputs": [],
      "stateMutability": "nonpayable",
      "type": "function"
    },
    {
      "inputs": [
        {
          "internalType": "address",
          "name": "to",
          "type": "address"
        },
        {
          "internalType": "uint256",
          "name": "amount",
          "type": "uint256"
        }
      ],
      "name": "reward",
      "outputs": [],
      "stateMutability": "nonpayable",
      "type": "function"
    },
    {
      "inputs": [
        {
          "internalType": "address",
          "name": "generator",
          "type": "address"
        },
        {
          "internalType": "bool",
          "name": "enabled",
          "type": "bool"
        }
      ],
      "name": "setGenerator",
      "outputs": [],
      "stateMutability": "nonpayable",
      "type": "function"
    },
    {
      "inputs": [
        {
          "internalType": "bytes4",
          "name": "interfaceID",
          "type": "bytes4"
        }
      ],
      "name": "supportsInterface",
      "outputs": [
        {
          "internalType": "bool",
          "name": "",
          "type": "bool"
        }
      ],
      "stateMutability": "pure",
      "type": "function"
    },
    {
      "inputs": [],
      "name": "symbol",
      "outputs": [
        {
          "internalType": "string",
          "name": "",
          "type": "string"
        }
      ],
      "stateMutability": "view",
      "type": "function"
    },
    {
      "inputs": [],
      "name": "totalSupply",
      "outputs": [
        {
          "internalType": "uint256",
          "name": "",
          "type": "uint256"
        }
      ],
      "stateMutability": "view",
      "type": "function"
    },
    {
      "inputs": [
        {
          "internalType": "address",
          "name": "to",
          "type": "address"
        },
        {
          "internalType": "uint256",
          "name": "amount",
          "type": "uint256"
        }
      ],
      "name": "transfer",
      "outputs": [
        {
          "internalType": "bool",
          "name": "",
          "type": "bool"
        }
      ],
      "stateMutability": "nonpayable",
      "type": "function"
    },
    {
      "inputs": [
        {
          "internalType": "address payable",
          "name": "to",
          "type": "address"
        },
        {
          "internalType": "uint256",
          "name": "amount",
          "type": "uint256"
        }
      ],
      "name": "transferAlongWithETH",
      "outputs": [
        {
          "internalType": "bool",
          "name": "",
          "type": "bool"
        }
      ],
      "stateMutability": "payable",
      "type": "function"
    },
    {
      "inputs": [
        {
          "internalType": "address",
          "name": "to",
          "type": "address"
        },
        {
          "internalType": "uint256",
          "name": "amount",
          "type": "uint256"
        },
        {
          "internalType": "bytes",
          "name": "data",
          "type": "bytes"
        }
      ],
      "name": "transferAndCall",
      "outputs": [
        {
          "internalType": "bool",
          "name": "",
          "type": "bool"
        }
      ],
      "stateMutability": "nonpayable",
      "type": "function"
    },
    {
      "inputs": [
        {
          "internalType": "address",
          "name": "from",
          "type": "address"
        },
        {
          "internalType": "address",
          "name": "to",
          "type": "address"
        },
        {
          "internalType": "uint256",
          "name": "amount",
          "type": "uint256"
        }
      ],
      "name": "transferFrom",
      "outputs": [
        {
          "internalType": "bool",
          "name": "",
          "type": "bool"
        }
      ],
      "stateMutability": "nonpayable",
      "type": "function"
    },
    {
      "inputs": [
        {
          "internalType": "address",
          "name": "from",
          "type": "address"
        },
        {
          "internalType": "address",
          "name": "to",
          "type": "address"
        },
        {
          "internalType": "uint256",
          "name": "amount",
          "type": "uint256"
        },
        {
          "internalType": "bytes",
          "name": "data",
          "type": "bytes"
        }
      ],
      "name": "transferFromAndCall",
      "outputs": [
        {
          "internalType": "bool",
          "name": "",
          "type": "bool"
        }
      ],
      "stateMutability": "nonpayable",
      "type": "function"
    },
    {
      "inputs": [
        {
          "internalType": "address",
          "name": "newOwner",
          "type": "address"
        }
      ],
      "name": "transferOwnership",
      "outputs": [],
      "stateMutability": "nonpayable",
      "type": "function"
    }
  ],
  "transactionHash": "0x9f457b4db4e1f4e751204a794e0ffea854253dd51f78c6ea2173958c22f30b13",
  "args": [
    "0x61c461EcC993aaDEB7e4b47E96d1B8cC37314B20"
  ],
  "numDeployments": 1,
  "solcInputHash": "18c2b5a503286e564db20f3be3fc9de9",
  "bytecode": "0x60a06040523480156200001157600080fd5b506040516200244138038062002441833981016040819052620000349162000183565b6040805180820190915260018152603160f81b602082015281620000588162000128565b5080516200007a57506040805180820190915260018152603160f81b60208201525b7f91ab3d17e3a50a9d89e63fd30b92be7f5336b03b287bb946787a83a9d62a2766620000d660408051808201909152601381527f436f6e7175657374207630204372656469747300000000000000000000000000602082015290565b8051602091820120835184830120604080519384019490945292820152606081019190915230608082015260a00160408051601f19818403018152919052805160209091012060805250620001b59050565b600080546040516001600160a01b03808516939216917f8be0079c531659141344cd1fd0a4f28419497f9722a3daafe3b4186f6b6457e091a3600080546001600160a01b0319166001600160a01b0392909216919091179055565b6000602082840312156200019657600080fd5b81516001600160a01b0381168114620001ae57600080fd5b9392505050565b608051612269620001d8600039600081816102f00152610c7101526122696000f3fe6080604052600436106101a15760003560e01c80638da5cb5b116100e1578063d505accf1161008a578063e132a49c11610064578063e132a49c14610556578063e7fcb06514610576578063f2fde38b14610589578063fc72b976146105a957600080fd5b8063d505accf14610503578063dd62ed3e14610523578063df752eed1461054357600080fd5b8063a9059cbb116100bb578063a9059cbb146104a3578063c1d34b89146104c3578063cae9ca51146104e357600080fd5b80638da5cb5b146103d857806390ad4ad81461042a57806395d89b411461045a57600080fd5b806323b872dd1161014e5780634000aea0116101285780634000aea01461031257806363d994c71461033257806370a08231146103525780637ecebe001461039557600080fd5b806323b872dd146102a2578063313ce567146102c25780633644e515146102de57600080fd5b80630e02df541161017f5780630e02df541461024a57806318160ddd1461025d57806321670f221461028057600080fd5b806301ffc9a7146101a657806306fdde03146101db578063095ea7b31461022a575b600080fd5b3480156101b257600080fd5b506101c66101c1366004611b17565b6105bc565b60405190151581526020015b60405180910390f35b3480156101e757600080fd5b5060408051808201909152601381527f436f6e717565737420763020437265646974730000000000000000000000000060208201525b6040516101d29190611b60565b34801561023657600080fd5b506101c6610245366004611bf5565b610655565b6101c6610258366004611c6d565b61066b565b34801561026957600080fd5b50610272610839565b6040519081526020016101d2565b34801561028c57600080fd5b506102a061029b366004611bf5565b610849565b005b3480156102ae57600080fd5b506101c66102bd366004611cb9565b6108d0565b3480156102ce57600080fd5b50604051601281526020016101d2565b3480156102ea57600080fd5b506102727f000000000000000000000000000000000000000000000000000000000000000081565b34801561031e57600080fd5b506101c661032d366004611d3c565b6108e7565b34801561033e57600080fd5b506101c661034d366004611d98565b6109a7565b34801561035e57600080fd5b5061027261036d366004611e0b565b73ffffffffffffffffffffffffffffffffffffffff1660009081526002602052604090205490565b3480156103a157600080fd5b506102726103b0366004611e0b565b73ffffffffffffffffffffffffffffffffffffffff1660009081526004602052604090205490565b3480156103e457600080fd5b506000546104059073ffffffffffffffffffffffffffffffffffffffff1681565b60405173ffffffffffffffffffffffffffffffffffffffff90911681526020016101d2565b34801561043657600080fd5b506101c6610445366004611e0b565b60056020526000908152604090205460ff1681565b34801561046657600080fd5b5061021d6040518060400160405280600581526020017f435245443000000000000000000000000000000000000000000000000000000081525081565b3480156104af57600080fd5b506101c66104be366004611bf5565b610a6a565b3480156104cf57600080fd5b506101c66104de366004611d98565b610a77565b3480156104ef57600080fd5b506101c66104fe366004611d3c565b610adc565b34801561050f57600080fd5b506102a061051e366004611e28565b610b3f565b34801561052f57600080fd5b5061027261053e366004611e9f565b610e7f565b6101c6610551366004611ed8565b610eff565b34801561056257600080fd5b506102a0610571366004611f46565b6110bc565b6101c6610584366004611bf5565b6111cb565b34801561059557600080fd5b506102a06105a4366004611e0b565b61121a565b6101c66105b7366004611f74565b6112a7565b60007f7f5828d0000000000000000000000000000000000000000000000000000000007fffffffff000000000000000000000000000000000000000000000000000000008316148061064f57507f01ffc9a7000000000000000000000000000000000000000000000000000000007fffffffff000000000000000000000000000000000000000000000000000000008316145b92915050565b600061066233848461153a565b50600192915050565b600080610678843461203d565b90506106848482612078565b34146106f1576040517f08c379a000000000000000000000000000000000000000000000000000000000815260206004820152601160248201527f494e56414c49445f4d53475f56414c554500000000000000000000000000000060448201526064015b60405180910390fd5b60006106fd858561203d565b90506107098582612078565b8414610771576040517f08c379a000000000000000000000000000000000000000000000000000000000815260206004820152601460248201527f494e56414c49445f544f54414c5f414d4f554e5400000000000000000000000060448201526064016106e8565b60005b8581101561082c576107ad33888884818110610792576107926120b5565b90506020020160208101906107a79190611e0b565b84611648565b8686828181106107bf576107bf6120b5565b90506020020160208101906107d49190611e0b565b73ffffffffffffffffffffffffffffffffffffffff166108fc849081150290604051600060405180830381858888f19350505050158015610819573d6000803e3d6000fd5b5080610824816120e4565b915050610774565b5060019695505050505050565b600061084460015490565b905090565b3360009081526005602052604090205460ff166108c2576040517f08c379a000000000000000000000000000000000000000000000000000000000815260206004820152600e60248201527f4e4f545f415554484f52495a454400000000000000000000000000000000000060448201526064016106e8565b6108cc8282611896565b5050565b60006108dd848484611939565b5060019392505050565b60006108f4338686611648565b6040517fa4c0ed3600000000000000000000000000000000000000000000000000000000815273ffffffffffffffffffffffffffffffffffffffff86169063a4c0ed369061094c903390889088908890600401612166565b602060405180830381600087803b15801561096657600080fd5b505af115801561097a573d6000803e3d6000fd5b505050506040513d601f19601f8201168201806040525081019061099e919061219c565b95945050505050565b60006109b4338686611648565b6040517f9b6be06500000000000000000000000000000000000000000000000000000000815273ffffffffffffffffffffffffffffffffffffffff861690639b6be06590610a0e9033908a908990899089906004016121b9565b602060405180830381600087803b158015610a2857600080fd5b505af1158015610a3c573d6000803e3d6000fd5b505050506040513d601f19601f82011682018060405250810190610a60919061219c565b9695505050505050565b6000610662338484611648565b6000610a84868686611939565b6040517fa4c0ed3600000000000000000000000000000000000000000000000000000000815273ffffffffffffffffffffffffffffffffffffffff86169063a4c0ed3690610a0e908990889088908890600401612166565b6000610ae933868661153a565b6040517eba451f00000000000000000000000000000000000000000000000000000000815273ffffffffffffffffffffffffffffffffffffffff86169062ba451f9061094c903390889088908890600401612166565b73ffffffffffffffffffffffffffffffffffffffff8716610bbc576040517f08c379a000000000000000000000000000000000000000000000000000000000815260206004820152601460248201527f494e56414c49445f5a45524f5f4144445245535300000000000000000000000060448201526064016106e8565b73ffffffffffffffffffffffffffffffffffffffff87811660008181526004602090815260408083205481517f6e71edae12b1b97f4d1f60370fef10105fa2faae0126114a169c64845d6126c98185015280830195909552948b166060850152608084018a905260a0840185905260c08085018a90528151808603909101815260e0850190915280519101207f19010000000000000000000000000000000000000000000000000000000000006101008401527f00000000000000000000000000000000000000000000000000000000000000006101028401526101228301529061014201604080517fffffffffffffffffffffffffffffffffffffffffffffffffffffffffffffffe081840301815282825280516020918201206000845290830180835281905260ff8816918301919091526060820186905260808201859052915060019060a0016020604051602081039080840390855afa158015610d27573d6000803e3d6000fd5b5050506020604051035173ffffffffffffffffffffffffffffffffffffffff168973ffffffffffffffffffffffffffffffffffffffff1614610dc5576040517f08c379a000000000000000000000000000000000000000000000000000000000815260206004820152601160248201527f494e56414c49445f5349474e415455524500000000000000000000000000000060448201526064016106e8565b851580610dd25750854211155b610e38576040517f08c379a000000000000000000000000000000000000000000000000000000000815260206004820152600860248201527f544f4f5f4c41544500000000000000000000000000000000000000000000000060448201526064016106e8565b610e43826001612204565b73ffffffffffffffffffffffffffffffffffffffff8a16600090815260046020526040902055610e7489898961153a565b505050505050505050565b600073ffffffffffffffffffffffffffffffffffffffff8316301415610ec657507fffffffffffffffffffffffffffffffffffffffffffffffffffffffffffffffff61064f565b5073ffffffffffffffffffffffffffffffffffffffff918216600090815260036020908152604080832093909416825291909152205490565b600080610f0c853461203d565b9050610f188582612078565b3414610f80576040517f08c379a000000000000000000000000000000000000000000000000000000000815260206004820152601160248201527f494e56414c49445f4d53475f56414c554500000000000000000000000000000060448201526064016106e8565b848314610fe9576040517f08c379a000000000000000000000000000000000000000000000000000000000815260206004820152600f60248201527f4e4f545f53414d455f4c454e475448000000000000000000000000000000000060448201526064016106e8565b60005b8581101561082c5761103d3388888481811061100a5761100a6120b5565b905060200201602081019061101f9190611e0b565b878785818110611031576110316120b5565b90506020020135611648565b86868281811061104f5761104f6120b5565b90506020020160208101906110649190611e0b565b73ffffffffffffffffffffffffffffffffffffffff166108fc839081150290604051600060405180830381858888f193505050501580156110a9573d6000803e3d6000fd5b50806110b4816120e4565b915050610fec565b60005473ffffffffffffffffffffffffffffffffffffffff16331461113d576040517f08c379a000000000000000000000000000000000000000000000000000000000815260206004820152600e60248201527f4e4f545f415554484f52495a454400000000000000000000000000000000000060448201526064016106e8565b73ffffffffffffffffffffffffffffffffffffffff821660008181526005602090815260409182902080547fffffffffffffffffffffffffffffffffffffffffffffffffffffffffffffff00168515159081179091558251938452908301527f8ca5286ca61361caa1112bea7ae9f3a6963a05629399d1fd8fdb91c0e10cda22910160405180910390a15050565b60006111d8338484611648565b60405173ffffffffffffffffffffffffffffffffffffffff8416903480156108fc02916000818181858888f193505050501580156108dd573d6000803e3d6000fd5b60005473ffffffffffffffffffffffffffffffffffffffff16331461129b576040517f08c379a000000000000000000000000000000000000000000000000000000000815260206004820152600e60248201527f4e4f545f415554484f52495a454400000000000000000000000000000000000060448201526064016106e8565b6112a481611a8a565b50565b600080868514611313576040517f08c379a000000000000000000000000000000000000000000000000000000000815260206004820152601560248201527f544f4b454e5f4e4f545f53414d455f4c454e475448000000000000000000000060448201526064016106e8565b86831461137c576040517f08c379a000000000000000000000000000000000000000000000000000000000815260206004820152601360248201527f4554485f4e4f545f53414d455f4c454e4754480000000000000000000000000060448201526064016106e8565b60005b878110156114c257868682818110611399576113996120b5565b905060200201356000146113e4576113e4338a8a848181106113bd576113bd6120b5565b90506020020160208101906113d29190611e0b565b898985818110611031576110316120b5565b8484828181106113f6576113f66120b5565b905060200201356000146114b057888882818110611416576114166120b5565b905060200201602081019061142b9190611e0b565b73ffffffffffffffffffffffffffffffffffffffff166108fc868684818110611456576114566120b5565b905060200201359081150290604051600060405180830381858888f19350505050158015611488573d6000803e3d6000fd5b5084848281811061149b5761149b6120b5565b90506020020135826114ad9190612204565b91505b806114ba816120e4565b91505061137f565b5080341461152c576040517f08c379a000000000000000000000000000000000000000000000000000000000815260206004820152601160248201527f494e56414c49445f4d53475f56414c554500000000000000000000000000000060448201526064016106e8565b506001979650505050505050565b73ffffffffffffffffffffffffffffffffffffffff831615801590611574575073ffffffffffffffffffffffffffffffffffffffff821615155b6115da576040517f08c379a000000000000000000000000000000000000000000000000000000000815260206004820152601460248201527f494e56414c49445f5a45524f5f4144445245535300000000000000000000000060448201526064016106e8565b73ffffffffffffffffffffffffffffffffffffffff83811660008181526003602090815260408083209487168084529482529182902085905590518481527f8c5be1e5ebec7d5bd14f71427d1e84f3dd0314c0f7b2291e5b200ac8c7c3b925910160405180910390a3505050565b73ffffffffffffffffffffffffffffffffffffffff82166116c5576040517f08c379a000000000000000000000000000000000000000000000000000000000815260206004820152601460248201527f494e56414c49445f5a45524f5f4144445245535300000000000000000000000060448201526064016106e8565b73ffffffffffffffffffffffffffffffffffffffff8216301415611745576040517f08c379a000000000000000000000000000000000000000000000000000000000815260206004820152601460248201527f494e56414c49445f544849535f4144445245535300000000000000000000000060448201526064016106e8565b73ffffffffffffffffffffffffffffffffffffffff8316600090815260026020526040902054818110156117d5576040517f08c379a000000000000000000000000000000000000000000000000000000000815260206004820152601160248201527f4e4f545f454e4f5547485f544f4b454e5300000000000000000000000000000060448201526064016106e8565b6117df828261221c565b73ffffffffffffffffffffffffffffffffffffffff8086166000908152600260205260408082209390935590851681529081208054849290611822908490612204565b925050819055508273ffffffffffffffffffffffffffffffffffffffff168473ffffffffffffffffffffffffffffffffffffffff167fddf252ad1be2c89b69c2b068fc378daa952ba7f163c4a11628f55a4df523b3ef8460405161188891815260200190565b60405180910390a350505050565b80600160008282546118a89190612204565b909155505073ffffffffffffffffffffffffffffffffffffffff8216600090815260026020526040812080548392906118e2908490612204565b909155505060405181815273ffffffffffffffffffffffffffffffffffffffff8316906000907fddf252ad1be2c89b69c2b068fc378daa952ba7f163c4a11628f55a4df523b3ef9060200160405180910390a35050565b3373ffffffffffffffffffffffffffffffffffffffff841614801590611975575073ffffffffffffffffffffffffffffffffffffffff83163014155b15611a7a5773ffffffffffffffffffffffffffffffffffffffff831660009081526003602090815260408083203384529091529020547fffffffffffffffffffffffffffffffffffffffffffffffffffffffffffffffff8114611a785781811015611a3c576040517f08c379a000000000000000000000000000000000000000000000000000000000815260206004820152601760248201527f4e4f545f415554484f495a45445f414c4c4f57414e434500000000000000000060448201526064016106e8565b611a46828261221c565b73ffffffffffffffffffffffffffffffffffffffff851660009081526003602090815260408083203384529091529020555b505b611a85838383611648565b505050565b6000805460405173ffffffffffffffffffffffffffffffffffffffff808516939216917f8be0079c531659141344cd1fd0a4f28419497f9722a3daafe3b4186f6b6457e091a3600080547fffffffffffffffffffffffff00000000000000000000000000000000000000001673ffffffffffffffffffffffffffffffffffffffff92909216919091179055565b600060208284031215611b2957600080fd5b81357fffffffff0000000000000000000000000000000000000000000000000000000081168114611b5957600080fd5b9392505050565b600060208083528351808285015260005b81811015611b8d57858101830151858201604001528201611b71565b81811115611b9f576000604083870101525b50601f017fffffffffffffffffffffffffffffffffffffffffffffffffffffffffffffffe016929092016040019392505050565b73ffffffffffffffffffffffffffffffffffffffff811681146112a457600080fd5b60008060408385031215611c0857600080fd5b8235611c1381611bd3565b946020939093013593505050565b60008083601f840112611c3357600080fd5b50813567ffffffffffffffff811115611c4b57600080fd5b6020830191508360208260051b8501011115611c6657600080fd5b9250929050565b600080600060408486031215611c8257600080fd5b833567ffffffffffffffff811115611c9957600080fd5b611ca586828701611c21565b909790965060209590950135949350505050565b600080600060608486031215611cce57600080fd5b8335611cd981611bd3565b92506020840135611ce981611bd3565b929592945050506040919091013590565b60008083601f840112611d0c57600080fd5b50813567ffffffffffffffff811115611d2457600080fd5b602083019150836020828501011115611c6657600080fd5b60008060008060608587031215611d5257600080fd5b8435611d5d81611bd3565b935060208501359250604085013567ffffffffffffffff811115611d8057600080fd5b611d8c87828801611cfa565b95989497509550505050565b600080600080600060808688031215611db057600080fd5b8535611dbb81611bd3565b94506020860135611dcb81611bd3565b935060408601359250606086013567ffffffffffffffff811115611dee57600080fd5b611dfa88828901611cfa565b969995985093965092949392505050565b600060208284031215611e1d57600080fd5b8135611b5981611bd3565b600080600080600080600060e0888a031215611e4357600080fd5b8735611e4e81611bd3565b96506020880135611e5e81611bd3565b95506040880135945060608801359350608088013560ff81168114611e8257600080fd5b9699959850939692959460a0840135945060c09093013592915050565b60008060408385031215611eb257600080fd5b8235611ebd81611bd3565b91506020830135611ecd81611bd3565b809150509250929050565b60008060008060408587031215611eee57600080fd5b843567ffffffffffffffff80821115611f0657600080fd5b611f1288838901611c21565b90965094506020870135915080821115611f2b57600080fd5b50611d8c87828801611c21565b80151581146112a457600080fd5b60008060408385031215611f5957600080fd5b8235611f6481611bd3565b91506020830135611ecd81611f38565b60008060008060008060608789031215611f8d57600080fd5b863567ffffffffffffffff80821115611fa557600080fd5b611fb18a838b01611c21565b90985096506020890135915080821115611fca57600080fd5b611fd68a838b01611c21565b90965094506040890135915080821115611fef57600080fd5b50611ffc89828a01611c21565b979a9699509497509295939492505050565b7f4e487b7100000000000000000000000000000000000000000000000000000000600052601160045260246000fd5b600082612073577f4e487b7100000000000000000000000000000000000000000000000000000000600052601260045260246000fd5b500490565b6000817fffffffffffffffffffffffffffffffffffffffffffffffffffffffffffffffff04831182151516156120b0576120b061200e565b500290565b7f4e487b7100000000000000000000000000000000000000000000000000000000600052603260045260246000fd5b60007fffffffffffffffffffffffffffffffffffffffffffffffffffffffffffffffff8214156121165761211661200e565b5060010190565b8183528181602085013750600060208284010152600060207fffffffffffffffffffffffffffffffffffffffffffffffffffffffffffffffe0601f840116840101905092915050565b73ffffffffffffffffffffffffffffffffffffffff85168152836020820152606060408201526000610a6060608301848661211d565b6000602082840312156121ae57600080fd5b8151611b5981611f38565b600073ffffffffffffffffffffffffffffffffffffffff8088168352808716602084015250846040830152608060608301526121f960808301848661211d565b979650505050505050565b600082198211156122175761221761200e565b500190565b60008282101561222e5761222e61200e565b50039056fea2646970667358221220df9af8ecbd6b53b03f205beac11eb5aad77327b8620b6efd3ca531373e0099cb64736f6c63430008090033",
  "devdoc": {
    "kind": "dev",
    "methods": {
      "allowance(address,address)": {
        "details": "Returns the remaining number of tokens that `spender` will be allowed to spend on behalf of `owner` through {transferFrom}. This is zero by default. This value changes when {approve} or {transferFrom} are called."
      },
      "approve(address,uint256)": {
        "details": "Sets `amount` as the allowance of `spender` over the caller's tokens. Returns a boolean value indicating whether the operation succeeded. IMPORTANT: Beware that changing an allowance with this method brings the risk that someone may use both the old and the new allowance by unfortunate transaction ordering. One possible solution to mitigate this race condition is to first reduce the spender's allowance to 0 and set the desired value afterwards: https://github.com/ethereum/EIPs/issues/20#issuecomment-263524729 Emits an {Approval} event."
      },
      "totalSupply()": {
        "details": "Returns the amount of tokens in existence."
      }
    },
    "version": 1
  },
  "userdoc": {
    "kind": "user",
    "methods": {},
    "version": 1
  },
  "storageLayout": {
    "storage": [
      {
        "astId": 13863,
        "contract": "src/conquest_token/ConquestCredits.sol:ConquestCredits",
        "label": "owner",
        "offset": 0,
        "slot": "0",
        "type": "t_address"
      },
      {
        "astId": 12861,
        "contract": "src/conquest_token/ConquestCredits.sol:ConquestCredits",
        "label": "_totalSupply",
        "offset": 0,
        "slot": "1",
        "type": "t_uint256"
      },
      {
        "astId": 12865,
        "contract": "src/conquest_token/ConquestCredits.sol:ConquestCredits",
        "label": "_balances",
        "offset": 0,
        "slot": "2",
        "type": "t_mapping(t_address,t_uint256)"
      },
      {
        "astId": 12871,
        "contract": "src/conquest_token/ConquestCredits.sol:ConquestCredits",
        "label": "_allowances",
        "offset": 0,
        "slot": "3",
        "type": "t_mapping(t_address,t_mapping(t_address,t_uint256))"
      },
      {
        "astId": 13695,
        "contract": "src/conquest_token/ConquestCredits.sol:ConquestCredits",
        "label": "_nonces",
        "offset": 0,
        "slot": "4",
        "type": "t_mapping(t_address,t_uint256)"
      },
      {
        "astId": 13957,
        "contract": "src/conquest_token/ConquestCredits.sol:ConquestCredits",
        "label": "generators",
        "offset": 0,
        "slot": "5",
        "type": "t_mapping(t_address,t_bool)"
      }
    ],
    "types": {
      "t_address": {
        "encoding": "inplace",
        "label": "address",
        "numberOfBytes": "20"
      },
      "t_bool": {
        "encoding": "inplace",
        "label": "bool",
        "numberOfBytes": "1"
      },
      "t_mapping(t_address,t_bool)": {
        "encoding": "mapping",
        "key": "t_address",
        "label": "mapping(address => bool)",
        "numberOfBytes": "32",
        "value": "t_bool"
      },
      "t_mapping(t_address,t_mapping(t_address,t_uint256))": {
        "encoding": "mapping",
        "key": "t_address",
        "label": "mapping(address => mapping(address => uint256))",
        "numberOfBytes": "32",
        "value": "t_mapping(t_address,t_uint256)"
      },
      "t_mapping(t_address,t_uint256)": {
        "encoding": "mapping",
        "key": "t_address",
        "label": "mapping(address => uint256)",
        "numberOfBytes": "32",
        "value": "t_uint256"
      },
      "t_uint256": {
        "encoding": "inplace",
        "label": "uint256",
        "numberOfBytes": "32"
      }
    }
  }
}