{
  "address": "0x16Ae647736389D9723669aeF545F92D585A93a16",
  "abi": [
    {
      "inputs": [
        {
          "internalType": "contract PlayToken",
          "name": "underlyingToken",
          "type": "address"
        },
        {
          "internalType": "address",
          "name": "initialAdmin",
          "type": "address"
        }
      ],
      "stateMutability": "nonpayable",
      "type": "constructor"
    },
    {
      "anonymous": false,
      "inputs": [
        {
          "indexed": false,
          "internalType": "address",
          "name": "account",
          "type": "address"
        }
      ],
      "name": "Admin",
      "type": "event"
    },
    {
      "anonymous": false,
      "inputs": [
        {
          "indexed": true,
          "internalType": "address",
          "name": "owner",
          "type": "address"
        },
        {
          "indexed": true,
          "internalType": "address",
          "name": "spender",
          "type": "address"
        },
        {
          "indexed": false,
          "internalType": "uint256",
          "name": "value",
          "type": "uint256"
        }
      ],
      "name": "Approval",
      "type": "event"
    },
    {
      "anonymous": false,
      "inputs": [
        {
          "indexed": false,
          "internalType": "address",
          "name": "burner",
          "type": "address"
        },
        {
          "indexed": false,
          "internalType": "bool",
          "name": "enabled",
          "type": "bool"
        }
      ],
      "name": "Burner",
      "type": "event"
    },
    {
      "anonymous": false,
      "inputs": [
        {
          "indexed": false,
          "internalType": "address",
          "name": "burner",
          "type": "address"
        },
        {
          "indexed": false,
          "internalType": "bool",
          "name": "enabled",
          "type": "bool"
        }
      ],
      "name": "Minter",
      "type": "event"
    },
    {
      "anonymous": false,
      "inputs": [
        {
          "indexed": true,
          "internalType": "address",
          "name": "from",
          "type": "address"
        },
        {
          "indexed": true,
          "internalType": "address",
          "name": "to",
          "type": "address"
        },
        {
          "indexed": false,
          "internalType": "uint256",
          "name": "value",
          "type": "uint256"
        }
      ],
      "name": "Transfer",
      "type": "event"
    },
    {
      "inputs": [],
      "name": "DOMAIN_SEPARATOR",
      "outputs": [
        {
          "internalType": "bytes32",
          "name": "",
          "type": "bytes32"
        }
      ],
      "stateMutability": "view",
      "type": "function"
    },
    {
      "inputs": [],
      "name": "admin",
      "outputs": [
        {
          "internalType": "address",
          "name": "",
          "type": "address"
        }
      ],
      "stateMutability": "view",
      "type": "function"
    },
    {
      "inputs": [
        {
          "internalType": "address",
          "name": "owner",
          "type": "address"
        },
        {
          "internalType": "address",
          "name": "spender",
          "type": "address"
        }
      ],
      "name": "allowance",
      "outputs": [
        {
          "internalType": "uint256",
          "name": "",
          "type": "uint256"
        }
      ],
      "stateMutability": "view",
      "type": "function"
    },
    {
      "inputs": [
        {
          "internalType": "address",
          "name": "spender",
          "type": "address"
        },
        {
          "internalType": "uint256",
          "name": "amount",
          "type": "uint256"
        }
      ],
      "name": "approve",
      "outputs": [
        {
          "internalType": "bool",
          "name": "",
          "type": "bool"
        }
      ],
      "stateMutability": "nonpayable",
      "type": "function"
    },
    {
      "inputs": [
        {
          "internalType": "address",
          "name": "spender",
          "type": "address"
        },
        {
          "internalType": "uint256",
          "name": "amount",
          "type": "uint256"
        },
        {
          "internalType": "bytes",
          "name": "data",
          "type": "bytes"
        }
      ],
      "name": "approveAndCall",
      "outputs": [
        {
          "internalType": "bool",
          "name": "",
          "type": "bool"
        }
      ],
      "stateMutability": "nonpayable",
      "type": "function"
    },
    {
      "inputs": [
        {
          "internalType": "address",
          "name": "owner",
          "type": "address"
        }
      ],
      "name": "balanceOf",
      "outputs": [
        {
          "internalType": "uint256",
          "name": "",
          "type": "uint256"
        }
      ],
      "stateMutability": "view",
      "type": "function"
    },
    {
      "inputs": [
        {
          "internalType": "address",
          "name": "from",
          "type": "address"
        },
        {
          "internalType": "address",
          "name": "to",
          "type": "address"
        },
        {
          "internalType": "uint256",
          "name": "amount",
          "type": "uint256"
        }
      ],
      "name": "burn",
      "outputs": [],
      "stateMutability": "nonpayable",
      "type": "function"
    },
    {
      "inputs": [
        {
          "components": [
            {
              "internalType": "address",
              "name": "from",
              "type": "address"
            },
            {
              "internalType": "uint256",
              "name": "amount",
              "type": "uint256"
            }
          ],
          "internalType": "struct IFreePlayToken.BurnFrom[]",
          "name": "list",
          "type": "tuple[]"
        },
        {
          "internalType": "address",
          "name": "to",
          "type": "address"
        }
      ],
      "name": "burnMultiple",
      "outputs": [],
      "stateMutability": "nonpayable",
      "type": "function"
    },
    {
      "inputs": [
        {
          "internalType": "address",
          "name": "",
          "type": "address"
        }
      ],
      "name": "burners",
      "outputs": [
        {
          "internalType": "bool",
          "name": "",
          "type": "bool"
        }
      ],
      "stateMutability": "view",
      "type": "function"
    },
    {
      "inputs": [],
      "name": "decimals",
      "outputs": [
        {
          "internalType": "uint8",
          "name": "",
          "type": "uint8"
        }
      ],
      "stateMutability": "pure",
      "type": "function"
    },
    {
      "inputs": [
        {
          "internalType": "address payable[]",
          "name": "tos",
          "type": "address[]"
        },
        {
          "internalType": "uint256",
          "name": "totalAmount",
          "type": "uint256"
        }
      ],
      "name": "distributeAlongWithETH",
      "outputs": [
        {
          "internalType": "bool",
          "name": "",
          "type": "bool"
        }
      ],
      "stateMutability": "payable",
      "type": "function"
    },
    {
      "inputs": [
        {
          "internalType": "address payable[]",
          "name": "tos",
          "type": "address[]"
        },
        {
          "internalType": "uint256[]",
          "name": "amounts",
          "type": "uint256[]"
        }
      ],
      "name": "distributeVariousAmountsAlongWithETH",
      "outputs": [
        {
          "internalType": "bool",
          "name": "",
          "type": "bool"
        }
      ],
      "stateMutability": "payable",
      "type": "function"
    },
    {
      "inputs": [
        {
          "internalType": "address payable[]",
          "name": "tos",
          "type": "address[]"
        },
        {
          "internalType": "uint256[]",
          "name": "tokenAmounts",
          "type": "uint256[]"
        },
        {
          "internalType": "uint256[]",
          "name": "etherAmounts",
          "type": "uint256[]"
        }
      ],
      "name": "distributeVariousAmountsOfTokenAndETH",
      "outputs": [
        {
          "internalType": "bool",
          "name": "",
          "type": "bool"
        }
      ],
      "stateMutability": "payable",
      "type": "function"
    },
    {
      "inputs": [
        {
          "internalType": "address",
          "name": "from",
          "type": "address"
        },
        {
          "internalType": "address",
          "name": "to",
          "type": "address"
        },
        {
          "internalType": "uint256",
          "name": "amount",
          "type": "uint256"
        }
      ],
      "name": "mint",
      "outputs": [],
      "stateMutability": "nonpayable",
      "type": "function"
    },
    {
      "inputs": [
        {
          "internalType": "address payable[]",
          "name": "tos",
          "type": "address[]"
        },
        {
          "internalType": "uint256[]",
          "name": "amounts",
          "type": "uint256[]"
        },
        {
          "internalType": "uint256[]",
          "name": "nativeTokenAmounts",
          "type": "uint256[]"
        }
      ],
      "name": "mintMultipleViaNativeTokenPlusSendExtraNativeTokens",
      "outputs": [],
      "stateMutability": "payable",
      "type": "function"
    },
    {
      "inputs": [
        {
          "internalType": "address",
          "name": "to",
          "type": "address"
        },
        {
          "internalType": "uint256",
          "name": "amount",
          "type": "uint256"
        }
      ],
      "name": "mintViaNativeToken",
      "outputs": [],
      "stateMutability": "payable",
      "type": "function"
    },
    {
      "inputs": [
        {
          "internalType": "address payable",
          "name": "to",
          "type": "address"
        },
        {
          "internalType": "uint256",
          "name": "amount",
          "type": "uint256"
        }
      ],
      "name": "mintViaNativeTokenPlusSendExtraNativeTokens",
      "outputs": [],
      "stateMutability": "payable",
      "type": "function"
    },
    {
      "inputs": [
        {
          "internalType": "address",
          "name": "",
          "type": "address"
        }
      ],
      "name": "minters",
      "outputs": [
        {
          "internalType": "bool",
          "name": "",
          "type": "bool"
        }
      ],
      "stateMutability": "view",
      "type": "function"
    },
    {
      "inputs": [],
      "name": "name",
      "outputs": [
        {
          "internalType": "string",
          "name": "",
          "type": "string"
        }
      ],
      "stateMutability": "pure",
      "type": "function"
    },
    {
      "inputs": [
        {
          "internalType": "address",
          "name": "owner",
          "type": "address"
        }
      ],
      "name": "nonces",
      "outputs": [
        {
          "internalType": "uint256",
          "name": "",
          "type": "uint256"
        }
      ],
      "stateMutability": "view",
      "type": "function"
    },
    {
      "inputs": [
        {
          "internalType": "address",
          "name": "forAddress",
          "type": "address"
        },
        {
          "internalType": "address",
          "name": "to",
          "type": "address"
        },
        {
          "internalType": "uint256",
          "name": "amount",
          "type": "uint256"
        },
        {
          "internalType": "bytes",
          "name": "data",
          "type": "bytes"
        }
      ],
      "name": "payForAndCall",
      "outputs": [
        {
          "internalType": "bool",
          "name": "",
          "type": "bool"
        }
      ],
      "stateMutability": "nonpayable",
      "type": "function"
    },
    {
      "inputs": [
        {
          "internalType": "address",
          "name": "owner",
          "type": "address"
        },
        {
          "internalType": "address",
          "name": "spender",
          "type": "address"
        },
        {
          "internalType": "uint256",
          "name": "value",
          "type": "uint256"
        },
        {
          "internalType": "uint256",
          "name": "deadline",
          "type": "uint256"
        },
        {
          "internalType": "uint8",
          "name": "v",
          "type": "uint8"
        },
        {
          "internalType": "bytes32",
          "name": "r",
          "type": "bytes32"
        },
        {
          "internalType": "bytes32",
          "name": "s",
          "type": "bytes32"
        }
      ],
      "name": "permit",
      "outputs": [],
      "stateMutability": "nonpayable",
      "type": "function"
    },
    {
      "inputs": [
        {
          "internalType": "contract PlayToken",
          "name": "underlyingToken",
          "type": "address"
        },
        {
          "internalType": "address",
          "name": "initialAdmin",
          "type": "address"
        }
      ],
      "name": "postUpgrade",
      "outputs": [],
      "stateMutability": "nonpayable",
      "type": "function"
    },
    {
      "inputs": [
        {
          "internalType": "address",
          "name": "newAdmin",
          "type": "address"
        }
      ],
      "name": "setAdmin",
      "outputs": [],
      "stateMutability": "nonpayable",
      "type": "function"
    },
    {
      "inputs": [
        {
          "internalType": "address",
          "name": "burner",
          "type": "address"
        },
        {
          "internalType": "bool",
          "name": "enabled",
          "type": "bool"
        }
      ],
      "name": "setBurner",
      "outputs": [],
      "stateMutability": "nonpayable",
      "type": "function"
    },
    {
      "inputs": [
        {
          "internalType": "address",
          "name": "minter",
          "type": "address"
        },
        {
          "internalType": "bool",
          "name": "enabled",
          "type": "bool"
        }
      ],
      "name": "setMinter",
      "outputs": [],
      "stateMutability": "nonpayable",
      "type": "function"
    },
    {
      "inputs": [],
      "name": "symbol",
      "outputs": [
        {
          "internalType": "string",
          "name": "",
          "type": "string"
        }
      ],
      "stateMutability": "view",
      "type": "function"
    },
    {
      "inputs": [],
      "name": "totalSupply",
      "outputs": [
        {
          "internalType": "uint256",
          "name": "",
          "type": "uint256"
        }
      ],
      "stateMutability": "view",
      "type": "function"
    },
    {
      "inputs": [
        {
          "internalType": "address",
          "name": "to",
          "type": "address"
        },
        {
          "internalType": "uint256",
          "name": "amount",
          "type": "uint256"
        }
      ],
      "name": "transfer",
      "outputs": [
        {
          "internalType": "bool",
          "name": "",
          "type": "bool"
        }
      ],
      "stateMutability": "nonpayable",
      "type": "function"
    },
    {
      "inputs": [
        {
          "internalType": "address payable",
          "name": "to",
          "type": "address"
        },
        {
          "internalType": "uint256",
          "name": "amount",
          "type": "uint256"
        }
      ],
      "name": "transferAlongWithETH",
      "outputs": [
        {
          "internalType": "bool",
          "name": "",
          "type": "bool"
        }
      ],
      "stateMutability": "payable",
      "type": "function"
    },
    {
      "inputs": [
        {
          "internalType": "address",
          "name": "to",
          "type": "address"
        },
        {
          "internalType": "uint256",
          "name": "amount",
          "type": "uint256"
        },
        {
          "internalType": "bytes",
          "name": "data",
          "type": "bytes"
        }
      ],
      "name": "transferAndCall",
      "outputs": [
        {
          "internalType": "bool",
          "name": "",
          "type": "bool"
        }
      ],
      "stateMutability": "nonpayable",
      "type": "function"
    },
    {
      "inputs": [
        {
          "internalType": "address",
          "name": "from",
          "type": "address"
        },
        {
          "internalType": "address",
          "name": "to",
          "type": "address"
        },
        {
          "internalType": "uint256",
          "name": "amount",
          "type": "uint256"
        }
      ],
      "name": "transferFrom",
      "outputs": [
        {
          "internalType": "bool",
          "name": "",
          "type": "bool"
        }
      ],
      "stateMutability": "nonpayable",
      "type": "function"
    },
    {
      "inputs": [
        {
          "internalType": "address",
          "name": "from",
          "type": "address"
        },
        {
          "internalType": "address",
          "name": "to",
          "type": "address"
        },
        {
          "internalType": "uint256",
          "name": "amount",
          "type": "uint256"
        },
        {
          "internalType": "bytes",
          "name": "data",
          "type": "bytes"
        }
      ],
      "name": "transferFromAndCall",
      "outputs": [
        {
          "internalType": "bool",
          "name": "",
          "type": "bool"
        }
      ],
      "stateMutability": "nonpayable",
      "type": "function"
    }
  ],
  "transactionHash": "0x8d7bed33c1767440c1b3b1fc5c19219cc8eaf7c7a9ad7744e7747655d307317e",
  "args": [
    "0x82c5e490B111fCF56663535D94125937b182eC4E",
    "0x61c461EcC993aaDEB7e4b47E96d1B8cC37314B20"
  ],
  "numDeployments": 1,
  "solcInputHash": "7accb0268a1a4caad55c0810eccc1dc6",
  "bytecode": "0x60c06040523480156200001157600080fd5b506040516200361838038062003618833981016040819052620000349162000184565b6040805180820190915260018152603160f81b60208201527f91ab3d17e3a50a9d89e63fd30b92be7f5336b03b287bb946787a83a9d62a2766620000946040805180820190915260098152684672656520506c617960b81b602082015290565b8051602091820120835184830120604080519384019490945292820152606081019190915230608082015260a00160408051601f198184030181529190528051602090910120608052506001600160a01b03821660a052620000f78282620000ff565b5050620001c3565b6006546001600160a01b038281169116146200016757600680546001600160a01b0319166001600160a01b0383169081179091556040519081527f33b005d053f740768cddf56d4aae11b8b1fb294e749565266b2f2b20e80e9cdf9060200160405180910390a15b5050565b6001600160a01b03811681146200018157600080fd5b50565b600080604083850312156200019857600080fd5b8251620001a5816200016b565b6020840151909250620001b8816200016b565b809150509250929050565b60805160a0516133f7620002216000396000818161080a01528181610cae01528181610f690152818161106e015281816111b70152818161128d015281816116370152611e40015260008181610379015261190601526133f76000f3fe6080604052600436106101fe5760003560e01c806389e7b3d31161011d578063cf456ae7116100b0578063e7fcb0651161007f578063f6b911bc11610064578063f6b911bc14610659578063f851a44014610679578063fc72b976146106cb57600080fd5b8063e7fcb06514610616578063f46eccc41461062957600080fd5b8063cf456ae7146105a3578063d505accf146105c3578063dd62ed3e146105e3578063df752eed1461060357600080fd5b8063c095064c116100ec578063c095064c14610523578063c1d34b8914610543578063c6c3bbe614610563578063cae9ca511461058357600080fd5b806389e7b3d3146104945780638c408be0146104a757806395d89b41146104ba578063a9059cbb1461050357600080fd5b8063313ce5671161019557806363d994c71161016457806363d994c7146103ce578063704b6c02146103ee57806370a082311461040e5780637ecebe001461045157600080fd5b8063313ce5671461034b5780633644e515146103675780634000aea01461039b5780635ecb2d3f146103bb57600080fd5b80630d895ee1116101d15780630d895ee1146102d95780630e02df54146102f957806318160ddd1461030c57806323b872dd1461032b57600080fd5b806303d41e0e14610203578063057111fa1461024857806306fdde031461026a578063095ea7b3146102b9575b600080fd5b34801561020f57600080fd5b5061023361021e366004612c56565b60056020526000908152604090205460ff1681565b60405190151581526020015b60405180910390f35b34801561025457600080fd5b50610268610263366004612c73565b6106de565b005b34801561027657600080fd5b5060408051808201909152600981527f4672656520506c6179000000000000000000000000000000000000000000000060208201525b60405161023f9190612d25565b3480156102c557600080fd5b506102336102d4366004612d76565b610837565b3480156102e557600080fd5b506102686102f4366004612db0565b61084e565b610233610307366004612e35565b61095e565b34801561031857600080fd5b506000545b60405190815260200161023f565b34801561033757600080fd5b50610233610346366004612e81565b610b29565b34801561035757600080fd5b506040516012815260200161023f565b34801561037357600080fd5b5061031d7f000000000000000000000000000000000000000000000000000000000000000081565b3480156103a757600080fd5b506102336103b6366004612f04565b610b40565b6102686103c9366004612d76565b610c00565b3480156103da57600080fd5b506102336103e9366004612f60565b610d2f565b3480156103fa57600080fd5b50610268610409366004612c56565b610df2565b34801561041a57600080fd5b5061031d610429366004612c56565b73ffffffffffffffffffffffffffffffffffffffff1660009081526001602052604090205490565b34801561045d57600080fd5b5061031d61046c366004612c56565b73ffffffffffffffffffffffffffffffffffffffff1660009081526003602052604090205490565b6102686104a2366004612d76565b610eec565b6102686104b5366004612fd3565b61112f565b3480156104c657600080fd5b506102ac6040518060400160405280600581526020017f46504c415900000000000000000000000000000000000000000000000000000081525081565b34801561050f57600080fd5b5061023361051e366004612d76565b611472565b34801561052f57600080fd5b5061026861053e36600461306d565b61147f565b34801561054f57600080fd5b5061023361055e366004612f60565b61153f565b34801561056f57600080fd5b5061026861057e366004612e81565b6115a4565b34801561058f57600080fd5b5061023361059e366004612f04565b611669565b3480156105af57600080fd5b506102686105be366004612db0565b6116cc565b3480156105cf57600080fd5b506102686105de36600461309b565b6117d4565b3480156105ef57600080fd5b5061031d6105fe36600461306d565b611b14565b610233610611366004613112565b611b94565b610233610624366004612d76565b611d5e565b34801561063557600080fd5b50610233610644366004612c56565b60046020526000908152604090205460ff1681565b34801561066557600080fd5b50610268610674366004612e81565b611dad565b34801561068557600080fd5b506006546106a69073ffffffffffffffffffffffffffffffffffffffff1681565b60405173ffffffffffffffffffffffffffffffffffffffff909116815260200161023f565b6102336106d9366004612fd3565b611e71565b3360009081526005602052604090205460ff1661075c576040517f08c379a000000000000000000000000000000000000000000000000000000000815260206004820152601260248201527f4e4f545f414c4c4f5745445f4255524e4552000000000000000000000000000060448201526064015b60405180910390fd5b6000805b838110156107ef5784848281811061077a5761077a613172565b905060400201602001358261078f91906131d0565b91506107dd8585838181106107a6576107a6613172565b6107bc9260206040909202019081019150612c56565b8686848181106107ce576107ce613172565b90506040020160200135612104565b806107e7816131e8565b915050610760565b5061083173ffffffffffffffffffffffffffffffffffffffff7f0000000000000000000000000000000000000000000000000000000000000000168383612232565b50505050565b6000610844338484612306565b5060015b92915050565b60065473ffffffffffffffffffffffffffffffffffffffff1633146108cf576040517f08c379a000000000000000000000000000000000000000000000000000000000815260206004820152601160248201527f4e4f545f414c4c4f5745445f41444d494e0000000000000000000000000000006044820152606401610753565b73ffffffffffffffffffffffffffffffffffffffff821660008181526005602090815260409182902080547fffffffffffffffffffffffffffffffffffffffffffffffffffffffffffffff00168515159081179091558251938452908301527f040d3bc1fde94a77c901458220b45017a7a53cbc579f707787d918b325a0ca1991015b60405180910390a15050565b60008061096b8434613221565b9050610977848261325c565b34146109df576040517f08c379a000000000000000000000000000000000000000000000000000000000815260206004820152601160248201527f494e56414c49445f4d53475f56414c55450000000000000000000000000000006044820152606401610753565b60006109eb8585613221565b90506109f7858261325c565b8414610a5f576040517f08c379a000000000000000000000000000000000000000000000000000000000815260206004820152601460248201527f494e56414c49445f544f54414c5f414d4f554e540000000000000000000000006044820152606401610753565b60005b85811015610b1a57610a9b33888884818110610a8057610a80613172565b9050602002016020810190610a959190612c56565b8461240c565b868682818110610aad57610aad613172565b9050602002016020810190610ac29190612c56565b73ffffffffffffffffffffffffffffffffffffffff166108fc849081150290604051600060405180830381858888f19350505050158015610b07573d6000803e3d6000fd5b5080610b12816131e8565b915050610a62565b506001925050505b9392505050565b6000610b3684848461265a565b5060019392505050565b6000610b4d33868661240c565b6040517fa4c0ed3600000000000000000000000000000000000000000000000000000000815273ffffffffffffffffffffffffffffffffffffffff86169063a4c0ed3690610ba59033908890889088906004016132e2565b602060405180830381600087803b158015610bbf57600080fd5b505af1158015610bd3573d6000803e3d6000fd5b505050506040513d601f19601f82011682018060405250810190610bf79190613318565b95945050505050565b3360009081526004602052604090205460ff16610c79576040517f08c379a000000000000000000000000000000000000000000000000000000000815260206004820152601260248201527f4e4f545f414c4c4f5745445f4d494e54455200000000000000000000000000006044820152606401610753565b6040517f40c10f19000000000000000000000000000000000000000000000000000000008152306004820152602481018290527f000000000000000000000000000000000000000000000000000000000000000073ffffffffffffffffffffffffffffffffffffffff16906340c10f199034906044016000604051808303818588803b158015610d0857600080fd5b505af1158015610d1c573d6000803e3d6000fd5b5050505050610d2b82826127a6565b5050565b6000610d3c33868661240c565b6040517f9b6be06500000000000000000000000000000000000000000000000000000000815273ffffffffffffffffffffffffffffffffffffffff861690639b6be06590610d969033908a90899089908990600401613335565b602060405180830381600087803b158015610db057600080fd5b505af1158015610dc4573d6000803e3d6000fd5b505050506040513d601f19601f82011682018060405250810190610de89190613318565b9695505050505050565b60065473ffffffffffffffffffffffffffffffffffffffff163314610e73576040517f08c379a000000000000000000000000000000000000000000000000000000000815260206004820152601160248201527f4e4f545f414c4c4f5745445f41444d494e0000000000000000000000000000006044820152606401610753565b600680547fffffffffffffffffffffffff00000000000000000000000000000000000000001673ffffffffffffffffffffffffffffffffffffffff83169081179091556040519081527f33b005d053f740768cddf56d4aae11b8b1fb294e749565266b2f2b20e80e9cdf9060200160405180910390a150565b3360009081526004602052604090205460ff16610f65576040517f08c379a000000000000000000000000000000000000000000000000000000000815260206004820152601260248201527f4e4f545f414c4c4f5745445f4d494e54455200000000000000000000000000006044820152606401610753565b60007f000000000000000000000000000000000000000000000000000000000000000073ffffffffffffffffffffffffffffffffffffffff1663a835106e6040518163ffffffff1660e01b815260040160206040518083038186803b158015610fcd57600080fd5b505afa158015610fe1573d6000803e3d6000fd5b505050506040513d601f19601f820116820180604052508101906110059190613375565b611017670de0b6b3a76400008461325c565b6110219190613221565b6040517f40c10f190000000000000000000000000000000000000000000000000000000081523060048201526024810184905290915073ffffffffffffffffffffffffffffffffffffffff7f000000000000000000000000000000000000000000000000000000000000000016906340c10f199083906044016000604051808303818588803b1580156110b357600080fd5b505af11580156110c7573d6000803e3d6000fd5b50505050506110d683836127a6565b8034111561112a5773ffffffffffffffffffffffffffffffffffffffff83166108fc611102833461338e565b6040518115909202916000818181858888f19350505050158015610831573d6000803e3d6000fd5b505050565b3360009081526004602052604090205460ff166111a8576040517f08c379a000000000000000000000000000000000000000000000000000000000815260206004820152601260248201527f4e4f545f414c4c4f5745445f4d494e54455200000000000000000000000000006044820152606401610753565b60005b858110156114695760007f000000000000000000000000000000000000000000000000000000000000000073ffffffffffffffffffffffffffffffffffffffff1663a835106e6040518163ffffffff1660e01b815260040160206040518083038186803b15801561121b57600080fd5b505afa15801561122f573d6000803e3d6000fd5b505050506040513d601f19601f820116820180604052508101906112539190613375565b670de0b6b3a764000087878581811061126e5761126e613172565b9050602002013561127f919061325c565b6112899190613221565b90507f000000000000000000000000000000000000000000000000000000000000000073ffffffffffffffffffffffffffffffffffffffff166340c10f1982308989878181106112db576112db613172565b6040517fffffffff0000000000000000000000000000000000000000000000000000000060e088901b16815273ffffffffffffffffffffffffffffffffffffffff909416600485015260200291909101356024830152506044016000604051808303818588803b15801561134e57600080fd5b505af1158015611362573d6000803e3d6000fd5b50505050506113af88888481811061137c5761137c613172565b90506020020160208101906113919190612c56565b8787858181106113a3576113a3613172565b905060200201356127a6565b60008484848181106113c3576113c3613172565b905060200201351115611456578787838181106113e2576113e2613172565b90506020020160208101906113f79190612c56565b73ffffffffffffffffffffffffffffffffffffffff166108fc85858581811061142257611422613172565b905060200201359081150290604051600060405180830381858888f19350505050158015611454573d6000803e3d6000fd5b505b5080611461816131e8565b9150506111ab565b50505050505050565b600061084433848461240c565b7fb53127684a568b3173ae13b9f8a6016e243e63b6e8ee1178d6a717850b5d61035473ffffffffffffffffffffffffffffffffffffffff163373ffffffffffffffffffffffffffffffffffffffff1614611535576040517f08c379a000000000000000000000000000000000000000000000000000000000815260206004820152600e60248201527f4e4f545f415554484f52495a45440000000000000000000000000000000000006044820152606401610753565b610d2b8282612848565b600061154c86868661265a565b6040517fa4c0ed3600000000000000000000000000000000000000000000000000000000815273ffffffffffffffffffffffffffffffffffffffff86169063a4c0ed3690610d969089908890889088906004016132e2565b3360009081526004602052604090205460ff1661161d576040517f08c379a000000000000000000000000000000000000000000000000000000000815260206004820152601260248201527f4e4f545f414c4c4f5745445f4d494e54455200000000000000000000000000006044820152606401610753565b61165f73ffffffffffffffffffffffffffffffffffffffff7f0000000000000000000000000000000000000000000000000000000000000000168430846128dd565b61112a82826127a6565b6000611676338686612306565b6040517eba451f00000000000000000000000000000000000000000000000000000000815273ffffffffffffffffffffffffffffffffffffffff86169062ba451f90610ba59033908890889088906004016132e2565b60065473ffffffffffffffffffffffffffffffffffffffff16331461174d576040517f08c379a000000000000000000000000000000000000000000000000000000000815260206004820152601160248201527f4e4f545f414c4c4f5745445f41444d494e0000000000000000000000000000006044820152606401610753565b73ffffffffffffffffffffffffffffffffffffffff821660008181526004602090815260409182902080547fffffffffffffffffffffffffffffffffffffffffffffffffffffffffffffff00168515159081179091558251938452908301527fff452b3b9159b024a9098f0058c63eccd90d36b3584608202800d662f962bb609101610952565b73ffffffffffffffffffffffffffffffffffffffff8716611851576040517f08c379a000000000000000000000000000000000000000000000000000000000815260206004820152601460248201527f494e56414c49445f5a45524f5f414444524553530000000000000000000000006044820152606401610753565b73ffffffffffffffffffffffffffffffffffffffff87811660008181526003602090815260408083205481517f6e71edae12b1b97f4d1f60370fef10105fa2faae0126114a169c64845d6126c98185015280830195909552948b166060850152608084018a905260a0840185905260c08085018a90528151808603909101815260e0850190915280519101207f19010000000000000000000000000000000000000000000000000000000000006101008401527f00000000000000000000000000000000000000000000000000000000000000006101028401526101228301529061014201604080517fffffffffffffffffffffffffffffffffffffffffffffffffffffffffffffffe081840301815282825280516020918201206000845290830180835281905260ff8816918301919091526060820186905260808201859052915060019060a0016020604051602081039080840390855afa1580156119bc573d6000803e3d6000fd5b5050506020604051035173ffffffffffffffffffffffffffffffffffffffff168973ffffffffffffffffffffffffffffffffffffffff1614611a5a576040517f08c379a000000000000000000000000000000000000000000000000000000000815260206004820152601160248201527f494e56414c49445f5349474e41545552450000000000000000000000000000006044820152606401610753565b851580611a675750854211155b611acd576040517f08c379a000000000000000000000000000000000000000000000000000000000815260206004820152600860248201527f544f4f5f4c4154450000000000000000000000000000000000000000000000006044820152606401610753565b611ad88260016131d0565b73ffffffffffffffffffffffffffffffffffffffff8a16600090815260036020526040902055611b09898989612306565b505050505050505050565b600073ffffffffffffffffffffffffffffffffffffffff8316301415611b5b57507fffffffffffffffffffffffffffffffffffffffffffffffffffffffffffffffff610848565b5073ffffffffffffffffffffffffffffffffffffffff918216600090815260026020908152604080832093909416825291909152205490565b600080611ba18534613221565b9050611bad858261325c565b3414611c15576040517f08c379a000000000000000000000000000000000000000000000000000000000815260206004820152601160248201527f494e56414c49445f4d53475f56414c55450000000000000000000000000000006044820152606401610753565b848314611c7e576040517f08c379a000000000000000000000000000000000000000000000000000000000815260206004820152600f60248201527f4e4f545f53414d455f4c454e47544800000000000000000000000000000000006044820152606401610753565b60005b85811015611d5157611cd233888884818110611c9f57611c9f613172565b9050602002016020810190611cb49190612c56565b878785818110611cc657611cc6613172565b9050602002013561240c565b868682818110611ce457611ce4613172565b9050602002016020810190611cf99190612c56565b73ffffffffffffffffffffffffffffffffffffffff166108fc839081150290604051600060405180830381858888f19350505050158015611d3e573d6000803e3d6000fd5b5080611d49816131e8565b915050611c81565b5060019695505050505050565b6000611d6b33848461240c565b60405173ffffffffffffffffffffffffffffffffffffffff8416903480156108fc02916000818181858888f19350505050158015610b36573d6000803e3d6000fd5b3360009081526005602052604090205460ff16611e26576040517f08c379a000000000000000000000000000000000000000000000000000000000815260206004820152601260248201527f4e4f545f414c4c4f5745445f4255524e455200000000000000000000000000006044820152606401610753565b611e6773ffffffffffffffffffffffffffffffffffffffff7f0000000000000000000000000000000000000000000000000000000000000000168383612232565b61112a8382612104565b600080868514611edd576040517f08c379a000000000000000000000000000000000000000000000000000000000815260206004820152601560248201527f544f4b454e5f4e4f545f53414d455f4c454e47544800000000000000000000006044820152606401610753565b868314611f46576040517f08c379a000000000000000000000000000000000000000000000000000000000815260206004820152601360248201527f4554485f4e4f545f53414d455f4c454e475448000000000000000000000000006044820152606401610753565b60005b8781101561208c57868682818110611f6357611f63613172565b90506020020135600014611fae57611fae338a8a84818110611f8757611f87613172565b9050602002016020810190611f9c9190612c56565b898985818110611cc657611cc6613172565b848482818110611fc057611fc0613172565b9050602002013560001461207a57888882818110611fe057611fe0613172565b9050602002016020810190611ff59190612c56565b73ffffffffffffffffffffffffffffffffffffffff166108fc86868481811061202057612020613172565b905060200201359081150290604051600060405180830381858888f19350505050158015612052573d6000803e3d6000fd5b5084848281811061206557612065613172565b905060200201358261207791906131d0565b91505b80612084816131e8565b915050611f49565b508034146120f6576040517f08c379a000000000000000000000000000000000000000000000000000000000815260206004820152601160248201527f494e56414c49445f4d53475f56414c55450000000000000000000000000000006044820152606401610753565b506001979650505050505050565b73ffffffffffffffffffffffffffffffffffffffff821660009081526001602052604090205481811015612194576040517f08c379a000000000000000000000000000000000000000000000000000000000815260206004820152601160248201527f4e4f545f454e4f5547485f544f4b454e530000000000000000000000000000006044820152606401610753565b61219e828261338e565b73ffffffffffffffffffffffffffffffffffffffff8416600090815260016020526040812091909155805483919081906121d990849061338e565b909155505060405182815260009073ffffffffffffffffffffffffffffffffffffffff8516907fddf252ad1be2c89b69c2b068fc378daa952ba7f163c4a11628f55a4df523b3ef906020015b60405180910390a3505050565b60405173ffffffffffffffffffffffffffffffffffffffff831660248201526044810182905261112a9084907fa9059cbb00000000000000000000000000000000000000000000000000000000906064015b604080517fffffffffffffffffffffffffffffffffffffffffffffffffffffffffffffffe08184030181529190526020810180517bffffffffffffffffffffffffffffffffffffffffffffffffffffffff167fffffffff000000000000000000000000000000000000000000000000000000009093169290921790915261293b565b73ffffffffffffffffffffffffffffffffffffffff831615801590612340575073ffffffffffffffffffffffffffffffffffffffff821615155b6123a6576040517f08c379a000000000000000000000000000000000000000000000000000000000815260206004820152601460248201527f494e56414c49445f5a45524f5f414444524553530000000000000000000000006044820152606401610753565b73ffffffffffffffffffffffffffffffffffffffff83811660008181526002602090815260408083209487168084529482529182902085905590518481527f8c5be1e5ebec7d5bd14f71427d1e84f3dd0314c0f7b2291e5b200ac8c7c3b9259101612225565b73ffffffffffffffffffffffffffffffffffffffff8216612489576040517f08c379a000000000000000000000000000000000000000000000000000000000815260206004820152601460248201527f494e56414c49445f5a45524f5f414444524553530000000000000000000000006044820152606401610753565b73ffffffffffffffffffffffffffffffffffffffff8216301415612509576040517f08c379a000000000000000000000000000000000000000000000000000000000815260206004820152601460248201527f494e56414c49445f544849535f414444524553530000000000000000000000006044820152606401610753565b73ffffffffffffffffffffffffffffffffffffffff831660009081526001602052604090205481811015612599576040517f08c379a000000000000000000000000000000000000000000000000000000000815260206004820152601160248201527f4e4f545f454e4f5547485f544f4b454e530000000000000000000000000000006044820152606401610753565b6125a3828261338e565b73ffffffffffffffffffffffffffffffffffffffff80861660009081526001602052604080822093909355908516815290812080548492906125e69084906131d0565b925050819055508273ffffffffffffffffffffffffffffffffffffffff168473ffffffffffffffffffffffffffffffffffffffff167fddf252ad1be2c89b69c2b068fc378daa952ba7f163c4a11628f55a4df523b3ef8460405161264c91815260200190565b60405180910390a350505050565b3373ffffffffffffffffffffffffffffffffffffffff841614801590612696575073ffffffffffffffffffffffffffffffffffffffff83163014155b1561279b5773ffffffffffffffffffffffffffffffffffffffff831660009081526002602090815260408083203384529091529020547fffffffffffffffffffffffffffffffffffffffffffffffffffffffffffffffff8114612799578181101561275d576040517f08c379a000000000000000000000000000000000000000000000000000000000815260206004820152601760248201527f4e4f545f415554484f495a45445f414c4c4f57414e43450000000000000000006044820152606401610753565b612767828261338e565b73ffffffffffffffffffffffffffffffffffffffff851660009081526002602090815260408083203384529091529020555b505b61112a83838361240c565b806000808282546127b791906131d0565b909155505073ffffffffffffffffffffffffffffffffffffffff8216600090815260016020526040812080548392906127f19084906131d0565b909155505060405181815273ffffffffffffffffffffffffffffffffffffffff8316906000907fddf252ad1be2c89b69c2b068fc378daa952ba7f163c4a11628f55a4df523b3ef9060200160405180910390a35050565b60065473ffffffffffffffffffffffffffffffffffffffff828116911614610d2b57600680547fffffffffffffffffffffffff00000000000000000000000000000000000000001673ffffffffffffffffffffffffffffffffffffffff83169081179091556040519081527f33b005d053f740768cddf56d4aae11b8b1fb294e749565266b2f2b20e80e9cdf90602001610952565b60405173ffffffffffffffffffffffffffffffffffffffff808516602483015283166044820152606481018290526108319085907f23b872dd0000000000000000000000000000000000000000000000000000000090608401612284565b600061299d826040518060400160405280602081526020017f5361666545524332303a206c6f772d6c6576656c2063616c6c206661696c65648152508573ffffffffffffffffffffffffffffffffffffffff16612a479092919063ffffffff16565b80519091501561112a57808060200190518101906129bb9190613318565b61112a576040517f08c379a000000000000000000000000000000000000000000000000000000000815260206004820152602a60248201527f5361666545524332303a204552433230206f7065726174696f6e20646964206e60448201527f6f742073756363656564000000000000000000000000000000000000000000006064820152608401610753565b6060612a568484600085612a5e565b949350505050565b606082471015612af0576040517f08c379a000000000000000000000000000000000000000000000000000000000815260206004820152602660248201527f416464726573733a20696e73756666696369656e742062616c616e636520666f60448201527f722063616c6c00000000000000000000000000000000000000000000000000006064820152608401610753565b843b612b58576040517f08c379a000000000000000000000000000000000000000000000000000000000815260206004820152601d60248201527f416464726573733a2063616c6c20746f206e6f6e2d636f6e74726163740000006044820152606401610753565b6000808673ffffffffffffffffffffffffffffffffffffffff168587604051612b8191906133a5565b60006040518083038185875af1925050503d8060008114612bbe576040519150601f19603f3d011682016040523d82523d6000602084013e612bc3565b606091505b5091509150612bd3828286612bde565b979650505050505050565b60608315612bed575081610b22565b825115612bfd5782518084602001fd5b816040517f08c379a00000000000000000000000000000000000000000000000000000000081526004016107539190612d25565b73ffffffffffffffffffffffffffffffffffffffff81168114612c5357600080fd5b50565b600060208284031215612c6857600080fd5b8135610b2281612c31565b600080600060408486031215612c8857600080fd5b833567ffffffffffffffff80821115612ca057600080fd5b818601915086601f830112612cb457600080fd5b813581811115612cc357600080fd5b8760208260061b8501011115612cd857600080fd5b60209283019550935050840135612cee81612c31565b809150509250925092565b60005b83811015612d14578181015183820152602001612cfc565b838111156108315750506000910152565b6020815260008251806020840152612d44816040850160208701612cf9565b601f017fffffffffffffffffffffffffffffffffffffffffffffffffffffffffffffffe0169190910160400192915050565b60008060408385031215612d8957600080fd5b8235612d9481612c31565b946020939093013593505050565b8015158114612c5357600080fd5b60008060408385031215612dc357600080fd5b8235612dce81612c31565b91506020830135612dde81612da2565b809150509250929050565b60008083601f840112612dfb57600080fd5b50813567ffffffffffffffff811115612e1357600080fd5b6020830191508360208260051b8501011115612e2e57600080fd5b9250929050565b600080600060408486031215612e4a57600080fd5b833567ffffffffffffffff811115612e6157600080fd5b612e6d86828701612de9565b909790965060209590950135949350505050565b600080600060608486031215612e9657600080fd5b8335612ea181612c31565b92506020840135612eb181612c31565b929592945050506040919091013590565b60008083601f840112612ed457600080fd5b50813567ffffffffffffffff811115612eec57600080fd5b602083019150836020828501011115612e2e57600080fd5b60008060008060608587031215612f1a57600080fd5b8435612f2581612c31565b935060208501359250604085013567ffffffffffffffff811115612f4857600080fd5b612f5487828801612ec2565b95989497509550505050565b600080600080600060808688031215612f7857600080fd5b8535612f8381612c31565b94506020860135612f9381612c31565b935060408601359250606086013567ffffffffffffffff811115612fb657600080fd5b612fc288828901612ec2565b969995985093965092949392505050565b60008060008060008060608789031215612fec57600080fd5b863567ffffffffffffffff8082111561300457600080fd5b6130108a838b01612de9565b9098509650602089013591508082111561302957600080fd5b6130358a838b01612de9565b9096509450604089013591508082111561304e57600080fd5b5061305b89828a01612de9565b979a9699509497509295939492505050565b6000806040838503121561308057600080fd5b823561308b81612c31565b91506020830135612dde81612c31565b600080600080600080600060e0888a0312156130b657600080fd5b87356130c181612c31565b965060208801356130d181612c31565b95506040880135945060608801359350608088013560ff811681146130f557600080fd5b9699959850939692959460a0840135945060c09093013592915050565b6000806000806040858703121561312857600080fd5b843567ffffffffffffffff8082111561314057600080fd5b61314c88838901612de9565b9096509450602087013591508082111561316557600080fd5b50612f5487828801612de9565b7f4e487b7100000000000000000000000000000000000000000000000000000000600052603260045260246000fd5b7f4e487b7100000000000000000000000000000000000000000000000000000000600052601160045260246000fd5b600082198211156131e3576131e36131a1565b500190565b60007fffffffffffffffffffffffffffffffffffffffffffffffffffffffffffffffff82141561321a5761321a6131a1565b5060010190565b600082613257577f4e487b7100000000000000000000000000000000000000000000000000000000600052601260045260246000fd5b500490565b6000817fffffffffffffffffffffffffffffffffffffffffffffffffffffffffffffffff0483118215151615613294576132946131a1565b500290565b8183528181602085013750600060208284010152600060207fffffffffffffffffffffffffffffffffffffffffffffffffffffffffffffffe0601f840116840101905092915050565b73ffffffffffffffffffffffffffffffffffffffff85168152836020820152606060408201526000610de8606083018486613299565b60006020828403121561332a57600080fd5b8151610b2281612da2565b600073ffffffffffffffffffffffffffffffffffffffff808816835280871660208401525084604083015260806060830152612bd3608083018486613299565b60006020828403121561338757600080fd5b5051919050565b6000828210156133a0576133a06131a1565b500390565b600082516133b7818460208701612cf9565b919091019291505056fea264697066735822122081150c93226e51a03dee8fad2004ff1baa7c7625146d4be997fbcd3f7c57f80364736f6c63430008090033",
  "devdoc": {
    "kind": "dev",
    "methods": {
      "allowance(address,address)": {
        "details": "Returns the remaining number of tokens that `spender` will be allowed to spend on behalf of `owner` through {transferFrom}. This is zero by default. This value changes when {approve} or {transferFrom} are called."
      },
      "approve(address,uint256)": {
        "details": "Sets `amount` as the allowance of `spender` over the caller's tokens. Returns a boolean value indicating whether the operation succeeded. IMPORTANT: Beware that changing an allowance with this method brings the risk that someone may use both the old and the new allowance by unfortunate transaction ordering. One possible solution to mitigate this race condition is to first reduce the spender's allowance to 0 and set the desired value afterwards: https://github.com/ethereum/EIPs/issues/20#issuecomment-263524729 Emits an {Approval} event."
      },
      "totalSupply()": {
        "details": "Returns the amount of tokens in existence."
      }
    },
    "version": 1
  },
  "userdoc": {
    "kind": "user",
    "methods": {},
    "version": 1
  },
  "storageLayout": {
    "storage": [
      {
        "astId": 11940,
        "contract": "src/conquest_token/FreePlayToken.sol:FreePlayToken",
        "label": "_totalSupply",
        "offset": 0,
        "slot": "0",
        "type": "t_uint256"
      },
      {
        "astId": 11944,
        "contract": "src/conquest_token/FreePlayToken.sol:FreePlayToken",
        "label": "_balances",
        "offset": 0,
        "slot": "1",
        "type": "t_mapping(t_address,t_uint256)"
      },
      {
        "astId": 11950,
        "contract": "src/conquest_token/FreePlayToken.sol:FreePlayToken",
        "label": "_allowances",
        "offset": 0,
        "slot": "2",
        "type": "t_mapping(t_address,t_mapping(t_address,t_uint256))"
      },
      {
        "astId": 12774,
        "contract": "src/conquest_token/FreePlayToken.sol:FreePlayToken",
        "label": "_nonces",
        "offset": 0,
        "slot": "3",
        "type": "t_mapping(t_address,t_uint256)"
      },
      {
        "astId": 13059,
        "contract": "src/conquest_token/FreePlayToken.sol:FreePlayToken",
        "label": "minters",
        "offset": 0,
        "slot": "4",
        "type": "t_mapping(t_address,t_bool)"
      },
      {
        "astId": 13063,
        "contract": "src/conquest_token/FreePlayToken.sol:FreePlayToken",
        "label": "burners",
        "offset": 0,
        "slot": "5",
        "type": "t_mapping(t_address,t_bool)"
      },
      {
        "astId": 13065,
        "contract": "src/conquest_token/FreePlayToken.sol:FreePlayToken",
        "label": "admin",
        "offset": 0,
        "slot": "6",
        "type": "t_address"
      }
    ],
    "types": {
      "t_address": {
        "encoding": "inplace",
        "label": "address",
        "numberOfBytes": "20"
      },
      "t_bool": {
        "encoding": "inplace",
        "label": "bool",
        "numberOfBytes": "1"
      },
      "t_mapping(t_address,t_bool)": {
        "encoding": "mapping",
        "key": "t_address",
        "label": "mapping(address => bool)",
        "numberOfBytes": "32",
        "value": "t_bool"
      },
      "t_mapping(t_address,t_mapping(t_address,t_uint256))": {
        "encoding": "mapping",
        "key": "t_address",
        "label": "mapping(address => mapping(address => uint256))",
        "numberOfBytes": "32",
        "value": "t_mapping(t_address,t_uint256)"
      },
      "t_mapping(t_address,t_uint256)": {
        "encoding": "mapping",
        "key": "t_address",
        "label": "mapping(address => uint256)",
        "numberOfBytes": "32",
        "value": "t_uint256"
      },
      "t_uint256": {
        "encoding": "inplace",
        "label": "uint256",
        "numberOfBytes": "32"
      }
    }
  }
}