{
  "address": "0x303c54b56ea9aa4318c4A27730aE13F972490Bf6",
  "abi": [
    {
      "inputs": [
        {
          "internalType": "address",
          "name": "initialRewardReceiver",
          "type": "address"
        },
        {
          "internalType": "contract RewardsGenerator",
          "name": "initialGenerator",
          "type": "address"
        },
        {
          "internalType": "contract IOuterSpace",
          "name": "initialOuterSpace",
          "type": "address"
        },
        {
          "internalType": "contract PlayToken",
          "name": "initialPlayToken",
          "type": "address"
        },
        {
          "components": [
            {
              "internalType": "uint256",
              "name": "numSecondsPerTokens",
              "type": "uint256"
            },
            {
              "internalType": "uint256",
              "name": "spaceshipsToKeepPer10000",
              "type": "uint256"
            },
            {
              "internalType": "uint256",
              "name": "acquireNumSpaceships",
              "type": "uint256"
            },
            {
              "internalType": "uint256",
              "name": "productionCapAsDuration",
              "type": "uint256"
            },
            {
              "internalType": "uint256",
              "name": "frontrunningDelay",
              "type": "uint256"
            },
            {
              "internalType": "uint256",
              "name": "minAverageStakePerPlanet",
              "type": "uint256"
            },
            {
              "internalType": "uint256",
              "name": "maxClaimDelay",
              "type": "uint256"
            },
            {
              "internalType": "uint256",
              "name": "minimumSubscriptionWhenStaking",
              "type": "uint256"
            },
            {
              "internalType": "uint256",
              "name": "minimumSubscriptionWhenNotStaking",
              "type": "uint256"
            },
            {
              "internalType": "bytes32",
              "name": "genesis",
              "type": "bytes32"
            }
          ],
          "internalType": "struct Yakuza.Config",
          "name": "config",
          "type": "tuple"
        }
      ],
      "stateMutability": "nonpayable",
      "type": "constructor"
    },
    {
      "anonymous": false,
      "inputs": [
        {
          "indexed": true,
          "internalType": "address",
          "name": "owner",
          "type": "address"
        },
        {
          "indexed": true,
          "internalType": "address",
          "name": "spender",
          "type": "address"
        },
        {
          "indexed": false,
          "internalType": "uint256",
          "name": "value",
          "type": "uint256"
        }
      ],
      "name": "Approval",
      "type": "event"
    },
    {
      "anonymous": false,
      "inputs": [
        {
          "indexed": false,
          "internalType": "address",
          "name": "newRewardReceiver",
          "type": "address"
        }
      ],
      "name": "RewardReceiverSet",
      "type": "event"
    },
    {
      "anonymous": false,
      "inputs": [
        {
          "indexed": true,
          "internalType": "address",
          "name": "from",
          "type": "address"
        },
        {
          "indexed": true,
          "internalType": "address",
          "name": "to",
          "type": "address"
        },
        {
          "indexed": false,
          "internalType": "uint256",
          "name": "value",
          "type": "uint256"
        }
      ],
      "name": "Transfer",
      "type": "event"
    },
    {
      "anonymous": false,
      "inputs": [
        {
          "indexed": true,
          "internalType": "address",
          "name": "sender",
          "type": "address"
        },
        {
          "indexed": true,
          "internalType": "uint256",
          "name": "fleetId",
          "type": "uint256"
        },
        {
          "indexed": true,
          "internalType": "uint256",
          "name": "attackedPlanet",
          "type": "uint256"
        },
        {
          "indexed": false,
          "internalType": "uint256",
          "name": "fleetSentId",
          "type": "uint256"
        },
        {
          "indexed": false,
          "internalType": "uint256",
          "name": "amount",
          "type": "uint256"
        },
        {
          "indexed": false,
          "internalType": "uint256",
          "name": "amountLeft",
          "type": "uint256"
        }
      ],
      "name": "YakuzaClaimed",
      "type": "event"
    },
    {
      "anonymous": false,
      "inputs": [
        {
          "indexed": true,
          "internalType": "address",
          "name": "subscriber",
          "type": "address"
        },
        {
          "indexed": false,
          "internalType": "uint256",
          "name": "startTime",
          "type": "uint256"
        },
        {
          "indexed": false,
          "internalType": "uint256",
          "name": "endTime",
          "type": "uint256"
        },
        {
          "indexed": false,
          "internalType": "uint256",
          "name": "contribution",
          "type": "uint256"
        }
      ],
      "name": "YakuzaSubscribed",
      "type": "event"
    },
    {
      "inputs": [],
      "name": "DOMAIN_SEPARATOR",
      "outputs": [
        {
          "internalType": "bytes32",
          "name": "",
          "type": "bytes32"
        }
      ],
      "stateMutability": "view",
      "type": "function"
    },
    {
      "inputs": [
        {
          "internalType": "address",
          "name": "owner",
          "type": "address"
        },
        {
          "internalType": "address",
          "name": "spender",
          "type": "address"
        }
      ],
      "name": "allowance",
      "outputs": [
        {
          "internalType": "uint256",
          "name": "",
          "type": "uint256"
        }
      ],
      "stateMutability": "view",
      "type": "function"
    },
    {
      "inputs": [
        {
          "internalType": "address",
          "name": "spender",
          "type": "address"
        },
        {
          "internalType": "uint256",
          "name": "amount",
          "type": "uint256"
        }
      ],
      "name": "approve",
      "outputs": [
        {
          "internalType": "bool",
          "name": "",
          "type": "bool"
        }
      ],
      "stateMutability": "nonpayable",
      "type": "function"
    },
    {
      "inputs": [
        {
          "internalType": "address",
          "name": "spender",
          "type": "address"
        },
        {
          "internalType": "uint256",
          "name": "amount",
          "type": "uint256"
        },
        {
          "internalType": "bytes",
          "name": "data",
          "type": "bytes"
        }
      ],
      "name": "approveAndCall",
      "outputs": [
        {
          "internalType": "bool",
          "name": "",
          "type": "bool"
        }
      ],
      "stateMutability": "nonpayable",
      "type": "function"
    },
    {
      "inputs": [
        {
          "internalType": "address",
          "name": "owner",
          "type": "address"
        }
      ],
      "name": "balanceOf",
      "outputs": [
        {
          "internalType": "uint256",
          "name": "",
          "type": "uint256"
        }
      ],
      "stateMutability": "view",
      "type": "function"
    },
    {
      "inputs": [
        {
          "internalType": "contract RewardsGenerator",
          "name": "newGenerator",
          "type": "address"
        }
      ],
      "name": "changegGenerator",
      "outputs": [],
      "stateMutability": "nonpayable",
      "type": "function"
    },
    {
      "inputs": [
        {
          "internalType": "address",
          "name": "to",
          "type": "address"
        }
      ],
      "name": "claim",
      "outputs": [],
      "stateMutability": "nonpayable",
      "type": "function"
    },
    {
      "inputs": [
        {
          "internalType": "uint256",
          "name": "fleetId",
          "type": "uint256"
        },
        {
          "components": [
            {
              "internalType": "uint256",
              "name": "from",
              "type": "uint256"
            },
            {
              "internalType": "uint256",
              "name": "to",
              "type": "uint256"
            },
            {
              "internalType": "uint256",
              "name": "distance",
              "type": "uint256"
            },
            {
              "internalType": "uint256",
              "name": "arrivalTimeWanted",
              "type": "uint256"
            },
            {
              "internalType": "bool",
              "name": "gift",
              "type": "bool"
            },
            {
              "internalType": "address",
              "name": "specific",
              "type": "address"
            },
            {
              "internalType": "bytes32",
              "name": "secret",
              "type": "bytes32"
            },
            {
              "internalType": "address",
              "name": "fleetSender",
              "type": "address"
            },
            {
              "internalType": "address",
              "name": "operator",
              "type": "address"
            }
          ],
          "internalType": "struct ImportingOuterSpaceTypes.FleetResolution",
          "name": "resolution",
          "type": "tuple"
        },
        {
          "internalType": "uint32",
          "name": "amount",
          "type": "uint32"
        },
        {
          "internalType": "uint256",
          "name": "from",
          "type": "uint256"
        },
        {
          "internalType": "bytes32",
          "name": "toHash",
          "type": "bytes32"
        },
        {
          "internalType": "uint256",
          "name": "arrivalTimeWanted",
          "type": "uint256"
        },
        {
          "internalType": "bytes32",
          "name": "secret",
          "type": "bytes32"
        },
        {
          "internalType": "address payable",
          "name": "payee",
          "type": "address"
        }
      ],
      "name": "claimCounterAttack",
      "outputs": [],
      "stateMutability": "payable",
      "type": "function"
    },
    {
      "inputs": [
        {
          "internalType": "address",
          "name": "to",
          "type": "address"
        }
      ],
      "name": "claimFixedRewards",
      "outputs": [],
      "stateMutability": "nonpayable",
      "type": "function"
    },
    {
      "inputs": [
        {
          "internalType": "address",
          "name": "to",
          "type": "address"
        }
      ],
      "name": "claimSharedPoolRewards",
      "outputs": [],
      "stateMutability": "nonpayable",
      "type": "function"
    },
    {
      "inputs": [
        {
          "internalType": "uint256",
          "name": "",
          "type": "uint256"
        }
      ],
      "name": "claims",
      "outputs": [
        {
          "internalType": "bool",
          "name": "claimed",
          "type": "bool"
        },
        {
          "internalType": "uint248",
          "name": "amountLeft",
          "type": "uint248"
        }
      ],
      "stateMutability": "view",
      "type": "function"
    },
    {
      "inputs": [],
      "name": "decimals",
      "outputs": [
        {
          "internalType": "uint8",
          "name": "",
          "type": "uint8"
        }
      ],
      "stateMutability": "pure",
      "type": "function"
    },
    {
      "inputs": [
        {
          "internalType": "address payable[]",
          "name": "tos",
          "type": "address[]"
        },
        {
          "internalType": "uint256",
          "name": "totalAmount",
          "type": "uint256"
        }
      ],
      "name": "distributeAlongWithETH",
      "outputs": [
        {
          "internalType": "bool",
          "name": "",
          "type": "bool"
        }
      ],
      "stateMutability": "payable",
      "type": "function"
    },
    {
      "inputs": [
        {
          "internalType": "address payable[]",
          "name": "tos",
          "type": "address[]"
        },
        {
          "internalType": "uint256[]",
          "name": "amounts",
          "type": "uint256[]"
        }
      ],
      "name": "distributeVariousAmountsAlongWithETH",
      "outputs": [
        {
          "internalType": "bool",
          "name": "",
          "type": "bool"
        }
      ],
      "stateMutability": "payable",
      "type": "function"
    },
    {
      "inputs": [
        {
          "internalType": "address payable[]",
          "name": "tos",
          "type": "address[]"
        },
        {
          "internalType": "uint256[]",
          "name": "tokenAmounts",
          "type": "uint256[]"
        },
        {
          "internalType": "uint256[]",
          "name": "etherAmounts",
          "type": "uint256[]"
        }
      ],
      "name": "distributeVariousAmountsOfTokenAndETH",
      "outputs": [
        {
          "internalType": "bool",
          "name": "",
          "type": "bool"
        }
      ],
      "stateMutability": "payable",
      "type": "function"
    },
    {
      "inputs": [],
      "name": "generator",
      "outputs": [
        {
          "internalType": "contract RewardsGenerator",
          "name": "",
          "type": "address"
        }
      ],
      "stateMutability": "view",
      "type": "function"
    },
    {
      "inputs": [],
      "name": "maxClaimDelay",
      "outputs": [
        {
          "internalType": "uint256",
          "name": "",
          "type": "uint256"
        }
      ],
      "stateMutability": "view",
      "type": "function"
    },
    {
      "inputs": [],
      "name": "minAverageStakePerPlanet",
      "outputs": [
        {
          "internalType": "uint256",
          "name": "",
          "type": "uint256"
        }
      ],
      "stateMutability": "view",
      "type": "function"
    },
    {
      "inputs": [],
      "name": "minimumSubscriptionWhenNotStaking",
      "outputs": [
        {
          "internalType": "uint256",
          "name": "",
          "type": "uint256"
        }
      ],
      "stateMutability": "view",
      "type": "function"
    },
    {
      "inputs": [],
      "name": "minimumSubscriptionWhenStaking",
      "outputs": [
        {
          "internalType": "uint256",
          "name": "",
          "type": "uint256"
        }
      ],
      "stateMutability": "view",
      "type": "function"
    },
    {
      "inputs": [],
      "name": "name",
      "outputs": [
        {
          "internalType": "string",
          "name": "",
          "type": "string"
        }
      ],
      "stateMutability": "pure",
      "type": "function"
    },
    {
      "inputs": [
        {
          "internalType": "address",
          "name": "owner",
          "type": "address"
        }
      ],
      "name": "nonces",
      "outputs": [
        {
          "internalType": "uint256",
          "name": "",
          "type": "uint256"
        }
      ],
      "stateMutability": "view",
      "type": "function"
    },
    {
      "inputs": [],
      "name": "numSecondsPerTokens",
      "outputs": [
        {
          "internalType": "uint256",
          "name": "",
          "type": "uint256"
        }
      ],
      "stateMutability": "view",
      "type": "function"
    },
    {
      "inputs": [],
      "name": "outerSpace",
      "outputs": [
        {
          "internalType": "contract IOuterSpace",
          "name": "",
          "type": "address"
        }
      ],
      "stateMutability": "view",
      "type": "function"
    },
    {
      "inputs": [
        {
          "internalType": "address",
          "name": "forAddress",
          "type": "address"
        },
        {
          "internalType": "address",
          "name": "to",
          "type": "address"
        },
        {
          "internalType": "uint256",
          "name": "amount",
          "type": "uint256"
        },
        {
          "internalType": "bytes",
          "name": "data",
          "type": "bytes"
        }
      ],
      "name": "payForAndCall",
      "outputs": [
        {
          "internalType": "bool",
          "name": "",
          "type": "bool"
        }
      ],
      "stateMutability": "nonpayable",
      "type": "function"
    },
    {
      "inputs": [
        {
          "internalType": "address",
          "name": "owner",
          "type": "address"
        },
        {
          "internalType": "address",
          "name": "spender",
          "type": "address"
        },
        {
          "internalType": "uint256",
          "name": "value",
          "type": "uint256"
        },
        {
          "internalType": "uint256",
          "name": "deadline",
          "type": "uint256"
        },
        {
          "internalType": "uint8",
          "name": "v",
          "type": "uint8"
        },
        {
          "internalType": "bytes32",
          "name": "r",
          "type": "bytes32"
        },
        {
          "internalType": "bytes32",
          "name": "s",
          "type": "bytes32"
        }
      ],
      "name": "permit",
      "outputs": [],
      "stateMutability": "nonpayable",
      "type": "function"
    },
    {
      "inputs": [],
      "name": "playToken",
      "outputs": [
        {
          "internalType": "contract PlayToken",
          "name": "",
          "type": "address"
        }
      ],
      "stateMutability": "view",
      "type": "function"
    },
    {
      "inputs": [
        {
          "internalType": "address",
          "name": "initialRewardReceiver",
          "type": "address"
        },
        {
          "internalType": "contract RewardsGenerator",
          "name": "initialGenerator",
          "type": "address"
        },
        {
          "internalType": "contract IOuterSpace",
          "name": "",
          "type": "address"
        },
        {
          "internalType": "contract PlayToken",
          "name": "",
          "type": "address"
        },
        {
          "components": [
            {
              "internalType": "uint256",
              "name": "numSecondsPerTokens",
              "type": "uint256"
            },
            {
              "internalType": "uint256",
              "name": "spaceshipsToKeepPer10000",
              "type": "uint256"
            },
            {
              "internalType": "uint256",
              "name": "acquireNumSpaceships",
              "type": "uint256"
            },
            {
              "internalType": "uint256",
              "name": "productionCapAsDuration",
              "type": "uint256"
            },
            {
              "internalType": "uint256",
              "name": "frontrunningDelay",
              "type": "uint256"
            },
            {
              "internalType": "uint256",
              "name": "minAverageStakePerPlanet",
              "type": "uint256"
            },
            {
              "internalType": "uint256",
              "name": "maxClaimDelay",
              "type": "uint256"
            },
            {
              "internalType": "uint256",
              "name": "minimumSubscriptionWhenStaking",
              "type": "uint256"
            },
            {
              "internalType": "uint256",
              "name": "minimumSubscriptionWhenNotStaking",
              "type": "uint256"
            },
            {
              "internalType": "bytes32",
              "name": "genesis",
              "type": "bytes32"
            }
          ],
          "internalType": "struct Yakuza.Config",
          "name": "",
          "type": "tuple"
        }
      ],
      "name": "postUpgrade",
      "outputs": [],
      "stateMutability": "nonpayable",
      "type": "function"
    },
    {
      "inputs": [],
      "name": "rewardReceiver",
      "outputs": [
        {
          "internalType": "address",
          "name": "",
          "type": "address"
        }
      ],
      "stateMutability": "view",
      "type": "function"
    },
    {
      "inputs": [
        {
          "internalType": "address",
          "name": "newRewardReceiver",
          "type": "address"
        }
      ],
      "name": "setRewardReceiver",
      "outputs": [],
      "stateMutability": "nonpayable",
      "type": "function"
    },
    {
      "inputs": [],
      "name": "spaceshipsToKeepPer10000",
      "outputs": [
        {
          "internalType": "uint256",
          "name": "",
          "type": "uint256"
        }
      ],
      "stateMutability": "view",
      "type": "function"
    },
    {
      "inputs": [
        {
          "internalType": "uint256[]",
          "name": "locations",
          "type": "uint256[]"
        },
        {
          "internalType": "uint256",
          "name": "amountToMint",
          "type": "uint256"
        },
        {
          "internalType": "uint256",
          "name": "tokenAmount",
          "type": "uint256"
        },
        {
          "internalType": "uint256",
          "name": "amountFromYakuza",
          "type": "uint256"
        }
      ],
      "name": "subscribeViaStaking",
      "outputs": [],
      "stateMutability": "payable",
      "type": "function"
    },
    {
      "inputs": [
        {
          "internalType": "uint256",
          "name": "amountToMint",
          "type": "uint256"
        },
        {
          "internalType": "uint256",
          "name": "tokenAmount",
          "type": "uint256"
        }
      ],
      "name": "subscribeWithoutStaking",
      "outputs": [],
      "stateMutability": "payable",
      "type": "function"
    },
    {
      "inputs": [
        {
          "internalType": "address",
          "name": "",
          "type": "address"
        }
      ],
      "name": "subscriptions",
      "outputs": [
        {
          "internalType": "uint256",
          "name": "startTime",
          "type": "uint256"
        },
        {
          "internalType": "uint256",
          "name": "endTime",
          "type": "uint256"
        }
      ],
      "stateMutability": "view",
      "type": "function"
    },
    {
      "inputs": [],
      "name": "symbol",
      "outputs": [
        {
          "internalType": "string",
          "name": "",
          "type": "string"
        }
      ],
      "stateMutability": "view",
      "type": "function"
    },
    {
      "inputs": [],
      "name": "totalSupply",
      "outputs": [
        {
          "internalType": "uint256",
          "name": "",
          "type": "uint256"
        }
      ],
      "stateMutability": "view",
      "type": "function"
    },
    {
      "inputs": [
        {
          "internalType": "address",
          "name": "to",
          "type": "address"
        },
        {
          "internalType": "uint256",
          "name": "amount",
          "type": "uint256"
        }
      ],
      "name": "transfer",
      "outputs": [
        {
          "internalType": "bool",
          "name": "",
          "type": "bool"
        }
      ],
      "stateMutability": "nonpayable",
      "type": "function"
    },
    {
      "inputs": [
        {
          "internalType": "address payable",
          "name": "to",
          "type": "address"
        },
        {
          "internalType": "uint256",
          "name": "amount",
          "type": "uint256"
        }
      ],
      "name": "transferAlongWithETH",
      "outputs": [
        {
          "internalType": "bool",
          "name": "",
          "type": "bool"
        }
      ],
      "stateMutability": "payable",
      "type": "function"
    },
    {
      "inputs": [
        {
          "internalType": "address",
          "name": "to",
          "type": "address"
        },
        {
          "internalType": "uint256",
          "name": "amount",
          "type": "uint256"
        },
        {
          "internalType": "bytes",
          "name": "data",
          "type": "bytes"
        }
      ],
      "name": "transferAndCall",
      "outputs": [
        {
          "internalType": "bool",
          "name": "",
          "type": "bool"
        }
      ],
      "stateMutability": "nonpayable",
      "type": "function"
    },
    {
      "inputs": [
        {
          "internalType": "address",
          "name": "from",
          "type": "address"
        },
        {
          "internalType": "address",
          "name": "to",
          "type": "address"
        },
        {
          "internalType": "uint256",
          "name": "amount",
          "type": "uint256"
        }
      ],
      "name": "transferFrom",
      "outputs": [
        {
          "internalType": "bool",
          "name": "",
          "type": "bool"
        }
      ],
      "stateMutability": "nonpayable",
      "type": "function"
    },
    {
      "inputs": [
        {
          "internalType": "address",
          "name": "from",
          "type": "address"
        },
        {
          "internalType": "address",
          "name": "to",
          "type": "address"
        },
        {
          "internalType": "uint256",
          "name": "amount",
          "type": "uint256"
        },
        {
          "internalType": "bytes",
          "name": "data",
          "type": "bytes"
        }
      ],
      "name": "transferFromAndCall",
      "outputs": [
        {
          "internalType": "bool",
          "name": "",
          "type": "bool"
        }
      ],
      "stateMutability": "nonpayable",
      "type": "function"
    }
  ],
  "transactionHash": "0xc5815686a5f5bac5170cc669888ae87e9a31cf9859f2df99ae82b53491607c48",
  "args": [
    "0x61c461EcC993aaDEB7e4b47E96d1B8cC37314B20",
    "0x6e35f7FEFb98fD3E8b5F2f3Cd40E7d073241664d",
    "0x3Ab8D9b483Ae392C1bbf85905B2998af30714361",
    "0x81C151895C59b081CBeFFcA070684f786ce306D9",
    {
      "genesis": "0x21B25FA48DFAF94F6FC5D7C14C206CC0F716AAE46A5EA817445EA411E3299541",
      "acquireNumSpaceships": 100000,
      "productionCapAsDuration": 259200,
      "frontrunningDelay": 18,
      "numSecondsPerTokens": 302400,
      "spaceshipsToKeepPer10000": 2000,
      "minAverageStakePerPlanet": "5000000000000000000",
      "maxClaimDelay": 86400,
      "minimumSubscriptionWhenNotStaking": "1000000000000000000",
      "minimumSubscriptionWhenStaking": "1000000000000000000"
    }
  ],
  "numDeployments": 2,
  "linkedData": {
    "genesis": "0x21B25FA48DFAF94F6FC5D7C14C206CC0F716AAE46A5EA817445EA411E3299541",
    "acquireNumSpaceships": 100000,
    "productionCapAsDuration": 259200,
    "frontrunningDelay": 18,
    "numSecondsPerTokens": 302400,
    "spaceshipsToKeepPer10000": 2000,
    "minAverageStakePerPlanet": "5000000000000000000",
    "maxClaimDelay": 86400,
    "minimumSubscriptionWhenNotStaking": {
      "type": "BigNumber",
      "hex": "0x0de0b6b3a7640000"
    },
    "minimumSubscriptionWhenStaking": {
      "type": "BigNumber",
      "hex": "0x0de0b6b3a7640000"
    }
  },
  "solcInputHash": "d3182fc12262e080b0f18e830973baa0",
  "bytecode": "0x6102206040523480156200001257600080fd5b5060405162004a5238038062004a528339810160408190526200003591620001d9565b6040805180820190915260018152603160f81b60208201527f91ab3d17e3a50a9d89e63fd30b92be7f5336b03b287bb946787a83a9d62a27666200009360408051808201909152600781526659414b555a413160c81b602082015290565b8051602091820120835184830120604080519384019490945292820152606081019190915230608082015260a00160408051601f19818403018152918152815160209283012060809081526001600160a01b0380881660a090815290871660c09081526101208088015160e090815294880151610100908152606089015190915292870151610140528651610160529386015161018052928501516101c052918401516101a0528301516101e05282015161020052506200017d8585600480546001600160a01b039384166001600160a01b03199182161790915560058054929093169116179055565b5050505050620002d3565b6001600160a01b03811681146200019e57600080fd5b50565b60405161014081016001600160401b0381118282101715620001d357634e487b7160e01b600052604160045260246000fd5b60405290565b60008060008060008587036101c0811215620001f457600080fd5b8651620002018162000188565b6020880151909650620002148162000188565b6040880151909550620002278162000188565b60608801519094506200023a8162000188565b9250610140607f1982018113156200025157600080fd5b6200025b620001a1565b91506080880151825260a0880151602083015260c0880151604083015260e08801516060830152610100808901516080840152610120808a015160a0850152828a015160c08501526101608a015160e08501526101808a0151828501526101a08a015181850152505050809150509295509295909350565b60805160a05160c05160e05161010051610120516101405161016051610180516101a0516101c0516101e0516102005161466b620003e7600039600081816106950152610ffb01526000818161097a015261122801526000818161050f0152612daa01526000818161044b015261157f0152600081816105770152612fa7015260008181610543015281816128cf015261291d01526000612d150152600061374e01526000613787015260006136cc0152600081816108ea015281816110e5015281816111980152818161131101526113b8015260008181610634015281816113df015281816114c401528181612b1001528181612eed01526134a40152600081816104bb0152611ab8015261466b6000f3fe6080604052600436106102c65760003560e01c80637776cbe211610179578063cae9ca51116100d6578063e3cb85631161008a578063f2ae4b5311610064578063f2ae4b5314610968578063fc72b9761461099c578063ff1e03e9146109af57600080fd5b8063e3cb8563146108d8578063e7fcb0651461090c578063f046395a1461091f57600080fd5b8063dae254dd116100bb578063dae254dd14610885578063dd62ed3e146108a5578063df752eed146108c557600080fd5b8063cae9ca5114610845578063d505accf1461086557600080fd5b8063a53ebf481161012d578063a9059cbb11610112578063a9059cbb146107e5578063b732407e14610805578063c1d34b891461082557600080fd5b8063a53ebf4814610743578063a888c2cd1461075657600080fd5b80637e9ae1b31161015e5780637e9ae1b3146106835780637ecebe00146106b757806395d89b41146106fa57600080fd5b80637776cbe2146106225780637afa1eed1461065657600080fd5b8063313ce567116102275780635ffbe9ef116101db57806364aa8347116101c057806364aa8347146105b95780636b515ece146105cc57806370a08231146105df57600080fd5b80635ffbe9ef1461056557806363d994c71461059957600080fd5b80634000aea01161020c5780634000aea0146104dd57806351b6eae6146104fd5780635b5ae5ec1461053157600080fd5b8063313ce5671461048d5780633644e515146104a957600080fd5b80631da511241161027e5780631e83409a116102635780631e83409a14610419578063200653701461043957806323b872dd1461046d57600080fd5b80631da51124146103a75780631dac30b0146103c757600080fd5b8063095ea7b3116102af578063095ea7b3146103455780630e02df541461037557806318160ddd1461038857600080fd5b8063066112f9146102cb57806306fdde03146102ed575b600080fd5b3480156102d757600080fd5b506102eb6102e636600461395b565b6109cf565b005b3480156102f957600080fd5b5060408051808201909152600781527f59414b555a41310000000000000000000000000000000000000000000000000060208201525b60405161033c919061397f565b60405180910390f35b34801561035157600080fd5b506103656103603660046139f2565b610ade565b604051901515815260200161033c565b610365610383366004613a6a565b610af5565b34801561039457600080fd5b506000545b60405190815260200161033c565b3480156103b357600080fd5b506102eb6103c236600461395b565b610cbe565b3480156103d357600080fd5b506004546103f49073ffffffffffffffffffffffffffffffffffffffff1681565b60405173ffffffffffffffffffffffffffffffffffffffff909116815260200161033c565b34801561042557600080fd5b506102eb61043436600461395b565b610d86565b34801561044557600080fd5b506103997f000000000000000000000000000000000000000000000000000000000000000081565b34801561047957600080fd5b50610365610488366004613ab6565b610e5f565b34801561049957600080fd5b506040516012815260200161033c565b3480156104b557600080fd5b506103997f000000000000000000000000000000000000000000000000000000000000000081565b3480156104e957600080fd5b506103656104f8366004613b39565b610e76565b34801561050957600080fd5b506103997f000000000000000000000000000000000000000000000000000000000000000081565b34801561053d57600080fd5b506103997f000000000000000000000000000000000000000000000000000000000000000081565b34801561057157600080fd5b506103997f000000000000000000000000000000000000000000000000000000000000000081565b3480156105a557600080fd5b506103656105b4366004613b95565b610f36565b6102eb6105c7366004613c08565b610ff9565b6102eb6105da366004613cd2565b611225565b3480156105eb57600080fd5b506103996105fa36600461395b565b73ffffffffffffffffffffffffffffffffffffffff1660009081526001602052604090205490565b34801561062e57600080fd5b506103f47f000000000000000000000000000000000000000000000000000000000000000081565b34801561066257600080fd5b506005546103f49073ffffffffffffffffffffffffffffffffffffffff1681565b34801561068f57600080fd5b506103997f000000000000000000000000000000000000000000000000000000000000000081565b3480156106c357600080fd5b506103996106d236600461395b565b73ffffffffffffffffffffffffffffffffffffffff1660009081526003602052604090205490565b34801561070657600080fd5b5061032f6040518060400160405280600481526020017f594b5a310000000000000000000000000000000000000000000000000000000081525081565b6102eb610751366004613da0565b61161a565b34801561076257600080fd5b506107ae610771366004613e4b565b60076020526000908152604090205460ff81169061010090047effffffffffffffffffffffffffffffffffffffffffffffffffffffffffffff1682565b6040805192151583527effffffffffffffffffffffffffffffffffffffffffffffffffffffffffffff90911660208301520161033c565b3480156107f157600080fd5b506103656108003660046139f2565b6117a3565b34801561081157600080fd5b506102eb610820366004613e64565b6117b0565b34801561083157600080fd5b50610365610840366004613b95565b6118be565b34801561085157600080fd5b50610365610860366004613b39565b611923565b34801561087157600080fd5b506102eb610880366004613efd565b611986565b34801561089157600080fd5b506102eb6108a036600461395b565b611cbb565b3480156108b157600080fd5b506103996108c0366004613f74565b611db5565b6103656108d3366004613fad565b611e35565b3480156108e457600080fd5b506103f47f000000000000000000000000000000000000000000000000000000000000000081565b61036561091a3660046139f2565b611ff2565b34801561092b57600080fd5b5061095361093a36600461395b565b6006602052600090815260409020805460019091015482565b6040805192835260208301919091520161033c565b34801561097457600080fd5b506103997f000000000000000000000000000000000000000000000000000000000000000081565b6103656109aa36600461400d565b612041565b3480156109bb57600080fd5b506102eb6109ca36600461395b565b6122d4565b60045473ffffffffffffffffffffffffffffffffffffffff163314610a55576040517f08c379a000000000000000000000000000000000000000000000000000000000815260206004820152600b60248201527f4e4f545f414c4c4f57454400000000000000000000000000000000000000000060448201526064015b60405180910390fd5b6005546040517f066112f900000000000000000000000000000000000000000000000000000000815273ffffffffffffffffffffffffffffffffffffffff83811660048301529091169063066112f9906024015b600060405180830381600087803b158015610ac357600080fd5b505af1158015610ad7573d6000803e3d6000fd5b5050505050565b6000610aeb3384846123ad565b5060015b92915050565b600080610b028434614105565b9050610b0e8482614119565b3414610b76576040517f08c379a000000000000000000000000000000000000000000000000000000000815260206004820152601160248201527f494e56414c49445f4d53475f56414c55450000000000000000000000000000006044820152606401610a4c565b6000610b828585614105565b9050610b8e8582614119565b8414610bf6576040517f08c379a000000000000000000000000000000000000000000000000000000000815260206004820152601460248201527f494e56414c49445f544f54414c5f414d4f554e540000000000000000000000006044820152606401610a4c565b60005b85811015610cb157610c3233888884818110610c1757610c17614156565b9050602002016020810190610c2c919061395b565b846124bb565b868682818110610c4457610c44614156565b9050602002016020810190610c59919061395b565b73ffffffffffffffffffffffffffffffffffffffff166108fc849081150290604051600060405180830381858888f19350505050158015610c9e573d6000803e3d6000fd5b5080610ca981614185565b915050610bf9565b5060019695505050505050565b60045473ffffffffffffffffffffffffffffffffffffffff163314610d3f576040517f08c379a000000000000000000000000000000000000000000000000000000000815260206004820152600b60248201527f4e4f545f414c4c4f5745440000000000000000000000000000000000000000006044820152606401610a4c565b600580547fffffffffffffffffffffffff00000000000000000000000000000000000000001673ffffffffffffffffffffffffffffffffffffffff92909216919091179055565b60045473ffffffffffffffffffffffffffffffffffffffff163314610e07576040517f08c379a000000000000000000000000000000000000000000000000000000000815260206004820152600b60248201527f4e4f545f414c4c4f5745440000000000000000000000000000000000000000006044820152606401610a4c565b6005546040517f1e83409a00000000000000000000000000000000000000000000000000000000815273ffffffffffffffffffffffffffffffffffffffff838116600483015290911690631e83409a90602401610aa9565b6000610e6c848484612709565b5060019392505050565b6000610e833386866124bb565b6040517fa4c0ed3600000000000000000000000000000000000000000000000000000000815273ffffffffffffffffffffffffffffffffffffffff86169063a4c0ed3690610edb903390889088908890600401614207565b602060405180830381600087803b158015610ef557600080fd5b505af1158015610f09573d6000803e3d6000fd5b505050506040513d601f19601f82011682018060405250810190610f2d919061425b565b95945050505050565b6000610f433386866124bb565b6040517f9b6be06500000000000000000000000000000000000000000000000000000000815273ffffffffffffffffffffffffffffffffffffffff861690639b6be06590610f9d9033908a90899089908990600401614278565b602060405180830381600087803b158015610fb757600080fd5b505af1158015610fcb573d6000803e3d6000fd5b505050506040513d601f19601f82011682018060405250810190610fef919061425b565b9695505050505050565b7f000000000000000000000000000000000000000000000000000000000000000061102483836142c3565b101561108c576040517f08c379a000000000000000000000000000000000000000000000000000000000815260206004820152601d60248201527f4d494e494d554d5f535542534352495054494f4e5f52455155495245440000006044820152606401610a4c565b338115611163576040517f23b872dd00000000000000000000000000000000000000000000000000000000815273ffffffffffffffffffffffffffffffffffffffff8281166004830152306024830152604482018490527f000000000000000000000000000000000000000000000000000000000000000016906323b872dd90606401602060405180830381600087803b15801561112957600080fd5b505af115801561113d573d6000803e3d6000fd5b505050506040513d601f19601f82011682018060405250810190611161919061425b565b505b6040517f40c10f19000000000000000000000000000000000000000000000000000000008152306004820152602481018490527f000000000000000000000000000000000000000000000000000000000000000073ffffffffffffffffffffffffffffffffffffffff16906340c10f199034906044016000604051808303818588803b1580156111f257600080fd5b505af1158015611206573d6000803e3d6000fd5b505050505061122081838561121b91906142c3565b612855565b505050565b337f000000000000000000000000000000000000000000000000000000000000000061125185856142c3565b10156112b9576040517f08c379a000000000000000000000000000000000000000000000000000000000815260206004820152601d60248201527f4d494e494d554d5f535542534352495054494f4e5f52455155495245440000006044820152606401610a4c565b821561138f576040517f23b872dd00000000000000000000000000000000000000000000000000000000815273ffffffffffffffffffffffffffffffffffffffff8281166004830152306024830152604482018590527f000000000000000000000000000000000000000000000000000000000000000016906323b872dd90606401602060405180830381600087803b15801561135557600080fd5b505af1158015611369573d6000803e3d6000fd5b505050506040513d601f19601f8201168201806040525081019061138d919061425b565b505b600061139b83856142c3565b11156114ad5773ffffffffffffffffffffffffffffffffffffffff7f00000000000000000000000000000000000000000000000000000000000000001663095ea7b37f000000000000000000000000000000000000000000000000000000000000000061140885876142c3565b6040517fffffffff0000000000000000000000000000000000000000000000000000000060e085901b16815273ffffffffffffffffffffffffffffffffffffffff90921660048301526024820152604401602060405180830381600087803b15801561147357600080fd5b505af1158015611487573d6000803e3d6000fd5b505050506040513d601f19601f820116820180604052508101906114ab919061425b565b505b73ffffffffffffffffffffffffffffffffffffffff7f00000000000000000000000000000000000000000000000000000000000000001663861399e73487876114f687896142c3565b6040518563ffffffff1660e01b8152600401611514939291906142db565b6000604051808303818588803b15801561152d57600080fd5b505af1158015611541573d6000803e3d6000fd5b50505050506000838561155491906142c3565b90506000865184868861156791906142c3565b61157191906142c3565b61157b9190614105565b90507f0000000000000000000000000000000000000000000000000000000000000000811015611607576040517f08c379a000000000000000000000000000000000000000000000000000000000815260206004820152601160248201527f504c414e4554535f544f4f5f534d414c4c0000000000000000000000000000006044820152606401610a4c565b6116118383612855565b50505050505050565b34156116e15773ffffffffffffffffffffffffffffffffffffffff811661169d576040517f08c379a000000000000000000000000000000000000000000000000000000000815260206004820152600860248201527f4e4f5f50415945450000000000000000000000000000000000000000000000006044820152606401610a4c565b60405173ffffffffffffffffffffffffffffffffffffffff8216903480156108fc02916000818181858888f193505050501580156116df573d6000803e3d6000fd5b505b604080516020808201859052898101358284015260006060830181905260618301526075808301879052835180840390910181526095909201909252805191012084811461178b576040517f08c379a000000000000000000000000000000000000000000000000000000000815260206004820152600f60248201527f494e56414c49445f544f5f4841534800000000000000000000000000000000006044820152606401610a4c565b61179889898989896129cb565b505050505050505050565b6000610aeb3384846124bb565b7fb53127684a568b3173ae13b9f8a6016e243e63b6e8ee1178d6a717850b5d61035473ffffffffffffffffffffffffffffffffffffffff163373ffffffffffffffffffffffffffffffffffffffff1614611866576040517f08c379a000000000000000000000000000000000000000000000000000000000815260206004820152600e60248201527f4e4f545f415554484f52495a45440000000000000000000000000000000000006044820152606401610a4c565b610ad785856004805473ffffffffffffffffffffffffffffffffffffffff9384167fffffffffffffffffffffffff00000000000000000000000000000000000000009182161790915560058054929093169116179055565b60006118cb868686612709565b6040517fa4c0ed3600000000000000000000000000000000000000000000000000000000815273ffffffffffffffffffffffffffffffffffffffff86169063a4c0ed3690610f9d908990889088908890600401614207565b60006119303386866123ad565b6040517eba451f00000000000000000000000000000000000000000000000000000000815273ffffffffffffffffffffffffffffffffffffffff86169062ba451f90610edb903390889088908890600401614207565b73ffffffffffffffffffffffffffffffffffffffff8716611a03576040517f08c379a000000000000000000000000000000000000000000000000000000000815260206004820152601460248201527f494e56414c49445f5a45524f5f414444524553530000000000000000000000006044820152606401610a4c565b73ffffffffffffffffffffffffffffffffffffffff87811660008181526003602090815260408083205481517f6e71edae12b1b97f4d1f60370fef10105fa2faae0126114a169c64845d6126c98185015280830195909552948b166060850152608084018a905260a0840185905260c08085018a90528151808603909101815260e0850190915280519101207f19010000000000000000000000000000000000000000000000000000000000006101008401527f00000000000000000000000000000000000000000000000000000000000000006101028401526101228301529061014201604080517fffffffffffffffffffffffffffffffffffffffffffffffffffffffffffffffe081840301815282825280516020918201206000845290830180835281905260ff8816918301919091526060820186905260808201859052915060019060a0016020604051602081039080840390855afa158015611b6e573d6000803e3d6000fd5b5050506020604051035173ffffffffffffffffffffffffffffffffffffffff168973ffffffffffffffffffffffffffffffffffffffff1614611c0c576040517f08c379a000000000000000000000000000000000000000000000000000000000815260206004820152601160248201527f494e56414c49445f5349474e41545552450000000000000000000000000000006044820152606401610a4c565b851580611c195750854211155b611c7f576040517f08c379a000000000000000000000000000000000000000000000000000000000815260206004820152600860248201527f544f4f5f4c4154450000000000000000000000000000000000000000000000006044820152606401610a4c565b611c8a8260016142c3565b73ffffffffffffffffffffffffffffffffffffffff8a166000908152600360205260409020556117988989896123ad565b60045473ffffffffffffffffffffffffffffffffffffffff163314611d3c576040517f08c379a000000000000000000000000000000000000000000000000000000000815260206004820152600b60248201527f4e4f545f414c4c4f5745440000000000000000000000000000000000000000006044820152606401610a4c565b600480547fffffffffffffffffffffffff00000000000000000000000000000000000000001673ffffffffffffffffffffffffffffffffffffffff83169081179091556040519081527f083dc55b3248fa3ebfe8473cfe49ec0028fb069195dc28d6513564cbc9f162df9060200160405180910390a150565b600073ffffffffffffffffffffffffffffffffffffffff8316301415611dfc57507fffffffffffffffffffffffffffffffffffffffffffffffffffffffffffffffff610aef565b5073ffffffffffffffffffffffffffffffffffffffff918216600090815260026020908152604080832093909416825291909152205490565b600080611e428534614105565b9050611e4e8582614119565b3414611eb6576040517f08c379a000000000000000000000000000000000000000000000000000000000815260206004820152601160248201527f494e56414c49445f4d53475f56414c55450000000000000000000000000000006044820152606401610a4c565b848314611f1f576040517f08c379a000000000000000000000000000000000000000000000000000000000815260206004820152600f60248201527f4e4f545f53414d455f4c454e47544800000000000000000000000000000000006044820152606401610a4c565b60005b85811015610cb157611f7333888884818110611f4057611f40614156565b9050602002016020810190611f55919061395b565b878785818110611f6757611f67614156565b905060200201356124bb565b868682818110611f8557611f85614156565b9050602002016020810190611f9a919061395b565b73ffffffffffffffffffffffffffffffffffffffff166108fc839081150290604051600060405180830381858888f19350505050158015611fdf573d6000803e3d6000fd5b5080611fea81614185565b915050611f22565b6000611fff3384846124bb565b60405173ffffffffffffffffffffffffffffffffffffffff8416903480156108fc02916000818181858888f19350505050158015610e6c573d6000803e3d6000fd5b6000808685146120ad576040517f08c379a000000000000000000000000000000000000000000000000000000000815260206004820152601560248201527f544f4b454e5f4e4f545f53414d455f4c454e47544800000000000000000000006044820152606401610a4c565b868314612116576040517f08c379a000000000000000000000000000000000000000000000000000000000815260206004820152601360248201527f4554485f4e4f545f53414d455f4c454e475448000000000000000000000000006044820152606401610a4c565b60005b8781101561225c5786868281811061213357612133614156565b9050602002013560001461217e5761217e338a8a8481811061215757612157614156565b905060200201602081019061216c919061395b565b898985818110611f6757611f67614156565b84848281811061219057612190614156565b9050602002013560001461224a578888828181106121b0576121b0614156565b90506020020160208101906121c5919061395b565b73ffffffffffffffffffffffffffffffffffffffff166108fc8686848181106121f0576121f0614156565b905060200201359081150290604051600060405180830381858888f19350505050158015612222573d6000803e3d6000fd5b5084848281811061223557612235614156565b905060200201358261224791906142c3565b91505b8061225481614185565b915050612119565b508034146122c6576040517f08c379a000000000000000000000000000000000000000000000000000000000815260206004820152601160248201527f494e56414c49445f4d53475f56414c55450000000000000000000000000000006044820152606401610a4c565b506001979650505050505050565b60045473ffffffffffffffffffffffffffffffffffffffff163314612355576040517f08c379a000000000000000000000000000000000000000000000000000000000815260206004820152600b60248201527f4e4f545f414c4c4f5745440000000000000000000000000000000000000000006044820152606401610a4c565b6005546040517fff1e03e900000000000000000000000000000000000000000000000000000000815273ffffffffffffffffffffffffffffffffffffffff83811660048301529091169063ff1e03e990602401610aa9565b73ffffffffffffffffffffffffffffffffffffffff8316158015906123e7575073ffffffffffffffffffffffffffffffffffffffff821615155b61244d576040517f08c379a000000000000000000000000000000000000000000000000000000000815260206004820152601460248201527f494e56414c49445f5a45524f5f414444524553530000000000000000000000006044820152606401610a4c565b73ffffffffffffffffffffffffffffffffffffffff83811660008181526002602090815260408083209487168084529482529182902085905590518481527f8c5be1e5ebec7d5bd14f71427d1e84f3dd0314c0f7b2291e5b200ac8c7c3b925910160405180910390a3505050565b73ffffffffffffffffffffffffffffffffffffffff8216612538576040517f08c379a000000000000000000000000000000000000000000000000000000000815260206004820152601460248201527f494e56414c49445f5a45524f5f414444524553530000000000000000000000006044820152606401610a4c565b73ffffffffffffffffffffffffffffffffffffffff82163014156125b8576040517f08c379a000000000000000000000000000000000000000000000000000000000815260206004820152601460248201527f494e56414c49445f544849535f414444524553530000000000000000000000006044820152606401610a4c565b73ffffffffffffffffffffffffffffffffffffffff831660009081526001602052604090205481811015612648576040517f08c379a000000000000000000000000000000000000000000000000000000000815260206004820152601160248201527f4e4f545f454e4f5547485f544f4b454e530000000000000000000000000000006044820152606401610a4c565b6126528282614328565b73ffffffffffffffffffffffffffffffffffffffff80861660009081526001602052604080822093909355908516815290812080548492906126959084906142c3565b925050819055508273ffffffffffffffffffffffffffffffffffffffff168473ffffffffffffffffffffffffffffffffffffffff167fddf252ad1be2c89b69c2b068fc378daa952ba7f163c4a11628f55a4df523b3ef846040516126fb91815260200190565b60405180910390a350505050565b3373ffffffffffffffffffffffffffffffffffffffff841614801590612745575073ffffffffffffffffffffffffffffffffffffffff83163014155b1561284a5773ffffffffffffffffffffffffffffffffffffffff831660009081526002602090815260408083203384529091529020547fffffffffffffffffffffffffffffffffffffffffffffffffffffffffffffffff8114612848578181101561280c576040517f08c379a000000000000000000000000000000000000000000000000000000000815260206004820152601760248201527f4e4f545f415554484f495a45445f414c4c4f57414e43450000000000000000006044820152606401610a4c565b6128168282614328565b73ffffffffffffffffffffffffffffffffffffffff851660009081526002602090815260408083203384529091529020555b505b6112208383836124bb565b61285f8282613607565b73ffffffffffffffffffffffffffffffffffffffff8216600090815260066020526040902080546001909101544281101561290e5773ffffffffffffffffffffffffffffffffffffffff8416600090815260066020526040902042908190559150670de0b6b3a76400006128f3847f0000000000000000000000000000000000000000000000000000000000000000614119565b6128fd9190614105565b61290790836142c3565b9050612958565b670de0b6b3a7640000612941847f0000000000000000000000000000000000000000000000000000000000000000614119565b61294b9190614105565b61295590826142c3565b90505b73ffffffffffffffffffffffffffffffffffffffff841660008181526006602090815260409182902060010184905581518581529081018490529081018590527f84e29dfb21faa8f81567f23e0deadf87489d59618e472a5ee03e027cbc516e909060600160405180910390a250505050565b600085815260076020526040902054339060ff1615612a46576040517f08c379a000000000000000000000000000000000000000000000000000000000815260206004820152600f60248201527f414c52454144595f434c41494d454400000000000000000000000000000000006044820152606401610a4c565b73ffffffffffffffffffffffffffffffffffffffff81166000908152600660205260409020600101544210612ad7576040517f08c379a000000000000000000000000000000000000000000000000000000000815260206004820152601460248201527f535542534352495054494f4e5f455850495245440000000000000000000000006044820152606401610a4c565b6040517f7a7f1e4200000000000000000000000000000000000000000000000000000000815260048101879052853560248201526000907f000000000000000000000000000000000000000000000000000000000000000073ffffffffffffffffffffffffffffffffffffffff1690637a7f1e42906044016101606040518083038186803b158015612b6857600080fd5b505afa158015612b7c573d6000803e3d6000fd5b505050506040513d601f19601f82011682018060405250810190612ba09190614382565b602081015190915073ffffffffffffffffffffffffffffffffffffffff16301415612c27576040517f08c379a000000000000000000000000000000000000000000000000000000000815260206004820152600f60248201527f464c4545545f49535f59414b555a4100000000000000000000000000000000006044820152606401610a4c565b8173ffffffffffffffffffffffffffffffffffffffff168160c0015173ffffffffffffffffffffffffffffffffffffffff161480612c7e575060c081015173ffffffffffffffffffffffffffffffffffffffff1630145b612ce4576040517f08c379a000000000000000000000000000000000000000000000000000000000815260206004820152601f60248201527f4449445f4e4f545f54415247455445445f594f555f4e4f525f59414b555a41006044820152606401610a4c565b73ffffffffffffffffffffffffffffffffffffffff821660009081526006602052604090205460e0820151612d41907f00000000000000000000000000000000000000000000000000000000000000009064ffffffffff16614328565b11612da8576040517f08c379a000000000000000000000000000000000000000000000000000000000815260206004820152601160248201527f464c4545545f4e4f545f434f56455245440000000000000000000000000000006044820152606401610a4c565b7f00000000000000000000000000000000000000000000000000000000000000008160e0015164ffffffffff16612ddf91906142c3565b4210612e47576040517f08c379a000000000000000000000000000000000000000000000000000000000815260206004820152601160248201527f544f4f5f4c4154455f544f5f434c41494d0000000000000000000000000000006044820152606401610a4c565b6000816060015163ffffffff1611612ebb576040517f08c379a000000000000000000000000000000000000000000000000000000000815260206004820152600860248201527f4e4f5f464c4545540000000000000000000000000000000000000000000000006044820152606401610a4c565b6040517f1e7c86ea000000000000000000000000000000000000000000000000000000008152600481018590526000907f000000000000000000000000000000000000000000000000000000000000000073ffffffffffffffffffffffffffffffffffffffff1690631e7c86ea906024016101006040518083038186803b158015612f4557600080fd5b505afa158015612f59573d6000803e3d6000fd5b505050506040513d601f19601f82011682018060405250810190612f7d919061445c565b90506000612f8a866136a9565b90506000612f9b8260000151613744565b90506000612710612fcc7f000000000000000000000000000000000000000000000000000000000000000084614119565b612fd69190614105565b905080846060015163ffffffff161161304b576040517f08c379a000000000000000000000000000000000000000000000000000000000815260206004820152601560248201527f4e4f545f454e4f5547485f5350414345534849505300000000000000000000006044820152606401610a4c565b80846060015163ffffffff166130619190614328565b8963ffffffff1611156130d0576040517f08c379a000000000000000000000000000000000000000000000000000000000815260206004820152601c60248201527f4e4545445f544f5f4c454156455f454e4f5547485f444546454e5345000000006044820152606401610a4c565b84610120015180156130e457508461014001515b61314a576040517f08c379a000000000000000000000000000000000000000000000000000000000815260206004820152601260248201527f4e4f545f4143544956455f564943544f525900000000000000000000000000006044820152606401610a4c565b60008b81526007602052604090205461010090047effffffffffffffffffffffffffffffffffffffffffffffffffffffffffffff16806131dd5760006131938c602001356136a9565b905060006131a48260000151613744565b9050856020015161ffff16826040015161ffff16826131c39190614119565b6131cd9190614105565b6131d89060016142c3565b925050505b808a63ffffffff1610613227575060008b815260076020526040812080547fffffffffffffffffffffffffffffffffffffffffffffffffffffffffffffff0016600117905561325b565b61323763ffffffff8b1682614328565b7effffffffffffffffffffffffffffffffffffffffffffffffffffffffffffff1690505b80600760008e815260200190815260200160002060000160016101000a8154817effffffffffffffffffffffffffffffffffffffffffffffffffffffffffffff02191690837effffffffffffffffffffffffffffffffffffffffffffffffffffffffffffff1602179055508b8b60c001358c602001358d60800160208101906132e49190614522565b8e60a00160208101906132f7919061395b565b8f60600135604051602001613356959493929190948552602085019390935290151560f81b604084015260601b7fffffffffffffffffffffffffffffffffffffffff000000000000000000000000166041830152605582015260750190565b604051602081830303815290604052805190602001208c600001358d60e0016020810190613384919061395b565b8e610100016020810190613398919061395b565b6040805160208101959095528401929092527fffffffffffffffffffffffffffffffffffffffff000000000000000000000000606091821b81168285015291901b1660748201526088016040516020818303038152906040528051906020012060001c14613462576040517f08c379a000000000000000000000000000000000000000000000000000000000815260206004820152601c60248201527f494e56414c49445f464c4545545f444154415f4f525f534543524554000000006044820152606401610a4c565b6040517f112e6851000000000000000000000000000000000000000000000000000000008152600481018a905263ffffffff8b166024820152604481018990527f000000000000000000000000000000000000000000000000000000000000000073ffffffffffffffffffffffffffffffffffffffff169063112e685190606401600060405180830381600087803b1580156134fd57600080fd5b505af1158015613511573d6000803e3d6000fd5b505060408051602081018c90529081018c905230606090811b7fffffffffffffffffffffffffffffffffffffffff000000000000000000000000169082018190526074820152600092506088019050604080517fffffffffffffffffffffffffffffffffffffffffffffffffffffffffffffffe0818403018152828252805160209182012080845263ffffffff8f16848301529183018590529092508d0135908e9073ffffffffffffffffffffffffffffffffffffffff8b16907fd595445e01dfe4702f0b9704620ff922721c1f357ef471206103254c667a30f59060600160405180910390a450505050505050505050505050565b8060008082825461361891906142c3565b909155505073ffffffffffffffffffffffffffffffffffffffff8216600090815260016020526040812080548392906136529084906142c3565b909155505060405181815273ffffffffffffffffffffffffffffffffffffffff8316906000907fddf252ad1be2c89b69c2b068fc378daa952ba7f163c4a11628f55a4df523b3ef9060200160405180910390a35050565b6040805160608082018352600080835260208084018290528385019190915283517f00000000000000000000000000000000000000000000000000000000000000008183015280850186905284518082038601815292019093528051920191909120613714816137ab565b61ffff168252613723816137d9565b61ffff16602083015261373581613801565b61ffff16604083015250919050565b6000610e106137777f000000000000000000000000000000000000000000000000000000000000000061ffff8516614119565b6137819190614105565b610aef907f00000000000000000000000000000000000000000000000000000000000000006142c3565b6000610aef82600c7f0708083409600a8c0bb80ce40e100e100e100e101068151819c81e7823282ee061380e565b60006137e682601461387f565b6137f59060ff1661019061453f565b610aef90610fa0614569565b60006137e682601c61387f565b60008061381b858561387f565b90508261382982600261458f565b6138349060016145b8565b60ff166020811061384757613847614156565b1a8361385483600261458f565b60ff166020811061386757613867614156565b61387591901a61010061453f565b610f2d9190614569565b60008061388e84846040613919565b9050600061389d6002836145dd565b905060006138ac6002846145ff565b905060007f01223334444555555666666677777777888888889999999aaaaaabbbbcccddef60ff8416602081106138e5576138e5614156565b1a905060ff82166139035760048160ff16901c945050505050610aef565b61390e6010826145ff565b945050505050610aef565b600061392e60ff80841690851686901c614621565b949350505050565b73ffffffffffffffffffffffffffffffffffffffff8116811461395857600080fd5b50565b60006020828403121561396d57600080fd5b813561397881613936565b9392505050565b600060208083528351808285015260005b818110156139ac57858101830151858201604001528201613990565b818111156139be576000604083870101525b50601f017fffffffffffffffffffffffffffffffffffffffffffffffffffffffffffffffe016929092016040019392505050565b60008060408385031215613a0557600080fd5b8235613a1081613936565b946020939093013593505050565b60008083601f840112613a3057600080fd5b50813567ffffffffffffffff811115613a4857600080fd5b6020830191508360208260051b8501011115613a6357600080fd5b9250929050565b600080600060408486031215613a7f57600080fd5b833567ffffffffffffffff811115613a9657600080fd5b613aa286828701613a1e565b909790965060209590950135949350505050565b600080600060608486031215613acb57600080fd5b8335613ad681613936565b92506020840135613ae681613936565b929592945050506040919091013590565b60008083601f840112613b0957600080fd5b50813567ffffffffffffffff811115613b2157600080fd5b602083019150836020828501011115613a6357600080fd5b60008060008060608587031215613b4f57600080fd5b8435613b5a81613936565b935060208501359250604085013567ffffffffffffffff811115613b7d57600080fd5b613b8987828801613af7565b95989497509550505050565b600080600080600060808688031215613bad57600080fd5b8535613bb881613936565b94506020860135613bc881613936565b935060408601359250606086013567ffffffffffffffff811115613beb57600080fd5b613bf788828901613af7565b969995985093965092949392505050565b60008060408385031215613c1b57600080fd5b50508035926020909101359150565b7f4e487b7100000000000000000000000000000000000000000000000000000000600052604160045260246000fd5b604051610160810167ffffffffffffffff81118282101715613c7d57613c7d613c2a565b60405290565b604051601f82017fffffffffffffffffffffffffffffffffffffffffffffffffffffffffffffffe016810167ffffffffffffffff81118282101715613cca57613cca613c2a565b604052919050565b60008060008060808587031215613ce857600080fd5b843567ffffffffffffffff80821115613d0057600080fd5b818701915087601f830112613d1457600080fd5b8135602082821115613d2857613d28613c2a565b8160051b9250613d39818401613c83565b828152928401810192818101908b851115613d5357600080fd5b948201945b84861015613d7157853582529482019490820190613d58565b9b918a01359a505060408901359860600135975095505050505050565b63ffffffff8116811461395857600080fd5b600080600080600080600080888a03610200811215613dbe57600080fd5b893598506101207fffffffffffffffffffffffffffffffffffffffffffffffffffffffffffffffe082011215613df357600080fd5b50602089019650610140890135613e0981613d8e565b9550610160890135945061018089013593506101a089013592506101c089013591506101e0890135613e3a81613936565b809150509295985092959890939650565b600060208284031215613e5d57600080fd5b5035919050565b60008060008060008587036101c0811215613e7e57600080fd5b8635613e8981613936565b95506020870135613e9981613936565b94506040870135613ea981613936565b93506060870135613eb981613936565b92506101407fffffffffffffffffffffffffffffffffffffffffffffffffffffffffffffff8082011215613eec57600080fd5b506080860190509295509295909350565b600080600080600080600060e0888a031215613f1857600080fd5b8735613f2381613936565b96506020880135613f3381613936565b95506040880135945060608801359350608088013560ff81168114613f5757600080fd5b9699959850939692959460a0840135945060c09093013592915050565b60008060408385031215613f8757600080fd5b8235613f9281613936565b91506020830135613fa281613936565b809150509250929050565b60008060008060408587031215613fc357600080fd5b843567ffffffffffffffff80821115613fdb57600080fd5b613fe788838901613a1e565b9096509450602087013591508082111561400057600080fd5b50613b8987828801613a1e565b6000806000806000806060878903121561402657600080fd5b863567ffffffffffffffff8082111561403e57600080fd5b61404a8a838b01613a1e565b9098509650602089013591508082111561406357600080fd5b61406f8a838b01613a1e565b9096509450604089013591508082111561408857600080fd5b5061409589828a01613a1e565b979a9699509497509295939492505050565b7f4e487b7100000000000000000000000000000000000000000000000000000000600052601260045260246000fd5b7f4e487b7100000000000000000000000000000000000000000000000000000000600052601160045260246000fd5b600082614114576141146140a7565b500490565b6000817fffffffffffffffffffffffffffffffffffffffffffffffffffffffffffffffff0483118215151615614151576141516140d6565b500290565b7f4e487b7100000000000000000000000000000000000000000000000000000000600052603260045260246000fd5b60007fffffffffffffffffffffffffffffffffffffffffffffffffffffffffffffffff8214156141b7576141b76140d6565b5060010190565b8183528181602085013750600060208284010152600060207fffffffffffffffffffffffffffffffffffffffffffffffffffffffffffffffe0601f840116840101905092915050565b73ffffffffffffffffffffffffffffffffffffffff85168152836020820152606060408201526000610fef6060830184866141be565b801515811461395857600080fd5b80516142568161423d565b919050565b60006020828403121561426d57600080fd5b81516139788161423d565b600073ffffffffffffffffffffffffffffffffffffffff8088168352808716602084015250846040830152608060608301526142b86080830184866141be565b979650505050505050565b600082198211156142d6576142d66140d6565b500190565b606080825284519082018190526000906020906080840190828801845b82811015614314578151845292840192908401906001016142f8565b505050908301949094525060400152919050565b60008282101561433a5761433a6140d6565b500390565b805161425681613936565b805164ffffffffff8116811461425657600080fd5b805161425681613d8e565b805167ffffffffffffffff8116811461425657600080fd5b6000610160828403121561439557600080fd5b61439d613c59565b6143a68361424b565b81526143b46020840161433f565b60208201526143c56040840161434a565b60408201526143d66060840161435f565b60608201526143e76080840161436a565b60808201526143f860a0840161436a565b60a082015261440960c0840161433f565b60c082015261441a60e0840161434a565b60e082015261010061442d81850161435f565b9082015261012061443f84820161424b565b9082015261014061445184820161424b565b908201529392505050565b600061010080838503121561447057600080fd5b6040519081019067ffffffffffffffff8211818310171561449357614493613c2a565b81604052835191506144a482613936565b8181526144b36020850161434a565b60208201526144c46040850161434a565b60408201526144d56060850161435f565b60608201526144e66080850161435f565b60808201526144f760a0850161434a565b60a082015261450860c0850161424b565b60c082015260e084015160e0820152809250505092915050565b60006020828403121561453457600080fd5b81356139788161423d565b600061ffff80831681851681830481118215151615614560576145606140d6565b02949350505050565b600061ffff808316818516808303821115614586576145866140d6565b01949350505050565b600060ff821660ff84168160ff04811182151516156145b0576145b06140d6565b029392505050565b600060ff821660ff84168060ff038211156145d5576145d56140d6565b019392505050565b600060ff8316806145f0576145f06140a7565b8060ff84160491505092915050565b600060ff831680614612576146126140a7565b8060ff84160691505092915050565b600082614630576146306140a7565b50069056fea26469706673582212203212c4f518f09f62e5a9fea9a8b0d6d14eff1b4da64e5990627d0f04a987487a64736f6c63430008090033",
  "devdoc": {
    "kind": "dev",
    "methods": {
      "allowance(address,address)": {
        "details": "Returns the remaining number of tokens that `spender` will be allowed to spend on behalf of `owner` through {transferFrom}. This is zero by default. This value changes when {approve} or {transferFrom} are called."
      },
      "approve(address,uint256)": {
        "details": "Sets `amount` as the allowance of `spender` over the caller's tokens. Returns a boolean value indicating whether the operation succeeded. IMPORTANT: Beware that changing an allowance with this method brings the risk that someone may use both the old and the new allowance by unfortunate transaction ordering. One possible solution to mitigate this race condition is to first reduce the spender's allowance to 0 and set the desired value afterwards: https://github.com/ethereum/EIPs/issues/20#issuecomment-263524729 Emits an {Approval} event."
      },
      "totalSupply()": {
        "details": "Returns the amount of tokens in existence."
      }
    },
    "version": 1
  },
  "userdoc": {
    "kind": "user",
    "methods": {},
    "version": 1
  },
  "storageLayout": {
    "storage": [
      {
        "astId": 11042,
        "contract": "src/yakuza/Yakuza.sol:Yakuza",
        "label": "_totalSupply",
        "offset": 0,
        "slot": "0",
        "type": "t_uint256"
      },
      {
        "astId": 11046,
        "contract": "src/yakuza/Yakuza.sol:Yakuza",
        "label": "_balances",
        "offset": 0,
        "slot": "1",
        "type": "t_mapping(t_address,t_uint256)"
      },
      {
        "astId": 11052,
        "contract": "src/yakuza/Yakuza.sol:Yakuza",
        "label": "_allowances",
        "offset": 0,
        "slot": "2",
        "type": "t_mapping(t_address,t_mapping(t_address,t_uint256))"
      },
      {
        "astId": 11876,
        "contract": "src/yakuza/Yakuza.sol:Yakuza",
        "label": "_nonces",
        "offset": 0,
        "slot": "3",
        "type": "t_mapping(t_address,t_uint256)"
      },
      {
        "astId": 21144,
        "contract": "src/yakuza/Yakuza.sol:Yakuza",
        "label": "rewardReceiver",
        "offset": 0,
        "slot": "4",
        "type": "t_address"
      },
      {
        "astId": 21147,
        "contract": "src/yakuza/Yakuza.sol:Yakuza",
        "label": "generator",
        "offset": 0,
        "slot": "5",
        "type": "t_contract(RewardsGenerator)13602"
      },
      {
        "astId": 21157,
        "contract": "src/yakuza/Yakuza.sol:Yakuza",
        "label": "subscriptions",
        "offset": 0,
        "slot": "6",
        "type": "t_mapping(t_address,t_struct(Subscription)21152_storage)"
      },
      {
        "astId": 21167,
        "contract": "src/yakuza/Yakuza.sol:Yakuza",
        "label": "claims",
        "offset": 0,
        "slot": "7",
        "type": "t_mapping(t_uint256,t_struct(Claim)21162_storage)"
      }
    ],
    "types": {
      "t_address": {
        "encoding": "inplace",
        "label": "address",
        "numberOfBytes": "20"
      },
      "t_bool": {
        "encoding": "inplace",
        "label": "bool",
        "numberOfBytes": "1"
      },
      "t_contract(RewardsGenerator)13602": {
        "encoding": "inplace",
        "label": "contract RewardsGenerator",
        "numberOfBytes": "20"
      },
      "t_mapping(t_address,t_mapping(t_address,t_uint256))": {
        "encoding": "mapping",
        "key": "t_address",
        "label": "mapping(address => mapping(address => uint256))",
        "numberOfBytes": "32",
        "value": "t_mapping(t_address,t_uint256)"
      },
      "t_mapping(t_address,t_struct(Subscription)21152_storage)": {
        "encoding": "mapping",
        "key": "t_address",
        "label": "mapping(address => struct Yakuza.Subscription)",
        "numberOfBytes": "32",
        "value": "t_struct(Subscription)21152_storage"
      },
      "t_mapping(t_address,t_uint256)": {
        "encoding": "mapping",
        "key": "t_address",
        "label": "mapping(address => uint256)",
        "numberOfBytes": "32",
        "value": "t_uint256"
      },
      "t_mapping(t_uint256,t_struct(Claim)21162_storage)": {
        "encoding": "mapping",
        "key": "t_uint256",
        "label": "mapping(uint256 => struct Yakuza.Claim)",
        "numberOfBytes": "32",
        "value": "t_struct(Claim)21162_storage"
      },
      "t_struct(Claim)21162_storage": {
        "encoding": "inplace",
        "label": "struct Yakuza.Claim",
        "members": [
          {
            "astId": 21159,
            "contract": "src/yakuza/Yakuza.sol:Yakuza",
            "label": "claimed",
            "offset": 0,
            "slot": "0",
            "type": "t_bool"
          },
          {
            "astId": 21161,
            "contract": "src/yakuza/Yakuza.sol:Yakuza",
            "label": "amountLeft",
            "offset": 1,
            "slot": "0",
            "type": "t_uint248"
          }
        ],
        "numberOfBytes": "32"
      },
      "t_struct(Subscription)21152_storage": {
        "encoding": "inplace",
        "label": "struct Yakuza.Subscription",
        "members": [
          {
            "astId": 21149,
            "contract": "src/yakuza/Yakuza.sol:Yakuza",
            "label": "startTime",
            "offset": 0,
            "slot": "0",
            "type": "t_uint256"
          },
          {
            "astId": 21151,
            "contract": "src/yakuza/Yakuza.sol:Yakuza",
            "label": "endTime",
            "offset": 0,
            "slot": "1",
            "type": "t_uint256"
          }
        ],
        "numberOfBytes": "64"
      },
      "t_uint248": {
        "encoding": "inplace",
        "label": "uint248",
        "numberOfBytes": "31"
      },
      "t_uint256": {
        "encoding": "inplace",
        "label": "uint256",
        "numberOfBytes": "32"
      }
    }
  }
}