{
  "address": "0x5E47E71EB3EF8452Db136cd9Dc2285d580d3C60d",
  "abi": [
    {
      "inputs": [
        {
          "components": [
            {
              "internalType": "contract StakingToken",
              "name": "stakingToken",
              "type": "address"
            },
            {
              "internalType": "contract IFreePlayToken",
              "name": "freeStakingToken",
              "type": "address"
            },
            {
              "internalType": "contract AllianceRegistry",
              "name": "allianceRegistry",
              "type": "address"
            },
            {
              "internalType": "bytes32",
              "name": "genesis",
              "type": "bytes32"
            },
            {
              "internalType": "uint256",
              "name": "resolveWindow",
              "type": "uint256"
            },
            {
              "internalType": "uint256",
              "name": "timePerDistance",
              "type": "uint256"
            },
            {
              "internalType": "uint256",
              "name": "exitDuration",
              "type": "uint256"
            },
            {
              "internalType": "uint32",
              "name": "acquireNumSpaceships",
              "type": "uint32"
            },
            {
              "internalType": "uint32",
              "name": "productionSpeedUp",
              "type": "uint32"
            },
            {
              "internalType": "uint256",
              "name": "frontrunningDelay",
              "type": "uint256"
            },
            {
              "internalType": "uint256",
              "name": "productionCapAsDuration",
              "type": "uint256"
            },
            {
              "internalType": "uint256",
              "name": "upkeepProductionDecreaseRatePer10000th",
              "type": "uint256"
            },
            {
              "internalType": "uint256",
              "name": "fleetSizeFactor6",
              "type": "uint256"
            },
            {
              "internalType": "uint32",
              "name": "initialSpaceExpansion",
              "type": "uint32"
            },
            {
              "internalType": "uint32",
              "name": "expansionDelta",
              "type": "uint32"
            },
            {
              "internalType": "uint256",
              "name": "giftTaxPer10000",
              "type": "uint256"
            },
            {
              "internalType": "bytes32",
              "name": "stakeRange",
              "type": "bytes32"
            },
            {
              "internalType": "uint256",
              "name": "stakeMultiplier10000th",
              "type": "uint256"
            },
            {
              "internalType": "uint256",
              "name": "bootstrapSessionEndTime",
              "type": "uint256"
            },
            {
              "internalType": "uint256",
              "name": "infinityStartTime",
              "type": "uint256"
            }
          ],
          "internalType": "struct OuterSpaceFacetBase.Config",
          "name": "config",
          "type": "tuple"
        }
      ],
      "stateMutability": "nonpayable",
      "type": "constructor"
    },
    {
      "anonymous": false,
      "inputs": [
        {
          "indexed": true,
          "internalType": "address",
          "name": "owner",
          "type": "address"
        },
        {
          "indexed": true,
          "internalType": "address",
          "name": "operator",
          "type": "address"
        },
        {
          "indexed": false,
          "internalType": "bool",
          "name": "approved",
          "type": "bool"
        }
      ],
      "name": "ApprovalForAll",
      "type": "event"
    },
    {
      "anonymous": false,
      "inputs": [
        {
          "indexed": false,
          "internalType": "uint256",
          "name": "block",
          "type": "uint256"
        },
        {
          "indexed": false,
          "internalType": "uint256",
          "name": "timestamp",
          "type": "uint256"
        }
      ],
      "name": "BlockTime",
      "type": "event"
    },
    {
      "anonymous": false,
      "inputs": [
        {
          "indexed": true,
          "internalType": "address",
          "name": "owner",
          "type": "address"
        },
        {
          "indexed": true,
          "internalType": "uint256",
          "name": "location",
          "type": "uint256"
        },
        {
          "indexed": false,
          "internalType": "uint256",
          "name": "stake",
          "type": "uint256"
        }
      ],
      "name": "ExitComplete",
      "type": "event"
    },
    {
      "anonymous": false,
      "inputs": [
        {
          "indexed": true,
          "internalType": "uint256",
          "name": "fleet",
          "type": "uint256"
        },
        {
          "indexed": true,
          "internalType": "address",
          "name": "fleetOwner",
          "type": "address"
        },
        {
          "indexed": true,
          "internalType": "address",
          "name": "destinationOwner",
          "type": "address"
        },
        {
          "indexed": false,
          "internalType": "uint256",
          "name": "destination",
          "type": "uint256"
        },
        {
          "indexed": false,
          "internalType": "bool",
          "name": "gift",
          "type": "bool"
        },
        {
          "indexed": false,
          "internalType": "bool",
          "name": "won",
          "type": "bool"
        },
        {
          "components": [
            {
              "internalType": "uint32",
              "name": "newNumspaceships",
              "type": "uint32"
            },
            {
              "internalType": "int40",
              "name": "newTravelingUpkeep",
              "type": "int40"
            },
            {
              "internalType": "uint32",
              "name": "newOverflow",
              "type": "uint32"
            },
            {
              "internalType": "uint32",
              "name": "numSpaceshipsAtArrival",
              "type": "uint32"
            },
            {
              "internalType": "uint32",
              "name": "taxLoss",
              "type": "uint32"
            },
            {
              "internalType": "uint32",
              "name": "fleetLoss",
              "type": "uint32"
            },
            {
              "internalType": "uint32",
              "name": "planetLoss",
              "type": "uint32"
            },
            {
              "internalType": "uint32",
              "name": "inFlightFleetLoss",
              "type": "uint32"
            },
            {
              "internalType": "uint32",
              "name": "inFlightPlanetLoss",
              "type": "uint32"
            },
            {
              "internalType": "uint32",
              "name": "accumulatedDefenseAdded",
              "type": "uint32"
            },
            {
              "internalType": "uint32",
              "name": "accumulatedAttackAdded",
              "type": "uint32"
            }
          ],
          "indexed": false,
          "internalType": "struct ImportingOuterSpaceEvents.ArrivalData",
          "name": "data",
          "type": "tuple"
        }
      ],
      "name": "FleetArrived",
      "type": "event"
    },
    {
      "anonymous": false,
      "inputs": [
        {
          "indexed": true,
          "internalType": "uint256",
          "name": "fleetId",
          "type": "uint256"
        },
        {
          "indexed": true,
          "internalType": "uint256",
          "name": "from",
          "type": "uint256"
        },
        {
          "indexed": true,
          "internalType": "uint256",
          "name": "to",
          "type": "uint256"
        },
        {
          "indexed": false,
          "internalType": "uint256",
          "name": "arrivalTimeWanted",
          "type": "uint256"
        },
        {
          "indexed": false,
          "internalType": "bool",
          "name": "gift",
          "type": "bool"
        },
        {
          "indexed": false,
          "internalType": "address",
          "name": "specific",
          "type": "address"
        },
        {
          "indexed": false,
          "internalType": "bytes32",
          "name": "secret",
          "type": "bytes32"
        },
        {
          "indexed": false,
          "internalType": "address",
          "name": "fleetSender",
          "type": "address"
        },
        {
          "indexed": false,
          "internalType": "address",
          "name": "operator",
          "type": "address"
        }
      ],
      "name": "FleetRevealed",
      "type": "event"
    },
    {
      "anonymous": false,
      "inputs": [
        {
          "indexed": true,
          "internalType": "address",
          "name": "fleetSender",
          "type": "address"
        },
        {
          "indexed": true,
          "internalType": "address",
          "name": "fleetOwner",
          "type": "address"
        },
        {
          "indexed": true,
          "internalType": "uint256",
          "name": "from",
          "type": "uint256"
        },
        {
          "indexed": false,
          "internalType": "address",
          "name": "operator",
          "type": "address"
        },
        {
          "indexed": false,
          "internalType": "uint256",
          "name": "fleet",
          "type": "uint256"
        },
        {
          "indexed": false,
          "internalType": "uint32",
          "name": "quantity",
          "type": "uint32"
        },
        {
          "indexed": false,
          "internalType": "uint32",
          "name": "newNumSpaceships",
          "type": "uint32"
        },
        {
          "indexed": false,
          "internalType": "int40",
          "name": "newTravelingUpkeep",
          "type": "int40"
        },
        {
          "indexed": false,
          "internalType": "uint32",
          "name": "newOverflow",
          "type": "uint32"
        }
      ],
      "name": "FleetSent",
      "type": "event"
    },
    {
      "anonymous": false,
      "inputs": [
        {
          "indexed": false,
          "internalType": "address",
          "name": "newGeneratorAdmin",
          "type": "address"
        }
      ],
      "name": "GeneratorAdminChanged",
      "type": "event"
    },
    {
      "anonymous": false,
      "inputs": [
        {
          "indexed": false,
          "internalType": "address",
          "name": "newGenerator",
          "type": "address"
        }
      ],
      "name": "GeneratorChanged",
      "type": "event"
    },
    {
      "anonymous": false,
      "inputs": [
        {
          "indexed": false,
          "internalType": "bytes32",
          "name": "genesis",
          "type": "bytes32"
        },
        {
          "indexed": false,
          "internalType": "uint256",
          "name": "resolveWindow",
          "type": "uint256"
        },
        {
          "indexed": false,
          "internalType": "uint256",
          "name": "timePerDistance",
          "type": "uint256"
        },
        {
          "indexed": false,
          "internalType": "uint256",
          "name": "exitDuration",
          "type": "uint256"
        },
        {
          "indexed": false,
          "internalType": "uint32",
          "name": "acquireNumSpaceships",
          "type": "uint32"
        },
        {
          "indexed": false,
          "internalType": "uint32",
          "name": "productionSpeedUp",
          "type": "uint32"
        },
        {
          "indexed": false,
          "internalType": "uint256",
          "name": "frontrunningDelay",
          "type": "uint256"
        },
        {
          "indexed": false,
          "internalType": "uint256",
          "name": "productionCapAsDuration",
          "type": "uint256"
        },
        {
          "indexed": false,
          "internalType": "uint256",
          "name": "upkeepProductionDecreaseRatePer10000th",
          "type": "uint256"
        },
        {
          "indexed": false,
          "internalType": "uint256",
          "name": "fleetSizeFactor6",
          "type": "uint256"
        },
        {
          "indexed": false,
          "internalType": "uint32",
          "name": "initialSpaceExpansion",
          "type": "uint32"
        },
        {
          "indexed": false,
          "internalType": "uint32",
          "name": "expansionDelta",
          "type": "uint32"
        },
        {
          "indexed": false,
          "internalType": "uint256",
          "name": "giftTaxPer10000",
          "type": "uint256"
        }
      ],
      "name": "Initialized",
      "type": "event"
    },
    {
      "anonymous": false,
      "inputs": [
        {
          "indexed": true,
          "internalType": "address",
          "name": "owner",
          "type": "address"
        },
        {
          "indexed": true,
          "internalType": "uint256",
          "name": "location",
          "type": "uint256"
        }
      ],
      "name": "PlanetExit",
      "type": "event"
    },
    {
      "anonymous": false,
      "inputs": [
        {
          "indexed": true,
          "internalType": "uint256",
          "name": "location",
          "type": "uint256"
        }
      ],
      "name": "PlanetReset",
      "type": "event"
    },
    {
      "anonymous": false,
      "inputs": [
        {
          "indexed": true,
          "internalType": "address",
          "name": "acquirer",
          "type": "address"
        },
        {
          "indexed": true,
          "internalType": "uint256",
          "name": "location",
          "type": "uint256"
        },
        {
          "indexed": false,
          "internalType": "uint32",
          "name": "numSpaceships",
          "type": "uint32"
        },
        {
          "indexed": false,
          "internalType": "int40",
          "name": "travelingUpkeep",
          "type": "int40"
        },
        {
          "indexed": false,
          "internalType": "uint32",
          "name": "overflow",
          "type": "uint32"
        },
        {
          "indexed": false,
          "internalType": "uint256",
          "name": "stake",
          "type": "uint256"
        },
        {
          "indexed": false,
          "internalType": "bool",
          "name": "freegift",
          "type": "bool"
        }
      ],
      "name": "PlanetStake",
      "type": "event"
    },
    {
      "anonymous": false,
      "inputs": [
        {
          "indexed": true,
          "internalType": "address",
          "name": "previousOwner",
          "type": "address"
        },
        {
          "indexed": true,
          "internalType": "address",
          "name": "newOwner",
          "type": "address"
        },
        {
          "indexed": true,
          "internalType": "uint256",
          "name": "location",
          "type": "uint256"
        },
        {
          "indexed": false,
          "internalType": "uint32",
          "name": "newNumspaceships",
          "type": "uint32"
        },
        {
          "indexed": false,
          "internalType": "int40",
          "name": "newTravelingUpkeep",
          "type": "int40"
        },
        {
          "indexed": false,
          "internalType": "uint32",
          "name": "newOverflow",
          "type": "uint32"
        }
      ],
      "name": "PlanetTransfer",
      "type": "event"
    },
    {
      "anonymous": false,
      "inputs": [
        {
          "indexed": true,
          "internalType": "uint256",
          "name": "location",
          "type": "uint256"
        },
        {
          "indexed": true,
          "internalType": "address",
          "name": "giver",
          "type": "address"
        },
        {
          "indexed": false,
          "internalType": "uint256",
          "name": "rewardId",
          "type": "uint256"
        }
      ],
      "name": "RewardSetup",
      "type": "event"
    },
    {
      "anonymous": false,
      "inputs": [
        {
          "indexed": true,
          "internalType": "address",
          "name": "owner",
          "type": "address"
        },
        {
          "indexed": true,
          "internalType": "uint256",
          "name": "location",
          "type": "uint256"
        },
        {
          "indexed": true,
          "internalType": "uint256",
          "name": "rewardId",
          "type": "uint256"
        }
      ],
      "name": "RewardToWithdraw",
      "type": "event"
    },
    {
      "anonymous": false,
      "inputs": [
        {
          "indexed": true,
          "internalType": "address",
          "name": "owner",
          "type": "address"
        },
        {
          "indexed": false,
          "internalType": "uint256",
          "name": "newStake",
          "type": "uint256"
        },
        {
          "indexed": false,
          "internalType": "bool",
          "name": "freegift",
          "type": "bool"
        }
      ],
      "name": "StakeToWithdraw",
      "type": "event"
    },
    {
      "anonymous": false,
      "inputs": [
        {
          "indexed": true,
          "internalType": "address",
          "name": "from",
          "type": "address"
        },
        {
          "indexed": true,
          "internalType": "address",
          "name": "to",
          "type": "address"
        },
        {
          "indexed": true,
          "internalType": "uint256",
          "name": "location",
          "type": "uint256"
        }
      ],
      "name": "Transfer",
      "type": "event"
    },
    {
      "anonymous": false,
      "inputs": [
        {
          "indexed": true,
          "internalType": "uint256",
          "name": "origin",
          "type": "uint256"
        },
        {
          "indexed": true,
          "internalType": "uint256",
          "name": "fleet",
          "type": "uint256"
        },
        {
          "indexed": false,
          "internalType": "uint32",
          "name": "newNumspaceships",
          "type": "uint32"
        },
        {
          "indexed": false,
          "internalType": "int40",
          "name": "newTravelingUpkeep",
          "type": "int40"
        },
        {
          "indexed": false,
          "internalType": "uint32",
          "name": "newOverflow",
          "type": "uint32"
        }
      ],
      "name": "TravelingUpkeepRefund",
      "type": "event"
    },
    {
      "inputs": [
        {
          "internalType": "uint256",
          "name": "from",
          "type": "uint256"
        },
        {
          "internalType": "uint32",
          "name": "quantity",
          "type": "uint32"
        },
        {
          "internalType": "bytes32",
          "name": "toHash",
          "type": "bytes32"
        }
      ],
      "name": "send",
      "outputs": [],
      "stateMutability": "nonpayable",
      "type": "function"
    },
    {
      "inputs": [
        {
          "components": [
            {
              "internalType": "address",
              "name": "fleetSender",
              "type": "address"
            },
            {
              "internalType": "address",
              "name": "fleetOwner",
              "type": "address"
            },
            {
              "internalType": "uint256",
              "name": "from",
              "type": "uint256"
            },
            {
              "internalType": "uint32",
              "name": "quantity",
              "type": "uint32"
            },
            {
              "internalType": "bytes32",
              "name": "toHash",
              "type": "bytes32"
            }
          ],
          "internalType": "struct ImportingOuterSpaceTypes.FleetLaunch",
          "name": "launch",
          "type": "tuple"
        }
      ],
      "name": "sendFor",
      "outputs": [],
      "stateMutability": "nonpayable",
      "type": "function"
    },
    {
      "inputs": [
        {
          "components": [
            {
              "internalType": "address",
              "name": "fleetSender",
              "type": "address"
            },
            {
              "internalType": "address",
              "name": "fleetOwner",
              "type": "address"
            },
            {
              "internalType": "uint256",
              "name": "from",
              "type": "uint256"
            },
            {
              "internalType": "uint32",
              "name": "quantity",
              "type": "uint32"
            },
            {
              "internalType": "bytes32",
              "name": "toHash",
              "type": "bytes32"
            }
          ],
          "internalType": "struct ImportingOuterSpaceTypes.FleetLaunch[]",
          "name": "launches",
          "type": "tuple[]"
        },
        {
          "internalType": "address payable",
          "name": "payee",
          "type": "address"
        }
      ],
      "name": "sendForMultipleWithPayee",
      "outputs": [],
      "stateMutability": "payable",
      "type": "function"
    },
    {
      "inputs": [
        {
          "components": [
            {
              "internalType": "address",
              "name": "fleetSender",
              "type": "address"
            },
            {
              "internalType": "address",
              "name": "fleetOwner",
              "type": "address"
            },
            {
              "internalType": "uint256",
              "name": "from",
              "type": "uint256"
            },
            {
              "internalType": "uint32",
              "name": "quantity",
              "type": "uint32"
            },
            {
              "internalType": "bytes32",
              "name": "toHash",
              "type": "bytes32"
            }
          ],
          "internalType": "struct ImportingOuterSpaceTypes.FleetLaunch",
          "name": "launch",
          "type": "tuple"
        },
        {
          "internalType": "address payable",
          "name": "payee",
          "type": "address"
        }
      ],
      "name": "sendForWithPayee",
      "outputs": [],
      "stateMutability": "payable",
      "type": "function"
    },
    {
      "inputs": [
        {
          "internalType": "uint256",
          "name": "from",
          "type": "uint256"
        },
        {
          "internalType": "uint32",
          "name": "quantity",
          "type": "uint32"
        },
        {
          "internalType": "bytes32",
          "name": "toHash",
          "type": "bytes32"
        },
        {
          "internalType": "address payable",
          "name": "payee",
          "type": "address"
        }
      ],
      "name": "sendWithPayee",
      "outputs": [],
      "stateMutability": "payable",
      "type": "function"
    }
  ],
  "transactionHash": "0xbb718fed5b609e3be09ddab614b9b9ef1eed5c44718d69ba112b828c4fbb451e",
  "args": [
    {
      "stakingToken": "0x1874F6326eEbcCe664410a93a5217741a977D14A",
      "freeStakingToken": "0x8d82B1900bc77fACdf6f2209869E4f816E4fbcB2",
      "allianceRegistry": "0x6bcAC36717257096426E7b7a185D1250D1c83CD3",
      "genesis": "0x69AB0921CC2BCC5C203B2BCCC4B5CE33ACB9520A4776421236C81AD3DA565991",
      "resolveWindow": 43200,
      "timePerDistance": 7200,
      "exitDuration": 259200,
      "acquireNumSpaceships": 100000,
      "productionSpeedUp": 1,
      "frontrunningDelay": 1800,
      "productionCapAsDuration": 259200,
      "upkeepProductionDecreaseRatePer10000th": 5000,
      "fleetSizeFactor6": 500000,
      "initialSpaceExpansion": 12,
      "expansionDelta": 6,
      "giftTaxPer10000": 2000,
      "stakeRange": "0x0064008200aa00c800f0010e012c014a014a017201900212029e032003a204b0",
      "stakeMultiplier10000th": 100,
      "bootstrapSessionEndTime": 1741168800,
      "infinityStartTime": 1741255200
    }
  ],
  "numDeployments": 2,
  "linkedData": {
    "genesisHash": "0x69AB0921CC2BCC5C203B2BCCC4B5CE33ACB9520A4776421236C81AD3DA565991",
    "resolveWindow": 43200,
    "timePerDistance": 7200,
    "exitDuration": 259200,
    "acquireNumSpaceships": 100000,
    "productionSpeedUp": 1,
    "chainGenesisHash": "",
    "frontrunningDelay": 1800,
    "productionCapAsDuration": 259200,
    "upkeepProductionDecreaseRatePer10000th": 5000,
    "fleetSizeFactor6": 500000,
    "initialSpaceExpansion": 12,
    "expansionDelta": 6,
    "giftTaxPer10000": 2000,
    "stakeRange": "0x0064008200aa00c800f0010e012c014a014a017201900212029e032003a204b0",
    "stakeMultiplier10000th": 100,
    "bootstrapSessionEndTime": 1741168800,
    "infinityStartTime": 1741255200,
    "deploymentTimestamp": 1738347934
  },
  "solcInputHash": "0a78d0b382d4cc19e87ac5aff576d9af",
  "bytecode": "0x6103006040523480156200001257600080fd5b5060405162002d2a38038062002d2a8339810160408190526200003591620001ff565b80600060048260a001516200004b919062000333565b60a08301519091506200006082600462000365565b63ffffffff1614620000b85760405162461bcd60e51b815260206004820152601d60248201527f54494d455f5045525f444953545f4e4f545f444956495349424c455f34000000604482015260640160405180910390fd5b81516001600160a01b0390811660809081526020840151821660a052604084015190911660c0908152606084015160e09081529184015161010090815263ffffffff93841661012090815291850151610140908152928501518416610160908152908501518416610180908152918501516101a0908152928501516101c0908152908501516101e09081529185015161020090815292850151841661022090815290850151909316610240908152908401516102609081529184015161028052918301516102a052908201516102c05201516102e05250620003a0565b60405161028081016001600160401b0381118282101715620001c757634e487b7160e01b600052604160045260246000fd5b60405290565b80516001600160a01b0381168114620001e557600080fd5b919050565b805163ffffffff81168114620001e557600080fd5b600061028082840312156200021357600080fd5b6200021d62000195565b6200022883620001cd565b81526200023860208401620001cd565b60208201526200024b60408401620001cd565b6040820152606083015160608201526080830151608082015260a083015160a082015260c083015160c08201526200028660e08401620001ea565b60e08201526101006200029b818501620001ea565b9082015261012083810151908201526101408084015190820152610160808401519082015261018080840151908201526101a0620002db818501620001ea565b908201526101c0620002ef848201620001ea565b908201526101e08381015190820152610200808401519082015261022080840151908201526102408084015190820152610260928301519281019290925250919050565b600063ffffffff808416806200035957634e487b7160e01b600052601260045260246000fd5b92169190910492915050565b600063ffffffff808316818516818304811182151516156200039757634e487b7160e01b600052601160045260246000fd5b02949350505050565b60805160a05160c05160e05161010051610120516101405161016051610180516101a0516101c0516101e05161020051610220516102405161026051610280516102a0516102c0516102e051612867620004c3600039600081816106580152611ac30152600081816106100152818161063701528181611a6d0152611a970152600061212401526000818161214501526121910152600050506000505060005050600050506000818161121c015261136d0152600081816110cb015281816114f30152611bdf0152600061192201526000818161107f015281816111720152818161124a015281816112c8015261141901526000611c1d01526000611aff015260005050600050506000610f9101526000505060005050600050506128676000f3fe60806040526004361061005a5760003560e01c806319535696116100435780631953569614610094578063485a911f146100a7578063cf3ecf07146100ba57600080fd5b806308b74b971461005f578063112e685114610074575b600080fd5b61007261006d366004612232565b6100da565b005b34801561008057600080fd5b5061007261008f366004612283565b6101b3565b6100726100a23660046122b8565b610287565b6100726100b5366004612300565b61035f565b3480156100c657600080fd5b506100726100d5366004612386565b610463565b34156101a65773ffffffffffffffffffffffffffffffffffffffff8116610162576040517f08c379a000000000000000000000000000000000000000000000000000000000815260206004820152600860248201527f4e4f5f504159454500000000000000000000000000000000000000000000000060448201526064015b60405180910390fd5b60405173ffffffffffffffffffffffffffffffffffffffff8216903480156108fc02916000818181858888f193505050501580156101a4573d6000803e3d6000fd5b505b6101af82610463565b5050565b6000336040805160208101859052908101869052606082811b7fffffffffffffffffffffffffffffffffffffffff0000000000000000000000001690820181905260748201529091506000906088016040516020818303038152906040528051906020012060001c905061028081836040518060a001604052808673ffffffffffffffffffffffffffffffffffffffff1681526020018673ffffffffffffffffffffffffffffffffffffffff1681526020018981526020018863ffffffff1681526020018781525061060e565b5050505050565b341561034e5773ffffffffffffffffffffffffffffffffffffffff811661030a576040517f08c379a000000000000000000000000000000000000000000000000000000000815260206004820152600860248201527f4e4f5f50415945450000000000000000000000000000000000000000000000006044820152606401610159565b60405173ffffffffffffffffffffffffffffffffffffffff8216903480156108fc02916000818181858888f1935050505015801561034c573d6000803e3d6000fd5b505b6103598484846101b3565b50505050565b34156104265773ffffffffffffffffffffffffffffffffffffffff81166103e2576040517f08c379a000000000000000000000000000000000000000000000000000000000815260206004820152600860248201527f4e4f5f50415945450000000000000000000000000000000000000000000000006044820152606401610159565b60405173ffffffffffffffffffffffffffffffffffffffff8216903480156108fc02916000818181858888f19350505050158015610424573d6000803e3d6000fd5b505b60005b8281101561035957610451848483818110610446576104466123a2565b905060a00201610463565b8061045b81612400565b915050610429565b336104716020830183612439565b73ffffffffffffffffffffffffffffffffffffffff168173ffffffffffffffffffffffffffffffffffffffff161461055457600360006104b46020850185612439565b73ffffffffffffffffffffffffffffffffffffffff9081168252602080830193909352604091820160009081209185168152925290205460ff16610554576040517f08c379a000000000000000000000000000000000000000000000000000000000815260206004820152601660248201527f4e4f545f415554484f52495a45445f544f5f53454e44000000000000000000006044820152606401610159565b60006080830135604084013561056d6020860186612439565b6040805160208101949094528301919091527fffffffffffffffffffffffffffffffffffffffff000000000000000000000000606091821b8116828401529084901b166074820152608801604080517fffffffffffffffffffffffffffffffffffffffffffffffffffffffffffffffe081840301815291905280516020909101209050610609818361060436879003870187612456565b61060e565b505050565b7f0000000000000000000000000000000000000000000000000000000000000000156106ef57427f00000000000000000000000000000000000000000000000000000000000000007f0000000000000000000000000000000000000000000000000000000000000000818310806106855750808310155b6106eb576040517f08c379a000000000000000000000000000000000000000000000000000000000815260206004820152600660248201527f50415553454400000000000000000000000000000000000000000000000000006044820152606401610159565b5050505b604080820151600090815260208190529081206040805160e081018252825473ffffffffffffffffffffffffffffffffffffffff8116825264ffffffffff74010000000000000000000000000000000000000000820481166020840152790100000000000000000000000000000000000000000000000000909104811682840152600184015463ffffffff8082166060850152640100000000820490921660808401526901000000000000000000810460040b60a08401526e01000000000000000000000000000090041660c0820152908401519192506000916107d39190610e85565b90506340000000836060015163ffffffff161061084c576040517f08c379a000000000000000000000000000000000000000000000000000000000815260206004820152601360248201527f544f4f5f4d414e595f53504143455348495053000000000000000000000000006044820152606401610159565b6000836060015163ffffffff16116108c0576040517f08c379a000000000000000000000000000000000000000000000000000000000815260206004820152600d60248201527f4e4f5f53504143455348495053000000000000000000000000000000000000006044820152606401610159565b8154790100000000000000000000000000000000000000000000000000900464ffffffffff161561094d576040517f08c379a000000000000000000000000000000000000000000000000000000000815260206004820152600b60248201527f504c414e45545f455849540000000000000000000000000000000000000000006044820152606401610159565b8154835173ffffffffffffffffffffffffffffffffffffffff9081169116146109d2576040517f08c379a000000000000000000000000000000000000000000000000000000000815260206004820152600960248201527f4e4f545f4f574e455200000000000000000000000000000000000000000000006044820152606401610159565b6109db81610fed565b826060015163ffffffff16816060015163ffffffff161015610a59576040517f08c379a000000000000000000000000000000000000000000000000000000000815260206004820152601560248201527f535041434553484950535f4e4f545f454e4f55474800000000000000000000006044820152606401610159565b610a678184606001516114d6565b610a73828260006115fe565b610a8583604001518460600151611919565b600085815260016020526040902054790100000000000000000000000000000000000000000000000000900463ffffffff1615610b1e576040517f08c379a000000000000000000000000000000000000000000000000000000000815260206004820152600c60248201527f464c4545545f45584953545300000000000000000000000000000000000000006044820152606401610159565b604051806101200160405280846020015173ffffffffffffffffffffffffffffffffffffffff1681526020014264ffffffffff168152602001846060015163ffffffff16815260200182610160015162ffffff168152602001600073ffffffffffffffffffffffffffffffffffffffff168152602001600064ffffffffff168152602001600063ffffffff168152602001600015158152602001600015158152506001600087815260200190815260200160002060008201518160000160006101000a81548173ffffffffffffffffffffffffffffffffffffffff021916908373ffffffffffffffffffffffffffffffffffffffff16021790555060208201518160000160146101000a81548164ffffffffff021916908364ffffffffff16021790555060408201518160000160196101000a81548163ffffffff021916908363ffffffff160217905550606082015181600001601d6101000a81548162ffffff021916908362ffffff16021790555060808201518160010160006101000a81548173ffffffffffffffffffffffffffffffffffffffff021916908373ffffffffffffffffffffffffffffffffffffffff16021790555060a08201518160010160146101000a81548164ffffffffff021916908364ffffffffff16021790555060c08201518160010160196101000a81548163ffffffff021916908363ffffffff16021790555060e082015181600101601d6101000a81548160ff02191690831515021790555061010082015181600101601e6101000a81548160ff0219169083151502179055509050507f438e507c246c311193c77528e3de231eec8ce4727cce091a1dbbecf85b4278934342604051610da3929190918252602082015260400190565b60405180910390a18260400151836020015173ffffffffffffffffffffffffffffffffffffffff16846000015173ffffffffffffffffffffffffffffffffffffffff167f22cbc8dd686d2b19557805c93c5d123703e520cb709b4c179c7b723dc621138287898860600151876060015188608001518960e00151604051610e769695949392919073ffffffffffffffffffffffffffffffffffffffff969096168652602086019490945263ffffffff9283166040860152908216606085015260040b60808401521660a082015260c00190565b60405180910390a45050505050565b6040805161018081018252600080825260208201819052918101829052606081018290526080810182905260a0810182905260c0810182905260e08101829052610100810182905261012081018290526101408101829052610160810191909152600080610ef68560600151611a35565b85855260808088015164ffffffffff908116602088015283151560408089019190915263ffffffff80851660608a015260a0808c015160040b948a0194909452908a01805183169389019390935291511660c0808801919091528801511660e0860152865173ffffffffffffffffffffffffffffffffffffffff9081166101008701528751166101208601529092509050610fde84604080517f00000000000000000000000000000000000000000000000000000000000000006020820152908101829052600090606001604051602081830303815290604052805190602001209050919050565b61014084015250909392505050565b60a081015164ffffffffff161561103e5761100b8160a00151611a54565b1561103e57600060c082018190526060820181905260808201819052610120820181905260e08201819052604090910152565b6000816020015164ffffffffff16426110579190612504565b90506000611069836101400151611b32565b90506000610e1061ffff83166110a563ffffffff7f0000000000000000000000000000000000000000000000000000000000000000168661251b565b6110af919061251b565b6110b99190612587565b606085015190915063ffffffff1660007f0000000000000000000000000000000000000000000000000000000000000000156113ef5760006110fa85611bd5565b90506000876040015161110e576000611110565b815b9050808411156111f65760e08801516107089063ffffffff161561116257828960e0015163ffffffff16610708611147919061251b565b6111519190612587565b905061070881101561116257506107085b6000610e108261119863ffffffff7f0000000000000000000000000000000000000000000000000000000000000000168c61251b565b6111a2919061251b565b6111ac9190612587565b9050806111b7575060015b6111c18387612504565b8111156111d5576111d28387612504565b90505b8960400151156111e3578094505b6111ed8187612504565b95505050611358565b8760400151156113585760008590506000896080015160040b131561131e5760006127107f000000000000000000000000000000000000000000000000000000000000000061126f61ffff8b1663ffffffff7f00000000000000000000000000000000000000000000000000000000000000001661251b565b611279919061251b565b6112839190612587565b60808b015161129b9064ffffffffff16610e1061251b565b6112a59190612587565b90508881106112b657819450611310565b610e1061ffff89166112ee63ffffffff7f0000000000000000000000000000000000000000000000000000000000000000168461251b565b6112f8919061251b565b6113029190612587565b945081851115611310578194505b61131a8583612504565b9150505b600061132a8684612504565b90508082111561134e5761133e8183612504565b611348908661259b565b94508091505b6111ed828761259b565b8760400151156113e8576000836127106113927f00000000000000000000000000000000000000000000000000000000000000008961251b565b61139c9190612587565b6113a6919061259b565b905060008160040b8a6080015160040b6113c091906125b3565b90506113cb83612627565b8112156113de576113db83612627565b90505b60040b60808a0152505b5050611477565b85604001511561140a57611403838361259b565b9150611477565b6000610e1061143f63ffffffff7f0000000000000000000000000000000000000000000000000000000000000000168861251b565b61144b9061070861251b565b6114559190612587565b9050828111156114685750600091611475565b6114728184612504565b92505b505b6380000000821061149a5761149160016380000000612660565b63ffffffff1691505b63ffffffff8216606087015260408601511580156114c05750606086015163ffffffff16155b156114ce5760006101208701525b505050505050565b80826060018181516114e89190612660565b63ffffffff169052507f0000000000000000000000000000000000000000000000000000000000000000156101af578160400151156115bc576000611531836101400151611b32565b9050600061153e82611bd5565b905080846060015163ffffffff1610156115b9576000846060015163ffffffff168261156a9190612504565b90508363ffffffff16811115611583575063ffffffff83165b600081866080015160040b6115989190612685565b9050828113156115a55750815b60040b608086015262ffffff166101608501525b50505b8063ffffffff168260e0015163ffffffff1611156115f357808260e0018181516115e69190612660565b63ffffffff169052505050565b600060e08301525050565b60008260a0015164ffffffffff16118015611622575060c082015164ffffffffff16155b156116305761163082611c42565b81610120015173ffffffffffffffffffffffffffffffffffffffff1682610100015173ffffffffffffffffffffffffffffffffffffffff16146117955761012082015183547fffffffffffffffffffffffff00000000000000000000000000000000000000001673ffffffffffffffffffffffffffffffffffffffff9091169081178455156117045782547fffffffffffffff0000000000ffffffffffffffffffffffffffffffffffffffff16740100000000000000000000000000000000000000004264ffffffffff160217835561172b565b82547fffffffffffffff0000000000ffffffffffffffffffffffffffffffffffffffff1683555b816000015182610120015173ffffffffffffffffffffffffffffffffffffffff1683610100015173ffffffffffffffffffffffffffffffffffffffff167fddf252ad1be2c89b69c2b068fc378daa952ba7f163c4a11628f55a4df523b3ef60405160405180910390a45b80156117c65782547fffff0000000000ffffffffffffffffffffffffffffffffffffffffffffffffff168355611837565b8160a0015164ffffffffff168260c0015164ffffffffff16146118375760c0820151835464ffffffffff909116790100000000000000000000000000000000000000000000000000027fffff0000000000ffffffffffffffffffffffffffffffffffffffffffffffffff9091161783555b61184982604001518360600151611dcd565b60019093018054608084015160e0909401514264ffffffffff908116640100000000027fffffffffffffffffffffffffffffffffffffffffffffff0000000000ffffffff63ffffffff9384166e01000000000000000000000000000002167fffffffffffffffffffffffffffff00000000ffffffffff0000000000ffffffff929097166901000000000000000000027fffffffffffffffffffffffffffffffffffff0000000000ffffffffff00000000909416979092169690961791909117949094169290921792909217905550565b600061194660027f0000000000000000000000000000000000000000000000000000000000000000612587565b6119509042612587565b600084815260046020908152604080832084845290915290205490915063ffffffff90811683019083811690821610156119e6576040517f08c379a000000000000000000000000000000000000000000000000000000000815260206004820152600e60248201527f4f524249545f4f564552464c4f570000000000000000000000000000000000006044820152606401610159565b6000938452600460209081526040808620938652929052922080547fffffffffffffffffffffffffffffffffffffffffffffffffffffffff000000001663ffffffff9093169290921790915550565b6380000000818116811490600090611a4d90846126f9565b9050915091565b600064ffffffffff8216611a6a57506000919050565b427f000000000000000000000000000000000000000000000000000000000000000015801590611aba57507f00000000000000000000000000000000000000000000000000000000000000008110155b8015611aec57507f00000000000000000000000000000000000000000000000000000000000000008364ffffffffff16105b15611afa5750600192915050565b611b2b7f000000000000000000000000000000000000000000000000000000000000000064ffffffffff851661259b565b1092915050565b6000611b3d82611df3565b611ba3576040517f08c379a000000000000000000000000000000000000000000000000000000000815260206004820152601160248201527f504c414e45545f4e4f545f4558495354530000000000000000000000000000006044820152606401610159565b611bcf82600c7f0708083409600a8c0bb80ce40e100e100e100e101068151819c81e7823282ee0611e0f565b92915050565b6000610e10611c087f000000000000000000000000000000000000000000000000000000000000000061ffff851661251b565b611c129190612587565b611bcf9063ffffffff7f00000000000000000000000000000000000000000000000000000000000000001661259b565b6000611c5d8261010001518360000151846101400151611e89565b82516000908152600b60205260409020549091508015611d295761010083015173ffffffffffffffffffffffffffffffffffffffff166000908152600a6020526040812054611cad90849061259b565b6101008501805173ffffffffffffffffffffffffffffffffffffffff9081166000908152600a6020908152604091829020859055925181518581526001948101949094529394509216917f05eefb5f2a67125e8c65550a4ffa0f542f75624e866ef58fb72bfb547540309291015b60405180910390a250505050565b61010083015173ffffffffffffffffffffffffffffffffffffffff16600090815260026020526040812054611d5f90849061259b565b6101008501805173ffffffffffffffffffffffffffffffffffffffff9081166000908152600260209081526040808320869055935184518681529182019290925293945016917f05eefb5f2a67125e8c65550a4ffa0f542f75624e866ef58fb72bfb54754030929101611d1b565b60008183611ddc576000611de2565b63800000005b611dec919061271c565b9392505050565b6000611e028260346010611fe7565b60ff166001149050919050565b600080611e1c8585612004565b905082611e2a826002612744565b611e3590600161276d565b60ff1660208110611e4857611e486123a2565b1a83611e55836002612744565b60ff1660208110611e6857611e686123a2565b611e7691901a610100612792565b611e8091906127bc565b95945050505050565b6000655af3107a4000611e9b8361209e565b63ffffffff16611eab919061251b565b604080514381524260208201529192507f438e507c246c311193c77528e3de231eec8ce4727cce091a1dbbecf85b427893910160405180910390a1828473ffffffffffffffffffffffffffffffffffffffff167f1c363b29828a892b7cddafe9583ef52e0d5aca0ea7011bda6ccf039e1781f73883604051611f2f91815260200190565b60405180910390a36000838152600760205260409020548015611fdf5773ffffffffffffffffffffffffffffffffffffffff85166000818152600860209081526040808320858452825280832080547fffffffffffffffffffffffffffffffffffffffffffffffffffffffffffffff001660011790558783526007909152808220829055518392879290917f74f110a1e0cd4892234c7ba49df9f8a354cd8d29b272f7557c9b8c3c38a653369190a45b509392505050565b6000611ffc60ff80841690851686901c6127d9565b949350505050565b60008061201384846040611fe7565b905060006120226002836127ed565b9050600061203160028461280f565b905060007f01223334444555555666666677777777888888889999999aaaaaabbbbcccddef60ff84166020811061206a5761206a6123a2565b1a905060ff82166120885760048160ff16901c945050505050611bcf565b61209360108261280f565b945050505050611bcf565b60006120a982611df3565b61210f576040517f08c379a000000000000000000000000000000000000000000000000000000000815260206004820152601160248201527f504c414e45545f4e4f545f4558495354530000000000000000000000000000006044820152606401610159565b600061211c83600c612004565b905060ff81167f00000000000000000000000000000000000000000000000000000000000000007f000000000000000000000000000000000000000000000000000000000000000061216f836002612792565b61217a9060016127bc565b61ffff166020811061218e5761218e6123a2565b1a7f00000000000000000000000000000000000000000000000000000000000000006121bb846002612792565b61ffff16602081106121cf576121cf6123a2565b6121dd91901a610100612792565b6121e791906127bc565b61ffff16611ffc919061251b565b600060a0828403121561220757600080fd5b50919050565b73ffffffffffffffffffffffffffffffffffffffff8116811461222f57600080fd5b50565b60008060c0838503121561224557600080fd5b61224f84846121f5565b915060a083013561225f8161220d565b809150509250929050565b803563ffffffff8116811461227e57600080fd5b919050565b60008060006060848603121561229857600080fd5b833592506122a86020850161226a565b9150604084013590509250925092565b600080600080608085870312156122ce57600080fd5b843593506122de6020860161226a565b92506040850135915060608501356122f58161220d565b939692955090935050565b60008060006040848603121561231557600080fd5b833567ffffffffffffffff8082111561232d57600080fd5b818601915086601f83011261234157600080fd5b81358181111561235057600080fd5b87602060a08302850101111561236557600080fd5b6020928301955093505084013561237b8161220d565b809150509250925092565b600060a0828403121561239857600080fd5b611dec83836121f5565b7f4e487b7100000000000000000000000000000000000000000000000000000000600052603260045260246000fd5b7f4e487b7100000000000000000000000000000000000000000000000000000000600052601160045260246000fd5b60007fffffffffffffffffffffffffffffffffffffffffffffffffffffffffffffffff821415612432576124326123d1565b5060010190565b60006020828403121561244b57600080fd5b8135611dec8161220d565b600060a0828403121561246857600080fd5b60405160a0810181811067ffffffffffffffff821117156124b2577f4e487b7100000000000000000000000000000000000000000000000000000000600052604160045260246000fd5b60405282356124c08161220d565b815260208301356124d08161220d565b6020820152604083810135908201526124eb6060840161226a565b6060820152608083013560808201528091505092915050565b600082821015612516576125166123d1565b500390565b6000817fffffffffffffffffffffffffffffffffffffffffffffffffffffffffffffffff0483118215151615612553576125536123d1565b500290565b7f4e487b7100000000000000000000000000000000000000000000000000000000600052601260045260246000fd5b60008261259657612596612558565b500490565b600082198211156125ae576125ae6123d1565b500190565b6000808312837f8000000000000000000000000000000000000000000000000000000000000000018312811516156125ed576125ed6123d1565b837f7fffffffffffffffffffffffffffffffffffffffffffffffffffffffffffffff018313811615612621576126216123d1565b50500390565b60007f8000000000000000000000000000000000000000000000000000000000000000821415612659576126596123d1565b5060000390565b600063ffffffff8381169083168181101561267d5761267d6123d1565b039392505050565b6000808212827f7fffffffffffffffffffffffffffffffffffffffffffffffffffffffffffffff038413811516156126bf576126bf6123d1565b827f80000000000000000000000000000000000000000000000000000000000000000384128116156126f3576126f36123d1565b50500190565b600063ffffffff8084168061271057612710612558565b92169190910692915050565b600063ffffffff80831681851680830382111561273b5761273b6123d1565b01949350505050565b600060ff821660ff84168160ff0481118215151615612765576127656123d1565b029392505050565b600060ff821660ff84168060ff0382111561278a5761278a6123d1565b019392505050565b600061ffff808316818516818304811182151516156127b3576127b36123d1565b02949350505050565b600061ffff80831681851680830382111561273b5761273b6123d1565b6000826127e8576127e8612558565b500690565b600060ff83168061280057612800612558565b8060ff84160491505092915050565b600060ff83168061282257612822612558565b8060ff8416069150509291505056fea2646970667358221220f06ead9b39fa25fb629f3426be1b003d6e9faa6e2006fe0e6868d342f8b3659a64736f6c63430008090033",
  "devdoc": {
    "kind": "dev",
    "methods": {},
    "version": 1
  },
  "userdoc": {
    "kind": "user",
    "methods": {},
    "version": 1
  },
  "storageLayout": {
    "storage": [
      {
        "astId": 15328,
        "contract": "src/outerspace/facets/OuterSpaceFleetsCommitFacet.sol:OuterSpaceFleetsCommitFacet",
        "label": "_planets",
        "offset": 0,
        "slot": "0",
        "type": "t_mapping(t_uint256,t_struct(Planet)24474_storage)"
      },
      {
        "astId": 15333,
        "contract": "src/outerspace/facets/OuterSpaceFleetsCommitFacet.sol:OuterSpaceFleetsCommitFacet",
        "label": "_fleets",
        "offset": 0,
        "slot": "1",
        "type": "t_mapping(t_uint256,t_struct(Fleet)24493_storage)"
      },
      {
        "astId": 15337,
        "contract": "src/outerspace/facets/OuterSpaceFleetsCommitFacet.sol:OuterSpaceFleetsCommitFacet",
        "label": "_stakeReadyToBeWithdrawn",
        "offset": 0,
        "slot": "2",
        "type": "t_mapping(t_address,t_uint256)"
      },
      {
        "astId": 15343,
        "contract": "src/outerspace/facets/OuterSpaceFleetsCommitFacet.sol:OuterSpaceFleetsCommitFacet",
        "label": "_operators",
        "offset": 0,
        "slot": "3",
        "type": "t_mapping(t_address,t_mapping(t_address,t_bool))"
      },
      {
        "astId": 15350,
        "contract": "src/outerspace/facets/OuterSpaceFleetsCommitFacet.sol:OuterSpaceFleetsCommitFacet",
        "label": "_inFlight",
        "offset": 0,
        "slot": "4",
        "type": "t_mapping(t_uint256,t_mapping(t_uint256,t_struct(InFlight)24450_storage))"
      },
      {
        "astId": 15353,
        "contract": "src/outerspace/facets/OuterSpaceFleetsCommitFacet.sol:OuterSpaceFleetsCommitFacet",
        "label": "_discovered",
        "offset": 0,
        "slot": "5",
        "type": "t_struct(Discovered)24459_storage"
      },
      {
        "astId": 15357,
        "contract": "src/outerspace/facets/OuterSpaceFleetsCommitFacet.sol:OuterSpaceFleetsCommitFacet",
        "label": "_prevRewardIds",
        "offset": 0,
        "slot": "6",
        "type": "t_mapping(t_address,t_uint256)"
      },
      {
        "astId": 15361,
        "contract": "src/outerspace/facets/OuterSpaceFleetsCommitFacet.sol:OuterSpaceFleetsCommitFacet",
        "label": "_rewards",
        "offset": 0,
        "slot": "7",
        "type": "t_mapping(t_uint256,t_uint256)"
      },
      {
        "astId": 15367,
        "contract": "src/outerspace/facets/OuterSpaceFleetsCommitFacet.sol:OuterSpaceFleetsCommitFacet",
        "label": "_rewardsToWithdraw",
        "offset": 0,
        "slot": "8",
        "type": "t_mapping(t_address,t_mapping(t_uint256,t_bool))"
      },
      {
        "astId": 15376,
        "contract": "src/outerspace/facets/OuterSpaceFleetsCommitFacet.sol:OuterSpaceFleetsCommitFacet",
        "label": "_attacks",
        "offset": 0,
        "slot": "9",
        "type": "t_mapping(t_uint256,t_mapping(t_address,t_mapping(t_uint256,t_struct(AccumulatedAttack)24589_storage)))"
      },
      {
        "astId": 15380,
        "contract": "src/outerspace/facets/OuterSpaceFleetsCommitFacet.sol:OuterSpaceFleetsCommitFacet",
        "label": "_freeStakeReadyToBeWithdrawn",
        "offset": 0,
        "slot": "10",
        "type": "t_mapping(t_address,t_uint256)"
      },
      {
        "astId": 15384,
        "contract": "src/outerspace/facets/OuterSpaceFleetsCommitFacet.sol:OuterSpaceFleetsCommitFacet",
        "label": "_planetFlagged",
        "offset": 0,
        "slot": "11",
        "type": "t_mapping(t_uint256,t_uint256)"
      }
    ],
    "types": {
      "t_address": {
        "encoding": "inplace",
        "label": "address",
        "numberOfBytes": "20"
      },
      "t_bool": {
        "encoding": "inplace",
        "label": "bool",
        "numberOfBytes": "1"
      },
      "t_int40": {
        "encoding": "inplace",
        "label": "int40",
        "numberOfBytes": "5"
      },
      "t_mapping(t_address,t_bool)": {
        "encoding": "mapping",
        "key": "t_address",
        "label": "mapping(address => bool)",
        "numberOfBytes": "32",
        "value": "t_bool"
      },
      "t_mapping(t_address,t_mapping(t_address,t_bool))": {
        "encoding": "mapping",
        "key": "t_address",
        "label": "mapping(address => mapping(address => bool))",
        "numberOfBytes": "32",
        "value": "t_mapping(t_address,t_bool)"
      },
      "t_mapping(t_address,t_mapping(t_uint256,t_bool))": {
        "encoding": "mapping",
        "key": "t_address",
        "label": "mapping(address => mapping(uint256 => bool))",
        "numberOfBytes": "32",
        "value": "t_mapping(t_uint256,t_bool)"
      },
      "t_mapping(t_address,t_mapping(t_uint256,t_struct(AccumulatedAttack)24589_storage))": {
        "encoding": "mapping",
        "key": "t_address",
        "label": "mapping(address => mapping(uint256 => struct ImportingOuterSpaceTypes.AccumulatedAttack))",
        "numberOfBytes": "32",
        "value": "t_mapping(t_uint256,t_struct(AccumulatedAttack)24589_storage)"
      },
      "t_mapping(t_address,t_uint256)": {
        "encoding": "mapping",
        "key": "t_address",
        "label": "mapping(address => uint256)",
        "numberOfBytes": "32",
        "value": "t_uint256"
      },
      "t_mapping(t_uint256,t_bool)": {
        "encoding": "mapping",
        "key": "t_uint256",
        "label": "mapping(uint256 => bool)",
        "numberOfBytes": "32",
        "value": "t_bool"
      },
      "t_mapping(t_uint256,t_mapping(t_address,t_mapping(t_uint256,t_struct(AccumulatedAttack)24589_storage)))": {
        "encoding": "mapping",
        "key": "t_uint256",
        "label": "mapping(uint256 => mapping(address => mapping(uint256 => struct ImportingOuterSpaceTypes.AccumulatedAttack)))",
        "numberOfBytes": "32",
        "value": "t_mapping(t_address,t_mapping(t_uint256,t_struct(AccumulatedAttack)24589_storage))"
      },
      "t_mapping(t_uint256,t_mapping(t_uint256,t_struct(InFlight)24450_storage))": {
        "encoding": "mapping",
        "key": "t_uint256",
        "label": "mapping(uint256 => mapping(uint256 => struct ImportingOuterSpaceTypes.InFlight))",
        "numberOfBytes": "32",
        "value": "t_mapping(t_uint256,t_struct(InFlight)24450_storage)"
      },
      "t_mapping(t_uint256,t_struct(AccumulatedAttack)24589_storage)": {
        "encoding": "mapping",
        "key": "t_uint256",
        "label": "mapping(uint256 => struct ImportingOuterSpaceTypes.AccumulatedAttack)",
        "numberOfBytes": "32",
        "value": "t_struct(AccumulatedAttack)24589_storage"
      },
      "t_mapping(t_uint256,t_struct(Fleet)24493_storage)": {
        "encoding": "mapping",
        "key": "t_uint256",
        "label": "mapping(uint256 => struct ImportingOuterSpaceTypes.Fleet)",
        "numberOfBytes": "32",
        "value": "t_struct(Fleet)24493_storage"
      },
      "t_mapping(t_uint256,t_struct(InFlight)24450_storage)": {
        "encoding": "mapping",
        "key": "t_uint256",
        "label": "mapping(uint256 => struct ImportingOuterSpaceTypes.InFlight)",
        "numberOfBytes": "32",
        "value": "t_struct(InFlight)24450_storage"
      },
      "t_mapping(t_uint256,t_struct(Planet)24474_storage)": {
        "encoding": "mapping",
        "key": "t_uint256",
        "label": "mapping(uint256 => struct ImportingOuterSpaceTypes.Planet)",
        "numberOfBytes": "32",
        "value": "t_struct(Planet)24474_storage"
      },
      "t_mapping(t_uint256,t_uint256)": {
        "encoding": "mapping",
        "key": "t_uint256",
        "label": "mapping(uint256 => uint256)",
        "numberOfBytes": "32",
        "value": "t_uint256"
      },
      "t_struct(AccumulatedAttack)24589_storage": {
        "encoding": "inplace",
        "label": "struct ImportingOuterSpaceTypes.AccumulatedAttack",
        "members": [
          {
            "astId": 24582,
            "contract": "src/outerspace/facets/OuterSpaceFleetsCommitFacet.sol:OuterSpaceFleetsCommitFacet",
            "label": "target",
            "offset": 0,
            "slot": "0",
            "type": "t_address"
          },
          {
            "astId": 24584,
            "contract": "src/outerspace/facets/OuterSpaceFleetsCommitFacet.sol:OuterSpaceFleetsCommitFacet",
            "label": "numAttackSpent",
            "offset": 20,
            "slot": "0",
            "type": "t_uint32"
          },
          {
            "astId": 24586,
            "contract": "src/outerspace/facets/OuterSpaceFleetsCommitFacet.sol:OuterSpaceFleetsCommitFacet",
            "label": "damageCausedSoFar",
            "offset": 24,
            "slot": "0",
            "type": "t_uint32"
          },
          {
            "astId": 24588,
            "contract": "src/outerspace/facets/OuterSpaceFleetsCommitFacet.sol:OuterSpaceFleetsCommitFacet",
            "label": "averageAttackPower",
            "offset": 28,
            "slot": "0",
            "type": "t_uint16"
          }
        ],
        "numberOfBytes": "32"
      },
      "t_struct(Discovered)24459_storage": {
        "encoding": "inplace",
        "label": "struct ImportingOuterSpaceTypes.Discovered",
        "members": [
          {
            "astId": 24452,
            "contract": "src/outerspace/facets/OuterSpaceFleetsCommitFacet.sol:OuterSpaceFleetsCommitFacet",
            "label": "minX",
            "offset": 0,
            "slot": "0",
            "type": "t_uint32"
          },
          {
            "astId": 24454,
            "contract": "src/outerspace/facets/OuterSpaceFleetsCommitFacet.sol:OuterSpaceFleetsCommitFacet",
            "label": "maxX",
            "offset": 4,
            "slot": "0",
            "type": "t_uint32"
          },
          {
            "astId": 24456,
            "contract": "src/outerspace/facets/OuterSpaceFleetsCommitFacet.sol:OuterSpaceFleetsCommitFacet",
            "label": "minY",
            "offset": 8,
            "slot": "0",
            "type": "t_uint32"
          },
          {
            "astId": 24458,
            "contract": "src/outerspace/facets/OuterSpaceFleetsCommitFacet.sol:OuterSpaceFleetsCommitFacet",
            "label": "maxY",
            "offset": 12,
            "slot": "0",
            "type": "t_uint32"
          }
        ],
        "numberOfBytes": "32"
      },
      "t_struct(Fleet)24493_storage": {
        "encoding": "inplace",
        "label": "struct ImportingOuterSpaceTypes.Fleet",
        "members": [
          {
            "astId": 24476,
            "contract": "src/outerspace/facets/OuterSpaceFleetsCommitFacet.sol:OuterSpaceFleetsCommitFacet",
            "label": "owner",
            "offset": 0,
            "slot": "0",
            "type": "t_address"
          },
          {
            "astId": 24478,
            "contract": "src/outerspace/facets/OuterSpaceFleetsCommitFacet.sol:OuterSpaceFleetsCommitFacet",
            "label": "launchTime",
            "offset": 20,
            "slot": "0",
            "type": "t_uint40"
          },
          {
            "astId": 24480,
            "contract": "src/outerspace/facets/OuterSpaceFleetsCommitFacet.sol:OuterSpaceFleetsCommitFacet",
            "label": "quantity",
            "offset": 25,
            "slot": "0",
            "type": "t_uint32"
          },
          {
            "astId": 24482,
            "contract": "src/outerspace/facets/OuterSpaceFleetsCommitFacet.sol:OuterSpaceFleetsCommitFacet",
            "label": "futureExtraProduction",
            "offset": 29,
            "slot": "0",
            "type": "t_uint24"
          },
          {
            "astId": 24484,
            "contract": "src/outerspace/facets/OuterSpaceFleetsCommitFacet.sol:OuterSpaceFleetsCommitFacet",
            "label": "defender",
            "offset": 0,
            "slot": "1",
            "type": "t_address"
          },
          {
            "astId": 24486,
            "contract": "src/outerspace/facets/OuterSpaceFleetsCommitFacet.sol:OuterSpaceFleetsCommitFacet",
            "label": "arrivalTime",
            "offset": 20,
            "slot": "1",
            "type": "t_uint40"
          },
          {
            "astId": 24488,
            "contract": "src/outerspace/facets/OuterSpaceFleetsCommitFacet.sol:OuterSpaceFleetsCommitFacet",
            "label": "defenderLoss",
            "offset": 25,
            "slot": "1",
            "type": "t_uint32"
          },
          {
            "astId": 24490,
            "contract": "src/outerspace/facets/OuterSpaceFleetsCommitFacet.sol:OuterSpaceFleetsCommitFacet",
            "label": "planetActive",
            "offset": 29,
            "slot": "1",
            "type": "t_bool"
          },
          {
            "astId": 24492,
            "contract": "src/outerspace/facets/OuterSpaceFleetsCommitFacet.sol:OuterSpaceFleetsCommitFacet",
            "label": "victory",
            "offset": 30,
            "slot": "1",
            "type": "t_bool"
          }
        ],
        "numberOfBytes": "64"
      },
      "t_struct(InFlight)24450_storage": {
        "encoding": "inplace",
        "label": "struct ImportingOuterSpaceTypes.InFlight",
        "members": [
          {
            "astId": 24447,
            "contract": "src/outerspace/facets/OuterSpaceFleetsCommitFacet.sol:OuterSpaceFleetsCommitFacet",
            "label": "flying",
            "offset": 0,
            "slot": "0",
            "type": "t_uint32"
          },
          {
            "astId": 24449,
            "contract": "src/outerspace/facets/OuterSpaceFleetsCommitFacet.sol:OuterSpaceFleetsCommitFacet",
            "label": "destroyed",
            "offset": 4,
            "slot": "0",
            "type": "t_uint32"
          }
        ],
        "numberOfBytes": "32"
      },
      "t_struct(Planet)24474_storage": {
        "encoding": "inplace",
        "label": "struct ImportingOuterSpaceTypes.Planet",
        "members": [
          {
            "astId": 24461,
            "contract": "src/outerspace/facets/OuterSpaceFleetsCommitFacet.sol:OuterSpaceFleetsCommitFacet",
            "label": "owner",
            "offset": 0,
            "slot": "0",
            "type": "t_address"
          },
          {
            "astId": 24463,
            "contract": "src/outerspace/facets/OuterSpaceFleetsCommitFacet.sol:OuterSpaceFleetsCommitFacet",
            "label": "ownershipStartTime",
            "offset": 20,
            "slot": "0",
            "type": "t_uint40"
          },
          {
            "astId": 24465,
            "contract": "src/outerspace/facets/OuterSpaceFleetsCommitFacet.sol:OuterSpaceFleetsCommitFacet",
            "label": "exitStartTime",
            "offset": 25,
            "slot": "0",
            "type": "t_uint40"
          },
          {
            "astId": 24467,
            "contract": "src/outerspace/facets/OuterSpaceFleetsCommitFacet.sol:OuterSpaceFleetsCommitFacet",
            "label": "numSpaceships",
            "offset": 0,
            "slot": "1",
            "type": "t_uint32"
          },
          {
            "astId": 24469,
            "contract": "src/outerspace/facets/OuterSpaceFleetsCommitFacet.sol:OuterSpaceFleetsCommitFacet",
            "label": "lastUpdated",
            "offset": 4,
            "slot": "1",
            "type": "t_uint40"
          },
          {
            "astId": 24471,
            "contract": "src/outerspace/facets/OuterSpaceFleetsCommitFacet.sol:OuterSpaceFleetsCommitFacet",
            "label": "travelingUpkeep",
            "offset": 9,
            "slot": "1",
            "type": "t_int40"
          },
          {
            "astId": 24473,
            "contract": "src/outerspace/facets/OuterSpaceFleetsCommitFacet.sol:OuterSpaceFleetsCommitFacet",
            "label": "overflow",
            "offset": 14,
            "slot": "1",
            "type": "t_uint32"
          }
        ],
        "numberOfBytes": "64"
      },
      "t_uint16": {
        "encoding": "inplace",
        "label": "uint16",
        "numberOfBytes": "2"
      },
      "t_uint24": {
        "encoding": "inplace",
        "label": "uint24",
        "numberOfBytes": "3"
      },
      "t_uint256": {
        "encoding": "inplace",
        "label": "uint256",
        "numberOfBytes": "32"
      },
      "t_uint32": {
        "encoding": "inplace",
        "label": "uint32",
        "numberOfBytes": "4"
      },
      "t_uint40": {
        "encoding": "inplace",
        "label": "uint40",
        "numberOfBytes": "5"
      }
    }
  }
}