{
  "address": "0x1D8eEE48fb602E7E83D4cd1F48ECFb39628d89CF",
  "abi": [
    {
      "inputs": [
        {
          "internalType": "address",
          "name": "initialRewardReceiver",
          "type": "address"
        },
        {
          "internalType": "contract RewardsGenerator",
          "name": "initialGenerator",
          "type": "address"
        },
        {
          "internalType": "contract IOuterSpace",
          "name": "initialOuterSpace",
          "type": "address"
        },
        {
          "internalType": "contract PlayToken",
          "name": "initialPlayToken",
          "type": "address"
        },
        {
          "components": [
            {
              "internalType": "bytes32",
              "name": "genesis",
              "type": "bytes32"
            },
            {
              "internalType": "uint256",
              "name": "acquireNumSpaceships",
              "type": "uint256"
            },
            {
              "internalType": "uint256",
              "name": "productionCapAsDuration",
              "type": "uint256"
            },
            {
              "internalType": "uint256",
              "name": "frontrunningDelay",
              "type": "uint256"
            },
            {
              "internalType": "uint256",
              "name": "timePerDistance",
              "type": "uint256"
            },
            {
              "internalType": "uint256",
              "name": "productionSpeedUp",
              "type": "uint256"
            },
            {
              "internalType": "uint256",
              "name": "numSecondsPerTokens",
              "type": "uint256"
            },
            {
              "internalType": "uint256",
              "name": "spaceshipsToKeepPer10000",
              "type": "uint256"
            },
            {
              "internalType": "uint256",
              "name": "minAverageStakePerPlanet",
              "type": "uint256"
            },
            {
              "internalType": "uint256",
              "name": "maxClaimDelay",
              "type": "uint256"
            },
            {
              "internalType": "uint256",
              "name": "minimumSubscriptionWhenStaking",
              "type": "uint256"
            },
            {
              "internalType": "uint256",
              "name": "minimumSubscriptionWhenNotStaking",
              "type": "uint256"
            },
            {
              "internalType": "uint256",
              "name": "maxTimeRange",
              "type": "uint256"
            },
            {
              "internalType": "uint256",
              "name": "minAttackAmount",
              "type": "uint256"
            }
          ],
          "internalType": "struct Yakuza.Config",
          "name": "config",
          "type": "tuple"
        }
      ],
      "stateMutability": "nonpayable",
      "type": "constructor"
    },
    {
      "anonymous": false,
      "inputs": [
        {
          "indexed": true,
          "internalType": "address",
          "name": "owner",
          "type": "address"
        },
        {
          "indexed": true,
          "internalType": "address",
          "name": "spender",
          "type": "address"
        },
        {
          "indexed": false,
          "internalType": "uint256",
          "name": "value",
          "type": "uint256"
        }
      ],
      "name": "Approval",
      "type": "event"
    },
    {
      "anonymous": false,
      "inputs": [
        {
          "indexed": false,
          "internalType": "address",
          "name": "newRewardReceiver",
          "type": "address"
        }
      ],
      "name": "RewardReceiverSet",
      "type": "event"
    },
    {
      "anonymous": false,
      "inputs": [
        {
          "indexed": true,
          "internalType": "address",
          "name": "from",
          "type": "address"
        },
        {
          "indexed": true,
          "internalType": "address",
          "name": "to",
          "type": "address"
        },
        {
          "indexed": false,
          "internalType": "uint256",
          "name": "value",
          "type": "uint256"
        }
      ],
      "name": "Transfer",
      "type": "event"
    },
    {
      "anonymous": false,
      "inputs": [
        {
          "indexed": true,
          "internalType": "address",
          "name": "sender",
          "type": "address"
        },
        {
          "indexed": true,
          "internalType": "uint256",
          "name": "to",
          "type": "uint256"
        },
        {
          "indexed": false,
          "internalType": "uint256",
          "name": "fleetSentId",
          "type": "uint256"
        },
        {
          "indexed": false,
          "internalType": "uint256",
          "name": "amountSent",
          "type": "uint256"
        },
        {
          "indexed": false,
          "internalType": "uint256",
          "name": "lastAttackTime",
          "type": "uint256"
        },
        {
          "indexed": false,
          "internalType": "bytes32",
          "name": "secret",
          "type": "bytes32"
        }
      ],
      "name": "YakuzaAttack",
      "type": "event"
    },
    {
      "anonymous": false,
      "inputs": [
        {
          "indexed": true,
          "internalType": "address",
          "name": "sender",
          "type": "address"
        },
        {
          "indexed": true,
          "internalType": "uint256",
          "name": "fleetId",
          "type": "uint256"
        },
        {
          "indexed": true,
          "internalType": "uint256",
          "name": "attackedPlanet",
          "type": "uint256"
        },
        {
          "indexed": false,
          "internalType": "uint256",
          "name": "fleetSentId",
          "type": "uint256"
        },
        {
          "indexed": false,
          "internalType": "uint256",
          "name": "amount",
          "type": "uint256"
        },
        {
          "indexed": false,
          "internalType": "uint256",
          "name": "amountLeft",
          "type": "uint256"
        },
        {
          "indexed": false,
          "internalType": "uint256",
          "name": "lockTime",
          "type": "uint256"
        },
        {
          "indexed": false,
          "internalType": "bytes32",
          "name": "secret",
          "type": "bytes32"
        }
      ],
      "name": "YakuzaClaimed",
      "type": "event"
    },
    {
      "anonymous": false,
      "inputs": [
        {
          "indexed": true,
          "internalType": "address",
          "name": "subscriber",
          "type": "address"
        },
        {
          "indexed": false,
          "internalType": "uint256",
          "name": "startTime",
          "type": "uint256"
        },
        {
          "indexed": false,
          "internalType": "uint256",
          "name": "endTime",
          "type": "uint256"
        },
        {
          "indexed": false,
          "internalType": "uint256",
          "name": "contribution",
          "type": "uint256"
        },
        {
          "indexed": false,
          "internalType": "uint256[]",
          "name": "planets",
          "type": "uint256[]"
        }
      ],
      "name": "YakuzaSubscribed",
      "type": "event"
    },
    {
      "inputs": [],
      "name": "DOMAIN_SEPARATOR",
      "outputs": [
        {
          "internalType": "bytes32",
          "name": "",
          "type": "bytes32"
        }
      ],
      "stateMutability": "view",
      "type": "function"
    },
    {
      "inputs": [
        {
          "internalType": "address",
          "name": "owner",
          "type": "address"
        },
        {
          "internalType": "address",
          "name": "spender",
          "type": "address"
        }
      ],
      "name": "allowance",
      "outputs": [
        {
          "internalType": "uint256",
          "name": "",
          "type": "uint256"
        }
      ],
      "stateMutability": "view",
      "type": "function"
    },
    {
      "inputs": [
        {
          "internalType": "address",
          "name": "spender",
          "type": "address"
        },
        {
          "internalType": "uint256",
          "name": "amount",
          "type": "uint256"
        }
      ],
      "name": "approve",
      "outputs": [
        {
          "internalType": "bool",
          "name": "",
          "type": "bool"
        }
      ],
      "stateMutability": "nonpayable",
      "type": "function"
    },
    {
      "inputs": [
        {
          "internalType": "address",
          "name": "spender",
          "type": "address"
        },
        {
          "internalType": "uint256",
          "name": "amount",
          "type": "uint256"
        },
        {
          "internalType": "bytes",
          "name": "data",
          "type": "bytes"
        }
      ],
      "name": "approveAndCall",
      "outputs": [
        {
          "internalType": "bool",
          "name": "",
          "type": "bool"
        }
      ],
      "stateMutability": "nonpayable",
      "type": "function"
    },
    {
      "inputs": [
        {
          "internalType": "address",
          "name": "owner",
          "type": "address"
        }
      ],
      "name": "balanceOf",
      "outputs": [
        {
          "internalType": "uint256",
          "name": "",
          "type": "uint256"
        }
      ],
      "stateMutability": "view",
      "type": "function"
    },
    {
      "inputs": [
        {
          "internalType": "contract RewardsGenerator",
          "name": "newGenerator",
          "type": "address"
        }
      ],
      "name": "changegGenerator",
      "outputs": [],
      "stateMutability": "nonpayable",
      "type": "function"
    },
    {
      "inputs": [
        {
          "internalType": "uint256",
          "name": "fleetId",
          "type": "uint256"
        },
        {
          "components": [
            {
              "internalType": "uint256",
              "name": "from",
              "type": "uint256"
            },
            {
              "internalType": "uint256",
              "name": "to",
              "type": "uint256"
            },
            {
              "internalType": "uint256",
              "name": "distance",
              "type": "uint256"
            },
            {
              "internalType": "uint256",
              "name": "arrivalTimeWanted",
              "type": "uint256"
            },
            {
              "internalType": "bool",
              "name": "gift",
              "type": "bool"
            },
            {
              "internalType": "address",
              "name": "specific",
              "type": "address"
            },
            {
              "internalType": "bytes32",
              "name": "secret",
              "type": "bytes32"
            },
            {
              "internalType": "address",
              "name": "fleetSender",
              "type": "address"
            },
            {
              "internalType": "address",
              "name": "operator",
              "type": "address"
            }
          ],
          "internalType": "struct ImportingOuterSpaceTypes.FleetResolution",
          "name": "resolution",
          "type": "tuple"
        },
        {
          "internalType": "uint32",
          "name": "amount",
          "type": "uint32"
        },
        {
          "internalType": "uint256",
          "name": "from",
          "type": "uint256"
        },
        {
          "internalType": "bytes32",
          "name": "toHash",
          "type": "bytes32"
        },
        {
          "internalType": "uint256",
          "name": "distance",
          "type": "uint256"
        },
        {
          "internalType": "bytes32",
          "name": "secret",
          "type": "bytes32"
        },
        {
          "internalType": "address payable",
          "name": "payee",
          "type": "address"
        }
      ],
      "name": "claimCounterAttack",
      "outputs": [],
      "stateMutability": "payable",
      "type": "function"
    },
    {
      "inputs": [
        {
          "internalType": "address",
          "name": "to",
          "type": "address"
        }
      ],
      "name": "claimFixedRewards",
      "outputs": [],
      "stateMutability": "nonpayable",
      "type": "function"
    },
    {
      "inputs": [
        {
          "internalType": "address",
          "name": "to",
          "type": "address"
        }
      ],
      "name": "claimSharedPoolRewards",
      "outputs": [],
      "stateMutability": "nonpayable",
      "type": "function"
    },
    {
      "inputs": [
        {
          "internalType": "uint256",
          "name": "",
          "type": "uint256"
        }
      ],
      "name": "claims",
      "outputs": [
        {
          "internalType": "bool",
          "name": "claimed",
          "type": "bool"
        },
        {
          "internalType": "uint248",
          "name": "amountLeft",
          "type": "uint248"
        }
      ],
      "stateMutability": "view",
      "type": "function"
    },
    {
      "inputs": [],
      "name": "decimals",
      "outputs": [
        {
          "internalType": "uint8",
          "name": "",
          "type": "uint8"
        }
      ],
      "stateMutability": "pure",
      "type": "function"
    },
    {
      "inputs": [
        {
          "internalType": "address payable[]",
          "name": "tos",
          "type": "address[]"
        },
        {
          "internalType": "uint256",
          "name": "totalAmount",
          "type": "uint256"
        }
      ],
      "name": "distributeAlongWithETH",
      "outputs": [
        {
          "internalType": "bool",
          "name": "",
          "type": "bool"
        }
      ],
      "stateMutability": "payable",
      "type": "function"
    },
    {
      "inputs": [
        {
          "internalType": "address payable[]",
          "name": "tos",
          "type": "address[]"
        },
        {
          "internalType": "uint256[]",
          "name": "amounts",
          "type": "uint256[]"
        }
      ],
      "name": "distributeVariousAmountsAlongWithETH",
      "outputs": [
        {
          "internalType": "bool",
          "name": "",
          "type": "bool"
        }
      ],
      "stateMutability": "payable",
      "type": "function"
    },
    {
      "inputs": [
        {
          "internalType": "address payable[]",
          "name": "tos",
          "type": "address[]"
        },
        {
          "internalType": "uint256[]",
          "name": "tokenAmounts",
          "type": "uint256[]"
        },
        {
          "internalType": "uint256[]",
          "name": "etherAmounts",
          "type": "uint256[]"
        }
      ],
      "name": "distributeVariousAmountsOfTokenAndETH",
      "outputs": [
        {
          "internalType": "bool",
          "name": "",
          "type": "bool"
        }
      ],
      "stateMutability": "payable",
      "type": "function"
    },
    {
      "inputs": [
        {
          "internalType": "uint256",
          "name": "",
          "type": "uint256"
        }
      ],
      "name": "myPlanets",
      "outputs": [
        {
          "internalType": "bool",
          "name": "mine",
          "type": "bool"
        },
        {
          "internalType": "uint40",
          "name": "lastAttackTime",
          "type": "uint40"
        },
        {
          "internalType": "uint40",
          "name": "lockTime",
          "type": "uint40"
        }
      ],
      "stateMutability": "view",
      "type": "function"
    },
    {
      "inputs": [],
      "name": "name",
      "outputs": [
        {
          "internalType": "string",
          "name": "",
          "type": "string"
        }
      ],
      "stateMutability": "pure",
      "type": "function"
    },
    {
      "inputs": [
        {
          "internalType": "address",
          "name": "owner",
          "type": "address"
        }
      ],
      "name": "nonces",
      "outputs": [
        {
          "internalType": "uint256",
          "name": "",
          "type": "uint256"
        }
      ],
      "stateMutability": "view",
      "type": "function"
    },
    {
      "inputs": [
        {
          "internalType": "address",
          "name": "forAddress",
          "type": "address"
        },
        {
          "internalType": "address",
          "name": "to",
          "type": "address"
        },
        {
          "internalType": "uint256",
          "name": "amount",
          "type": "uint256"
        },
        {
          "internalType": "bytes",
          "name": "data",
          "type": "bytes"
        }
      ],
      "name": "payForAndCall",
      "outputs": [
        {
          "internalType": "bool",
          "name": "",
          "type": "bool"
        }
      ],
      "stateMutability": "nonpayable",
      "type": "function"
    },
    {
      "inputs": [
        {
          "internalType": "address",
          "name": "owner",
          "type": "address"
        },
        {
          "internalType": "address",
          "name": "spender",
          "type": "address"
        },
        {
          "internalType": "uint256",
          "name": "value",
          "type": "uint256"
        },
        {
          "internalType": "uint256",
          "name": "deadline",
          "type": "uint256"
        },
        {
          "internalType": "uint8",
          "name": "v",
          "type": "uint8"
        },
        {
          "internalType": "bytes32",
          "name": "r",
          "type": "bytes32"
        },
        {
          "internalType": "bytes32",
          "name": "s",
          "type": "bytes32"
        }
      ],
      "name": "permit",
      "outputs": [],
      "stateMutability": "nonpayable",
      "type": "function"
    },
    {
      "inputs": [
        {
          "internalType": "address",
          "name": "initialRewardReceiver",
          "type": "address"
        },
        {
          "internalType": "contract RewardsGenerator",
          "name": "initialGenerator",
          "type": "address"
        },
        {
          "internalType": "contract IOuterSpace",
          "name": "",
          "type": "address"
        },
        {
          "internalType": "contract PlayToken",
          "name": "",
          "type": "address"
        },
        {
          "components": [
            {
              "internalType": "bytes32",
              "name": "genesis",
              "type": "bytes32"
            },
            {
              "internalType": "uint256",
              "name": "acquireNumSpaceships",
              "type": "uint256"
            },
            {
              "internalType": "uint256",
              "name": "productionCapAsDuration",
              "type": "uint256"
            },
            {
              "internalType": "uint256",
              "name": "frontrunningDelay",
              "type": "uint256"
            },
            {
              "internalType": "uint256",
              "name": "timePerDistance",
              "type": "uint256"
            },
            {
              "internalType": "uint256",
              "name": "productionSpeedUp",
              "type": "uint256"
            },
            {
              "internalType": "uint256",
              "name": "numSecondsPerTokens",
              "type": "uint256"
            },
            {
              "internalType": "uint256",
              "name": "spaceshipsToKeepPer10000",
              "type": "uint256"
            },
            {
              "internalType": "uint256",
              "name": "minAverageStakePerPlanet",
              "type": "uint256"
            },
            {
              "internalType": "uint256",
              "name": "maxClaimDelay",
              "type": "uint256"
            },
            {
              "internalType": "uint256",
              "name": "minimumSubscriptionWhenStaking",
              "type": "uint256"
            },
            {
              "internalType": "uint256",
              "name": "minimumSubscriptionWhenNotStaking",
              "type": "uint256"
            },
            {
              "internalType": "uint256",
              "name": "maxTimeRange",
              "type": "uint256"
            },
            {
              "internalType": "uint256",
              "name": "minAttackAmount",
              "type": "uint256"
            }
          ],
          "internalType": "struct Yakuza.Config",
          "name": "",
          "type": "tuple"
        }
      ],
      "name": "postUpgrade",
      "outputs": [],
      "stateMutability": "nonpayable",
      "type": "function"
    },
    {
      "inputs": [],
      "name": "rewardReceiver",
      "outputs": [
        {
          "internalType": "address",
          "name": "",
          "type": "address"
        }
      ],
      "stateMutability": "view",
      "type": "function"
    },
    {
      "inputs": [
        {
          "internalType": "address",
          "name": "newRewardReceiver",
          "type": "address"
        }
      ],
      "name": "setRewardReceiver",
      "outputs": [],
      "stateMutability": "nonpayable",
      "type": "function"
    },
    {
      "inputs": [
        {
          "internalType": "uint256[]",
          "name": "locations",
          "type": "uint256[]"
        },
        {
          "internalType": "uint256",
          "name": "amountToMint",
          "type": "uint256"
        },
        {
          "internalType": "uint256",
          "name": "tokenAmount",
          "type": "uint256"
        },
        {
          "internalType": "uint256",
          "name": "amountFromYakuza",
          "type": "uint256"
        }
      ],
      "name": "subscribeViaStaking",
      "outputs": [],
      "stateMutability": "payable",
      "type": "function"
    },
    {
      "inputs": [
        {
          "internalType": "uint256",
          "name": "amountToMint",
          "type": "uint256"
        },
        {
          "internalType": "uint256",
          "name": "tokenAmount",
          "type": "uint256"
        }
      ],
      "name": "subscribeWithoutStaking",
      "outputs": [],
      "stateMutability": "payable",
      "type": "function"
    },
    {
      "inputs": [
        {
          "internalType": "address",
          "name": "",
          "type": "address"
        }
      ],
      "name": "subscriptions",
      "outputs": [
        {
          "internalType": "uint256",
          "name": "startTime",
          "type": "uint256"
        },
        {
          "internalType": "uint256",
          "name": "endTime",
          "type": "uint256"
        }
      ],
      "stateMutability": "view",
      "type": "function"
    },
    {
      "inputs": [],
      "name": "symbol",
      "outputs": [
        {
          "internalType": "string",
          "name": "",
          "type": "string"
        }
      ],
      "stateMutability": "view",
      "type": "function"
    },
    {
      "inputs": [
        {
          "internalType": "uint256",
          "name": "from",
          "type": "uint256"
        },
        {
          "internalType": "uint256",
          "name": "to",
          "type": "uint256"
        },
        {
          "internalType": "uint256",
          "name": "distance",
          "type": "uint256"
        },
        {
          "internalType": "uint32",
          "name": "amount",
          "type": "uint32"
        },
        {
          "internalType": "bytes32",
          "name": "toHash",
          "type": "bytes32"
        },
        {
          "internalType": "bytes32",
          "name": "secret",
          "type": "bytes32"
        },
        {
          "internalType": "address payable",
          "name": "payee",
          "type": "address"
        }
      ],
      "name": "takeItBack",
      "outputs": [],
      "stateMutability": "payable",
      "type": "function"
    },
    {
      "inputs": [],
      "name": "totalSupply",
      "outputs": [
        {
          "internalType": "uint256",
          "name": "",
          "type": "uint256"
        }
      ],
      "stateMutability": "view",
      "type": "function"
    },
    {
      "inputs": [
        {
          "internalType": "address",
          "name": "to",
          "type": "address"
        },
        {
          "internalType": "uint256",
          "name": "amount",
          "type": "uint256"
        }
      ],
      "name": "transfer",
      "outputs": [
        {
          "internalType": "bool",
          "name": "",
          "type": "bool"
        }
      ],
      "stateMutability": "nonpayable",
      "type": "function"
    },
    {
      "inputs": [
        {
          "internalType": "address payable",
          "name": "to",
          "type": "address"
        },
        {
          "internalType": "uint256",
          "name": "amount",
          "type": "uint256"
        }
      ],
      "name": "transferAlongWithETH",
      "outputs": [
        {
          "internalType": "bool",
          "name": "",
          "type": "bool"
        }
      ],
      "stateMutability": "payable",
      "type": "function"
    },
    {
      "inputs": [
        {
          "internalType": "address",
          "name": "to",
          "type": "address"
        },
        {
          "internalType": "uint256",
          "name": "amount",
          "type": "uint256"
        },
        {
          "internalType": "bytes",
          "name": "data",
          "type": "bytes"
        }
      ],
      "name": "transferAndCall",
      "outputs": [
        {
          "internalType": "bool",
          "name": "",
          "type": "bool"
        }
      ],
      "stateMutability": "nonpayable",
      "type": "function"
    },
    {
      "inputs": [
        {
          "internalType": "address",
          "name": "from",
          "type": "address"
        },
        {
          "internalType": "address",
          "name": "to",
          "type": "address"
        },
        {
          "internalType": "uint256",
          "name": "amount",
          "type": "uint256"
        }
      ],
      "name": "transferFrom",
      "outputs": [
        {
          "internalType": "bool",
          "name": "",
          "type": "bool"
        }
      ],
      "stateMutability": "nonpayable",
      "type": "function"
    },
    {
      "inputs": [
        {
          "internalType": "address",
          "name": "from",
          "type": "address"
        },
        {
          "internalType": "address",
          "name": "to",
          "type": "address"
        },
        {
          "internalType": "uint256",
          "name": "amount",
          "type": "uint256"
        },
        {
          "internalType": "bytes",
          "name": "data",
          "type": "bytes"
        }
      ],
      "name": "transferFromAndCall",
      "outputs": [
        {
          "internalType": "bool",
          "name": "",
          "type": "bool"
        }
      ],
      "stateMutability": "nonpayable",
      "type": "function"
    }
  ],
  "transactionHash": "0xc04c45beebef2b83609db5b519c8a9c7b13fa558b68603f4d25189a445f62190",
  "args": [
    "0xbE19B59E8C588d68f475A407C7BA5fE813AEb792",
    "0xB8246260a355cEd5aF2a8D45991249F31Bb8DE61",
    "0xD833d4dBBb0C19aF1EEf76540d66E2076a5e9D72",
    "0x1874F6326eEbcCe664410a93a5217741a977D14A",
    {
      "genesis": "0x69AB0921CC2BCC5C203B2BCCC4B5CE33ACB9520A4776421236C81AD3DA565991",
      "acquireNumSpaceships": 100000,
      "productionCapAsDuration": 259200,
      "frontrunningDelay": 1800,
      "timePerDistance": 7200,
      "productionSpeedUp": 1,
      "minAttackAmount": 20000,
      "numSecondsPerTokens": 302400,
      "spaceshipsToKeepPer10000": 1500,
      "minAverageStakePerPlanet": "1000000000000000000",
      "maxClaimDelay": 86400,
      "minimumSubscriptionWhenNotStaking": "1000000000000000000",
      "minimumSubscriptionWhenStaking": "1000000000000000000",
      "maxTimeRange": 432000
    }
  ],
  "numDeployments": 5,
  "linkedData": {
    "genesis": "0x69AB0921CC2BCC5C203B2BCCC4B5CE33ACB9520A4776421236C81AD3DA565991",
    "acquireNumSpaceships": 100000,
    "productionCapAsDuration": 259200,
    "frontrunningDelay": 1800,
    "timePerDistance": 7200,
    "productionSpeedUp": 1,
    "minAttackAmount": 20000,
    "numSecondsPerTokens": 302400,
    "spaceshipsToKeepPer10000": 1500,
    "minAverageStakePerPlanet": "1000000000000000000",
    "maxClaimDelay": 86400,
    "minimumSubscriptionWhenNotStaking": "1000000000000000000",
    "minimumSubscriptionWhenStaking": "1000000000000000000",
    "maxTimeRange": 432000
  },
  "solcInputHash": "7477e8a0bb98fd83c12912761a229a59",
  "bytecode": "0x6102a06040523480156200001257600080fd5b506040516200636638038062006366833981016040819052620000359162000281565b6040805180820190915260018152603160f81b60208201527f91ab3d17e3a50a9d89e63fd30b92be7f5336b03b287bb946787a83a9d62a27666200009360408051808201909152600781526659414b555a413160c81b602082015290565b8051602091820120835184830120604080519384019490945292820152606081019190915230608082015260a00160408051601f19818403018152918152815160209283012060809081526001600160a01b0380881660a052861660c052845160e052918401516101005283015161012052606083015161014052820151600091506200012390600490620003ac565b608083015190915062000138826004620003de565b63ffffffff1614620001905760405162461bcd60e51b815260206004820152601d60248201527f54494d455f5045525f444953545f4e4f545f444956495349424c455f34000000604482015260640160405180910390fd5b63ffffffff811661016090815260a083015161018090815260c08401516101a090815260e08501516101c052610120850151610200526101008501516101e0526101408501516102205291840151610240528301516102605282015161028052620002248686600480546001600160a01b039384166001600160a01b03199182161790915560058054929093169116179055565b50505050505062000419565b6001600160a01b03811681146200024657600080fd5b50565b6040516101c081016001600160401b03811182821017156200027b57634e487b7160e01b600052604160045260246000fd5b60405290565b60008060008060008587036102408112156200029c57600080fd5b8651620002a98162000230565b6020880151909650620002bc8162000230565b6040880151909550620002cf8162000230565b6060880151909450620002e28162000230565b92506101c0607f198201811315620002f957600080fd5b6200030362000249565b91506080880151825260a0880151602083015260c0880151604083015260e08801516060830152610100808901516080840152610120808a015160a0850152610140808b015160c0860152610160808c015160e0870152610180808d0151858801526101a09450848d015184880152858d0151838801526101e08d0151828801526102008d01518188015250505050610220890151818401525050809150509295509295909350565b600063ffffffff80841680620003d257634e487b7160e01b600052601260045260246000fd5b92169190910492915050565b600063ffffffff808316818516818304811182151516156200041057634e487b7160e01b600052601160045260246000fd5b02949350505050565b60805160a05160c05160e05161010051610120516101405161016051610180516101a0516101c0516101e0516102005161022051610240516102605161028051615dea6200057c60003960008181612eab0152614857015260008181613617015261395401526000610dfe0152600061106201526000818161420e015281816142b701526142dd015260006113b901526000818161377e0152613ace0152600081816128be015261290c0152600061474c0152600081816135d80152613915015260008181612fca01528181613007015281816130460152614173015260006146d40152600061470d015260006144b2015260008181610ee801528181610f9b0152818161114b01526111f2015260008181611219015281816112fe01528181612b89015281816131e701528181613451015281816136d101528181613a2101528181613dd50152613f8c0152600081816103bf0152611aa20152615dea6000f3fe6080604052600436106101fe5760003560e01c80637ecebe001161011d578063d505accf116100b0578063e412ea611161007f578063f046395a11610064578063f046395a14610721578063fc72b9761461076a578063ff1e03e91461077d57600080fd5b8063e412ea611461069e578063e7fcb0651461070e57600080fd5b8063d505accf1461062b578063dae254dd1461064b578063dd62ed3e1461066b578063df752eed1461068b57600080fd5b8063a888c2cd116100ec578063a888c2cd1461053c578063a9059cbb146105cb578063c1d34b89146105eb578063cae9ca511461060b57600080fd5b80637ecebe001461048a57806395d89b41146104cd5780639fe8ae3714610516578063a53ebf481461052957600080fd5b806323b872dd1161019557806363d994c71161016457806363d994c71461040157806364aa8347146104215780636b515ece1461043457806370a082311461044757600080fd5b806323b872dd14610371578063313ce567146103915780633644e515146103ad5780634000aea0146103e157600080fd5b80630e02df54116101d15780630e02df54146102cd57806318160ddd146102e05780631da51124146102ff5780631dac30b01461031f57600080fd5b8063066112f91461020357806306fdde0314610225578063095ea7b31461027d5780630ccdb355146102ad575b600080fd5b34801561020f57600080fd5b5061022361021e366004614b93565b61079d565b005b34801561023157600080fd5b5060408051808201909152600781527f59414b555a41310000000000000000000000000000000000000000000000000060208201525b6040516102749190614bb7565b60405180910390f35b34801561028957600080fd5b5061029d610298366004614c2a565b6108ac565b6040519015158152602001610274565b3480156102b957600080fd5b506102236102c8366004614c56565b6108c3565b61029d6102db366004614d3b565b6109d1565b3480156102ec57600080fd5b506000545b604051908152602001610274565b34801561030b57600080fd5b5061022361031a366004614b93565b610b9a565b34801561032b57600080fd5b5060045461034c9073ffffffffffffffffffffffffffffffffffffffff1681565b60405173ffffffffffffffffffffffffffffffffffffffff9091168152602001610274565b34801561037d57600080fd5b5061029d61038c366004614d87565b610c62565b34801561039d57600080fd5b5060405160128152602001610274565b3480156103b957600080fd5b506102f17f000000000000000000000000000000000000000000000000000000000000000081565b3480156103ed57600080fd5b5061029d6103fc366004614e0a565b610c79565b34801561040d57600080fd5b5061029d61041c366004614e66565b610d39565b61022361042f366004614ed9565b610dfc565b610223610442366004614fa3565b61105f565b34801561045357600080fd5b506102f1610462366004614b93565b73ffffffffffffffffffffffffffffffffffffffff1660009081526001602052604090205490565b34801561049657600080fd5b506102f16104a5366004614b93565b73ffffffffffffffffffffffffffffffffffffffff1660009081526003602052604090205490565b3480156104d957600080fd5b506102676040518060400160405280600481526020017f594b5a310000000000000000000000000000000000000000000000000000000081525081565b610223610524366004615071565b611455565b6102236105373660046150da565b611675565b34801561054857600080fd5b50610594610557366004615185565b60076020526000908152604090205460ff81169061010090047effffffffffffffffffffffffffffffffffffffffffffffffffffffffffffff1682565b6040805192151583527effffffffffffffffffffffffffffffffffffffffffffffffffffffffffffff909116602083015201610274565b3480156105d757600080fd5b5061029d6105e6366004614c2a565b61189b565b3480156105f757600080fd5b5061029d610606366004614e66565b6118a8565b34801561061757600080fd5b5061029d610626366004614e0a565b61190d565b34801561063757600080fd5b5061022361064636600461519e565b611970565b34801561065757600080fd5b50610223610666366004614b93565b611ca5565b34801561067757600080fd5b506102f1610686366004615215565b611d9f565b61029d61069936600461524e565b611e1f565b3480156106aa57600080fd5b506106e96106b9366004615185565b60086020526000908152604090205460ff81169064ffffffffff6101008204811691660100000000000090041683565b60408051931515845264ffffffffff9283166020850152911690820152606001610274565b61029d61071c366004614c2a565b611fdc565b34801561072d57600080fd5b5061075561073c366004614b93565b6006602052600090815260409020805460019091015482565b60408051928352602083019190915201610274565b61029d6107783660046152ae565b61202b565b34801561078957600080fd5b50610223610798366004614b93565b6122be565b60045473ffffffffffffffffffffffffffffffffffffffff163314610823576040517f08c379a000000000000000000000000000000000000000000000000000000000815260206004820152600b60248201527f4e4f545f414c4c4f57454400000000000000000000000000000000000000000060448201526064015b60405180910390fd5b6005546040517f066112f900000000000000000000000000000000000000000000000000000000815273ffffffffffffffffffffffffffffffffffffffff83811660048301529091169063066112f9906024015b600060405180830381600087803b15801561089157600080fd5b505af11580156108a5573d6000803e3d6000fd5b5050505050565b60006108b9338484612397565b5060015b92915050565b7fb53127684a568b3173ae13b9f8a6016e243e63b6e8ee1178d6a717850b5d61035473ffffffffffffffffffffffffffffffffffffffff163373ffffffffffffffffffffffffffffffffffffffff1614610979576040517f08c379a000000000000000000000000000000000000000000000000000000000815260206004820152600e60248201527f4e4f545f415554484f52495a4544000000000000000000000000000000000000604482015260640161081a565b6108a585856004805473ffffffffffffffffffffffffffffffffffffffff9384167fffffffffffffffffffffffff00000000000000000000000000000000000000009182161790915560058054929093169116179055565b6000806109de84346153a6565b90506109ea84826153ba565b3414610a52576040517f08c379a000000000000000000000000000000000000000000000000000000000815260206004820152601160248201527f494e56414c49445f4d53475f56414c5545000000000000000000000000000000604482015260640161081a565b6000610a5e85856153a6565b9050610a6a85826153ba565b8414610ad2576040517f08c379a000000000000000000000000000000000000000000000000000000000815260206004820152601460248201527f494e56414c49445f544f54414c5f414d4f554e54000000000000000000000000604482015260640161081a565b60005b85811015610b8d57610b0e33888884818110610af357610af36153f7565b9050602002016020810190610b089190614b93565b846124a5565b868682818110610b2057610b206153f7565b9050602002016020810190610b359190614b93565b73ffffffffffffffffffffffffffffffffffffffff166108fc849081150290604051600060405180830381858888f19350505050158015610b7a573d6000803e3d6000fd5b5080610b8581615426565b915050610ad5565b5060019695505050505050565b60045473ffffffffffffffffffffffffffffffffffffffff163314610c1b576040517f08c379a000000000000000000000000000000000000000000000000000000000815260206004820152600b60248201527f4e4f545f414c4c4f574544000000000000000000000000000000000000000000604482015260640161081a565b600580547fffffffffffffffffffffffff00000000000000000000000000000000000000001673ffffffffffffffffffffffffffffffffffffffff92909216919091179055565b6000610c6f8484846126f3565b5060019392505050565b6000610c863386866124a5565b6040517fa4c0ed3600000000000000000000000000000000000000000000000000000000815273ffffffffffffffffffffffffffffffffffffffff86169063a4c0ed3690610cde9033908890889088906004016154a8565b602060405180830381600087803b158015610cf857600080fd5b505af1158015610d0c573d6000803e3d6000fd5b505050506040513d601f19601f82011682018060405250810190610d3091906154fc565b95945050505050565b6000610d463386866124a5565b6040517f9b6be06500000000000000000000000000000000000000000000000000000000815273ffffffffffffffffffffffffffffffffffffffff861690639b6be06590610da09033908a90899089908990600401615519565b602060405180830381600087803b158015610dba57600080fd5b505af1158015610dce573d6000803e3d6000fd5b505050506040513d601f19601f82011682018060405250810190610df291906154fc565b9695505050505050565b7f0000000000000000000000000000000000000000000000000000000000000000610e278383615564565b1015610e8f576040517f08c379a000000000000000000000000000000000000000000000000000000000815260206004820152601d60248201527f4d494e494d554d5f535542534352495054494f4e5f5245515549524544000000604482015260640161081a565b338115610f66576040517f23b872dd00000000000000000000000000000000000000000000000000000000815273ffffffffffffffffffffffffffffffffffffffff8281166004830152306024830152604482018490527f000000000000000000000000000000000000000000000000000000000000000016906323b872dd90606401602060405180830381600087803b158015610f2c57600080fd5b505af1158015610f40573d6000803e3d6000fd5b505050506040513d601f19601f82011682018060405250810190610f6491906154fc565b505b6040517f40c10f19000000000000000000000000000000000000000000000000000000008152306004820152602481018490527f000000000000000000000000000000000000000000000000000000000000000073ffffffffffffffffffffffffffffffffffffffff16906340c10f199034906044016000604051808303818588803b158015610ff557600080fd5b505af1158015611009573d6000803e3d6000fd5b5060009350839250611019915050565b604051908082528060200260200182016040528015611042578160200160208202803683370190505b509050611059826110538587615564565b83612844565b50505050565b337f000000000000000000000000000000000000000000000000000000000000000061108b8585615564565b10156110f3576040517f08c379a000000000000000000000000000000000000000000000000000000000815260206004820152601d60248201527f4d494e494d554d5f535542534352495054494f4e5f5245515549524544000000604482015260640161081a565b82156111c9576040517f23b872dd00000000000000000000000000000000000000000000000000000000815273ffffffffffffffffffffffffffffffffffffffff8281166004830152306024830152604482018590527f000000000000000000000000000000000000000000000000000000000000000016906323b872dd90606401602060405180830381600087803b15801561118f57600080fd5b505af11580156111a3573d6000803e3d6000fd5b505050506040513d601f19601f820116820180604052508101906111c791906154fc565b505b60006111d58385615564565b11156112e75773ffffffffffffffffffffffffffffffffffffffff7f00000000000000000000000000000000000000000000000000000000000000001663095ea7b37f00000000000000000000000000000000000000000000000000000000000000006112428587615564565b6040517fffffffff0000000000000000000000000000000000000000000000000000000060e085901b16815273ffffffffffffffffffffffffffffffffffffffff90921660048301526024820152604401602060405180830381600087803b1580156112ad57600080fd5b505af11580156112c1573d6000803e3d6000fd5b505050506040513d601f19601f820116820180604052508101906112e591906154fc565b505b73ffffffffffffffffffffffffffffffffffffffff7f00000000000000000000000000000000000000000000000000000000000000001663861399e73487876113308789615564565b6040518563ffffffff1660e01b815260040161134e939291906155b7565b6000604051808303818588803b15801561136757600080fd5b505af115801561137b573d6000803e3d6000fd5b50505050506000838561138e9190615564565b9050600086518486886113a19190615564565b6113ab9190615564565b6113b591906153a6565b90507f0000000000000000000000000000000000000000000000000000000000000000811015611441576040517f08c379a000000000000000000000000000000000000000000000000000000000815260206004820152601160248201527f504c414e4554535f544f4f5f534d414c4c000000000000000000000000000000604482015260640161081a565b61144c838389612844565b50505050505050565b341561151c5773ffffffffffffffffffffffffffffffffffffffff81166114d8576040517f08c379a000000000000000000000000000000000000000000000000000000000815260206004820152600860248201527f4e4f5f5041594545000000000000000000000000000000000000000000000000604482015260640161081a565b60405173ffffffffffffffffffffffffffffffffffffffff8216903480156108fc02916000818181858888f1935050505015801561151a573d6000803e3d6000fd5b505b6040805160208101849052908101879052600060608201819052606182018190526075820181905233916095016040516020818303038152906040528051906020012090508481146115ca576040517f08c379a000000000000000000000000000000000000000000000000000000000815260206004820152600f60248201527f494e56414c49445f544f5f484153480000000000000000000000000000000000604482015260640161081a565b73ffffffffffffffffffffffffffffffffffffffff8216600090815260066020526040902060010154421061165b576040517f08c379a000000000000000000000000000000000000000000000000000000000815260206004820152601460248201527f535542534352495054494f4e5f45585049524544000000000000000000000000604482015260640161081a565b61166a828a8a8a8a8a8a612a35565b505050505050505050565b341561173c5773ffffffffffffffffffffffffffffffffffffffff81166116f8576040517f08c379a000000000000000000000000000000000000000000000000000000000815260206004820152600860248201527f4e4f5f5041594545000000000000000000000000000000000000000000000000604482015260640161081a565b60405173ffffffffffffffffffffffffffffffffffffffff8216903480156108fc02916000818181858888f1935050505015801561173a573d6000803e3d6000fd5b505b60408051602080820185905289013591810191909152600060608201819052606182018190526075820181905233916095016040516020818303038152906040528051906020012090508581146117ef576040517f08c379a000000000000000000000000000000000000000000000000000000000815260206004820152600f60248201527f494e56414c49445f544f5f484153480000000000000000000000000000000000604482015260640161081a565b73ffffffffffffffffffffffffffffffffffffffff82166000908152600660205260409020600101544210611880576040517f08c379a000000000000000000000000000000000000000000000000000000000815260206004820152601460248201527f535542534352495054494f4e5f45585049524544000000000000000000000000604482015260640161081a565b61188f8a8a8a8a8a898b612cd0565b50505050505050505050565b60006108b93384846124a5565b60006118b58686866126f3565b6040517fa4c0ed3600000000000000000000000000000000000000000000000000000000815273ffffffffffffffffffffffffffffffffffffffff86169063a4c0ed3690610da09089908890889088906004016154a8565b600061191a338686612397565b6040517eba451f00000000000000000000000000000000000000000000000000000000815273ffffffffffffffffffffffffffffffffffffffff86169062ba451f90610cde9033908890889088906004016154a8565b73ffffffffffffffffffffffffffffffffffffffff87166119ed576040517f08c379a000000000000000000000000000000000000000000000000000000000815260206004820152601460248201527f494e56414c49445f5a45524f5f41444452455353000000000000000000000000604482015260640161081a565b73ffffffffffffffffffffffffffffffffffffffff87811660008181526003602090815260408083205481517f6e71edae12b1b97f4d1f60370fef10105fa2faae0126114a169c64845d6126c98185015280830195909552948b166060850152608084018a905260a0840185905260c08085018a90528151808603909101815260e0850190915280519101207f19010000000000000000000000000000000000000000000000000000000000006101008401527f00000000000000000000000000000000000000000000000000000000000000006101028401526101228301529061014201604080517fffffffffffffffffffffffffffffffffffffffffffffffffffffffffffffffe081840301815282825280516020918201206000845290830180835281905260ff8816918301919091526060820186905260808201859052915060019060a0016020604051602081039080840390855afa158015611b58573d6000803e3d6000fd5b5050506020604051035173ffffffffffffffffffffffffffffffffffffffff168973ffffffffffffffffffffffffffffffffffffffff1614611bf6576040517f08c379a000000000000000000000000000000000000000000000000000000000815260206004820152601160248201527f494e56414c49445f5349474e4154555245000000000000000000000000000000604482015260640161081a565b851580611c035750854211155b611c69576040517f08c379a000000000000000000000000000000000000000000000000000000000815260206004820152600860248201527f544f4f5f4c415445000000000000000000000000000000000000000000000000604482015260640161081a565b611c74826001615564565b73ffffffffffffffffffffffffffffffffffffffff8a1660009081526003602052604090205561166a898989612397565b60045473ffffffffffffffffffffffffffffffffffffffff163314611d26576040517f08c379a000000000000000000000000000000000000000000000000000000000815260206004820152600b60248201527f4e4f545f414c4c4f574544000000000000000000000000000000000000000000604482015260640161081a565b600480547fffffffffffffffffffffffff00000000000000000000000000000000000000001673ffffffffffffffffffffffffffffffffffffffff83169081179091556040519081527f083dc55b3248fa3ebfe8473cfe49ec0028fb069195dc28d6513564cbc9f162df9060200160405180910390a150565b600073ffffffffffffffffffffffffffffffffffffffff8316301415611de657507fffffffffffffffffffffffffffffffffffffffffffffffffffffffffffffffff6108bd565b5073ffffffffffffffffffffffffffffffffffffffff918216600090815260026020908152604080832093909416825291909152205490565b600080611e2c85346153a6565b9050611e3885826153ba565b3414611ea0576040517f08c379a000000000000000000000000000000000000000000000000000000000815260206004820152601160248201527f494e56414c49445f4d53475f56414c5545000000000000000000000000000000604482015260640161081a565b848314611f09576040517f08c379a000000000000000000000000000000000000000000000000000000000815260206004820152600f60248201527f4e4f545f53414d455f4c454e4754480000000000000000000000000000000000604482015260640161081a565b60005b85811015610b8d57611f5d33888884818110611f2a57611f2a6153f7565b9050602002016020810190611f3f9190614b93565b878785818110611f5157611f516153f7565b905060200201356124a5565b868682818110611f6f57611f6f6153f7565b9050602002016020810190611f849190614b93565b73ffffffffffffffffffffffffffffffffffffffff166108fc839081150290604051600060405180830381858888f19350505050158015611fc9573d6000803e3d6000fd5b5080611fd481615426565b915050611f0c565b6000611fe93384846124a5565b60405173ffffffffffffffffffffffffffffffffffffffff8416903480156108fc02916000818181858888f19350505050158015610c6f573d6000803e3d6000fd5b600080868514612097576040517f08c379a000000000000000000000000000000000000000000000000000000000815260206004820152601560248201527f544f4b454e5f4e4f545f53414d455f4c454e4754480000000000000000000000604482015260640161081a565b868314612100576040517f08c379a000000000000000000000000000000000000000000000000000000000815260206004820152601360248201527f4554485f4e4f545f53414d455f4c454e47544800000000000000000000000000604482015260640161081a565b60005b878110156122465786868281811061211d5761211d6153f7565b9050602002013560001461216857612168338a8a84818110612141576121416153f7565b90506020020160208101906121569190614b93565b898985818110611f5157611f516153f7565b84848281811061217a5761217a6153f7565b905060200201356000146122345788888281811061219a5761219a6153f7565b90506020020160208101906121af9190614b93565b73ffffffffffffffffffffffffffffffffffffffff166108fc8686848181106121da576121da6153f7565b905060200201359081150290604051600060405180830381858888f1935050505015801561220c573d6000803e3d6000fd5b5084848281811061221f5761221f6153f7565b90506020020135826122319190615564565b91505b8061223e81615426565b915050612103565b508034146122b0576040517f08c379a000000000000000000000000000000000000000000000000000000000815260206004820152601160248201527f494e56414c49445f4d53475f56414c5545000000000000000000000000000000604482015260640161081a565b506001979650505050505050565b60045473ffffffffffffffffffffffffffffffffffffffff16331461233f576040517f08c379a000000000000000000000000000000000000000000000000000000000815260206004820152600b60248201527f4e4f545f414c4c4f574544000000000000000000000000000000000000000000604482015260640161081a565b6005546040517fff1e03e900000000000000000000000000000000000000000000000000000000815273ffffffffffffffffffffffffffffffffffffffff83811660048301529091169063ff1e03e990602401610877565b73ffffffffffffffffffffffffffffffffffffffff8316158015906123d1575073ffffffffffffffffffffffffffffffffffffffff821615155b612437576040517f08c379a000000000000000000000000000000000000000000000000000000000815260206004820152601460248201527f494e56414c49445f5a45524f5f41444452455353000000000000000000000000604482015260640161081a565b73ffffffffffffffffffffffffffffffffffffffff83811660008181526002602090815260408083209487168084529482529182902085905590518481527f8c5be1e5ebec7d5bd14f71427d1e84f3dd0314c0f7b2291e5b200ac8c7c3b925910160405180910390a3505050565b73ffffffffffffffffffffffffffffffffffffffff8216612522576040517f08c379a000000000000000000000000000000000000000000000000000000000815260206004820152601460248201527f494e56414c49445f5a45524f5f41444452455353000000000000000000000000604482015260640161081a565b73ffffffffffffffffffffffffffffffffffffffff82163014156125a2576040517f08c379a000000000000000000000000000000000000000000000000000000000815260206004820152601460248201527f494e56414c49445f544849535f41444452455353000000000000000000000000604482015260640161081a565b73ffffffffffffffffffffffffffffffffffffffff831660009081526001602052604090205481811015612632576040517f08c379a000000000000000000000000000000000000000000000000000000000815260206004820152601160248201527f4e4f545f454e4f5547485f544f4b454e53000000000000000000000000000000604482015260640161081a565b61263c82826155dc565b73ffffffffffffffffffffffffffffffffffffffff808616600090815260016020526040808220939093559085168152908120805484929061267f908490615564565b925050819055508273ffffffffffffffffffffffffffffffffffffffff168473ffffffffffffffffffffffffffffffffffffffff167fddf252ad1be2c89b69c2b068fc378daa952ba7f163c4a11628f55a4df523b3ef846040516126e591815260200190565b60405180910390a350505050565b3373ffffffffffffffffffffffffffffffffffffffff84161480159061272f575073ffffffffffffffffffffffffffffffffffffffff83163014155b156128345773ffffffffffffffffffffffffffffffffffffffff831660009081526002602090815260408083203384529091529020547fffffffffffffffffffffffffffffffffffffffffffffffffffffffffffffffff811461283257818110156127f6576040517f08c379a000000000000000000000000000000000000000000000000000000000815260206004820152601760248201527f4e4f545f415554484f495a45445f414c4c4f57414e4345000000000000000000604482015260640161081a565b61280082826155dc565b73ffffffffffffffffffffffffffffffffffffffff851660009081526002602090815260408083203384529091529020555b505b61283f8383836124a5565b505050565b61284e838361334c565b73ffffffffffffffffffffffffffffffffffffffff831660009081526006602052604090208054600190910154428110156128fd5773ffffffffffffffffffffffffffffffffffffffff8516600090815260066020526040902042908190559150670de0b6b3a76400006128e2857f00000000000000000000000000000000000000000000000000000000000000006153ba565b6128ec91906153a6565b6128f69083615564565b9050612947565b670de0b6b3a7640000612930857f00000000000000000000000000000000000000000000000000000000000000006153ba565b61293a91906153a6565b6129449082615564565b90505b60005b83518110156129c45760016008600086848151811061296b5761296b6153f7565b602090810291909101810151825281019190915260400160002080547fffffffffffffffffffffffffffffffffffffffffffffffffffffffffffffff0016911515919091179055806129bc81615426565b91505061294a565b5073ffffffffffffffffffffffffffffffffffffffff851660008181526006602052604090819020600101839055517f15d2bd1de44af0c75855c12bdee2654829d4e3f57c33b45267db054421410c1a90612a269085908590899089906155f3565b60405180910390a25050505050565b60008581526008602052604090205460ff16612aad576040517f08c379a000000000000000000000000000000000000000000000000000000000815260206004820152601860248201527f5441524745545f504c414e45545f4e4f545f59414b555a410000000000000000604482015260640161081a565b60008581526008602052604090205442660100000000000090910464ffffffffff1610612b36576040517f08c379a000000000000000000000000000000000000000000000000000000000815260206004820152601460248201527f5441524745545f504c414e45545f4c4f434b4544000000000000000000000000604482015260640161081a565b6000612b44878787876133ee565b6040517f112e68510000000000000000000000000000000000000000000000000000000081526004810189905263ffffffff86166024820152604481018590529091507f000000000000000000000000000000000000000000000000000000000000000073ffffffffffffffffffffffffffffffffffffffff169063112e685190606401600060405180830381600087803b158015612be257600080fd5b505af1158015612bf6573d6000803e3d6000fd5b50506040805160208082018890528183018c905230606090811b7fffffffffffffffffffffffffffffffffffffffff0000000000000000000000001690830181905260748301528251808303606801815260888301808552815191909201209081905263ffffffff891660a883015264ffffffffff861660c883015260e88201879052915191935089925073ffffffffffffffffffffffffffffffffffffffff8c16917fd231cd95035c0af619937b9299c7ebedd2b33abbdc2da46f77ecdc469bf9896191610108908290030190a3505050505050505050565b338760c08801356020890135612cec60a08b0160808c01615618565b612cfc60c08c0160a08d01614b93565b8b60600135604051602001612d5b959493929190948552602085019390935290151560f81b604084015260601b7fffffffffffffffffffffffffffffffffffffffff000000000000000000000000166041830152605582015260750190565b604080517fffffffffffffffffffffffffffffffffffffffffffffffffffffffffffffffe081840301815291905280516020909101208835612da46101008b0160e08c01614b93565b612db66101208c016101008d01614b93565b6040805160208101959095528401929092527fffffffffffffffffffffffffffffffffffffffff000000000000000000000000606091821b81168285015291901b1660748201526088016040516020818303038152906040528051906020012060001c14612e80576040517f08c379a000000000000000000000000000000000000000000000000000000000815260206004820152601c60248201527f494e56414c49445f464c4545545f444154415f4f525f53454352455400000000604482015260640161081a565b6000612e9389878a60200135868b6138c2565b9050612ea9828a8a600001358460400151613d2a565b7f00000000000000000000000000000000000000000000000000000000000000008763ffffffff161015612f39576040517f08c379a000000000000000000000000000000000000000000000000000000000815260206004820152601760248201527f41545441434b5f414d4f554e545f544f4f5f534d414c4c000000000000000000604482015260640161081a565b6020888101356000908152600882526040808220805460017fffffffffffffffffffffffffffffffffffffffffffffffffffffffffffffff0090911617908190558c83526007909352902054660100000000000090910464ffffffffff169061010090047effffffffffffffffffffffffffffffffffffffffffffffffffffffffffffff16612ff6578151612fef907f000000000000000000000000000000000000000000000000000000000000000090615635565b905061306e565b815164ffffffffff82169061302c907f000000000000000000000000000000000000000000000000000000000000000090615635565b64ffffffffff161061303e578061306b565b815161306b907f000000000000000000000000000000000000000000000000000000000000000090615635565b90505b6020898101356000908152600882526040902080547fffffffffffffffffffffffffffffffffffffffffff0000000000ffffffffffff16660100000000000064ffffffffff85160217905582015163ffffffff89161061310b57600060208084018290528b8252600790526040902080547fffffffffffffffffffffffffffffffffffffffffffffffffffffffffffffff00166001179055613148565b8763ffffffff16826020015161312191906155dc565b7effffffffffffffffffffffffffffffffffffffffffffffffffffffffffffff1660208301525b60208281015160008c8152600790925260409182902080547effffffffffffffffffffffffffffffffffffffffffffffffffffffffffffff9092166101000260ff909216919091179055517f112e68510000000000000000000000000000000000000000000000000000000081526004810188905263ffffffff891660248201526044810187905273ffffffffffffffffffffffffffffffffffffffff7f0000000000000000000000000000000000000000000000000000000000000000169063112e685190606401600060405180830381600087803b15801561322b57600080fd5b505af115801561323f573d6000803e3d6000fd5b505060408051602081018a90529081018a905230606090811b7fffffffffffffffffffffffffffffffffffffffff000000000000000000000000169082018190526074820152600092506088019050604080517fffffffffffffffffffffffffffffffffffffffffffffffffffffffffffffffe081840301815282825280516020918201208682015181855263ffffffff8e16858401529284019290925264ffffffffff85166060840152608083018990529092508b0135908c9073ffffffffffffffffffffffffffffffffffffffff8716907f28f0e70dc0a95cd80d6a14d6fd32d24213951768315b75439c43aee3ddbcc8d39060a00160405180910390a45050505050505050505050565b8060008082825461335d9190615564565b909155505073ffffffffffffffffffffffffffffffffffffffff821660009081526001602052604081208054839290613397908490615564565b909155505060405181815273ffffffffffffffffffffffffffffffffffffffff8316906000907fddf252ad1be2c89b69c2b068fc378daa952ba7f163c4a11628f55a4df523b3ef9060200160405180910390a35050565b6000806133fa8661447a565b905060006134078661447a565b6040517f1e7c86ea0000000000000000000000000000000000000000000000000000000081526004810188905290915060009073ffffffffffffffffffffffffffffffffffffffff7f00000000000000000000000000000000000000000000000000000000000000001690631e7c86ea906024016101006040518083038186803b15801561349457600080fd5b505afa1580156134a8573d6000803e3d6000fd5b505050506040513d601f19601f820116820180604052508101906134cc9190615689565b90508060c00151613539576040517f08c379a000000000000000000000000000000000000000000000000000000000815260206004820152601860248201527f5441524745545f504c414e45545f4e4f545f4143544956450000000000000000604482015260640161081a565b805173ffffffffffffffffffffffffffffffffffffffff163014156135ba576040517f08c379a000000000000000000000000000000000000000000000000000000000815260206004820152601b60248201527f5441524745545f504c414e45545f414c52454144595f4f574e45440000000000604482015260640161081a565b6135c78689898686614555565b606083015160009061ffff166135ff7f00000000000000000000000000000000000000000000000000000000000000006127106153ba565b61360990896153ba565b61361391906153a6565b90507f000000000000000000000000000000000000000000000000000000000000000081111561369f576040517f08c379a000000000000000000000000000000000000000000000000000000000815260206004820152600c60248201527f544f4f5f4641525f415741590000000000000000000000000000000000000000604482015260640161081a565b6040517f1e7c86ea000000000000000000000000000000000000000000000000000000008152600481018a90526000907f000000000000000000000000000000000000000000000000000000000000000073ffffffffffffffffffffffffffffffffffffffff1690631e7c86ea906024016101006040518083038186803b15801561372957600080fd5b505afa15801561373d573d6000803e3d6000fd5b505050506040513d601f19601f820116820180604052508101906137619190615689565b9050600061377286600001516146ca565b905060006127106137a37f0000000000000000000000000000000000000000000000000000000000000000846153ba565b6137ad91906153a6565b905080836060015163ffffffff1611613822576040517f08c379a000000000000000000000000000000000000000000000000000000000815260206004820152601560248201527f4e4f545f454e4f5547485f535041434553484950530000000000000000000000604482015260640161081a565b80836060015163ffffffff1661383891906155dc565b8963ffffffff1611156138a7576040517f08c379a000000000000000000000000000000000000000000000000000000000815260206004820152601c60248201527f4e4545445f544f5f4c454156455f454e4f5547485f444546454e534500000000604482015260640161081a565b6138b28b878b614731565b9c9b505050505050505050505050565b60408051606081018252600080825260208201819052918101829052906138e88661447a565b905060006138f58661447a565b90506139048588888585614555565b606082015160009061ffff1661393c7f00000000000000000000000000000000000000000000000000000000000000006127106153ba565b61394690886153ba565b61395091906153a6565b90507f00000000000000000000000000000000000000000000000000000000000000008111156139dc576040517f08c379a000000000000000000000000000000000000000000000000000000000815260206004820152600c60248201527f544f4f5f4641525f415741590000000000000000000000000000000000000000604482015260640161081a565b6139e68142615564565b64ffffffffff1684526040517f1e7c86ea000000000000000000000000000000000000000000000000000000008152600481018990526000907f000000000000000000000000000000000000000000000000000000000000000073ffffffffffffffffffffffffffffffffffffffff1690631e7c86ea906024016101006040518083038186803b158015613a7957600080fd5b505afa158015613a8d573d6000803e3d6000fd5b505050506040513d601f19601f82011682018060405250810190613ab19190615689565b90506000613ac285600001516146ca565b90506000612710613af37f0000000000000000000000000000000000000000000000000000000000000000846153ba565b613afd91906153a6565b905080836060015163ffffffff1611613b72576040517f08c379a000000000000000000000000000000000000000000000000000000000815260206004820152601560248201527f4e4f545f454e4f5547485f535041434553484950530000000000000000000000604482015260640161081a565b80836060015163ffffffff16613b8891906155dc565b8863ffffffff161115613bf7576040517f08c379a000000000000000000000000000000000000000000000000000000000815260206004820152601c60248201527f4e4545445f544f5f4c454156455f454e4f5547485f444546454e534500000000604482015260640161081a565b60008c81526007602090815260409091205461010090047effffffffffffffffffffffffffffffffffffffffffffffffffffffffffffff16908801819052613ca757600160408801528451600090613c4e906146ca565b9050866020015161ffff16866040015161ffff1610613c9e57866020015161ffff16866040015161ffff1682613c8491906153ba565b613c8e91906153a6565b613c99906001615564565b613ca0565b805b6020890152505b86602001518863ffffffff161115613d1b576040517f08c379a000000000000000000000000000000000000000000000000000000000815260206004820152601b60248201527f544f4f5f4d414e595f535041434553484950535f434c41494d45440000000000604482015260640161081a565b50505050505095945050505050565b60008381526007602052604090205460ff1615613da3576040517f08c379a000000000000000000000000000000000000000000000000000000000815260206004820152600f60248201527f414c52454144595f434c41494d45440000000000000000000000000000000000604482015260640161081a565b6040517f1e7c86ea000000000000000000000000000000000000000000000000000000008152600481018390526000907f000000000000000000000000000000000000000000000000000000000000000073ffffffffffffffffffffffffffffffffffffffff1690631e7c86ea906024016101006040518083038186803b158015613e2d57600080fd5b505afa158015613e41573d6000803e3d6000fd5b505050506040513d601f19601f82011682018060405250810190613e659190615689565b90508060c00151613ed2576040517f08c379a000000000000000000000000000000000000000000000000000000000815260206004820152601860248201527f5441524745545f504c414e45545f4e4f545f4143544956450000000000000000604482015260640161081a565b805173ffffffffffffffffffffffffffffffffffffffff16301415613f53576040517f08c379a000000000000000000000000000000000000000000000000000000000815260206004820152601b60248201527f5441524745545f504c414e45545f414c52454144595f4f574e45440000000000604482015260640161081a565b6040517f7a7f1e4200000000000000000000000000000000000000000000000000000000815260048101859052602481018490526000907f000000000000000000000000000000000000000000000000000000000000000073ffffffffffffffffffffffffffffffffffffffff1690637a7f1e42906044016101606040518083038186803b158015613fe457600080fd5b505afa158015613ff8573d6000803e3d6000fd5b505050506040513d601f19601f8201168201806040525081019061401c9190615767565b602081015190915073ffffffffffffffffffffffffffffffffffffffff163014156140a3576040517f08c379a000000000000000000000000000000000000000000000000000000000815260206004820152600f60248201527f464c4545545f49535f59414b555a410000000000000000000000000000000000604482015260640161081a565b8215614142578573ffffffffffffffffffffffffffffffffffffffff168160c0015173ffffffffffffffffffffffffffffffffffffffff1614614142576040517f08c379a000000000000000000000000000000000000000000000000000000000815260206004820152601460248201527f4449445f4e4f545f54415247455445445f594f55000000000000000000000000604482015260640161081a565b73ffffffffffffffffffffffffffffffffffffffff861660009081526006602052604090205460e082015161419f907f00000000000000000000000000000000000000000000000000000000000000009064ffffffffff166155dc565b11614206576040517f08c379a000000000000000000000000000000000000000000000000000000000815260206004820152601160248201527f464c4545545f4e4f545f434f5645524544000000000000000000000000000000604482015260640161081a565b82156142b0577f00000000000000000000000000000000000000000000000000000000000000008160e0015164ffffffffff166142439190615564565b42106142ab576040517f08c379a000000000000000000000000000000000000000000000000000000000815260206004820152601160248201527f544f4f5f4c4154455f544f5f434c41494d000000000000000000000000000000604482015260640161081a565b614384565b6142db60027f00000000000000000000000000000000000000000000000000000000000000006153a6565b7f00000000000000000000000000000000000000000000000000000000000000008260e0015164ffffffffff166143129190615564565b61431c9190615564565b4210614384576040517f08c379a000000000000000000000000000000000000000000000000000000000815260206004820152601960248201527f544f4f5f4c4154455f544f5f434c41494d5f4655525448455200000000000000604482015260640161081a565b6000816060015163ffffffff16116143f8576040517f08c379a000000000000000000000000000000000000000000000000000000000815260206004820152600860248201527f4e4f5f464c454554000000000000000000000000000000000000000000000000604482015260640161081a565b806101200151801561440c57508061014001515b614472576040517f08c379a000000000000000000000000000000000000000000000000000000000815260206004820152601260248201527f4e4f545f4143544956455f564943544f52590000000000000000000000000000604482015260640161081a565b505050505050565b6040805160c0810182526000808252602080830182905282840182905260608084018390526080840183905260a084019290925283517f000000000000000000000000000000000000000000000000000000000000000081830152808501869052845180820386018152920190935280519201919091206144fa81614980565b61ffff168252614509816149ae565b61ffff16602083015261451b816149d6565b61ffff16604083015261452d816149e3565b61ffff16606083015261453f81614a0b565b600090810b60a08501520b608083015250919050565b600060028360a0015160000b608087901c60046145729190615841565b61457c91906158f7565b60a084015160000b614593608088901c6004615841565b61459d91906158f7565b6145a79190615967565b6145b19190615ba9565b608084015160029060000b6145d96fffffffffffffffffffffffffffffffff89166004615841565b6145e391906158f7565b608085015160000b6146086fffffffffffffffffffffffffffffffff89166004615841565b61461291906158f7565b61461c9190615967565b6146269190615ba9565b61463091906158f7565b600f0b905080614641600288615c68565b1115801561466457506002614657876001615564565b6146619190615c68565b81105b614472576040517f08c379a000000000000000000000000000000000000000000000000000000000815260206004820152600e60248201527f77726f6e672064697374616e6365000000000000000000000000000000000000604482015260640161081a565b6000610e106146fd7f000000000000000000000000000000000000000000000000000000000000000061ffff85166153ba565b61470791906153a6565b6108bd907f0000000000000000000000000000000000000000000000000000000000000000615564565b815160009042908290614743906146ca565b90506000610e107f0000000000000000000000000000000000000000000000000000000000000000876000015161ffff1661477e91906153ba565b61478891906153a6565b9050600061479682846153a6565b600089815260086020526040812054919250906147bf90610100900464ffffffffff16866155dc565b9050818111156147cc5750805b60006147d9826001615564565b6147e99063ffffffff8a166153a6565b905083811115614855576040517f08c379a000000000000000000000000000000000000000000000000000000000815260206004820152601960248201527f544f4f5f4d5543485f5350454e545f5045525f5345434f4e4400000000000000604482015260640161081a565b7f00000000000000000000000000000000000000000000000000000000000000008863ffffffff1610156148e5576040517f08c379a000000000000000000000000000000000000000000000000000000000815260206004820152601760248201527f41545441434b5f414d4f554e545f544f4f5f534d414c4c000000000000000000604482015260640161081a565b60006148f183866153ba565b9050808963ffffffff16101561492c576149118563ffffffff8b166153a6565b61491b84896155dc565b6149259190615564565b9750614930565b8697505b5050506000978852505060086020525050604090932080547fffffffffffffffffffffffffffffffffffffffffffffffffffff0000000000ff1661010064ffffffffff8616021790555090919050565b60006108bd82600c7f0708083409600a8c0bb80ce40e100e100e100e101068151819c81e7823282ee0614a46565b60006149bb826014614ab7565b6149ca9060ff16610190615c77565b6108bd90610fa0615ca1565b60006149bb82601c614ab7565b60006149f0826024614ab7565b6149ff9060ff1661014d615c77565b6108bd9061138d615ca1565b600080614a1a83826003614b51565b614a25906001615cbe565b9150614a348360026003614b51565b614a3f906001615cbe565b9050915091565b600080614a538585614ab7565b905082614a61826002615d16565b614a6c906001615d37565b60ff1660208110614a7f57614a7f6153f7565b1a83614a8c836002615d16565b60ff1660208110614a9f57614a9f6153f7565b614aad91901a610100615c77565b610d309190615ca1565b600080614ac684846040614b51565b90506000614ad5600283615d5c565b90506000614ae4600284615d7e565b905060007f01223334444555555666666677777777888888889999999aaaaaabbbbcccddef60ff841660208110614b1d57614b1d6153f7565b1a905060ff8216614b3b5760048160ff16901c9450505050506108bd565b614b46601082615d7e565b9450505050506108bd565b6000614b6660ff80841690851686901c615da0565b949350505050565b73ffffffffffffffffffffffffffffffffffffffff81168114614b9057600080fd5b50565b600060208284031215614ba557600080fd5b8135614bb081614b6e565b9392505050565b600060208083528351808285015260005b81811015614be457858101830151858201604001528201614bc8565b81811115614bf6576000604083870101525b50601f017fffffffffffffffffffffffffffffffffffffffffffffffffffffffffffffffe016929092016040019392505050565b60008060408385031215614c3d57600080fd5b8235614c4881614b6e565b946020939093013593505050565b6000806000806000858703610240811215614c7057600080fd5b8635614c7b81614b6e565b95506020870135614c8b81614b6e565b94506040870135614c9b81614b6e565b93506060870135614cab81614b6e565b92506101c07fffffffffffffffffffffffffffffffffffffffffffffffffffffffffffffff8082011215614cde57600080fd5b506080860190509295509295909350565b60008083601f840112614d0157600080fd5b50813567ffffffffffffffff811115614d1957600080fd5b6020830191508360208260051b8501011115614d3457600080fd5b9250929050565b600080600060408486031215614d5057600080fd5b833567ffffffffffffffff811115614d6757600080fd5b614d7386828701614cef565b909790965060209590950135949350505050565b600080600060608486031215614d9c57600080fd5b8335614da781614b6e565b92506020840135614db781614b6e565b929592945050506040919091013590565b60008083601f840112614dda57600080fd5b50813567ffffffffffffffff811115614df257600080fd5b602083019150836020828501011115614d3457600080fd5b60008060008060608587031215614e2057600080fd5b8435614e2b81614b6e565b935060208501359250604085013567ffffffffffffffff811115614e4e57600080fd5b614e5a87828801614dc8565b95989497509550505050565b600080600080600060808688031215614e7e57600080fd5b8535614e8981614b6e565b94506020860135614e9981614b6e565b935060408601359250606086013567ffffffffffffffff811115614ebc57600080fd5b614ec888828901614dc8565b969995985093965092949392505050565b60008060408385031215614eec57600080fd5b50508035926020909101359150565b7f4e487b7100000000000000000000000000000000000000000000000000000000600052604160045260246000fd5b604051610160810167ffffffffffffffff81118282101715614f4e57614f4e614efb565b60405290565b604051601f82017fffffffffffffffffffffffffffffffffffffffffffffffffffffffffffffffe016810167ffffffffffffffff81118282101715614f9b57614f9b614efb565b604052919050565b60008060008060808587031215614fb957600080fd5b843567ffffffffffffffff80821115614fd157600080fd5b818701915087601f830112614fe557600080fd5b8135602082821115614ff957614ff9614efb565b8160051b925061500a818401614f54565b828152928401810192818101908b85111561502457600080fd5b948201945b8486101561504257853582529482019490820190615029565b9b918a01359a505060408901359860600135975095505050505050565b63ffffffff81168114614b9057600080fd5b600080600080600080600060e0888a03121561508c57600080fd5b87359650602088013595506040880135945060608801356150ac8161505f565b93506080880135925060a0880135915060c08801356150ca81614b6e565b8091505092959891949750929550565b600080600080600080600080888a036102008112156150f857600080fd5b893598506101207fffffffffffffffffffffffffffffffffffffffffffffffffffffffffffffffe08201121561512d57600080fd5b506020890196506101408901356151438161505f565b9550610160890135945061018089013593506101a089013592506101c089013591506101e089013561517481614b6e565b809150509295985092959890939650565b60006020828403121561519757600080fd5b5035919050565b600080600080600080600060e0888a0312156151b957600080fd5b87356151c481614b6e565b965060208801356151d481614b6e565b95506040880135945060608801359350608088013560ff811681146151f857600080fd5b9699959850939692959460a0840135945060c09093013592915050565b6000806040838503121561522857600080fd5b823561523381614b6e565b9150602083013561524381614b6e565b809150509250929050565b6000806000806040858703121561526457600080fd5b843567ffffffffffffffff8082111561527c57600080fd5b61528888838901614cef565b909650945060208701359150808211156152a157600080fd5b50614e5a87828801614cef565b600080600080600080606087890312156152c757600080fd5b863567ffffffffffffffff808211156152df57600080fd5b6152eb8a838b01614cef565b9098509650602089013591508082111561530457600080fd5b6153108a838b01614cef565b9096509450604089013591508082111561532957600080fd5b5061533689828a01614cef565b979a9699509497509295939492505050565b7f4e487b7100000000000000000000000000000000000000000000000000000000600052601260045260246000fd5b7f4e487b7100000000000000000000000000000000000000000000000000000000600052601160045260246000fd5b6000826153b5576153b5615348565b500490565b6000817fffffffffffffffffffffffffffffffffffffffffffffffffffffffffffffffff04831182151516156153f2576153f2615377565b500290565b7f4e487b7100000000000000000000000000000000000000000000000000000000600052603260045260246000fd5b60007fffffffffffffffffffffffffffffffffffffffffffffffffffffffffffffffff82141561545857615458615377565b5060010190565b8183528181602085013750600060208284010152600060207fffffffffffffffffffffffffffffffffffffffffffffffffffffffffffffffe0601f840116840101905092915050565b73ffffffffffffffffffffffffffffffffffffffff85168152836020820152606060408201526000610df260608301848661545f565b8015158114614b9057600080fd5b80516154f7816154de565b919050565b60006020828403121561550e57600080fd5b8151614bb0816154de565b600073ffffffffffffffffffffffffffffffffffffffff80881683528087166020840152508460408301526080606083015261555960808301848661545f565b979650505050505050565b6000821982111561557757615577615377565b500190565b600081518084526020808501945080840160005b838110156155ac57815187529582019590820190600101615590565b509495945050505050565b6060815260006155ca606083018661557c565b60208301949094525060400152919050565b6000828210156155ee576155ee615377565b500390565b848152836020820152826040820152608060608201526000610df2608083018461557c565b60006020828403121561562a57600080fd5b8135614bb0816154de565b600064ffffffffff80831681851680830382111561565557615655615377565b01949350505050565b80516154f781614b6e565b805164ffffffffff811681146154f757600080fd5b80516154f78161505f565b600061010080838503121561569d57600080fd5b6040519081019067ffffffffffffffff821181831017156156c0576156c0614efb565b81604052835191506156d182614b6e565b8181526156e060208501615669565b60208201526156f160408501615669565b60408201526157026060850161567e565b60608201526157136080850161567e565b608082015261572460a08501615669565b60a082015261573560c085016154ec565b60c082015260e084015160e0820152809250505092915050565b805167ffffffffffffffff811681146154f757600080fd5b6000610160828403121561577a57600080fd5b615782614f2a565b61578b836154ec565b81526157996020840161565e565b60208201526157aa60408401615669565b60408201526157bb6060840161567e565b60608201526157cc6080840161574f565b60808201526157dd60a0840161574f565b60a08201526157ee60c0840161565e565b60c08201526157ff60e08401615669565b60e082015261010061581281850161567e565b908201526101206158248482016154ec565b908201526101406158368482016154ec565b908201529392505050565b600081600f0b83600f0b6f7fffffffffffffffffffffffffffffff60008213600084138383048511828216161561587a5761587a615377565b7fffffffffffffffffffffffffffffffff8000000000000000000000000000000060008512868205861281841616156158b5576158b5615377565b600087129250858205871284841616156158d1576158d1615377565b858505871281841616156158e7576158e7615377565b5050509290910295945050505050565b600081600f0b83600f0b60008212826f7fffffffffffffffffffffffffffffff0382138115161561592a5761592a615377565b827fffffffffffffffffffffffffffffffff8000000000000000000000000000000003821281161561595e5761595e615377565b50019392505050565b600081600f0b83600f0b60008112817fffffffffffffffffffffffffffffffff80000000000000000000000000000000018312811516156159aa576159aa615377565b816f7fffffffffffffffffffffffffffffff0183138116156159ce576159ce615377565b5090039392505050565b600181815b80851115615a3157817fffffffffffffffffffffffffffffffffffffffffffffffffffffffffffffffff04821115615a1757615a17615377565b80851615615a2457918102915b93841c93908002906159dd565b509250929050565b80825b6001808611615a4b5750615a86565b816f7fffffffffffffffffffffffffffffff04821115615a6d57615a6d615377565b80861615615a7a57918102915b9490941c938002615a3c565b935093915050565b6000828015615aa45760018114615aae57615ab7565b60019150506108bd565b829150506108bd565b5081615ac5575060006108bd565b50600160008213808214615ade578015615b0557615b27565b826f7fffffffffffffffffffffffffffffff04831115615b0057615b00615377565b615b27565b826f7fffffffffffffffffffffffffffffff05831215615b2757615b27615377565b5080831615615b335750805b615b438360011c83840283615a39565b806f7fffffffffffffffffffffffffffffff048211600083131615615b6a57615b6a615377565b807fffffffffffffffffffffffffffffffff80000000000000000000000000000000058212600083121615615ba157615ba1615377565b029392505050565b6000614bb060ff841683600f0b615a8e565b600082615bca575060016108bd565b81615bd7575060006108bd565b8160018114615aa45760028114615bed57615c09565b60ff841115615bfe57615bfe615377565b50506001821b6108bd565b5060208310610133831016604e8410600b8410161715615c2c575081810a6108bd565b615c3683836159d8565b807fffffffffffffffffffffffffffffffffffffffffffffffffffffffffffffffff04821115615ba157615ba1615377565b6000614bb060ff841683615bbb565b600061ffff80831681851681830481118215151615615c9857615c98615377565b02949350505050565b600061ffff80831681851680830382111561565557615655615377565b60008160000b8360000b60008112817fffffffffffffffffffffffffffffffffffffffffffffffffffffffffffffff8001831281151615615d0157615d01615377565b81607f0183138116156159ce576159ce615377565b600060ff821660ff84168160ff0481118215151615615ba157615ba1615377565b600060ff821660ff84168060ff03821115615d5457615d54615377565b019392505050565b600060ff831680615d6f57615d6f615348565b8060ff84160491505092915050565b600060ff831680615d9157615d91615348565b8060ff84160691505092915050565b600082615daf57615daf615348565b50069056fea2646970667358221220b63fe3357c51ae03e4a59563d4bbe519efcaba44857afebfcda7f26ad427c3d564736f6c63430008090033",
  "devdoc": {
    "kind": "dev",
    "methods": {
      "allowance(address,address)": {
        "details": "Returns the remaining number of tokens that `spender` will be allowed to spend on behalf of `owner` through {transferFrom}. This is zero by default. This value changes when {approve} or {transferFrom} are called."
      },
      "approve(address,uint256)": {
        "details": "Sets `amount` as the allowance of `spender` over the caller's tokens. Returns a boolean value indicating whether the operation succeeded. IMPORTANT: Beware that changing an allowance with this method brings the risk that someone may use both the old and the new allowance by unfortunate transaction ordering. One possible solution to mitigate this race condition is to first reduce the spender's allowance to 0 and set the desired value afterwards: https://github.com/ethereum/EIPs/issues/20#issuecomment-263524729 Emits an {Approval} event."
      },
      "totalSupply()": {
        "details": "Returns the amount of tokens in existence."
      }
    },
    "version": 1
  },
  "userdoc": {
    "kind": "user",
    "methods": {},
    "version": 1
  },
  "storageLayout": {
    "storage": [
      {
        "astId": 11042,
        "contract": "src/yakuza/Yakuza.sol:Yakuza",
        "label": "_totalSupply",
        "offset": 0,
        "slot": "0",
        "type": "t_uint256"
      },
      {
        "astId": 11046,
        "contract": "src/yakuza/Yakuza.sol:Yakuza",
        "label": "_balances",
        "offset": 0,
        "slot": "1",
        "type": "t_mapping(t_address,t_uint256)"
      },
      {
        "astId": 11052,
        "contract": "src/yakuza/Yakuza.sol:Yakuza",
        "label": "_allowances",
        "offset": 0,
        "slot": "2",
        "type": "t_mapping(t_address,t_mapping(t_address,t_uint256))"
      },
      {
        "astId": 11876,
        "contract": "src/yakuza/Yakuza.sol:Yakuza",
        "label": "_nonces",
        "offset": 0,
        "slot": "3",
        "type": "t_mapping(t_address,t_uint256)"
      },
      {
        "astId": 21388,
        "contract": "src/yakuza/Yakuza.sol:Yakuza",
        "label": "rewardReceiver",
        "offset": 0,
        "slot": "4",
        "type": "t_address"
      },
      {
        "astId": 21391,
        "contract": "src/yakuza/Yakuza.sol:Yakuza",
        "label": "generator",
        "offset": 0,
        "slot": "5",
        "type": "t_contract(RewardsGenerator)13708"
      },
      {
        "astId": 21401,
        "contract": "src/yakuza/Yakuza.sol:Yakuza",
        "label": "subscriptions",
        "offset": 0,
        "slot": "6",
        "type": "t_mapping(t_address,t_struct(Subscription)21396_storage)"
      },
      {
        "astId": 21411,
        "contract": "src/yakuza/Yakuza.sol:Yakuza",
        "label": "claims",
        "offset": 0,
        "slot": "7",
        "type": "t_mapping(t_uint256,t_struct(Claim)21406_storage)"
      },
      {
        "astId": 21423,
        "contract": "src/yakuza/Yakuza.sol:Yakuza",
        "label": "myPlanets",
        "offset": 0,
        "slot": "8",
        "type": "t_mapping(t_uint256,t_struct(MyPlanet)21418_storage)"
      }
    ],
    "types": {
      "t_address": {
        "encoding": "inplace",
        "label": "address",
        "numberOfBytes": "20"
      },
      "t_bool": {
        "encoding": "inplace",
        "label": "bool",
        "numberOfBytes": "1"
      },
      "t_contract(RewardsGenerator)13708": {
        "encoding": "inplace",
        "label": "contract RewardsGenerator",
        "numberOfBytes": "20"
      },
      "t_mapping(t_address,t_mapping(t_address,t_uint256))": {
        "encoding": "mapping",
        "key": "t_address",
        "label": "mapping(address => mapping(address => uint256))",
        "numberOfBytes": "32",
        "value": "t_mapping(t_address,t_uint256)"
      },
      "t_mapping(t_address,t_struct(Subscription)21396_storage)": {
        "encoding": "mapping",
        "key": "t_address",
        "label": "mapping(address => struct Yakuza.Subscription)",
        "numberOfBytes": "32",
        "value": "t_struct(Subscription)21396_storage"
      },
      "t_mapping(t_address,t_uint256)": {
        "encoding": "mapping",
        "key": "t_address",
        "label": "mapping(address => uint256)",
        "numberOfBytes": "32",
        "value": "t_uint256"
      },
      "t_mapping(t_uint256,t_struct(Claim)21406_storage)": {
        "encoding": "mapping",
        "key": "t_uint256",
        "label": "mapping(uint256 => struct Yakuza.Claim)",
        "numberOfBytes": "32",
        "value": "t_struct(Claim)21406_storage"
      },
      "t_mapping(t_uint256,t_struct(MyPlanet)21418_storage)": {
        "encoding": "mapping",
        "key": "t_uint256",
        "label": "mapping(uint256 => struct Yakuza.MyPlanet)",
        "numberOfBytes": "32",
        "value": "t_struct(MyPlanet)21418_storage"
      },
      "t_struct(Claim)21406_storage": {
        "encoding": "inplace",
        "label": "struct Yakuza.Claim",
        "members": [
          {
            "astId": 21403,
            "contract": "src/yakuza/Yakuza.sol:Yakuza",
            "label": "claimed",
            "offset": 0,
            "slot": "0",
            "type": "t_bool"
          },
          {
            "astId": 21405,
            "contract": "src/yakuza/Yakuza.sol:Yakuza",
            "label": "amountLeft",
            "offset": 1,
            "slot": "0",
            "type": "t_uint248"
          }
        ],
        "numberOfBytes": "32"
      },
      "t_struct(MyPlanet)21418_storage": {
        "encoding": "inplace",
        "label": "struct Yakuza.MyPlanet",
        "members": [
          {
            "astId": 21413,
            "contract": "src/yakuza/Yakuza.sol:Yakuza",
            "label": "mine",
            "offset": 0,
            "slot": "0",
            "type": "t_bool"
          },
          {
            "astId": 21415,
            "contract": "src/yakuza/Yakuza.sol:Yakuza",
            "label": "lastAttackTime",
            "offset": 1,
            "slot": "0",
            "type": "t_uint40"
          },
          {
            "astId": 21417,
            "contract": "src/yakuza/Yakuza.sol:Yakuza",
            "label": "lockTime",
            "offset": 6,
            "slot": "0",
            "type": "t_uint40"
          }
        ],
        "numberOfBytes": "32"
      },
      "t_struct(Subscription)21396_storage": {
        "encoding": "inplace",
        "label": "struct Yakuza.Subscription",
        "members": [
          {
            "astId": 21393,
            "contract": "src/yakuza/Yakuza.sol:Yakuza",
            "label": "startTime",
            "offset": 0,
            "slot": "0",
            "type": "t_uint256"
          },
          {
            "astId": 21395,
            "contract": "src/yakuza/Yakuza.sol:Yakuza",
            "label": "endTime",
            "offset": 0,
            "slot": "1",
            "type": "t_uint256"
          }
        ],
        "numberOfBytes": "64"
      },
      "t_uint248": {
        "encoding": "inplace",
        "label": "uint248",
        "numberOfBytes": "31"
      },
      "t_uint256": {
        "encoding": "inplace",
        "label": "uint256",
        "numberOfBytes": "32"
      },
      "t_uint40": {
        "encoding": "inplace",
        "label": "uint40",
        "numberOfBytes": "5"
      }
    }
  }
}