{
  "address": "0x8B8A1A6b88095ACCff5c5A8b68e99604D155CE58",
  "abi": [
    {
      "inputs": [
        {
          "internalType": "address",
          "name": "initialOwner",
          "type": "address"
        },
        {
          "internalType": "contract RewardsGenerator",
          "name": "initialGenerator",
          "type": "address"
        }
      ],
      "stateMutability": "nonpayable",
      "type": "constructor"
    },
    {
      "anonymous": false,
      "inputs": [
        {
          "indexed": true,
          "internalType": "address",
          "name": "previousOwner",
          "type": "address"
        },
        {
          "indexed": true,
          "internalType": "address",
          "name": "newOwner",
          "type": "address"
        }
      ],
      "name": "OwnershipTransferred",
      "type": "event"
    },
    {
      "inputs": [
        {
          "internalType": "contract RewardsGenerator",
          "name": "newGenerator",
          "type": "address"
        }
      ],
      "name": "changegGenerator",
      "outputs": [],
      "stateMutability": "nonpayable",
      "type": "function"
    },
    {
      "inputs": [
        {
          "internalType": "address",
          "name": "to",
          "type": "address"
        }
      ],
      "name": "claim",
      "outputs": [],
      "stateMutability": "nonpayable",
      "type": "function"
    },
    {
      "inputs": [
        {
          "internalType": "address",
          "name": "to",
          "type": "address"
        }
      ],
      "name": "claimFixedRewards",
      "outputs": [],
      "stateMutability": "nonpayable",
      "type": "function"
    },
    {
      "inputs": [
        {
          "internalType": "address",
          "name": "to",
          "type": "address"
        }
      ],
      "name": "claimSharedPoolRewards",
      "outputs": [],
      "stateMutability": "nonpayable",
      "type": "function"
    },
    {
      "inputs": [],
      "name": "generator",
      "outputs": [
        {
          "internalType": "contract RewardsGenerator",
          "name": "",
          "type": "address"
        }
      ],
      "stateMutability": "view",
      "type": "function"
    },
    {
      "inputs": [],
      "name": "owner",
      "outputs": [
        {
          "internalType": "address",
          "name": "",
          "type": "address"
        }
      ],
      "stateMutability": "view",
      "type": "function"
    },
    {
      "inputs": [
        {
          "internalType": "bytes4",
          "name": "interfaceID",
          "type": "bytes4"
        }
      ],
      "name": "supportsInterface",
      "outputs": [
        {
          "internalType": "bool",
          "name": "",
          "type": "bool"
        }
      ],
      "stateMutability": "pure",
      "type": "function"
    },
    {
      "inputs": [
        {
          "internalType": "address",
          "name": "newOwner",
          "type": "address"
        }
      ],
      "name": "transferOwnership",
      "outputs": [],
      "stateMutability": "nonpayable",
      "type": "function"
    }
  ],
  "transactionHash": "0x7518d3a61954fd2d808b38f1092a4369daa7843c0446ef47ca5d07d2aff6363c",
  "args": [
    "0x2aE1389b686404959Eb61205c78e1103b85F157f",
    "0x7B0bF316e96431b5f30d2DF37db854B04929FE46"
  ],
  "numDeployments": 1,
  "solcInputHash": "af21df80883fa8437198488cd32852da",
  "bytecode": "0x608060405234801561001057600080fd5b5060405161089138038061089183398101604081905261002f916100d3565b8161003981610060565b50600180546001600160a01b0319166001600160a01b03929092169190911790555061010d565b600080546040516001600160a01b03808516939216917f8be0079c531659141344cd1fd0a4f28419497f9722a3daafe3b4186f6b6457e091a3600080546001600160a01b0319166001600160a01b0392909216919091179055565b6001600160a01b03811681146100d057600080fd5b50565b600080604083850312156100e657600080fd5b82516100f1816100bb565b6020840151909250610102816100bb565b809150509250929050565b6107758061011c6000396000f3fe608060405234801561001057600080fd5b50600436106100885760003560e01c80637afa1eed1161005b5780637afa1eed146100f05780638da5cb5b14610135578063f2fde38b14610155578063ff1e03e91461016857600080fd5b806301ffc9a71461008d578063066112f9146100b55780631da51124146100ca5780631e83409a146100dd575b600080fd5b6100a061009b3660046106b7565b61017b565b60405190151581526020015b60405180910390f35b6100c86100c3366004610722565b610214565b005b6100c86100d8366004610722565b610323565b6100c86100eb366004610722565b6103eb565b6001546101109073ffffffffffffffffffffffffffffffffffffffff1681565b60405173ffffffffffffffffffffffffffffffffffffffff90911681526020016100ac565b6000546101109073ffffffffffffffffffffffffffffffffffffffff1681565b6100c8610163366004610722565b6104c4565b6100c8610176366004610722565b610551565b60007f7f5828d0000000000000000000000000000000000000000000000000000000007fffffffff000000000000000000000000000000000000000000000000000000008316148061020e57507f01ffc9a7000000000000000000000000000000000000000000000000000000007fffffffff000000000000000000000000000000000000000000000000000000008316145b92915050565b60005473ffffffffffffffffffffffffffffffffffffffff16331461029a576040517f08c379a000000000000000000000000000000000000000000000000000000000815260206004820152600e60248201527f4e4f545f415554484f52495a454400000000000000000000000000000000000060448201526064015b60405180910390fd5b6001546040517f066112f900000000000000000000000000000000000000000000000000000000815273ffffffffffffffffffffffffffffffffffffffff83811660048301529091169063066112f9906024015b600060405180830381600087803b15801561030857600080fd5b505af115801561031c573d6000803e3d6000fd5b5050505050565b60005473ffffffffffffffffffffffffffffffffffffffff1633146103a4576040517f08c379a000000000000000000000000000000000000000000000000000000000815260206004820152600e60248201527f4e4f545f415554484f52495a45440000000000000000000000000000000000006044820152606401610291565b600180547fffffffffffffffffffffffff00000000000000000000000000000000000000001673ffffffffffffffffffffffffffffffffffffffff92909216919091179055565b60005473ffffffffffffffffffffffffffffffffffffffff16331461046c576040517f08c379a000000000000000000000000000000000000000000000000000000000815260206004820152600e60248201527f4e4f545f415554484f52495a45440000000000000000000000000000000000006044820152606401610291565b6001546040517f1e83409a00000000000000000000000000000000000000000000000000000000815273ffffffffffffffffffffffffffffffffffffffff838116600483015290911690631e83409a906024016102ee565b60005473ffffffffffffffffffffffffffffffffffffffff163314610545576040517f08c379a000000000000000000000000000000000000000000000000000000000815260206004820152600e60248201527f4e4f545f415554484f52495a45440000000000000000000000000000000000006044820152606401610291565b61054e8161062a565b50565b60005473ffffffffffffffffffffffffffffffffffffffff1633146105d2576040517f08c379a000000000000000000000000000000000000000000000000000000000815260206004820152600e60248201527f4e4f545f415554484f52495a45440000000000000000000000000000000000006044820152606401610291565b6001546040517fff1e03e900000000000000000000000000000000000000000000000000000000815273ffffffffffffffffffffffffffffffffffffffff83811660048301529091169063ff1e03e9906024016102ee565b6000805460405173ffffffffffffffffffffffffffffffffffffffff808516939216917f8be0079c531659141344cd1fd0a4f28419497f9722a3daafe3b4186f6b6457e091a3600080547fffffffffffffffffffffffff00000000000000000000000000000000000000001673ffffffffffffffffffffffffffffffffffffffff92909216919091179055565b6000602082840312156106c957600080fd5b81357fffffffff00000000000000000000000000000000000000000000000000000000811681146106f957600080fd5b9392505050565b73ffffffffffffffffffffffffffffffffffffffff8116811461054e57600080fd5b60006020828403121561073457600080fd5b81356106f98161070056fea264697066735822122094966ed3cd0c001f0b0b0695f76bfb5bb4f0c92e7ae2cf607841b758f07312b264736f6c63430008090033",
  "devdoc": {
    "kind": "dev",
    "methods": {},
    "version": 1
  },
  "userdoc": {
    "kind": "user",
    "methods": {},
    "version": 1
  },
  "storageLayout": {
    "storage": [
      {
        "astId": 14408,
        "contract": "src/etherplay/BrainLess.sol:BrainLess",
        "label": "owner",
        "offset": 0,
        "slot": "0",
        "type": "t_address"
      },
      {
        "astId": 17246,
        "contract": "src/etherplay/BrainLess.sol:BrainLess",
        "label": "generator",
        "offset": 0,
        "slot": "1",
        "type": "t_contract(RewardsGenerator)16928"
      }
    ],
    "types": {
      "t_address": {
        "encoding": "inplace",
        "label": "address",
        "numberOfBytes": "20"
      },
      "t_contract(RewardsGenerator)16928": {
        "encoding": "inplace",
        "label": "contract RewardsGenerator",
        "numberOfBytes": "20"
      }
    }
  }
}