{
  "address": "0x2C4180ac22AC4e1A505a9D80F10321039a33CD73",
  "abi": [
    {
      "inputs": [
        {
          "components": [
            {
              "internalType": "contract IERC20",
              "name": "stakingToken",
              "type": "address"
            },
            {
              "internalType": "contract IFreePlayToken",
              "name": "freeStakingToken",
              "type": "address"
            },
            {
              "internalType": "contract AllianceRegistry",
              "name": "allianceRegistry",
              "type": "address"
            },
            {
              "internalType": "bytes32",
              "name": "genesis",
              "type": "bytes32"
            },
            {
              "internalType": "uint256",
              "name": "resolveWindow",
              "type": "uint256"
            },
            {
              "internalType": "uint256",
              "name": "timePerDistance",
              "type": "uint256"
            },
            {
              "internalType": "uint256",
              "name": "exitDuration",
              "type": "uint256"
            },
            {
              "internalType": "uint32",
              "name": "acquireNumSpaceships",
              "type": "uint32"
            },
            {
              "internalType": "uint32",
              "name": "productionSpeedUp",
              "type": "uint32"
            },
            {
              "internalType": "uint256",
              "name": "frontrunningDelay",
              "type": "uint256"
            },
            {
              "internalType": "uint256",
              "name": "productionCapAsDuration",
              "type": "uint256"
            },
            {
              "internalType": "uint256",
              "name": "upkeepProductionDecreaseRatePer10000th",
              "type": "uint256"
            },
            {
              "internalType": "uint256",
              "name": "fleetSizeFactor6",
              "type": "uint256"
            },
            {
              "internalType": "uint32",
              "name": "expansionDelta",
              "type": "uint32"
            },
            {
              "internalType": "uint256",
              "name": "giftTaxPer10000",
              "type": "uint256"
            },
            {
              "internalType": "bytes32",
              "name": "stakeRange",
              "type": "bytes32"
            },
            {
              "internalType": "uint256",
              "name": "stakeMultiplier10000th",
              "type": "uint256"
            }
          ],
          "internalType": "struct OuterSpaceFacetBase.Config",
          "name": "config",
          "type": "tuple"
        }
      ],
      "stateMutability": "nonpayable",
      "type": "constructor"
    },
    {
      "anonymous": false,
      "inputs": [
        {
          "indexed": true,
          "internalType": "address",
          "name": "owner",
          "type": "address"
        },
        {
          "indexed": true,
          "internalType": "address",
          "name": "operator",
          "type": "address"
        },
        {
          "indexed": false,
          "internalType": "bool",
          "name": "approved",
          "type": "bool"
        }
      ],
      "name": "ApprovalForAll",
      "type": "event"
    },
    {
      "anonymous": false,
      "inputs": [
        {
          "indexed": false,
          "internalType": "uint256",
          "name": "block",
          "type": "uint256"
        },
        {
          "indexed": false,
          "internalType": "uint256",
          "name": "timestamp",
          "type": "uint256"
        }
      ],
      "name": "BlockTime",
      "type": "event"
    },
    {
      "anonymous": false,
      "inputs": [
        {
          "indexed": true,
          "internalType": "address",
          "name": "owner",
          "type": "address"
        },
        {
          "indexed": true,
          "internalType": "uint256",
          "name": "location",
          "type": "uint256"
        },
        {
          "indexed": false,
          "internalType": "uint256",
          "name": "stake",
          "type": "uint256"
        }
      ],
      "name": "ExitComplete",
      "type": "event"
    },
    {
      "anonymous": false,
      "inputs": [
        {
          "indexed": true,
          "internalType": "uint256",
          "name": "fleet",
          "type": "uint256"
        },
        {
          "indexed": true,
          "internalType": "address",
          "name": "fleetOwner",
          "type": "address"
        },
        {
          "indexed": true,
          "internalType": "address",
          "name": "destinationOwner",
          "type": "address"
        },
        {
          "indexed": false,
          "internalType": "uint256",
          "name": "destination",
          "type": "uint256"
        },
        {
          "indexed": false,
          "internalType": "bool",
          "name": "gift",
          "type": "bool"
        },
        {
          "indexed": false,
          "internalType": "bool",
          "name": "won",
          "type": "bool"
        },
        {
          "components": [
            {
              "internalType": "uint32",
              "name": "newNumspaceships",
              "type": "uint32"
            },
            {
              "internalType": "int40",
              "name": "newTravelingUpkeep",
              "type": "int40"
            },
            {
              "internalType": "uint32",
              "name": "newOverflow",
              "type": "uint32"
            },
            {
              "internalType": "uint32",
              "name": "numSpaceshipsAtArrival",
              "type": "uint32"
            },
            {
              "internalType": "uint32",
              "name": "taxLoss",
              "type": "uint32"
            },
            {
              "internalType": "uint32",
              "name": "fleetLoss",
              "type": "uint32"
            },
            {
              "internalType": "uint32",
              "name": "planetLoss",
              "type": "uint32"
            },
            {
              "internalType": "uint32",
              "name": "inFlightFleetLoss",
              "type": "uint32"
            },
            {
              "internalType": "uint32",
              "name": "inFlightPlanetLoss",
              "type": "uint32"
            },
            {
              "internalType": "uint32",
              "name": "accumulatedDefenseAdded",
              "type": "uint32"
            },
            {
              "internalType": "uint32",
              "name": "accumulatedAttackAdded",
              "type": "uint32"
            }
          ],
          "indexed": false,
          "internalType": "struct ImportingOuterSpaceEvents.ArrivalData",
          "name": "data",
          "type": "tuple"
        }
      ],
      "name": "FleetArrived",
      "type": "event"
    },
    {
      "anonymous": false,
      "inputs": [
        {
          "indexed": true,
          "internalType": "address",
          "name": "fleetSender",
          "type": "address"
        },
        {
          "indexed": true,
          "internalType": "address",
          "name": "fleetOwner",
          "type": "address"
        },
        {
          "indexed": true,
          "internalType": "uint256",
          "name": "from",
          "type": "uint256"
        },
        {
          "indexed": false,
          "internalType": "address",
          "name": "operator",
          "type": "address"
        },
        {
          "indexed": false,
          "internalType": "uint256",
          "name": "fleet",
          "type": "uint256"
        },
        {
          "indexed": false,
          "internalType": "uint32",
          "name": "quantity",
          "type": "uint32"
        },
        {
          "indexed": false,
          "internalType": "uint32",
          "name": "newNumSpaceships",
          "type": "uint32"
        },
        {
          "indexed": false,
          "internalType": "int40",
          "name": "newTravelingUpkeep",
          "type": "int40"
        },
        {
          "indexed": false,
          "internalType": "uint32",
          "name": "newOverflow",
          "type": "uint32"
        }
      ],
      "name": "FleetSent",
      "type": "event"
    },
    {
      "anonymous": false,
      "inputs": [
        {
          "indexed": false,
          "internalType": "address",
          "name": "newGeneratorAdmin",
          "type": "address"
        }
      ],
      "name": "GeneratorAdminChanged",
      "type": "event"
    },
    {
      "anonymous": false,
      "inputs": [
        {
          "indexed": false,
          "internalType": "address",
          "name": "newGenerator",
          "type": "address"
        }
      ],
      "name": "GeneratorChanged",
      "type": "event"
    },
    {
      "anonymous": false,
      "inputs": [
        {
          "indexed": false,
          "internalType": "bytes32",
          "name": "genesis",
          "type": "bytes32"
        },
        {
          "indexed": false,
          "internalType": "uint256",
          "name": "resolveWindow",
          "type": "uint256"
        },
        {
          "indexed": false,
          "internalType": "uint256",
          "name": "timePerDistance",
          "type": "uint256"
        },
        {
          "indexed": false,
          "internalType": "uint256",
          "name": "exitDuration",
          "type": "uint256"
        },
        {
          "indexed": false,
          "internalType": "uint32",
          "name": "acquireNumSpaceships",
          "type": "uint32"
        },
        {
          "indexed": false,
          "internalType": "uint32",
          "name": "productionSpeedUp",
          "type": "uint32"
        },
        {
          "indexed": false,
          "internalType": "uint256",
          "name": "frontrunningDelay",
          "type": "uint256"
        },
        {
          "indexed": false,
          "internalType": "uint256",
          "name": "productionCapAsDuration",
          "type": "uint256"
        },
        {
          "indexed": false,
          "internalType": "uint256",
          "name": "upkeepProductionDecreaseRatePer10000th",
          "type": "uint256"
        },
        {
          "indexed": false,
          "internalType": "uint256",
          "name": "fleetSizeFactor6",
          "type": "uint256"
        },
        {
          "indexed": false,
          "internalType": "uint32",
          "name": "initialSpaceExpansion",
          "type": "uint32"
        },
        {
          "indexed": false,
          "internalType": "uint32",
          "name": "expansionDelta",
          "type": "uint32"
        },
        {
          "indexed": false,
          "internalType": "uint256",
          "name": "giftTaxPer10000",
          "type": "uint256"
        }
      ],
      "name": "Initialized",
      "type": "event"
    },
    {
      "anonymous": false,
      "inputs": [
        {
          "indexed": true,
          "internalType": "address",
          "name": "owner",
          "type": "address"
        },
        {
          "indexed": true,
          "internalType": "uint256",
          "name": "location",
          "type": "uint256"
        }
      ],
      "name": "PlanetExit",
      "type": "event"
    },
    {
      "anonymous": false,
      "inputs": [
        {
          "indexed": true,
          "internalType": "uint256",
          "name": "location",
          "type": "uint256"
        }
      ],
      "name": "PlanetReset",
      "type": "event"
    },
    {
      "anonymous": false,
      "inputs": [
        {
          "indexed": true,
          "internalType": "address",
          "name": "acquirer",
          "type": "address"
        },
        {
          "indexed": true,
          "internalType": "uint256",
          "name": "location",
          "type": "uint256"
        },
        {
          "indexed": false,
          "internalType": "uint32",
          "name": "numSpaceships",
          "type": "uint32"
        },
        {
          "indexed": false,
          "internalType": "int40",
          "name": "travelingUpkeep",
          "type": "int40"
        },
        {
          "indexed": false,
          "internalType": "uint32",
          "name": "overflow",
          "type": "uint32"
        },
        {
          "indexed": false,
          "internalType": "uint256",
          "name": "stake",
          "type": "uint256"
        },
        {
          "indexed": false,
          "internalType": "bool",
          "name": "freegift",
          "type": "bool"
        }
      ],
      "name": "PlanetStake",
      "type": "event"
    },
    {
      "anonymous": false,
      "inputs": [
        {
          "indexed": true,
          "internalType": "address",
          "name": "previousOwner",
          "type": "address"
        },
        {
          "indexed": true,
          "internalType": "address",
          "name": "newOwner",
          "type": "address"
        },
        {
          "indexed": true,
          "internalType": "uint256",
          "name": "location",
          "type": "uint256"
        },
        {
          "indexed": false,
          "internalType": "uint32",
          "name": "newNumspaceships",
          "type": "uint32"
        },
        {
          "indexed": false,
          "internalType": "int40",
          "name": "newTravelingUpkeep",
          "type": "int40"
        },
        {
          "indexed": false,
          "internalType": "uint32",
          "name": "newOverflow",
          "type": "uint32"
        }
      ],
      "name": "PlanetTransfer",
      "type": "event"
    },
    {
      "anonymous": false,
      "inputs": [
        {
          "indexed": true,
          "internalType": "uint256",
          "name": "location",
          "type": "uint256"
        },
        {
          "indexed": true,
          "internalType": "address",
          "name": "giver",
          "type": "address"
        },
        {
          "indexed": false,
          "internalType": "uint256",
          "name": "rewardId",
          "type": "uint256"
        }
      ],
      "name": "RewardSetup",
      "type": "event"
    },
    {
      "anonymous": false,
      "inputs": [
        {
          "indexed": true,
          "internalType": "address",
          "name": "owner",
          "type": "address"
        },
        {
          "indexed": true,
          "internalType": "uint256",
          "name": "location",
          "type": "uint256"
        },
        {
          "indexed": true,
          "internalType": "uint256",
          "name": "rewardId",
          "type": "uint256"
        }
      ],
      "name": "RewardToWithdraw",
      "type": "event"
    },
    {
      "anonymous": false,
      "inputs": [
        {
          "indexed": true,
          "internalType": "address",
          "name": "owner",
          "type": "address"
        },
        {
          "indexed": false,
          "internalType": "uint256",
          "name": "newStake",
          "type": "uint256"
        },
        {
          "indexed": false,
          "internalType": "bool",
          "name": "freegift",
          "type": "bool"
        }
      ],
      "name": "StakeToWithdraw",
      "type": "event"
    },
    {
      "anonymous": false,
      "inputs": [
        {
          "indexed": true,
          "internalType": "address",
          "name": "from",
          "type": "address"
        },
        {
          "indexed": true,
          "internalType": "address",
          "name": "to",
          "type": "address"
        },
        {
          "indexed": true,
          "internalType": "uint256",
          "name": "location",
          "type": "uint256"
        }
      ],
      "name": "Transfer",
      "type": "event"
    },
    {
      "anonymous": false,
      "inputs": [
        {
          "indexed": true,
          "internalType": "uint256",
          "name": "origin",
          "type": "uint256"
        },
        {
          "indexed": true,
          "internalType": "uint256",
          "name": "fleet",
          "type": "uint256"
        },
        {
          "indexed": false,
          "internalType": "uint32",
          "name": "newNumspaceships",
          "type": "uint32"
        },
        {
          "indexed": false,
          "internalType": "int40",
          "name": "newTravelingUpkeep",
          "type": "int40"
        },
        {
          "indexed": false,
          "internalType": "uint32",
          "name": "newOverflow",
          "type": "uint32"
        }
      ],
      "name": "TravelingUpkeepRefund",
      "type": "event"
    },
    {
      "inputs": [
        {
          "internalType": "uint256",
          "name": "fleetId",
          "type": "uint256"
        },
        {
          "internalType": "uint256",
          "name": "from",
          "type": "uint256"
        }
      ],
      "name": "getFleet",
      "outputs": [
        {
          "internalType": "address",
          "name": "owner",
          "type": "address"
        },
        {
          "internalType": "uint40",
          "name": "launchTime",
          "type": "uint40"
        },
        {
          "internalType": "uint32",
          "name": "quantity",
          "type": "uint32"
        },
        {
          "internalType": "uint64",
          "name": "flyingAtLaunch",
          "type": "uint64"
        },
        {
          "internalType": "uint64",
          "name": "destroyedAtLaunch",
          "type": "uint64"
        }
      ],
      "stateMutability": "view",
      "type": "function"
    },
    {
      "inputs": [
        {
          "internalType": "uint256",
          "name": "fleetId",
          "type": "uint256"
        },
        {
          "components": [
            {
              "internalType": "uint256",
              "name": "from",
              "type": "uint256"
            },
            {
              "internalType": "uint256",
              "name": "to",
              "type": "uint256"
            },
            {
              "internalType": "uint256",
              "name": "distance",
              "type": "uint256"
            },
            {
              "internalType": "uint256",
              "name": "arrivalTimeWanted",
              "type": "uint256"
            },
            {
              "internalType": "bool",
              "name": "gift",
              "type": "bool"
            },
            {
              "internalType": "address",
              "name": "specific",
              "type": "address"
            },
            {
              "internalType": "bytes32",
              "name": "secret",
              "type": "bytes32"
            },
            {
              "internalType": "address",
              "name": "fleetSender",
              "type": "address"
            },
            {
              "internalType": "address",
              "name": "operator",
              "type": "address"
            }
          ],
          "internalType": "struct ImportingOuterSpaceTypes.FleetResolution",
          "name": "resolution",
          "type": "tuple"
        }
      ],
      "name": "resolveFleet",
      "outputs": [],
      "stateMutability": "nonpayable",
      "type": "function"
    },
    {
      "inputs": [
        {
          "internalType": "uint256",
          "name": "from",
          "type": "uint256"
        },
        {
          "internalType": "uint32",
          "name": "quantity",
          "type": "uint32"
        },
        {
          "internalType": "bytes32",
          "name": "toHash",
          "type": "bytes32"
        }
      ],
      "name": "send",
      "outputs": [],
      "stateMutability": "nonpayable",
      "type": "function"
    },
    {
      "inputs": [
        {
          "components": [
            {
              "internalType": "address",
              "name": "fleetSender",
              "type": "address"
            },
            {
              "internalType": "address",
              "name": "fleetOwner",
              "type": "address"
            },
            {
              "internalType": "uint256",
              "name": "from",
              "type": "uint256"
            },
            {
              "internalType": "uint32",
              "name": "quantity",
              "type": "uint32"
            },
            {
              "internalType": "bytes32",
              "name": "toHash",
              "type": "bytes32"
            }
          ],
          "internalType": "struct ImportingOuterSpaceTypes.FleetLaunch",
          "name": "launch",
          "type": "tuple"
        }
      ],
      "name": "sendFor",
      "outputs": [],
      "stateMutability": "nonpayable",
      "type": "function"
    }
  ],
  "transactionHash": "0x226e1015993410ce56fca584662740585a1203db5410ae44e3689d418e3fb4c7",
  "args": [
    {
      "stakingToken": "0x737465c2BFC74CE02C28Bee6f2617C393435Cad3",
      "freeStakingToken": "0x7f498C8d131Bb51484F65104c5Da28e096d414FC",
      "allianceRegistry": "0x0e89fA4Afe47a1FA6F789Db45450fbd9bB772afF",
      "genesis": "0xcce77b122615b6093c0df0c7392bec6f537eb7a0595c337a573ee6d96d1107c8",
      "resolveWindow": 43200,
      "timePerDistance": 7200,
      "exitDuration": 259200,
      "acquireNumSpaceships": 100000,
      "productionSpeedUp": 1,
      "frontrunningDelay": 1800,
      "productionCapAsDuration": 259200,
      "upkeepProductionDecreaseRatePer10000th": 5000,
      "fleetSizeFactor6": 500000,
      "initialSpaceExpansion": 12,
      "expansionDelta": 6,
      "giftTaxPer10000": 2000,
      "stakeRange": "0x00060008000A000C000E00100012001400140016001800200028003000380048",
      "stakeMultiplier10000th": 10
    }
  ],
  "numDeployments": 1,
  "linkedData": {
    "genesisHash": "0xcce77b122615b6093c0df0c7392bec6f537eb7a0595c337a573ee6d96d1107c8",
    "resolveWindow": 43200,
    "timePerDistance": 7200,
    "exitDuration": 259200,
    "acquireNumSpaceships": 100000,
    "productionSpeedUp": 1,
    "chainGenesisHash": "",
    "frontrunningDelay": 1800,
    "productionCapAsDuration": 259200,
    "upkeepProductionDecreaseRatePer10000th": 5000,
    "fleetSizeFactor6": 500000,
    "initialSpaceExpansion": 12,
    "expansionDelta": 6,
    "giftTaxPer10000": 2000,
    "stakeRange": "0x00060008000A000C000E00100012001400140016001800200028003000380048",
    "stakeMultiplier10000th": 10
  },
  "solcInputHash": "af21df80883fa8437198488cd32852da",
  "bytecode": "0x6102a06040523480156200001257600080fd5b50604051620064fe380380620064fe8339810160408190526200003591620001df565b80600060048260a001516200004b9190620002e9565b60a0830151909150620000608260046200031b565b63ffffffff1614620000b85760405162461bcd60e51b815260206004820152601d60248201527f54494d455f5045525f444953545f4e4f545f444956495349424c455f34000000604482015260640160405180910390fd5b81516001600160a01b0390811660809081526020840151821660a052604084015190911660c0908152606084015160e09081529184015161010090815263ffffffff93841661012090815291850151610140908152928501518416610160908152908501518416610180908152918501516101a0908152928501516101c0908152908501516101e0908152918501516102009081529285015190931661022052918301516102405290820151610260520151610280525062000356565b60405161022081016001600160401b0381118282101715620001a757634e487b7160e01b600052604160045260246000fd5b60405290565b80516001600160a01b0381168114620001c557600080fd5b919050565b805163ffffffff81168114620001c557600080fd5b60006102208284031215620001f357600080fd5b620001fd62000175565b6200020883620001ad565b81526200021860208401620001ad565b60208201526200022b60408401620001ad565b6040820152606083015160608201526080830151608082015260a083015160a082015260c083015160c08201526200026660e08401620001ca565b60e08201526101006200027b818501620001ca565b9082015261012083810151908201526101408084015190820152610160808401519082015261018080840151908201526101a0620002bb818501620001ca565b908201526101c083810151908201526101e08084015190820152610200928301519281019290925250919050565b600063ffffffff808416806200030f57634e487b7160e01b600052601260045260246000fd5b92169190910492915050565b600063ffffffff808316818516818304811182151516156200034d57634e487b7160e01b600052601160045260246000fd5b02949350505050565b60805160a05160c05160e05161010051610120516101405161016051610180516101a0516101c0516101e0516102005161022051610240516102605161028051615ffe620005006000396000612a3a01526000612a5b015260006120da01526000505060008181614985015281816149b801528181614a390152614a6c0152600081816112c60152818161141701526124fe0152600081816111750152818161159d01528181612d5501528181613d950152818161484c01528181614dfd01526150f60152600081816103f5015281816119cc01528181611fdd0152818161218101528181612230015281816122d70152614b080152600081816111290152818161121c015281816112f401528181611372015281816114c3015281816124b80152612df201526000612d9301526000612c7901526000611e2e01526000611f2101526000818161103b0152611c1c0152600081816133d1015281816135550152818161366f0152818161377f015281816138b6015281816139ae01528181613aab01528181613b8e01528181613c8501526142b501526000612e77015260005050615ffe6000f3fe608060405234801561001057600080fd5b506004361061004c5760003560e01c8063112e685114610051578063cf3ecf0714610066578063ee54339314610079578063f69438c3146100ea575b600080fd5b61006461005f3660046152a0565b6100fd565b005b6100646100743660046152d5565b6101d1565b61008c6100873660046152ed565b610381565b6040805173ffffffffffffffffffffffffffffffffffffffff909616865264ffffffffff909416602086015263ffffffff9092169284019290925267ffffffffffffffff918216606084015216608082015260a00160405180910390f35b6100646100f836600461530f565b610465565b6000336040805160208101859052908101869052606082811b7fffffffffffffffffffffffffffffffffffffffff0000000000000000000000001690820181905260748201529091506000906088016040516020818303038152906040528051906020012060001c90506101ca81836040518060a001604052808673ffffffffffffffffffffffffffffffffffffffff1681526020018673ffffffffffffffffffffffffffffffffffffffff1681526020018981526020018863ffffffff16815260200187815250610622565b5050505050565b336101df6020830183615397565b73ffffffffffffffffffffffffffffffffffffffff168173ffffffffffffffffffffffffffffffffffffffff16146102c757600360006102226020850185615397565b73ffffffffffffffffffffffffffffffffffffffff9081168252602080830193909352604091820160009081209185168152925290205460ff166102c7576040517f08c379a000000000000000000000000000000000000000000000000000000000815260206004820152601660248201527f4e4f545f415554484f52495a45445f544f5f53454e440000000000000000000060448201526064015b60405180910390fd5b6000608083013560408401356102e06020860186615397565b6040805160208101949094528301919091527fffffffffffffffffffffffffffffffffffffffff000000000000000000000000606091821b8116828401529084901b166074820152608801604080517fffffffffffffffffffffffffffffffffffffffffffffffffffffffffffffffe08184030181529190528051602090910120905061037c818361037736879003870187615405565b610622565b505050565b60008281526001602052604081205473ffffffffffffffffffffffffffffffffffffffff81169174010000000000000000000000000000000000000000820464ffffffffff1691790100000000000000000000000000000000000000000000000000900463ffffffff1690808061041960027f0000000000000000000000000000000000000000000000000000000000000000615511565b61042a9064ffffffffff8716615511565b6000978852600460209081526040808a20928a529190529096205494979396509194505063ffffffff80841693640100000000900416919050565b8160c0820135602083013561048060a0850160808601615535565b61049060c0860160a08701615397565b85606001356040516020016104ef959493929190948552602085019390935290151560f81b604084015260601b7fffffffffffffffffffffffffffffffffffffffff000000000000000000000000166041830152605582015260750190565b604080517fffffffffffffffffffffffffffffffffffffffffffffffffffffffffffffffe081840301815291905280516020909101208235610538610100850160e08601615397565b61054a61012086016101008701615397565b6040805160208101959095528401929092527fffffffffffffffffffffffffffffffffffffffff000000000000000000000000606091821b81168285015291901b1660748201526088016040516020818303038152906040528051906020012060001c14610614576040517f08c379a000000000000000000000000000000000000000000000000000000000815260206004820152601c60248201527f494e56414c49445f464c4545545f444154415f4f525f5345435245540000000060448201526064016102be565b61061e8282610b88565b5050565b604080820151600090815260208190529081206040805160e081018252825473ffffffffffffffffffffffffffffffffffffffff8116825264ffffffffff74010000000000000000000000000000000000000000820481166020840152790100000000000000000000000000000000000000000000000000909104811682840152600184015463ffffffff8082166060850152640100000000820490921660808401526901000000000000000000810460040b60a08401526e01000000000000000000000000000090041660c0820152908401519192506000916107069190610f2f565b90506340000000836060015163ffffffff161061077f576040517f08c379a000000000000000000000000000000000000000000000000000000000815260206004820152601360248201527f544f4f5f4d414e595f535041434553484950530000000000000000000000000060448201526064016102be565b8154790100000000000000000000000000000000000000000000000000900464ffffffffff161561080c576040517f08c379a000000000000000000000000000000000000000000000000000000000815260206004820152600b60248201527f504c414e45545f4558495400000000000000000000000000000000000000000060448201526064016102be565b8154835173ffffffffffffffffffffffffffffffffffffffff908116911614610891576040517f08c379a000000000000000000000000000000000000000000000000000000000815260206004820152600960248201527f4e4f545f4f574e4552000000000000000000000000000000000000000000000060448201526064016102be565b61089a81611097565b826060015163ffffffff16816060015163ffffffff161015610918576040517f08c379a000000000000000000000000000000000000000000000000000000000815260206004820152601560248201527f535041434553484950535f4e4f545f454e4f554748000000000000000000000060448201526064016102be565b610926818460600151611580565b610932828260006116a8565b610944836040015184606001516119c3565b6040518060800160405280846020015173ffffffffffffffffffffffffffffffffffffffff1681526020014264ffffffffff168152602001846060015163ffffffff16815260200182610160015162ffffff168152506001600087815260200190815260200160002060008201518160000160006101000a81548173ffffffffffffffffffffffffffffffffffffffff021916908373ffffffffffffffffffffffffffffffffffffffff16021790555060208201518160000160146101000a81548164ffffffffff021916908364ffffffffff16021790555060408201518160000160196101000a81548163ffffffff021916908363ffffffff160217905550606082015181600001601d6101000a81548162ffffff021916908362ffffff1602179055509050507f438e507c246c311193c77528e3de231eec8ce4727cce091a1dbbecf85b4278934342604051610aa6929190918252602082015260400190565b60405180910390a18260400151836020015173ffffffffffffffffffffffffffffffffffffffff16846000015173ffffffffffffffffffffffffffffffffffffffff167f22cbc8dd686d2b19557805c93c5d123703e520cb709b4c179c7b723dc621138287898860600151876060015188608001518960e00151604051610b799695949392919073ffffffffffffffffffffffffffffffffffffffff969096168652602086019490945263ffffffff9283166040860152908216606085015260040b60808401521660a082015260c00190565b60405180910390a45050505050565b60208181013560008181528083526040808220815160e081018352815473ffffffffffffffffffffffffffffffffffffffff8116825264ffffffffff7401000000000000000000000000000000000000000082048116978301979097527901000000000000000000000000000000000000000000000000009004861692810192909252600181015463ffffffff8082166060850152640100000000820490961660808401526901000000000000000000810460040b60a08401526e010000000000000000000000000000900490941660c08201529091610c689190610f2f565b600085815260016020526040812091925090610c85908535611aee565b6060810151815191925063ffffffff1615159073ffffffffffffffffffffffffffffffffffffffff16610ced576040518060400160405280601281526020017f464c4545545f444f5f4e4f545f45584953540000000000000000000000000000815250610d24565b6040518060400160405280601681526020017f464c4545545f5245534f4c5645445f414c5245414459000000000000000000008152505b90610d5c576040517f08c379a00000000000000000000000000000000000000000000000000000000081526004016102be919061557c565b50610d7f8460400135856000013586602001358460800151866101400151611c89565b610d9c846040013585606001358360200151846080015185611e1a565b610da582611097565b6101208201516060830151610dc883610dc3368990038901896155cd565b611fd4565b610de683610ddb368990038901896155cd565b8661012001516120a2565b610df083856120ca565b610dfa8385612157565b610e1283610e0d368990038901896155cd565b6122be565b610e1e87848835612375565b610e2e85858561012001516116a8565b610e38838561264d565b600087815260016020908152604090912080547fffffff00000000ffffffffffffffffffffffffffffffffffffffffffffffffff169055610e8c908890859085908a0135610e87838a886127e2565b612908565b83604001518015610e9f57508261012001515b15610f265760a084015164ffffffffff1615610eed57610ee8846101200151655af3107a4000610ed38761014001516129b1565b63ffffffff16610ee39190615660565b612ace565b610f26565b610f26846101000151856101200151655af3107a4000610f118861014001516129b1565b63ffffffff16610f219190615660565b612b84565b50505050505050565b6040805161018081018252600080825260208201819052918101829052606081018290526080810182905260a0810182905260c0810182905260e08101829052610100810182905261012081018290526101408101829052610160810191909152600080610fa08560600151612c42565b85855260808088015164ffffffffff908116602088015283151560408089019190915263ffffffff80851660608a015260a0808c015160040b948a0194909452908a01805183169389019390935291511660c0808801919091528801511660e0860152865173ffffffffffffffffffffffffffffffffffffffff908116610100870152875116610120860152909250905061108884604080517f00000000000000000000000000000000000000000000000000000000000000006020820152908101829052600090606001604051602081830303815290604052805190602001209050919050565b61014084015250909392505050565b60a081015164ffffffffff16156110e8576110b58160a00151612c61565b156110e857600060c082018190526060820181905260808201819052610120820181905260e08201819052604090910152565b6000816020015164ffffffffff1642611101919061569d565b90506000611113836101400151612cae565b90506000610e1061ffff831661114f63ffffffff7f00000000000000000000000000000000000000000000000000000000000000001686615660565b6111599190615660565b6111639190615511565b606085015190915063ffffffff1660007f0000000000000000000000000000000000000000000000000000000000000000156114995760006111a485612d4b565b9050600087604001516111b85760006111ba565b815b9050808411156112a05760e08801516107089063ffffffff161561120c57828960e0015163ffffffff166107086111f19190615660565b6111fb9190615511565b905061070881101561120c57506107085b6000610e108261124263ffffffff7f0000000000000000000000000000000000000000000000000000000000000000168c615660565b61124c9190615660565b6112569190615511565b905080611261575060015b61126b838761569d565b81111561127f5761127c838761569d565b90505b89604001511561128d578094505b611297818761569d565b95505050611402565b8760400151156114025760008590506000896080015160040b13156113c85760006127107f000000000000000000000000000000000000000000000000000000000000000061131961ffff8b1663ffffffff7f000000000000000000000000000000000000000000000000000000000000000016615660565b6113239190615660565b61132d9190615511565b60808b01516113459064ffffffffff16610e10615660565b61134f9190615511565b9050888110611360578194506113ba565b610e1061ffff891661139863ffffffff7f00000000000000000000000000000000000000000000000000000000000000001684615660565b6113a29190615660565b6113ac9190615511565b9450818511156113ba578194505b6113c4858361569d565b9150505b60006113d4868461569d565b9050808211156113f8576113e8818361569d565b6113f290866156b4565b94508091505b61129782876156b4565b8760400151156114925760008361271061143c7f000000000000000000000000000000000000000000000000000000000000000089615660565b6114469190615511565b61145091906156b4565b905060008160040b8a6080015160040b61146a91906156cc565b905061147583615740565b8112156114885761148583615740565b90505b60040b60808a0152505b5050611521565b8560400151156114b4576114ad83836156b4565b9150611521565b6000610e106114e963ffffffff7f00000000000000000000000000000000000000000000000000000000000000001688615660565b6114f590610708615660565b6114ff9190615511565b905082811115611512575060009161151f565b61151c818461569d565b92505b505b638000000082106115445761153b60016380000000615779565b63ffffffff1691505b63ffffffff82166060870152604086015115801561156a5750606086015163ffffffff16155b156115785760006101208701525b505050505050565b80826060018181516115929190615779565b63ffffffff169052507f00000000000000000000000000000000000000000000000000000000000000001561061e578160400151156116665760006115db836101400151612cae565b905060006115e882612d4b565b905080846060015163ffffffff161015611663576000846060015163ffffffff1682611614919061569d565b90508363ffffffff1681111561162d575063ffffffff83165b600081866080015160040b611642919061579e565b90508281131561164f5750815b60040b608086015262ffffff166101608501525b50505b8063ffffffff168260e0015163ffffffff16111561169d57808260e0018181516116909190615779565b63ffffffff169052505050565b600060e08301525050565b60008260a0015164ffffffffff161180156116cc575060c082015164ffffffffff16155b156116da576116da82612db8565b81610120015173ffffffffffffffffffffffffffffffffffffffff1682610100015173ffffffffffffffffffffffffffffffffffffffff161461183f5761012082015183547fffffffffffffffffffffffff00000000000000000000000000000000000000001673ffffffffffffffffffffffffffffffffffffffff9091169081178455156117ae5782547fffffffffffffff0000000000ffffffffffffffffffffffffffffffffffffffff16740100000000000000000000000000000000000000004264ffffffffff16021783556117d5565b82547fffffffffffffff0000000000ffffffffffffffffffffffffffffffffffffffff1683555b816000015182610120015173ffffffffffffffffffffffffffffffffffffffff1683610100015173ffffffffffffffffffffffffffffffffffffffff167fddf252ad1be2c89b69c2b068fc378daa952ba7f163c4a11628f55a4df523b3ef60405160405180910390a45b80156118705782547fffff0000000000ffffffffffffffffffffffffffffffffffffffffffffffffff1683556118e1565b8160a0015164ffffffffff168260c0015164ffffffffff16146118e15760c0820151835464ffffffffff909116790100000000000000000000000000000000000000000000000000027fffff0000000000ffffffffffffffffffffffffffffffffffffffffffffffffff9091161783555b6118f382604001518360600151613074565b60019093018054608084015160e0909401514264ffffffffff908116640100000000027fffffffffffffffffffffffffffffffffffffffffffffff0000000000ffffffff63ffffffff9384166e01000000000000000000000000000002167fffffffffffffffffffffffffffff00000000ffffffffff0000000000ffffffff929097166901000000000000000000027fffffffffffffffffffffffffffffffffffff0000000000ffffffffff00000000909416979092169690961791909117949094169290921792909217905550565b60006119f060027f0000000000000000000000000000000000000000000000000000000000000000615511565b6119fa9042615511565b600084815260046020908152604080832084845290915290205490915063ffffffff16611a278382615812565b90508263ffffffff168163ffffffff161015611a9f576040517f08c379a000000000000000000000000000000000000000000000000000000000815260206004820152600e60248201527f4f524249545f4f564552464c4f5700000000000000000000000000000000000060448201526064016102be565b6000938452600460209081526040808620938652929052922080547fffffffffffffffffffffffffffffffffffffffffffffffffffffffff000000001663ffffffff9093169290921790915550565b604080516102a08101825260006080820181905260a0820181905260c0820181905260e08201819052610100820181905261012082018190526101408201819052610160820181905261018082018190526101a082018190526101c082018190526101e08201819052610200820181905261022082018190526102408201819052610260820152835473ffffffffffffffffffffffffffffffffffffffff8116825274010000000000000000000000000000000000000000810464ffffffffff166020830152790100000000000000000000000000000000000000000000000000810463ffffffff1692820183905260608201929092527d01000000000000000000000000000000000000000000000000000000000090910462ffffff16610280820152611c6982604080517f00000000000000000000000000000000000000000000000000000000000000006020820152908101829052600090606001604051602081830303815290604052805190602001209050919050565b60808201819052611c799061309a565b61ffff1661026082015292915050565b600080611c9584613131565b91509150600080611ca585613131565b90925090506000600284820b611cc060808c901c600461583a565b611cca91906158f0565b600084900b611cde60808c901c600461583a565b611ce891906158f0565b611cf29190615960565b611cfc9190615b9a565b6002600087900b611d206fffffffffffffffffffffffffffffffff8d16600461583a565b611d2a91906158f0565b600086900b611d4c6fffffffffffffffffffffffffffffffff8d16600461583a565b611d5691906158f0565b611d609190615960565b611d6a9190615b9a565b611d7491906158f0565b600f0b905080611d8560028c615c59565b11158015611da857506002611d9b8b60016156b4565b611da59190615c59565b81105b611e0e576040517f08c379a000000000000000000000000000000000000000000000000000000000815260206004820152600e60248201527f77726f6e672064697374616e636500000000000000000000000000000000000060448201526064016102be565b50505050505050505050565b6000611e2583613165565b61ffff16611e557f0000000000000000000000000000000000000000000000000000000000000000612710615660565b611e5f9088615660565b611e699190615511565b611e7a9064ffffffffff86166156b4565b90506000611e8886836131fc565b90508515611ea35764ffffffffff8616610200840152611eb2565b64ffffffffff82166102008401525b80421015611f1c576040517f08c379a000000000000000000000000000000000000000000000000000000000815260206004820152600960248201527f746f6f206561726c79000000000000000000000000000000000000000000000060448201526064016102be565b611f467f0000000000000000000000000000000000000000000000000000000000000000826156b4565b4210610f26576040517f08c379a000000000000000000000000000000000000000000000000000000000815260206004820152602b60248201527f746f6f206c6174652c20796f7572207370616365736869707320617265206c6f60448201527f737420696e20737061636500000000000000000000000000000000000000000060648201526084016102be565b600061200160027f0000000000000000000000000000000000000000000000000000000000000000615511565b836020015164ffffffffff166120179190615511565b82516000908152600460209081526040808320848452909152902054606085015191925063ffffffff6401000000009091048116919081168210156120765781856060018181516120689190615779565b63ffffffff1690525061207e565b600060608601525b606085015161208d9082615779565b63ffffffff1660a09095019490945250505050565b6000806120b0838587613213565b90151560e087015215156101009095019490945250505050565b81610100015115612139576127107f0000000000000000000000000000000000000000000000000000000000000000836060015163ffffffff1661210e9190615660565b6121189190615511565b826060015163ffffffff1661212d919061569d565b63ffffffff1660608301525b8160e001511561214d5761061e8282613cdc565b61061e8282613e21565b60c082015163ffffffff161561061e57805160009081526004602052604081208160016121a560027f0000000000000000000000000000000000000000000000000000000000000000615511565b6121af9042615511565b6121b9919061569d565b81526020808201929092526040908101600090812061018087015181546101a089015163ffffffff908116640100000000027fffffffffffffffffffffffffffffffffffffffffffffffff0000000000000000909216921691909117178155855182526004909352908120919250908161225460027f0000000000000000000000000000000000000000000000000000000000000000615511565b61225e9042615511565b815260208101919091526040016000206101c085015181546101e087015163ffffffff908116640100000000027fffffffffffffffffffffffffffffffffffffffffffffffff000000000000000090921692169190911717905550505050565b60a082015163ffffffff161561061e5760006122fb60027f0000000000000000000000000000000000000000000000000000000000000000615511565b836020015164ffffffffff166123119190615511565b60a08401518351600090815260046020818152604080842086855290915290912080549394509192612352908490640100000000900463ffffffff16615779565b92506101000a81548163ffffffff021916908363ffffffff160217905550505050565b600081815260208181526040808320815160e081018352815473ffffffffffffffffffffffffffffffffffffffff8116825264ffffffffff7401000000000000000000000000000000000000000082048116958301959095527901000000000000000000000000000000000000000000000000009004841692810192909252600181015463ffffffff8082166060850152640100000000820490941660808401526901000000000000000000810460040b60a08401526e010000000000000000000000000000900490921660c08201529091906124529084610f2f565b905061245d81611097565b600061246d826101400151612cae565b9050600061247a82612d4b565b610280870151602088015191925062ffffff16906000906124a29064ffffffffff164261569d565b90506000610e1061ffff86166124de63ffffffff7f00000000000000000000000000000000000000000000000000000000000000001685615660565b6124e89190615660565b6124f29190615511565b905060006127106125237f000000000000000000000000000000000000000000000000000000000000000084615660565b61252d9190615511565b61253790836156b4565b90508381111561254a5760009350612557565b612554818561569d565b93505b600084886080015160040b61256c91906156cc565b905061257786615740565b81121561258a5761258786615740565b90505b600481900b60808901526125a0898960006116a8565b604080514381524260208201527f438e507c246c311193c77528e3de231eec8ce4727cce091a1dbbecf85b427893910160405180910390a18b8a7f2d45b84a4a4a5856647775e31f7c00f62fd79e6e9ba64426dad78c4c8e4bb7df8a606001518b608001518c60e001516040516126379392919063ffffffff938416815260049290920b6020830152909116604082015260600190565b60405180910390a3505050505050505050505050565b81610100015161061e5780516000908152600960209081526040808320855173ffffffffffffffffffffffffffffffffffffffff168452825280832061020086015164ffffffffff168452909152902061022083015160c08401516101608501516126b89190615812565b6126c29190615812565b815463ffffffff919091167801000000000000000000000000000000000000000000000000027fffffffff00000000ffffffffffffffffffffffffffffffffffffffffffffffff909116178155610120830151612720576000612726565b81606001515b83610240015184610140015161273c9190615812565b6127469190615812565b815461026085015161ffff167c0100000000000000000000000000000000000000000000000000000000027fffff0000ffffffffffffffffffffffffffffffffffffffffffffffffffffffff63ffffffff939093167401000000000000000000000000000000000000000002929092167fffff0000ffffffff00000000ffffffffffffffffffffffffffffffffffffffff909116171790555050565b6040805161016081018252600080825260208201819052918101829052606081018290526080810182905260a0810182905260c0810182905260e081018290526101008101829052610120810182905261014081019190915260608084015163ffffffff9081168352608085015160040b602084015260e08501518116604084015283169082015261010084015161287b57600061289e565b83606001518460a0015185604001516128949190615779565b61289e9190615779565b63ffffffff908116608083015261014080860151821660a080850191909152610160870151831660c08086019190915290870151831660e0850152860151821661010084015261022086015182166101208401526102409095015116938101939093525090919050565b604080514381524260208201527f438e507c246c311193c77528e3de231eec8ce4727cce091a1dbbecf85b427893910160405180910390a18273ffffffffffffffffffffffffffffffffffffffff16846000015173ffffffffffffffffffffffffffffffffffffffff16867fce4582dbaeda56557d7e73ae521699bff0c6e3a470f1f1089e8f977cac2083dd858860e0015189610120015187604051610b799493929190615c68565b60006129bc82613e70565b612a22576040517f08c379a000000000000000000000000000000000000000000000000000000000815260206004820152601160248201527f504c414e45545f4e4f545f45584953545300000000000000000000000000000060448201526064016102be565b6000612a2f83600c613e8c565b905060ff81166103e87f00000000000000000000000000000000000000000000000000000000000000007f0000000000000000000000000000000000000000000000000000000000000000612a85846002615d5d565b612a90906001615d87565b61ffff1660208110612aa457612aa4615da4565b612ab09291901a615660565b612aba9190615511565b612ac6906103e8615660565b949350505050565b61061e612af97f27ec6af4a6510eb9b7e0cc7f39415b7f15e430e53eb0cd3997e7c7e0cf680f6e5490565b6040805173ffffffffffffffffffffffffffffffffffffffff8616602482015260448082018690528251808303909101815260649091019091526020810180517bffffffffffffffffffffffffffffffffffffffffffffffffffffffff167ff5d82b6b0000000000000000000000000000000000000000000000000000000017905262017700613f30565b61037c612baf7f27ec6af4a6510eb9b7e0cc7f39415b7f15e430e53eb0cd3997e7c7e0cf680f6e5490565b6040805173ffffffffffffffffffffffffffffffffffffffff87811660248301528616604482015260648082018690528251808303909101815260849091019091526020810180517bffffffffffffffffffffffffffffffffffffffffffffffffffffffff167fbb35783b000000000000000000000000000000000000000000000000000000001790526202ee00613f30565b6380000000818116811490600090612c5a9084615dd3565b9050915091565b6000808264ffffffffff16118015612ca85750612ca57f000000000000000000000000000000000000000000000000000000000000000064ffffffffff84166156b4565b42115b92915050565b6000612cb982613e70565b612d1f576040517f08c379a000000000000000000000000000000000000000000000000000000000815260206004820152601160248201527f504c414e45545f4e4f545f45584953545300000000000000000000000000000060448201526064016102be565b612ca882600c7f0708083409600a8c0bb80ce40e100e100e100e101068151819c81e7823282ee061402d565b6000610e10612d7e7f000000000000000000000000000000000000000000000000000000000000000061ffff8516615660565b612d889190615511565b612ca89063ffffffff7f0000000000000000000000000000000000000000000000000000000000000000166156b4565b6000612dd382610100015183600001518461014001516140a7565b82516000908152600b6020526040902054909150801561303e57612e1a7f00000000000000000000000000000000000000000000000000000000000000006207e900615df6565b612e2a9063ffffffff16826156b4565b8360a0015164ffffffffff1610612f96576040517ff6b911bc00000000000000000000000000000000000000000000000000000000815230600482018190526024820152604481018390527f000000000000000000000000000000000000000000000000000000000000000073ffffffffffffffffffffffffffffffffffffffff169063f6b911bc90606401600060405180830381600087803b158015612ed057600080fd5b505af1158015612ee4573d6000803e3d6000fd5b5050505061010083015173ffffffffffffffffffffffffffffffffffffffff16600090815260026020526040812054612f1e9084906156b4565b6101008501805173ffffffffffffffffffffffffffffffffffffffff9081166000908152600260209081526040808320869055935184518681529182019290925293945016917f05eefb5f2a67125e8c65550a4ffa0f542f75624e866ef58fb72bfb547540309291015b60405180910390a250505050565b61010083015173ffffffffffffffffffffffffffffffffffffffff166000908152600a6020526040812054612fcc9084906156b4565b6101008501805173ffffffffffffffffffffffffffffffffffffffff9081166000908152600a6020908152604091829020859055925181518581526001948101949094529394509216917f05eefb5f2a67125e8c65550a4ffa0f542f75624e866ef58fb72bfb54754030929101612f88565b61010083015173ffffffffffffffffffffffffffffffffffffffff16600090815260026020526040812054612f1e9084906156b4565b60008183613083576000613089565b63800000005b6130939190615812565b9392505050565b60006130a582613e70565b61310b576040517f08c379a000000000000000000000000000000000000000000000000000000000815260206004820152601160248201527f504c414e45545f4e4f545f45584953545300000000000000000000000000000060448201526064016102be565b613116826014613e8c565b6131259060ff16610190615d5d565b612ca890610fa0615d87565b60008061314083826003614205565b61314b906001615e19565b915061315a8360026003614205565b612c5a906001615e19565b600061317082613e70565b6131d6576040517f08c379a000000000000000000000000000000000000000000000000000000000815260206004820152601160248201527f504c414e45545f4e4f545f45584953545300000000000000000000000000000060448201526064016102be565b6131e1826024613e8c565b6131f09060ff1661014d615d5d565b612ca89061138d615d87565b60008183101561320c5781613093565b5090919050565b60008073ffffffffffffffffffffffffffffffffffffffff851661325357600061324a84600001518660e00151866020015161421a565b91509150613cd4565b825173ffffffffffffffffffffffffffffffffffffffff86811691161480156132ab57508360e0015173ffffffffffffffffffffffffffffffffffffffff168573ffffffffffffffffffffffffffffffffffffffff16145b156132bc5750600190506000613cd4565b8360800151806132e55750825173ffffffffffffffffffffffffffffffffffffffff8681169116145b156139e45760a084015173ffffffffffffffffffffffffffffffffffffffff16158061334057508473ffffffffffffffffffffffffffffffffffffffff168460a0015173ffffffffffffffffffffffffffffffffffffffff16145b806133645750825173ffffffffffffffffffffffffffffffffffffffff8681169116145b1561348e5760e084015160208401516040517fdf2c0f4900000000000000000000000000000000000000000000000000000000815273ffffffffffffffffffffffffffffffffffffffff9283166004820152878316602482015264ffffffffff90911660448201526000917f0000000000000000000000000000000000000000000000000000000000000000169063df2c0f4990606401604080518083038186803b15801561341257600080fd5b505afa158015613426573d6000803e3d6000fd5b505050506040513d601f19601f8201168201806040525081019061344a9190615e8d565b9150506001816bffffffffffffffffffffffff16600014806134845750846020015164ffffffffff16826bffffffffffffffffffffffff16115b9250925050613cd4565b60a084015173ffffffffffffffffffffffffffffffffffffffff166001141561383e578360e0015173ffffffffffffffffffffffffffffffffffffffff16836000015173ffffffffffffffffffffffffffffffffffffffff16141561360a5760e084015160208401516040517fdf2c0f4900000000000000000000000000000000000000000000000000000000815273ffffffffffffffffffffffffffffffffffffffff9283166004820152878316602482015264ffffffffff90911660448201526000917f0000000000000000000000000000000000000000000000000000000000000000169063df2c0f49906064015b604080518083038186803b15801561359757600080fd5b505afa1580156135ab573d6000803e3d6000fd5b505050506040513d601f19601f820116820180604052508101906135cf9190615e8d565b9150506000816bffffffffffffffffffffffff1611846020015164ffffffffff16826bffffffffffffffffffffffff16119250925050613cd4565b825160208401516040517fdf2c0f4900000000000000000000000000000000000000000000000000000000815273ffffffffffffffffffffffffffffffffffffffff9283166004820152878316602482015264ffffffffff90911660448201526000917f0000000000000000000000000000000000000000000000000000000000000000169063df2c0f4990606401604080518083038186803b1580156136b057600080fd5b505afa1580156136c4573d6000803e3d6000fd5b505050506040513d601f19601f820116820180604052508101906136e89190615e8d565b9150506bffffffffffffffffffffffff811661371757600061348485600001518760e00151876020015161421a565b60e085015160208501516040517fdf2c0f4900000000000000000000000000000000000000000000000000000000815273ffffffffffffffffffffffffffffffffffffffff9283166004820152888316602482015264ffffffffff90911660448201526000917f0000000000000000000000000000000000000000000000000000000000000000169063df2c0f49906064015b604080518083038186803b1580156137c157600080fd5b505afa1580156137d5573d6000803e3d6000fd5b505050506040513d601f19601f820116820180604052508101906137f99190615e8d565b9150506001816bffffffffffffffffffffffff16600014806138335750856020015164ffffffffff16826bffffffffffffffffffffffff16115b935093505050613cd4565b60018460a0015173ffffffffffffffffffffffffffffffffffffffff1611156139df5760a08401516040517f4ed2986d00000000000000000000000000000000000000000000000000000000815273ffffffffffffffffffffffffffffffffffffffff878116600483015291821660248201526000917f00000000000000000000000000000000000000000000000000000000000000001690634ed2986d90604401604080518083038186803b1580156138f757600080fd5b505afa15801561390b573d6000803e3d6000fd5b505050506040513d601f19601f8201168201806040525081019061392f9190615ec2565b5090506bffffffffffffffffffffffff8116156139dd5760e085015160208501516040517fdf2c0f4900000000000000000000000000000000000000000000000000000000815273ffffffffffffffffffffffffffffffffffffffff9283166004820152888316602482015264ffffffffff90911660448201526000917f0000000000000000000000000000000000000000000000000000000000000000169063df2c0f49906064016137aa565b505b613cb6565b60a084015173ffffffffffffffffffffffffffffffffffffffff1660011415613ada578360e0015173ffffffffffffffffffffffffffffffffffffffff16836000015173ffffffffffffffffffffffffffffffffffffffff16141561360a5760e084015160208401516040517fdf2c0f4900000000000000000000000000000000000000000000000000000000815273ffffffffffffffffffffffffffffffffffffffff9283166004820152878316602482015264ffffffffff90911660448201526000917f0000000000000000000000000000000000000000000000000000000000000000169063df2c0f4990606401613580565b60018460a0015173ffffffffffffffffffffffffffffffffffffffff16118015613b3457508473ffffffffffffffffffffffffffffffffffffffff168460a0015173ffffffffffffffffffffffffffffffffffffffff1614155b15613cb65760a08401516040517f4ed2986d00000000000000000000000000000000000000000000000000000000815273ffffffffffffffffffffffffffffffffffffffff878116600483015291821660248201526000917f00000000000000000000000000000000000000000000000000000000000000001690634ed2986d90604401604080518083038186803b158015613bcf57600080fd5b505afa158015613be3573d6000803e3d6000fd5b505050506040513d601f19601f82011682018060405250810190613c079190615ec2565b5090506bffffffffffffffffffffffff8116613cb45760e085015160208501516040517fdf2c0f4900000000000000000000000000000000000000000000000000000000815273ffffffffffffffffffffffffffffffffffffffff9283166004820152888316602482015264ffffffffff90911660448201526000917f0000000000000000000000000000000000000000000000000000000000000000169063df2c0f49906064016137aa565b505b6000613ccf84600001518660e00151866020015161421a565b915091505b935093915050565b6000613ce8838361436b565b83606001518360600151613cfc9190615812565b63ffffffff16613d0c91906156b4565b905063800000008110613d3157613d2860016380000000615779565b63ffffffff1690505b63ffffffff811660608301526040820151613d77578160e0015163ffffffff16826060015163ffffffff16111561037c57606082015163ffffffff1660e0830152505050565b6000613d8f613d8a846101400151612cae565b612d4b565b905060007f0000000000000000000000000000000000000000000000000000000000000000118015613dc657508063ffffffff1682115b15613e13578260e0015163ffffffff16818460600151613de69190615779565b63ffffffff161115613e0e57808360600151613e029190615779565b63ffffffff1660e08401525b613e1b565b600060e08401525b50505050565b8060400151158015613e4d5750613e3c816101400151614464565b61ffff16816060015163ffffffff16105b15613e5c5761061e82826144fb565b613e6682826145e6565b61061e8282614786565b6000613e7f8260346010614205565b60ff166001149050919050565b600080613e9b84846040614205565b90506000613eaa600283615eee565b90506000613eb9600284615f10565b905060007f01223334444555555666666677777777888888889999999aaaaaabbbbcccddef60ff841660208110613ef257613ef2615da4565b1a905060ff8216613f105760048160ff16901c945050505050612ca8565b613f1b601082615f10565b945050505050612ca8565b5050505092915050565b73ffffffffffffffffffffffffffffffffffffffff83161561037c578273ffffffffffffffffffffffffffffffffffffffff168183604051613f729190615f32565b60006040518083038160008787f1925050503d8060008114613fb0576040519150601f19603f3d011682016040523d82523d6000602084013e613fb5565b606091505b505050603f81613fc59190615511565b5a1161037c576040517f08c379a000000000000000000000000000000000000000000000000000000000815260206004820152601d60248201527f4e4f545f454e4f5547485f4741535f464f525f494e4e45525f43414c4c00000060448201526064016102be565b60008061403a8585613e8c565b905082614048826002615f4e565b614053906001615f6f565b60ff166020811061406657614066615da4565b1a83614073836002615f4e565b60ff166020811061408657614086615da4565b61409491901a610100615d5d565b61409e9190615d87565b95945050505050565b6000655af3107a40006140b9836129b1565b63ffffffff166140c99190615660565b604080514381524260208201529192507f438e507c246c311193c77528e3de231eec8ce4727cce091a1dbbecf85b427893910160405180910390a1828473ffffffffffffffffffffffffffffffffffffffff167f1c363b29828a892b7cddafe9583ef52e0d5aca0ea7011bda6ccf039e1781f7388360405161414d91815260200190565b60405180910390a360008381526007602052604090205480156141fd5773ffffffffffffffffffffffffffffffffffffffff85166000818152600860209081526040808320858452825280832080547fffffffffffffffffffffffffffffffffffffffffffffffffffffffffffffff001660011790558783526007909152808220829055518392879290917f74f110a1e0cd4892234c7ba49df9f8a354cd8d29b272f7557c9b8c3c38a653369190a45b509392505050565b6000612ac660ff80841690851686901c615f94565b60008273ffffffffffffffffffffffffffffffffffffffff168473ffffffffffffffffffffffffffffffffffffffff16141561425857506000613093565b6040517fdf2c0f4900000000000000000000000000000000000000000000000000000000815273ffffffffffffffffffffffffffffffffffffffff8581166004830152848116602483015264ffffffffff841660448301526000917f00000000000000000000000000000000000000000000000000000000000000009091169063df2c0f4990606401604080518083038186803b1580156142f857600080fd5b505afa15801561430c573d6000803e3d6000fd5b505050506040513d601f19601f820116820180604052508101906143309190615e8d565b9150506bffffffffffffffffffffffff8116158061409e57508264ffffffffff16816bffffffffffffffffffffffff16119150509392505050565b600061437783836145e6565b61024083015163ffffffff1615612ca8576102608301516101408301516000906143a0906148e2565b9050600085610240015186606001516143b99190615812565b63ffffffff16905060006143e28288610220015163ffffffff168661ffff168661ffff1661495e565b5090508063ffffffff1687610240015163ffffffff161115613f26578087610240015161440f9190615779565b63ffffffff16945086610240015163ffffffff16851115614437576000610240880152613f26565b8487610240015163ffffffff1661444e919061569d565b63ffffffff166102408801525050505092915050565b600061446f82613e70565b6144d5576040517f08c379a000000000000000000000000000000000000000000000000000000000815260206004820152601160248201527f504c414e45545f4e4f545f45584953545300000000000000000000000000000060448201526064016102be565b6144e082602c613e8c565b6144ef9060ff16610bb8615d5d565b612ca890613a98615d87565b600061450a836080015161309a565b9050600061451c8361014001516148e2565b9050600061452e846101400151614464565b9050600080614555876060015163ffffffff168461ffff168761ffff168761ffff1661495e565b63ffffffff8083166101408b01529193509150811661ffff841614801561458b57508163ffffffff16876060015163ffffffff16115b15610f26578187606001516145a09190615779565b63ffffffff90811660608801528116610160880152600161012080890191909152875173ffffffffffffffffffffffffffffffffffffffff169087015250505050505050565b816101000151158015614610575061020082015161460690610a8c615fa8565b64ffffffffff1642105b1561061e5780516000908152600960209081526040808320855173ffffffffffffffffffffffffffffffffffffffff908116855290835281842061020087015164ffffffffff16855283529281902081516080810183529054938416815274010000000000000000000000000000000000000000840463ffffffff9081169382018490527801000000000000000000000000000000000000000000000000850416918101919091527c010000000000000000000000000000000000000000000000000000000090920461ffff1660608301521561037c57806020015163ffffffff16836060015163ffffffff1661470791906156b4565b816020015163ffffffff16826060015161ffff166147259190615660565b846060015163ffffffff1685610260015161ffff166147449190615660565b61474e91906156b4565b6147589190615511565b61ffff16610260840152602081015163ffffffff908116610240850152604082015116610220840152505050565b6147908282614aff565b6000826101c0015183610180015184610220015184606001516147b39190615812565b6147bd9190615812565b6147c79190615812565b63ffffffff16905060006147df836101400151612cae565b9050811580156147f957506000846060015163ffffffff16115b156148cc57835173ffffffffffffffffffffffffffffffffffffffff1661012084015260608085015163ffffffff1690840152604083015161484a57606083015163ffffffff1660e08401526148bf565b7f0000000000000000000000000000000000000000000000000000000000000000156148bf57600061487b82612d4b565b90508063ffffffff16846060015163ffffffff1611156148b5578084606001516148a59190615779565b63ffffffff1660e08501526148bd565b600060e08501525b505b6001610120850152613e1b565b6148d7848484614c74565b613e1b848483615210565b60006148ed82613e70565b614953576040517f08c379a000000000000000000000000000000000000000000000000000000000815260206004820152601160248201527f504c414e45545f4e4f545f45584953545300000000000000000000000000000060448201526064016102be565b61311682601c613e8c565b60008085158061496c575084155b1561497c57506000905080614af6565b6000856149a9887f0000000000000000000000000000000000000000000000000000000000000000615660565b6149b39190615511565b6149e07f0000000000000000000000000000000000000000000000000000000000000000620f424061569d565b6149ea91906156b4565b6149f49088615660565b90506000620f424085614a078885615660565b614a119190615511565b614a1b9190615511565b905080871115614a3057879350809250614af3565b600088614a5d897f0000000000000000000000000000000000000000000000000000000000000000615660565b614a679190615511565b614a947f0000000000000000000000000000000000000000000000000000000000000000620f424061569d565b614a9e91906156b4565b614aa89089615660565b90506000620f424088614abb8985615660565b614ac59190615511565b614acf9190615511565b63ffffffff169050898110614aec57614ae960018b61569d565b90505b9450879350505b50505b94509492505050565b6000614b2c60027f0000000000000000000000000000000000000000000000000000000000000000615511565b614b369042615511565b825160009081526004602052604081209192509081614b5660018561569d565b815260208101919091526040016000208054909150638000000063ffffffff90911611614b8a57805463ffffffff16614b90565b637fffffff5b63ffffffff9081166101808601528154638000000064010000000090910490911611614bcb578054640100000000900463ffffffff16614bd1565b637fffffff5b63ffffffff9081166101a0860152835160009081526004602090815260408083208684529091529020805490916380000000911611614c1757805463ffffffff16614c1d565b637fffffff5b63ffffffff9081166101c08701528154638000000064010000000090910490911611614c58578054640100000000900463ffffffff16614c5e565b637fffffff5b63ffffffff166101e09095019490945250505050565b610260830151610140830151600090614c8c906148e2565b905060008561024001518660600151614ca59190615812565b63ffffffff169050600080614cc483878761ffff168761ffff1661495e565b63ffffffff81166101608b01526102408a01519193509150614ce69083615779565b63ffffffff9081166101408a015260608901511615801590614d1257508588610160015163ffffffff16145b15614eb157600088610220015163ffffffff16886060015163ffffffff1688614d3b919061569d565b614d45919061569d565b90506380000000811115614d6b57614d6260016380000000615779565b63ffffffff1690505b63ffffffff811660c08a018190526101608a0151614d899190615779565b63ffffffff166101608a015261014089015160608a0151614daa9190615779565b63ffffffff1660608901526001610120808b0191909152895173ffffffffffffffffffffffffffffffffffffffff16908901526040880151614dfb57606088015163ffffffff1660e0890152614eab565b7f000000000000000000000000000000000000000000000000000000000000000015614eab576000614e31896101400151612cae565b90506000614e3e82612d4b565b90508063ffffffff168a6060015163ffffffff161115614ea0578960e0015163ffffffff16818b60600151614e739190615779565b63ffffffff161115614e9b57808a60600151614e8f9190615779565b63ffffffff1660e08b01525b614ea8565b600060e08b01525b50505b50615206565b876060015163ffffffff1688610140015163ffffffff1614156151a4578761022001518760600151614ee39190615812565b63ffffffff168163ffffffff16111561504a576102208801516060880151614f0b9083615779565b614f159190615779565b63ffffffff90811660c08a01908152600060608a0152516101808a0151908216911610614f81578760c001518861018001818151614f539190615779565b63ffffffff1690525060c08801516101a089018051614f73908390615812565b63ffffffff16905250615076565b876101800151886101a001818151614f999190615812565b63ffffffff1690525061018088015160c0890151600091614fb991615779565b90508063ffffffff16896101c0015163ffffffff16106150125780896101c001818151614fe69190615779565b63ffffffff169052506101e089018051829190615004908390615812565b63ffffffff1690525061503c565b886101c00151896101e00181815161502a9190615812565b63ffffffff1690525060006101c08a01525b506000610180890152615076565b8088610220015188606001516150609190615812565b61506a9190615779565b63ffffffff1660608801525b8761022001518860c001518961016001516150919190615779565b61509b9190615779565b63ffffffff1661016089015260408701516150f4578660e0015163ffffffff168163ffffffff1611156150d457600060e0880152615206565b808760e0018181516150e69190615779565b63ffffffff16905250615206565b7f00000000000000000000000000000000000000000000000000000000000000001561519f57600061512a886101400151612cae565b9050600061513782612d4b565b90508063ffffffff16896060015163ffffffff161115615194578860e0015163ffffffff168363ffffffff161161518857828960e00181815161517a9190615779565b63ffffffff1690525061519c565b600060e08a015261519c565b600060e08a01525b50505b615206565b6040517f08c379a000000000000000000000000000000000000000000000000000000000815260206004820152600960248201527f5a45524f5f5a45524f000000000000000000000000000000000000000000000060448201526064016102be565b5050505050505050565b600061521b82612d4b565b905060008460c0015163ffffffff1685610160015163ffffffff1661524091906156b4565b9050600081856080015160040b61525791906156cc565b905061526283615740565b8112156152755761527283615740565b90505b60040b60809094019390935250505050565b803563ffffffff8116811461529b57600080fd5b919050565b6000806000606084860312156152b557600080fd5b833592506152c560208501615287565b9150604084013590509250925092565b600060a082840312156152e757600080fd5b50919050565b6000806040838503121561530057600080fd5b50508035926020909101359150565b60008082840361014081121561532457600080fd5b833592506101207fffffffffffffffffffffffffffffffffffffffffffffffffffffffffffffffe08201121561535957600080fd5b506020830190509250929050565b73ffffffffffffffffffffffffffffffffffffffff8116811461538957600080fd5b50565b803561529b81615367565b6000602082840312156153a957600080fd5b813561309381615367565b604051610120810167ffffffffffffffff811182821017156153ff577f4e487b7100000000000000000000000000000000000000000000000000000000600052604160045260246000fd5b60405290565b600060a0828403121561541757600080fd5b60405160a0810181811067ffffffffffffffff82111715615461577f4e487b7100000000000000000000000000000000000000000000000000000000600052604160045260246000fd5b604052823561546f81615367565b8152602083013561547f81615367565b60208201526040838101359082015261549a60608401615287565b6060820152608083013560808201528091505092915050565b7f4e487b7100000000000000000000000000000000000000000000000000000000600052601260045260246000fd5b7f4e487b7100000000000000000000000000000000000000000000000000000000600052601160045260246000fd5b600082615520576155206154b3565b500490565b8035801515811461529b57600080fd5b60006020828403121561554757600080fd5b61309382615525565b60005b8381101561556b578181015183820152602001615553565b83811115613e1b5750506000910152565b602081526000825180602084015261559b816040850160208701615550565b601f017fffffffffffffffffffffffffffffffffffffffffffffffffffffffffffffffe0169190910160400192915050565b600061012082840312156155e057600080fd5b6155e86153b4565b8235815260208301356020820152604083013560408201526060830135606082015261561660808401615525565b608082015261562760a0840161538c565b60a082015260c083013560c082015261564260e0840161538c565b60e082015261010061565581850161538c565b908201529392505050565b6000817fffffffffffffffffffffffffffffffffffffffffffffffffffffffffffffffff0483118215151615615698576156986154e2565b500290565b6000828210156156af576156af6154e2565b500390565b600082198211156156c7576156c76154e2565b500190565b6000808312837f800000000000000000000000000000000000000000000000000000000000000001831281151615615706576157066154e2565b837f7fffffffffffffffffffffffffffffffffffffffffffffffffffffffffffffff01831381161561573a5761573a6154e2565b50500390565b60007f8000000000000000000000000000000000000000000000000000000000000000821415615772576157726154e2565b5060000390565b600063ffffffff83811690831681811015615796576157966154e2565b039392505050565b6000808212827f7fffffffffffffffffffffffffffffffffffffffffffffffffffffffffffffff038413811516156157d8576157d86154e2565b827f800000000000000000000000000000000000000000000000000000000000000003841281161561580c5761580c6154e2565b50500190565b600063ffffffff808316818516808303821115615831576158316154e2565b01949350505050565b600081600f0b83600f0b6f7fffffffffffffffffffffffffffffff600082136000841383830485118282161615615873576158736154e2565b7fffffffffffffffffffffffffffffffff8000000000000000000000000000000060008512868205861281841616156158ae576158ae6154e2565b600087129250858205871284841616156158ca576158ca6154e2565b858505871281841616156158e0576158e06154e2565b5050509290910295945050505050565b600081600f0b83600f0b60008212826f7fffffffffffffffffffffffffffffff03821381151615615923576159236154e2565b827fffffffffffffffffffffffffffffffff80000000000000000000000000000000038212811615615957576159576154e2565b50019392505050565b600081600f0b83600f0b60008112817fffffffffffffffffffffffffffffffff80000000000000000000000000000000018312811516156159a3576159a36154e2565b816f7fffffffffffffffffffffffffffffff0183138116156159c7576159c76154e2565b5090039392505050565b600181815b80851115615a2a57817fffffffffffffffffffffffffffffffffffffffffffffffffffffffffffffffff04821115615a1057615a106154e2565b80851615615a1d57918102915b93841c93908002906159d6565b509250929050565b80825b6001808611615a445750613cd4565b816f7fffffffffffffffffffffffffffffff04821115615a6657615a666154e2565b80861615615a7357918102915b9490941c938002615a35565b6000828015615a955760018114615a9f57615aa8565b6001915050612ca8565b82915050612ca8565b5081615ab657506000612ca8565b50600160008213808214615acf578015615af657615b18565b826f7fffffffffffffffffffffffffffffff04831115615af157615af16154e2565b615b18565b826f7fffffffffffffffffffffffffffffff05831215615b1857615b186154e2565b5080831615615b245750805b615b348360011c83840283615a32565b806f7fffffffffffffffffffffffffffffff048211600083131615615b5b57615b5b6154e2565b807fffffffffffffffffffffffffffffffff80000000000000000000000000000000058212600083121615615b9257615b926154e2565b029392505050565b600061309360ff841683600f0b615a7f565b600082615bbb57506001612ca8565b81615bc857506000612ca8565b8160018114615a955760028114615bde57615bfa565b60ff841115615bef57615bef6154e2565b50506001821b612ca8565b5060208310610133831016604e8410600b8410161715615c1d575081810a612ca8565b615c2783836159d1565b807fffffffffffffffffffffffffffffffffffffffffffffffffffffffffffffffff04821115615b9257615b926154e2565b600061309360ff841683615bac565b84815283151560208201528215156040820152815163ffffffff1660608201526101c081016020830151615ca1608084018260040b9052565b50604083015163ffffffff811660a084015250606083015163ffffffff811660c084015250608083015163ffffffff811660e08401525060a0830151610100615cf18185018363ffffffff169052565b60c08501519150610120615d0c8186018463ffffffff169052565b60e08601519250610140615d278187018563ffffffff169052565b9186015163ffffffff9081166101608701529086015181166101808601529401519093166101a090920191909152949350505050565b600061ffff80831681851681830481118215151615615d7e57615d7e6154e2565b02949350505050565b600061ffff808316818516808303821115615831576158316154e2565b7f4e487b7100000000000000000000000000000000000000000000000000000000600052603260045260246000fd5b600063ffffffff80841680615dea57615dea6154b3565b92169190910692915050565b600063ffffffff80841680615e0d57615e0d6154b3565b92169190910492915050565b60008160000b8360000b60008112817fffffffffffffffffffffffffffffffffffffffffffffffffffffffffffffff8001831281151615615e5c57615e5c6154e2565b81607f0183138116156159c7576159c76154e2565b80516bffffffffffffffffffffffff8116811461529b57600080fd5b60008060408385031215615ea057600080fd5b8251615eab81615367565b9150615eb960208401615e71565b90509250929050565b60008060408385031215615ed557600080fd5b615ede83615e71565b9150602083015190509250929050565b600060ff831680615f0157615f016154b3565b8060ff84160491505092915050565b600060ff831680615f2357615f236154b3565b8060ff84160691505092915050565b60008251615f44818460208701615550565b9190910192915050565b600060ff821660ff84168160ff0481118215151615615b9257615b926154e2565b600060ff821660ff84168060ff03821115615f8c57615f8c6154e2565b019392505050565b600082615fa357615fa36154b3565b500690565b600064ffffffffff808316818516808303821115615831576158316154e256fea26469706673582212203428e644f12312ee03e8c159a1d01c29e827f6a9f41e0276bab9d204b35e79af64736f6c63430008090033",
  "devdoc": {
    "kind": "dev",
    "methods": {},
    "version": 1
  },
  "userdoc": {
    "kind": "user",
    "methods": {},
    "version": 1
  },
  "storageLayout": {
    "storage": [
      {
        "astId": 19362,
        "contract": "src/outerspace/facets/OuterSpaceFleetsFacet.sol:OuterSpaceFleetsFacet",
        "label": "_planets",
        "offset": 0,
        "slot": "0",
        "type": "t_mapping(t_uint256,t_struct(Planet)27630_storage)"
      },
      {
        "astId": 19367,
        "contract": "src/outerspace/facets/OuterSpaceFleetsFacet.sol:OuterSpaceFleetsFacet",
        "label": "_fleets",
        "offset": 0,
        "slot": "1",
        "type": "t_mapping(t_uint256,t_struct(Fleet)27639_storage)"
      },
      {
        "astId": 19371,
        "contract": "src/outerspace/facets/OuterSpaceFleetsFacet.sol:OuterSpaceFleetsFacet",
        "label": "_stakeReadyToBeWithdrawn",
        "offset": 0,
        "slot": "2",
        "type": "t_mapping(t_address,t_uint256)"
      },
      {
        "astId": 19377,
        "contract": "src/outerspace/facets/OuterSpaceFleetsFacet.sol:OuterSpaceFleetsFacet",
        "label": "_operators",
        "offset": 0,
        "slot": "3",
        "type": "t_mapping(t_address,t_mapping(t_address,t_bool))"
      },
      {
        "astId": 19384,
        "contract": "src/outerspace/facets/OuterSpaceFleetsFacet.sol:OuterSpaceFleetsFacet",
        "label": "_inFlight",
        "offset": 0,
        "slot": "4",
        "type": "t_mapping(t_uint256,t_mapping(t_uint256,t_struct(InFlight)27606_storage))"
      },
      {
        "astId": 19387,
        "contract": "src/outerspace/facets/OuterSpaceFleetsFacet.sol:OuterSpaceFleetsFacet",
        "label": "_discovered",
        "offset": 0,
        "slot": "5",
        "type": "t_struct(Discovered)27615_storage"
      },
      {
        "astId": 19391,
        "contract": "src/outerspace/facets/OuterSpaceFleetsFacet.sol:OuterSpaceFleetsFacet",
        "label": "_prevRewardIds",
        "offset": 0,
        "slot": "6",
        "type": "t_mapping(t_address,t_uint256)"
      },
      {
        "astId": 19395,
        "contract": "src/outerspace/facets/OuterSpaceFleetsFacet.sol:OuterSpaceFleetsFacet",
        "label": "_rewards",
        "offset": 0,
        "slot": "7",
        "type": "t_mapping(t_uint256,t_uint256)"
      },
      {
        "astId": 19401,
        "contract": "src/outerspace/facets/OuterSpaceFleetsFacet.sol:OuterSpaceFleetsFacet",
        "label": "_rewardsToWithdraw",
        "offset": 0,
        "slot": "8",
        "type": "t_mapping(t_address,t_mapping(t_uint256,t_bool))"
      },
      {
        "astId": 19410,
        "contract": "src/outerspace/facets/OuterSpaceFleetsFacet.sol:OuterSpaceFleetsFacet",
        "label": "_attacks",
        "offset": 0,
        "slot": "9",
        "type": "t_mapping(t_uint256,t_mapping(t_address,t_mapping(t_uint256,t_struct(AccumulatedAttack)27712_storage)))"
      },
      {
        "astId": 19414,
        "contract": "src/outerspace/facets/OuterSpaceFleetsFacet.sol:OuterSpaceFleetsFacet",
        "label": "_freeStakeReadyToBeWithdrawn",
        "offset": 0,
        "slot": "10",
        "type": "t_mapping(t_address,t_uint256)"
      },
      {
        "astId": 19418,
        "contract": "src/outerspace/facets/OuterSpaceFleetsFacet.sol:OuterSpaceFleetsFacet",
        "label": "_planetFlagged",
        "offset": 0,
        "slot": "11",
        "type": "t_mapping(t_uint256,t_uint256)"
      }
    ],
    "types": {
      "t_address": {
        "encoding": "inplace",
        "label": "address",
        "numberOfBytes": "20"
      },
      "t_bool": {
        "encoding": "inplace",
        "label": "bool",
        "numberOfBytes": "1"
      },
      "t_int40": {
        "encoding": "inplace",
        "label": "int40",
        "numberOfBytes": "5"
      },
      "t_mapping(t_address,t_bool)": {
        "encoding": "mapping",
        "key": "t_address",
        "label": "mapping(address => bool)",
        "numberOfBytes": "32",
        "value": "t_bool"
      },
      "t_mapping(t_address,t_mapping(t_address,t_bool))": {
        "encoding": "mapping",
        "key": "t_address",
        "label": "mapping(address => mapping(address => bool))",
        "numberOfBytes": "32",
        "value": "t_mapping(t_address,t_bool)"
      },
      "t_mapping(t_address,t_mapping(t_uint256,t_bool))": {
        "encoding": "mapping",
        "key": "t_address",
        "label": "mapping(address => mapping(uint256 => bool))",
        "numberOfBytes": "32",
        "value": "t_mapping(t_uint256,t_bool)"
      },
      "t_mapping(t_address,t_mapping(t_uint256,t_struct(AccumulatedAttack)27712_storage))": {
        "encoding": "mapping",
        "key": "t_address",
        "label": "mapping(address => mapping(uint256 => struct ImportingOuterSpaceTypes.AccumulatedAttack))",
        "numberOfBytes": "32",
        "value": "t_mapping(t_uint256,t_struct(AccumulatedAttack)27712_storage)"
      },
      "t_mapping(t_address,t_uint256)": {
        "encoding": "mapping",
        "key": "t_address",
        "label": "mapping(address => uint256)",
        "numberOfBytes": "32",
        "value": "t_uint256"
      },
      "t_mapping(t_uint256,t_bool)": {
        "encoding": "mapping",
        "key": "t_uint256",
        "label": "mapping(uint256 => bool)",
        "numberOfBytes": "32",
        "value": "t_bool"
      },
      "t_mapping(t_uint256,t_mapping(t_address,t_mapping(t_uint256,t_struct(AccumulatedAttack)27712_storage)))": {
        "encoding": "mapping",
        "key": "t_uint256",
        "label": "mapping(uint256 => mapping(address => mapping(uint256 => struct ImportingOuterSpaceTypes.AccumulatedAttack)))",
        "numberOfBytes": "32",
        "value": "t_mapping(t_address,t_mapping(t_uint256,t_struct(AccumulatedAttack)27712_storage))"
      },
      "t_mapping(t_uint256,t_mapping(t_uint256,t_struct(InFlight)27606_storage))": {
        "encoding": "mapping",
        "key": "t_uint256",
        "label": "mapping(uint256 => mapping(uint256 => struct ImportingOuterSpaceTypes.InFlight))",
        "numberOfBytes": "32",
        "value": "t_mapping(t_uint256,t_struct(InFlight)27606_storage)"
      },
      "t_mapping(t_uint256,t_struct(AccumulatedAttack)27712_storage)": {
        "encoding": "mapping",
        "key": "t_uint256",
        "label": "mapping(uint256 => struct ImportingOuterSpaceTypes.AccumulatedAttack)",
        "numberOfBytes": "32",
        "value": "t_struct(AccumulatedAttack)27712_storage"
      },
      "t_mapping(t_uint256,t_struct(Fleet)27639_storage)": {
        "encoding": "mapping",
        "key": "t_uint256",
        "label": "mapping(uint256 => struct ImportingOuterSpaceTypes.Fleet)",
        "numberOfBytes": "32",
        "value": "t_struct(Fleet)27639_storage"
      },
      "t_mapping(t_uint256,t_struct(InFlight)27606_storage)": {
        "encoding": "mapping",
        "key": "t_uint256",
        "label": "mapping(uint256 => struct ImportingOuterSpaceTypes.InFlight)",
        "numberOfBytes": "32",
        "value": "t_struct(InFlight)27606_storage"
      },
      "t_mapping(t_uint256,t_struct(Planet)27630_storage)": {
        "encoding": "mapping",
        "key": "t_uint256",
        "label": "mapping(uint256 => struct ImportingOuterSpaceTypes.Planet)",
        "numberOfBytes": "32",
        "value": "t_struct(Planet)27630_storage"
      },
      "t_mapping(t_uint256,t_uint256)": {
        "encoding": "mapping",
        "key": "t_uint256",
        "label": "mapping(uint256 => uint256)",
        "numberOfBytes": "32",
        "value": "t_uint256"
      },
      "t_struct(AccumulatedAttack)27712_storage": {
        "encoding": "inplace",
        "label": "struct ImportingOuterSpaceTypes.AccumulatedAttack",
        "members": [
          {
            "astId": 27705,
            "contract": "src/outerspace/facets/OuterSpaceFleetsFacet.sol:OuterSpaceFleetsFacet",
            "label": "target",
            "offset": 0,
            "slot": "0",
            "type": "t_address"
          },
          {
            "astId": 27707,
            "contract": "src/outerspace/facets/OuterSpaceFleetsFacet.sol:OuterSpaceFleetsFacet",
            "label": "numAttackSpent",
            "offset": 20,
            "slot": "0",
            "type": "t_uint32"
          },
          {
            "astId": 27709,
            "contract": "src/outerspace/facets/OuterSpaceFleetsFacet.sol:OuterSpaceFleetsFacet",
            "label": "damageCausedSoFar",
            "offset": 24,
            "slot": "0",
            "type": "t_uint32"
          },
          {
            "astId": 27711,
            "contract": "src/outerspace/facets/OuterSpaceFleetsFacet.sol:OuterSpaceFleetsFacet",
            "label": "averageAttackPower",
            "offset": 28,
            "slot": "0",
            "type": "t_uint16"
          }
        ],
        "numberOfBytes": "32"
      },
      "t_struct(Discovered)27615_storage": {
        "encoding": "inplace",
        "label": "struct ImportingOuterSpaceTypes.Discovered",
        "members": [
          {
            "astId": 27608,
            "contract": "src/outerspace/facets/OuterSpaceFleetsFacet.sol:OuterSpaceFleetsFacet",
            "label": "minX",
            "offset": 0,
            "slot": "0",
            "type": "t_uint32"
          },
          {
            "astId": 27610,
            "contract": "src/outerspace/facets/OuterSpaceFleetsFacet.sol:OuterSpaceFleetsFacet",
            "label": "maxX",
            "offset": 4,
            "slot": "0",
            "type": "t_uint32"
          },
          {
            "astId": 27612,
            "contract": "src/outerspace/facets/OuterSpaceFleetsFacet.sol:OuterSpaceFleetsFacet",
            "label": "minY",
            "offset": 8,
            "slot": "0",
            "type": "t_uint32"
          },
          {
            "astId": 27614,
            "contract": "src/outerspace/facets/OuterSpaceFleetsFacet.sol:OuterSpaceFleetsFacet",
            "label": "maxY",
            "offset": 12,
            "slot": "0",
            "type": "t_uint32"
          }
        ],
        "numberOfBytes": "32"
      },
      "t_struct(Fleet)27639_storage": {
        "encoding": "inplace",
        "label": "struct ImportingOuterSpaceTypes.Fleet",
        "members": [
          {
            "astId": 27632,
            "contract": "src/outerspace/facets/OuterSpaceFleetsFacet.sol:OuterSpaceFleetsFacet",
            "label": "owner",
            "offset": 0,
            "slot": "0",
            "type": "t_address"
          },
          {
            "astId": 27634,
            "contract": "src/outerspace/facets/OuterSpaceFleetsFacet.sol:OuterSpaceFleetsFacet",
            "label": "launchTime",
            "offset": 20,
            "slot": "0",
            "type": "t_uint40"
          },
          {
            "astId": 27636,
            "contract": "src/outerspace/facets/OuterSpaceFleetsFacet.sol:OuterSpaceFleetsFacet",
            "label": "quantity",
            "offset": 25,
            "slot": "0",
            "type": "t_uint32"
          },
          {
            "astId": 27638,
            "contract": "src/outerspace/facets/OuterSpaceFleetsFacet.sol:OuterSpaceFleetsFacet",
            "label": "futureExtraProduction",
            "offset": 29,
            "slot": "0",
            "type": "t_uint24"
          }
        ],
        "numberOfBytes": "32"
      },
      "t_struct(InFlight)27606_storage": {
        "encoding": "inplace",
        "label": "struct ImportingOuterSpaceTypes.InFlight",
        "members": [
          {
            "astId": 27603,
            "contract": "src/outerspace/facets/OuterSpaceFleetsFacet.sol:OuterSpaceFleetsFacet",
            "label": "flying",
            "offset": 0,
            "slot": "0",
            "type": "t_uint32"
          },
          {
            "astId": 27605,
            "contract": "src/outerspace/facets/OuterSpaceFleetsFacet.sol:OuterSpaceFleetsFacet",
            "label": "destroyed",
            "offset": 4,
            "slot": "0",
            "type": "t_uint32"
          }
        ],
        "numberOfBytes": "32"
      },
      "t_struct(Planet)27630_storage": {
        "encoding": "inplace",
        "label": "struct ImportingOuterSpaceTypes.Planet",
        "members": [
          {
            "astId": 27617,
            "contract": "src/outerspace/facets/OuterSpaceFleetsFacet.sol:OuterSpaceFleetsFacet",
            "label": "owner",
            "offset": 0,
            "slot": "0",
            "type": "t_address"
          },
          {
            "astId": 27619,
            "contract": "src/outerspace/facets/OuterSpaceFleetsFacet.sol:OuterSpaceFleetsFacet",
            "label": "ownershipStartTime",
            "offset": 20,
            "slot": "0",
            "type": "t_uint40"
          },
          {
            "astId": 27621,
            "contract": "src/outerspace/facets/OuterSpaceFleetsFacet.sol:OuterSpaceFleetsFacet",
            "label": "exitStartTime",
            "offset": 25,
            "slot": "0",
            "type": "t_uint40"
          },
          {
            "astId": 27623,
            "contract": "src/outerspace/facets/OuterSpaceFleetsFacet.sol:OuterSpaceFleetsFacet",
            "label": "numSpaceships",
            "offset": 0,
            "slot": "1",
            "type": "t_uint32"
          },
          {
            "astId": 27625,
            "contract": "src/outerspace/facets/OuterSpaceFleetsFacet.sol:OuterSpaceFleetsFacet",
            "label": "lastUpdated",
            "offset": 4,
            "slot": "1",
            "type": "t_uint40"
          },
          {
            "astId": 27627,
            "contract": "src/outerspace/facets/OuterSpaceFleetsFacet.sol:OuterSpaceFleetsFacet",
            "label": "travelingUpkeep",
            "offset": 9,
            "slot": "1",
            "type": "t_int40"
          },
          {
            "astId": 27629,
            "contract": "src/outerspace/facets/OuterSpaceFleetsFacet.sol:OuterSpaceFleetsFacet",
            "label": "overflow",
            "offset": 14,
            "slot": "1",
            "type": "t_uint32"
          }
        ],
        "numberOfBytes": "64"
      },
      "t_uint16": {
        "encoding": "inplace",
        "label": "uint16",
        "numberOfBytes": "2"
      },
      "t_uint24": {
        "encoding": "inplace",
        "label": "uint24",
        "numberOfBytes": "3"
      },
      "t_uint256": {
        "encoding": "inplace",
        "label": "uint256",
        "numberOfBytes": "32"
      },
      "t_uint32": {
        "encoding": "inplace",
        "label": "uint32",
        "numberOfBytes": "4"
      },
      "t_uint40": {
        "encoding": "inplace",
        "label": "uint40",
        "numberOfBytes": "5"
      }
    }
  }
}