{
  "address": "0xb3262B03aA2D51517e6724b4682F72b4F5629544",
  "abi": [
    {
      "inputs": [
        {
          "internalType": "address",
          "name": "firstOwner",
          "type": "address"
        }
      ],
      "stateMutability": "nonpayable",
      "type": "constructor"
    },
    {
      "anonymous": false,
      "inputs": [
        {
          "indexed": true,
          "internalType": "address",
          "name": "previousOwner",
          "type": "address"
        },
        {
          "indexed": true,
          "internalType": "address",
          "name": "newOwner",
          "type": "address"
        }
      ],
      "name": "OwnershipTransferred",
      "type": "event"
    },
    {
      "anonymous": false,
      "inputs": [
        {
          "indexed": true,
          "internalType": "address",
          "name": "payer",
          "type": "address"
        },
        {
          "indexed": false,
          "internalType": "uint256",
          "name": "amount",
          "type": "uint256"
        },
        {
          "indexed": false,
          "internalType": "bool",
          "name": "refund",
          "type": "bool"
        }
      ],
      "name": "Payment",
      "type": "event"
    },
    {
      "inputs": [],
      "name": "owner",
      "outputs": [
        {
          "internalType": "address",
          "name": "",
          "type": "address"
        }
      ],
      "stateMutability": "view",
      "type": "function"
    },
    {
      "inputs": [
        {
          "internalType": "address",
          "name": "newOwner",
          "type": "address"
        }
      ],
      "name": "transferOwnership",
      "outputs": [],
      "stateMutability": "nonpayable",
      "type": "function"
    },
    {
      "inputs": [
        {
          "internalType": "address payable",
          "name": "to",
          "type": "address"
        },
        {
          "internalType": "uint256",
          "name": "amount",
          "type": "uint256"
        }
      ],
      "name": "withdraw",
      "outputs": [],
      "stateMutability": "nonpayable",
      "type": "function"
    },
    {
      "inputs": [
        {
          "internalType": "address payable",
          "name": "to",
          "type": "address"
        }
      ],
      "name": "withdrawAllETH",
      "outputs": [],
      "stateMutability": "nonpayable",
      "type": "function"
    },
    {
      "inputs": [
        {
          "internalType": "address payable",
          "name": "to",
          "type": "address"
        },
        {
          "internalType": "uint256",
          "name": "amount",
          "type": "uint256"
        }
      ],
      "name": "withdrawForRefund",
      "outputs": [],
      "stateMutability": "nonpayable",
      "type": "function"
    },
    {
      "inputs": [
        {
          "internalType": "contract IERC20[]",
          "name": "tokens",
          "type": "address[]"
        },
        {
          "internalType": "address",
          "name": "to",
          "type": "address"
        }
      ],
      "name": "withdrawTokens",
      "outputs": [],
      "stateMutability": "nonpayable",
      "type": "function"
    },
    {
      "stateMutability": "payable",
      "type": "receive"
    }
  ],
  "transactionHash": "0x65d2f40ffdfd4cc5f0b31494498f34b907714331b309a1781adbff395416b9ed",
  "args": [
    "0x2aE1389b686404959Eb61205c78e1103b85F157f"
  ],
  "numDeployments": 1,
  "solcInputHash": "af21df80883fa8437198488cd32852da",
  "bytecode": "0x608060405234801561001057600080fd5b50604051610a41380380610a4183398101604081905261002f9161007d565b600080546001600160a01b0319166001600160a01b03831690811782556040519091907f8be0079c531659141344cd1fd0a4f28419497f9722a3daafe3b4186f6b6457e0908290a3506100ad565b60006020828403121561008f57600080fd5b81516001600160a01b03811681146100a657600080fd5b9392505050565b610985806100bc6000396000f3fe6080604052600436106100695760003560e01c80639ebd9115116100435780639ebd911514610148578063f2fde38b14610168578063f3fef3a31461018857600080fd5b80630e8cc705146100b05780631b553d68146100d25780638da5cb5b146100f257600080fd5b366100ab57604080513481526000602082015233917ff62eb0089c279dea4693baf6185affe0fe98a35d3c5ddbf4a6a0a557636533bd910160405180910390a2005b600080fd5b3480156100bc57600080fd5b506100d06100cb3660046107af565b6101a8565b005b3480156100de57600080fd5b506100d06100ed366004610835565b6103ef565b3480156100fe57600080fd5b5060005461011f9073ffffffffffffffffffffffffffffffffffffffff1681565b60405173ffffffffffffffffffffffffffffffffffffffff909116815260200160405180910390f35b34801561015457600080fd5b506100d0610163366004610861565b610509565b34801561017457600080fd5b506100d0610183366004610861565b6105d0565b34801561019457600080fd5b506100d06101a3366004610835565b6106c1565b60005473ffffffffffffffffffffffffffffffffffffffff16331461022e576040517f08c379a000000000000000000000000000000000000000000000000000000000815260206004820152600b60248201527f4e4f545f414c4c4f57454400000000000000000000000000000000000000000060448201526064015b60405180910390fd5b60005b828110156103e957600084848381811061024d5761024d610885565b90506020020160208101906102629190610861565b6040517f70a0823100000000000000000000000000000000000000000000000000000000815230600482015273ffffffffffffffffffffffffffffffffffffffff91909116906370a082319060240160206040518083038186803b1580156102c957600080fd5b505afa1580156102dd573d6000803e3d6000fd5b505050506040513d601f19601f8201168201806040525081019061030191906108b4565b905084848381811061031557610315610885565b905060200201602081019061032a9190610861565b6040517fa9059cbb00000000000000000000000000000000000000000000000000000000815273ffffffffffffffffffffffffffffffffffffffff858116600483015260248201849052919091169063a9059cbb90604401602060405180830381600087803b15801561039c57600080fd5b505af11580156103b0573d6000803e3d6000fd5b505050506040513d601f19601f820116820180604052508101906103d491906108cd565b505080806103e1906108ef565b915050610231565b50505050565b60005473ffffffffffffffffffffffffffffffffffffffff163314610470576040517f08c379a000000000000000000000000000000000000000000000000000000000815260206004820152600b60248201527f4e4f545f414c4c4f5745440000000000000000000000000000000000000000006044820152606401610225565b60405173ffffffffffffffffffffffffffffffffffffffff83169082156108fc029083906000818181858888f193505050501580156104b3573d6000803e3d6000fd5b50604080518281526001602082015273ffffffffffffffffffffffffffffffffffffffff8416917ff62eb0089c279dea4693baf6185affe0fe98a35d3c5ddbf4a6a0a557636533bd910160405180910390a25050565b60005473ffffffffffffffffffffffffffffffffffffffff16331461058a576040517f08c379a000000000000000000000000000000000000000000000000000000000815260206004820152600b60248201527f4e4f545f414c4c4f5745440000000000000000000000000000000000000000006044820152606401610225565b60405173ffffffffffffffffffffffffffffffffffffffff8216904780156108fc02916000818181858888f193505050501580156105cc573d6000803e3d6000fd5b5050565b60005473ffffffffffffffffffffffffffffffffffffffff163314610651576040517f08c379a000000000000000000000000000000000000000000000000000000000815260206004820152600b60248201527f4e4f545f414c4c4f5745440000000000000000000000000000000000000000006044820152606401610225565b600080547fffffffffffffffffffffffff00000000000000000000000000000000000000001673ffffffffffffffffffffffffffffffffffffffff83169081178255604051909133917f8be0079c531659141344cd1fd0a4f28419497f9722a3daafe3b4186f6b6457e09190a350565b60005473ffffffffffffffffffffffffffffffffffffffff163314610742576040517f08c379a000000000000000000000000000000000000000000000000000000000815260206004820152600b60248201527f4e4f545f414c4c4f5745440000000000000000000000000000000000000000006044820152606401610225565b60405173ffffffffffffffffffffffffffffffffffffffff83169082156108fc029083906000818181858888f19350505050158015610785573d6000803e3d6000fd5b505050565b73ffffffffffffffffffffffffffffffffffffffff811681146107ac57600080fd5b50565b6000806000604084860312156107c457600080fd5b833567ffffffffffffffff808211156107dc57600080fd5b818601915086601f8301126107f057600080fd5b8135818111156107ff57600080fd5b8760208260051b850101111561081457600080fd5b6020928301955093505084013561082a8161078a565b809150509250925092565b6000806040838503121561084857600080fd5b82356108538161078a565b946020939093013593505050565b60006020828403121561087357600080fd5b813561087e8161078a565b9392505050565b7f4e487b7100000000000000000000000000000000000000000000000000000000600052603260045260246000fd5b6000602082840312156108c657600080fd5b5051919050565b6000602082840312156108df57600080fd5b8151801515811461087e57600080fd5b60007fffffffffffffffffffffffffffffffffffffffffffffffffffffffffffffffff821415610948577f4e487b7100000000000000000000000000000000000000000000000000000000600052601160045260246000fd5b506001019056fea26469706673582212206274325fe3ec5cf342e45afaf62ee9163950b81916c147b511766fedad44d7c164736f6c63430008090033",
  "devdoc": {
    "kind": "dev",
    "methods": {},
    "version": 1
  },
  "userdoc": {
    "kind": "user",
    "methods": {},
    "version": 1
  },
  "storageLayout": {
    "storage": [
      {
        "astId": 10279,
        "contract": "src/agent/PaymentGateway.sol:PaymentGateway",
        "label": "owner",
        "offset": 0,
        "slot": "0",
        "type": "t_address"
      }
    ],
    "types": {
      "t_address": {
        "encoding": "inplace",
        "label": "address",
        "numberOfBytes": "20"
      }
    }
  }
}