{
  "address": "0x064420bE3Dc2Ad203A1291c8116b8EEd18A865EF",
  "abi": [
    {
      "inputs": [
        {
          "internalType": "address",
          "name": "initialRedeemer",
          "type": "address"
        },
        {
          "internalType": "uint256",
          "name": "_numTokensPerNativeTokenAt18Decimals",
          "type": "uint256"
        },
        {
          "internalType": "contract SDAI",
          "name": "_sdai",
          "type": "address"
        },
        {
          "internalType": "contract SavingsXDaiAdapter",
          "name": "_sdaiAdapter",
          "type": "address"
        }
      ],
      "stateMutability": "nonpayable",
      "type": "constructor"
    },
    {
      "anonymous": false,
      "inputs": [
        {
          "indexed": true,
          "internalType": "address",
          "name": "owner",
          "type": "address"
        },
        {
          "indexed": true,
          "internalType": "address",
          "name": "spender",
          "type": "address"
        },
        {
          "indexed": false,
          "internalType": "uint256",
          "name": "value",
          "type": "uint256"
        }
      ],
      "name": "Approval",
      "type": "event"
    },
    {
      "anonymous": false,
      "inputs": [
        {
          "indexed": false,
          "internalType": "address",
          "name": "newRedeemer",
          "type": "address"
        }
      ],
      "name": "Redeemer",
      "type": "event"
    },
    {
      "anonymous": false,
      "inputs": [
        {
          "indexed": true,
          "internalType": "address",
          "name": "from",
          "type": "address"
        },
        {
          "indexed": true,
          "internalType": "address",
          "name": "to",
          "type": "address"
        },
        {
          "indexed": false,
          "internalType": "uint256",
          "name": "value",
          "type": "uint256"
        }
      ],
      "name": "Transfer",
      "type": "event"
    },
    {
      "inputs": [],
      "name": "DOMAIN_SEPARATOR",
      "outputs": [
        {
          "internalType": "bytes32",
          "name": "",
          "type": "bytes32"
        }
      ],
      "stateMutability": "view",
      "type": "function"
    },
    {
      "inputs": [
        {
          "internalType": "address",
          "name": "owner",
          "type": "address"
        },
        {
          "internalType": "address",
          "name": "spender",
          "type": "address"
        }
      ],
      "name": "allowance",
      "outputs": [
        {
          "internalType": "uint256",
          "name": "",
          "type": "uint256"
        }
      ],
      "stateMutability": "view",
      "type": "function"
    },
    {
      "inputs": [
        {
          "internalType": "address",
          "name": "spender",
          "type": "address"
        },
        {
          "internalType": "uint256",
          "name": "amount",
          "type": "uint256"
        }
      ],
      "name": "approve",
      "outputs": [
        {
          "internalType": "bool",
          "name": "",
          "type": "bool"
        }
      ],
      "stateMutability": "nonpayable",
      "type": "function"
    },
    {
      "inputs": [
        {
          "internalType": "address",
          "name": "spender",
          "type": "address"
        },
        {
          "internalType": "uint256",
          "name": "amount",
          "type": "uint256"
        },
        {
          "internalType": "bytes",
          "name": "data",
          "type": "bytes"
        }
      ],
      "name": "approveAndCall",
      "outputs": [
        {
          "internalType": "bool",
          "name": "",
          "type": "bool"
        }
      ],
      "stateMutability": "nonpayable",
      "type": "function"
    },
    {
      "inputs": [
        {
          "internalType": "address",
          "name": "owner",
          "type": "address"
        }
      ],
      "name": "balanceOf",
      "outputs": [
        {
          "internalType": "uint256",
          "name": "",
          "type": "uint256"
        }
      ],
      "stateMutability": "view",
      "type": "function"
    },
    {
      "inputs": [
        {
          "internalType": "address payable",
          "name": "to",
          "type": "address"
        },
        {
          "internalType": "uint256",
          "name": "amount",
          "type": "uint256"
        }
      ],
      "name": "burn",
      "outputs": [],
      "stateMutability": "nonpayable",
      "type": "function"
    },
    {
      "inputs": [],
      "name": "decimals",
      "outputs": [
        {
          "internalType": "uint8",
          "name": "",
          "type": "uint8"
        }
      ],
      "stateMutability": "pure",
      "type": "function"
    },
    {
      "inputs": [
        {
          "internalType": "address payable[]",
          "name": "tos",
          "type": "address[]"
        },
        {
          "internalType": "uint256",
          "name": "totalAmount",
          "type": "uint256"
        }
      ],
      "name": "distributeAlongWithETH",
      "outputs": [
        {
          "internalType": "bool",
          "name": "",
          "type": "bool"
        }
      ],
      "stateMutability": "payable",
      "type": "function"
    },
    {
      "inputs": [
        {
          "internalType": "address payable[]",
          "name": "tos",
          "type": "address[]"
        },
        {
          "internalType": "uint256[]",
          "name": "amounts",
          "type": "uint256[]"
        }
      ],
      "name": "distributeVariousAmountsAlongWithETH",
      "outputs": [
        {
          "internalType": "bool",
          "name": "",
          "type": "bool"
        }
      ],
      "stateMutability": "payable",
      "type": "function"
    },
    {
      "inputs": [
        {
          "internalType": "address payable[]",
          "name": "tos",
          "type": "address[]"
        },
        {
          "internalType": "uint256[]",
          "name": "tokenAmounts",
          "type": "uint256[]"
        },
        {
          "internalType": "uint256[]",
          "name": "etherAmounts",
          "type": "uint256[]"
        }
      ],
      "name": "distributeVariousAmountsOfTokenAndETH",
      "outputs": [
        {
          "internalType": "bool",
          "name": "",
          "type": "bool"
        }
      ],
      "stateMutability": "payable",
      "type": "function"
    },
    {
      "inputs": [],
      "name": "interestAvailableToRedeem",
      "outputs": [
        {
          "internalType": "uint256",
          "name": "",
          "type": "uint256"
        }
      ],
      "stateMutability": "view",
      "type": "function"
    },
    {
      "inputs": [
        {
          "internalType": "address",
          "name": "to",
          "type": "address"
        },
        {
          "internalType": "uint256",
          "name": "amount",
          "type": "uint256"
        }
      ],
      "name": "mint",
      "outputs": [],
      "stateMutability": "payable",
      "type": "function"
    },
    {
      "inputs": [],
      "name": "name",
      "outputs": [
        {
          "internalType": "string",
          "name": "",
          "type": "string"
        }
      ],
      "stateMutability": "pure",
      "type": "function"
    },
    {
      "inputs": [
        {
          "internalType": "address",
          "name": "owner",
          "type": "address"
        }
      ],
      "name": "nonces",
      "outputs": [
        {
          "internalType": "uint256",
          "name": "",
          "type": "uint256"
        }
      ],
      "stateMutability": "view",
      "type": "function"
    },
    {
      "inputs": [],
      "name": "numTokensPerNativeTokenAt18Decimals",
      "outputs": [
        {
          "internalType": "uint256",
          "name": "",
          "type": "uint256"
        }
      ],
      "stateMutability": "view",
      "type": "function"
    },
    {
      "inputs": [
        {
          "internalType": "address",
          "name": "forAddress",
          "type": "address"
        },
        {
          "internalType": "address",
          "name": "to",
          "type": "address"
        },
        {
          "internalType": "uint256",
          "name": "amount",
          "type": "uint256"
        },
        {
          "internalType": "bytes",
          "name": "data",
          "type": "bytes"
        }
      ],
      "name": "payForAndCall",
      "outputs": [
        {
          "internalType": "bool",
          "name": "",
          "type": "bool"
        }
      ],
      "stateMutability": "nonpayable",
      "type": "function"
    },
    {
      "inputs": [
        {
          "internalType": "address",
          "name": "owner",
          "type": "address"
        },
        {
          "internalType": "address",
          "name": "spender",
          "type": "address"
        },
        {
          "internalType": "uint256",
          "name": "value",
          "type": "uint256"
        },
        {
          "internalType": "uint256",
          "name": "deadline",
          "type": "uint256"
        },
        {
          "internalType": "uint8",
          "name": "v",
          "type": "uint8"
        },
        {
          "internalType": "bytes32",
          "name": "r",
          "type": "bytes32"
        },
        {
          "internalType": "bytes32",
          "name": "s",
          "type": "bytes32"
        }
      ],
      "name": "permit",
      "outputs": [],
      "stateMutability": "nonpayable",
      "type": "function"
    },
    {
      "inputs": [
        {
          "internalType": "address",
          "name": "initialRedeemer",
          "type": "address"
        },
        {
          "internalType": "uint256",
          "name": "_numTokensPerNativeTokenAt18Decimals",
          "type": "uint256"
        },
        {
          "internalType": "contract SDAI",
          "name": "_sdai",
          "type": "address"
        },
        {
          "internalType": "contract SavingsXDaiAdapter",
          "name": "_sdaiAdapter",
          "type": "address"
        }
      ],
      "name": "postUpgrade",
      "outputs": [],
      "stateMutability": "nonpayable",
      "type": "function"
    },
    {
      "inputs": [
        {
          "internalType": "address payable",
          "name": "to",
          "type": "address"
        }
      ],
      "name": "redeemInterest",
      "outputs": [
        {
          "internalType": "uint256",
          "name": "",
          "type": "uint256"
        }
      ],
      "stateMutability": "nonpayable",
      "type": "function"
    },
    {
      "inputs": [],
      "name": "sdai",
      "outputs": [
        {
          "internalType": "contract SDAI",
          "name": "",
          "type": "address"
        }
      ],
      "stateMutability": "view",
      "type": "function"
    },
    {
      "inputs": [],
      "name": "sdaiAdapter",
      "outputs": [
        {
          "internalType": "contract SavingsXDaiAdapter",
          "name": "",
          "type": "address"
        }
      ],
      "stateMutability": "view",
      "type": "function"
    },
    {
      "inputs": [
        {
          "internalType": "address",
          "name": "newRedeemer",
          "type": "address"
        }
      ],
      "name": "setRedeemer",
      "outputs": [],
      "stateMutability": "nonpayable",
      "type": "function"
    },
    {
      "inputs": [],
      "name": "symbol",
      "outputs": [
        {
          "internalType": "string",
          "name": "",
          "type": "string"
        }
      ],
      "stateMutability": "view",
      "type": "function"
    },
    {
      "inputs": [],
      "name": "totalSupply",
      "outputs": [
        {
          "internalType": "uint256",
          "name": "",
          "type": "uint256"
        }
      ],
      "stateMutability": "view",
      "type": "function"
    },
    {
      "inputs": [
        {
          "internalType": "address",
          "name": "to",
          "type": "address"
        },
        {
          "internalType": "uint256",
          "name": "amount",
          "type": "uint256"
        }
      ],
      "name": "transfer",
      "outputs": [
        {
          "internalType": "bool",
          "name": "",
          "type": "bool"
        }
      ],
      "stateMutability": "nonpayable",
      "type": "function"
    },
    {
      "inputs": [
        {
          "internalType": "address payable",
          "name": "to",
          "type": "address"
        },
        {
          "internalType": "uint256",
          "name": "amount",
          "type": "uint256"
        }
      ],
      "name": "transferAlongWithETH",
      "outputs": [
        {
          "internalType": "bool",
          "name": "",
          "type": "bool"
        }
      ],
      "stateMutability": "payable",
      "type": "function"
    },
    {
      "inputs": [
        {
          "internalType": "address",
          "name": "to",
          "type": "address"
        },
        {
          "internalType": "uint256",
          "name": "amount",
          "type": "uint256"
        },
        {
          "internalType": "bytes",
          "name": "data",
          "type": "bytes"
        }
      ],
      "name": "transferAndCall",
      "outputs": [
        {
          "internalType": "bool",
          "name": "",
          "type": "bool"
        }
      ],
      "stateMutability": "nonpayable",
      "type": "function"
    },
    {
      "inputs": [
        {
          "internalType": "address",
          "name": "from",
          "type": "address"
        },
        {
          "internalType": "address",
          "name": "to",
          "type": "address"
        },
        {
          "internalType": "uint256",
          "name": "amount",
          "type": "uint256"
        }
      ],
      "name": "transferFrom",
      "outputs": [
        {
          "internalType": "bool",
          "name": "",
          "type": "bool"
        }
      ],
      "stateMutability": "nonpayable",
      "type": "function"
    },
    {
      "inputs": [
        {
          "internalType": "address",
          "name": "from",
          "type": "address"
        },
        {
          "internalType": "address",
          "name": "to",
          "type": "address"
        },
        {
          "internalType": "uint256",
          "name": "amount",
          "type": "uint256"
        },
        {
          "internalType": "bytes",
          "name": "data",
          "type": "bytes"
        }
      ],
      "name": "transferFromAndCall",
      "outputs": [
        {
          "internalType": "bool",
          "name": "",
          "type": "bool"
        }
      ],
      "stateMutability": "nonpayable",
      "type": "function"
    }
  ],
  "transactionHash": "0x6cde8e83349d71d3573c41570d2c07431fae602cb3b639ea3b6d05276a92bb61",
  "args": [
    "0x2aE1389b686404959Eb61205c78e1103b85F157f",
    "1000000000000000000",
    "0x0000000000000000000000000000000000000000",
    "0x0000000000000000000000000000000000000000"
  ],
  "numDeployments": 1,
  "linkedData": {
    "numTokensPerNativeTokenAt18Decimals": "1000000000000000000"
  },
  "solcInputHash": "af21df80883fa8437198488cd32852da",
  "bytecode": "0x6101006040523480156200001257600080fd5b50604051620032f0380380620032f08339810160408190526200003591620002e9565b6040805180820190915260018152603160f81b60208201527f91ab3d17e3a50a9d89e63fd30b92be7f5336b03b287bb946787a83a9d62a276662000090604080518082019091526004815263506c617960e01b602082015290565b8051602091820120835184830120604080519384019490945292820152606081019190915230608082015260a00160408051601f1981840301815291905280516020909101206080525060a08390526001600160a01b0380831660e052811660c05262000100848484846200010a565b505050506200038a565b6001600160a01b0384166200012c600080516020620032d08339815191525490565b6001600160a01b0316146200018b57600080516020620032d08339815191528490556040516001600160a01b03851681527f9042ac61da85d5d05a958fe5e62e488f34ff55bfed59cf03c54c4a18c2531ff99060200160405180910390a15b60e0516001600160a01b031615801590620001b0575060c0516001600160a01b031615155b15620002ca5760e05160c05160405163095ea7b360e01b81526001600160a01b039182166004820152600019602482015291169063095ea7b390604401602060405180830381600087803b1580156200020857600080fd5b505af11580156200021d573d6000803e3d6000fd5b505050506040513d601f19601f8201168201806040525081019062000243919062000345565b5060c05160405163f716a92b60e01b815230600482015247916001600160a01b03169063f716a92b9083906024016020604051808303818588803b1580156200028b57600080fd5b505af1158015620002a0573d6000803e3d6000fd5b50505050506040513d601f19601f82011682018060405250810190620002c7919062000370565b50505b50505050565b6001600160a01b0381168114620002e657600080fd5b50565b600080600080608085870312156200030057600080fd5b84516200030d81620002d0565b6020860151604087015191955093506200032781620002d0565b60608601519092506200033a81620002d0565b939692955090935050565b6000602082840312156200035857600080fd5b815180151581146200036957600080fd5b9392505050565b6000602082840312156200038357600080fd5b5051919050565b60805160a05160c05160e051612e6b62000465600039600081816103e6015281816106480152818161075101528181610a9701528181610ba001528181610fb601528181611215015281816124d301526125db01526000818161038d0152818161068801528181610ad701528181610c7f01528181610ff60152818161106101528181611255015281816112de015281816125130152818161258d0152612688015260008181610529015281816106c901528181610b1801528181610f1e01526111d601526000818161032601526115aa0152612e6b6000f3fe6080604052600436106101c25760003560e01c806363d994c7116100f7578063c1d34b8911610095578063df752eed11610064578063df752eed146105eb578063e7fcb065146105fe578063f955dcba14610611578063fc72b9761461063157600080fd5b8063c1d34b891461056b578063cae9ca511461058b578063d505accf146105ab578063dd62ed3e146105cb57600080fd5b806395d89b41116100d157806395d89b41146104ae5780639dc29fac146104f7578063a835106e14610517578063a9059cbb1461054b57600080fd5b806363d994c71461040857806370a08231146104285780637ecebe001461046b57600080fd5b8063313ce567116101645780634000aea01161013e5780634000aea01461034857806340c10f1914610368578063590a40221461037b5780635b2eeca4146103d457600080fd5b8063313ce567146102d65780633307ce84146102f25780633644e5151461031457600080fd5b80630e02df54116101a05780630e02df541461026e57806318160ddd1461028157806319caf46c1461029657806323b872dd146102b657600080fd5b806305b52ec7146101c757806306fdde03146101ef578063095ea7b31461023e575b600080fd5b3480156101d357600080fd5b506101dc610644565b6040519081526020015b60405180910390f35b3480156101fb57600080fd5b5060408051808201909152600481527f506c61790000000000000000000000000000000000000000000000000000000060208201525b6040516101e69190612723565b34801561024a57600080fd5b5061025e6102593660046127bb565b6107f2565b60405190151581526020016101e6565b61025e61027c366004612833565b610809565b34801561028d57600080fd5b506000546101dc565b3480156102a257600080fd5b506101dc6102b136600461287f565b6109d7565b3480156102c257600080fd5b5061025e6102d13660046128a3565b610d11565b3480156102e257600080fd5b50604051601281526020016101e6565b3480156102fe57600080fd5b5061031261030d36600461287f565b610d28565b005b34801561032057600080fd5b506101dc7f000000000000000000000000000000000000000000000000000000000000000081565b34801561035457600080fd5b5061025e610363366004612926565b610e4e565b6103126103763660046127bb565b610f0e565b34801561038757600080fd5b506103af7f000000000000000000000000000000000000000000000000000000000000000081565b60405173ffffffffffffffffffffffffffffffffffffffff90911681526020016101e6565b3480156103e057600080fd5b506103af7f000000000000000000000000000000000000000000000000000000000000000081565b34801561041457600080fd5b5061025e610423366004612982565b611105565b34801561043457600080fd5b506101dc61044336600461287f565b73ffffffffffffffffffffffffffffffffffffffff1660009081526001602052604090205490565b34801561047757600080fd5b506101dc61048636600461287f565b73ffffffffffffffffffffffffffffffffffffffff1660009081526003602052604090205490565b3480156104ba57600080fd5b506102316040518060400160405280600481526020017f504c41590000000000000000000000000000000000000000000000000000000081525081565b34801561050357600080fd5b506103126105123660046127bb565b6111c8565b34801561052357600080fd5b506101dc7f000000000000000000000000000000000000000000000000000000000000000081565b34801561055757600080fd5b5061025e6105663660046127bb565b6113a3565b34801561057757600080fd5b5061025e610586366004612982565b6113b0565b34801561059757600080fd5b5061025e6105a6366004612926565b611415565b3480156105b757600080fd5b506103126105c63660046129f5565b611478565b3480156105d757600080fd5b506101dc6105e6366004612a6c565b6117b8565b61025e6105f9366004612aa5565b611838565b61025e61060c3660046127bb565b6119f5565b34801561061d57600080fd5b5061031261062c366004612b05565b611a44565b61025e61063f366004612b58565b611b06565b60007f000000000000000000000000000000000000000000000000000000000000000073ffffffffffffffffffffffffffffffffffffffff16158015906106c057507f000000000000000000000000000000000000000000000000000000000000000073ffffffffffffffffffffffffffffffffffffffff1615155b156107ec5760007f0000000000000000000000000000000000000000000000000000000000000000670de0b6b3a76400006000546106fe9190612c21565b6107089190612c5e565b6040517fce96cb7700000000000000000000000000000000000000000000000000000000815230600482015290915060009073ffffffffffffffffffffffffffffffffffffffff7f0000000000000000000000000000000000000000000000000000000000000000169063ce96cb779060240160206040518083038186803b15801561079357600080fd5b505afa1580156107a7573d6000803e3d6000fd5b505050506040513d601f19601f820116820180604052508101906107cb9190612c99565b9050818111156107e95760006107e18383612cb2565b949350505050565b50505b50600090565b60006107ff338484611d99565b5060015b92915050565b6000806108168434612c5e565b90506108228482612c21565b341461088f576040517f08c379a000000000000000000000000000000000000000000000000000000000815260206004820152601160248201527f494e56414c49445f4d53475f56414c554500000000000000000000000000000060448201526064015b60405180910390fd5b600061089b8585612c5e565b90506108a78582612c21565b841461090f576040517f08c379a000000000000000000000000000000000000000000000000000000000815260206004820152601460248201527f494e56414c49445f544f54414c5f414d4f554e540000000000000000000000006044820152606401610886565b60005b858110156109ca5761094b3388888481811061093057610930612cc9565b9050602002016020810190610945919061287f565b84611ea8565b86868281811061095d5761095d612cc9565b9050602002016020810190610972919061287f565b73ffffffffffffffffffffffffffffffffffffffff166108fc849081150290604051600060405180830381858888f193505050501580156109b7573d6000803e3d6000fd5b50806109c281612cf8565b915050610912565b5060019695505050505050565b6000610a017fa38643e3ed511bdab6502b0aaa1583180356304eba44dc9c3bbd0d9bf66e67f95490565b73ffffffffffffffffffffffffffffffffffffffff163373ffffffffffffffffffffffffffffffffffffffff1614610a95576040517f08c379a000000000000000000000000000000000000000000000000000000000815260206004820152600e60248201527f4e4f545f415554484f52495a45440000000000000000000000000000000000006044820152606401610886565b7f000000000000000000000000000000000000000000000000000000000000000073ffffffffffffffffffffffffffffffffffffffff1615801590610b0f57507f000000000000000000000000000000000000000000000000000000000000000073ffffffffffffffffffffffffffffffffffffffff1615155b15610d095760007f0000000000000000000000000000000000000000000000000000000000000000670de0b6b3a7640000600054610b4d9190612c21565b610b579190612c5e565b6040517fce96cb7700000000000000000000000000000000000000000000000000000000815230600482015290915060009073ffffffffffffffffffffffffffffffffffffffff7f0000000000000000000000000000000000000000000000000000000000000000169063ce96cb779060240160206040518083038186803b158015610be257600080fd5b505afa158015610bf6573d6000803e3d6000fd5b505050506040513d601f19601f82011682018060405250810190610c1a9190612c99565b905081811115610d06576000610c308383612cb2565b6040517f9084d5140000000000000000000000000000000000000000000000000000000081526004810182905273ffffffffffffffffffffffffffffffffffffffff87811660248301529192507f000000000000000000000000000000000000000000000000000000000000000090911690639084d51490604401602060405180830381600087803b158015610cc557600080fd5b505af1158015610cd9573d6000803e3d6000fd5b505050506040513d601f19601f82011682018060405250810190610cfd9190612c99565b50949350505050565b50505b506000919050565b6000610d1e8484846120f6565b5060019392505050565b7fa38643e3ed511bdab6502b0aaa1583180356304eba44dc9c3bbd0d9bf66e67f95473ffffffffffffffffffffffffffffffffffffffff163373ffffffffffffffffffffffffffffffffffffffff1614610dde576040517f08c379a000000000000000000000000000000000000000000000000000000000815260206004820152600e60248201527f4e4f545f415554484f52495a45440000000000000000000000000000000000006044820152606401610886565b7fa38643e3ed511bdab6502b0aaa1583180356304eba44dc9c3bbd0d9bf66e67f981905560405173ffffffffffffffffffffffffffffffffffffffff821681527f9042ac61da85d5d05a958fe5e62e488f34ff55bfed59cf03c54c4a18c2531ff99060200160405180910390a150565b6000610e5b338686611ea8565b6040517fa4c0ed3600000000000000000000000000000000000000000000000000000000815273ffffffffffffffffffffffffffffffffffffffff86169063a4c0ed3690610eb3903390889088908890600401612d7a565b602060405180830381600087803b158015610ecd57600080fd5b505af1158015610ee1573d6000803e3d6000fd5b505050506040513d601f19601f82011682018060405250810190610f059190612db0565b95945050505050565b3481670de0b6b3a7640000610f437f000000000000000000000000000000000000000000000000000000000000000084612c21565b610f4d9190612c5e565b14610fb4576040517f08c379a000000000000000000000000000000000000000000000000000000000815260206004820152600e60248201527f494e56414c49445f414d4f554e540000000000000000000000000000000000006044820152606401610886565b7f000000000000000000000000000000000000000000000000000000000000000073ffffffffffffffffffffffffffffffffffffffff161580159061102e57507f000000000000000000000000000000000000000000000000000000000000000073ffffffffffffffffffffffffffffffffffffffff1615155b156110f6576040517ff716a92b0000000000000000000000000000000000000000000000000000000081523060048201527f000000000000000000000000000000000000000000000000000000000000000073ffffffffffffffffffffffffffffffffffffffff169063f716a92b9083906024016020604051808303818588803b1580156110bb57600080fd5b505af11580156110cf573d6000803e3d6000fd5b50505050506040513d601f19601f820116820180604052508101906110f49190612c99565b505b6111008383612242565b505050565b6000611112338686611ea8565b6040517f9b6be06500000000000000000000000000000000000000000000000000000000815273ffffffffffffffffffffffffffffffffffffffff861690639b6be0659061116c9033908a90899089908990600401612dd2565b602060405180830381600087803b15801561118657600080fd5b505af115801561119a573d6000803e3d6000fd5b505050506040513d601f19601f820116820180604052508101906111be9190612db0565b9695505050505050565b6111d233826122e4565b60007f0000000000000000000000000000000000000000000000000000000000000000611207670de0b6b3a764000084612c21565b6112119190612c5e565b90507f000000000000000000000000000000000000000000000000000000000000000073ffffffffffffffffffffffffffffffffffffffff161580159061128d57507f000000000000000000000000000000000000000000000000000000000000000073ffffffffffffffffffffffffffffffffffffffff1615155b15611360576040517f9084d5140000000000000000000000000000000000000000000000000000000081526004810182905273ffffffffffffffffffffffffffffffffffffffff84811660248301527f00000000000000000000000000000000000000000000000000000000000000001690639084d51490604401602060405180830381600087803b15801561132257600080fd5b505af1158015611336573d6000803e3d6000fd5b505050506040513d601f19601f8201168201806040525081019061135a9190612c99565b50505050565b60405173ffffffffffffffffffffffffffffffffffffffff84169082156108fc029083906000818181858888f1935050505015801561135a573d6000803e3d6000fd5b60006107ff338484611ea8565b60006113bd8686866120f6565b6040517fa4c0ed3600000000000000000000000000000000000000000000000000000000815273ffffffffffffffffffffffffffffffffffffffff86169063a4c0ed369061116c908990889088908890600401612d7a565b6000611422338686611d99565b6040517eba451f00000000000000000000000000000000000000000000000000000000815273ffffffffffffffffffffffffffffffffffffffff86169062ba451f90610eb3903390889088908890600401612d7a565b73ffffffffffffffffffffffffffffffffffffffff87166114f5576040517f08c379a000000000000000000000000000000000000000000000000000000000815260206004820152601460248201527f494e56414c49445f5a45524f5f414444524553530000000000000000000000006044820152606401610886565b73ffffffffffffffffffffffffffffffffffffffff87811660008181526003602090815260408083205481517f6e71edae12b1b97f4d1f60370fef10105fa2faae0126114a169c64845d6126c98185015280830195909552948b166060850152608084018a905260a0840185905260c08085018a90528151808603909101815260e0850190915280519101207f19010000000000000000000000000000000000000000000000000000000000006101008401527f00000000000000000000000000000000000000000000000000000000000000006101028401526101228301529061014201604080517fffffffffffffffffffffffffffffffffffffffffffffffffffffffffffffffe081840301815282825280516020918201206000845290830180835281905260ff8816918301919091526060820186905260808201859052915060019060a0016020604051602081039080840390855afa158015611660573d6000803e3d6000fd5b5050506020604051035173ffffffffffffffffffffffffffffffffffffffff168973ffffffffffffffffffffffffffffffffffffffff16146116fe576040517f08c379a000000000000000000000000000000000000000000000000000000000815260206004820152601160248201527f494e56414c49445f5349474e41545552450000000000000000000000000000006044820152606401610886565b85158061170b5750854211155b611771576040517f08c379a000000000000000000000000000000000000000000000000000000000815260206004820152600860248201527f544f4f5f4c4154450000000000000000000000000000000000000000000000006044820152606401610886565b61177c826001612e1d565b73ffffffffffffffffffffffffffffffffffffffff8a166000908152600360205260409020556117ad898989611d99565b505050505050505050565b600073ffffffffffffffffffffffffffffffffffffffff83163014156117ff57507fffffffffffffffffffffffffffffffffffffffffffffffffffffffffffffffff610803565b5073ffffffffffffffffffffffffffffffffffffffff918216600090815260026020908152604080832093909416825291909152205490565b6000806118458534612c5e565b90506118518582612c21565b34146118b9576040517f08c379a000000000000000000000000000000000000000000000000000000000815260206004820152601160248201527f494e56414c49445f4d53475f56414c55450000000000000000000000000000006044820152606401610886565b848314611922576040517f08c379a000000000000000000000000000000000000000000000000000000000815260206004820152600f60248201527f4e4f545f53414d455f4c454e47544800000000000000000000000000000000006044820152606401610886565b60005b858110156109ca576119763388888481811061194357611943612cc9565b9050602002016020810190611958919061287f565b87878581811061196a5761196a612cc9565b90506020020135611ea8565b86868281811061198857611988612cc9565b905060200201602081019061199d919061287f565b73ffffffffffffffffffffffffffffffffffffffff166108fc839081150290604051600060405180830381858888f193505050501580156119e2573d6000803e3d6000fd5b50806119ed81612cf8565b915050611925565b6000611a02338484611ea8565b60405173ffffffffffffffffffffffffffffffffffffffff8416903480156108fc02916000818181858888f19350505050158015610d1e573d6000803e3d6000fd5b7fb53127684a568b3173ae13b9f8a6016e243e63b6e8ee1178d6a717850b5d61035473ffffffffffffffffffffffffffffffffffffffff163373ffffffffffffffffffffffffffffffffffffffff1614611afa576040517f08c379a000000000000000000000000000000000000000000000000000000000815260206004820152600e60248201527f4e4f545f415554484f52495a45440000000000000000000000000000000000006044820152606401610886565b61135a84848484612409565b600080868514611b72576040517f08c379a000000000000000000000000000000000000000000000000000000000815260206004820152601560248201527f544f4b454e5f4e4f545f53414d455f4c454e47544800000000000000000000006044820152606401610886565b868314611bdb576040517f08c379a000000000000000000000000000000000000000000000000000000000815260206004820152601360248201527f4554485f4e4f545f53414d455f4c454e475448000000000000000000000000006044820152606401610886565b60005b87811015611d2157868682818110611bf857611bf8612cc9565b90506020020135600014611c4357611c43338a8a84818110611c1c57611c1c612cc9565b9050602002016020810190611c31919061287f565b89898581811061196a5761196a612cc9565b848482818110611c5557611c55612cc9565b90506020020135600014611d0f57888882818110611c7557611c75612cc9565b9050602002016020810190611c8a919061287f565b73ffffffffffffffffffffffffffffffffffffffff166108fc868684818110611cb557611cb5612cc9565b905060200201359081150290604051600060405180830381858888f19350505050158015611ce7573d6000803e3d6000fd5b50848482818110611cfa57611cfa612cc9565b9050602002013582611d0c9190612e1d565b91505b80611d1981612cf8565b915050611bde565b50803414611d8b576040517f08c379a000000000000000000000000000000000000000000000000000000000815260206004820152601160248201527f494e56414c49445f4d53475f56414c55450000000000000000000000000000006044820152606401610886565b506001979650505050505050565b73ffffffffffffffffffffffffffffffffffffffff831615801590611dd3575073ffffffffffffffffffffffffffffffffffffffff821615155b611e39576040517f08c379a000000000000000000000000000000000000000000000000000000000815260206004820152601460248201527f494e56414c49445f5a45524f5f414444524553530000000000000000000000006044820152606401610886565b73ffffffffffffffffffffffffffffffffffffffff83811660008181526002602090815260408083209487168084529482529182902085905590518481527f8c5be1e5ebec7d5bd14f71427d1e84f3dd0314c0f7b2291e5b200ac8c7c3b92591015b60405180910390a3505050565b73ffffffffffffffffffffffffffffffffffffffff8216611f25576040517f08c379a000000000000000000000000000000000000000000000000000000000815260206004820152601460248201527f494e56414c49445f5a45524f5f414444524553530000000000000000000000006044820152606401610886565b73ffffffffffffffffffffffffffffffffffffffff8216301415611fa5576040517f08c379a000000000000000000000000000000000000000000000000000000000815260206004820152601460248201527f494e56414c49445f544849535f414444524553530000000000000000000000006044820152606401610886565b73ffffffffffffffffffffffffffffffffffffffff831660009081526001602052604090205481811015612035576040517f08c379a000000000000000000000000000000000000000000000000000000000815260206004820152601160248201527f4e4f545f454e4f5547485f544f4b454e530000000000000000000000000000006044820152606401610886565b61203f8282612cb2565b73ffffffffffffffffffffffffffffffffffffffff8086166000908152600160205260408082209390935590851681529081208054849290612082908490612e1d565b925050819055508273ffffffffffffffffffffffffffffffffffffffff168473ffffffffffffffffffffffffffffffffffffffff167fddf252ad1be2c89b69c2b068fc378daa952ba7f163c4a11628f55a4df523b3ef846040516120e891815260200190565b60405180910390a350505050565b3373ffffffffffffffffffffffffffffffffffffffff841614801590612132575073ffffffffffffffffffffffffffffffffffffffff83163014155b156122375773ffffffffffffffffffffffffffffffffffffffff831660009081526002602090815260408083203384529091529020547fffffffffffffffffffffffffffffffffffffffffffffffffffffffffffffffff811461223557818110156121f9576040517f08c379a000000000000000000000000000000000000000000000000000000000815260206004820152601760248201527f4e4f545f415554484f495a45445f414c4c4f57414e43450000000000000000006044820152606401610886565b6122038282612cb2565b73ffffffffffffffffffffffffffffffffffffffff851660009081526002602090815260408083203384529091529020555b505b611100838383611ea8565b806000808282546122539190612e1d565b909155505073ffffffffffffffffffffffffffffffffffffffff82166000908152600160205260408120805483929061228d908490612e1d565b909155505060405181815273ffffffffffffffffffffffffffffffffffffffff8316906000907fddf252ad1be2c89b69c2b068fc378daa952ba7f163c4a11628f55a4df523b3ef9060200160405180910390a35050565b73ffffffffffffffffffffffffffffffffffffffff821660009081526001602052604090205481811015612374576040517f08c379a000000000000000000000000000000000000000000000000000000000815260206004820152601160248201527f4e4f545f454e4f5547485f544f4b454e530000000000000000000000000000006044820152606401610886565b61237e8282612cb2565b73ffffffffffffffffffffffffffffffffffffffff8416600090815260016020526040812091909155805483919081906123b9908490612cb2565b909155505060405182815260009073ffffffffffffffffffffffffffffffffffffffff8516907fddf252ad1be2c89b69c2b068fc378daa952ba7f163c4a11628f55a4df523b3ef90602001611e9b565b8373ffffffffffffffffffffffffffffffffffffffff166124487fa38643e3ed511bdab6502b0aaa1583180356304eba44dc9c3bbd0d9bf66e67f95490565b73ffffffffffffffffffffffffffffffffffffffff16146124d1577fa38643e3ed511bdab6502b0aaa1583180356304eba44dc9c3bbd0d9bf66e67f984905560405173ffffffffffffffffffffffffffffffffffffffff851681527f9042ac61da85d5d05a958fe5e62e488f34ff55bfed59cf03c54c4a18c2531ff99060200160405180910390a15b7f000000000000000000000000000000000000000000000000000000000000000073ffffffffffffffffffffffffffffffffffffffff161580159061254b57507f000000000000000000000000000000000000000000000000000000000000000073ffffffffffffffffffffffffffffffffffffffff1615155b1561135a576040517f095ea7b300000000000000000000000000000000000000000000000000000000815273ffffffffffffffffffffffffffffffffffffffff7f0000000000000000000000000000000000000000000000000000000000000000811660048301527fffffffffffffffffffffffffffffffffffffffffffffffffffffffffffffffff60248301527f0000000000000000000000000000000000000000000000000000000000000000169063095ea7b390604401602060405180830381600087803b15801561261f57600080fd5b505af1158015612633573d6000803e3d6000fd5b505050506040513d601f19601f820116820180604052508101906126579190612db0565b506040517ff716a92b00000000000000000000000000000000000000000000000000000000815230600482015247907f000000000000000000000000000000000000000000000000000000000000000073ffffffffffffffffffffffffffffffffffffffff169063f716a92b9083906024016020604051808303818588803b1580156126e257600080fd5b505af11580156126f6573d6000803e3d6000fd5b50505050506040513d601f19601f8201168201806040525081019061271b9190612c99565b505050505050565b600060208083528351808285015260005b8181101561275057858101830151858201604001528201612734565b81811115612762576000604083870101525b50601f017fffffffffffffffffffffffffffffffffffffffffffffffffffffffffffffffe016929092016040019392505050565b73ffffffffffffffffffffffffffffffffffffffff811681146127b857600080fd5b50565b600080604083850312156127ce57600080fd5b82356127d981612796565b946020939093013593505050565b60008083601f8401126127f957600080fd5b50813567ffffffffffffffff81111561281157600080fd5b6020830191508360208260051b850101111561282c57600080fd5b9250929050565b60008060006040848603121561284857600080fd5b833567ffffffffffffffff81111561285f57600080fd5b61286b868287016127e7565b909790965060209590950135949350505050565b60006020828403121561289157600080fd5b813561289c81612796565b9392505050565b6000806000606084860312156128b857600080fd5b83356128c381612796565b925060208401356128d381612796565b929592945050506040919091013590565b60008083601f8401126128f657600080fd5b50813567ffffffffffffffff81111561290e57600080fd5b60208301915083602082850101111561282c57600080fd5b6000806000806060858703121561293c57600080fd5b843561294781612796565b935060208501359250604085013567ffffffffffffffff81111561296a57600080fd5b612976878288016128e4565b95989497509550505050565b60008060008060006080868803121561299a57600080fd5b85356129a581612796565b945060208601356129b581612796565b935060408601359250606086013567ffffffffffffffff8111156129d857600080fd5b6129e4888289016128e4565b969995985093965092949392505050565b600080600080600080600060e0888a031215612a1057600080fd5b8735612a1b81612796565b96506020880135612a2b81612796565b95506040880135945060608801359350608088013560ff81168114612a4f57600080fd5b9699959850939692959460a0840135945060c09093013592915050565b60008060408385031215612a7f57600080fd5b8235612a8a81612796565b91506020830135612a9a81612796565b809150509250929050565b60008060008060408587031215612abb57600080fd5b843567ffffffffffffffff80821115612ad357600080fd5b612adf888389016127e7565b90965094506020870135915080821115612af857600080fd5b50612976878288016127e7565b60008060008060808587031215612b1b57600080fd5b8435612b2681612796565b9350602085013592506040850135612b3d81612796565b91506060850135612b4d81612796565b939692955090935050565b60008060008060008060608789031215612b7157600080fd5b863567ffffffffffffffff80821115612b8957600080fd5b612b958a838b016127e7565b90985096506020890135915080821115612bae57600080fd5b612bba8a838b016127e7565b90965094506040890135915080821115612bd357600080fd5b50612be089828a016127e7565b979a9699509497509295939492505050565b7f4e487b7100000000000000000000000000000000000000000000000000000000600052601160045260246000fd5b6000817fffffffffffffffffffffffffffffffffffffffffffffffffffffffffffffffff0483118215151615612c5957612c59612bf2565b500290565b600082612c94577f4e487b7100000000000000000000000000000000000000000000000000000000600052601260045260246000fd5b500490565b600060208284031215612cab57600080fd5b5051919050565b600082821015612cc457612cc4612bf2565b500390565b7f4e487b7100000000000000000000000000000000000000000000000000000000600052603260045260246000fd5b60007fffffffffffffffffffffffffffffffffffffffffffffffffffffffffffffffff821415612d2a57612d2a612bf2565b5060010190565b8183528181602085013750600060208284010152600060207fffffffffffffffffffffffffffffffffffffffffffffffffffffffffffffffe0601f840116840101905092915050565b73ffffffffffffffffffffffffffffffffffffffff851681528360208201526060604082015260006111be606083018486612d31565b600060208284031215612dc257600080fd5b8151801515811461289c57600080fd5b600073ffffffffffffffffffffffffffffffffffffffff808816835280871660208401525084604083015260806060830152612e12608083018486612d31565b979650505050505050565b60008219821115612e3057612e30612bf2565b50019056fea2646970667358221220746464131a809855e9367e7bbf3587c4fc6628725e6887dbe708c21c7d44da3764736f6c63430008090033a38643e3ed511bdab6502b0aaa1583180356304eba44dc9c3bbd0d9bf66e67f9",
  "devdoc": {
    "kind": "dev",
    "methods": {
      "allowance(address,address)": {
        "details": "Returns the remaining number of tokens that `spender` will be allowed to spend on behalf of `owner` through {transferFrom}. This is zero by default. This value changes when {approve} or {transferFrom} are called."
      },
      "approve(address,uint256)": {
        "details": "Sets `amount` as the allowance of `spender` over the caller's tokens. Returns a boolean value indicating whether the operation succeeded. IMPORTANT: Beware that changing an allowance with this method brings the risk that someone may use both the old and the new allowance by unfortunate transaction ordering. One possible solution to mitigate this race condition is to first reduce the spender's allowance to 0 and set the desired value afterwards: https://github.com/ethereum/EIPs/issues/20#issuecomment-263524729 Emits an {Approval} event."
      },
      "totalSupply()": {
        "details": "Returns the amount of tokens in existence."
      }
    },
    "version": 1
  },
  "userdoc": {
    "kind": "user",
    "methods": {},
    "version": 1
  },
  "storageLayout": {
    "storage": [
      {
        "astId": 13274,
        "contract": "src/conquest_token/PlayToken.sol:PlayToken",
        "label": "_totalSupply",
        "offset": 0,
        "slot": "0",
        "type": "t_uint256"
      },
      {
        "astId": 13278,
        "contract": "src/conquest_token/PlayToken.sol:PlayToken",
        "label": "_balances",
        "offset": 0,
        "slot": "1",
        "type": "t_mapping(t_address,t_uint256)"
      },
      {
        "astId": 13284,
        "contract": "src/conquest_token/PlayToken.sol:PlayToken",
        "label": "_allowances",
        "offset": 0,
        "slot": "2",
        "type": "t_mapping(t_address,t_mapping(t_address,t_uint256))"
      },
      {
        "astId": 14240,
        "contract": "src/conquest_token/PlayToken.sol:PlayToken",
        "label": "_nonces",
        "offset": 0,
        "slot": "3",
        "type": "t_mapping(t_address,t_uint256)"
      }
    ],
    "types": {
      "t_address": {
        "encoding": "inplace",
        "label": "address",
        "numberOfBytes": "20"
      },
      "t_mapping(t_address,t_mapping(t_address,t_uint256))": {
        "encoding": "mapping",
        "key": "t_address",
        "label": "mapping(address => mapping(address => uint256))",
        "numberOfBytes": "32",
        "value": "t_mapping(t_address,t_uint256)"
      },
      "t_mapping(t_address,t_uint256)": {
        "encoding": "mapping",
        "key": "t_address",
        "label": "mapping(address => uint256)",
        "numberOfBytes": "32",
        "value": "t_uint256"
      },
      "t_uint256": {
        "encoding": "inplace",
        "label": "uint256",
        "numberOfBytes": "32"
      }
    }
  }
}