{
  "address": "0x5216d4e3EA09F305b8F7786288Efa2B810bDb8b9",
  "abi": [
    {
      "inputs": [
        {
          "components": [
            {
              "internalType": "contract StakingToken",
              "name": "stakingToken",
              "type": "address"
            },
            {
              "internalType": "contract IFreePlayToken",
              "name": "freeStakingToken",
              "type": "address"
            },
            {
              "internalType": "contract AllianceRegistry",
              "name": "allianceRegistry",
              "type": "address"
            },
            {
              "internalType": "bytes32",
              "name": "genesis",
              "type": "bytes32"
            },
            {
              "internalType": "uint256",
              "name": "resolveWindow",
              "type": "uint256"
            },
            {
              "internalType": "uint256",
              "name": "timePerDistance",
              "type": "uint256"
            },
            {
              "internalType": "uint256",
              "name": "exitDuration",
              "type": "uint256"
            },
            {
              "internalType": "uint32",
              "name": "acquireNumSpaceships",
              "type": "uint32"
            },
            {
              "internalType": "uint32",
              "name": "productionSpeedUp",
              "type": "uint32"
            },
            {
              "internalType": "uint256",
              "name": "frontrunningDelay",
              "type": "uint256"
            },
            {
              "internalType": "uint256",
              "name": "productionCapAsDuration",
              "type": "uint256"
            },
            {
              "internalType": "uint256",
              "name": "upkeepProductionDecreaseRatePer10000th",
              "type": "uint256"
            },
            {
              "internalType": "uint256",
              "name": "fleetSizeFactor6",
              "type": "uint256"
            },
            {
              "internalType": "uint32",
              "name": "initialSpaceExpansion",
              "type": "uint32"
            },
            {
              "internalType": "uint32",
              "name": "expansionDelta",
              "type": "uint32"
            },
            {
              "internalType": "uint256",
              "name": "giftTaxPer10000",
              "type": "uint256"
            },
            {
              "internalType": "bytes32",
              "name": "stakeRange",
              "type": "bytes32"
            },
            {
              "internalType": "uint256",
              "name": "stakeMultiplier10000th",
              "type": "uint256"
            },
            {
              "internalType": "uint256",
              "name": "bootstrapSessionEndTime",
              "type": "uint256"
            },
            {
              "internalType": "uint256",
              "name": "infinityStartTime",
              "type": "uint256"
            }
          ],
          "internalType": "struct OuterSpaceFacetBase.Config",
          "name": "config",
          "type": "tuple"
        }
      ],
      "stateMutability": "nonpayable",
      "type": "constructor"
    },
    {
      "anonymous": false,
      "inputs": [
        {
          "indexed": true,
          "internalType": "address",
          "name": "owner",
          "type": "address"
        },
        {
          "indexed": true,
          "internalType": "address",
          "name": "operator",
          "type": "address"
        },
        {
          "indexed": false,
          "internalType": "bool",
          "name": "approved",
          "type": "bool"
        }
      ],
      "name": "ApprovalForAll",
      "type": "event"
    },
    {
      "anonymous": false,
      "inputs": [
        {
          "indexed": false,
          "internalType": "uint256",
          "name": "block",
          "type": "uint256"
        },
        {
          "indexed": false,
          "internalType": "uint256",
          "name": "timestamp",
          "type": "uint256"
        }
      ],
      "name": "BlockTime",
      "type": "event"
    },
    {
      "anonymous": false,
      "inputs": [
        {
          "indexed": true,
          "internalType": "address",
          "name": "owner",
          "type": "address"
        },
        {
          "indexed": true,
          "internalType": "uint256",
          "name": "location",
          "type": "uint256"
        },
        {
          "indexed": false,
          "internalType": "uint256",
          "name": "stake",
          "type": "uint256"
        }
      ],
      "name": "ExitComplete",
      "type": "event"
    },
    {
      "anonymous": false,
      "inputs": [
        {
          "indexed": true,
          "internalType": "uint256",
          "name": "fleet",
          "type": "uint256"
        },
        {
          "indexed": true,
          "internalType": "address",
          "name": "fleetOwner",
          "type": "address"
        },
        {
          "indexed": true,
          "internalType": "address",
          "name": "destinationOwner",
          "type": "address"
        },
        {
          "indexed": false,
          "internalType": "uint256",
          "name": "destination",
          "type": "uint256"
        },
        {
          "indexed": false,
          "internalType": "bool",
          "name": "gift",
          "type": "bool"
        },
        {
          "indexed": false,
          "internalType": "bool",
          "name": "won",
          "type": "bool"
        },
        {
          "components": [
            {
              "internalType": "uint32",
              "name": "newNumspaceships",
              "type": "uint32"
            },
            {
              "internalType": "int40",
              "name": "newTravelingUpkeep",
              "type": "int40"
            },
            {
              "internalType": "uint32",
              "name": "newOverflow",
              "type": "uint32"
            },
            {
              "internalType": "uint32",
              "name": "numSpaceshipsAtArrival",
              "type": "uint32"
            },
            {
              "internalType": "uint32",
              "name": "taxLoss",
              "type": "uint32"
            },
            {
              "internalType": "uint32",
              "name": "fleetLoss",
              "type": "uint32"
            },
            {
              "internalType": "uint32",
              "name": "planetLoss",
              "type": "uint32"
            },
            {
              "internalType": "uint32",
              "name": "inFlightFleetLoss",
              "type": "uint32"
            },
            {
              "internalType": "uint32",
              "name": "inFlightPlanetLoss",
              "type": "uint32"
            },
            {
              "internalType": "uint32",
              "name": "accumulatedDefenseAdded",
              "type": "uint32"
            },
            {
              "internalType": "uint32",
              "name": "accumulatedAttackAdded",
              "type": "uint32"
            }
          ],
          "indexed": false,
          "internalType": "struct ImportingOuterSpaceEvents.ArrivalData",
          "name": "data",
          "type": "tuple"
        }
      ],
      "name": "FleetArrived",
      "type": "event"
    },
    {
      "anonymous": false,
      "inputs": [
        {
          "indexed": true,
          "internalType": "uint256",
          "name": "fleetId",
          "type": "uint256"
        },
        {
          "indexed": true,
          "internalType": "uint256",
          "name": "from",
          "type": "uint256"
        },
        {
          "indexed": true,
          "internalType": "uint256",
          "name": "to",
          "type": "uint256"
        },
        {
          "indexed": false,
          "internalType": "uint256",
          "name": "arrivalTimeWanted",
          "type": "uint256"
        },
        {
          "indexed": false,
          "internalType": "bool",
          "name": "gift",
          "type": "bool"
        },
        {
          "indexed": false,
          "internalType": "address",
          "name": "specific",
          "type": "address"
        },
        {
          "indexed": false,
          "internalType": "bytes32",
          "name": "secret",
          "type": "bytes32"
        },
        {
          "indexed": false,
          "internalType": "address",
          "name": "fleetSender",
          "type": "address"
        },
        {
          "indexed": false,
          "internalType": "address",
          "name": "operator",
          "type": "address"
        }
      ],
      "name": "FleetRevealed",
      "type": "event"
    },
    {
      "anonymous": false,
      "inputs": [
        {
          "indexed": true,
          "internalType": "address",
          "name": "fleetSender",
          "type": "address"
        },
        {
          "indexed": true,
          "internalType": "address",
          "name": "fleetOwner",
          "type": "address"
        },
        {
          "indexed": true,
          "internalType": "uint256",
          "name": "from",
          "type": "uint256"
        },
        {
          "indexed": false,
          "internalType": "address",
          "name": "operator",
          "type": "address"
        },
        {
          "indexed": false,
          "internalType": "uint256",
          "name": "fleet",
          "type": "uint256"
        },
        {
          "indexed": false,
          "internalType": "uint32",
          "name": "quantity",
          "type": "uint32"
        },
        {
          "indexed": false,
          "internalType": "uint32",
          "name": "newNumSpaceships",
          "type": "uint32"
        },
        {
          "indexed": false,
          "internalType": "int40",
          "name": "newTravelingUpkeep",
          "type": "int40"
        },
        {
          "indexed": false,
          "internalType": "uint32",
          "name": "newOverflow",
          "type": "uint32"
        }
      ],
      "name": "FleetSent",
      "type": "event"
    },
    {
      "anonymous": false,
      "inputs": [
        {
          "indexed": false,
          "internalType": "address",
          "name": "newGeneratorAdmin",
          "type": "address"
        }
      ],
      "name": "GeneratorAdminChanged",
      "type": "event"
    },
    {
      "anonymous": false,
      "inputs": [
        {
          "indexed": false,
          "internalType": "address",
          "name": "newGenerator",
          "type": "address"
        }
      ],
      "name": "GeneratorChanged",
      "type": "event"
    },
    {
      "anonymous": false,
      "inputs": [
        {
          "indexed": false,
          "internalType": "bytes32",
          "name": "genesis",
          "type": "bytes32"
        },
        {
          "indexed": false,
          "internalType": "uint256",
          "name": "resolveWindow",
          "type": "uint256"
        },
        {
          "indexed": false,
          "internalType": "uint256",
          "name": "timePerDistance",
          "type": "uint256"
        },
        {
          "indexed": false,
          "internalType": "uint256",
          "name": "exitDuration",
          "type": "uint256"
        },
        {
          "indexed": false,
          "internalType": "uint32",
          "name": "acquireNumSpaceships",
          "type": "uint32"
        },
        {
          "indexed": false,
          "internalType": "uint32",
          "name": "productionSpeedUp",
          "type": "uint32"
        },
        {
          "indexed": false,
          "internalType": "uint256",
          "name": "frontrunningDelay",
          "type": "uint256"
        },
        {
          "indexed": false,
          "internalType": "uint256",
          "name": "productionCapAsDuration",
          "type": "uint256"
        },
        {
          "indexed": false,
          "internalType": "uint256",
          "name": "upkeepProductionDecreaseRatePer10000th",
          "type": "uint256"
        },
        {
          "indexed": false,
          "internalType": "uint256",
          "name": "fleetSizeFactor6",
          "type": "uint256"
        },
        {
          "indexed": false,
          "internalType": "uint32",
          "name": "initialSpaceExpansion",
          "type": "uint32"
        },
        {
          "indexed": false,
          "internalType": "uint32",
          "name": "expansionDelta",
          "type": "uint32"
        },
        {
          "indexed": false,
          "internalType": "uint256",
          "name": "giftTaxPer10000",
          "type": "uint256"
        }
      ],
      "name": "Initialized",
      "type": "event"
    },
    {
      "anonymous": false,
      "inputs": [
        {
          "indexed": true,
          "internalType": "address",
          "name": "owner",
          "type": "address"
        },
        {
          "indexed": true,
          "internalType": "uint256",
          "name": "location",
          "type": "uint256"
        }
      ],
      "name": "PlanetExit",
      "type": "event"
    },
    {
      "anonymous": false,
      "inputs": [
        {
          "indexed": true,
          "internalType": "uint256",
          "name": "location",
          "type": "uint256"
        }
      ],
      "name": "PlanetReset",
      "type": "event"
    },
    {
      "anonymous": false,
      "inputs": [
        {
          "indexed": true,
          "internalType": "address",
          "name": "acquirer",
          "type": "address"
        },
        {
          "indexed": true,
          "internalType": "uint256",
          "name": "location",
          "type": "uint256"
        },
        {
          "indexed": false,
          "internalType": "uint32",
          "name": "numSpaceships",
          "type": "uint32"
        },
        {
          "indexed": false,
          "internalType": "int40",
          "name": "travelingUpkeep",
          "type": "int40"
        },
        {
          "indexed": false,
          "internalType": "uint32",
          "name": "overflow",
          "type": "uint32"
        },
        {
          "indexed": false,
          "internalType": "uint256",
          "name": "stake",
          "type": "uint256"
        },
        {
          "indexed": false,
          "internalType": "bool",
          "name": "freegift",
          "type": "bool"
        }
      ],
      "name": "PlanetStake",
      "type": "event"
    },
    {
      "anonymous": false,
      "inputs": [
        {
          "indexed": true,
          "internalType": "address",
          "name": "previousOwner",
          "type": "address"
        },
        {
          "indexed": true,
          "internalType": "address",
          "name": "newOwner",
          "type": "address"
        },
        {
          "indexed": true,
          "internalType": "uint256",
          "name": "location",
          "type": "uint256"
        },
        {
          "indexed": false,
          "internalType": "uint32",
          "name": "newNumspaceships",
          "type": "uint32"
        },
        {
          "indexed": false,
          "internalType": "int40",
          "name": "newTravelingUpkeep",
          "type": "int40"
        },
        {
          "indexed": false,
          "internalType": "uint32",
          "name": "newOverflow",
          "type": "uint32"
        }
      ],
      "name": "PlanetTransfer",
      "type": "event"
    },
    {
      "anonymous": false,
      "inputs": [
        {
          "indexed": true,
          "internalType": "uint256",
          "name": "location",
          "type": "uint256"
        },
        {
          "indexed": true,
          "internalType": "address",
          "name": "giver",
          "type": "address"
        },
        {
          "indexed": false,
          "internalType": "uint256",
          "name": "rewardId",
          "type": "uint256"
        }
      ],
      "name": "RewardSetup",
      "type": "event"
    },
    {
      "anonymous": false,
      "inputs": [
        {
          "indexed": true,
          "internalType": "address",
          "name": "owner",
          "type": "address"
        },
        {
          "indexed": true,
          "internalType": "uint256",
          "name": "location",
          "type": "uint256"
        },
        {
          "indexed": true,
          "internalType": "uint256",
          "name": "rewardId",
          "type": "uint256"
        }
      ],
      "name": "RewardToWithdraw",
      "type": "event"
    },
    {
      "anonymous": false,
      "inputs": [
        {
          "indexed": true,
          "internalType": "address",
          "name": "owner",
          "type": "address"
        },
        {
          "indexed": false,
          "internalType": "uint256",
          "name": "newStake",
          "type": "uint256"
        },
        {
          "indexed": false,
          "internalType": "bool",
          "name": "freegift",
          "type": "bool"
        }
      ],
      "name": "StakeToWithdraw",
      "type": "event"
    },
    {
      "anonymous": false,
      "inputs": [
        {
          "indexed": true,
          "internalType": "address",
          "name": "from",
          "type": "address"
        },
        {
          "indexed": true,
          "internalType": "address",
          "name": "to",
          "type": "address"
        },
        {
          "indexed": true,
          "internalType": "uint256",
          "name": "location",
          "type": "uint256"
        }
      ],
      "name": "Transfer",
      "type": "event"
    },
    {
      "anonymous": false,
      "inputs": [
        {
          "indexed": true,
          "internalType": "uint256",
          "name": "origin",
          "type": "uint256"
        },
        {
          "indexed": true,
          "internalType": "uint256",
          "name": "fleet",
          "type": "uint256"
        },
        {
          "indexed": false,
          "internalType": "uint32",
          "name": "newNumspaceships",
          "type": "uint32"
        },
        {
          "indexed": false,
          "internalType": "int40",
          "name": "newTravelingUpkeep",
          "type": "int40"
        },
        {
          "indexed": false,
          "internalType": "uint32",
          "name": "newOverflow",
          "type": "uint32"
        }
      ],
      "name": "TravelingUpkeepRefund",
      "type": "event"
    },
    {
      "inputs": [
        {
          "internalType": "uint256[]",
          "name": "locations",
          "type": "uint256[]"
        },
        {
          "internalType": "uint256",
          "name": "amount",
          "type": "uint256"
        }
      ],
      "name": "acquireMultipleViaFreeTokenTransferFrom",
      "outputs": [],
      "stateMutability": "nonpayable",
      "type": "function"
    },
    {
      "inputs": [
        {
          "internalType": "uint256[]",
          "name": "locations",
          "type": "uint256[]"
        },
        {
          "internalType": "uint256",
          "name": "amountToMint",
          "type": "uint256"
        },
        {
          "internalType": "uint256",
          "name": "tokenAmount",
          "type": "uint256"
        }
      ],
      "name": "acquireMultipleViaNativeTokenAndStakingToken",
      "outputs": [],
      "stateMutability": "payable",
      "type": "function"
    },
    {
      "inputs": [
        {
          "internalType": "uint256[]",
          "name": "locations",
          "type": "uint256[]"
        },
        {
          "internalType": "uint256",
          "name": "amount",
          "type": "uint256"
        }
      ],
      "name": "acquireMultipleViaTransferFrom",
      "outputs": [],
      "stateMutability": "nonpayable",
      "type": "function"
    },
    {
      "inputs": [
        {
          "internalType": "uint256",
          "name": "location",
          "type": "uint256"
        },
        {
          "internalType": "uint256",
          "name": "amount",
          "type": "uint256"
        }
      ],
      "name": "acquireViaFreeTokenTransferFrom",
      "outputs": [],
      "stateMutability": "nonpayable",
      "type": "function"
    },
    {
      "inputs": [
        {
          "internalType": "uint256",
          "name": "location",
          "type": "uint256"
        },
        {
          "internalType": "uint256",
          "name": "amountToMint",
          "type": "uint256"
        },
        {
          "internalType": "uint256",
          "name": "tokenAmount",
          "type": "uint256"
        }
      ],
      "name": "acquireViaNativeTokenAndStakingToken",
      "outputs": [],
      "stateMutability": "payable",
      "type": "function"
    },
    {
      "inputs": [
        {
          "internalType": "uint256",
          "name": "location",
          "type": "uint256"
        },
        {
          "internalType": "uint256",
          "name": "amount",
          "type": "uint256"
        }
      ],
      "name": "acquireViaTransferFrom",
      "outputs": [],
      "stateMutability": "nonpayable",
      "type": "function"
    },
    {
      "inputs": [
        {
          "internalType": "address",
          "name": "owner",
          "type": "address"
        }
      ],
      "name": "balanceToWithdraw",
      "outputs": [
        {
          "internalType": "uint256",
          "name": "",
          "type": "uint256"
        }
      ],
      "stateMutability": "view",
      "type": "function"
    },
    {
      "inputs": [
        {
          "internalType": "address",
          "name": "owner",
          "type": "address"
        },
        {
          "internalType": "uint256",
          "name": "location",
          "type": "uint256"
        }
      ],
      "name": "exitFor",
      "outputs": [],
      "stateMutability": "nonpayable",
      "type": "function"
    },
    {
      "inputs": [
        {
          "internalType": "address",
          "name": "owner",
          "type": "address"
        },
        {
          "internalType": "uint256[]",
          "name": "locations",
          "type": "uint256[]"
        }
      ],
      "name": "exitMultipleFor",
      "outputs": [],
      "stateMutability": "nonpayable",
      "type": "function"
    },
    {
      "inputs": [
        {
          "internalType": "address",
          "name": "owner",
          "type": "address"
        },
        {
          "internalType": "uint256[]",
          "name": "locations",
          "type": "uint256[]"
        }
      ],
      "name": "fetchAndWithdrawFor",
      "outputs": [],
      "stateMutability": "nonpayable",
      "type": "function"
    },
    {
      "inputs": [
        {
          "internalType": "address",
          "name": "",
          "type": "address"
        },
        {
          "internalType": "address",
          "name": "forAddress",
          "type": "address"
        },
        {
          "internalType": "uint256",
          "name": "amount",
          "type": "uint256"
        },
        {
          "internalType": "bytes",
          "name": "data",
          "type": "bytes"
        }
      ],
      "name": "onTokenPaidFor",
      "outputs": [
        {
          "internalType": "bool",
          "name": "",
          "type": "bool"
        }
      ],
      "stateMutability": "nonpayable",
      "type": "function"
    },
    {
      "inputs": [
        {
          "internalType": "address",
          "name": "",
          "type": "address"
        },
        {
          "internalType": "uint256",
          "name": "amount",
          "type": "uint256"
        },
        {
          "internalType": "bytes",
          "name": "data",
          "type": "bytes"
        }
      ],
      "name": "onTokenTransfer",
      "outputs": [
        {
          "internalType": "bool",
          "name": "",
          "type": "bool"
        }
      ],
      "stateMutability": "nonpayable",
      "type": "function"
    },
    {
      "inputs": [
        {
          "internalType": "address",
          "name": "owner",
          "type": "address"
        }
      ],
      "name": "withdrawFor",
      "outputs": [],
      "stateMutability": "nonpayable",
      "type": "function"
    }
  ],
  "contractName": "OuterSpaceStakingFacet",
  "sourceName": "src/outerspace/facets/OuterSpaceStakingFacet.sol",
  "bytecode": "0x6103006040523480156200001257600080fd5b5060405162004c2238038062004c228339810160408190526200003591620001ff565b80600060048260a001516200004b919062000333565b60a08301519091506200006082600462000365565b63ffffffff1614620000b85760405162461bcd60e51b815260206004820152601d60248201527f54494d455f5045525f444953545f4e4f545f444956495349424c455f34000000604482015260640160405180910390fd5b81516001600160a01b0390811660809081526020840151821660a052604084015190911660c0908152606084015160e09081529184015161010090815263ffffffff93841661012090815291850151610140908152928501518416610160908152908501518416610180908152918501516101a0908152928501516101c0908152908501516101e09081529185015161020090815292850151841661022090815290850151909316610240908152908401516102609081529184015161028052918301516102a052908201516102c05201516102e05250620003a0565b60405161028081016001600160401b0381118282101715620001c757634e487b7160e01b600052604160045260246000fd5b60405290565b80516001600160a01b0381168114620001e557600080fd5b919050565b805163ffffffff81168114620001e557600080fd5b600061028082840312156200021357600080fd5b6200021d62000195565b6200022883620001cd565b81526200023860208401620001cd565b60208201526200024b60408401620001cd565b6040820152606083015160608201526080830151608082015260a083015160a082015260c083015160c08201526200028660e08401620001ea565b60e08201526101006200029b818501620001ea565b9082015261012083810151908201526101408084015190820152610160808401519082015261018080840151908201526101a0620002db818501620001ea565b908201526101c0620002ef848201620001ea565b908201526101e08381015190820152610200808401519082015261022080840151908201526102408084015190820152610260928301519281019290925250919050565b600063ffffffff808416806200035957634e487b7160e01b600052601260045260246000fd5b92169190910492915050565b600063ffffffff808316818516818304811182151516156200039757634e487b7160e01b600052601160045260246000fd5b02949350505050565b60805160a05160c05160e05161010051610120516101405161016051610180516101a0516101c0516101e05161020051610220516102405161026051610280516102a0516102c0516102e0516146a0620005826000396000818161125201526132a001526000818161120a015281816112310152818161324a01526132740152600061112f015260008181611150015261119c01526000505060008181612cae01528181612d9301528181612e800152612f6b015260005050600081816138c3015281816138f60152818161397701526139aa01526000818161223401528181612385015261283e0152600081816120e3015281816127cd015261370b015260005050600081816120970152818161218a01528181612262015281816122e00152612431015260008181612670015281816126bb01528181612754015281816127920152613749015260006132dc01526000505060005050600081816102e2015281816119f101528181611c4e0152611fa90152600050506000818161044d01528181610531015281816108d701528181610a1d015261351e01526000818161061401528181610772015281816108340152818161091d01528181610a6301528181610e2801528181610fae0152818161107a015261163301526146a06000f3fe6080604052600436106100d25760003560e01c8063a4c0ed361161007f578063b9a1e84611610059578063b9a1e84614610201578063c956083814610221578063e2e9b07914610272578063f7e111e71461029257600080fd5b8063a4c0ed36146101a1578063afc82370146101c1578063b4c27385146101e157600080fd5b8063861399e7116100b0578063861399e7146101395780639b6be0651461014c5780639eca672c1461018157600080fd5b80630f05b7f6146100d75780632f646f95146100f95780637ba423fb14610119575b600080fd5b3480156100e357600080fd5b506100f76100f2366004613e4d565b6102a5565b005b34801561010557600080fd5b506100f7610114366004613e92565b6104d1565b34801561012557600080fd5b506100f7610134366004613e92565b6105b4565b6100f7610147366004613eb4565b610643565b34801561015857600080fd5b5061016c610167366004613f70565b6108bc565b60405190151581526020015b60405180910390f35b34801561018d57600080fd5b506100f761019c366004613fe3565b6109ce565b3480156101ad57600080fd5b5061016c6101bc366004614000565b610a02565b3480156101cd57600080fd5b506100f76101dc36600461405c565b610c2b565b3480156101ed57600080fd5b506100f76101fc366004613e4d565b610cf4565b34801561020d57600080fd5b506100f761021c366004614088565b610e57565b34801561022d57600080fd5b5061026461023c366004613fe3565b73ffffffffffffffffffffffffffffffffffffffff1660009081526002602052604090205490565b604051908152602001610178565b34801561027e57600080fd5b506100f761028d366004614088565b610f51565b6100f76102a0366004614110565b610f5c565b336000805b845181101561038c576000655af3107a400061033461032f8885815181106102d4576102d461413c565b6020026020010151604080517f00000000000000000000000000000000000000000000000000000000000000006020820152908101829052600090606001604051602081830303815290604052805190602001209050919050565b6110a9565b63ffffffff16610344919061419a565b905061036c848288858151811061035d5761035d61413c565b60200260200101516001611208565b61037681846141d7565b9250508080610384906141ef565b9150506102aa565b508083146103fb576040517f08c379a000000000000000000000000000000000000000000000000000000000815260206004820152600e60248201527f494e56414c49445f414d4f554e5400000000000000000000000000000000000060448201526064015b60405180910390fd5b6040517f23b872dd00000000000000000000000000000000000000000000000000000000815273ffffffffffffffffffffffffffffffffffffffff8381166004830152306024830152604482018590527f000000000000000000000000000000000000000000000000000000000000000016906323b872dd906064015b602060405180830381600087803b15801561049257600080fd5b505af11580156104a6573d6000803e3d6000fd5b505050506040513d601f19601f820116820180604052508101906104ca9190614228565b5050505050565b336104df8183856001611208565b6040517f23b872dd00000000000000000000000000000000000000000000000000000000815273ffffffffffffffffffffffffffffffffffffffff8281166004830152306024830152604482018490527f000000000000000000000000000000000000000000000000000000000000000016906323b872dd906064015b602060405180830381600087803b15801561057657600080fd5b505af115801561058a573d6000803e3d6000fd5b505050506040513d601f19601f820116820180604052508101906105ae9190614228565b50505050565b336105c28183856000611208565b6040517f23b872dd00000000000000000000000000000000000000000000000000000000815273ffffffffffffffffffffffffffffffffffffffff8281166004830152306024830152604482018490527f000000000000000000000000000000000000000000000000000000000000000016906323b872dd9060640161055c565b336000805b85518110156106ca576000655af3107a400061067261032f8985815181106102d4576102d461413c565b63ffffffff16610682919061419a565b90506106aa848289858151811061069b5761069b61413c565b60200260200101516000611208565b6106b481846141d7565b92505080806106c2906141ef565b915050610648565b50806106d684866141d7565b1461073d576040517f08c379a000000000000000000000000000000000000000000000000000000000815260206004820152600e60248201527f494e56414c49445f414d4f554e5400000000000000000000000000000000000060448201526064016103f2565b6040517f40c10f19000000000000000000000000000000000000000000000000000000008152306004820152602481018590527f000000000000000000000000000000000000000000000000000000000000000073ffffffffffffffffffffffffffffffffffffffff16906340c10f199034906044016000604051808303818588803b1580156107cc57600080fd5b505af11580156107e0573d6000803e3d6000fd5b50506040517f23b872dd00000000000000000000000000000000000000000000000000000000815273ffffffffffffffffffffffffffffffffffffffff8681166004830152306024830152604482018890527f00000000000000000000000000000000000000000000000000000000000000001693506323b872dd92506064019050602060405180830381600087803b15801561087c57600080fd5b505af1158015610890573d6000803e3d6000fd5b505050506040513d601f19601f820116820180604052508101906108b49190614228565b505050505050565b6000803373ffffffffffffffffffffffffffffffffffffffff7f0000000000000000000000000000000000000000000000000000000000000000161415610905575060016109a4565b3373ffffffffffffffffffffffffffffffffffffffff7f000000000000000000000000000000000000000000000000000000000000000016146109a4576040517f08c379a000000000000000000000000000000000000000000000000000000000815260206004820152600d60248201527f494e56414c49445f45524332300000000000000000000000000000000000000060448201526064016103f2565b60006109b28486018661424a565b90506109c087878385611208565b506001979650505050505050565b73ffffffffffffffffffffffffffffffffffffffff81166000908152600260205260409020546109fe8282611585565b5050565b6000803373ffffffffffffffffffffffffffffffffffffffff7f0000000000000000000000000000000000000000000000000000000000000000161415610a4b57506001610aea565b3373ffffffffffffffffffffffffffffffffffffffff7f00000000000000000000000000000000000000000000000000000000000000001614610aea576040517f08c379a000000000000000000000000000000000000000000000000000000000815260206004820152600d60248201527f494e56414c49445f45524332300000000000000000000000000000000000000060448201526064016103f2565b6040831115610bfd57600080610b0285870187614263565b915091506000805b8251811015610b8b576000655af3107a4000610b3461032f8685815181106102d4576102d461413c565b63ffffffff16610b44919061419a565b9050610b6b8582868581518110610b5d57610b5d61413c565b602002602001015189611208565b610b7581846141d7565b9250508080610b83906141ef565b915050610b0a565b50808814610bf5576040517f08c379a000000000000000000000000000000000000000000000000000000000815260206004820152600e60248201527f494e56414c49445f414d4f554e5400000000000000000000000000000000000060448201526064016103f2565b505050610c1f565b600080610c0c8587018761405c565b91509150610c1c82888386611208565b50505b50600195945050505050565b3373ffffffffffffffffffffffffffffffffffffffff83168114610ce55773ffffffffffffffffffffffffffffffffffffffff80841660009081526003602090815260408083209385168352929052205460ff16610ce5576040517f08c379a000000000000000000000000000000000000000000000000000000000815260206004820152601660248201527f4e4f545f415554484f52495a45445f544f5f53454e440000000000000000000060448201526064016103f2565b610cef838361176b565b505050565b336000805b8451811015610d6c576000655af3107a4000610d2361032f8885815181106102d4576102d461413c565b63ffffffff16610d33919061419a565b9050610d4c848288858151811061069b5761069b61413c565b610d5681846141d7565b9250508080610d64906141ef565b915050610cf9565b50808314610dd6576040517f08c379a000000000000000000000000000000000000000000000000000000000815260206004820152600e60248201527f494e56414c49445f414d4f554e5400000000000000000000000000000000000060448201526064016103f2565b6040517f23b872dd00000000000000000000000000000000000000000000000000000000815273ffffffffffffffffffffffffffffffffffffffff8381166004830152306024830152604482018590527f000000000000000000000000000000000000000000000000000000000000000016906323b872dd90606401610478565b3373ffffffffffffffffffffffffffffffffffffffff84168114610f115773ffffffffffffffffffffffffffffffffffffffff80851660009081526003602090815260408083209385168352929052205460ff16610f11576040517f08c379a000000000000000000000000000000000000000000000000000000000815260206004820152601660248201527f4e4f545f415554484f52495a45445f544f5f53454e440000000000000000000060448201526064016103f2565b8160005b818110156108b457610f3f86868684818110610f3357610f3361413c565b9050602002013561176b565b80610f49816141ef565b915050610f15565b610cef838383611a53565b33610f7381610f6b84866141d7565b866000611208565b8215611022576040517f40c10f19000000000000000000000000000000000000000000000000000000008152306004820152602481018490527f000000000000000000000000000000000000000000000000000000000000000073ffffffffffffffffffffffffffffffffffffffff16906340c10f199034906044016000604051808303818588803b15801561100857600080fd5b505af115801561101c573d6000803e3d6000fd5b50505050505b81156105ae576040517f23b872dd00000000000000000000000000000000000000000000000000000000815273ffffffffffffffffffffffffffffffffffffffff8281166004830152306024830152604482018490527f000000000000000000000000000000000000000000000000000000000000000016906323b872dd90606401610478565b60006110b482611de5565b61111a576040517f08c379a000000000000000000000000000000000000000000000000000000000815260206004820152601160248201527f504c414e45545f4e4f545f45584953545300000000000000000000000000000060448201526064016103f2565b600061112783600c611e01565b905060ff81167f00000000000000000000000000000000000000000000000000000000000000007f000000000000000000000000000000000000000000000000000000000000000061117a8360026142b3565b6111859060016142dd565b61ffff16602081106111995761119961413c565b1a7f00000000000000000000000000000000000000000000000000000000000000006111c68460026142b3565b61ffff16602081106111da576111da61413c565b6111e891901a6101006142b3565b6111f291906142dd565b61ffff16611200919061419a565b949350505050565b7f0000000000000000000000000000000000000000000000000000000000000000156112e957427f00000000000000000000000000000000000000000000000000000000000000007f00000000000000000000000000000000000000000000000000000000000000008183108061127f5750808310155b6112e5576040517f08c379a000000000000000000000000000000000000000000000000000000000815260206004820152600660248201527f504155534544000000000000000000000000000000000000000000000000000060448201526064016103f2565b5050505b60008281526020819052604081206040805160e081018252825473ffffffffffffffffffffffffffffffffffffffff8116825264ffffffffff74010000000000000000000000000000000000000000820481166020840152790100000000000000000000000000000000000000000000000000909104811692820192909252600183015463ffffffff8082166060840152640100000000820490931660808301526901000000000000000000810460040b60a08301526e010000000000000000000000000000900490911660c08201529091506000906113c99085611e9d565b9050655af3107a40006113e08261014001516110a9565b63ffffffff166113f0919061419a565b8514611458576040517f08c379a000000000000000000000000000000000000000000000000000000000815260206004820152601460248201527f494e56414c49445f5354414b455f414d4f554e5400000000000000000000000060448201526064016103f2565b61146181612005565b61146b86826124ed565b6114778282600061289f565b61148084612bba565b821561149c576000848152600b602052604090204290556114ac565b6000848152600b60205260408120555b604080514381524260208201527f438e507c246c311193c77528e3de231eec8ce4727cce091a1dbbecf85b427893910160405180910390a1838673ffffffffffffffffffffffffffffffffffffffff167f9b17abd3d9e9f2eb79e7b7c875e68b77a80c7379ba64ec6ac0d1c254d303269b836060015184608001518560e001518a8960405161156e95949392919063ffffffff958616815260049490940b60208501529190931660408301526060820192909252901515608082015260a00190565b60405180910390a36108b48161012001518661309a565b73ffffffffffffffffffffffffffffffffffffffff821660008181526002602090815260408083208390558051858152918201929092527f05eefb5f2a67125e8c65550a4ffa0f542f75624e866ef58fb72bfb5475403092910160405180910390a26040517fa9059cbb00000000000000000000000000000000000000000000000000000000815273ffffffffffffffffffffffffffffffffffffffff8381166004830152602482018390527f0000000000000000000000000000000000000000000000000000000000000000169063a9059cbb90604401602060405180830381600087803b15801561167757600080fd5b505af115801561168b573d6000803e3d6000fd5b505050506040513d601f19601f820116820180604052508101906116af9190614228565b611715576040517f08c379a000000000000000000000000000000000000000000000000000000000815260206004820152600f60248201527f4641494c45445f5452414e53464552000000000000000000000000000000000060448201526064016103f2565b604080516000808252602082015273ffffffffffffffffffffffffffffffffffffffff8416917f05eefb5f2a67125e8c65550a4ffa0f542f75624e866ef58fb72bfb547540309291015b60405180910390a25050565b600081815260208190526040812060018101549091906117909063ffffffff16613197565b509050806117fa576040517f08c379a000000000000000000000000000000000000000000000000000000000815260206004820152600a60248201527f4e4f545f4143544956450000000000000000000000000000000000000000000060448201526064016103f2565b815473ffffffffffffffffffffffffffffffffffffffff85811691161461187d576040517f08c379a000000000000000000000000000000000000000000000000000000000815260206004820152600960248201527f4e4f545f4f574e4552000000000000000000000000000000000000000000000060448201526064016103f2565b8154790100000000000000000000000000000000000000000000000000900464ffffffffff161561190a576040517f08c379a000000000000000000000000000000000000000000000000000000000815260206004820152600f60248201527f45584954494e475f414c5245414459000000000000000000000000000000000060448201526064016103f2565b81547fffff0000000000ffffffffffffffffffffffffffffffffffffffffffffffffff167901000000000000000000000000000000000000000000000000004264ffffffffff8116919091029190911783556040805143815260208101929092527f438e507c246c311193c77528e3de231eec8ce4727cce091a1dbbecf85b427893910160405180910390a1604051839073ffffffffffffffffffffffffffffffffffffffff8616907fb9182e4e152947f1e6691fa0ee6f68f21f607fed825945c270e69995acad805f90600090a36105ae84655af3107a4000611a3e61032f87604080517f00000000000000000000000000000000000000000000000000000000000000006020820152908101829052600090606001604051602081830303815290604052805190602001209050919050565b63ffffffff16611a4e919061419a565b6131b6565b60008060005b83811015611d61576000611a90868684818110611a7857611a7861413c565b90506020020135600090815260208190526040902090565b8054909150611ac290790100000000000000000000000000000000000000000000000000900464ffffffffff16613231565b15611d4e57805473ffffffffffffffffffffffffffffffffffffffff888116911614611b4a576040517f08c379a000000000000000000000000000000000000000000000000000000000815260206004820152600960248201527f4e4f545f4f574e4552000000000000000000000000000000000000000000000060448201526064016103f2565b858583818110611b5c57611b5c61413c565b90506020020135600073ffffffffffffffffffffffffffffffffffffffff168873ffffffffffffffffffffffffffffffffffffffff167fddf252ad1be2c89b69c2b068fc378daa952ba7f163c4a11628f55a4df523b3ef60405160405180910390a46000600b6000888886818110611bd657611bd661413c565b9050602002013581526020019081526020016000205490506000811115611cb1578154611ca09073ffffffffffffffffffffffffffffffffffffffff16888886818110611c2557611c2561413c565b90506020020135611c9b8a8a88818110611c4157611c4161413c565b90506020020135604080517f00000000000000000000000000000000000000000000000000000000000000006020820152908101829052600090606001604051602081830303815290604052805190602001209050919050565b61330f565b611caa90856141d7565b9350611cec565b8154611cdf9073ffffffffffffffffffffffffffffffffffffffff16888886818110611c2557611c2561413c565b611ce990866141d7565b94505b5080547fffff0000000000000000000000000000000000000000000000000000000000001681556001810180547fffffffffffffffffffffffffffff0000000000000000000000000000000000001664010000000064ffffffffff4216021790555b5080611d59816141ef565b915050611a59565b5073ffffffffffffffffffffffffffffffffffffffff8516600090815260026020526040812054611d939084906141d7565b9050611d9f8682611585565b73ffffffffffffffffffffffffffffffffffffffff86166000908152600a6020526040812054611dd09084906141d7565b9050611ddc878261346d565b50505050505050565b6000611df4826034601061364f565b60ff166001149050919050565b600080611e108484604061364f565b90506000611e1f600283614332565b90506000611e2e600284614354565b905060007f01223334444555555666666677777777888888889999999aaaaaabbbbcccddef60ff841660208110611e6757611e6761413c565b1a905060ff8216611e855760048160ff16901c945050505050611e97565b611e90601082614354565b9450505050505b92915050565b6040805161018081018252600080825260208201819052918101829052606081018290526080810182905260a0810182905260c0810182905260e08101829052610100810182905261012081018290526101408101829052610160810191909152600080611f0e8560600151613197565b85855260808088015164ffffffffff908116602088015283151560408089019190915263ffffffff80851660608a015260a0808c015160040b948a0194909452908a01805183169389019390935291511660c0808801919091528801511660e0860152865173ffffffffffffffffffffffffffffffffffffffff9081166101008701528751166101208601529092509050611ff684604080517f00000000000000000000000000000000000000000000000000000000000000006020820152908101829052600090606001604051602081830303815290604052805190602001209050919050565b61014084015250909392505050565b60a081015164ffffffffff1615612056576120238160a00151613231565b1561205657600060c082018190526060820181905260808201819052610120820181905260e08201819052604090910152565b6000816020015164ffffffffff164261206f9190614376565b90506000612081836101400151613664565b90506000610e1061ffff83166120bd63ffffffff7f0000000000000000000000000000000000000000000000000000000000000000168661419a565b6120c7919061419a565b6120d1919061438d565b606085015190915063ffffffff1660007f00000000000000000000000000000000000000000000000000000000000000001561240757600061211285613701565b905060008760400151612126576000612128565b815b90508084111561220e5760e08801516107089063ffffffff161561217a57828960e0015163ffffffff1661070861215f919061419a565b612169919061438d565b905061070881101561217a57506107085b6000610e10826121b063ffffffff7f0000000000000000000000000000000000000000000000000000000000000000168c61419a565b6121ba919061419a565b6121c4919061438d565b9050806121cf575060015b6121d98387614376565b8111156121ed576121ea8387614376565b90505b8960400151156121fb578094505b6122058187614376565b95505050612370565b8760400151156123705760008590506000896080015160040b13156123365760006127107f000000000000000000000000000000000000000000000000000000000000000061228761ffff8b1663ffffffff7f00000000000000000000000000000000000000000000000000000000000000001661419a565b612291919061419a565b61229b919061438d565b60808b01516122b39064ffffffffff16610e1061419a565b6122bd919061438d565b90508881106122ce57819450612328565b610e1061ffff891661230663ffffffff7f0000000000000000000000000000000000000000000000000000000000000000168461419a565b612310919061419a565b61231a919061438d565b945081851115612328578194505b6123328583614376565b9150505b60006123428684614376565b905080821115612366576123568183614376565b61236090866141d7565b94508091505b61220582876141d7565b876040015115612400576000836127106123aa7f00000000000000000000000000000000000000000000000000000000000000008961419a565b6123b4919061438d565b6123be91906141d7565b905060008160040b8a6080015160040b6123d891906143a1565b90506123e383614415565b8112156123f6576123f383614415565b90505b60040b60808a0152505b505061248f565b8560400151156124225761241b83836141d7565b915061248f565b6000610e1061245763ffffffff7f0000000000000000000000000000000000000000000000000000000000000000168861419a565b6124639061070861419a565b61246d919061438d565b905082811115612480575060009161248d565b61248a8184614376565b92505b505b638000000082106124b2576124a96001638000000061444e565b63ffffffff1691505b63ffffffff8216606087015260408601511580156124d85750606086015163ffffffff16155b156108b4576000610120870152505050505050565b806040015115612559576040517f08c379a000000000000000000000000000000000000000000000000000000000815260206004820152600c60248201527f5354494c4c5f414354495645000000000000000000000000000000000000000060448201526064016103f2565b6000816060015163ffffffff16600014156125875761257c82610140015161376e565b61ffff169050612621565b8273ffffffffffffffffffffffffffffffffffffffff1682610100015173ffffffffffffffffffffffffffffffffffffffff1614612621576040517f08c379a000000000000000000000000000000000000000000000000000000000815260206004820152600860248201527f4f4343555049454400000000000000000000000000000000000000000000000060448201526064016103f2565b6000612631836101400151613664565b9050600061263e82613701565b73ffffffffffffffffffffffffffffffffffffffff8616610120860152905063ffffffff8316156127905760006126b67f000000000000000000000000000000000000000000000000000000000000000063ffffffff168563ffffffff166127106126ad896101400151613805565b61ffff1661389c565b5090507f000000000000000000000000000000000000000000000000000000000000000063ffffffff168163ffffffff161061274e576040517f08c379a000000000000000000000000000000000000000000000000000000000815260206004820152600f60248201527f4641494c45445f4341505455524544000000000000000000000000000000000060448201526064016103f2565b612778817f000000000000000000000000000000000000000000000000000000000000000061444e565b63ffffffff16606086015250600060e0850152612831565b7f0000000000000000000000000000000000000000000000000000000000000000846060018181516127c29190614473565b63ffffffff169052507f000000000000000000000000000000000000000000000000000000000000000015612831578063ffffffff16846060015163ffffffff16111561282957808460600151612819919061444e565b63ffffffff1660e0850152612831565b600060e08501525b60608401516127106128697f000000000000000000000000000000000000000000000000000000000000000063ffffffff851661419a565b612873919061438d565b61287c90614492565b61288691906144d1565b60030b6080850152505060016040909201919091525050565b60008260a0015164ffffffffff161180156128c3575060c082015164ffffffffff16155b156128d1576128d182613a3d565b81610120015173ffffffffffffffffffffffffffffffffffffffff1682610100015173ffffffffffffffffffffffffffffffffffffffff1614612a365761012082015183547fffffffffffffffffffffffff00000000000000000000000000000000000000001673ffffffffffffffffffffffffffffffffffffffff9091169081178455156129a55782547fffffffffffffff0000000000ffffffffffffffffffffffffffffffffffffffff16740100000000000000000000000000000000000000004264ffffffffff16021783556129cc565b82547fffffffffffffff0000000000ffffffffffffffffffffffffffffffffffffffff1683555b816000015182610120015173ffffffffffffffffffffffffffffffffffffffff1683610100015173ffffffffffffffffffffffffffffffffffffffff167fddf252ad1be2c89b69c2b068fc378daa952ba7f163c4a11628f55a4df523b3ef60405160405180910390a45b8015612a675782547fffff0000000000ffffffffffffffffffffffffffffffffffffffffffffffffff168355612ad8565b8160a0015164ffffffffff168260c0015164ffffffffff1614612ad85760c0820151835464ffffffffff909116790100000000000000000000000000000000000000000000000000027fffff0000000000ffffffffffffffffffffffffffffffffffffffffffffffffff9091161783555b612aea82604001518360600151613bc8565b60019093018054608084015160e0909401514264ffffffffff908116640100000000027fffffffffffffffffffffffffffffffffffffffffffffff0000000000ffffffff63ffffffff9384166e01000000000000000000000000000002167fffffffffffffffffffffffffffff00000000ffffffffff0000000000ffffffff929097166901000000000000000000027fffffffffffffffffffffffffffffffffffff0000000000ffffffffff00000000909416979092169690961791909117949094169290921792909217905550565b604080516080808201835260055463ffffffff80821684526401000000008204811660208501526801000000000000000082048116948401949094526c0100000000000000000000000090049092166060820152906fffffffffffffffffffffffffffffffff8316600f0b9083901d600080831215612d1a57835163ffffffff16612c4484614415565b1315612cac576040517f08c379a000000000000000000000000000000000000000000000000000000000815260206004820152601660248201527f4e4f545f524541434841424c455f5945545f4d494e580000000000000000000060448201526064016103f2565b7f000000000000000000000000000000000000000000000000000000000000000060030b612cd984614415565b612ce39190614536565b925063ffffffff831315612cf95763ffffffff92505b835163ffffffff16831315612d15575063ffffffff8216835260015b612df9565b836020015163ffffffff16831315612d8e576040517f08c379a000000000000000000000000000000000000000000000000000000000815260206004820152601660248201527f4e4f545f524541434841424c455f5945545f4d4158580000000000000000000060448201526064016103f2565b612dbb7f000000000000000000000000000000000000000000000000000000000000000060030b84614536565b925063ffffffff831315612dd15763ffffffff92505b8263ffffffff16846020015163ffffffff161015612df9575063ffffffff8216602084015260015b6000821215612ef257604084015163ffffffff16612e1683614415565b1315612e7e576040517f08c379a000000000000000000000000000000000000000000000000000000000815260206004820152601660248201527f4e4f545f524541434841424c455f5945545f4d494e590000000000000000000060448201526064016103f2565b7f000000000000000000000000000000000000000000000000000000000000000060030b612eab83614415565b612eb59190614536565b915063ffffffff821315612ecb5763ffffffff91505b81846040015163ffffffff161215612eed575063ffffffff8116604084015260015b612fcb565b836060015163ffffffff16821315612f66576040517f08c379a000000000000000000000000000000000000000000000000000000000815260206004820152601660248201527f4e4f545f524541434841424c455f5945545f4d4158590000000000000000000060448201526064016103f2565b612f937f000000000000000000000000000000000000000000000000000000000000000060030b83614536565b915063ffffffff821315612fa95763ffffffff91505b81846060015163ffffffff161215612fcb575063ffffffff8116606084015260015b80156104ca5783516005805460208701516040880151606089015163ffffffff9081166c01000000000000000000000000027fffffffffffffffffffffffffffffffff00000000ffffffffffffffffffffffff9282166801000000000000000002929092167fffffffffffffffffffffffffffffffff0000000000000000ffffffffffffffff938216640100000000027fffffffffffffffffffffffffffffffffffffffffffffffff000000000000000090951691909616179290921716929092179190911790555050505050565b6109fe6130c57f27ec6af4a6510eb9b7e0cc7f39415b7f15e430e53eb0cd3997e7c7e0cf680f6e5490565b60405173ffffffffffffffffffffffffffffffffffffffff85166024820152604481018490527ff5d82b6b00000000000000000000000000000000000000000000000000000000906064015b604080517fffffffffffffffffffffffffffffffffffffffffffffffffffffffffffffffe08184030181529190526020810180517bffffffffffffffffffffffffffffffffffffffffffffffffffffffff167fffffffff000000000000000000000000000000000000000000000000000000009093169290921790915262017700613bee565b63800000008181168114906000906131af90846145aa565b9050915091565b6109fe6131e17f27ec6af4a6510eb9b7e0cc7f39415b7f15e430e53eb0cd3997e7c7e0cf680f6e5490565b60405173ffffffffffffffffffffffffffffffffffffffff85166024820152604481018490527fabe7f1ab0000000000000000000000000000000000000000000000000000000090606401613111565b600064ffffffffff821661324757506000919050565b427f00000000000000000000000000000000000000000000000000000000000000001580159061329757507f00000000000000000000000000000000000000000000000000000000000000008110155b80156132c957507f00000000000000000000000000000000000000000000000000000000000000008364ffffffffff16105b156132d75750600192915050565b6133087f000000000000000000000000000000000000000000000000000000000000000064ffffffffff85166141d7565b1092915050565b6000655af3107a4000613321836110a9565b63ffffffff16613331919061419a565b604080514381524260208201529192507f438e507c246c311193c77528e3de231eec8ce4727cce091a1dbbecf85b427893910160405180910390a1828473ffffffffffffffffffffffffffffffffffffffff167f1c363b29828a892b7cddafe9583ef52e0d5aca0ea7011bda6ccf039e1781f738836040516133b591815260200190565b60405180910390a360008381526007602052604090205480156134655773ffffffffffffffffffffffffffffffffffffffff85166000818152600860209081526040808320858452825280832080547fffffffffffffffffffffffffffffffffffffffffffffffffffffffffffffff001660011790558783526007909152808220829055518392879290917f74f110a1e0cd4892234c7ba49df9f8a354cd8d29b272f7557c9b8c3c38a653369190a45b509392505050565b73ffffffffffffffffffffffffffffffffffffffff82166000818152600a602090815260408083209290925581518481526001918101919091527f05eefb5f2a67125e8c65550a4ffa0f542f75624e866ef58fb72bfb5475403092910160405180910390a26040517fa9059cbb00000000000000000000000000000000000000000000000000000000815273ffffffffffffffffffffffffffffffffffffffff8381166004830152602482018390527f0000000000000000000000000000000000000000000000000000000000000000169063a9059cbb90604401602060405180830381600087803b15801561356257600080fd5b505af1158015613576573d6000803e3d6000fd5b505050506040513d601f19601f8201168201806040525081019061359a9190614228565b613600576040517f08c379a000000000000000000000000000000000000000000000000000000000815260206004820152600f60248201527f4641494c45445f5452414e53464552000000000000000000000000000000000060448201526064016103f2565b60408051600081526001602082015273ffffffffffffffffffffffffffffffffffffffff8416917f05eefb5f2a67125e8c65550a4ffa0f542f75624e866ef58fb72bfb5475403092910161175f565b600061120060ff80841690851686901c6145cd565b600061366f82611de5565b6136d5576040517f08c379a000000000000000000000000000000000000000000000000000000000815260206004820152601160248201527f504c414e45545f4e4f545f45584953545300000000000000000000000000000060448201526064016103f2565b611e9782600c7f0708083409600a8c0bb80ce40e100e100e100e101068151819c81e7823282ee0613ceb565b6000610e106137347f000000000000000000000000000000000000000000000000000000000000000061ffff851661419a565b61373e919061438d565b611e979063ffffffff7f0000000000000000000000000000000000000000000000000000000000000000166141d7565b600061377982611de5565b6137df576040517f08c379a000000000000000000000000000000000000000000000000000000000815260206004820152601160248201527f504c414e45545f4e4f545f45584953545300000000000000000000000000000060448201526064016103f2565b6137ea82602c611e01565b6137f99060ff16610bb86142b3565b611e9790613a986142dd565b600061381082611de5565b613876576040517f08c379a000000000000000000000000000000000000000000000000000000000815260206004820152601160248201527f504c414e45545f4e4f545f45584953545300000000000000000000000000000060448201526064016103f2565b61388182601c611e01565b6138909060ff166101906142b3565b611e9790610fa06142dd565b6000808515806138aa575084155b156138ba57506000905080613a34565b6000856138e7887f000000000000000000000000000000000000000000000000000000000000000061419a565b6138f1919061438d565b61391e7f0000000000000000000000000000000000000000000000000000000000000000620f4240614376565b61392891906141d7565b613932908861419a565b90506000620f424085613945888561419a565b61394f919061438d565b613959919061438d565b90508087111561396e57879350809250613a31565b60008861399b897f000000000000000000000000000000000000000000000000000000000000000061419a565b6139a5919061438d565b6139d27f0000000000000000000000000000000000000000000000000000000000000000620f4240614376565b6139dc91906141d7565b6139e6908961419a565b90506000620f4240886139f9898561419a565b613a03919061438d565b613a0d919061438d565b63ffffffff169050898110613a2a57613a2760018b614376565b90505b9450879350505b50505b94509492505050565b6000613a58826101000151836000015184610140015161330f565b82516000908152600b60205260409020549091508015613b245761010083015173ffffffffffffffffffffffffffffffffffffffff166000908152600a6020526040812054613aa89084906141d7565b6101008501805173ffffffffffffffffffffffffffffffffffffffff9081166000908152600a6020908152604091829020859055925181518581526001948101949094529394509216917f05eefb5f2a67125e8c65550a4ffa0f542f75624e866ef58fb72bfb547540309291015b60405180910390a250505050565b61010083015173ffffffffffffffffffffffffffffffffffffffff16600090815260026020526040812054613b5a9084906141d7565b6101008501805173ffffffffffffffffffffffffffffffffffffffff9081166000908152600260209081526040808320869055935184518681529182019290925293945016917f05eefb5f2a67125e8c65550a4ffa0f542f75624e866ef58fb72bfb54754030929101613b16565b60008183613bd7576000613bdd565b63800000005b613be79190614473565b9392505050565b73ffffffffffffffffffffffffffffffffffffffff831615610cef578273ffffffffffffffffffffffffffffffffffffffff168183604051613c3091906145e1565b60006040518083038160008787f1925050503d8060008114613c6e576040519150601f19603f3d011682016040523d82523d6000602084013e613c73565b606091505b505050603f81613c83919061438d565b5a11610cef576040517f08c379a000000000000000000000000000000000000000000000000000000000815260206004820152601d60248201527f4e4f545f454e4f5547485f4741535f464f525f494e4e45525f43414c4c00000060448201526064016103f2565b600080613cf88585611e01565b905082613d0682600261461c565b613d11906001614645565b60ff1660208110613d2457613d2461413c565b1a83613d3183600261461c565b60ff1660208110613d4457613d4461413c565b613d5291901a6101006142b3565b613d5c91906142dd565b95945050505050565b7f4e487b7100000000000000000000000000000000000000000000000000000000600052604160045260246000fd5b600082601f830112613da557600080fd5b8135602067ffffffffffffffff80831115613dc257613dc2613d65565b8260051b6040517fffffffffffffffffffffffffffffffffffffffffffffffffffffffffffffffe0603f83011681018181108482111715613e0557613e05613d65565b604052938452858101830193838101925087851115613e2357600080fd5b83870191505b84821015613e4257813583529183019190830190613e29565b979650505050505050565b60008060408385031215613e6057600080fd5b823567ffffffffffffffff811115613e7757600080fd5b613e8385828601613d94565b95602094909401359450505050565b60008060408385031215613ea557600080fd5b50508035926020909101359150565b600080600060608486031215613ec957600080fd5b833567ffffffffffffffff811115613ee057600080fd5b613eec86828701613d94565b9660208601359650604090950135949350505050565b73ffffffffffffffffffffffffffffffffffffffff81168114613f2457600080fd5b50565b60008083601f840112613f3957600080fd5b50813567ffffffffffffffff811115613f5157600080fd5b602083019150836020828501011115613f6957600080fd5b9250929050565b600080600080600060808688031215613f8857600080fd5b8535613f9381613f02565b94506020860135613fa381613f02565b935060408601359250606086013567ffffffffffffffff811115613fc657600080fd5b613fd288828901613f27565b969995985093965092949392505050565b600060208284031215613ff557600080fd5b8135613be781613f02565b6000806000806060858703121561401657600080fd5b843561402181613f02565b935060208501359250604085013567ffffffffffffffff81111561404457600080fd5b61405087828801613f27565b95989497509550505050565b6000806040838503121561406f57600080fd5b823561407a81613f02565b946020939093013593505050565b60008060006040848603121561409d57600080fd5b83356140a881613f02565b9250602084013567ffffffffffffffff808211156140c557600080fd5b818601915086601f8301126140d957600080fd5b8135818111156140e857600080fd5b8760208260051b85010111156140fd57600080fd5b6020830194508093505050509250925092565b60008060006060848603121561412557600080fd5b505081359360208301359350604090920135919050565b7f4e487b7100000000000000000000000000000000000000000000000000000000600052603260045260246000fd5b7f4e487b7100000000000000000000000000000000000000000000000000000000600052601160045260246000fd5b6000817fffffffffffffffffffffffffffffffffffffffffffffffffffffffffffffffff04831182151516156141d2576141d261416b565b500290565b600082198211156141ea576141ea61416b565b500190565b60007fffffffffffffffffffffffffffffffffffffffffffffffffffffffffffffffff8214156142215761422161416b565b5060010190565b60006020828403121561423a57600080fd5b81518015158114613be757600080fd5b60006020828403121561425c57600080fd5b5035919050565b6000806040838503121561427657600080fd5b823561428181613f02565b9150602083013567ffffffffffffffff81111561429d57600080fd5b6142a985828601613d94565b9150509250929050565b600061ffff808316818516818304811182151516156142d4576142d461416b565b02949350505050565b600061ffff8083168185168083038211156142fa576142fa61416b565b01949350505050565b7f4e487b7100000000000000000000000000000000000000000000000000000000600052601260045260246000fd5b600060ff83168061434557614345614303565b8060ff84160491505092915050565b600060ff83168061436757614367614303565b8060ff84160691505092915050565b6000828210156143885761438861416b565b500390565b60008261439c5761439c614303565b500490565b6000808312837f8000000000000000000000000000000000000000000000000000000000000000018312811516156143db576143db61416b565b837f7fffffffffffffffffffffffffffffffffffffffffffffffffffffffffffffff01831381161561440f5761440f61416b565b50500390565b60007f80000000000000000000000000000000000000000000000000000000000000008214156144475761444761416b565b5060000390565b600063ffffffff8381169083168181101561446b5761446b61416b565b039392505050565b600063ffffffff8083168185168083038211156142fa576142fa61416b565b60008160030b7fffffffffffffffffffffffffffffffffffffffffffffffffffffffff800000008114156144c8576144c861416b565b60000392915050565b60008160030b8360030b60008112817fffffffffffffffffffffffffffffffffffffffffffffffffffffffff80000000018312811516156145145761451461416b565b81637fffffff01831381161561452c5761452c61416b565b5090039392505050565b6000808212827f7fffffffffffffffffffffffffffffffffffffffffffffffffffffffffffffff038413811516156145705761457061416b565b827f80000000000000000000000000000000000000000000000000000000000000000384128116156145a4576145a461416b565b50500190565b600063ffffffff808416806145c1576145c1614303565b92169190910692915050565b6000826145dc576145dc614303565b500690565b6000825160005b8181101561460257602081860181015185830152016145e8565b81811115614611576000828501525b509190910192915050565b600060ff821660ff84168160ff048111821515161561463d5761463d61416b565b029392505050565b600060ff821660ff84168060ff038211156146625761466261416b565b01939250505056fea264697066735822122031c4369840ac2c4a261ce0a0f6627b5af7cd6e7b971f22d05b05e2618c8b924164736f6c63430008090033",
  "linkReferences": {},
  "deployedLinkReferences": {},
  "immutableReferences": {
    "11573": [
      {
        "length": 32,
        "start": 1556
      },
      {
        "length": 32,
        "start": 1906
      },
      {
        "length": 32,
        "start": 2100
      },
      {
        "length": 32,
        "start": 2333
      },
      {
        "length": 32,
        "start": 2659
      },
      {
        "length": 32,
        "start": 3624
      },
      {
        "length": 32,
        "start": 4014
      },
      {
        "length": 32,
        "start": 4218
      },
      {
        "length": 32,
        "start": 5683
      }
    ],
    "11576": [
      {
        "length": 32,
        "start": 1101
      },
      {
        "length": 32,
        "start": 1329
      },
      {
        "length": 32,
        "start": 2263
      },
      {
        "length": 32,
        "start": 2589
      },
      {
        "length": 32,
        "start": 13598
      }
    ],
    "11581": [
      {
        "length": 32,
        "start": 738
      },
      {
        "length": 32,
        "start": 6641
      },
      {
        "length": 32,
        "start": 7246
      },
      {
        "length": 32,
        "start": 8105
      }
    ],
    "11587": [
      {
        "length": 32,
        "start": 13020
      }
    ],
    "11589": [
      {
        "length": 32,
        "start": 9840
      },
      {
        "length": 32,
        "start": 9915
      },
      {
        "length": 32,
        "start": 10068
      },
      {
        "length": 32,
        "start": 10130
      },
      {
        "length": 32,
        "start": 14153
      }
    ],
    "11591": [
      {
        "length": 32,
        "start": 8343
      },
      {
        "length": 32,
        "start": 8586
      },
      {
        "length": 32,
        "start": 8802
      },
      {
        "length": 32,
        "start": 8928
      },
      {
        "length": 32,
        "start": 9265
      }
    ],
    "11595": [
      {
        "length": 32,
        "start": 8419
      },
      {
        "length": 32,
        "start": 10189
      },
      {
        "length": 32,
        "start": 14091
      }
    ],
    "11597": [
      {
        "length": 32,
        "start": 8756
      },
      {
        "length": 32,
        "start": 9093
      },
      {
        "length": 32,
        "start": 10302
      }
    ],
    "11599": [
      {
        "length": 32,
        "start": 14531
      },
      {
        "length": 32,
        "start": 14582
      },
      {
        "length": 32,
        "start": 14711
      },
      {
        "length": 32,
        "start": 14762
      }
    ],
    "11603": [
      {
        "length": 32,
        "start": 11438
      },
      {
        "length": 32,
        "start": 11667
      },
      {
        "length": 32,
        "start": 11904
      },
      {
        "length": 32,
        "start": 12139
      }
    ],
    "11607": [
      {
        "length": 32,
        "start": 4432
      },
      {
        "length": 32,
        "start": 4508
      }
    ],
    "11609": [
      {
        "length": 32,
        "start": 4399
      }
    ],
    "11611": [
      {
        "length": 32,
        "start": 4618
      },
      {
        "length": 32,
        "start": 4657
      },
      {
        "length": 32,
        "start": 12874
      },
      {
        "length": 32,
        "start": 12916
      }
    ],
    "11613": [
      {
        "length": 32,
        "start": 4690
      },
      {
        "length": 32,
        "start": 12960
      }
    ]
  },
  "inputSourceName": "project/src/outerspace/facets/OuterSpaceStakingFacet.sol",
  "devdoc": {
    "kind": "dev",
    "methods": {},
    "version": 1
  },
  "evm": {
    "gasEstimates": {
      "creation": {
        "codeDepositCost": "3616000",
        "executionCost": "infinite",
        "totalCost": "infinite"
      },
      "external": {
        "acquireMultipleViaFreeTokenTransferFrom(uint256[],uint256)": "infinite",
        "acquireMultipleViaNativeTokenAndStakingToken(uint256[],uint256,uint256)": "infinite",
        "acquireMultipleViaTransferFrom(uint256[],uint256)": "infinite",
        "acquireViaFreeTokenTransferFrom(uint256,uint256)": "infinite",
        "acquireViaNativeTokenAndStakingToken(uint256,uint256,uint256)": "infinite",
        "acquireViaTransferFrom(uint256,uint256)": "infinite",
        "balanceToWithdraw(address)": "2551",
        "exitFor(address,uint256)": "infinite",
        "exitMultipleFor(address,uint256[])": "infinite",
        "fetchAndWithdrawFor(address,uint256[])": "infinite",
        "onTokenPaidFor(address,address,uint256,bytes)": "infinite",
        "onTokenTransfer(address,uint256,bytes)": "infinite",
        "withdrawFor(address)": "infinite"
      }
    }
  },
  "storageLayout": {
    "storage": [
      {
        "astId": 11256,
        "contract": "project/src/outerspace/facets/OuterSpaceStakingFacet.sol:OuterSpaceStakingFacet",
        "label": "_planets",
        "offset": 0,
        "slot": "0",
        "type": "t_mapping(t_uint256,t_struct(Planet)18386_storage)"
      },
      {
        "astId": 11261,
        "contract": "project/src/outerspace/facets/OuterSpaceStakingFacet.sol:OuterSpaceStakingFacet",
        "label": "_fleets",
        "offset": 0,
        "slot": "1",
        "type": "t_mapping(t_uint256,t_struct(Fleet)18405_storage)"
      },
      {
        "astId": 11265,
        "contract": "project/src/outerspace/facets/OuterSpaceStakingFacet.sol:OuterSpaceStakingFacet",
        "label": "_stakeReadyToBeWithdrawn",
        "offset": 0,
        "slot": "2",
        "type": "t_mapping(t_address,t_uint256)"
      },
      {
        "astId": 11271,
        "contract": "project/src/outerspace/facets/OuterSpaceStakingFacet.sol:OuterSpaceStakingFacet",
        "label": "_operators",
        "offset": 0,
        "slot": "3",
        "type": "t_mapping(t_address,t_mapping(t_address,t_bool))"
      },
      {
        "astId": 11278,
        "contract": "project/src/outerspace/facets/OuterSpaceStakingFacet.sol:OuterSpaceStakingFacet",
        "label": "_inFlight",
        "offset": 0,
        "slot": "4",
        "type": "t_mapping(t_uint256,t_mapping(t_uint256,t_struct(InFlight)18362_storage))"
      },
      {
        "astId": 11281,
        "contract": "project/src/outerspace/facets/OuterSpaceStakingFacet.sol:OuterSpaceStakingFacet",
        "label": "_discovered",
        "offset": 0,
        "slot": "5",
        "type": "t_struct(Discovered)18371_storage"
      },
      {
        "astId": 11285,
        "contract": "project/src/outerspace/facets/OuterSpaceStakingFacet.sol:OuterSpaceStakingFacet",
        "label": "_prevRewardIds",
        "offset": 0,
        "slot": "6",
        "type": "t_mapping(t_address,t_uint256)"
      },
      {
        "astId": 11289,
        "contract": "project/src/outerspace/facets/OuterSpaceStakingFacet.sol:OuterSpaceStakingFacet",
        "label": "_rewards",
        "offset": 0,
        "slot": "7",
        "type": "t_mapping(t_uint256,t_uint256)"
      },
      {
        "astId": 11295,
        "contract": "project/src/outerspace/facets/OuterSpaceStakingFacet.sol:OuterSpaceStakingFacet",
        "label": "_rewardsToWithdraw",
        "offset": 0,
        "slot": "8",
        "type": "t_mapping(t_address,t_mapping(t_uint256,t_bool))"
      },
      {
        "astId": 11304,
        "contract": "project/src/outerspace/facets/OuterSpaceStakingFacet.sol:OuterSpaceStakingFacet",
        "label": "_attacks",
        "offset": 0,
        "slot": "9",
        "type": "t_mapping(t_uint256,t_mapping(t_address,t_mapping(t_uint256,t_struct(AccumulatedAttack)18501_storage)))"
      },
      {
        "astId": 11308,
        "contract": "project/src/outerspace/facets/OuterSpaceStakingFacet.sol:OuterSpaceStakingFacet",
        "label": "_freeStakeReadyToBeWithdrawn",
        "offset": 0,
        "slot": "10",
        "type": "t_mapping(t_address,t_uint256)"
      },
      {
        "astId": 11312,
        "contract": "project/src/outerspace/facets/OuterSpaceStakingFacet.sol:OuterSpaceStakingFacet",
        "label": "_planetFlagged",
        "offset": 0,
        "slot": "11",
        "type": "t_mapping(t_uint256,t_uint256)"
      }
    ],
    "types": {
      "t_address": {
        "encoding": "inplace",
        "label": "address",
        "numberOfBytes": "20"
      },
      "t_bool": {
        "encoding": "inplace",
        "label": "bool",
        "numberOfBytes": "1"
      },
      "t_int40": {
        "encoding": "inplace",
        "label": "int40",
        "numberOfBytes": "5"
      },
      "t_mapping(t_address,t_bool)": {
        "encoding": "mapping",
        "key": "t_address",
        "label": "mapping(address => bool)",
        "numberOfBytes": "32",
        "value": "t_bool"
      },
      "t_mapping(t_address,t_mapping(t_address,t_bool))": {
        "encoding": "mapping",
        "key": "t_address",
        "label": "mapping(address => mapping(address => bool))",
        "numberOfBytes": "32",
        "value": "t_mapping(t_address,t_bool)"
      },
      "t_mapping(t_address,t_mapping(t_uint256,t_bool))": {
        "encoding": "mapping",
        "key": "t_address",
        "label": "mapping(address => mapping(uint256 => bool))",
        "numberOfBytes": "32",
        "value": "t_mapping(t_uint256,t_bool)"
      },
      "t_mapping(t_address,t_mapping(t_uint256,t_struct(AccumulatedAttack)18501_storage))": {
        "encoding": "mapping",
        "key": "t_address",
        "label": "mapping(address => mapping(uint256 => struct ImportingOuterSpaceTypes.AccumulatedAttack))",
        "numberOfBytes": "32",
        "value": "t_mapping(t_uint256,t_struct(AccumulatedAttack)18501_storage)"
      },
      "t_mapping(t_address,t_uint256)": {
        "encoding": "mapping",
        "key": "t_address",
        "label": "mapping(address => uint256)",
        "numberOfBytes": "32",
        "value": "t_uint256"
      },
      "t_mapping(t_uint256,t_bool)": {
        "encoding": "mapping",
        "key": "t_uint256",
        "label": "mapping(uint256 => bool)",
        "numberOfBytes": "32",
        "value": "t_bool"
      },
      "t_mapping(t_uint256,t_mapping(t_address,t_mapping(t_uint256,t_struct(AccumulatedAttack)18501_storage)))": {
        "encoding": "mapping",
        "key": "t_uint256",
        "label": "mapping(uint256 => mapping(address => mapping(uint256 => struct ImportingOuterSpaceTypes.AccumulatedAttack)))",
        "numberOfBytes": "32",
        "value": "t_mapping(t_address,t_mapping(t_uint256,t_struct(AccumulatedAttack)18501_storage))"
      },
      "t_mapping(t_uint256,t_mapping(t_uint256,t_struct(InFlight)18362_storage))": {
        "encoding": "mapping",
        "key": "t_uint256",
        "label": "mapping(uint256 => mapping(uint256 => struct ImportingOuterSpaceTypes.InFlight))",
        "numberOfBytes": "32",
        "value": "t_mapping(t_uint256,t_struct(InFlight)18362_storage)"
      },
      "t_mapping(t_uint256,t_struct(AccumulatedAttack)18501_storage)": {
        "encoding": "mapping",
        "key": "t_uint256",
        "label": "mapping(uint256 => struct ImportingOuterSpaceTypes.AccumulatedAttack)",
        "numberOfBytes": "32",
        "value": "t_struct(AccumulatedAttack)18501_storage"
      },
      "t_mapping(t_uint256,t_struct(Fleet)18405_storage)": {
        "encoding": "mapping",
        "key": "t_uint256",
        "label": "mapping(uint256 => struct ImportingOuterSpaceTypes.Fleet)",
        "numberOfBytes": "32",
        "value": "t_struct(Fleet)18405_storage"
      },
      "t_mapping(t_uint256,t_struct(InFlight)18362_storage)": {
        "encoding": "mapping",
        "key": "t_uint256",
        "label": "mapping(uint256 => struct ImportingOuterSpaceTypes.InFlight)",
        "numberOfBytes": "32",
        "value": "t_struct(InFlight)18362_storage"
      },
      "t_mapping(t_uint256,t_struct(Planet)18386_storage)": {
        "encoding": "mapping",
        "key": "t_uint256",
        "label": "mapping(uint256 => struct ImportingOuterSpaceTypes.Planet)",
        "numberOfBytes": "32",
        "value": "t_struct(Planet)18386_storage"
      },
      "t_mapping(t_uint256,t_uint256)": {
        "encoding": "mapping",
        "key": "t_uint256",
        "label": "mapping(uint256 => uint256)",
        "numberOfBytes": "32",
        "value": "t_uint256"
      },
      "t_struct(AccumulatedAttack)18501_storage": {
        "encoding": "inplace",
        "label": "struct ImportingOuterSpaceTypes.AccumulatedAttack",
        "members": [
          {
            "astId": 18494,
            "contract": "project/src/outerspace/facets/OuterSpaceStakingFacet.sol:OuterSpaceStakingFacet",
            "label": "target",
            "offset": 0,
            "slot": "0",
            "type": "t_address"
          },
          {
            "astId": 18496,
            "contract": "project/src/outerspace/facets/OuterSpaceStakingFacet.sol:OuterSpaceStakingFacet",
            "label": "numAttackSpent",
            "offset": 20,
            "slot": "0",
            "type": "t_uint32"
          },
          {
            "astId": 18498,
            "contract": "project/src/outerspace/facets/OuterSpaceStakingFacet.sol:OuterSpaceStakingFacet",
            "label": "damageCausedSoFar",
            "offset": 24,
            "slot": "0",
            "type": "t_uint32"
          },
          {
            "astId": 18500,
            "contract": "project/src/outerspace/facets/OuterSpaceStakingFacet.sol:OuterSpaceStakingFacet",
            "label": "averageAttackPower",
            "offset": 28,
            "slot": "0",
            "type": "t_uint16"
          }
        ],
        "numberOfBytes": "32"
      },
      "t_struct(Discovered)18371_storage": {
        "encoding": "inplace",
        "label": "struct ImportingOuterSpaceTypes.Discovered",
        "members": [
          {
            "astId": 18364,
            "contract": "project/src/outerspace/facets/OuterSpaceStakingFacet.sol:OuterSpaceStakingFacet",
            "label": "minX",
            "offset": 0,
            "slot": "0",
            "type": "t_uint32"
          },
          {
            "astId": 18366,
            "contract": "project/src/outerspace/facets/OuterSpaceStakingFacet.sol:OuterSpaceStakingFacet",
            "label": "maxX",
            "offset": 4,
            "slot": "0",
            "type": "t_uint32"
          },
          {
            "astId": 18368,
            "contract": "project/src/outerspace/facets/OuterSpaceStakingFacet.sol:OuterSpaceStakingFacet",
            "label": "minY",
            "offset": 8,
            "slot": "0",
            "type": "t_uint32"
          },
          {
            "astId": 18370,
            "contract": "project/src/outerspace/facets/OuterSpaceStakingFacet.sol:OuterSpaceStakingFacet",
            "label": "maxY",
            "offset": 12,
            "slot": "0",
            "type": "t_uint32"
          }
        ],
        "numberOfBytes": "32"
      },
      "t_struct(Fleet)18405_storage": {
        "encoding": "inplace",
        "label": "struct ImportingOuterSpaceTypes.Fleet",
        "members": [
          {
            "astId": 18388,
            "contract": "project/src/outerspace/facets/OuterSpaceStakingFacet.sol:OuterSpaceStakingFacet",
            "label": "owner",
            "offset": 0,
            "slot": "0",
            "type": "t_address"
          },
          {
            "astId": 18390,
            "contract": "project/src/outerspace/facets/OuterSpaceStakingFacet.sol:OuterSpaceStakingFacet",
            "label": "launchTime",
            "offset": 20,
            "slot": "0",
            "type": "t_uint40"
          },
          {
            "astId": 18392,
            "contract": "project/src/outerspace/facets/OuterSpaceStakingFacet.sol:OuterSpaceStakingFacet",
            "label": "quantity",
            "offset": 25,
            "slot": "0",
            "type": "t_uint32"
          },
          {
            "astId": 18394,
            "contract": "project/src/outerspace/facets/OuterSpaceStakingFacet.sol:OuterSpaceStakingFacet",
            "label": "futureExtraProduction",
            "offset": 29,
            "slot": "0",
            "type": "t_uint24"
          },
          {
            "astId": 18396,
            "contract": "project/src/outerspace/facets/OuterSpaceStakingFacet.sol:OuterSpaceStakingFacet",
            "label": "defender",
            "offset": 0,
            "slot": "1",
            "type": "t_address"
          },
          {
            "astId": 18398,
            "contract": "project/src/outerspace/facets/OuterSpaceStakingFacet.sol:OuterSpaceStakingFacet",
            "label": "arrivalTime",
            "offset": 20,
            "slot": "1",
            "type": "t_uint40"
          },
          {
            "astId": 18400,
            "contract": "project/src/outerspace/facets/OuterSpaceStakingFacet.sol:OuterSpaceStakingFacet",
            "label": "defenderLoss",
            "offset": 25,
            "slot": "1",
            "type": "t_uint32"
          },
          {
            "astId": 18402,
            "contract": "project/src/outerspace/facets/OuterSpaceStakingFacet.sol:OuterSpaceStakingFacet",
            "label": "planetActive",
            "offset": 29,
            "slot": "1",
            "type": "t_bool"
          },
          {
            "astId": 18404,
            "contract": "project/src/outerspace/facets/OuterSpaceStakingFacet.sol:OuterSpaceStakingFacet",
            "label": "victory",
            "offset": 30,
            "slot": "1",
            "type": "t_bool"
          }
        ],
        "numberOfBytes": "64"
      },
      "t_struct(InFlight)18362_storage": {
        "encoding": "inplace",
        "label": "struct ImportingOuterSpaceTypes.InFlight",
        "members": [
          {
            "astId": 18359,
            "contract": "project/src/outerspace/facets/OuterSpaceStakingFacet.sol:OuterSpaceStakingFacet",
            "label": "flying",
            "offset": 0,
            "slot": "0",
            "type": "t_uint32"
          },
          {
            "astId": 18361,
            "contract": "project/src/outerspace/facets/OuterSpaceStakingFacet.sol:OuterSpaceStakingFacet",
            "label": "destroyed",
            "offset": 4,
            "slot": "0",
            "type": "t_uint32"
          }
        ],
        "numberOfBytes": "32"
      },
      "t_struct(Planet)18386_storage": {
        "encoding": "inplace",
        "label": "struct ImportingOuterSpaceTypes.Planet",
        "members": [
          {
            "astId": 18373,
            "contract": "project/src/outerspace/facets/OuterSpaceStakingFacet.sol:OuterSpaceStakingFacet",
            "label": "owner",
            "offset": 0,
            "slot": "0",
            "type": "t_address"
          },
          {
            "astId": 18375,
            "contract": "project/src/outerspace/facets/OuterSpaceStakingFacet.sol:OuterSpaceStakingFacet",
            "label": "ownershipStartTime",
            "offset": 20,
            "slot": "0",
            "type": "t_uint40"
          },
          {
            "astId": 18377,
            "contract": "project/src/outerspace/facets/OuterSpaceStakingFacet.sol:OuterSpaceStakingFacet",
            "label": "exitStartTime",
            "offset": 25,
            "slot": "0",
            "type": "t_uint40"
          },
          {
            "astId": 18379,
            "contract": "project/src/outerspace/facets/OuterSpaceStakingFacet.sol:OuterSpaceStakingFacet",
            "label": "numSpaceships",
            "offset": 0,
            "slot": "1",
            "type": "t_uint32"
          },
          {
            "astId": 18381,
            "contract": "project/src/outerspace/facets/OuterSpaceStakingFacet.sol:OuterSpaceStakingFacet",
            "label": "lastUpdated",
            "offset": 4,
            "slot": "1",
            "type": "t_uint40"
          },
          {
            "astId": 18383,
            "contract": "project/src/outerspace/facets/OuterSpaceStakingFacet.sol:OuterSpaceStakingFacet",
            "label": "travelingUpkeep",
            "offset": 9,
            "slot": "1",
            "type": "t_int40"
          },
          {
            "astId": 18385,
            "contract": "project/src/outerspace/facets/OuterSpaceStakingFacet.sol:OuterSpaceStakingFacet",
            "label": "overflow",
            "offset": 14,
            "slot": "1",
            "type": "t_uint32"
          }
        ],
        "numberOfBytes": "64"
      },
      "t_uint16": {
        "encoding": "inplace",
        "label": "uint16",
        "numberOfBytes": "2"
      },
      "t_uint24": {
        "encoding": "inplace",
        "label": "uint24",
        "numberOfBytes": "3"
      },
      "t_uint256": {
        "encoding": "inplace",
        "label": "uint256",
        "numberOfBytes": "32"
      },
      "t_uint32": {
        "encoding": "inplace",
        "label": "uint32",
        "numberOfBytes": "4"
      },
      "t_uint40": {
        "encoding": "inplace",
        "label": "uint40",
        "numberOfBytes": "5"
      }
    }
  },
  "userdoc": {
    "kind": "user",
    "methods": {},
    "version": 1
  },
  "argsData": "0x000000000000000000000000f2795fc18ee47763bd6d712accb40953b7b0373100000000000000000000000040b7584f6f94d720ccaad8c6d6acad5fe929d56400000000000000000000000044faf6adec806215d53b1c75066b733a8c40bc77cce77b122615b6093c0df0c7392bec6f537eb7a0595c337a573ee6d96d1107c8000000000000000000000000000000000000000000000000000000000000a8c00000000000000000000000000000000000000000000000000000000000001c20000000000000000000000000000000000000000000000000000000000003f48000000000000000000000000000000000000000000000000000000000000186a000000000000000000000000000000000000000000000000000000000000000010000000000000000000000000000000000000000000000000000000000000708000000000000000000000000000000000000000000000000000000000003f4800000000000000000000000000000000000000000000000000000000000001388000000000000000000000000000000000000000000000000000000000007a120000000000000000000000000000000000000000000000000000000000000000c000000000000000000000000000000000000000000000000000000000000000600000000000000000000000000000000000000000000000000000000000007d00064008200aa00c800f0010e012c014a014a017201900212029e032003a204b000000000000000000000000000000000000000000000000000000000000000640000000000000000000000000000000000000000000000000000000069b40fc20000000000000000000000000000000000000000000000000000000069b56142",
  "linkedData": {
    "stakingToken": "0xf2795fc18ee47763bd6d712accb40953b7b03731",
    "freeStakingToken": "0x40b7584f6f94d720ccaad8c6d6acad5fe929d564",
    "allianceRegistry": "0x44faf6adec806215d53b1c75066b733a8c40bc77",
    "genesis": "0xcce77b122615b6093c0df0c7392bec6f537eb7a0595c337a573ee6d96d1107c8",
    "resolveWindow": 43200,
    "timePerDistance": 7200,
    "exitDuration": 259200,
    "acquireNumSpaceships": 100000,
    "productionSpeedUp": 1,
    "frontrunningDelay": 1800,
    "productionCapAsDuration": 259200,
    "upkeepProductionDecreaseRatePer10000th": 5000,
    "fleetSizeFactor6": 500000,
    "initialSpaceExpansion": 12,
    "expansionDelta": 6,
    "giftTaxPer10000": 2000,
    "stakeRange": "0x0064008200aa00c800f0010e012c014a014a017201900212029e032003a204b0",
    "stakeMultiplier10000th": 100,
    "bootstrapSessionEndTime": 1773408194,
    "infinityStartTime": 1773494594,
    "chainGenesisHash": "",
    "deploymentTimestamp": 1770816194
  },
  "transaction": {
    "nonce": "0x33",
    "hash": "0x23ccdae7b01f16ce7c75c90cb402e9cdc197f60c0d12753ee303857fe8c96009",
    "origin": "0x61c461ecc993aadeb7e4b47e96d1b8cc37314b20"
  }
}