{
  "address": "0x41793eD6685F100D2AFA634ECc4E266c8F0B6E66",
  "abi": [
    {
      "inputs": [
        {
          "internalType": "contract PlayToken",
          "name": "underlyingToken",
          "type": "address"
        },
        {
          "internalType": "address",
          "name": "initialAdmin",
          "type": "address"
        }
      ],
      "stateMutability": "nonpayable",
      "type": "constructor"
    },
    {
      "anonymous": false,
      "inputs": [
        {
          "indexed": false,
          "internalType": "address",
          "name": "account",
          "type": "address"
        }
      ],
      "name": "Admin",
      "type": "event"
    },
    {
      "anonymous": false,
      "inputs": [
        {
          "indexed": true,
          "internalType": "address",
          "name": "owner",
          "type": "address"
        },
        {
          "indexed": true,
          "internalType": "address",
          "name": "spender",
          "type": "address"
        },
        {
          "indexed": false,
          "internalType": "uint256",
          "name": "value",
          "type": "uint256"
        }
      ],
      "name": "Approval",
      "type": "event"
    },
    {
      "anonymous": false,
      "inputs": [
        {
          "indexed": false,
          "internalType": "address",
          "name": "burner",
          "type": "address"
        },
        {
          "indexed": false,
          "internalType": "bool",
          "name": "enabled",
          "type": "bool"
        }
      ],
      "name": "Burner",
      "type": "event"
    },
    {
      "anonymous": false,
      "inputs": [
        {
          "indexed": false,
          "internalType": "address",
          "name": "burner",
          "type": "address"
        },
        {
          "indexed": false,
          "internalType": "bool",
          "name": "enabled",
          "type": "bool"
        }
      ],
      "name": "Minter",
      "type": "event"
    },
    {
      "anonymous": false,
      "inputs": [
        {
          "indexed": true,
          "internalType": "address",
          "name": "from",
          "type": "address"
        },
        {
          "indexed": true,
          "internalType": "address",
          "name": "to",
          "type": "address"
        },
        {
          "indexed": false,
          "internalType": "uint256",
          "name": "value",
          "type": "uint256"
        }
      ],
      "name": "Transfer",
      "type": "event"
    },
    {
      "inputs": [],
      "name": "DOMAIN_SEPARATOR",
      "outputs": [
        {
          "internalType": "bytes32",
          "name": "",
          "type": "bytes32"
        }
      ],
      "stateMutability": "view",
      "type": "function"
    },
    {
      "inputs": [],
      "name": "admin",
      "outputs": [
        {
          "internalType": "address",
          "name": "",
          "type": "address"
        }
      ],
      "stateMutability": "view",
      "type": "function"
    },
    {
      "inputs": [
        {
          "internalType": "address",
          "name": "owner",
          "type": "address"
        },
        {
          "internalType": "address",
          "name": "spender",
          "type": "address"
        }
      ],
      "name": "allowance",
      "outputs": [
        {
          "internalType": "uint256",
          "name": "",
          "type": "uint256"
        }
      ],
      "stateMutability": "view",
      "type": "function"
    },
    {
      "inputs": [
        {
          "internalType": "address",
          "name": "spender",
          "type": "address"
        },
        {
          "internalType": "uint256",
          "name": "amount",
          "type": "uint256"
        }
      ],
      "name": "approve",
      "outputs": [
        {
          "internalType": "bool",
          "name": "",
          "type": "bool"
        }
      ],
      "stateMutability": "nonpayable",
      "type": "function"
    },
    {
      "inputs": [
        {
          "internalType": "address",
          "name": "spender",
          "type": "address"
        },
        {
          "internalType": "uint256",
          "name": "amount",
          "type": "uint256"
        },
        {
          "internalType": "bytes",
          "name": "data",
          "type": "bytes"
        }
      ],
      "name": "approveAndCall",
      "outputs": [
        {
          "internalType": "bool",
          "name": "",
          "type": "bool"
        }
      ],
      "stateMutability": "nonpayable",
      "type": "function"
    },
    {
      "inputs": [
        {
          "internalType": "address",
          "name": "owner",
          "type": "address"
        }
      ],
      "name": "balanceOf",
      "outputs": [
        {
          "internalType": "uint256",
          "name": "",
          "type": "uint256"
        }
      ],
      "stateMutability": "view",
      "type": "function"
    },
    {
      "inputs": [
        {
          "internalType": "address",
          "name": "from",
          "type": "address"
        },
        {
          "internalType": "address",
          "name": "to",
          "type": "address"
        },
        {
          "internalType": "uint256",
          "name": "amount",
          "type": "uint256"
        }
      ],
      "name": "burn",
      "outputs": [],
      "stateMutability": "nonpayable",
      "type": "function"
    },
    {
      "inputs": [
        {
          "components": [
            {
              "internalType": "address",
              "name": "from",
              "type": "address"
            },
            {
              "internalType": "uint256",
              "name": "amount",
              "type": "uint256"
            }
          ],
          "internalType": "struct IFreePlayToken.BurnFrom[]",
          "name": "list",
          "type": "tuple[]"
        },
        {
          "internalType": "address",
          "name": "to",
          "type": "address"
        }
      ],
      "name": "burnMultiple",
      "outputs": [],
      "stateMutability": "nonpayable",
      "type": "function"
    },
    {
      "inputs": [
        {
          "internalType": "address",
          "name": "",
          "type": "address"
        }
      ],
      "name": "burners",
      "outputs": [
        {
          "internalType": "bool",
          "name": "",
          "type": "bool"
        }
      ],
      "stateMutability": "view",
      "type": "function"
    },
    {
      "inputs": [],
      "name": "decimals",
      "outputs": [
        {
          "internalType": "uint8",
          "name": "",
          "type": "uint8"
        }
      ],
      "stateMutability": "pure",
      "type": "function"
    },
    {
      "inputs": [
        {
          "internalType": "address payable[]",
          "name": "tos",
          "type": "address[]"
        },
        {
          "internalType": "uint256",
          "name": "totalAmount",
          "type": "uint256"
        }
      ],
      "name": "distributeAlongWithETH",
      "outputs": [
        {
          "internalType": "bool",
          "name": "",
          "type": "bool"
        }
      ],
      "stateMutability": "payable",
      "type": "function"
    },
    {
      "inputs": [
        {
          "internalType": "address payable[]",
          "name": "tos",
          "type": "address[]"
        },
        {
          "internalType": "uint256[]",
          "name": "amounts",
          "type": "uint256[]"
        }
      ],
      "name": "distributeVariousAmountsAlongWithETH",
      "outputs": [
        {
          "internalType": "bool",
          "name": "",
          "type": "bool"
        }
      ],
      "stateMutability": "payable",
      "type": "function"
    },
    {
      "inputs": [
        {
          "internalType": "address payable[]",
          "name": "tos",
          "type": "address[]"
        },
        {
          "internalType": "uint256[]",
          "name": "tokenAmounts",
          "type": "uint256[]"
        },
        {
          "internalType": "uint256[]",
          "name": "etherAmounts",
          "type": "uint256[]"
        }
      ],
      "name": "distributeVariousAmountsOfTokenAndETH",
      "outputs": [
        {
          "internalType": "bool",
          "name": "",
          "type": "bool"
        }
      ],
      "stateMutability": "payable",
      "type": "function"
    },
    {
      "inputs": [
        {
          "internalType": "address",
          "name": "from",
          "type": "address"
        },
        {
          "internalType": "address",
          "name": "to",
          "type": "address"
        },
        {
          "internalType": "uint256",
          "name": "amount",
          "type": "uint256"
        }
      ],
      "name": "mint",
      "outputs": [],
      "stateMutability": "nonpayable",
      "type": "function"
    },
    {
      "inputs": [
        {
          "internalType": "address payable[]",
          "name": "tos",
          "type": "address[]"
        },
        {
          "internalType": "uint256[]",
          "name": "amounts",
          "type": "uint256[]"
        },
        {
          "internalType": "uint256[]",
          "name": "nativeTokenAmounts",
          "type": "uint256[]"
        }
      ],
      "name": "mintMultipleViaNativeTokenPlusSendExtraNativeTokens",
      "outputs": [],
      "stateMutability": "payable",
      "type": "function"
    },
    {
      "inputs": [
        {
          "internalType": "address",
          "name": "to",
          "type": "address"
        },
        {
          "internalType": "uint256",
          "name": "amount",
          "type": "uint256"
        }
      ],
      "name": "mintViaNativeToken",
      "outputs": [],
      "stateMutability": "payable",
      "type": "function"
    },
    {
      "inputs": [
        {
          "internalType": "address payable",
          "name": "to",
          "type": "address"
        },
        {
          "internalType": "uint256",
          "name": "amount",
          "type": "uint256"
        }
      ],
      "name": "mintViaNativeTokenPlusSendExtraNativeTokens",
      "outputs": [],
      "stateMutability": "payable",
      "type": "function"
    },
    {
      "inputs": [
        {
          "internalType": "address",
          "name": "",
          "type": "address"
        }
      ],
      "name": "minters",
      "outputs": [
        {
          "internalType": "bool",
          "name": "",
          "type": "bool"
        }
      ],
      "stateMutability": "view",
      "type": "function"
    },
    {
      "inputs": [],
      "name": "name",
      "outputs": [
        {
          "internalType": "string",
          "name": "",
          "type": "string"
        }
      ],
      "stateMutability": "pure",
      "type": "function"
    },
    {
      "inputs": [
        {
          "internalType": "address",
          "name": "owner",
          "type": "address"
        }
      ],
      "name": "nonces",
      "outputs": [
        {
          "internalType": "uint256",
          "name": "",
          "type": "uint256"
        }
      ],
      "stateMutability": "view",
      "type": "function"
    },
    {
      "inputs": [
        {
          "internalType": "address",
          "name": "forAddress",
          "type": "address"
        },
        {
          "internalType": "address",
          "name": "to",
          "type": "address"
        },
        {
          "internalType": "uint256",
          "name": "amount",
          "type": "uint256"
        },
        {
          "internalType": "bytes",
          "name": "data",
          "type": "bytes"
        }
      ],
      "name": "payForAndCall",
      "outputs": [
        {
          "internalType": "bool",
          "name": "",
          "type": "bool"
        }
      ],
      "stateMutability": "nonpayable",
      "type": "function"
    },
    {
      "inputs": [
        {
          "internalType": "address",
          "name": "owner",
          "type": "address"
        },
        {
          "internalType": "address",
          "name": "spender",
          "type": "address"
        },
        {
          "internalType": "uint256",
          "name": "value",
          "type": "uint256"
        },
        {
          "internalType": "uint256",
          "name": "deadline",
          "type": "uint256"
        },
        {
          "internalType": "uint8",
          "name": "v",
          "type": "uint8"
        },
        {
          "internalType": "bytes32",
          "name": "r",
          "type": "bytes32"
        },
        {
          "internalType": "bytes32",
          "name": "s",
          "type": "bytes32"
        }
      ],
      "name": "permit",
      "outputs": [],
      "stateMutability": "nonpayable",
      "type": "function"
    },
    {
      "inputs": [
        {
          "internalType": "contract PlayToken",
          "name": "underlyingToken",
          "type": "address"
        },
        {
          "internalType": "address",
          "name": "initialAdmin",
          "type": "address"
        }
      ],
      "name": "postUpgrade",
      "outputs": [],
      "stateMutability": "nonpayable",
      "type": "function"
    },
    {
      "inputs": [
        {
          "internalType": "address",
          "name": "newAdmin",
          "type": "address"
        }
      ],
      "name": "setAdmin",
      "outputs": [],
      "stateMutability": "nonpayable",
      "type": "function"
    },
    {
      "inputs": [
        {
          "internalType": "address",
          "name": "minter",
          "type": "address"
        },
        {
          "internalType": "bool",
          "name": "enabled",
          "type": "bool"
        }
      ],
      "name": "setMinter",
      "outputs": [],
      "stateMutability": "nonpayable",
      "type": "function"
    },
    {
      "inputs": [],
      "name": "symbol",
      "outputs": [
        {
          "internalType": "string",
          "name": "",
          "type": "string"
        }
      ],
      "stateMutability": "view",
      "type": "function"
    },
    {
      "inputs": [],
      "name": "totalSupply",
      "outputs": [
        {
          "internalType": "uint256",
          "name": "",
          "type": "uint256"
        }
      ],
      "stateMutability": "view",
      "type": "function"
    },
    {
      "inputs": [
        {
          "internalType": "address",
          "name": "to",
          "type": "address"
        },
        {
          "internalType": "uint256",
          "name": "amount",
          "type": "uint256"
        }
      ],
      "name": "transfer",
      "outputs": [
        {
          "internalType": "bool",
          "name": "",
          "type": "bool"
        }
      ],
      "stateMutability": "nonpayable",
      "type": "function"
    },
    {
      "inputs": [
        {
          "internalType": "address payable",
          "name": "to",
          "type": "address"
        },
        {
          "internalType": "uint256",
          "name": "amount",
          "type": "uint256"
        }
      ],
      "name": "transferAlongWithETH",
      "outputs": [
        {
          "internalType": "bool",
          "name": "",
          "type": "bool"
        }
      ],
      "stateMutability": "payable",
      "type": "function"
    },
    {
      "inputs": [
        {
          "internalType": "address",
          "name": "to",
          "type": "address"
        },
        {
          "internalType": "uint256",
          "name": "amount",
          "type": "uint256"
        },
        {
          "internalType": "bytes",
          "name": "data",
          "type": "bytes"
        }
      ],
      "name": "transferAndCall",
      "outputs": [
        {
          "internalType": "bool",
          "name": "",
          "type": "bool"
        }
      ],
      "stateMutability": "nonpayable",
      "type": "function"
    },
    {
      "inputs": [
        {
          "internalType": "address",
          "name": "from",
          "type": "address"
        },
        {
          "internalType": "address",
          "name": "to",
          "type": "address"
        },
        {
          "internalType": "uint256",
          "name": "amount",
          "type": "uint256"
        }
      ],
      "name": "transferFrom",
      "outputs": [
        {
          "internalType": "bool",
          "name": "",
          "type": "bool"
        }
      ],
      "stateMutability": "nonpayable",
      "type": "function"
    },
    {
      "inputs": [
        {
          "internalType": "address",
          "name": "from",
          "type": "address"
        },
        {
          "internalType": "address",
          "name": "to",
          "type": "address"
        },
        {
          "internalType": "uint256",
          "name": "amount",
          "type": "uint256"
        },
        {
          "internalType": "bytes",
          "name": "data",
          "type": "bytes"
        }
      ],
      "name": "transferFromAndCall",
      "outputs": [
        {
          "internalType": "bool",
          "name": "",
          "type": "bool"
        }
      ],
      "stateMutability": "nonpayable",
      "type": "function"
    }
  ],
  "transactionHash": "0x6901ea1acbe58d2311e89fa525b02bdf61241c582089a3109dcc76f1c49e3fb6",
  "args": [
    "0x1874F6326eEbcCe664410a93a5217741a977D14A",
    "0xbE19B59E8C588d68f475A407C7BA5fE813AEb792"
  ],
  "numDeployments": 13,
  "solcInputHash": "af21df80883fa8437198488cd32852da",
  "bytecode": "0x60c06040523480156200001157600080fd5b50604051620034d5380380620034d5833981016040819052620000349162000184565b6040805180820190915260018152603160f81b60208201527f91ab3d17e3a50a9d89e63fd30b92be7f5336b03b287bb946787a83a9d62a2766620000946040805180820190915260098152684672656520506c617960b81b602082015290565b8051602091820120835184830120604080519384019490945292820152606081019190915230608082015260a00160408051601f198184030181529190528051602090910120608052506001600160a01b03821660a052620000f78282620000ff565b5050620001c3565b6006546001600160a01b038281169116146200016757600680546001600160a01b0319166001600160a01b0383169081179091556040519081527f33b005d053f740768cddf56d4aae11b8b1fb294e749565266b2f2b20e80e9cdf9060200160405180910390a15b5050565b6001600160a01b03811681146200018157600080fd5b50565b600080604083850312156200019857600080fd5b8251620001a5816200016b565b6020840151909250620001b8816200016b565b809150509250929050565b60805160a0516132b462000221600039600081816107cf01528181610b6301528181610e1e01528181610f230152818161106c01528181611142015281816114ec0152611cfd01526000818161033e01526117c301526132b46000f3fe6080604052600436106101e35760003560e01c80638c408be011610102578063d505accf11610095578063f46eccc411610064578063f46eccc4146105ee578063f6b911bc1461061e578063f851a4401461063e578063fc72b9761461069057600080fd5b8063d505accf14610588578063dd62ed3e146105a8578063df752eed146105c8578063e7fcb065146105db57600080fd5b8063c1d34b89116100d1578063c1d34b8914610508578063c6c3bbe614610528578063cae9ca5114610548578063cf456ae71461056857600080fd5b80638c408be01461046c57806395d89b411461047f578063a9059cbb146104c8578063c095064c146104e857600080fd5b80633644e5151161017a578063704b6c0211610149578063704b6c02146103b357806370a08231146103d35780637ecebe001461041657806389e7b3d31461045957600080fd5b80633644e5151461032c5780634000aea0146103605780635ecb2d3f1461038057806363d994c71461039357600080fd5b80630e02df54116101b65780630e02df54146102be57806318160ddd146102d157806323b872dd146102f0578063313ce5671461031057600080fd5b806303d41e0e146101e8578063057111fa1461022d57806306fdde031461024f578063095ea7b31461029e575b600080fd5b3480156101f457600080fd5b50610218610203366004612b13565b60056020526000908152604090205460ff1681565b60405190151581526020015b60405180910390f35b34801561023957600080fd5b5061024d610248366004612b30565b6106a3565b005b34801561025b57600080fd5b5060408051808201909152600981527f4672656520506c6179000000000000000000000000000000000000000000000060208201525b6040516102249190612be2565b3480156102aa57600080fd5b506102186102b9366004612c33565b6107fc565b6102186102cc366004612cab565b610813565b3480156102dd57600080fd5b506000545b604051908152602001610224565b3480156102fc57600080fd5b5061021861030b366004612cf7565b6109de565b34801561031c57600080fd5b5060405160128152602001610224565b34801561033857600080fd5b506102e27f000000000000000000000000000000000000000000000000000000000000000081565b34801561036c57600080fd5b5061021861037b366004612d7a565b6109f5565b61024d61038e366004612c33565b610ab5565b34801561039f57600080fd5b506102186103ae366004612dd6565b610be4565b3480156103bf57600080fd5b5061024d6103ce366004612b13565b610ca7565b3480156103df57600080fd5b506102e26103ee366004612b13565b73ffffffffffffffffffffffffffffffffffffffff1660009081526001602052604090205490565b34801561042257600080fd5b506102e2610431366004612b13565b73ffffffffffffffffffffffffffffffffffffffff1660009081526003602052604090205490565b61024d610467366004612c33565b610da1565b61024d61047a366004612e49565b610fe4565b34801561048b57600080fd5b506102916040518060400160405280600581526020017f46504c415900000000000000000000000000000000000000000000000000000081525081565b3480156104d457600080fd5b506102186104e3366004612c33565b611327565b3480156104f457600080fd5b5061024d610503366004612ee3565b611334565b34801561051457600080fd5b50610218610523366004612dd6565b6113f4565b34801561053457600080fd5b5061024d610543366004612cf7565b611459565b34801561055457600080fd5b50610218610563366004612d7a565b61151e565b34801561057457600080fd5b5061024d610583366004612f2a565b611581565b34801561059457600080fd5b5061024d6105a3366004612f58565b611691565b3480156105b457600080fd5b506102e26105c3366004612ee3565b6119d1565b6102186105d6366004612fcf565b611a51565b6102186105e9366004612c33565b611c1b565b3480156105fa57600080fd5b50610218610609366004612b13565b60046020526000908152604090205460ff1681565b34801561062a57600080fd5b5061024d610639366004612cf7565b611c6a565b34801561064a57600080fd5b5060065461066b9073ffffffffffffffffffffffffffffffffffffffff1681565b60405173ffffffffffffffffffffffffffffffffffffffff9091168152602001610224565b61021861069e366004612e49565b611d2e565b3360009081526005602052604090205460ff16610721576040517f08c379a000000000000000000000000000000000000000000000000000000000815260206004820152601260248201527f4e4f545f414c4c4f5745445f4255524e4552000000000000000000000000000060448201526064015b60405180910390fd5b6000805b838110156107b45784848281811061073f5761073f61302f565b9050604002016020013582610754919061308d565b91506107a285858381811061076b5761076b61302f565b6107819260206040909202019081019150612b13565b8686848181106107935761079361302f565b90506040020160200135611fc1565b806107ac816130a5565b915050610725565b506107f673ffffffffffffffffffffffffffffffffffffffff7f00000000000000000000000000000000000000000000000000000000000000001683836120ef565b50505050565b60006108093384846121c3565b5060015b92915050565b60008061082084346130de565b905061082c8482613119565b3414610894576040517f08c379a000000000000000000000000000000000000000000000000000000000815260206004820152601160248201527f494e56414c49445f4d53475f56414c55450000000000000000000000000000006044820152606401610718565b60006108a085856130de565b90506108ac8582613119565b8414610914576040517f08c379a000000000000000000000000000000000000000000000000000000000815260206004820152601460248201527f494e56414c49445f544f54414c5f414d4f554e540000000000000000000000006044820152606401610718565b60005b858110156109cf57610950338888848181106109355761093561302f565b905060200201602081019061094a9190612b13565b846122c9565b8686828181106109625761096261302f565b90506020020160208101906109779190612b13565b73ffffffffffffffffffffffffffffffffffffffff166108fc849081150290604051600060405180830381858888f193505050501580156109bc573d6000803e3d6000fd5b50806109c7816130a5565b915050610917565b506001925050505b9392505050565b60006109eb848484612517565b5060019392505050565b6000610a023386866122c9565b6040517fa4c0ed3600000000000000000000000000000000000000000000000000000000815273ffffffffffffffffffffffffffffffffffffffff86169063a4c0ed3690610a5a90339088908890889060040161319f565b602060405180830381600087803b158015610a7457600080fd5b505af1158015610a88573d6000803e3d6000fd5b505050506040513d601f19601f82011682018060405250810190610aac91906131d5565b95945050505050565b3360009081526004602052604090205460ff16610b2e576040517f08c379a000000000000000000000000000000000000000000000000000000000815260206004820152601260248201527f4e4f545f414c4c4f5745445f4d494e54455200000000000000000000000000006044820152606401610718565b6040517f40c10f19000000000000000000000000000000000000000000000000000000008152306004820152602481018290527f000000000000000000000000000000000000000000000000000000000000000073ffffffffffffffffffffffffffffffffffffffff16906340c10f199034906044016000604051808303818588803b158015610bbd57600080fd5b505af1158015610bd1573d6000803e3d6000fd5b5050505050610be08282612663565b5050565b6000610bf13386866122c9565b6040517f9b6be06500000000000000000000000000000000000000000000000000000000815273ffffffffffffffffffffffffffffffffffffffff861690639b6be06590610c4b9033908a908990899089906004016131f2565b602060405180830381600087803b158015610c6557600080fd5b505af1158015610c79573d6000803e3d6000fd5b505050506040513d601f19601f82011682018060405250810190610c9d91906131d5565b9695505050505050565b60065473ffffffffffffffffffffffffffffffffffffffff163314610d28576040517f08c379a000000000000000000000000000000000000000000000000000000000815260206004820152601160248201527f4e4f545f414c4c4f5745445f41444d494e0000000000000000000000000000006044820152606401610718565b600680547fffffffffffffffffffffffff00000000000000000000000000000000000000001673ffffffffffffffffffffffffffffffffffffffff83169081179091556040519081527f33b005d053f740768cddf56d4aae11b8b1fb294e749565266b2f2b20e80e9cdf9060200160405180910390a150565b3360009081526004602052604090205460ff16610e1a576040517f08c379a000000000000000000000000000000000000000000000000000000000815260206004820152601260248201527f4e4f545f414c4c4f5745445f4d494e54455200000000000000000000000000006044820152606401610718565b60007f000000000000000000000000000000000000000000000000000000000000000073ffffffffffffffffffffffffffffffffffffffff1663a835106e6040518163ffffffff1660e01b815260040160206040518083038186803b158015610e8257600080fd5b505afa158015610e96573d6000803e3d6000fd5b505050506040513d601f19601f82011682018060405250810190610eba9190613232565b610ecc670de0b6b3a764000084613119565b610ed691906130de565b6040517f40c10f190000000000000000000000000000000000000000000000000000000081523060048201526024810184905290915073ffffffffffffffffffffffffffffffffffffffff7f000000000000000000000000000000000000000000000000000000000000000016906340c10f199083906044016000604051808303818588803b158015610f6857600080fd5b505af1158015610f7c573d6000803e3d6000fd5b5050505050610f8b8383612663565b80341115610fdf5773ffffffffffffffffffffffffffffffffffffffff83166108fc610fb7833461324b565b6040518115909202916000818181858888f193505050501580156107f6573d6000803e3d6000fd5b505050565b3360009081526004602052604090205460ff1661105d576040517f08c379a000000000000000000000000000000000000000000000000000000000815260206004820152601260248201527f4e4f545f414c4c4f5745445f4d494e54455200000000000000000000000000006044820152606401610718565b60005b8581101561131e5760007f000000000000000000000000000000000000000000000000000000000000000073ffffffffffffffffffffffffffffffffffffffff1663a835106e6040518163ffffffff1660e01b815260040160206040518083038186803b1580156110d057600080fd5b505afa1580156110e4573d6000803e3d6000fd5b505050506040513d601f19601f820116820180604052508101906111089190613232565b670de0b6b3a76400008787858181106111235761112361302f565b905060200201356111349190613119565b61113e91906130de565b90507f000000000000000000000000000000000000000000000000000000000000000073ffffffffffffffffffffffffffffffffffffffff166340c10f1982308989878181106111905761119061302f565b6040517fffffffff0000000000000000000000000000000000000000000000000000000060e088901b16815273ffffffffffffffffffffffffffffffffffffffff909416600485015260200291909101356024830152506044016000604051808303818588803b15801561120357600080fd5b505af1158015611217573d6000803e3d6000fd5b50505050506112648888848181106112315761123161302f565b90506020020160208101906112469190612b13565b8787858181106112585761125861302f565b90506020020135612663565b60008484848181106112785761127861302f565b90506020020135111561130b578787838181106112975761129761302f565b90506020020160208101906112ac9190612b13565b73ffffffffffffffffffffffffffffffffffffffff166108fc8585858181106112d7576112d761302f565b905060200201359081150290604051600060405180830381858888f19350505050158015611309573d6000803e3d6000fd5b505b5080611316816130a5565b915050611060565b50505050505050565b60006108093384846122c9565b7fb53127684a568b3173ae13b9f8a6016e243e63b6e8ee1178d6a717850b5d61035473ffffffffffffffffffffffffffffffffffffffff163373ffffffffffffffffffffffffffffffffffffffff16146113ea576040517f08c379a000000000000000000000000000000000000000000000000000000000815260206004820152600e60248201527f4e4f545f415554484f52495a45440000000000000000000000000000000000006044820152606401610718565b610be08282612705565b6000611401868686612517565b6040517fa4c0ed3600000000000000000000000000000000000000000000000000000000815273ffffffffffffffffffffffffffffffffffffffff86169063a4c0ed3690610c4b90899088908890889060040161319f565b3360009081526004602052604090205460ff166114d2576040517f08c379a000000000000000000000000000000000000000000000000000000000815260206004820152601260248201527f4e4f545f414c4c4f5745445f4d494e54455200000000000000000000000000006044820152606401610718565b61151473ffffffffffffffffffffffffffffffffffffffff7f00000000000000000000000000000000000000000000000000000000000000001684308461279a565b610fdf8282612663565b600061152b3386866121c3565b6040517eba451f00000000000000000000000000000000000000000000000000000000815273ffffffffffffffffffffffffffffffffffffffff86169062ba451f90610a5a90339088908890889060040161319f565b60065473ffffffffffffffffffffffffffffffffffffffff163314611602576040517f08c379a000000000000000000000000000000000000000000000000000000000815260206004820152601160248201527f4e4f545f414c4c4f5745445f41444d494e0000000000000000000000000000006044820152606401610718565b73ffffffffffffffffffffffffffffffffffffffff821660008181526004602090815260409182902080547fffffffffffffffffffffffffffffffffffffffffffffffffffffffffffffff00168515159081179091558251938452908301527fff452b3b9159b024a9098f0058c63eccd90d36b3584608202800d662f962bb6091015b60405180910390a15050565b73ffffffffffffffffffffffffffffffffffffffff871661170e576040517f08c379a000000000000000000000000000000000000000000000000000000000815260206004820152601460248201527f494e56414c49445f5a45524f5f414444524553530000000000000000000000006044820152606401610718565b73ffffffffffffffffffffffffffffffffffffffff87811660008181526003602090815260408083205481517f6e71edae12b1b97f4d1f60370fef10105fa2faae0126114a169c64845d6126c98185015280830195909552948b166060850152608084018a905260a0840185905260c08085018a90528151808603909101815260e0850190915280519101207f19010000000000000000000000000000000000000000000000000000000000006101008401527f00000000000000000000000000000000000000000000000000000000000000006101028401526101228301529061014201604080517fffffffffffffffffffffffffffffffffffffffffffffffffffffffffffffffe081840301815282825280516020918201206000845290830180835281905260ff8816918301919091526060820186905260808201859052915060019060a0016020604051602081039080840390855afa158015611879573d6000803e3d6000fd5b5050506020604051035173ffffffffffffffffffffffffffffffffffffffff168973ffffffffffffffffffffffffffffffffffffffff1614611917576040517f08c379a000000000000000000000000000000000000000000000000000000000815260206004820152601160248201527f494e56414c49445f5349474e41545552450000000000000000000000000000006044820152606401610718565b8515806119245750854211155b61198a576040517f08c379a000000000000000000000000000000000000000000000000000000000815260206004820152600860248201527f544f4f5f4c4154450000000000000000000000000000000000000000000000006044820152606401610718565b61199582600161308d565b73ffffffffffffffffffffffffffffffffffffffff8a166000908152600360205260409020556119c68989896121c3565b505050505050505050565b600073ffffffffffffffffffffffffffffffffffffffff8316301415611a1857507fffffffffffffffffffffffffffffffffffffffffffffffffffffffffffffffff61080d565b5073ffffffffffffffffffffffffffffffffffffffff918216600090815260026020908152604080832093909416825291909152205490565b600080611a5e85346130de565b9050611a6a8582613119565b3414611ad2576040517f08c379a000000000000000000000000000000000000000000000000000000000815260206004820152601160248201527f494e56414c49445f4d53475f56414c55450000000000000000000000000000006044820152606401610718565b848314611b3b576040517f08c379a000000000000000000000000000000000000000000000000000000000815260206004820152600f60248201527f4e4f545f53414d455f4c454e47544800000000000000000000000000000000006044820152606401610718565b60005b85811015611c0e57611b8f33888884818110611b5c57611b5c61302f565b9050602002016020810190611b719190612b13565b878785818110611b8357611b8361302f565b905060200201356122c9565b868682818110611ba157611ba161302f565b9050602002016020810190611bb69190612b13565b73ffffffffffffffffffffffffffffffffffffffff166108fc839081150290604051600060405180830381858888f19350505050158015611bfb573d6000803e3d6000fd5b5080611c06816130a5565b915050611b3e565b5060019695505050505050565b6000611c283384846122c9565b60405173ffffffffffffffffffffffffffffffffffffffff8416903480156108fc02916000818181858888f193505050501580156109eb573d6000803e3d6000fd5b3360009081526005602052604090205460ff16611ce3576040517f08c379a000000000000000000000000000000000000000000000000000000000815260206004820152601260248201527f4e4f545f414c4c4f5745445f4255524e455200000000000000000000000000006044820152606401610718565b611d2473ffffffffffffffffffffffffffffffffffffffff7f00000000000000000000000000000000000000000000000000000000000000001683836120ef565b610fdf8382611fc1565b600080868514611d9a576040517f08c379a000000000000000000000000000000000000000000000000000000000815260206004820152601560248201527f544f4b454e5f4e4f545f53414d455f4c454e47544800000000000000000000006044820152606401610718565b868314611e03576040517f08c379a000000000000000000000000000000000000000000000000000000000815260206004820152601360248201527f4554485f4e4f545f53414d455f4c454e475448000000000000000000000000006044820152606401610718565b60005b87811015611f4957868682818110611e2057611e2061302f565b90506020020135600014611e6b57611e6b338a8a84818110611e4457611e4461302f565b9050602002016020810190611e599190612b13565b898985818110611b8357611b8361302f565b848482818110611e7d57611e7d61302f565b90506020020135600014611f3757888882818110611e9d57611e9d61302f565b9050602002016020810190611eb29190612b13565b73ffffffffffffffffffffffffffffffffffffffff166108fc868684818110611edd57611edd61302f565b905060200201359081150290604051600060405180830381858888f19350505050158015611f0f573d6000803e3d6000fd5b50848482818110611f2257611f2261302f565b9050602002013582611f34919061308d565b91505b80611f41816130a5565b915050611e06565b50803414611fb3576040517f08c379a000000000000000000000000000000000000000000000000000000000815260206004820152601160248201527f494e56414c49445f4d53475f56414c55450000000000000000000000000000006044820152606401610718565b506001979650505050505050565b73ffffffffffffffffffffffffffffffffffffffff821660009081526001602052604090205481811015612051576040517f08c379a000000000000000000000000000000000000000000000000000000000815260206004820152601160248201527f4e4f545f454e4f5547485f544f4b454e530000000000000000000000000000006044820152606401610718565b61205b828261324b565b73ffffffffffffffffffffffffffffffffffffffff84166000908152600160205260408120919091558054839190819061209690849061324b565b909155505060405182815260009073ffffffffffffffffffffffffffffffffffffffff8516907fddf252ad1be2c89b69c2b068fc378daa952ba7f163c4a11628f55a4df523b3ef906020015b60405180910390a3505050565b60405173ffffffffffffffffffffffffffffffffffffffff8316602482015260448101829052610fdf9084907fa9059cbb00000000000000000000000000000000000000000000000000000000906064015b604080517fffffffffffffffffffffffffffffffffffffffffffffffffffffffffffffffe08184030181529190526020810180517bffffffffffffffffffffffffffffffffffffffffffffffffffffffff167fffffffff00000000000000000000000000000000000000000000000000000000909316929092179091526127f8565b73ffffffffffffffffffffffffffffffffffffffff8316158015906121fd575073ffffffffffffffffffffffffffffffffffffffff821615155b612263576040517f08c379a000000000000000000000000000000000000000000000000000000000815260206004820152601460248201527f494e56414c49445f5a45524f5f414444524553530000000000000000000000006044820152606401610718565b73ffffffffffffffffffffffffffffffffffffffff83811660008181526002602090815260408083209487168084529482529182902085905590518481527f8c5be1e5ebec7d5bd14f71427d1e84f3dd0314c0f7b2291e5b200ac8c7c3b92591016120e2565b73ffffffffffffffffffffffffffffffffffffffff8216612346576040517f08c379a000000000000000000000000000000000000000000000000000000000815260206004820152601460248201527f494e56414c49445f5a45524f5f414444524553530000000000000000000000006044820152606401610718565b73ffffffffffffffffffffffffffffffffffffffff82163014156123c6576040517f08c379a000000000000000000000000000000000000000000000000000000000815260206004820152601460248201527f494e56414c49445f544849535f414444524553530000000000000000000000006044820152606401610718565b73ffffffffffffffffffffffffffffffffffffffff831660009081526001602052604090205481811015612456576040517f08c379a000000000000000000000000000000000000000000000000000000000815260206004820152601160248201527f4e4f545f454e4f5547485f544f4b454e530000000000000000000000000000006044820152606401610718565b612460828261324b565b73ffffffffffffffffffffffffffffffffffffffff80861660009081526001602052604080822093909355908516815290812080548492906124a390849061308d565b925050819055508273ffffffffffffffffffffffffffffffffffffffff168473ffffffffffffffffffffffffffffffffffffffff167fddf252ad1be2c89b69c2b068fc378daa952ba7f163c4a11628f55a4df523b3ef8460405161250991815260200190565b60405180910390a350505050565b3373ffffffffffffffffffffffffffffffffffffffff841614801590612553575073ffffffffffffffffffffffffffffffffffffffff83163014155b156126585773ffffffffffffffffffffffffffffffffffffffff831660009081526002602090815260408083203384529091529020547fffffffffffffffffffffffffffffffffffffffffffffffffffffffffffffffff8114612656578181101561261a576040517f08c379a000000000000000000000000000000000000000000000000000000000815260206004820152601760248201527f4e4f545f415554484f495a45445f414c4c4f57414e43450000000000000000006044820152606401610718565b612624828261324b565b73ffffffffffffffffffffffffffffffffffffffff851660009081526002602090815260408083203384529091529020555b505b610fdf8383836122c9565b80600080828254612674919061308d565b909155505073ffffffffffffffffffffffffffffffffffffffff8216600090815260016020526040812080548392906126ae90849061308d565b909155505060405181815273ffffffffffffffffffffffffffffffffffffffff8316906000907fddf252ad1be2c89b69c2b068fc378daa952ba7f163c4a11628f55a4df523b3ef9060200160405180910390a35050565b60065473ffffffffffffffffffffffffffffffffffffffff828116911614610be057600680547fffffffffffffffffffffffff00000000000000000000000000000000000000001673ffffffffffffffffffffffffffffffffffffffff83169081179091556040519081527f33b005d053f740768cddf56d4aae11b8b1fb294e749565266b2f2b20e80e9cdf90602001611685565b60405173ffffffffffffffffffffffffffffffffffffffff808516602483015283166044820152606481018290526107f69085907f23b872dd0000000000000000000000000000000000000000000000000000000090608401612141565b600061285a826040518060400160405280602081526020017f5361666545524332303a206c6f772d6c6576656c2063616c6c206661696c65648152508573ffffffffffffffffffffffffffffffffffffffff166129049092919063ffffffff16565b805190915015610fdf578080602001905181019061287891906131d5565b610fdf576040517f08c379a000000000000000000000000000000000000000000000000000000000815260206004820152602a60248201527f5361666545524332303a204552433230206f7065726174696f6e20646964206e60448201527f6f742073756363656564000000000000000000000000000000000000000000006064820152608401610718565b6060612913848460008561291b565b949350505050565b6060824710156129ad576040517f08c379a000000000000000000000000000000000000000000000000000000000815260206004820152602660248201527f416464726573733a20696e73756666696369656e742062616c616e636520666f60448201527f722063616c6c00000000000000000000000000000000000000000000000000006064820152608401610718565b843b612a15576040517f08c379a000000000000000000000000000000000000000000000000000000000815260206004820152601d60248201527f416464726573733a2063616c6c20746f206e6f6e2d636f6e74726163740000006044820152606401610718565b6000808673ffffffffffffffffffffffffffffffffffffffff168587604051612a3e9190613262565b60006040518083038185875af1925050503d8060008114612a7b576040519150601f19603f3d011682016040523d82523d6000602084013e612a80565b606091505b5091509150612a90828286612a9b565b979650505050505050565b60608315612aaa5750816109d7565b825115612aba5782518084602001fd5b816040517f08c379a00000000000000000000000000000000000000000000000000000000081526004016107189190612be2565b73ffffffffffffffffffffffffffffffffffffffff81168114612b1057600080fd5b50565b600060208284031215612b2557600080fd5b81356109d781612aee565b600080600060408486031215612b4557600080fd5b833567ffffffffffffffff80821115612b5d57600080fd5b818601915086601f830112612b7157600080fd5b813581811115612b8057600080fd5b8760208260061b8501011115612b9557600080fd5b60209283019550935050840135612bab81612aee565b809150509250925092565b60005b83811015612bd1578181015183820152602001612bb9565b838111156107f65750506000910152565b6020815260008251806020840152612c01816040850160208701612bb6565b601f017fffffffffffffffffffffffffffffffffffffffffffffffffffffffffffffffe0169190910160400192915050565b60008060408385031215612c4657600080fd5b8235612c5181612aee565b946020939093013593505050565b60008083601f840112612c7157600080fd5b50813567ffffffffffffffff811115612c8957600080fd5b6020830191508360208260051b8501011115612ca457600080fd5b9250929050565b600080600060408486031215612cc057600080fd5b833567ffffffffffffffff811115612cd757600080fd5b612ce386828701612c5f565b909790965060209590950135949350505050565b600080600060608486031215612d0c57600080fd5b8335612d1781612aee565b92506020840135612d2781612aee565b929592945050506040919091013590565b60008083601f840112612d4a57600080fd5b50813567ffffffffffffffff811115612d6257600080fd5b602083019150836020828501011115612ca457600080fd5b60008060008060608587031215612d9057600080fd5b8435612d9b81612aee565b935060208501359250604085013567ffffffffffffffff811115612dbe57600080fd5b612dca87828801612d38565b95989497509550505050565b600080600080600060808688031215612dee57600080fd5b8535612df981612aee565b94506020860135612e0981612aee565b935060408601359250606086013567ffffffffffffffff811115612e2c57600080fd5b612e3888828901612d38565b969995985093965092949392505050565b60008060008060008060608789031215612e6257600080fd5b863567ffffffffffffffff80821115612e7a57600080fd5b612e868a838b01612c5f565b90985096506020890135915080821115612e9f57600080fd5b612eab8a838b01612c5f565b90965094506040890135915080821115612ec457600080fd5b50612ed189828a01612c5f565b979a9699509497509295939492505050565b60008060408385031215612ef657600080fd5b8235612f0181612aee565b91506020830135612f1181612aee565b809150509250929050565b8015158114612b1057600080fd5b60008060408385031215612f3d57600080fd5b8235612f4881612aee565b91506020830135612f1181612f1c565b600080600080600080600060e0888a031215612f7357600080fd5b8735612f7e81612aee565b96506020880135612f8e81612aee565b95506040880135945060608801359350608088013560ff81168114612fb257600080fd5b9699959850939692959460a0840135945060c09093013592915050565b60008060008060408587031215612fe557600080fd5b843567ffffffffffffffff80821115612ffd57600080fd5b61300988838901612c5f565b9096509450602087013591508082111561302257600080fd5b50612dca87828801612c5f565b7f4e487b7100000000000000000000000000000000000000000000000000000000600052603260045260246000fd5b7f4e487b7100000000000000000000000000000000000000000000000000000000600052601160045260246000fd5b600082198211156130a0576130a061305e565b500190565b60007fffffffffffffffffffffffffffffffffffffffffffffffffffffffffffffffff8214156130d7576130d761305e565b5060010190565b600082613114577f4e487b7100000000000000000000000000000000000000000000000000000000600052601260045260246000fd5b500490565b6000817fffffffffffffffffffffffffffffffffffffffffffffffffffffffffffffffff04831182151516156131515761315161305e565b500290565b8183528181602085013750600060208284010152600060207fffffffffffffffffffffffffffffffffffffffffffffffffffffffffffffffe0601f840116840101905092915050565b73ffffffffffffffffffffffffffffffffffffffff85168152836020820152606060408201526000610c9d606083018486613156565b6000602082840312156131e757600080fd5b81516109d781612f1c565b600073ffffffffffffffffffffffffffffffffffffffff808816835280871660208401525084604083015260806060830152612a90608083018486613156565b60006020828403121561324457600080fd5b5051919050565b60008282101561325d5761325d61305e565b500390565b60008251613274818460208701612bb6565b919091019291505056fea2646970667358221220ab931cfd26a9250772d484b1afc14ad592525e31b6dbec6f2a6bf4d19be2571164736f6c63430008090033",
  "devdoc": {
    "kind": "dev",
    "methods": {
      "allowance(address,address)": {
        "details": "Returns the remaining number of tokens that `spender` will be allowed to spend on behalf of `owner` through {transferFrom}. This is zero by default. This value changes when {approve} or {transferFrom} are called."
      },
      "approve(address,uint256)": {
        "details": "Sets `amount` as the allowance of `spender` over the caller's tokens. Returns a boolean value indicating whether the operation succeeded. IMPORTANT: Beware that changing an allowance with this method brings the risk that someone may use both the old and the new allowance by unfortunate transaction ordering. One possible solution to mitigate this race condition is to first reduce the spender's allowance to 0 and set the desired value afterwards: https://github.com/ethereum/EIPs/issues/20#issuecomment-263524729 Emits an {Approval} event."
      },
      "totalSupply()": {
        "details": "Returns the amount of tokens in existence."
      }
    },
    "version": 1
  },
  "userdoc": {
    "kind": "user",
    "methods": {},
    "version": 1
  },
  "storageLayout": {
    "storage": [
      {
        "astId": 13274,
        "contract": "src/conquest_token/FreePlayToken.sol:FreePlayToken",
        "label": "_totalSupply",
        "offset": 0,
        "slot": "0",
        "type": "t_uint256"
      },
      {
        "astId": 13278,
        "contract": "src/conquest_token/FreePlayToken.sol:FreePlayToken",
        "label": "_balances",
        "offset": 0,
        "slot": "1",
        "type": "t_mapping(t_address,t_uint256)"
      },
      {
        "astId": 13284,
        "contract": "src/conquest_token/FreePlayToken.sol:FreePlayToken",
        "label": "_allowances",
        "offset": 0,
        "slot": "2",
        "type": "t_mapping(t_address,t_mapping(t_address,t_uint256))"
      },
      {
        "astId": 14240,
        "contract": "src/conquest_token/FreePlayToken.sol:FreePlayToken",
        "label": "_nonces",
        "offset": 0,
        "slot": "3",
        "type": "t_mapping(t_address,t_uint256)"
      },
      {
        "astId": 14625,
        "contract": "src/conquest_token/FreePlayToken.sol:FreePlayToken",
        "label": "minters",
        "offset": 0,
        "slot": "4",
        "type": "t_mapping(t_address,t_bool)"
      },
      {
        "astId": 14629,
        "contract": "src/conquest_token/FreePlayToken.sol:FreePlayToken",
        "label": "burners",
        "offset": 0,
        "slot": "5",
        "type": "t_mapping(t_address,t_bool)"
      },
      {
        "astId": 14631,
        "contract": "src/conquest_token/FreePlayToken.sol:FreePlayToken",
        "label": "admin",
        "offset": 0,
        "slot": "6",
        "type": "t_address"
      }
    ],
    "types": {
      "t_address": {
        "encoding": "inplace",
        "label": "address",
        "numberOfBytes": "20"
      },
      "t_bool": {
        "encoding": "inplace",
        "label": "bool",
        "numberOfBytes": "1"
      },
      "t_mapping(t_address,t_bool)": {
        "encoding": "mapping",
        "key": "t_address",
        "label": "mapping(address => bool)",
        "numberOfBytes": "32",
        "value": "t_bool"
      },
      "t_mapping(t_address,t_mapping(t_address,t_uint256))": {
        "encoding": "mapping",
        "key": "t_address",
        "label": "mapping(address => mapping(address => uint256))",
        "numberOfBytes": "32",
        "value": "t_mapping(t_address,t_uint256)"
      },
      "t_mapping(t_address,t_uint256)": {
        "encoding": "mapping",
        "key": "t_address",
        "label": "mapping(address => uint256)",
        "numberOfBytes": "32",
        "value": "t_uint256"
      },
      "t_uint256": {
        "encoding": "inplace",
        "label": "uint256",
        "numberOfBytes": "32"
      }
    }
  }
}