{
  "address": "0x107ADF6C168C8AEF02A052037E898139b8c66B7a",
  "abi": [
    {
      "anonymous": false,
      "inputs": [
        {
          "indexed": true,
          "internalType": "contract IAlliance",
          "name": "alliance",
          "type": "address"
        },
        {
          "indexed": true,
          "internalType": "address",
          "name": "player",
          "type": "address"
        },
        {
          "indexed": false,
          "internalType": "bool",
          "name": "joining",
          "type": "bool"
        }
      ],
      "name": "AllianceLink",
      "type": "event"
    },
    {
      "inputs": [
        {
          "components": [
            {
              "internalType": "address",
              "name": "addr",
              "type": "address"
            },
            {
              "internalType": "uint32",
              "name": "nonce",
              "type": "uint32"
            },
            {
              "internalType": "bytes",
              "name": "signature",
              "type": "bytes"
            }
          ],
          "internalType": "struct AllianceRegistry.PlayerSubmission[]",
          "name": "playerSubmissions",
          "type": "tuple[]"
        }
      ],
      "name": "addMultiplePlayersToAlliance",
      "outputs": [],
      "stateMutability": "nonpayable",
      "type": "function"
    },
    {
      "inputs": [
        {
          "internalType": "address",
          "name": "player",
          "type": "address"
        },
        {
          "internalType": "uint32",
          "name": "nonce",
          "type": "uint32"
        },
        {
          "internalType": "bytes",
          "name": "signature",
          "type": "bytes"
        }
      ],
      "name": "addPlayerToAlliance",
      "outputs": [],
      "stateMutability": "nonpayable",
      "type": "function"
    },
    {
      "inputs": [
        {
          "internalType": "address",
          "name": "player",
          "type": "address"
        }
      ],
      "name": "ejectPlayerFromAlliance",
      "outputs": [],
      "stateMutability": "nonpayable",
      "type": "function"
    },
    {
      "inputs": [
        {
          "internalType": "address",
          "name": "player",
          "type": "address"
        },
        {
          "internalType": "contract IAlliance",
          "name": "alliance",
          "type": "address"
        }
      ],
      "name": "getAllianceData",
      "outputs": [
        {
          "internalType": "uint96",
          "name": "joinTime",
          "type": "uint96"
        },
        {
          "internalType": "uint256",
          "name": "nonce",
          "type": "uint256"
        }
      ],
      "stateMutability": "view",
      "type": "function"
    },
    {
      "inputs": [
        {
          "internalType": "address",
          "name": "player",
          "type": "address"
        },
        {
          "internalType": "uint8",
          "name": "slot",
          "type": "uint8"
        }
      ],
      "name": "getAllianceDataAtSlot",
      "outputs": [
        {
          "internalType": "contract IAlliance",
          "name": "alliance",
          "type": "address"
        },
        {
          "internalType": "uint96",
          "name": "joinTime",
          "type": "uint96"
        },
        {
          "internalType": "uint256",
          "name": "nonce",
          "type": "uint256"
        }
      ],
      "stateMutability": "view",
      "type": "function"
    },
    {
      "inputs": [
        {
          "internalType": "address",
          "name": "player1",
          "type": "address"
        },
        {
          "internalType": "address",
          "name": "player2",
          "type": "address"
        },
        {
          "internalType": "uint256",
          "name": "timestamp",
          "type": "uint256"
        }
      ],
      "name": "havePlayersAnAllianceInCommon",
      "outputs": [
        {
          "internalType": "contract IAlliance",
          "name": "alliance",
          "type": "address"
        },
        {
          "internalType": "uint96",
          "name": "joinTime",
          "type": "uint96"
        }
      ],
      "stateMutability": "view",
      "type": "function"
    },
    {
      "inputs": [
        {
          "internalType": "contract IAlliance",
          "name": "alliance",
          "type": "address"
        },
        {
          "internalType": "bytes",
          "name": "data",
          "type": "bytes"
        }
      ],
      "name": "joinAlliance",
      "outputs": [
        {
          "internalType": "bool",
          "name": "joined",
          "type": "bool"
        }
      ],
      "stateMutability": "nonpayable",
      "type": "function"
    },
    {
      "inputs": [
        {
          "internalType": "contract IAlliance",
          "name": "alliance",
          "type": "address"
        }
      ],
      "name": "leaveAlliance",
      "outputs": [],
      "stateMutability": "nonpayable",
      "type": "function"
    }
  ],
  "transactionHash": "0xc7c5d0cbe772a62ea30b77a38ecede1d127c7ee8f9f3e0c8e57c18f2cca6253e",
  "args": [],
  "solcInputHash": "486e565b42ec3b27daa127e4d9205b03",
  "bytecode": "0x608060405234801561001057600080fd5b50611f7c806100206000396000f3fe608060405234801561001057600080fd5b50600436106100885760003560e01c80636da066301161005b5780636da066301461013c5780637a784cb41461014f5780638efb75c314610162578063df2c0f491461017557600080fd5b8063137672021461008d57806317e796ea146100d25780634ed2986d146100e75780635f3f7a9a14610119575b600080fd5b6100a061009b366004611af3565b6101af565b604080516001600160a01b0390941684526001600160601b039092166020840152908201526060015b60405180910390f35b6100e56100e0366004611b32565b6102c0565b005b6100fa6100f5366004611b56565b6102cd565b604080516001600160601b0390931683526020830191909152016100c9565b61012c610127366004611bc6565b6103c4565b60405190151581526020016100c9565b6100e561014a366004611c34565b610630565b6100e561015d366004611b32565b610642565b6100e5610170366004611c97565b6106be565b610188610183366004611d0c565b610781565b604080516001600160a01b0390931683526001600160601b039091166020830152016100c9565b6001600160a01b03821660009081526001602052604081208190819060ff85166101f85780546001600160a01b0381169450600160a01b90046001600160601b03169250610290565b8460ff166001141561022c5760018101546001600160a01b0381169450600160a01b90046001600160601b03169250610290565b8460ff16600214156102605760028101546001600160a01b0381169450600160a01b90046001600160601b03169250610290565b8460ff16600314156102905760038101546001600160a01b0381169450600160a01b90046001600160601b031692505b50506001600160a01b03938416600090815260208181526040808320968516835295905293909320549093909150565b6102ca8133610c68565b50565b6001600160a01b038083166000818152602081815260408083208686168085529083528184205494845260019092528220805492949092161415610324578054600160a01b90046001600160601b031692506103bc565b60018101546001600160a01b0385811691161415610358576001810154600160a01b90046001600160601b031692506103bc565b60028101546001600160a01b038581169116141561038c576002810154600160a01b90046001600160601b031692506103bc565b60038101546001600160a01b03858116911614156103bc576003810154600160a01b90046001600160601b031692505b509250929050565b336000908152600160205260408120805482906001600160a01b0316156103f357806103ef81611d63565b9150505b60018201546001600160a01b031615610414578061041081611d63565b9150505b60028201546001600160a01b031615610435578061043181611d63565b9150505b60038201546001600160a01b0316156104955760405162461bcd60e51b815260206004820152601960248201527f4d41585f4e554d5f414c4c49414e4345535f524541434845440000000000000060448201526064015b60405180910390fd5b6040517f1d99b5540000000000000000000000000000000000000000000000000000000081526001600160a01b03871690631d99b554906104de90339089908990600401611d7e565b602060405180830381600087803b1580156104f857600080fd5b505af115801561050c573d6000803e3d6000fd5b505050506040513d601f19601f820116820180604052508101906105309190611dbd565b92508215610627578061055f576001600160601b034216600160a01b026001600160a01b0387161782556105e5565b806001141561058d576001600160601b034216600160a01b026001600160a01b0387161760018301556105e5565b80600214156105bb576001600160601b034216600160a01b026001600160a01b0387161760028301556105e5565b80600314156105e5576001600160601b034216600160a01b026001600160a01b0387161760038301555b6040516001815233906001600160a01b038816907f5e60402083b3427099886174996f295e5e29d12bbe871aef1041e9a4324cdb099060200160405180910390a35b50509392505050565b61063c84848484610f1d565b50505050565b61064c3382610c68565b6040517f9192e3020000000000000000000000000000000000000000000000000000000081523360048201526001600160a01b03821690639192e30290602401600060405180830381600087803b1580156106a657600080fd5b505af19250505080156106b7575060015b6102ca5750565b60005b8181101561077c5761076a8383838181106106de576106de611ddf565b90506020028101906106f09190611df5565b6106fe906020810190611b32565b84848481811061071057610710611ddf565b90506020028101906107229190611df5565b610733906040810190602001611e33565b85858581811061074557610745611ddf565b90506020028101906107579190611df5565b610765906040810190611e4e565b610f1d565b8061077481611d63565b9150506106c1565b505050565b6001600160a01b0380841660009081526001602052604080822092851682528120909182916107ae611aa5565b6107b6611aa5565b60008060005b6004811015610c5857828114156109135760408051808201909152600080825260208201528161081957506040805180820190915287546001600160a01b0381168252600160a01b90046001600160601b031660208201526108d2565b816001141561085857506040805180820190915260018801546001600160a01b0381168252600160a01b90046001600160601b031660208201526108d2565b816002141561089757506040805180820190915260028801546001600160a01b0381168252600160a01b90046001600160601b031660208201526108d2565b81600314156108d257506040805180820190915260038801546001600160a01b0381168252600160a01b90046001600160601b031660208201525b80516001600160a01b03166108ee575050505050505050610c60565b8086856108fa81611d63565b96506004811061090c5761090c611ddf565b6020020152505b60005b6004811015610c455782811415610a665760408051808201909152600080825260208201528161097357506040805180820190915287546001600160a01b0381168252600160a01b90046001600160601b03166020820152610a2c565b81600114156109b257506040805180820190915260018801546001600160a01b0381168252600160a01b90046001600160601b03166020820152610a2c565b81600214156109f157506040805180820190915260028801546001600160a01b0381168252600160a01b90046001600160601b03166020820152610a2c565b8160031415610a2c57506040805180820190915260038801546001600160a01b0381168252600160a01b90046001600160601b031660208201525b80516001600160a01b0316610a415750610c45565b808685610a4d81611d63565b965060048110610a5f57610a5f611ddf565b6020020152505b848160048110610a7857610a78611ddf565b6020020151516001600160a01b0316868360048110610a9957610a99611ddf565b6020020151516001600160a01b03161415610c3357848160048110610ac057610ac0611ddf565b6020020151602001516001600160601b0316868360048110610ae457610ae4611ddf565b6020020151602001516001600160601b031610610ba6578a868360048110610b0e57610b0e611ddf565b6020020151602001516001600160601b03161015610b6a57858260048110610b3857610b38611ddf565b602002015151868360048110610b5057610b50611ddf565b602002015160200151995099505050505050505050610c60565b858260048110610b7c57610b7c611ddf565b6020020151519950858260048110610b9657610b96611ddf565b6020020151602001519850610c33565b8a858260048110610bb957610bb9611ddf565b6020020151602001516001600160601b03161015610bfb57848160048110610be357610be3611ddf565b602002015151858260048110610b5057610b50611ddf565b848160048110610c0d57610c0d611ddf565b6020020151519950848160048110610c2757610c27611ddf565b60200201516020015198505b80610c3d81611d63565b915050610916565b5080610c5081611d63565b9150506107bc565b505050505050505b935093915050565b336000908152600160205260408120805490919081906001600160a01b0316610cd35760405162461bcd60e51b815260206004820152601860248201527f4e4f545f504152545f4f465f414e595f414c4c49414e43450000000000000000604482015260640161048c565b60018301546001600160a01b0316610d0d5750508054600082556001600160a01b03811690600160a01b90046001600160601b0316610db4565b60028301546001600160a01b0316610d4c57505060018101805460009091556001600160a01b03811690600160a01b90046001600160601b0316610db4565b60038301546001600160a01b0316610d8b57505060028101805460009091556001600160a01b03811690600160a01b90046001600160601b0316610db4565b505060038101805460009091556001600160a01b03811690600160a01b90046001600160601b03165b816001600160a01b0316846001600160a01b031614610ec65782546001600160a01b0385811691161415610e04576001600160601b038116600160a01b026001600160a01b038316178355610ec6565b60018301546001600160a01b0385811691161415610e41576001600160601b038116600160a01b026001600160a01b038316176001840155610ec6565b60028301546001600160a01b0385811691161415610e7e576001600160601b038116600160a01b026001600160a01b038316176002840155610ec6565b60405162461bcd60e51b815260206004820152601860248201527f4e4f545f504152545f4f465f5448455f414c4c49414e43450000000000000000604482015260640161048c565b846001600160a01b0316846001600160a01b03167f5e60402083b3427099886174996f295e5e29d12bbe871aef1041e9a4324cdb096000604051610f0e911515815260200190565b60405180910390a35050505050565b6001600160a01b038085166000908152600160205260408120805433939192911615610fae5781546001600160a01b0384811691161415610fa05760405162461bcd60e51b815260206004820152600e60248201527f414c52454144595f4a4f494e4544000000000000000000000000000000000000604482015260640161048c565b80610faa81611d63565b9150505b60018201546001600160a01b03161561102f5760018201546001600160a01b03848116911614156110215760405162461bcd60e51b815260206004820152600e60248201527f414c52454144595f4a4f494e4544000000000000000000000000000000000000604482015260640161048c565b8061102b81611d63565b9150505b60028201546001600160a01b0316156110b05760028201546001600160a01b03848116911614156110a25760405162461bcd60e51b815260206004820152600e60248201527f414c52454144595f4a4f494e4544000000000000000000000000000000000000604482015260640161048c565b806110ac81611d63565b9150505b60038201546001600160a01b03848116911614156111105760405162461bcd60e51b815260206004820152600e60248201527f414c52454144595f4a4f494e4544000000000000000000000000000000000000604482015260640161048c565b60038201546001600160a01b03161561116b5760405162461bcd60e51b815260206004820152601960248201527f4d41585f4e554d5f414c4c49414e4345535f5245414348454400000000000000604482015260640161048c565b6001600160a01b038088166000908152602081815260408083209387168352929052205463ffffffff871681146111e45760405162461bcd60e51b815260206004820152600d60248201527f494e56414c49445f4e4f4e434500000000000000000000000000000000000000604482015260640161048c565b606063ffffffff881661128c576040517f19457468657265756d205369676e6564204d6573736167653a0a35360000000060208201527f4a6f696e20416c6c69616e636520307830303030303030303030303030303030603c8201527f3030303030303030303030303030303030303030303030300000000000000000605c82015260740160408051601f19818403018152919052905061128781605333611537565b61135a565b6040517f19457468657265756d205369676e6564204d6573736167653a0a37360000000060208201527f4a6f696e20416c6c69616e636520307830303030303030303030303030303030603c8201527f30303030303030303030303030303030303030303030303020286e6f6e63653a605c8201527f2020202020202020202030290000000000000000000000000000000000000000607c82015260880160408051601f19818403018152919052905061134881605333611537565b61135a8160668a63ffffffff16611611565b60008180519060200120905060006113aa89898080601f01602080910402602001604051908101604052809392919081815260200183838082843760009201919091525086939250506116eb9050565b9050806001600160a01b03168b6001600160a01b03161461140d5760405162461bcd60e51b815260206004820152601160248201527f494e56414c49445f5349474e4154555245000000000000000000000000000000604482015260640161048c565b84611434576001600160601b034216600160a01b026001600160a01b0388161786556114ba565b8460011415611462576001600160601b034216600160a01b026001600160a01b0388161760018701556114ba565b8460021415611490576001600160601b034216600160a01b026001600160a01b0388161760028701556114ba565b84600314156114ba576001600160601b034216600160a01b026001600160a01b0388161760038701555b6114c58a6001611eb3565b6001600160a01b038c8116600081815260208181526040808320948d168084529482529182902063ffffffff95909516909455516001815290927f5e60402083b3427099886174996f295e5e29d12bbe871aef1041e9a4324cdb09910160405180910390a35050505050505050505050565b801561077c576040805180820190915260108082527f3031323334353637383961626364656600000000000000000000000000000000602083015261157c9083611ef1565b8151811061158c5761158c611ddf565b01602001517fff000000000000000000000000000000000000000000000000000000000000001683836115be81611f05565b9450815181106115d0576115d0611ddf565b60200101907effffffffffffffffffffffffffffffffffffffffffffffffffffffffffffff1916908160001a90535061160a601082611f1c565b9050611537565b801561077c5760408051808201909152600a8082527f303132333435363738390000000000000000000000000000000000000000000060208301526116569083611ef1565b8151811061166657611666611ddf565b01602001517fff0000000000000000000000000000000000000000000000000000000000000016838361169881611f05565b9450815181106116aa576116aa611ddf565b60200101907effffffffffffffffffffffffffffffffffffffffffffffffffffffffffffff1916908160001a9053506116e4600a82611f1c565b9050611611565b60008060006116fa858561170f565b915091506117078161177f565b509392505050565b6000808251604114156117465760208301516040840151606085015160001a61173a87828585611970565b94509450505050611778565b8251604014156117705760208301516040840151611765868383611a5d565b935093505050611778565b506000905060025b9250929050565b600081600481111561179357611793611f30565b141561179c5750565b60018160048111156117b0576117b0611f30565b14156117fe5760405162461bcd60e51b815260206004820152601860248201527f45434453413a20696e76616c6964207369676e61747572650000000000000000604482015260640161048c565b600281600481111561181257611812611f30565b14156118605760405162461bcd60e51b815260206004820152601f60248201527f45434453413a20696e76616c6964207369676e6174757265206c656e67746800604482015260640161048c565b600381600481111561187457611874611f30565b14156118e85760405162461bcd60e51b815260206004820152602260248201527f45434453413a20696e76616c6964207369676e6174757265202773272076616c60448201527f7565000000000000000000000000000000000000000000000000000000000000606482015260840161048c565b60048160048111156118fc576118fc611f30565b14156102ca5760405162461bcd60e51b815260206004820152602260248201527f45434453413a20696e76616c6964207369676e6174757265202776272076616c60448201527f7565000000000000000000000000000000000000000000000000000000000000606482015260840161048c565b6000807f7fffffffffffffffffffffffffffffff5d576e7357a4501ddfe92f46681b20a08311156119a75750600090506003611a54565b8460ff16601b141580156119bf57508460ff16601c14155b156119d05750600090506004611a54565b6040805160008082526020820180845289905260ff881692820192909252606081018690526080810185905260019060a0016020604051602081039080840390855afa158015611a24573d6000803e3d6000fd5b5050604051601f1901519150506001600160a01b038116611a4d57600060019250925050611a54565b9150600090505b94509492505050565b6000807f7fffffffffffffffffffffffffffffffffffffffffffffffffffffffffffffff831660ff84901c601b01611a9787828885611970565b935093505050935093915050565b60405180608001604052806004905b6040805180820190915260008082526020820152815260200190600190039081611ab45790505090565b6001600160a01b03811681146102ca57600080fd5b60008060408385031215611b0657600080fd5b8235611b1181611ade565b9150602083013560ff81168114611b2757600080fd5b809150509250929050565b600060208284031215611b4457600080fd5b8135611b4f81611ade565b9392505050565b60008060408385031215611b6957600080fd5b8235611b7481611ade565b91506020830135611b2781611ade565b60008083601f840112611b9657600080fd5b50813567ffffffffffffffff811115611bae57600080fd5b60208301915083602082850101111561177857600080fd5b600080600060408486031215611bdb57600080fd5b8335611be681611ade565b9250602084013567ffffffffffffffff811115611c0257600080fd5b611c0e86828701611b84565b9497909650939450505050565b803563ffffffff81168114611c2f57600080fd5b919050565b60008060008060608587031215611c4a57600080fd5b8435611c5581611ade565b9350611c6360208601611c1b565b9250604085013567ffffffffffffffff811115611c7f57600080fd5b611c8b87828801611b84565b95989497509550505050565b60008060208385031215611caa57600080fd5b823567ffffffffffffffff80821115611cc257600080fd5b818501915085601f830112611cd657600080fd5b813581811115611ce557600080fd5b8660208260051b8501011115611cfa57600080fd5b60209290920196919550909350505050565b600080600060608486031215611d2157600080fd5b8335611d2c81611ade565b92506020840135611d3c81611ade565b929592945050506040919091013590565b634e487b7160e01b600052601160045260246000fd5b6000600019821415611d7757611d77611d4d565b5060010190565b6001600160a01b038416815260406020820152816040820152818360608301376000818301606090810191909152601f909201601f1916010192915050565b600060208284031215611dcf57600080fd5b81518015158114611b4f57600080fd5b634e487b7160e01b600052603260045260246000fd5b600082357fffffffffffffffffffffffffffffffffffffffffffffffffffffffffffffffa1833603018112611e2957600080fd5b9190910192915050565b600060208284031215611e4557600080fd5b611b4f82611c1b565b60008083357fffffffffffffffffffffffffffffffffffffffffffffffffffffffffffffffe1843603018112611e8357600080fd5b83018035915067ffffffffffffffff821115611e9e57600080fd5b60200191503681900382131561177857600080fd5b600063ffffffff808316818516808303821115611ed257611ed2611d4d565b01949350505050565b634e487b7160e01b600052601260045260246000fd5b600082611f0057611f00611edb565b500690565b600081611f1457611f14611d4d565b506000190190565b600082611f2b57611f2b611edb565b500490565b634e487b7160e01b600052602160045260246000fdfea26469706673582212207443682baf7237bbd0b135df01657f1af863484e07ebd8c9e3285651f5b8f7ee64736f6c63430008090033",
  "devdoc": {
    "kind": "dev",
    "methods": {},
    "version": 1
  },
  "userdoc": {
    "kind": "user",
    "methods": {},
    "version": 1
  },
  "storageLayout": {
    "storage": [
      {
        "astId": 9237,
        "contract": "src/AllianceRegistry.sol:AllianceRegistry",
        "label": "_allianceNonces",
        "offset": 0,
        "slot": "0",
        "type": "t_mapping(t_address,t_mapping(t_contract(IAlliance)15112,t_uint256))"
      },
      {
        "astId": 9261,
        "contract": "src/AllianceRegistry.sol:AllianceRegistry",
        "label": "_alliances",
        "offset": 0,
        "slot": "1",
        "type": "t_mapping(t_address,t_struct(Alliances)9256_storage)"
      }
    ],
    "types": {
      "t_address": {
        "encoding": "inplace",
        "label": "address",
        "numberOfBytes": "20"
      },
      "t_contract(IAlliance)15112": {
        "encoding": "inplace",
        "label": "contract IAlliance",
        "numberOfBytes": "20"
      },
      "t_mapping(t_address,t_mapping(t_contract(IAlliance)15112,t_uint256))": {
        "encoding": "mapping",
        "key": "t_address",
        "label": "mapping(address => mapping(contract IAlliance => uint256))",
        "numberOfBytes": "32",
        "value": "t_mapping(t_contract(IAlliance)15112,t_uint256)"
      },
      "t_mapping(t_address,t_struct(Alliances)9256_storage)": {
        "encoding": "mapping",
        "key": "t_address",
        "label": "mapping(address => struct AllianceRegistry.Alliances)",
        "numberOfBytes": "32",
        "value": "t_struct(Alliances)9256_storage"
      },
      "t_mapping(t_contract(IAlliance)15112,t_uint256)": {
        "encoding": "mapping",
        "key": "t_contract(IAlliance)15112",
        "label": "mapping(contract IAlliance => uint256)",
        "numberOfBytes": "32",
        "value": "t_uint256"
      },
      "t_struct(AllianceRow)9243_storage": {
        "encoding": "inplace",
        "label": "struct AllianceRegistry.AllianceRow",
        "members": [
          {
            "astId": 9240,
            "contract": "src/AllianceRegistry.sol:AllianceRegistry",
            "label": "alliance",
            "offset": 0,
            "slot": "0",
            "type": "t_contract(IAlliance)15112"
          },
          {
            "astId": 9242,
            "contract": "src/AllianceRegistry.sol:AllianceRegistry",
            "label": "joinTime",
            "offset": 20,
            "slot": "0",
            "type": "t_uint96"
          }
        ],
        "numberOfBytes": "32"
      },
      "t_struct(Alliances)9256_storage": {
        "encoding": "inplace",
        "label": "struct AllianceRegistry.Alliances",
        "members": [
          {
            "astId": 9246,
            "contract": "src/AllianceRegistry.sol:AllianceRegistry",
            "label": "alliance0",
            "offset": 0,
            "slot": "0",
            "type": "t_struct(AllianceRow)9243_storage"
          },
          {
            "astId": 9249,
            "contract": "src/AllianceRegistry.sol:AllianceRegistry",
            "label": "alliance1",
            "offset": 0,
            "slot": "1",
            "type": "t_struct(AllianceRow)9243_storage"
          },
          {
            "astId": 9252,
            "contract": "src/AllianceRegistry.sol:AllianceRegistry",
            "label": "alliance2",
            "offset": 0,
            "slot": "2",
            "type": "t_struct(AllianceRow)9243_storage"
          },
          {
            "astId": 9255,
            "contract": "src/AllianceRegistry.sol:AllianceRegistry",
            "label": "alliance3",
            "offset": 0,
            "slot": "3",
            "type": "t_struct(AllianceRow)9243_storage"
          }
        ],
        "numberOfBytes": "128"
      },
      "t_uint256": {
        "encoding": "inplace",
        "label": "uint256",
        "numberOfBytes": "32"
      },
      "t_uint96": {
        "encoding": "inplace",
        "label": "uint96",
        "numberOfBytes": "12"
      }
    }
  }
}