{
  "address": "0xEb0c4063a6A8D00971c18b6A258bAA8DC4152429",
  "abi": [
    {
      "inputs": [],
      "stateMutability": "nonpayable",
      "type": "constructor"
    },
    {
      "anonymous": false,
      "inputs": [
        {
          "indexed": true,
          "internalType": "address",
          "name": "owner",
          "type": "address"
        },
        {
          "indexed": true,
          "internalType": "address",
          "name": "spender",
          "type": "address"
        },
        {
          "indexed": false,
          "internalType": "uint256",
          "name": "value",
          "type": "uint256"
        }
      ],
      "name": "Approval",
      "type": "event"
    },
    {
      "anonymous": false,
      "inputs": [
        {
          "indexed": true,
          "internalType": "address",
          "name": "from",
          "type": "address"
        },
        {
          "indexed": true,
          "internalType": "address",
          "name": "to",
          "type": "address"
        },
        {
          "indexed": false,
          "internalType": "uint256",
          "name": "value",
          "type": "uint256"
        }
      ],
      "name": "Transfer",
      "type": "event"
    },
    {
      "inputs": [
        {
          "internalType": "address",
          "name": "owner",
          "type": "address"
        },
        {
          "internalType": "address",
          "name": "spender",
          "type": "address"
        }
      ],
      "name": "allowance",
      "outputs": [
        {
          "internalType": "uint256",
          "name": "",
          "type": "uint256"
        }
      ],
      "stateMutability": "view",
      "type": "function"
    },
    {
      "inputs": [
        {
          "internalType": "address",
          "name": "spender",
          "type": "address"
        },
        {
          "internalType": "uint256",
          "name": "amount",
          "type": "uint256"
        }
      ],
      "name": "approve",
      "outputs": [
        {
          "internalType": "bool",
          "name": "",
          "type": "bool"
        }
      ],
      "stateMutability": "nonpayable",
      "type": "function"
    },
    {
      "inputs": [
        {
          "internalType": "address",
          "name": "spender",
          "type": "address"
        },
        {
          "internalType": "uint256",
          "name": "amount",
          "type": "uint256"
        },
        {
          "internalType": "bytes",
          "name": "data",
          "type": "bytes"
        }
      ],
      "name": "approveAndCall",
      "outputs": [
        {
          "internalType": "bool",
          "name": "",
          "type": "bool"
        }
      ],
      "stateMutability": "nonpayable",
      "type": "function"
    },
    {
      "inputs": [
        {
          "internalType": "address",
          "name": "owner",
          "type": "address"
        }
      ],
      "name": "balanceOf",
      "outputs": [
        {
          "internalType": "uint256",
          "name": "",
          "type": "uint256"
        }
      ],
      "stateMutability": "view",
      "type": "function"
    },
    {
      "inputs": [],
      "name": "decimals",
      "outputs": [
        {
          "internalType": "uint8",
          "name": "",
          "type": "uint8"
        }
      ],
      "stateMutability": "pure",
      "type": "function"
    },
    {
      "inputs": [
        {
          "internalType": "address payable[]",
          "name": "tos",
          "type": "address[]"
        },
        {
          "internalType": "uint256",
          "name": "totalAmount",
          "type": "uint256"
        }
      ],
      "name": "distributeAlongWithETH",
      "outputs": [
        {
          "internalType": "bool",
          "name": "",
          "type": "bool"
        }
      ],
      "stateMutability": "payable",
      "type": "function"
    },
    {
      "inputs": [
        {
          "internalType": "address payable[]",
          "name": "tos",
          "type": "address[]"
        },
        {
          "internalType": "uint256[]",
          "name": "amounts",
          "type": "uint256[]"
        }
      ],
      "name": "distributeVariousAmountsAlongWithETH",
      "outputs": [
        {
          "internalType": "bool",
          "name": "",
          "type": "bool"
        }
      ],
      "stateMutability": "payable",
      "type": "function"
    },
    {
      "inputs": [],
      "name": "exchangeRateCurrent",
      "outputs": [
        {
          "internalType": "uint256",
          "name": "",
          "type": "uint256"
        }
      ],
      "stateMutability": "view",
      "type": "function"
    },
    {
      "inputs": [
        {
          "internalType": "uint256",
          "name": "",
          "type": "uint256"
        }
      ],
      "name": "mint",
      "outputs": [
        {
          "internalType": "uint256",
          "name": "",
          "type": "uint256"
        }
      ],
      "stateMutability": "nonpayable",
      "type": "function"
    },
    {
      "inputs": [],
      "name": "name",
      "outputs": [
        {
          "internalType": "string",
          "name": "",
          "type": "string"
        }
      ],
      "stateMutability": "pure",
      "type": "function"
    },
    {
      "inputs": [
        {
          "internalType": "address",
          "name": "forAddress",
          "type": "address"
        },
        {
          "internalType": "address",
          "name": "to",
          "type": "address"
        },
        {
          "internalType": "uint256",
          "name": "amount",
          "type": "uint256"
        },
        {
          "internalType": "bytes",
          "name": "data",
          "type": "bytes"
        }
      ],
      "name": "payForAndCall",
      "outputs": [
        {
          "internalType": "bool",
          "name": "",
          "type": "bool"
        }
      ],
      "stateMutability": "nonpayable",
      "type": "function"
    },
    {
      "inputs": [
        {
          "internalType": "uint256",
          "name": "",
          "type": "uint256"
        }
      ],
      "name": "redeem",
      "outputs": [
        {
          "internalType": "uint256",
          "name": "",
          "type": "uint256"
        }
      ],
      "stateMutability": "nonpayable",
      "type": "function"
    },
    {
      "inputs": [
        {
          "internalType": "uint256",
          "name": "",
          "type": "uint256"
        }
      ],
      "name": "redeemUnderlying",
      "outputs": [
        {
          "internalType": "uint256",
          "name": "",
          "type": "uint256"
        }
      ],
      "stateMutability": "nonpayable",
      "type": "function"
    },
    {
      "inputs": [],
      "name": "supplyRatePerBlock",
      "outputs": [
        {
          "internalType": "uint256",
          "name": "",
          "type": "uint256"
        }
      ],
      "stateMutability": "view",
      "type": "function"
    },
    {
      "inputs": [],
      "name": "totalSupply",
      "outputs": [
        {
          "internalType": "uint256",
          "name": "",
          "type": "uint256"
        }
      ],
      "stateMutability": "view",
      "type": "function"
    },
    {
      "inputs": [
        {
          "internalType": "address",
          "name": "to",
          "type": "address"
        },
        {
          "internalType": "uint256",
          "name": "amount",
          "type": "uint256"
        }
      ],
      "name": "transfer",
      "outputs": [
        {
          "internalType": "bool",
          "name": "",
          "type": "bool"
        }
      ],
      "stateMutability": "nonpayable",
      "type": "function"
    },
    {
      "inputs": [
        {
          "internalType": "address payable",
          "name": "to",
          "type": "address"
        },
        {
          "internalType": "uint256",
          "name": "amount",
          "type": "uint256"
        }
      ],
      "name": "transferAlongWithETH",
      "outputs": [
        {
          "internalType": "bool",
          "name": "",
          "type": "bool"
        }
      ],
      "stateMutability": "payable",
      "type": "function"
    },
    {
      "inputs": [
        {
          "internalType": "address",
          "name": "to",
          "type": "address"
        },
        {
          "internalType": "uint256",
          "name": "amount",
          "type": "uint256"
        },
        {
          "internalType": "bytes",
          "name": "data",
          "type": "bytes"
        }
      ],
      "name": "transferAndCall",
      "outputs": [
        {
          "internalType": "bool",
          "name": "",
          "type": "bool"
        }
      ],
      "stateMutability": "nonpayable",
      "type": "function"
    },
    {
      "inputs": [
        {
          "internalType": "address",
          "name": "from",
          "type": "address"
        },
        {
          "internalType": "address",
          "name": "to",
          "type": "address"
        },
        {
          "internalType": "uint256",
          "name": "amount",
          "type": "uint256"
        }
      ],
      "name": "transferFrom",
      "outputs": [
        {
          "internalType": "bool",
          "name": "",
          "type": "bool"
        }
      ],
      "stateMutability": "nonpayable",
      "type": "function"
    },
    {
      "inputs": [
        {
          "internalType": "address",
          "name": "from",
          "type": "address"
        },
        {
          "internalType": "address",
          "name": "to",
          "type": "address"
        },
        {
          "internalType": "uint256",
          "name": "amount",
          "type": "uint256"
        },
        {
          "internalType": "bytes",
          "name": "data",
          "type": "bytes"
        }
      ],
      "name": "transferFromAndCall",
      "outputs": [
        {
          "internalType": "bool",
          "name": "",
          "type": "bool"
        }
      ],
      "stateMutability": "nonpayable",
      "type": "function"
    }
  ],
  "transactionHash": "0xc17a75536b091c3d95ab9137c090ff89a458d400f0ca61dde2cd56cf29de0906",
  "args": [],
  "solcInputHash": "b6306f36ae27f67da6f89af7c66a0689",
  "bytecode": "0x608060405234801561001057600080fd5b50611206806100206000396000f3fe60806040526004361061015f5760003560e01c8063a0712d68116100c0578063cae9ca5111610074578063dd62ed3e11610059578063dd62ed3e1461037d578063df752eed1461039d578063e7fcb065146103b057600080fd5b8063cae9ca511461035d578063db006a75146102cd57600080fd5b8063ae9d70b0116100a5578063ae9d70b01461030e578063bd6d894d14610322578063c1d34b891461033d57600080fd5b8063a0712d68146102cd578063a9059cbb146102ee57600080fd5b8063313ce5671161011757806363d994c7116100fc57806363d994c71461027757806370a0823114610297578063852a12e3146102cd57600080fd5b8063313ce5671461023b5780634000aea01461025757600080fd5b80630e02df54116101485780630e02df54146101e957806318160ddd146101fc57806323b872dd1461021b57600080fd5b806306fdde0314610164578063095ea7b3146101b9575b600080fd5b34801561017057600080fd5b50604080518082018252600681527f43544f4b454e0000000000000000000000000000000000000000000000000000602082015290516101b09190610d0c565b60405180910390f35b3480156101c557600080fd5b506101d96101d4366004610d79565b6103c3565b60405190151581526020016101b0565b6101d96101f7366004610df1565b6103da565b34801561020857600080fd5b506000545b6040519081526020016101b0565b34801561022757600080fd5b506101d9610236366004610e3d565b610567565b34801561024757600080fd5b50604051601281526020016101b0565b34801561026357600080fd5b506101d9610272366004610ec0565b61057e565b34801561028357600080fd5b506101d9610292366004610f1c565b610631565b3480156102a357600080fd5b5061020d6102b2366004610f8f565b6001600160a01b031660009081526001602052604090205490565b3480156102d957600080fd5b5061020d6102e8366004610fb3565b50600090565b3480156102fa57600080fd5b506101d9610309366004610d79565b6106e7565b34801561031a57600080fd5b50600061020d565b34801561032e57600080fd5b50670de0b6b3a764000061020d565b34801561034957600080fd5b506101d9610358366004610f1c565b6106f4565b34801561036957600080fd5b506101d9610378366004610ec0565b61074c565b34801561038957600080fd5b5061020d610398366004610fcc565b6107a2565b6101d96103ab366004611005565b6107ea565b6101d96103be366004610d79565b610966565b60006103d03384846109a8565b5060015b92915050565b6000806103e7843461107b565b90506103f3848261109d565b34146104465760405162461bcd60e51b815260206004820152601160248201527f494e56414c49445f4d53475f56414c554500000000000000000000000000000060448201526064015b60405180910390fd5b6000610452858561107b565b905061045e858261109d565b84146104ac5760405162461bcd60e51b815260206004820152601460248201527f494e56414c49445f544f54414c5f414d4f554e54000000000000000000000000604482015260640161043d565b60005b8581101561055a576104e8338888848181106104cd576104cd6110bc565b90506020020160208101906104e29190610f8f565b84610a75565b8686828181106104fa576104fa6110bc565b905060200201602081019061050f9190610f8f565b6001600160a01b03166108fc849081150290604051600060405180830381858888f19350505050158015610547573d6000803e3d6000fd5b5080610552816110d2565b9150506104af565b5060019695505050505050565b6000610574848484610c27565b5060019392505050565b600061058b338686610a75565b6040517fa4c0ed360000000000000000000000000000000000000000000000000000000081526001600160a01b0386169063a4c0ed36906105d6903390889088908890600401611118565b602060405180830381600087803b1580156105f057600080fd5b505af1158015610604573d6000803e3d6000fd5b505050506040513d601f19601f820116820180604052508101906106289190611141565b95945050505050565b600061063e338686610a75565b6040517f9b6be0650000000000000000000000000000000000000000000000000000000081526001600160a01b03861690639b6be0659061068b9033908a90899089908990600401611163565b602060405180830381600087803b1580156106a557600080fd5b505af11580156106b9573d6000803e3d6000fd5b505050506040513d601f19601f820116820180604052508101906106dd9190611141565b9695505050505050565b60006103d0338484610a75565b6000610701868686610c27565b6040517fa4c0ed360000000000000000000000000000000000000000000000000000000081526001600160a01b0386169063a4c0ed369061068b908990889088908890600401611118565b60006107593386866109a8565b6040517eba451f0000000000000000000000000000000000000000000000000000000081526001600160a01b0386169062ba451f906105d6903390889088908890600401611118565b60006001600160a01b0383163014156107be57506000196103d4565b506001600160a01b03918216600090815260026020908152604080832093909416825291909152205490565b6000806107f7853461107b565b9050610803858261109d565b34146108515760405162461bcd60e51b815260206004820152601160248201527f494e56414c49445f4d53475f56414c5545000000000000000000000000000000604482015260640161043d565b8483146108a05760405162461bcd60e51b815260206004820152600f60248201527f4e4f545f53414d455f4c454e4754480000000000000000000000000000000000604482015260640161043d565b60005b8581101561055a576108f4338888848181106108c1576108c16110bc565b90506020020160208101906108d69190610f8f565b8787858181106108e8576108e86110bc565b90506020020135610a75565b868682818110610906576109066110bc565b905060200201602081019061091b9190610f8f565b6001600160a01b03166108fc839081150290604051600060405180830381858888f19350505050158015610953573d6000803e3d6000fd5b508061095e816110d2565b9150506108a3565b6000610973338484610a75565b6040516001600160a01b038416903480156108fc02916000818181858888f19350505050158015610574573d6000803e3d6000fd5b6001600160a01b038316158015906109c857506001600160a01b03821615155b610a145760405162461bcd60e51b815260206004820152601460248201527f494e56414c49445f5a45524f5f41444452455353000000000000000000000000604482015260640161043d565b6001600160a01b0383811660008181526002602090815260408083209487168084529482529182902085905590518481527f8c5be1e5ebec7d5bd14f71427d1e84f3dd0314c0f7b2291e5b200ac8c7c3b925910160405180910390a3505050565b6001600160a01b038216610acb5760405162461bcd60e51b815260206004820152601460248201527f494e56414c49445f5a45524f5f41444452455353000000000000000000000000604482015260640161043d565b6001600160a01b038216301415610b245760405162461bcd60e51b815260206004820152601460248201527f494e56414c49445f544849535f41444452455353000000000000000000000000604482015260640161043d565b6001600160a01b03831660009081526001602052604090205481811015610b8d5760405162461bcd60e51b815260206004820152601160248201527f4e4f545f454e4f5547485f544f4b454e53000000000000000000000000000000604482015260640161043d565b610b9782826111a1565b6001600160a01b038086166000908152600160205260408082209390935590851681529081208054849290610bcd9084906111b8565b92505081905550826001600160a01b0316846001600160a01b03167fddf252ad1be2c89b69c2b068fc378daa952ba7f163c4a11628f55a4df523b3ef84604051610c1991815260200190565b60405180910390a350505050565b336001600160a01b03841614801590610c4957506001600160a01b0383163014155b15610cfc576001600160a01b03831660009081526002602090815260408083203384529091529020546000198114610cfa5781811015610ccb5760405162461bcd60e51b815260206004820152601760248201527f4e4f545f415554484f495a45445f414c4c4f57414e4345000000000000000000604482015260640161043d565b610cd582826111a1565b6001600160a01b03851660009081526002602090815260408083203384529091529020555b505b610d07838383610a75565b505050565b600060208083528351808285015260005b81811015610d3957858101830151858201604001528201610d1d565b81811115610d4b576000604083870101525b50601f01601f1916929092016040019392505050565b6001600160a01b0381168114610d7657600080fd5b50565b60008060408385031215610d8c57600080fd5b8235610d9781610d61565b946020939093013593505050565b60008083601f840112610db757600080fd5b50813567ffffffffffffffff811115610dcf57600080fd5b6020830191508360208260051b8501011115610dea57600080fd5b9250929050565b600080600060408486031215610e0657600080fd5b833567ffffffffffffffff811115610e1d57600080fd5b610e2986828701610da5565b909790965060209590950135949350505050565b600080600060608486031215610e5257600080fd5b8335610e5d81610d61565b92506020840135610e6d81610d61565b929592945050506040919091013590565b60008083601f840112610e9057600080fd5b50813567ffffffffffffffff811115610ea857600080fd5b602083019150836020828501011115610dea57600080fd5b60008060008060608587031215610ed657600080fd5b8435610ee181610d61565b935060208501359250604085013567ffffffffffffffff811115610f0457600080fd5b610f1087828801610e7e565b95989497509550505050565b600080600080600060808688031215610f3457600080fd5b8535610f3f81610d61565b94506020860135610f4f81610d61565b935060408601359250606086013567ffffffffffffffff811115610f7257600080fd5b610f7e88828901610e7e565b969995985093965092949392505050565b600060208284031215610fa157600080fd5b8135610fac81610d61565b9392505050565b600060208284031215610fc557600080fd5b5035919050565b60008060408385031215610fdf57600080fd5b8235610fea81610d61565b91506020830135610ffa81610d61565b809150509250929050565b6000806000806040858703121561101b57600080fd5b843567ffffffffffffffff8082111561103357600080fd5b61103f88838901610da5565b9096509450602087013591508082111561105857600080fd5b50610f1087828801610da5565b634e487b7160e01b600052601160045260246000fd5b60008261109857634e487b7160e01b600052601260045260246000fd5b500490565b60008160001904831182151516156110b7576110b7611065565b500290565b634e487b7160e01b600052603260045260246000fd5b60006000198214156110e6576110e6611065565b5060010190565b818352818160208501375060006020828401015260006020601f19601f840116840101905092915050565b6001600160a01b03851681528360208201526060604082015260006106dd6060830184866110ed565b60006020828403121561115357600080fd5b81518015158114610fac57600080fd5b60006001600160a01b038088168352808716602084015250846040830152608060608301526111966080830184866110ed565b979650505050505050565b6000828210156111b3576111b3611065565b500390565b600082198211156111cb576111cb611065565b50019056fea26469706673582212202a8fe7d2627ead3a8a6ea77cd94892603dbfbcccf0f49e73788e459489c9929964736f6c63430008090033",
  "devdoc": {
    "kind": "dev",
    "methods": {
      "allowance(address,address)": {
        "details": "Returns the remaining number of tokens that `spender` will be allowed to spend on behalf of `owner` through {transferFrom}. This is zero by default. This value changes when {approve} or {transferFrom} are called."
      },
      "approve(address,uint256)": {
        "details": "Sets `amount` as the allowance of `spender` over the caller's tokens. Returns a boolean value indicating whether the operation succeeded. IMPORTANT: Beware that changing an allowance with this method brings the risk that someone may use both the old and the new allowance by unfortunate transaction ordering. One possible solution to mitigate this race condition is to first reduce the spender's allowance to 0 and set the desired value afterwards: https://github.com/ethereum/EIPs/issues/20#issuecomment-263524729 Emits an {Approval} event."
      },
      "totalSupply()": {
        "details": "Returns the amount of tokens in existence."
      }
    },
    "version": 1
  },
  "userdoc": {
    "kind": "user",
    "methods": {},
    "version": 1
  },
  "storageLayout": {
    "storage": [
      {
        "astId": 20779,
        "contract": "src/Test/TestCompound.sol:TestCompound",
        "label": "_totalSupply",
        "offset": 0,
        "slot": "0",
        "type": "t_uint256"
      },
      {
        "astId": 20783,
        "contract": "src/Test/TestCompound.sol:TestCompound",
        "label": "_balances",
        "offset": 0,
        "slot": "1",
        "type": "t_mapping(t_address,t_uint256)"
      },
      {
        "astId": 20789,
        "contract": "src/Test/TestCompound.sol:TestCompound",
        "label": "_allowances",
        "offset": 0,
        "slot": "2",
        "type": "t_mapping(t_address,t_mapping(t_address,t_uint256))"
      }
    ],
    "types": {
      "t_address": {
        "encoding": "inplace",
        "label": "address",
        "numberOfBytes": "20"
      },
      "t_mapping(t_address,t_mapping(t_address,t_uint256))": {
        "encoding": "mapping",
        "key": "t_address",
        "label": "mapping(address => mapping(address => uint256))",
        "numberOfBytes": "32",
        "value": "t_mapping(t_address,t_uint256)"
      },
      "t_mapping(t_address,t_uint256)": {
        "encoding": "mapping",
        "key": "t_address",
        "label": "mapping(address => uint256)",
        "numberOfBytes": "32",
        "value": "t_uint256"
      },
      "t_uint256": {
        "encoding": "inplace",
        "label": "uint256",
        "numberOfBytes": "32"
      }
    }
  }
}