{
  "address": "0x050DeAF4b99F571AFABB29e550Dd285152546C28",
  "abi": [
    {
      "inputs": [
        {
          "internalType": "contract IERC20",
          "name": "token",
          "type": "address"
        },
        {
          "internalType": "uint256",
          "name": "nonce",
          "type": "uint256"
        },
        {
          "internalType": "uint256",
          "name": "expiry",
          "type": "uint256"
        },
        {
          "internalType": "uint8",
          "name": "v",
          "type": "uint8"
        },
        {
          "internalType": "bytes32",
          "name": "r",
          "type": "bytes32"
        },
        {
          "internalType": "bytes32",
          "name": "s",
          "type": "bytes32"
        },
        {
          "internalType": "uint256",
          "name": "amount",
          "type": "uint256"
        },
        {
          "internalType": "address",
          "name": "to",
          "type": "address"
        },
        {
          "internalType": "bytes",
          "name": "callData",
          "type": "bytes"
        }
      ],
      "name": "daiPermitTransferAndCall",
      "outputs": [
        {
          "internalType": "bytes",
          "name": "",
          "type": "bytes"
        }
      ],
      "stateMutability": "payable",
      "type": "function"
    },
    {
      "inputs": [
        {
          "internalType": "contract IERC20",
          "name": "token",
          "type": "address"
        },
        {
          "internalType": "uint256",
          "name": "amount",
          "type": "uint256"
        },
        {
          "internalType": "address",
          "name": "to",
          "type": "address"
        },
        {
          "internalType": "bytes",
          "name": "callData",
          "type": "bytes"
        }
      ],
      "name": "forward",
      "outputs": [
        {
          "internalType": "bytes",
          "name": "",
          "type": "bytes"
        }
      ],
      "stateMutability": "payable",
      "type": "function"
    },
    {
      "inputs": [
        {
          "internalType": "contract IERC20",
          "name": "token",
          "type": "address"
        },
        {
          "internalType": "uint256",
          "name": "permitValue",
          "type": "uint256"
        },
        {
          "internalType": "uint256",
          "name": "deadline",
          "type": "uint256"
        },
        {
          "internalType": "uint8",
          "name": "v",
          "type": "uint8"
        },
        {
          "internalType": "bytes32",
          "name": "r",
          "type": "bytes32"
        },
        {
          "internalType": "bytes32",
          "name": "s",
          "type": "bytes32"
        },
        {
          "internalType": "uint256",
          "name": "amount",
          "type": "uint256"
        },
        {
          "internalType": "address",
          "name": "to",
          "type": "address"
        },
        {
          "internalType": "bytes",
          "name": "callData",
          "type": "bytes"
        }
      ],
      "name": "permitTransferAndCall",
      "outputs": [
        {
          "internalType": "bytes",
          "name": "",
          "type": "bytes"
        }
      ],
      "stateMutability": "payable",
      "type": "function"
    },
    {
      "inputs": [
        {
          "internalType": "contract IERC20",
          "name": "token",
          "type": "address"
        },
        {
          "internalType": "uint256",
          "name": "amount",
          "type": "uint256"
        },
        {
          "internalType": "address",
          "name": "to",
          "type": "address"
        },
        {
          "internalType": "bytes",
          "name": "callData",
          "type": "bytes"
        }
      ],
      "name": "transferAndCall",
      "outputs": [
        {
          "internalType": "bytes",
          "name": "",
          "type": "bytes"
        }
      ],
      "stateMutability": "payable",
      "type": "function"
    }
  ],
  "args": [],
  "bytecode": "0x608060405234801561001057600080fd5b50610aef806100206000396000f3fe60806040526004361061003f5760003560e01c806364fa70cd1461004457806382f9a79414610148578063cf0e5115146101d7578063ebe660091461028a575b600080fd5b6100d36004803603608081101561005a57600080fd5b6001600160a01b03823581169260208101359260408201359092169181019060808101606082013564010000000081111561009457600080fd5b8201836020820111156100a657600080fd5b803590602001918460018302840111640100000000831117156100c857600080fd5b50909250905061033d565b6040805160208082528351818301528351919283929083019185019080838360005b8381101561010d5781810151838201526020016100f5565b50505050905090810190601f16801561013a5780820380516001836020036101000a031916815260200191505b509250505060405180910390f35b6100d36004803603608081101561015e57600080fd5b6001600160a01b03823581169260208101359260408201359092169181019060808101606082013564010000000081111561019857600080fd5b8201836020820111156101aa57600080fd5b803590602001918460018302840111640100000000831117156101cc57600080fd5b509092509050610378565b6100d360048036036101208110156101ee57600080fd5b6001600160a01b03823581169260208101359260408201359260ff6060840135169260808101359260a08201359260c08301359260e081013590911691810190610120810161010082013564010000000081111561024b57600080fd5b82018360208201111561025d57600080fd5b8035906020019184600183028401116401000000008311171561027f57600080fd5b50909250905061039b565b6100d360048036036101208110156102a157600080fd5b6001600160a01b03823581169260208101359260408201359260ff6060840135169260808101359260a08201359260c08301359260e08101359091169181019061012081016101008201356401000000008111156102fe57600080fd5b82018360208201111561031057600080fd5b8035906020019184600183028401116401000000008311171561033257600080fd5b509092509050610485565b6060600061034961052b565b905061035f6001600160a01b038816868861052f565b61036d8188888888886105b4565b979650505050505050565b6060600061038461052b565b905061035f6001600160a01b03881682878961068a565b606060006103a761052b565b604080517fd505accf0000000000000000000000000000000000000000000000000000000081526001600160a01b038084166004830152306024830152604482018f9052606482018e905260ff8d16608483015260a482018c905260c482018b90529151929350908e169163d505accf9160e48082019260009290919082900301818387803b15801561043957600080fd5b505af115801561044d573d6000803e3d6000fd5b50610467925050506001600160a01b038d1682878961068a565b610475818d888888886105b4565b9c9b505050505050505050505050565b6060600061049161052b565b604080517f8fcbaf0c0000000000000000000000000000000000000000000000000000000081526001600160a01b038084166004830152306024830152604482018f9052606482018e90526001608483015260ff8d1660a483015260c482018c905260e482018b90529151929350908e1691638fcbaf0c916101048082019260009290919082900301818387803b15801561043957600080fd5b3390565b604080516001600160a01b038416602482015260448082018490528251808303909101815260649091019091526020810180517bffffffffffffffffffffffffffffffffffffffffffffffffffffffff167fa9059cbb000000000000000000000000000000000000000000000000000000001790526105af908490610718565b505050565b604080516001600160a01b0380881660208301528183018790528816606082810191909152825180830382018152608083019093529182918591859160a0018084848082843784519201916020850191508083835b602083106106285780518252601f199092019160209182019101610609565b6001836020036101000a0380198251168184511680821785525050505050509050019350505050604051602081830303815290604052905061067e8134876001600160a01b03166107c99092919063ffffffff16565b98975050505050505050565b604080516001600160a01b0380861660248301528416604482015260648082018490528251808303909101815260849091019091526020810180517bffffffffffffffffffffffffffffffffffffffffffffffffffffffff167f23b872dd00000000000000000000000000000000000000000000000000000000179052610712908590610718565b50505050565b606061076d826040518060400160405280602081526020017f5361666545524332303a206c6f772d6c6576656c2063616c6c206661696c6564815250856001600160a01b03166107f79092919063ffffffff16565b8051909150156105af5780806020019051602081101561078c57600080fd5b50516105af5760405162461bcd60e51b815260040180806020018281038252602a815260200180610a90602a913960400191505060405180910390fd5b60606107ef848484604051806060016040528060298152602001610a6760299139610806565b949350505050565b60606107ef848460008561085c565b6060824710156108475760405162461bcd60e51b8152600401808060200182810382526026815260200180610a416026913960400191505060405180910390fd5b6108538585858561085c565b95945050505050565b606061086785610a07565b6108b8576040805162461bcd60e51b815260206004820152601d60248201527f416464726573733a2063616c6c20746f206e6f6e2d636f6e7472616374000000604482015290519081900360640190fd5b60006060866001600160a01b031685876040518082805190602001908083835b602083106108f75780518252601f1990920191602091820191016108d8565b6001836020036101000a03801982511681845116808217855250505050505090500191505060006040518083038185875af1925050503d8060008114610959576040519150601f19603f3d011682016040523d82523d6000602084013e61095e565b606091505b509150915081156109725791506107ef9050565b8051156109825780518082602001fd5b8360405162461bcd60e51b81526004018080602001828103825283818151815260200191508051906020019080838360005b838110156109cc5781810151838201526020016109b4565b50505050905090810190601f1680156109f95780820380516001836020036101000a031916815260200191505b509250505060405180910390fd5b6000813f7fc5d2460186f7233c927e7db2dcc703c0e500b653ca82273b7bfad8045d85a4708181148015906107ef57505015159291505056fe416464726573733a20696e73756666696369656e742062616c616e636520666f722063616c6c416464726573733a206c6f772d6c6576656c2063616c6c20776974682076616c7565206661696c65645361666545524332303a204552433230206f7065726174696f6e20646964206e6f742073756363656564a2646970667358221220b92d4d8603c238ba8ef1d25908989de17ab08b95268294a4fe06fda68556ed3564736f6c63430007030033",
  "devdoc": {
    "kind": "dev",
    "methods": {},
    "version": 1
  },
  "userdoc": {
    "kind": "user",
    "methods": {
      "daiPermitTransferAndCall(address,uint256,uint256,uint8,bytes32,bytes32,uint256,address,bytes)": {
        "notice": "this call permit (dai version) and transfers the tokens to the destination and call the function (callData). The information (sender, token, amount) is appended to the function call. This allows the recipient contract to keep using normal solidity functions (abi-encoded)."
      },
      "forward(address,uint256,address,bytes)": {
        "notice": "This functions is special in that it need to be called atomatically after the transfer is done. The transfer is made to the gateway itself. The gateway will then forward it to the destination. This allows the gateway to proceed without being approved first at the cost of extra gas. For the receiver, it behaves exactly like `transferERC20AndCall`. And so the information (sender, token, amount) is appended to the function call the same way."
      },
      "permitTransferAndCall(address,uint256,uint256,uint8,bytes32,bytes32,uint256,address,bytes)": {
        "notice": "this call permit (ERC2612 version) and transfers the tokens to the destination and call the function (callData). The information (sender, token, amount) is appended to the function call. This allows the recipient contract to keep using normal solidity functions (abi-encoded)."
      },
      "transferAndCall(address,uint256,address,bytes)": {
        "notice": "this transfers the tokens to the destination and call the function (callData). The information (sender, token, amount) is appended to the function call. This allows the recipient contract to keep using normal solidity functions (abi-encoded)."
      }
    },
    "notice": "Gateway that forwward payment information to the destination and call it. This allow the receiver to know the payer, token and amount received. As the gateway append data to the call, contracts can continue using normal solidity functions (abi-encoded). The Gateway need to be approved for each ERC20. For new contracts, they could be pre-approved it globally.",
    "version": 1
  },
  "storageLayout": {
    "storage": [],
    "types": null
  }
}