{
  "address": "0x6947d902F809dCcdDe1F53498F49F6e8814eD9A3",
  "abi": [
    {
      "inputs": [
        {
          "internalType": "contract IERC20",
          "name": "stakingToken",
          "type": "address"
        },
        {
          "internalType": "contract AllianceRegistry",
          "name": "theAllianceRegistry",
          "type": "address"
        },
        {
          "internalType": "bytes32",
          "name": "genesis",
          "type": "bytes32"
        },
        {
          "internalType": "uint32",
          "name": "resolveWindow",
          "type": "uint32"
        },
        {
          "internalType": "uint32",
          "name": "timePerDistance",
          "type": "uint32"
        },
        {
          "internalType": "uint32",
          "name": "exitDuration",
          "type": "uint32"
        },
        {
          "internalType": "uint32",
          "name": "acquireNumSpaceships",
          "type": "uint32"
        },
        {
          "internalType": "uint32",
          "name": "productionSpeedUp",
          "type": "uint32"
        },
        {
          "internalType": "uint32",
          "name": "frontrunningDelay",
          "type": "uint32"
        },
        {
          "internalType": "uint32",
          "name": "productionCapAsDuration",
          "type": "uint32"
        },
        {
          "internalType": "uint32",
          "name": "fleetSizeFactor6",
          "type": "uint32"
        }
      ],
      "stateMutability": "nonpayable",
      "type": "constructor"
    },
    {
      "anonymous": false,
      "inputs": [
        {
          "indexed": true,
          "internalType": "address",
          "name": "owner",
          "type": "address"
        },
        {
          "indexed": true,
          "internalType": "address",
          "name": "operator",
          "type": "address"
        },
        {
          "indexed": false,
          "internalType": "bool",
          "name": "approved",
          "type": "bool"
        }
      ],
      "name": "ApprovalForAll",
      "type": "event"
    },
    {
      "anonymous": false,
      "inputs": [
        {
          "indexed": true,
          "internalType": "address",
          "name": "owner",
          "type": "address"
        },
        {
          "indexed": true,
          "internalType": "uint256",
          "name": "location",
          "type": "uint256"
        },
        {
          "indexed": false,
          "internalType": "uint256",
          "name": "stake",
          "type": "uint256"
        }
      ],
      "name": "ExitComplete",
      "type": "event"
    },
    {
      "anonymous": false,
      "inputs": [
        {
          "indexed": true,
          "internalType": "uint256",
          "name": "fleet",
          "type": "uint256"
        },
        {
          "indexed": true,
          "internalType": "address",
          "name": "fleetOwner",
          "type": "address"
        },
        {
          "indexed": true,
          "internalType": "address",
          "name": "destinationOwner",
          "type": "address"
        },
        {
          "indexed": false,
          "internalType": "uint256",
          "name": "destination",
          "type": "uint256"
        },
        {
          "indexed": false,
          "internalType": "bool",
          "name": "gift",
          "type": "bool"
        },
        {
          "indexed": false,
          "internalType": "uint32",
          "name": "fleetLoss",
          "type": "uint32"
        },
        {
          "indexed": false,
          "internalType": "uint32",
          "name": "planetLoss",
          "type": "uint32"
        },
        {
          "indexed": false,
          "internalType": "uint32",
          "name": "inFlightFleetLoss",
          "type": "uint32"
        },
        {
          "indexed": false,
          "internalType": "uint32",
          "name": "inFlightPlanetLoss",
          "type": "uint32"
        },
        {
          "indexed": false,
          "internalType": "bool",
          "name": "won",
          "type": "bool"
        },
        {
          "indexed": false,
          "internalType": "uint32",
          "name": "newNumspaceships",
          "type": "uint32"
        }
      ],
      "name": "FleetArrived",
      "type": "event"
    },
    {
      "anonymous": false,
      "inputs": [
        {
          "indexed": true,
          "internalType": "address",
          "name": "fleetSender",
          "type": "address"
        },
        {
          "indexed": true,
          "internalType": "address",
          "name": "fleetOwner",
          "type": "address"
        },
        {
          "indexed": true,
          "internalType": "uint256",
          "name": "from",
          "type": "uint256"
        },
        {
          "indexed": false,
          "internalType": "address",
          "name": "operator",
          "type": "address"
        },
        {
          "indexed": false,
          "internalType": "uint256",
          "name": "fleet",
          "type": "uint256"
        },
        {
          "indexed": false,
          "internalType": "uint32",
          "name": "quantity",
          "type": "uint32"
        },
        {
          "indexed": false,
          "internalType": "uint32",
          "name": "newNumSpaceships",
          "type": "uint32"
        }
      ],
      "name": "FleetSent",
      "type": "event"
    },
    {
      "anonymous": false,
      "inputs": [
        {
          "indexed": false,
          "internalType": "uint32",
          "name": "minX",
          "type": "uint32"
        },
        {
          "indexed": false,
          "internalType": "uint32",
          "name": "maxX",
          "type": "uint32"
        },
        {
          "indexed": false,
          "internalType": "uint32",
          "name": "minY",
          "type": "uint32"
        },
        {
          "indexed": false,
          "internalType": "uint32",
          "name": "maxY",
          "type": "uint32"
        },
        {
          "indexed": false,
          "internalType": "bytes32",
          "name": "genesis",
          "type": "bytes32"
        }
      ],
      "name": "Initialized",
      "type": "event"
    },
    {
      "anonymous": false,
      "inputs": [
        {
          "indexed": true,
          "internalType": "address",
          "name": "owner",
          "type": "address"
        },
        {
          "indexed": true,
          "internalType": "uint256",
          "name": "location",
          "type": "uint256"
        }
      ],
      "name": "PlanetExit",
      "type": "event"
    },
    {
      "anonymous": false,
      "inputs": [
        {
          "indexed": true,
          "internalType": "uint256",
          "name": "location",
          "type": "uint256"
        }
      ],
      "name": "PlanetReset",
      "type": "event"
    },
    {
      "anonymous": false,
      "inputs": [
        {
          "indexed": true,
          "internalType": "address",
          "name": "acquirer",
          "type": "address"
        },
        {
          "indexed": true,
          "internalType": "uint256",
          "name": "location",
          "type": "uint256"
        },
        {
          "indexed": false,
          "internalType": "uint32",
          "name": "numSpaceships",
          "type": "uint32"
        },
        {
          "indexed": false,
          "internalType": "uint256",
          "name": "stake",
          "type": "uint256"
        }
      ],
      "name": "PlanetStake",
      "type": "event"
    },
    {
      "anonymous": false,
      "inputs": [
        {
          "indexed": true,
          "internalType": "uint256",
          "name": "location",
          "type": "uint256"
        },
        {
          "indexed": true,
          "internalType": "address",
          "name": "giver",
          "type": "address"
        },
        {
          "indexed": false,
          "internalType": "uint256",
          "name": "rewardId",
          "type": "uint256"
        }
      ],
      "name": "RewardSetup",
      "type": "event"
    },
    {
      "anonymous": false,
      "inputs": [
        {
          "indexed": true,
          "internalType": "address",
          "name": "owner",
          "type": "address"
        },
        {
          "indexed": true,
          "internalType": "uint256",
          "name": "location",
          "type": "uint256"
        },
        {
          "indexed": true,
          "internalType": "uint256",
          "name": "rewardId",
          "type": "uint256"
        }
      ],
      "name": "RewardToWithdraw",
      "type": "event"
    },
    {
      "anonymous": false,
      "inputs": [
        {
          "indexed": true,
          "internalType": "address",
          "name": "owner",
          "type": "address"
        },
        {
          "indexed": false,
          "internalType": "uint256",
          "name": "newStake",
          "type": "uint256"
        }
      ],
      "name": "StakeToWithdraw",
      "type": "event"
    },
    {
      "inputs": [
        {
          "internalType": "uint256",
          "name": "location",
          "type": "uint256"
        },
        {
          "internalType": "uint256",
          "name": "amount",
          "type": "uint256"
        }
      ],
      "name": "acquireViaTransferFrom",
      "outputs": [],
      "stateMutability": "nonpayable",
      "type": "function"
    },
    {
      "inputs": [
        {
          "internalType": "uint256",
          "name": "location",
          "type": "uint256"
        },
        {
          "internalType": "address",
          "name": "sponsor",
          "type": "address"
        }
      ],
      "name": "addReward",
      "outputs": [],
      "stateMutability": "nonpayable",
      "type": "function"
    },
    {
      "inputs": [],
      "name": "allianceRegistry",
      "outputs": [
        {
          "internalType": "contract AllianceRegistry",
          "name": "",
          "type": "address"
        }
      ],
      "stateMutability": "view",
      "type": "function"
    },
    {
      "inputs": [
        {
          "internalType": "address",
          "name": "owner",
          "type": "address"
        }
      ],
      "name": "balanceToWithdraw",
      "outputs": [
        {
          "internalType": "uint256",
          "name": "",
          "type": "uint256"
        }
      ],
      "stateMutability": "view",
      "type": "function"
    },
    {
      "inputs": [
        {
          "internalType": "address",
          "name": "owner",
          "type": "address"
        },
        {
          "internalType": "uint256",
          "name": "location",
          "type": "uint256"
        }
      ],
      "name": "exitFor",
      "outputs": [],
      "stateMutability": "nonpayable",
      "type": "function"
    },
    {
      "inputs": [
        {
          "internalType": "address",
          "name": "owner",
          "type": "address"
        },
        {
          "internalType": "uint256[]",
          "name": "locations",
          "type": "uint256[]"
        }
      ],
      "name": "fetchAndWithdrawFor",
      "outputs": [],
      "stateMutability": "nonpayable",
      "type": "function"
    },
    {
      "inputs": [],
      "name": "getDiscovered",
      "outputs": [
        {
          "components": [
            {
              "internalType": "uint32",
              "name": "minX",
              "type": "uint32"
            },
            {
              "internalType": "uint32",
              "name": "maxX",
              "type": "uint32"
            },
            {
              "internalType": "uint32",
              "name": "minY",
              "type": "uint32"
            },
            {
              "internalType": "uint32",
              "name": "maxY",
              "type": "uint32"
            }
          ],
          "internalType": "struct OuterSpace.Discovered",
          "name": "",
          "type": "tuple"
        }
      ],
      "stateMutability": "view",
      "type": "function"
    },
    {
      "inputs": [
        {
          "internalType": "uint256",
          "name": "fleetId",
          "type": "uint256"
        },
        {
          "internalType": "uint256",
          "name": "from",
          "type": "uint256"
        }
      ],
      "name": "getFleet",
      "outputs": [
        {
          "internalType": "address",
          "name": "owner",
          "type": "address"
        },
        {
          "internalType": "uint32",
          "name": "launchTime",
          "type": "uint32"
        },
        {
          "internalType": "uint32",
          "name": "quantity",
          "type": "uint32"
        },
        {
          "internalType": "uint64",
          "name": "flyingAtLaunch",
          "type": "uint64"
        },
        {
          "internalType": "uint64",
          "name": "destroyedAtLaunch",
          "type": "uint64"
        }
      ],
      "stateMutability": "view",
      "type": "function"
    },
    {
      "inputs": [],
      "name": "getGeneisHash",
      "outputs": [
        {
          "internalType": "bytes32",
          "name": "",
          "type": "bytes32"
        }
      ],
      "stateMutability": "view",
      "type": "function"
    },
    {
      "inputs": [
        {
          "internalType": "uint256",
          "name": "location",
          "type": "uint256"
        }
      ],
      "name": "getPlanet",
      "outputs": [
        {
          "components": [
            {
              "internalType": "address",
              "name": "owner",
              "type": "address"
            },
            {
              "internalType": "uint32",
              "name": "exitTime",
              "type": "uint32"
            },
            {
              "internalType": "uint32",
              "name": "numSpaceships",
              "type": "uint32"
            },
            {
              "internalType": "uint32",
              "name": "lastUpdated",
              "type": "uint32"
            },
            {
              "internalType": "bool",
              "name": "active",
              "type": "bool"
            },
            {
              "internalType": "uint256",
              "name": "reward",
              "type": "uint256"
            }
          ],
          "internalType": "struct OuterSpace.ExternalPlanet",
          "name": "state",
          "type": "tuple"
        },
        {
          "components": [
            {
              "internalType": "int8",
              "name": "subX",
              "type": "int8"
            },
            {
              "internalType": "int8",
              "name": "subY",
              "type": "int8"
            },
            {
              "internalType": "uint16",
              "name": "stake",
              "type": "uint16"
            },
            {
              "internalType": "uint16",
              "name": "production",
              "type": "uint16"
            },
            {
              "internalType": "uint16",
              "name": "attack",
              "type": "uint16"
            },
            {
              "internalType": "uint16",
              "name": "defense",
              "type": "uint16"
            },
            {
              "internalType": "uint16",
              "name": "speed",
              "type": "uint16"
            },
            {
              "internalType": "uint16",
              "name": "natives",
              "type": "uint16"
            }
          ],
          "internalType": "struct OuterSpace.PlanetStats",
          "name": "stats",
          "type": "tuple"
        }
      ],
      "stateMutability": "view",
      "type": "function"
    },
    {
      "inputs": [
        {
          "internalType": "uint256[]",
          "name": "locations",
          "type": "uint256[]"
        }
      ],
      "name": "getPlanetStates",
      "outputs": [
        {
          "components": [
            {
              "internalType": "address",
              "name": "owner",
              "type": "address"
            },
            {
              "internalType": "uint32",
              "name": "exitTime",
              "type": "uint32"
            },
            {
              "internalType": "uint32",
              "name": "numSpaceships",
              "type": "uint32"
            },
            {
              "internalType": "uint32",
              "name": "lastUpdated",
              "type": "uint32"
            },
            {
              "internalType": "bool",
              "name": "active",
              "type": "bool"
            },
            {
              "internalType": "uint256",
              "name": "reward",
              "type": "uint256"
            }
          ],
          "internalType": "struct OuterSpace.ExternalPlanet[]",
          "name": "planetStates",
          "type": "tuple[]"
        },
        {
          "components": [
            {
              "internalType": "uint32",
              "name": "minX",
              "type": "uint32"
            },
            {
              "internalType": "uint32",
              "name": "maxX",
              "type": "uint32"
            },
            {
              "internalType": "uint32",
              "name": "minY",
              "type": "uint32"
            },
            {
              "internalType": "uint32",
              "name": "maxY",
              "type": "uint32"
            }
          ],
          "internalType": "struct OuterSpace.Discovered",
          "name": "discovered",
          "type": "tuple"
        }
      ],
      "stateMutability": "view",
      "type": "function"
    },
    {
      "inputs": [
        {
          "internalType": "address",
          "name": "",
          "type": "address"
        },
        {
          "internalType": "address",
          "name": "forAddress",
          "type": "address"
        },
        {
          "internalType": "uint256",
          "name": "amount",
          "type": "uint256"
        },
        {
          "internalType": "bytes",
          "name": "data",
          "type": "bytes"
        }
      ],
      "name": "onTokenPaidFor",
      "outputs": [
        {
          "internalType": "bool",
          "name": "",
          "type": "bool"
        }
      ],
      "stateMutability": "nonpayable",
      "type": "function"
    },
    {
      "inputs": [
        {
          "internalType": "address",
          "name": "",
          "type": "address"
        },
        {
          "internalType": "uint256",
          "name": "amount",
          "type": "uint256"
        },
        {
          "internalType": "bytes",
          "name": "data",
          "type": "bytes"
        }
      ],
      "name": "onTokenTransfer",
      "outputs": [
        {
          "internalType": "bool",
          "name": "",
          "type": "bool"
        }
      ],
      "stateMutability": "nonpayable",
      "type": "function"
    },
    {
      "inputs": [
        {
          "internalType": "contract IERC20",
          "name": "",
          "type": "address"
        },
        {
          "internalType": "contract AllianceRegistry",
          "name": "",
          "type": "address"
        },
        {
          "internalType": "bytes32",
          "name": "genesis",
          "type": "bytes32"
        },
        {
          "internalType": "uint32",
          "name": "",
          "type": "uint32"
        },
        {
          "internalType": "uint32",
          "name": "",
          "type": "uint32"
        },
        {
          "internalType": "uint32",
          "name": "",
          "type": "uint32"
        },
        {
          "internalType": "uint32",
          "name": "",
          "type": "uint32"
        },
        {
          "internalType": "uint32",
          "name": "",
          "type": "uint32"
        },
        {
          "internalType": "uint32",
          "name": "",
          "type": "uint32"
        },
        {
          "internalType": "uint32",
          "name": "",
          "type": "uint32"
        },
        {
          "internalType": "uint32",
          "name": "",
          "type": "uint32"
        }
      ],
      "name": "postUpgrade",
      "outputs": [],
      "stateMutability": "nonpayable",
      "type": "function"
    },
    {
      "inputs": [
        {
          "internalType": "uint256",
          "name": "location",
          "type": "uint256"
        }
      ],
      "name": "resetPlanet",
      "outputs": [],
      "stateMutability": "nonpayable",
      "type": "function"
    },
    {
      "inputs": [
        {
          "internalType": "uint256",
          "name": "fleetId",
          "type": "uint256"
        },
        {
          "components": [
            {
              "internalType": "uint256",
              "name": "from",
              "type": "uint256"
            },
            {
              "internalType": "uint256",
              "name": "to",
              "type": "uint256"
            },
            {
              "internalType": "uint256",
              "name": "distance",
              "type": "uint256"
            },
            {
              "internalType": "bool",
              "name": "gift",
              "type": "bool"
            },
            {
              "internalType": "address",
              "name": "specific",
              "type": "address"
            },
            {
              "internalType": "bytes32",
              "name": "secret",
              "type": "bytes32"
            },
            {
              "internalType": "address",
              "name": "fleetSender",
              "type": "address"
            },
            {
              "internalType": "address",
              "name": "operator",
              "type": "address"
            }
          ],
          "internalType": "struct OuterSpace.FleetResolution",
          "name": "resolution",
          "type": "tuple"
        }
      ],
      "name": "resolveFleet",
      "outputs": [],
      "stateMutability": "nonpayable",
      "type": "function"
    },
    {
      "inputs": [
        {
          "internalType": "uint256",
          "name": "from",
          "type": "uint256"
        },
        {
          "internalType": "uint32",
          "name": "quantity",
          "type": "uint32"
        },
        {
          "internalType": "bytes32",
          "name": "toHash",
          "type": "bytes32"
        }
      ],
      "name": "send",
      "outputs": [],
      "stateMutability": "nonpayable",
      "type": "function"
    },
    {
      "inputs": [
        {
          "components": [
            {
              "internalType": "address",
              "name": "fleetSender",
              "type": "address"
            },
            {
              "internalType": "address",
              "name": "fleetOwner",
              "type": "address"
            },
            {
              "internalType": "uint256",
              "name": "from",
              "type": "uint256"
            },
            {
              "internalType": "uint32",
              "name": "quantity",
              "type": "uint32"
            },
            {
              "internalType": "bytes32",
              "name": "toHash",
              "type": "bytes32"
            }
          ],
          "internalType": "struct OuterSpace.FleetLaunch",
          "name": "launch",
          "type": "tuple"
        }
      ],
      "name": "sendFor",
      "outputs": [],
      "stateMutability": "nonpayable",
      "type": "function"
    },
    {
      "inputs": [
        {
          "internalType": "address",
          "name": "operator",
          "type": "address"
        },
        {
          "internalType": "bool",
          "name": "approved",
          "type": "bool"
        }
      ],
      "name": "setApprovalForAll",
      "outputs": [],
      "stateMutability": "nonpayable",
      "type": "function"
    },
    {
      "inputs": [
        {
          "internalType": "address",
          "name": "owner",
          "type": "address"
        }
      ],
      "name": "withdrawFor",
      "outputs": [],
      "stateMutability": "nonpayable",
      "type": "function"
    }
  ],
  "transactionHash": "0x8265bcc11f73a47ae6e001c49ff7342c477753627f8ad8e77f5413b177b8dd47",
  "args": [
    "0x82E0eef1E826b20B5D16c2d0Bf7E479E06Cb64f8",
    "0x303c54b56ea9aa4318c4A27730aE13F972490Bf6",
    "0x015e3b02f1bb647546a9856205a64f1c2263856de7acb3fe65aa303c9c8ce7fc",
    43200,
    7200,
    259200,
    100000,
    1,
    1800,
    259200,
    500000
  ],
  "numDeployments": 3,
  "linkedData": {
    "genesisHash": "0x015e3b02f1bb647546a9856205a64f1c2263856de7acb3fe65aa303c9c8ce7fc",
    "resolveWindow": 43200,
    "timePerDistance": 7200,
    "exitDuration": 259200,
    "acquireNumSpaceships": 100000,
    "productionSpeedUp": 1,
    "chainGenesisHash": "",
    "frontrunningDelay": 1800,
    "productionCapAsDuration": 259200,
    "fleetSizeFactor6": 500000
  },
  "solcInputHash": "037e1197a23bd7a7f8dec81bf3363a15",
  "bytecode": "0x6101e06040523480156200001257600080fd5b50604051620064e6380380620064e683398101604081905262000035916200029a565b6000620000446004896200037a565b905063ffffffff88166200005a826004620003ac565b63ffffffff1614620000b25760405162461bcd60e51b815260206004820152601d60248201527f54494d455f5045525f444953545f4e4f545f444956495349424c455f34000000604482015260640160405180910390fd5b6001600160a01b03808d1660c0528b1660805260a08a905263ffffffff808a1660e05281811661010052878116610120528681166101405285811661016052848116610180528381166101a05282166101c0526200011a8c8c8c8c8c8c8c8c8c8c8c6200012c565b505050505050505050505050620003e7565b600062000146600080516020620064c68339815191525490565b90506001600160a01b03811662000176576001600160a01b03600080516020620064c6833981519152556200018c565b336001600160a01b038216146200018c57600080fd5b60055463ffffffff1662000259576040805160808082018352601080835260208084018290528385018290526060938401829052600580546001600160801b0319166c100000001000000010000000101790819055855192835263ffffffff64010000000082048116928401929092526801000000000000000081048216838701526c010000000000000000000000009004169281019290925281018c905290517f3086e986d6b4ec35754cd5a19b964d1012b58b3584a51a321d0fb693ae4cfcd99160a0908290030190a15b505050505050505050505050565b6001600160a01b03811681146200027d57600080fd5b50565b805163ffffffff811681146200029557600080fd5b919050565b60008060008060008060008060008060006101608c8e031215620002bd57600080fd5b8b51620002ca8162000267565b60208d0151909b50620002dd8162000267565b60408d0151909a509850620002f560608d0162000280565b97506200030560808d0162000280565b96506200031560a08d0162000280565b95506200032560c08d0162000280565b94506200033560e08d0162000280565b9350620003466101008d0162000280565b9250620003576101208d0162000280565b9150620003686101408d0162000280565b90509295989b509295989b9093969950565b600063ffffffff80841680620003a057634e487b7160e01b600052601260045260246000fd5b92169190910492915050565b600063ffffffff80831681851681830481118215151615620003de57634e487b7160e01b600052601160045260246000fd5b02949350505050565b60805160a05160c05160e05161010051610120516101405161016051610180516101a0516101c051615f476200057f600039600081816131b9015281816131ec0152818161326d01526132a0015260008181612019015261204d0152600081816114af015281816122590152818161346d01528181614af901528181614b8101528181614c0e01528181614c8f0152614e6101526000818161212e01526121c0015260008181612086015281816128b60152818161294701528181612995015281816129dc01528181612a5b0152612a8c01526000611a1701526000613805015260006138a7015260008181610a4801528181610c3601528181610d660152611cec0152600081816101fe01528181611601015281816118cc01528181611a9a01528181611dba0152818161359a01528181613600015281816137ac01528181614168015281816142f10152818161437f01526144c9015260008181610409015281816139fe01528181613af901528181613bf201528181613cb501528181613db901528181613e6e0152613f300152615f476000f3fe608060405234801561001057600080fd5b506004361061016c5760003560e01c8063a22cb465116100cd578063c956083811610081578063e2e9b07911610066578063e2e9b07914610396578063ee543393146103a9578063f9c8974d1461040457600080fd5b8063c95608381461035a578063cf3ecf071461038357600080fd5b8063aba789f5116100b2578063aba789f51461029b578063afc82370146102bc578063c5aaa0ae146102cf57600080fd5b8063a22cb46514610275578063a4c0ed361461028857600080fd5b80637ba423fb1161012457806388f3532b1161010957806388f3532b1461022c5780639b6be0651461023f5780639eca672c1461026257600080fd5b80637ba423fb146101e95780637cef64d8146101fc57600080fd5b80631b7c9c17116101555780631b7c9c171461019957806334efcb8e146101ac57806356bf642d146101d657600080fd5b80630b9c522814610171578063112e685114610186575b600080fd5b61018461017f366004614f6e565b610443565b005b610184610194366004614fa0565b610505565b6101846101a7366004614fed565b6105ac565b6101bf6101ba366004614f6e565b61071c565b6040516101cd9291906150b6565b60405180910390f35b6101846101e436600461519d565b610837565b6101846101f73660046151cd565b6109f7565b7f00000000000000000000000000000000000000000000000000000000000000005b6040519081526020016101cd565b61018461023a3660046151ef565b610aca565b61025261024d36600461526b565b610c29565b60405190151581526020016101cd565b6101846102703660046152de565b610ccb565b610184610283366004615309565b610cee565b610252610296366004615337565b610d59565b6102ae6102a93660046153d8565b610df1565b6040516101cd92919061541a565b6101846102ca3660046154f0565b611001565b61034d604080516080810182526000808252602082018190529181018290526060810191909152506040805160808101825260055463ffffffff80821683526401000000008204811660208401526801000000000000000082048116938301939093526c010000000000000000000000009004909116606082015290565b6040516101cd919061551c565b61021e6103683660046152de565b6001600160a01b031660009081526002602052604090205490565b610184610391366004615555565b611136565b6101846103a436600461556d565b61135e565b6103bc6103b73660046151cd565b611474565b604080516001600160a01b03909616865263ffffffff9485166020870152939092169284019290925267ffffffffffffffff918216606084015216608082015260a0016101cd565b61042b7f000000000000000000000000000000000000000000000000000000000000000081565b6040516001600160a01b0390911681526020016101cd565b7fb53127684a568b3173ae13b9f8a6016e243e63b6e8ee1178d6a717850b5d6103546001600160a01b0316336001600160a01b0316146104ca5760405162461bcd60e51b815260206004820152600e60248201527f4e4f545f415554484f52495a454400000000000000000000000000000000000060448201526064015b60405180910390fd5b6000818152602081905260408082208290555182917fb9e622395e3bd0e793c5448e9c44434069fc36c8904b50ab65bca22b05d425e691a250565b6000336040805160208101859052908101869052606082811b6bffffffffffffffffffffffff191690820181905260748201529091506000906088016040516020818303038152906040528051906020012060001c90506105a581836040518060a00160405280866001600160a01b03168152602001866001600160a01b031681526020018981526020018863ffffffff16815260200187815250611526565b5050505050565b60006105d67fb53127684a568b3173ae13b9f8a6016e243e63b6e8ee1178d6a717850b5d61035490565b90506001600160a01b038116610615576001600160a01b037fb53127684a568b3173ae13b9f8a6016e243e63b6e8ee1178d6a717850b5d61035561062a565b336001600160a01b0382161461062a57600080fd5b60055463ffffffff1661070e576040805160808082018352601080835260208084018290528385018290526060938401829052600580547fffffffffffffffffffffffffffffffff00000000000000000000000000000000166c100000001000000010000000101790819055855192835263ffffffff64010000000082048116928401929092526801000000000000000081048216838701526c010000000000000000000000009004169281019290925281018c905290517f3086e986d6b4ec35754cd5a19b964d1012b58b3584a51a321d0fb693ae4cfcd99160a0908290030190a15b505050505050505050505050565b6040805160c081018252600080825260208201819052918101829052606081018290526080810182905260a08101919091526040805161010081018252600080825260208201819052918101829052606081018290526080810182905260a0810182905260c0810182905260e08101919091526000838152602081905260408120805490915060009081906107bd90600160c01b900463ffffffff16611866565b6040805160c08101825286546001600160a01b038116825263ffffffff600160a01b8204811660208085019190915281861684860152600160e01b909204166060830152841515608083015260008b81526007909152919091205460a08201529650909250905061082d86611885565b9350505050915091565b7fb53127684a568b3173ae13b9f8a6016e243e63b6e8ee1178d6a717850b5d6103546001600160a01b0316336001600160a01b0316146108b95760405162461bcd60e51b815260206004820152600e60248201527f4e4f545f415554484f52495a454400000000000000000000000000000000000060448201526064016104c1565b60008281526020818152604091829020825160808101845290546001600160a01b038116825263ffffffff600160a01b82048116938301849052600160c01b8204811694830194909452600160e01b9004909216606083015261091b90611a00565b1561093f578051600084815260208190526040812061093f92869290919080611a4b565b600083815260076020526040902054806109ad576001600160a01b03831660009081526006602052604081208054909190610979906155d8565b9182905550905061099d816bffffffffffffffffffffffff19606086901b166155f3565b6000858152600760205260409020555b826001600160a01b0316847fec3a2d89aa52417930dcfd96d54282db3cdc02a9c65e1d9def8f7407c60fc027836040516109e991815260200190565b60405180910390a350505050565b33610a03818385611a94565b6040517f23b872dd0000000000000000000000000000000000000000000000000000000081526001600160a01b038281166004830152306024830152604482018490527f000000000000000000000000000000000000000000000000000000000000000016906323b872dd90606401602060405180830381600087803b158015610a8c57600080fd5b505af1158015610aa0573d6000803e3d6000fd5b505050506040513d601f19601f82011682018060405250810190610ac4919061560b565b50505050565b8160a08201356020830135610ae56080850160608601615628565b610af560a08601608087016152de565b604051602001610b3594939291909384526020840192909252151560f81b604083015260601b6bffffffffffffffffffffffff1916604182015260550190565b60408051601f1981840301815291905280516020909101208235610b5f60e0850160c086016152de565b610b70610100860160e087016152de565b6040805160208101959095528401929092526bffffffffffffffffffffffff19606091821b81168285015291901b1660748201526088016040516020818303038152906040528051906020012060001c14610c0d5760405162461bcd60e51b815260206004820152601c60248201527f494e56414c49445f464c4545545f444154415f4f525f5345435245540000000060448201526064016104c1565b610c2582610c203684900384018461565b565b611bb7565b5050565b6000336001600160a01b037f00000000000000000000000000000000000000000000000000000000000000001614610ca35760405162461bcd60e51b815260206004820152600d60248201527f494e56414c49445f45524332300000000000000000000000000000000000000060448201526064016104c1565b6000610cb183850185614f6e565b9050610cbe868683611a94565b5060019695505050505050565b6001600160a01b038116600090815260026020526040902054610c258282611ca2565b3360008181526003602090815260408083206001600160a01b03871680855290835292819020805460ff19168615159081179091558151908152905184927f17307eab39ab6107e8899845ad3d59bd9653f200f220920489ca2b5937696c31928290030190a3505050565b6000336001600160a01b037f00000000000000000000000000000000000000000000000000000000000000001614610dd35760405162461bcd60e51b815260206004820152600d60248201527f494e56414c49445f45524332300000000000000000000000000000000000000060448201526064016104c1565b600080610de2848601866154f0565b91509150610cbe828783611a94565b604080516080810182526000808252602082018190529181018290526060818101929092528267ffffffffffffffff811115610e2f57610e2f615645565b604051908082528060200260200182016040528015610e8f57816020015b6040805160c08101825260008082526020808301829052928201819052606082018190526080820181905260a08201528252600019909201910181610e4d5790505b50915060005b83811015610fa3576000610ecc868684818110610eb457610eb4615717565b90506020020135600090815260208190526040902090565b80549091506000908190610eec90600160c01b900463ffffffff16611866565b6040805160c08101825286546001600160a01b038116825263ffffffff600160a01b82048116602084015280851693830193909352600160e01b900490911660608201528215156080820152919350915060a08101600760008b8b89818110610f5757610f57615717565b90506020020135815260200190815260200160002054815250868581518110610f8257610f82615717565b60200260200101819052505050508080610f9b906155d8565b915050610e95565b50506040805160808101825260055463ffffffff80821683526401000000008204811660208401526801000000000000000082048116938301939093526c010000000000000000000000009004909116606082015290939092509050565b600081815260208190526040902080546001600160a01b0384811691161461106b5760405162461bcd60e51b815260206004820152600960248201527f4e4f545f4f574e4552000000000000000000000000000000000000000000000060448201526064016104c1565b8054600160a01b900463ffffffff16156110c75760405162461bcd60e51b815260206004820152600f60248201527f45584954494e475f414c5245414459000000000000000000000000000000000060448201526064016104c1565b80547fffffffffffffffff00000000ffffffffffffffffffffffffffffffffffffffff16600160a01b4263ffffffff160217815560405182906001600160a01b038516907fb9182e4e152947f1e6691fa0ee6f68f21f607fed825945c270e69995acad805f90600090a3505050565b3361114460208301836152de565b6001600160a01b0316816001600160a01b0316146111e6576003600061116d60208501856152de565b6001600160a01b039081168252602080830193909352604091820160009081209185168152925290205460ff166111e65760405162461bcd60e51b815260206004820152601660248201527f4e4f545f415554484f52495a45445f544f5f53454e440000000000000000000060448201526064016104c1565b6000608083013560408401356111ff60208601866152de565b6040805160208101949094528301919091526bffffffffffffffffffffffff19606091821b8116828401529084901b16607482015260880160408051601f198184030181529190528051602091820120915061125d908401846152de565b6001600160a01b031661127660408501602086016152de565b6001600160a01b0316141580156112ae57506001600160a01b0382166112a260408501602086016152de565b6001600160a01b031614155b1561134057600360006112c760408601602087016152de565b6001600160a01b039081168252602080830193909352604091820160009081209186168152925290205460ff166113405760405162461bcd60e51b815260206004820152601760248201527f4e4f545f415554484f52495a45445f544f5f464c45455400000000000000000060448201526064016104c1565b61135981836113543687900387018761572d565b611526565b505050565b6000805b82811015611443576000611381858584818110610eb457610eb4615717565b805490915061139c90600160a01b900463ffffffff16611a00565b156114305780546001600160a01b038781169116146113fd5760405162461bcd60e51b815260206004820152600960248201527f4e4f545f4f574e4552000000000000000000000000000000000000000000000060448201526064016104c1565b61142385858481811061141257611412615717565b905060200201358783600080611db4565b61142d90846155f3565b92505b508061143b816155d8565b915050611362565b506001600160a01b0384166000908152600260205260408120546114689083906155f3565b90506105a58582611ca2565b6000828152600160205260408120546001600160a01b0381169163ffffffff600160a01b8304811692600160c01b9004169080806114d360027f00000000000000000000000000000000000000000000000000000000000000006157d8565b6114e39063ffffffff87166157d8565b6000978852600460209081526040808a20928a529190529096205494979396509194505067ffffffffffffffff8084169368010000000000000000900416919050565b60408181015160009081526020819052208054600160a01b900463ffffffff16156115935760405162461bcd60e51b815260206004820152600b60248201527f504c414e45545f4558495400000000000000000000000000000000000000000060448201526064016104c1565b805482516001600160a01b039081169116146115f15760405162461bcd60e51b815260206004820152600960248201527f4e4f545f4f574e4552000000000000000000000000000000000000000000000060448201526064016104c1565b600061164e8360400151604080517f00000000000000000000000000000000000000000000000000000000000000006020820152908101829052600090606001604051602081830303815290604052805190602001209050919050565b9050600061165b82611f61565b835490915060009081906116869063ffffffff600160c01b8204811691600160e01b90041685611fd8565b91509150856060015163ffffffff168163ffffffff1610156116ea5760405162461bcd60e51b815260206004820152601560248201527f535041434553484950535f4e4f545f454e4f554748000000000000000000000060448201526064016104c1565b60008061170183858a604001518b60600151612240565b91509150604051806060016040528089602001516001600160a01b031681526020018363ffffffff168152602001896060015163ffffffff16815250600160008c815260200190815260200160002060008201518160000160006101000a8154816001600160a01b0302191690836001600160a01b0316021790555060208201518160000160146101000a81548163ffffffff021916908363ffffffff16021790555060408201518160000160186101000a81548163ffffffff021916908363ffffffff160217905550905050876040015188602001516001600160a01b031689600001516001600160a01b03167fa069887d9311acae9fe31657a1cc64ab2f9d55b74319d0193094208f946a0e778c8e8d606001518760405161185294939291906001600160a01b03949094168452602084019290925263ffffffff908116604084015216606082015260800190565b60405180910390a450505050505050505050565b638000000081811681149060009061187e90846157ec565b9050915091565b60408051610100810182526000808252602080830182905282840182905260608084018390526080840183905260a0840183905260c0840183905260e084019290925283517f00000000000000000000000000000000000000000000000000000000000000008183015280850186905284518082038601815292019093528051920191909120611914816123d3565b6119605760405162461bcd60e51b815260206004820152601a60248201527f6e6f20706c616e657420696e2074686973206c6f636174696f6e00000000000060448201526064016104c1565b60008061196c836123ef565b915091506040518061010001604052808360000b81526020018260000b815260200161199785612423565b61ffff1681526020016119a985611f61565b61ffff1681526020016119bb856124d4565b61ffff1681526020016119cd85612545565b61ffff1681526020016119df8561259b565b61ffff1681526020016119f18561260c565b61ffff16905295945050505050565b6000808263ffffffff16118015611a455750611a427f000000000000000000000000000000000000000000000000000000000000000063ffffffff84166155f3565b42115b92915050565b6000611a5a8686868686611db4565b6001600160a01b038616600090815260026020526040902054909150611a8c908690611a879084906155f3565b61267d565b505050505050565b604080517f000000000000000000000000000000000000000000000000000000000000000060208083019190915281830184905282518083038401815260609092019092528051910120670de0b6b3a7640000611af082612423565b61ffff16611afe919061580f565b8314611b4c5760405162461bcd60e51b815260206004820152600e60248201527f494e56414c49445f414d4f554e5400000000000000000000000000000000000060448201526064016104c1565b6000611b598584846126d6565b9050611b6483612b28565b6040805163ffffffff831681526020810186905284916001600160a01b038816917f5a2bd9d3c37a402271eaa8b4cd01a1a65831589c630b4b8ab1967eca76c0412c910160405180910390a35050505050565b6000828152600160209081526040808320815160608101835290546001600160a01b038116825263ffffffff600160a01b8204811694830194909452600160c01b9004909216908201529080611c0d8385612ef2565b915091506000611c2c8560200151600090815260208190526040902090565b6040805160808101825291546001600160a01b038116835263ffffffff600160a01b8204811660208501819052600160c01b8304821693850193909352600160e01b909104166060830152909150611a8c9087908390611c8b90611a00565b611c96578351611c99565b60005b87898888612fa8565b611cad82600061267d565b6040517fa9059cbb0000000000000000000000000000000000000000000000000000000081526001600160a01b038381166004830152602482018390527f0000000000000000000000000000000000000000000000000000000000000000169063a9059cbb90604401602060405180830381600087803b158015611d3057600080fd5b505af1158015611d44573d6000803e3d6000fd5b505050506040513d601f19601f82011682018060405250810190611d68919061560b565b610c255760405162461bcd60e51b815260206004820152600f60248201527f4641494c45445f5452414e53464552000000000000000000000000000000000060448201526064016104c1565b604080517f0000000000000000000000000000000000000000000000000000000000000000602080830191909152818301889052825180830384018152606090920190925280519101206000906000670de0b6b3a7640000611e1583612423565b61ffff16611e23919061580f565b905087876001600160a01b03167f1c363b29828a892b7cddafe9583ef52e0d5aca0ea7011bda6ccf039e1781f73883604051611e6191815260200190565b60405180910390a36000888152600760205260409020548015611ee6576001600160a01b03881660008181526008602090815260408083208584528252808320805460ff191660011790558c835260079091528082208290555183928c9290917f74f110a1e0cd4892234c7ba49df9f8a354cd8d29b272f7557c9b8c3c38a653369190a45b50855463ffffffff858116600160c01b027fffffffff00000000ffffffffffffffffffffffffffffffffffffffffffffffff42909216600160e01b027bffffffff0000000000000000000000000000000000000000000000009093166001600160a01b03891617929092171617865591505095945050505050565b6000611f6c826123d3565b611fac5760405162461bcd60e51b8152602060048201526011602482015270504c414e45545f4e4f545f45584953545360781b60448201526064016104c1565b611a4582600c7f0708083409600a8c0bb80ce40e100e100e100e101068151819c81e7823282ee061303b565b600080611fe485611866565b90925090506000611ffa6001638000000061582e565b63ffffffff169050600061200e8642615853565b905063ffffffff83167f0000000000000000000000000000000000000000000000000000000000000000156121b057600080610e1061207161ffff8a167f000000000000000000000000000000000000000000000000000000000000000061580f565b61207b91906157d8565b6120ab9063ffffffff7f0000000000000000000000000000000000000000000000000000000000000000166155f3565b9050808663ffffffff16111561210957610e106120ca8561070861580f565b6120d491906157d8565b91506120e68163ffffffff8816615853565b821115612100576120fd8163ffffffff8816615853565b91505b6000945061211c565b61211963ffffffff871682615853565b94505b861561218b576000610e1063ffffffff7f00000000000000000000000000000000000000000000000000000000000000001661215c61ffff8c168861580f565b612166919061580f565b61217091906157d8565b90508581111561217d5750845b61218781856155f3565b9350505b8282111561219c57600092506121a9565b6121a68284615853565b92505b505061220f565b841561220f57610e1063ffffffff7f0000000000000000000000000000000000000000000000000000000000000000166121ee61ffff89168561580f565b6121f8919061580f565b61220291906157d8565b61220c90826155f3565b90505b63800000008110612232576122296001638000000061582e565b63ffffffff1690505b809350505050935093915050565b60008281526020819052604081208190600061227d60027f00000000000000000000000000000000000000000000000000000000000000006157d8565b61228790426157d8565b600087815260046020908152604080832084845290915290205490915067ffffffffffffffff166122be63ffffffff87168261586a565b90508563ffffffff168167ffffffffffffffff1610156123205760405162461bcd60e51b815260206004820152600860248201527f4f564552464c4f5700000000000000000000000000000000000000000000000060448201526064016104c1565b60008781526004602090815260408083208584529091529020805467ffffffffffffffff191667ffffffffffffffff8316179055429450612361868a61582e565b935061236d88856130b5565b835477ffffffffffffffffffffffffffffffffffffffffffffffff16600160c01b63ffffffff928316027bffffffffffffffffffffffffffffffffffffffffffffffffffffffff1617600160e01b91871691909102179092555091969095509350505050565b60006123e282603460106130db565b60ff166001149050919050565b6000806123fe838260036130db565b612409906001615896565b915061241883600260036130db565b61187e906001615896565b600061242e826123d3565b61246e5760405162461bcd60e51b8152602060048201526011602482015270504c414e45545f4e4f545f45584953545360781b60448201526064016104c1565b600061247b83600c6130f8565b905060ff81167e060008000a000c000e001000120014001400160018002000280030003800486124ac8260026158f8565b6124b7906001615922565b61ffff16602081106124cb576124cb615717565b1a949350505050565b60006124df826123d3565b61251f5760405162461bcd60e51b8152602060048201526011602482015270504c414e45545f4e4f545f45584953545360781b60448201526064016104c1565b61252a8260146130f8565b6125399060ff166101906158f8565b611a4590610fa0615922565b6000612550826123d3565b6125905760405162461bcd60e51b8152602060048201526011602482015270504c414e45545f4e4f545f45584953545360781b60448201526064016104c1565b61252a82601c6130f8565b60006125a6826123d3565b6125e65760405162461bcd60e51b8152602060048201526011602482015270504c414e45545f4e4f545f45584953545360781b60448201526064016104c1565b6125f18260246130f8565b6126009060ff1661014d6158f8565b611a459061138d615922565b6000612617826123d3565b6126575760405162461bcd60e51b8152602060048201526011602482015270504c414e45545f4e4f545f45584953545360781b60448201526064016104c1565b61266282602c6130f8565b6126719060ff16610bb86158f8565b611a4590613a98615922565b6001600160a01b03821660008181526002602052604090819020839055517f4d135695228631e73b5a31e6fc8af4e5825cde63774c3c48695b4af814d7b019906126ca9084815260200190565b60405180910390a25050565b600082815260208190526040812081906040805160808101825282546001600160a01b038116825263ffffffff600160a01b820481166020840152600160c01b82048116938301849052600160e01b909104166060820181905292935091600091829161274c919061274789611f61565b611fd8565b91509150600080846060015163ffffffff166000141561277a5761276f8861260c565b61ffff1690506128ae565b602085015163ffffffff16156127ec576127978560200151611a00565b6127e35760405162461bcd60e51b815260206004820152600d60248201527f5354494c4c5f45584954494e470000000000000000000000000000000000000060448201526064016104c1565b600191506128ae565b831561283a5760405162461bcd60e51b815260206004820152600c60248201527f5354494c4c5f414354495645000000000000000000000000000000000000000060448201526064016104c1565b896001600160a01b031685600001516001600160a01b03161480612862575063ffffffff8316155b6128ae5760405162461bcd60e51b815260206004820152600860248201527f4f4343555049454400000000000000000000000000000000000000000000000060448201526064016104c1565b81156128f7577f000000000000000000000000000000000000000000000000000000000000000092506128f2898660000151888d6128ed6001896130b5565b611a4b565b612b1a565b85547fffffffffffffffffffffffff0000000000000000000000000000000000000000166001600160a01b038b1617865563ffffffff811615612a875760006360916f80421115612990576129887f000000000000000000000000000000000000000000000000000000000000000063ffffffff168363ffffffff1661271061297f8d612545565b61ffff16613192565b5090506129da565b6129d67f000000000000000000000000000000000000000000000000000000000000000063ffffffff168363ffffffff166127106129cd8d612545565b61ffff16613333565b5090505b7f000000000000000000000000000000000000000000000000000000000000000063ffffffff168163ffffffff1610612a555760405162461bcd60e51b815260206004820152600f60248201527f4641494c45445f4341505455524544000000000000000000000000000000000060448201526064016104c1565b612a7f817f000000000000000000000000000000000000000000000000000000000000000061582e565b935050612ab4565b612ab17f00000000000000000000000000000000000000000000000000000000000000008461593f565b92505b612abf6001846130b5565b865477ffffffffffffffffffffffffffffffffffffffffffffffff16600160c01b63ffffffff928316027bffffffffffffffffffffffffffffffffffffffffffffffffffffffff1617600160e01b4292909216919091021786555b509098975050505050505050565b604080516080808201835260055463ffffffff80821684526401000000008204811660208501526801000000000000000082048116948401949094526c0100000000000000000000000090049092166060820152906fffffffffffffffffffffffffffffffff8316600f0b9083901d600080831215612c4c57835163ffffffff16612bb28461595e565b1315612c005760405162461bcd60e51b815260206004820152601660248201527f4e4f545f524541434841424c455f5945545f4d494e580000000000000000000060448201526064016104c1565b6008612c0b8461595e565b612c159190615997565b925063ffffffff831315612c2b5763ffffffff92505b835163ffffffff16831315612c47575063ffffffff8216835260015b612cef565b836020015163ffffffff16831315612ca65760405162461bcd60e51b815260206004820152601660248201527f4e4f545f524541434841424c455f5945545f4d4158580000000000000000000060448201526064016104c1565b612cb1600884615997565b925063ffffffff831315612cc75763ffffffff92505b8263ffffffff16846020015163ffffffff161015612cef575063ffffffff8216602084015260015b6000821215612dac57604084015163ffffffff16612d0c8361595e565b1315612d5a5760405162461bcd60e51b815260206004820152601660248201527f4e4f545f524541434841424c455f5945545f4d494e590000000000000000000060448201526064016104c1565b6008612d658361595e565b612d6f9190615997565b915063ffffffff821315612d855763ffffffff91505b81846040015163ffffffff161215612da7575063ffffffff8116604084015260015b612e49565b836060015163ffffffff16821315612e065760405162461bcd60e51b815260206004820152601660248201527f4e4f545f524541434841424c455f5945545f4d4158590000000000000000000060448201526064016104c1565b612e11600883615997565b915063ffffffff821315612e275763ffffffff91505b81846060015163ffffffff161215612e49575063ffffffff8116606084015260015b80156105a55783516005805460208701516040880151606089015163ffffffff9081166c01000000000000000000000000027fffffffffffffffffffffffffffffffff00000000ffffffffffffffffffffffff9282166801000000000000000002929092166fffffffffffffffff0000000000000000199382166401000000000267ffffffffffffffff1990951691909616179290921716929092179190911790555050505050565b6040820151600063ffffffff8216612f4c5760405162461bcd60e51b815260206004820152601260248201527f464c4545545f444f5f4e4f545f4558495354000000000000000000000000000060448201526064016104c1565b612f5f8284600001518660200151613463565b9150818460400151612f71919061582e565b9050612f8a83604001518460000151856020015161358a565b612fa18360400151846000015186602001516137a6565b9250929050565b600080612fc58660000151868a896020015163ffffffff16613940565b915091506000612fe28787600001518b896020015187878b613f69565b9050612ffb87600001518b8a896020015187868a613fd8565b5050506000968752505060016020525050604090922080547fffffffff00000000ffffffffffffffffffffffffffffffffffffffffffffffff1690555050565b60008061304885856130f8565b905082613056826002615a0b565b613061906001615a34565b60ff166020811061307457613074615717565b1a83613081836002615a0b565b60ff166020811061309457613094615717565b6130a291901a6101006158f8565b6130ac9190615922565b95945050505050565b600081836130c45760006130ca565b63800000005b6130d4919061593f565b9392505050565b60006130f060ff80841690851686901c615a59565b949350505050565b600080613107848460406130db565b90506000613116600283615a6d565b90506000613125600284615a8f565b905060007f01223334444555555666666677777777888888889999999aaaaaabbbbcccddef60ff84166020811061315e5761315e615717565b1a905060ff821661317c5760048160ff16901c945050505050611a45565b613187601082615a8f565b945050505050611a45565b6000808515806131a0575084155b156131b05750600090508061332a565b6000856131dd887f000000000000000000000000000000000000000000000000000000000000000061580f565b6131e791906157d8565b6132147f0000000000000000000000000000000000000000000000000000000000000000620f4240615853565b61321e91906155f3565b613228908861580f565b90506000620f42408561323b888561580f565b61324591906157d8565b61324f91906157d8565b90508087111561326457879350809250613327565b600088613291897f000000000000000000000000000000000000000000000000000000000000000061580f565b61329b91906157d8565b6132c87f0000000000000000000000000000000000000000000000000000000000000000620f4240615853565b6132d291906155f3565b6132dc908961580f565b90506000620f4240886132ef898561580f565b6132f991906157d8565b61330391906157d8565b63ffffffff1690508981106133205761331d60018b615853565b90505b9450879350505b50505b94509492505050565b600080851580613341575084155b156133515750600090508061332a565b600061335d858861580f565b9050600061336b858861580f565b905060008261337e896305f5e10061580f565b61338891906157d8565b9050613398886305f5e10061580f565b6133a2848361580f565b10156133b657806133b2816155d8565b9150505b6000826133c78b6305f5e10061580f565b6133d191906157d8565b90506133e18a6305f5e10061580f565b6133eb848361580f565b10156133ff57806133fb816155d8565b9150505b600061340b838361408d565b905061342f6305f5e10061341f868461580f565b61342991906157d8565b8c61408d565b96506134536305f5e100613443878461580f565b61344d91906157d8565b8b61408d565b9550505050505094509492505050565b60008061349160027f00000000000000000000000000000000000000000000000000000000000000006157d8565b6134a19063ffffffff85166157d8565b600085815260046020908152604080832084845290915290205490915068010000000000000000900467ffffffffffffffff1663ffffffff8616811015613523576134ec818761582e565b6000868152600460209081526040808320868452909152902080546fffffffffffffffff0000000000000000191690559550613580565b600095506135318682615ab1565b60008681526004602090815260408083208684529091529020805467ffffffffffffffff9290921668010000000000000000026fffffffffffffffff0000000000000000199092169190911790555b5093949350505050565b6000806135ec6135e785604080517f00000000000000000000000000000000000000000000000000000000000000006020820152908101829052600090606001604051602081830303815290604052805190602001209050919050565b6123ef565b9150915060008061364d6135e786604080517f00000000000000000000000000000000000000000000000000000000000000006020820152908101829052600090606001604051602081830303815290604052805190602001209050919050565b90925090506000600284820b61366860808a901c6004615ad2565b6136729190615b79565b600084900b61368660808a901c6004615ad2565b6136909190615b79565b61369a9190615bda565b6136a49190615dce565b6002600087900b6136c86fffffffffffffffffffffffffffffffff8b166004615ad2565b6136d29190615b79565b600086900b6136f46fffffffffffffffffffffffffffffffff8b166004615ad2565b6136fe9190615b79565b6137089190615bda565b6137129190615dce565b61371c9190615b79565b600f0b90508061372d60028a615e6f565b11158015613750575060026137438960016155f3565b61374d9190615e6f565b81105b61379c5760405162461bcd60e51b815260206004820152600e60248201527f77726f6e672064697374616e636500000000000000000000000000000000000060448201526064016104c1565b5050505050505050565b604080517f0000000000000000000000000000000000000000000000000000000000000000602080830191909152818301859052825180830384018152606090920190925280519101206000906137fc9061259b565b61ffff1661382c7f000000000000000000000000000000000000000000000000000000000000000061271061580f565b613836908661580f565b61384091906157d8565b6138509063ffffffff84166155f3565b9050804210156138a25760405162461bcd60e51b815260206004820152600960248201527f746f6f206561726c79000000000000000000000000000000000000000000000060448201526064016104c1565b6138cc7f0000000000000000000000000000000000000000000000000000000000000000826155f3565b4210610ac45760405162461bcd60e51b815260206004820152602b60248201527f746f6f206c6174652c20796f7572207370616365736869707320617265206c6f60448201527f737420696e20737061636500000000000000000000000000000000000000000060648201526084016104c1565b815160009081906001600160a01b031661395f5750600090508061332a565b856001600160a01b031684600001516001600160a01b03161415613989575060019050600061332a565b846060015115613d705760808501516001600160a01b031615806139c6575083600001516001600160a01b031685608001516001600160a01b0316145b15613ab057835160405163df2c0f4960e01b81526001600160a01b0388811660048301529182166024820152604481018590526000917f0000000000000000000000000000000000000000000000000000000000000000169063df2c0f4990606401604080518083038186803b158015613a3f57600080fd5b505afa158015613a53573d6000803e3d6000fd5b505050506040513d601f19601f82011682018060405250810190613a779190615e9a565b9150506001816bffffffffffffffffffffffff1660001480613aa6575084826bffffffffffffffffffffffff16115b925092505061332a565b60808501516001600160a01b031660011415613b9257835160405163df2c0f4960e01b81526001600160a01b0388811660048301529182166024820152604481018590526000917f0000000000000000000000000000000000000000000000000000000000000000169063df2c0f49906064015b604080518083038186803b158015613b3b57600080fd5b505afa158015613b4f573d6000803e3d6000fd5b505050506040513d601f19601f82011682018060405250810190613b739190615e9a565b6bffffffffffffffffffffffff1680151594508510925061332a915050565b600185608001516001600160a01b03161115613d6b57835160808601516040517f4ed2986d0000000000000000000000000000000000000000000000000000000081526001600160a01b03928316600482015290821660248201526000917f00000000000000000000000000000000000000000000000000000000000000001690634ed2986d90604401604080518083038186803b158015613c3357600080fd5b505afa158015613c47573d6000803e3d6000fd5b505050506040513d601f19601f82011682018060405250810190613c6b9190615ecf565b5090506bffffffffffffffffffffffff811615613d6957845160405163df2c0f4960e01b81526001600160a01b0389811660048301529182166024820152604481018690526000917f0000000000000000000000000000000000000000000000000000000000000000169063df2c0f49906064015b604080518083038186803b158015613cf757600080fd5b505afa158015613d0b573d6000803e3d6000fd5b505050506040513d601f19601f82011682018060405250810190613d2f9190615e9a565b9150506001816bffffffffffffffffffffffff1660001480613d5e575085826bffffffffffffffffffffffff16115b93509350505061332a565b505b61332a565b60808501516001600160a01b031660011415613de857835160405163df2c0f4960e01b81526001600160a01b0388811660048301529182166024820152604481018590526000917f0000000000000000000000000000000000000000000000000000000000000000169063df2c0f4990606401613b24565b600185608001516001600160a01b0316118015613e1f575083600001516001600160a01b031685608001516001600160a01b031614155b1561332a57835160808601516040517f4ed2986d0000000000000000000000000000000000000000000000000000000081526001600160a01b03928316600482015290821660248201526000917f00000000000000000000000000000000000000000000000000000000000000001690634ed2986d90604401604080518083038186803b158015613eaf57600080fd5b505afa158015613ec3573d6000803e3d6000fd5b505050506040513d601f19601f82011682018060405250810190613ee79190615ecf565b5090506bffffffffffffffffffffffff8116613f5f57845160405163df2c0f4960e01b81526001600160a01b0389811660048301529182166024820152604481018690526000917f0000000000000000000000000000000000000000000000000000000000000000169063df2c0f4990606401613ce0565b5094509492505050565b6040805160a0810182526000808252602082018190529181018290526060810182905260808101919091528315613fb757613fb08860000151878785878d602001516140a4565b9050613fcd565b613fb088600001518960200151898989876142b1565b979650505050505050565b846001600160a01b0316876001600160a01b0316877f606ed05ee5450c129097ad509fc76dd97bde7b9bfc9a935df4671051779e0eb0878787602001518860400151888a600001518b606001518c6080015160405161407c989796959493929190978852951515602088015263ffffffff948516604088015292841660608701529083166080860152821660a0850152151560c08401521660e08201526101000190565b60405180910390a450505050505050565b60008183111561409d57816130d4565b5090919050565b6040805160a08101825260008082526020808301829052928201819052606082018190526080820152908601516140da90611a00565b1561412a5785516001600160a01b0381166140f25750865b8651600087815260208190526040902061412291889163ffffffff891661411a57600061411c565b845b8961442d565b9150506142a7565b8215614162576127106141456109c463ffffffff871661580f565b61414f91906157d8565b61415f9063ffffffff8616615853565b93505b604080517f00000000000000000000000000000000000000000000000000000000000000006020808301919091528183018890528251808303840181526060909201909252805191012060006141b782611f61565b90506000806141d58a604001518b6060015163ffffffff1685611fd8565b909250905060006141e6898361593f565b63ffffffff16905063800000008110614211576142086001638000000061582e565b63ffffffff1690505b60008a815260208190526040902080547bffffffffffffffffffffffffffffffffffffffffffffffffffffffff16600160e01b4263ffffffff160217905561425983826130b5565b60008b815260208190526040902080547fffffffff00000000ffffffffffffffffffffffffffffffffffffffffffffffff16600160c01b63ffffffff93841602179055166080860152505050505b9695505050505050565b6040805160a081018252600080825260208201819052918101829052606081018290526080810191909152606084015163ffffffff1661434357604080517f000000000000000000000000000000000000000000000000000000000000000060208083019190915281830186905282518083038401815260609092019092528051910120614122888888878588614499565b6143508460200151611a00565b1561437957835160008481526020819052604090206143729185918a8661442d565b90506142a7565b604080517f00000000000000000000000000000000000000000000000000000000000000006020808301829052828401879052835180840385018152606084018552805190820120608084019290925260a08084018a90528451808503909101815260c0909301909352815191909201206000906143f6906124d4565b9050600061440383612545565b9050600061441084611f61565b90506144228b8b85858c8c878d6146bf565b9450505050506142a7565b6040805160a08101825260008082526020820181905291810182905260608101829052608081019190915261447b86868660008663ffffffff1611614473576000614475565b865b86611a4b565b63ffffffff9091166080820181905215156060820152949350505050565b6040805160a0810182526000808252602080830182905282840182905260608084018390526080840183905284517f0000000000000000000000000000000000000000000000000000000000000000818401528086018a905285518082038701815291019094528351930192909220909190614514906124d4565b9050600061452185612545565b9050600061452e8661260c565b90506000806360916f808b63ffffffff16111561456d576145638763ffffffff168461ffff168761ffff168761ffff16613192565b9092509050614591565b61458b8763ffffffff168461ffff168761ffff168761ffff16613333565b90925090505b63ffffffff8083166020880152811661ffff84161480156145bd57508163ffffffff168763ffffffff16115b156146b0576145cc828861582e565b63ffffffff16608087018190526145e5906000906130b5565b6000808b815260200190815260200160002060000160186101000a81548163ffffffff021916908363ffffffff160217905550426000808b8152602001908152602001600020600001601c6101000a81548163ffffffff021916908363ffffffff1602179055508b6000808b815260200190815260200160002060000160006101000a8154816001600160a01b0302191690836001600160a01b0316021790555080866040019063ffffffff16908163ffffffff168152505060018660600190151590811515815250505b50505050509695505050505050565b6040805160a0810182526000808252602082018190529181018290526060810182905260808101829052906146f58686866147fd565b9050806040015163ffffffff166000148015614717575060008363ffffffff16115b156147de57600085815260208190526040902080547fffffffffffffffff000000000000000000000000000000000000000000000000166001600160a01b038c16179055805161476790846130b5565b6000868152602081905260409020805477ffffffffffffffffffffffffffffffffffffffffffffffff16600160c01b63ffffffff938416027bffffffffffffffffffffffffffffffffffffffffffffffffffffffff1617600160e01b428416021790556001606084015283166080830152506147f1565b6147ed818b8b88878d8d6148b6565b9150505b98975050505050505050565b6040805160e081018252600080825260208201819052918101829052606081018290526080810182905260a0810182905260c08101919091526000806148528660400151876060015163ffffffff1686611fd8565b915091506000806000806000614868868b614e53565b9a15158c5263ffffffff998a1660208d01529290981660408b015267ffffffffffffffff90811660608b015296871660808a0152861660a089015250505050911660c0830152509392505050565b6040805160a081018252600080825260208201819052918101829052606081018290526080810182905290806360916f8063ffffffff89161115614922576149188663ffffffff168b6040015163ffffffff168761ffff168761ffff16613192565b909250905061494c565b6149468663ffffffff168b6040015163ffffffff168761ffff168761ffff16613333565b90925090505b63ffffffff80831660208086019190915282821660408601819052908c01519091161015614cf55760208a0151614983908261582e565b63ffffffff90811680855260208c0151909116604085015260608b015167ffffffffffffffff1610614a0657826000015163ffffffff168a6060018181516149cb9190615ab1565b67ffffffffffffffff16905250825160808b01805163ffffffff909216916149f490839061586a565b67ffffffffffffffff16905250614adc565b89606001518a608001818151614a1c919061586a565b67ffffffffffffffff1690525060608a01518351600091614a429163ffffffff16615ab1565b90508067ffffffffffffffff168b60a0015167ffffffffffffffff1610614aa857808b60a001818151614a759190615ab1565b67ffffffffffffffff1690525060c08b018051829190614a9690839061586a565b67ffffffffffffffff16905250614ad3565b8a60a001518b60c001818151614abe919061586a565b67ffffffffffffffff16905250600060a08c01525b50600060608b01525b60608a01516000888152600460205260408120906001614b1d60027f00000000000000000000000000000000000000000000000000000000000000006157d8565b614b2790426157d8565b614b319190615853565b815260208082019290925260409081016000908120805467ffffffffffffffff191667ffffffffffffffff959095169490941790935560808d01518a84526004909252822090916001614ba560027f00000000000000000000000000000000000000000000000000000000000000006157d8565b614baf90426157d8565b614bb99190615853565b815260200190815260200160002060000160086101000a81548167ffffffffffffffff021916908367ffffffffffffffff1602179055508960a0015160046000898152602001908152602001600020600060027f0000000000000000000000000000000000000000000000000000000000000000614c3791906157d8565b614c4190426157d8565b815260208082019290925260409081016000908120805467ffffffffffffffff191667ffffffffffffffff959095169490941790935560c08d01518a8452600490925282209091614cb360027f00000000000000000000000000000000000000000000000000000000000000006157d8565b614cbd90426157d8565b815260200190815260200160002060000160086101000a81548167ffffffffffffffff021916908367ffffffffffffffff1602179055505b60008663ffffffff16118015614d1e5750896020015163ffffffff16836040015163ffffffff16145b15614dfe57614d2d828761582e565b63ffffffff166080840190815260016060850152600088815260208190526040902080547fffffffffffffffff000000000000000000000000000000000000000000000000166001600160a01b038c161790558a519051614d8e91906130b5565b6000888152602081905260409020805477ffffffffffffffffffffffffffffffffffffffffffffffff16600160c01b63ffffffff938416027bffffffffffffffffffffffffffffffffffffffffffffffffffffffff1617600160e01b429390931692909202919091179055614e46565b8563ffffffff16836020015163ffffffff161415614e3e57808a60200151614e26919061582e565b63ffffffff16608084018190528a51614d8e916130b5565b614e46615efb565b5050979650505050505050565b81600080808080614e8560027f00000000000000000000000000000000000000000000000000000000000000006157d8565b614e8f90426157d8565b6000888152600460205260408120919250614eab600184615853565b815260208082019290925260409081016000908120548a8252600490935290812067ffffffffffffffff9092169650614ee5600184615853565b815260208082019290925260409081016000908120548a825260048452828220858352909352205467ffffffffffffffff91821695508181169450680100000000000000009004169150614f6163ffffffff8716614f43858861586a565b614f4d919061586a565b67ffffffffffffffff1663ffffffff61408d565b9550509295509295909350565b600060208284031215614f8057600080fd5b5035919050565b803563ffffffff81168114614f9b57600080fd5b919050565b600080600060608486031215614fb557600080fd5b83359250614fc560208501614f87565b9150604084013590509250925092565b6001600160a01b0381168114614fea57600080fd5b50565b60008060008060008060008060008060006101608c8e03121561500f57600080fd5b8b3561501a81614fd5565b9a5060208c013561502a81614fd5565b995060408c0135985061503f60608d01614f87565b975061504d60808d01614f87565b965061505b60a08d01614f87565b955061506960c08d01614f87565b945061507760e08d01614f87565b93506150866101008d01614f87565b92506150956101208d01614f87565b91506150a46101408d01614f87565b90509295989b509295989b9093969950565b6101c0810161511382856001600160a01b038151168252602081015163ffffffff8082166020850152806040840151166040850152806060840151166060850152505060808101511515608083015260a081015160a08301525050565b8251600090810b60c08401526020840151900b60e0830152604083015161ffff908116610100840152606084015116610120830152608083015161515e61014084018261ffff169052565b5060a083015161ffff90811661016084015260c0840151811661018084015260e0909301519092166101a090910152919050565b8035614f9b81614fd5565b600080604083850312156151b057600080fd5b8235915060208301356151c281614fd5565b809150509250929050565b600080604083850312156151e057600080fd5b50508035926020909101359150565b60008082840361012081121561520457600080fd5b83359250610100601f198201121561521b57600080fd5b506020830190509250929050565b60008083601f84011261523b57600080fd5b50813567ffffffffffffffff81111561525357600080fd5b602083019150836020828501011115612fa157600080fd5b60008060008060006080868803121561528357600080fd5b853561528e81614fd5565b9450602086013561529e81614fd5565b935060408601359250606086013567ffffffffffffffff8111156152c157600080fd5b6152cd88828901615229565b969995985093965092949392505050565b6000602082840312156152f057600080fd5b81356130d481614fd5565b8015158114614fea57600080fd5b6000806040838503121561531c57600080fd5b823561532781614fd5565b915060208301356151c2816152fb565b6000806000806060858703121561534d57600080fd5b843561535881614fd5565b935060208501359250604085013567ffffffffffffffff81111561537b57600080fd5b61538787828801615229565b95989497509550505050565b60008083601f8401126153a557600080fd5b50813567ffffffffffffffff8111156153bd57600080fd5b6020830191508360208260051b8501011115612fa157600080fd5b600080602083850312156153eb57600080fd5b823567ffffffffffffffff81111561540257600080fd5b61540e85828601615393565b90969095509350505050565b60a0808252835190820181905260009060c090818401906020808801855b838110156154a9576154998583516001600160a01b038151168252602081015163ffffffff8082166020850152806040840151166040850152806060840151166060850152505060808101511515608083015260a081015160a08301525050565b9385019390820190600101615438565b50508294506154e581870188805163ffffffff908116835260208083015182169084015260408083015182169084015260609182015116910152565b505050509392505050565b6000806040838503121561550357600080fd5b823561550e81614fd5565b946020939093013593505050565b60808101611a458284805163ffffffff908116835260208083015182169084015260408083015182169084015260609182015116910152565b600060a0828403121561556757600080fd5b50919050565b60008060006040848603121561558257600080fd5b833561558d81614fd5565b9250602084013567ffffffffffffffff8111156155a957600080fd5b6155b586828701615393565b9497909650939450505050565b634e487b7160e01b600052601160045260246000fd5b60006000198214156155ec576155ec6155c2565b5060010190565b60008219821115615606576156066155c2565b500190565b60006020828403121561561d57600080fd5b81516130d4816152fb565b60006020828403121561563a57600080fd5b81356130d4816152fb565b634e487b7160e01b600052604160045260246000fd5b600061010080838503121561566f57600080fd5b6040519081019067ffffffffffffffff821181831017156156a057634e487b7160e01b600052604160045260246000fd5b81604052833581526020840135602082015260408401356040820152606084013591506156cc826152fb565b8160608201526156de60808501615192565b608082015260a084013560a08201526156f960c08501615192565b60c082015261570a60e08501615192565b60e0820152949350505050565b634e487b7160e01b600052603260045260246000fd5b600060a0828403121561573f57600080fd5b60405160a0810181811067ffffffffffffffff8211171561577057634e487b7160e01b600052604160045260246000fd5b604052823561577e81614fd5565b8152602083013561578e81614fd5565b6020820152604083810135908201526157a960608401614f87565b6060820152608083013560808201528091505092915050565b634e487b7160e01b600052601260045260246000fd5b6000826157e7576157e76157c2565b500490565b600063ffffffff80841680615803576158036157c2565b92169190910692915050565b6000816000190483118215151615615829576158296155c2565b500290565b600063ffffffff8381169083168181101561584b5761584b6155c2565b039392505050565b600082821015615865576158656155c2565b500390565b600067ffffffffffffffff80831681851680830382111561588d5761588d6155c2565b01949350505050565b60008160000b8360000b60008112817fffffffffffffffffffffffffffffffffffffffffffffffffffffffffffffff80018312811516156158d9576158d96155c2565b81607f0183138116156158ee576158ee6155c2565b5090039392505050565b600061ffff80831681851681830481118215151615615919576159196155c2565b02949350505050565b600061ffff80831681851680830382111561588d5761588d6155c2565b600063ffffffff80831681851680830382111561588d5761588d6155c2565b60007f8000000000000000000000000000000000000000000000000000000000000000821415615990576159906155c2565b5060000390565b6000808212827f7fffffffffffffffffffffffffffffffffffffffffffffffffffffffffffffff038413811516156159d1576159d16155c2565b827f8000000000000000000000000000000000000000000000000000000000000000038412811615615a0557615a056155c2565b50500190565b600060ff821660ff84168160ff0481118215151615615a2c57615a2c6155c2565b029392505050565b600060ff821660ff84168060ff03821115615a5157615a516155c2565b019392505050565b600082615a6857615a686157c2565b500690565b600060ff831680615a8057615a806157c2565b8060ff84160491505092915050565b600060ff831680615aa257615aa26157c2565b8060ff84160691505092915050565b600067ffffffffffffffff8381169083168181101561584b5761584b6155c2565b600081600f0b83600f0b6f7fffffffffffffffffffffffffffffff600082136000841383830485118282161615615b0b57615b0b6155c2565b6f7fffffffffffffffffffffffffffffff196000851286820586128184161615615b3757615b376155c2565b60008712925085820587128484161615615b5357615b536155c2565b85850587128184161615615b6957615b696155c2565b5050509290910295945050505050565b600081600f0b83600f0b60008212826f7fffffffffffffffffffffffffffffff03821381151615615bac57615bac6155c2565b826f7fffffffffffffffffffffffffffffff19038212811615615bd157615bd16155c2565b50019392505050565b600081600f0b83600f0b60008112816f7fffffffffffffffffffffffffffffff1901831281151615615c0e57615c0e6155c2565b816f7fffffffffffffffffffffffffffffff0183138116156158ee576158ee6155c2565b600181815b80851115615c6d578160001904821115615c5357615c536155c2565b80851615615c6057918102915b93841c9390800290615c37565b509250929050565b80825b6001808611615c875750615cc2565b816f7fffffffffffffffffffffffffffffff04821115615ca957615ca96155c2565b80861615615cb657918102915b9490941c938002615c78565b935093915050565b6000828015615ce05760018114615cea57615cf3565b6001915050611a45565b82915050611a45565b5081615d0157506000611a45565b50600160008213808214615d1a578015615d4157615d63565b826f7fffffffffffffffffffffffffffffff04831115615d3c57615d3c6155c2565b615d63565b826f7fffffffffffffffffffffffffffffff05831215615d6357615d636155c2565b5080831615615d6f5750805b615d7f8360011c83840283615c75565b806f7fffffffffffffffffffffffffffffff048211600083131615615da657615da66155c2565b806f7fffffffffffffffffffffffffffffff19058212600083121615615a2c57615a2c6155c2565b60006130d460ff841683600f0b615cca565b600082615def57506001611a45565b81615dfc57506000611a45565b8160018114615ce05760028114615e1257615e2e565b60ff841115615e2357615e236155c2565b50506001821b611a45565b5060208310610133831016604e8410600b8410161715615e51575081810a611a45565b615e5b8383615c32565b8060001904821115615a2c57615a2c6155c2565b60006130d460ff841683615de0565b80516bffffffffffffffffffffffff81168114614f9b57600080fd5b60008060408385031215615ead57600080fd5b8251615eb881614fd5565b9150615ec660208401615e7e565b90509250929050565b60008060408385031215615ee257600080fd5b615eeb83615e7e565b9150602083015190509250929050565b634e487b7160e01b600052600160045260246000fdfea26469706673582212209a5a2b7cf3036a02098d540110edd25b9f61d593b3c3b1d68252b33953871fb864736f6c63430008090033b53127684a568b3173ae13b9f8a6016e243e63b6e8ee1178d6a717850b5d6103",
  "devdoc": {
    "kind": "dev",
    "methods": {},
    "version": 1
  },
  "userdoc": {
    "kind": "user",
    "methods": {},
    "version": 1
  },
  "storageLayout": {
    "storage": [
      {
        "astId": 15968,
        "contract": "src/OuterSpace.sol:OuterSpace",
        "label": "_planets",
        "offset": 0,
        "slot": "0",
        "type": "t_mapping(t_uint256,t_struct(Planet)16016_storage)"
      },
      {
        "astId": 15973,
        "contract": "src/OuterSpace.sol:OuterSpace",
        "label": "_fleets",
        "offset": 0,
        "slot": "1",
        "type": "t_mapping(t_uint256,t_struct(Fleet)16023_storage)"
      },
      {
        "astId": 15977,
        "contract": "src/OuterSpace.sol:OuterSpace",
        "label": "_stakeReadyToBeWithdrawn",
        "offset": 0,
        "slot": "2",
        "type": "t_mapping(t_address,t_uint256)"
      },
      {
        "astId": 15983,
        "contract": "src/OuterSpace.sol:OuterSpace",
        "label": "_operators",
        "offset": 0,
        "slot": "3",
        "type": "t_mapping(t_address,t_mapping(t_address,t_bool))"
      },
      {
        "astId": 15995,
        "contract": "src/OuterSpace.sol:OuterSpace",
        "label": "_inFlight",
        "offset": 0,
        "slot": "4",
        "type": "t_mapping(t_uint256,t_mapping(t_uint256,t_struct(InFlight)15988_storage))"
      },
      {
        "astId": 16007,
        "contract": "src/OuterSpace.sol:OuterSpace",
        "label": "_discovered",
        "offset": 0,
        "slot": "5",
        "type": "t_struct(Discovered)16004_storage"
      },
      {
        "astId": 16027,
        "contract": "src/OuterSpace.sol:OuterSpace",
        "label": "_prevRewardIds",
        "offset": 0,
        "slot": "6",
        "type": "t_mapping(t_address,t_uint256)"
      },
      {
        "astId": 16031,
        "contract": "src/OuterSpace.sol:OuterSpace",
        "label": "_rewards",
        "offset": 0,
        "slot": "7",
        "type": "t_mapping(t_uint256,t_uint256)"
      },
      {
        "astId": 16037,
        "contract": "src/OuterSpace.sol:OuterSpace",
        "label": "_rewardsToWithdraw",
        "offset": 0,
        "slot": "8",
        "type": "t_mapping(t_address,t_mapping(t_uint256,t_bool))"
      }
    ],
    "types": {
      "t_address": {
        "encoding": "inplace",
        "label": "address",
        "numberOfBytes": "20"
      },
      "t_bool": {
        "encoding": "inplace",
        "label": "bool",
        "numberOfBytes": "1"
      },
      "t_mapping(t_address,t_bool)": {
        "encoding": "mapping",
        "key": "t_address",
        "label": "mapping(address => bool)",
        "numberOfBytes": "32",
        "value": "t_bool"
      },
      "t_mapping(t_address,t_mapping(t_address,t_bool))": {
        "encoding": "mapping",
        "key": "t_address",
        "label": "mapping(address => mapping(address => bool))",
        "numberOfBytes": "32",
        "value": "t_mapping(t_address,t_bool)"
      },
      "t_mapping(t_address,t_mapping(t_uint256,t_bool))": {
        "encoding": "mapping",
        "key": "t_address",
        "label": "mapping(address => mapping(uint256 => bool))",
        "numberOfBytes": "32",
        "value": "t_mapping(t_uint256,t_bool)"
      },
      "t_mapping(t_address,t_uint256)": {
        "encoding": "mapping",
        "key": "t_address",
        "label": "mapping(address => uint256)",
        "numberOfBytes": "32",
        "value": "t_uint256"
      },
      "t_mapping(t_uint256,t_bool)": {
        "encoding": "mapping",
        "key": "t_uint256",
        "label": "mapping(uint256 => bool)",
        "numberOfBytes": "32",
        "value": "t_bool"
      },
      "t_mapping(t_uint256,t_mapping(t_uint256,t_struct(InFlight)15988_storage))": {
        "encoding": "mapping",
        "key": "t_uint256",
        "label": "mapping(uint256 => mapping(uint256 => struct OuterSpace.InFlight))",
        "numberOfBytes": "32",
        "value": "t_mapping(t_uint256,t_struct(InFlight)15988_storage)"
      },
      "t_mapping(t_uint256,t_struct(Fleet)16023_storage)": {
        "encoding": "mapping",
        "key": "t_uint256",
        "label": "mapping(uint256 => struct OuterSpace.Fleet)",
        "numberOfBytes": "32",
        "value": "t_struct(Fleet)16023_storage"
      },
      "t_mapping(t_uint256,t_struct(InFlight)15988_storage)": {
        "encoding": "mapping",
        "key": "t_uint256",
        "label": "mapping(uint256 => struct OuterSpace.InFlight)",
        "numberOfBytes": "32",
        "value": "t_struct(InFlight)15988_storage"
      },
      "t_mapping(t_uint256,t_struct(Planet)16016_storage)": {
        "encoding": "mapping",
        "key": "t_uint256",
        "label": "mapping(uint256 => struct OuterSpace.Planet)",
        "numberOfBytes": "32",
        "value": "t_struct(Planet)16016_storage"
      },
      "t_mapping(t_uint256,t_uint256)": {
        "encoding": "mapping",
        "key": "t_uint256",
        "label": "mapping(uint256 => uint256)",
        "numberOfBytes": "32",
        "value": "t_uint256"
      },
      "t_struct(Discovered)16004_storage": {
        "encoding": "inplace",
        "label": "struct OuterSpace.Discovered",
        "members": [
          {
            "astId": 15997,
            "contract": "src/OuterSpace.sol:OuterSpace",
            "label": "minX",
            "offset": 0,
            "slot": "0",
            "type": "t_uint32"
          },
          {
            "astId": 15999,
            "contract": "src/OuterSpace.sol:OuterSpace",
            "label": "maxX",
            "offset": 4,
            "slot": "0",
            "type": "t_uint32"
          },
          {
            "astId": 16001,
            "contract": "src/OuterSpace.sol:OuterSpace",
            "label": "minY",
            "offset": 8,
            "slot": "0",
            "type": "t_uint32"
          },
          {
            "astId": 16003,
            "contract": "src/OuterSpace.sol:OuterSpace",
            "label": "maxY",
            "offset": 12,
            "slot": "0",
            "type": "t_uint32"
          }
        ],
        "numberOfBytes": "32"
      },
      "t_struct(Fleet)16023_storage": {
        "encoding": "inplace",
        "label": "struct OuterSpace.Fleet",
        "members": [
          {
            "astId": 16018,
            "contract": "src/OuterSpace.sol:OuterSpace",
            "label": "owner",
            "offset": 0,
            "slot": "0",
            "type": "t_address"
          },
          {
            "astId": 16020,
            "contract": "src/OuterSpace.sol:OuterSpace",
            "label": "launchTime",
            "offset": 20,
            "slot": "0",
            "type": "t_uint32"
          },
          {
            "astId": 16022,
            "contract": "src/OuterSpace.sol:OuterSpace",
            "label": "quantity",
            "offset": 24,
            "slot": "0",
            "type": "t_uint32"
          }
        ],
        "numberOfBytes": "32"
      },
      "t_struct(InFlight)15988_storage": {
        "encoding": "inplace",
        "label": "struct OuterSpace.InFlight",
        "members": [
          {
            "astId": 15985,
            "contract": "src/OuterSpace.sol:OuterSpace",
            "label": "flying",
            "offset": 0,
            "slot": "0",
            "type": "t_uint64"
          },
          {
            "astId": 15987,
            "contract": "src/OuterSpace.sol:OuterSpace",
            "label": "destroyed",
            "offset": 8,
            "slot": "0",
            "type": "t_uint64"
          }
        ],
        "numberOfBytes": "32"
      },
      "t_struct(Planet)16016_storage": {
        "encoding": "inplace",
        "label": "struct OuterSpace.Planet",
        "members": [
          {
            "astId": 16009,
            "contract": "src/OuterSpace.sol:OuterSpace",
            "label": "owner",
            "offset": 0,
            "slot": "0",
            "type": "t_address"
          },
          {
            "astId": 16011,
            "contract": "src/OuterSpace.sol:OuterSpace",
            "label": "exitTime",
            "offset": 20,
            "slot": "0",
            "type": "t_uint32"
          },
          {
            "astId": 16013,
            "contract": "src/OuterSpace.sol:OuterSpace",
            "label": "numSpaceships",
            "offset": 24,
            "slot": "0",
            "type": "t_uint32"
          },
          {
            "astId": 16015,
            "contract": "src/OuterSpace.sol:OuterSpace",
            "label": "lastUpdated",
            "offset": 28,
            "slot": "0",
            "type": "t_uint32"
          }
        ],
        "numberOfBytes": "32"
      },
      "t_uint256": {
        "encoding": "inplace",
        "label": "uint256",
        "numberOfBytes": "32"
      },
      "t_uint32": {
        "encoding": "inplace",
        "label": "uint32",
        "numberOfBytes": "4"
      },
      "t_uint64": {
        "encoding": "inplace",
        "label": "uint64",
        "numberOfBytes": "8"
      }
    }
  }
}