{
  "address": "0x7B999420C98EA0d9dC0Cde8d0b0644AAa3FfA076",
  "abi": [
    {
      "inputs": [
        {
          "internalType": "address",
          "name": "firstOwner",
          "type": "address"
        }
      ],
      "stateMutability": "nonpayable",
      "type": "constructor"
    },
    {
      "anonymous": false,
      "inputs": [
        {
          "indexed": true,
          "internalType": "address",
          "name": "previousOwner",
          "type": "address"
        },
        {
          "indexed": true,
          "internalType": "address",
          "name": "newOwner",
          "type": "address"
        }
      ],
      "name": "OwnershipTransferred",
      "type": "event"
    },
    {
      "anonymous": false,
      "inputs": [
        {
          "indexed": true,
          "internalType": "address",
          "name": "payer",
          "type": "address"
        },
        {
          "indexed": false,
          "internalType": "uint256",
          "name": "amount",
          "type": "uint256"
        },
        {
          "indexed": false,
          "internalType": "bool",
          "name": "refund",
          "type": "bool"
        }
      ],
      "name": "Payment",
      "type": "event"
    },
    {
      "inputs": [],
      "name": "owner",
      "outputs": [
        {
          "internalType": "address",
          "name": "",
          "type": "address"
        }
      ],
      "stateMutability": "view",
      "type": "function"
    },
    {
      "inputs": [
        {
          "internalType": "address",
          "name": "newOwner",
          "type": "address"
        }
      ],
      "name": "transferOwnership",
      "outputs": [],
      "stateMutability": "nonpayable",
      "type": "function"
    },
    {
      "inputs": [
        {
          "internalType": "address payable",
          "name": "to",
          "type": "address"
        },
        {
          "internalType": "uint256",
          "name": "amount",
          "type": "uint256"
        }
      ],
      "name": "withdraw",
      "outputs": [],
      "stateMutability": "nonpayable",
      "type": "function"
    },
    {
      "inputs": [
        {
          "internalType": "address payable",
          "name": "to",
          "type": "address"
        }
      ],
      "name": "withdrawAllETH",
      "outputs": [],
      "stateMutability": "nonpayable",
      "type": "function"
    },
    {
      "inputs": [
        {
          "internalType": "address payable",
          "name": "to",
          "type": "address"
        },
        {
          "internalType": "uint256",
          "name": "amount",
          "type": "uint256"
        }
      ],
      "name": "withdrawForRefund",
      "outputs": [],
      "stateMutability": "nonpayable",
      "type": "function"
    },
    {
      "inputs": [
        {
          "internalType": "contract IERC20[]",
          "name": "tokens",
          "type": "address[]"
        },
        {
          "internalType": "address",
          "name": "to",
          "type": "address"
        }
      ],
      "name": "withdrawTokens",
      "outputs": [],
      "stateMutability": "nonpayable",
      "type": "function"
    },
    {
      "stateMutability": "payable",
      "type": "receive"
    }
  ],
  "transactionHash": "0x8fb63d85277f1d5e50a32ae5dbe8b1786ed9097ba0a570fcecc16587bd72df46",
  "args": [
    "0x61c461EcC993aaDEB7e4b47E96d1B8cC37314B20"
  ],
  "solcInputHash": "b6306f36ae27f67da6f89af7c66a0689",
  "bytecode": "0x608060405234801561001057600080fd5b506040516108a23803806108a283398101604081905261002f9161007d565b600080546001600160a01b0319166001600160a01b03831690811782556040519091907f8be0079c531659141344cd1fd0a4f28419497f9722a3daafe3b4186f6b6457e0908290a3506100ad565b60006020828403121561008f57600080fd5b81516001600160a01b03811681146100a657600080fd5b9392505050565b6107e6806100bc6000396000f3fe6080604052600436106100695760003560e01c80639ebd9115116100435780639ebd91151461012e578063f2fde38b1461014e578063f3fef3a31461016e57600080fd5b80630e8cc705146100b05780631b553d68146100d25780638da5cb5b146100f257600080fd5b366100ab57604080513481526000602082015233917ff62eb0089c279dea4693baf6185affe0fe98a35d3c5ddbf4a6a0a557636533bd910160405180910390a2005b600080fd5b3480156100bc57600080fd5b506100d06100cb366004610610565b61018e565b005b3480156100de57600080fd5b506100d06100ed366004610696565b610382565b3480156100fe57600080fd5b50600054610112906001600160a01b031681565b6040516001600160a01b03909116815260200160405180910390f35b34801561013a57600080fd5b506100d06101493660046106c2565b610449565b34801561015a57600080fd5b506100d06101693660046106c2565b6104ca565b34801561017a57600080fd5b506100d0610189366004610696565b610575565b6000546001600160a01b031633146101db5760405162461bcd60e51b815260206004820152600b60248201526a1393d517d0531313d5d15160aa1b60448201526064015b60405180910390fd5b60005b8281101561037c5760008484838181106101fa576101fa6106e6565b905060200201602081019061020f91906106c2565b6040517f70a082310000000000000000000000000000000000000000000000000000000081523060048201526001600160a01b0391909116906370a082319060240160206040518083038186803b15801561026957600080fd5b505afa15801561027d573d6000803e3d6000fd5b505050506040513d601f19601f820116820180604052508101906102a19190610715565b90508484838181106102b5576102b56106e6565b90506020020160208101906102ca91906106c2565b6040517fa9059cbb0000000000000000000000000000000000000000000000000000000081526001600160a01b03858116600483015260248201849052919091169063a9059cbb90604401602060405180830381600087803b15801561032f57600080fd5b505af1158015610343573d6000803e3d6000fd5b505050506040513d601f19601f82011682018060405250810190610367919061072e565b5050808061037490610750565b9150506101de565b50505050565b6000546001600160a01b031633146103ca5760405162461bcd60e51b815260206004820152600b60248201526a1393d517d0531313d5d15160aa1b60448201526064016101d2565b6040516001600160a01b0383169082156108fc029083906000818181858888f19350505050158015610400573d6000803e3d6000fd5b5060408051828152600160208201526001600160a01b038416917ff62eb0089c279dea4693baf6185affe0fe98a35d3c5ddbf4a6a0a557636533bd910160405180910390a25050565b6000546001600160a01b031633146104915760405162461bcd60e51b815260206004820152600b60248201526a1393d517d0531313d5d15160aa1b60448201526064016101d2565b6040516001600160a01b038216904780156108fc02916000818181858888f193505050501580156104c6573d6000803e3d6000fd5b5050565b6000546001600160a01b031633146105125760405162461bcd60e51b815260206004820152600b60248201526a1393d517d0531313d5d15160aa1b60448201526064016101d2565b600080547fffffffffffffffffffffffff0000000000000000000000000000000000000000166001600160a01b0383169081178255604051909133917f8be0079c531659141344cd1fd0a4f28419497f9722a3daafe3b4186f6b6457e09190a350565b6000546001600160a01b031633146105bd5760405162461bcd60e51b815260206004820152600b60248201526a1393d517d0531313d5d15160aa1b60448201526064016101d2565b6040516001600160a01b0383169082156108fc029083906000818181858888f193505050501580156105f3573d6000803e3d6000fd5b505050565b6001600160a01b038116811461060d57600080fd5b50565b60008060006040848603121561062557600080fd5b833567ffffffffffffffff8082111561063d57600080fd5b818601915086601f83011261065157600080fd5b81358181111561066057600080fd5b8760208260051b850101111561067557600080fd5b6020928301955093505084013561068b816105f8565b809150509250925092565b600080604083850312156106a957600080fd5b82356106b4816105f8565b946020939093013593505050565b6000602082840312156106d457600080fd5b81356106df816105f8565b9392505050565b7f4e487b7100000000000000000000000000000000000000000000000000000000600052603260045260246000fd5b60006020828403121561072757600080fd5b5051919050565b60006020828403121561074057600080fd5b815180151581146106df57600080fd5b60007fffffffffffffffffffffffffffffffffffffffffffffffffffffffffffffffff8214156107a9577f4e487b7100000000000000000000000000000000000000000000000000000000600052601160045260246000fd5b506001019056fea2646970667358221220cb157a37036ce44a0affd305cb7780d38c5a7a334ec59ffbfd5dbb51b813ba6664736f6c63430008090033",
  "devdoc": {
    "kind": "dev",
    "methods": {},
    "version": 1
  },
  "userdoc": {
    "kind": "user",
    "methods": {},
    "version": 1
  },
  "storageLayout": {
    "storage": [
      {
        "astId": 25353,
        "contract": "src/agent/PaymentGateway.sol:PaymentGateway",
        "label": "owner",
        "offset": 0,
        "slot": "0",
        "type": "t_address"
      }
    ],
    "types": {
      "t_address": {
        "encoding": "inplace",
        "label": "address",
        "numberOfBytes": "20"
      }
    }
  }
}