{
  "address": "0x622A0B721CD1eA9A5AA191fb61d5210090F913E0",
  "abi": [
    {
      "inputs": [
        {
          "internalType": "contract IERC20",
          "name": "underlyingToken",
          "type": "address"
        },
        {
          "internalType": "contract ICompoundERC20",
          "name": "cToken",
          "type": "address"
        },
        {
          "internalType": "address",
          "name": "owner",
          "type": "address"
        }
      ],
      "stateMutability": "nonpayable",
      "type": "constructor"
    },
    {
      "anonymous": false,
      "inputs": [
        {
          "indexed": true,
          "internalType": "address",
          "name": "owner",
          "type": "address"
        },
        {
          "indexed": true,
          "internalType": "address",
          "name": "spender",
          "type": "address"
        },
        {
          "indexed": false,
          "internalType": "uint256",
          "name": "value",
          "type": "uint256"
        }
      ],
      "name": "Approval",
      "type": "event"
    },
    {
      "anonymous": false,
      "inputs": [
        {
          "indexed": true,
          "internalType": "address",
          "name": "from",
          "type": "address"
        },
        {
          "indexed": true,
          "internalType": "address",
          "name": "to",
          "type": "address"
        },
        {
          "indexed": false,
          "internalType": "uint256",
          "name": "value",
          "type": "uint256"
        }
      ],
      "name": "Transfer",
      "type": "event"
    },
    {
      "inputs": [],
      "name": "DOMAIN_SEPARATOR",
      "outputs": [
        {
          "internalType": "bytes32",
          "name": "",
          "type": "bytes32"
        }
      ],
      "stateMutability": "view",
      "type": "function"
    },
    {
      "inputs": [
        {
          "internalType": "address",
          "name": "owner",
          "type": "address"
        },
        {
          "internalType": "address",
          "name": "spender",
          "type": "address"
        }
      ],
      "name": "allowance",
      "outputs": [
        {
          "internalType": "uint256",
          "name": "",
          "type": "uint256"
        }
      ],
      "stateMutability": "view",
      "type": "function"
    },
    {
      "inputs": [
        {
          "internalType": "address",
          "name": "spender",
          "type": "address"
        },
        {
          "internalType": "uint256",
          "name": "amount",
          "type": "uint256"
        }
      ],
      "name": "approve",
      "outputs": [
        {
          "internalType": "bool",
          "name": "",
          "type": "bool"
        }
      ],
      "stateMutability": "nonpayable",
      "type": "function"
    },
    {
      "inputs": [
        {
          "internalType": "address",
          "name": "spender",
          "type": "address"
        },
        {
          "internalType": "uint256",
          "name": "amount",
          "type": "uint256"
        },
        {
          "internalType": "bytes",
          "name": "data",
          "type": "bytes"
        }
      ],
      "name": "approveAndCall",
      "outputs": [
        {
          "internalType": "bool",
          "name": "",
          "type": "bool"
        }
      ],
      "stateMutability": "nonpayable",
      "type": "function"
    },
    {
      "inputs": [
        {
          "internalType": "address",
          "name": "owner",
          "type": "address"
        }
      ],
      "name": "balanceOf",
      "outputs": [
        {
          "internalType": "uint256",
          "name": "",
          "type": "uint256"
        }
      ],
      "stateMutability": "view",
      "type": "function"
    },
    {
      "inputs": [
        {
          "internalType": "uint256",
          "name": "maxAmount",
          "type": "uint256"
        }
      ],
      "name": "burn",
      "outputs": [
        {
          "internalType": "uint256",
          "name": "",
          "type": "uint256"
        }
      ],
      "stateMutability": "nonpayable",
      "type": "function"
    },
    {
      "inputs": [
        {
          "internalType": "uint256",
          "name": "maxAmount",
          "type": "uint256"
        },
        {
          "internalType": "address",
          "name": "to",
          "type": "address"
        }
      ],
      "name": "burnTo",
      "outputs": [
        {
          "internalType": "uint256",
          "name": "",
          "type": "uint256"
        }
      ],
      "stateMutability": "nonpayable",
      "type": "function"
    },
    {
      "inputs": [
        {
          "internalType": "uint256",
          "name": "maxAmount",
          "type": "uint256"
        },
        {
          "internalType": "address",
          "name": "target",
          "type": "address"
        },
        {
          "internalType": "bool",
          "name": "requireFullAmount",
          "type": "bool"
        },
        {
          "internalType": "bytes",
          "name": "data",
          "type": "bytes"
        }
      ],
      "name": "burnToAndCall",
      "outputs": [
        {
          "internalType": "uint256",
          "name": "",
          "type": "uint256"
        }
      ],
      "stateMutability": "nonpayable",
      "type": "function"
    },
    {
      "inputs": [],
      "name": "decimals",
      "outputs": [
        {
          "internalType": "uint8",
          "name": "",
          "type": "uint8"
        }
      ],
      "stateMutability": "pure",
      "type": "function"
    },
    {
      "inputs": [
        {
          "internalType": "uint256",
          "name": "maxAmount",
          "type": "uint256"
        }
      ],
      "name": "depositWithoutReturn",
      "outputs": [
        {
          "internalType": "uint256",
          "name": "",
          "type": "uint256"
        }
      ],
      "stateMutability": "nonpayable",
      "type": "function"
    },
    {
      "inputs": [
        {
          "internalType": "address payable[]",
          "name": "tos",
          "type": "address[]"
        },
        {
          "internalType": "uint256",
          "name": "totalAmount",
          "type": "uint256"
        }
      ],
      "name": "distributeAlongWithETH",
      "outputs": [
        {
          "internalType": "bool",
          "name": "",
          "type": "bool"
        }
      ],
      "stateMutability": "payable",
      "type": "function"
    },
    {
      "inputs": [
        {
          "internalType": "address payable[]",
          "name": "tos",
          "type": "address[]"
        },
        {
          "internalType": "uint256[]",
          "name": "amounts",
          "type": "uint256[]"
        }
      ],
      "name": "distributeVariousAmountsAlongWithETH",
      "outputs": [
        {
          "internalType": "bool",
          "name": "",
          "type": "bool"
        }
      ],
      "stateMutability": "payable",
      "type": "function"
    },
    {
      "inputs": [
        {
          "internalType": "uint256",
          "name": "maxAmount",
          "type": "uint256"
        }
      ],
      "name": "mint",
      "outputs": [
        {
          "internalType": "uint256",
          "name": "",
          "type": "uint256"
        }
      ],
      "stateMutability": "nonpayable",
      "type": "function"
    },
    {
      "inputs": [
        {
          "internalType": "uint256",
          "name": "maxAmount",
          "type": "uint256"
        },
        {
          "internalType": "address",
          "name": "target",
          "type": "address"
        },
        {
          "internalType": "bytes",
          "name": "data",
          "type": "bytes"
        }
      ],
      "name": "mintAndApprovedCall",
      "outputs": [],
      "stateMutability": "nonpayable",
      "type": "function"
    },
    {
      "inputs": [
        {
          "internalType": "uint256",
          "name": "maxAmount",
          "type": "uint256"
        },
        {
          "internalType": "address",
          "name": "target",
          "type": "address"
        },
        {
          "internalType": "bool",
          "name": "requireFullAmount",
          "type": "bool"
        },
        {
          "internalType": "bytes",
          "name": "data",
          "type": "bytes"
        }
      ],
      "name": "mintAndCall",
      "outputs": [
        {
          "internalType": "uint256",
          "name": "",
          "type": "uint256"
        }
      ],
      "stateMutability": "nonpayable",
      "type": "function"
    },
    {
      "inputs": [],
      "name": "name",
      "outputs": [
        {
          "internalType": "string",
          "name": "",
          "type": "string"
        }
      ],
      "stateMutability": "pure",
      "type": "function"
    },
    {
      "inputs": [
        {
          "internalType": "address",
          "name": "owner",
          "type": "address"
        }
      ],
      "name": "nonces",
      "outputs": [
        {
          "internalType": "uint256",
          "name": "",
          "type": "uint256"
        }
      ],
      "stateMutability": "view",
      "type": "function"
    },
    {
      "inputs": [
        {
          "internalType": "address",
          "name": "forAddress",
          "type": "address"
        },
        {
          "internalType": "address",
          "name": "to",
          "type": "address"
        },
        {
          "internalType": "uint256",
          "name": "amount",
          "type": "uint256"
        },
        {
          "internalType": "bytes",
          "name": "data",
          "type": "bytes"
        }
      ],
      "name": "payForAndCall",
      "outputs": [
        {
          "internalType": "bool",
          "name": "",
          "type": "bool"
        }
      ],
      "stateMutability": "nonpayable",
      "type": "function"
    },
    {
      "inputs": [
        {
          "internalType": "address",
          "name": "owner",
          "type": "address"
        },
        {
          "internalType": "address",
          "name": "spender",
          "type": "address"
        },
        {
          "internalType": "uint256",
          "name": "value",
          "type": "uint256"
        },
        {
          "internalType": "uint256",
          "name": "deadline",
          "type": "uint256"
        },
        {
          "internalType": "uint8",
          "name": "v",
          "type": "uint8"
        },
        {
          "internalType": "bytes32",
          "name": "r",
          "type": "bytes32"
        },
        {
          "internalType": "bytes32",
          "name": "s",
          "type": "bytes32"
        }
      ],
      "name": "permit",
      "outputs": [],
      "stateMutability": "nonpayable",
      "type": "function"
    },
    {
      "inputs": [
        {
          "internalType": "contract IERC20",
          "name": "",
          "type": "address"
        },
        {
          "internalType": "contract ICompoundERC20",
          "name": "",
          "type": "address"
        },
        {
          "internalType": "address",
          "name": "owner",
          "type": "address"
        }
      ],
      "name": "postUpgrade",
      "outputs": [],
      "stateMutability": "nonpayable",
      "type": "function"
    },
    {
      "inputs": [],
      "name": "symbol",
      "outputs": [
        {
          "internalType": "string",
          "name": "",
          "type": "string"
        }
      ],
      "stateMutability": "view",
      "type": "function"
    },
    {
      "inputs": [],
      "name": "totalSupply",
      "outputs": [
        {
          "internalType": "uint256",
          "name": "",
          "type": "uint256"
        }
      ],
      "stateMutability": "view",
      "type": "function"
    },
    {
      "inputs": [
        {
          "internalType": "address",
          "name": "to",
          "type": "address"
        },
        {
          "internalType": "uint256",
          "name": "amount",
          "type": "uint256"
        }
      ],
      "name": "transfer",
      "outputs": [
        {
          "internalType": "bool",
          "name": "",
          "type": "bool"
        }
      ],
      "stateMutability": "nonpayable",
      "type": "function"
    },
    {
      "inputs": [
        {
          "internalType": "address payable",
          "name": "to",
          "type": "address"
        },
        {
          "internalType": "uint256",
          "name": "amount",
          "type": "uint256"
        }
      ],
      "name": "transferAlongWithETH",
      "outputs": [
        {
          "internalType": "bool",
          "name": "",
          "type": "bool"
        }
      ],
      "stateMutability": "payable",
      "type": "function"
    },
    {
      "inputs": [
        {
          "internalType": "address",
          "name": "to",
          "type": "address"
        },
        {
          "internalType": "uint256",
          "name": "amount",
          "type": "uint256"
        },
        {
          "internalType": "bytes",
          "name": "data",
          "type": "bytes"
        }
      ],
      "name": "transferAndCall",
      "outputs": [
        {
          "internalType": "bool",
          "name": "",
          "type": "bool"
        }
      ],
      "stateMutability": "nonpayable",
      "type": "function"
    },
    {
      "inputs": [
        {
          "internalType": "address",
          "name": "from",
          "type": "address"
        },
        {
          "internalType": "address",
          "name": "to",
          "type": "address"
        },
        {
          "internalType": "uint256",
          "name": "amount",
          "type": "uint256"
        }
      ],
      "name": "transferFrom",
      "outputs": [
        {
          "internalType": "bool",
          "name": "",
          "type": "bool"
        }
      ],
      "stateMutability": "nonpayable",
      "type": "function"
    },
    {
      "inputs": [
        {
          "internalType": "address",
          "name": "from",
          "type": "address"
        },
        {
          "internalType": "address",
          "name": "to",
          "type": "address"
        },
        {
          "internalType": "uint256",
          "name": "amount",
          "type": "uint256"
        },
        {
          "internalType": "bytes",
          "name": "data",
          "type": "bytes"
        }
      ],
      "name": "transferFromAndCall",
      "outputs": [
        {
          "internalType": "bool",
          "name": "",
          "type": "bool"
        }
      ],
      "stateMutability": "nonpayable",
      "type": "function"
    },
    {
      "inputs": [
        {
          "internalType": "uint256",
          "name": "maxAmount",
          "type": "uint256"
        },
        {
          "internalType": "address",
          "name": "to",
          "type": "address"
        }
      ],
      "name": "withdraw",
      "outputs": [
        {
          "internalType": "uint256",
          "name": "",
          "type": "uint256"
        }
      ],
      "stateMutability": "nonpayable",
      "type": "function"
    }
  ],
  "transactionHash": "0x91955bb86f806832cb8c40ca56655b63598e2c58487284a3291184c5d2995230",
  "args": [
    "0x78Ae714DC2aC1d00b33DA9e392a9EE851ED48E5a",
    "0xEb0c4063a6A8D00971c18b6A258bAA8DC4152429",
    "0x61c461EcC993aaDEB7e4b47E96d1B8cC37314B20"
  ],
  "solcInputHash": "b6306f36ae27f67da6f89af7c66a0689",
  "bytecode": "0x60e06040523480156200001157600080fd5b5060405162002987380380620029878339810160408190526200003491620001ce565b6040805180820190915260018152603160f81b6020820152839083907f91ab3d17e3a50a9d89e63fd30b92be7f5336b03b287bb946787a83a9d62a2766620000986040805180820190915260098152684574686572706c617960b81b602082015290565b8051602091820120835184830120604080519384019490945292820152606081019190915230608082015260a00160408051808303601f190181529082905280516020909101206080526001600160a01b0384811660c081905290841660a081905263095ea7b360e01b835260048301526000196024830152915063095ea7b390604401602060405180830381600087803b1580156200013757600080fd5b505af11580156200014c573d6000803e3d6000fd5b505050506040513d601f19601f8201168201806040525081019062000172919062000222565b505050620001888383836200019160201b60201c565b5050506200024d565b600480546001600160a01b0319166001600160a01b03929092169190911790555050565b6001600160a01b0381168114620001cb57600080fd5b50565b600080600060608486031215620001e457600080fd5b8351620001f181620001b5565b60208501519093506200020481620001b5565b60408501519092506200021781620001b5565b809150509250925092565b6000602082840312156200023557600080fd5b815180151581146200024657600080fd5b9392505050565b60805160a05160c0516126d9620002ae600039600081816112f40152818161179901526118ca015260008181611216015281816116bb0152818161192101528181611b970152611c170152600081816102e30152610d0601526126d96000f3fe6080604052600436106101b65760003560e01c806382009231116100ec578063c1d34b891161008a578063d906d41911610064578063d906d41914610593578063dd62ed3e146105b3578063df752eed146105d3578063e7fcb065146105e657600080fd5b8063c1d34b8914610533578063cae9ca5114610553578063d505accf1461057357600080fd5b8063a30a5b39116100c6578063a30a5b391461047a578063a9059cbb1461049c578063af3bf669146104bc578063b02ce05f146104dc57600080fd5b806382009231146103f157806395d89b4114610411578063a0712d681461045a57600080fd5b80633644e51511610159578063571ff20d11610133578063571ff20d1461034557806363d994c71461036557806370a08231146103855780637ecebe00146103bb57600080fd5b80633644e515146102d15780634000aea01461030557806342966c681461032557600080fd5b80630e02df54116101955780630e02df541461026d57806318160ddd1461028057806323b872dd14610295578063313ce567146102b557600080fd5b8062f714ce146101bb57806306fdde03146101ee578063095ea7b31461023d575b600080fd5b3480156101c757600080fd5b506101db6101d6366004612040565b6105f9565b6040519081526020015b60405180910390f35b3480156101fa57600080fd5b5060408051808201909152600981527f4574686572706c6179000000000000000000000000000000000000000000000060208201525b6040516101e5919061209c565b34801561024957600080fd5b5061025d6102583660046120cf565b61066e565b60405190151581526020016101e5565b61025d61027b366004612147565b610684565b34801561028c57600080fd5b506000546101db565b3480156102a157600080fd5b5061025d6102b0366004612193565b61080e565b3480156102c157600080fd5b50604051601281526020016101e5565b3480156102dd57600080fd5b506101db7f000000000000000000000000000000000000000000000000000000000000000081565b34801561031157600080fd5b5061025d610320366004612216565b610825565b34801561033157600080fd5b506101db610340366004612272565b6108bf565b34801561035157600080fd5b506101db610360366004612040565b6108d9565b34801561037157600080fd5b5061025d61038036600461228b565b6108fb565b34801561039157600080fd5b506101db6103a03660046122fe565b6001600160a01b031660009081526001602052604090205490565b3480156103c757600080fd5b506101db6103d63660046122fe565b6001600160a01b031660009081526003602052604090205490565b3480156103fd57600080fd5b506101db61040c366004612329565b6109b1565b34801561041d57600080fd5b506102306040518060400160405280600981526020017f4554484552504c4159000000000000000000000000000000000000000000000081525081565b34801561046657600080fd5b506101db610475366004612272565b610ac9565b34801561048657600080fd5b5061049a61049536600461237f565b610ae3565b005b3480156104a857600080fd5b5061025d6104b73660046120cf565b610b59565b3480156104c857600080fd5b506101db6104d7366004612272565b610b66565b3480156104e857600080fd5b5061049a6104f73660046123c3565b600480547fffffffffffffffffffffffff0000000000000000000000000000000000000000166001600160a01b03929092169190911790555050565b34801561053f57600080fd5b5061025d61054e36600461228b565b610b73565b34801561055f57600080fd5b5061025d61056e366004612216565b610bb2565b34801561057f57600080fd5b5061049a61058e36600461240e565b610c08565b34801561059f57600080fd5b506101db6105ae366004612329565b610e9b565b3480156105bf57600080fd5b506101db6105ce366004612485565b610fa4565b61025d6105e13660046124b3565b610fec565b61025d6105f43660046120cf565b611175565b6004546000906001600160a01b0316331461065b5760405162461bcd60e51b815260206004820152600e60248201527f4e4f545f415554484f52495a454400000000000000000000000000000000000060448201526064015b60405180910390fd5b61066583836111b7565b90505b92915050565b600061067b338484611324565b50600192915050565b6000806106918434612529565b905061069d848261254b565b34146106eb5760405162461bcd60e51b815260206004820152601160248201527f494e56414c49445f4d53475f56414c55450000000000000000000000000000006044820152606401610652565b60006106f78585612529565b9050610703858261254b565b84146107515760405162461bcd60e51b815260206004820152601460248201527f494e56414c49445f544f54414c5f414d4f554e540000000000000000000000006044820152606401610652565b60005b858110156107ff5761078d338888848181106107725761077261256a565b905060200201602081019061078791906122fe565b846113f2565b86868281811061079f5761079f61256a565b90506020020160208101906107b491906122fe565b6001600160a01b03166108fc849081150290604051600060405180830381858888f193505050501580156107ec573d6000803e3d6000fd5b50806107f781612580565b915050610754565b506001925050505b9392505050565b600061081b8484846115a4565b5060019392505050565b60006108323386866113f2565b604051635260769b60e11b81526001600160a01b0386169063a4c0ed36906108649033908890889088906004016125c6565b602060405180830381600087803b15801561087e57600080fd5b505af1158015610892573d6000803e3d6000fd5b505050506040513d601f19601f820116820180604052508101906108b691906125ef565b95945050505050565b600033816108cd8483611689565b905061080782826117c7565b600033816108e78585611689565b90506108f382826117c7565b949350505050565b60006109083386866113f2565b6040517f9b6be0650000000000000000000000000000000000000000000000000000000081526001600160a01b03861690639b6be065906109559033908a9089908990899060040161260c565b602060405180830381600087803b15801561096f57600080fd5b505af1158015610983573d6000803e3d6000fd5b505050506040513d601f19601f820116820180604052508101906109a791906125ef565b9695505050505050565b600033816109bf8888611689565b90508515610a1657878114610a165760405162461bcd60e51b815260206004820152601f60248201527f434f554c445f4e4f545f4255524e5f5245515545535445445f414d4f554e54006044820152606401610652565b610a2082826117c7565b6040517f10ce6faa0000000000000000000000000000000000000000000000000000000081526001600160a01b038816906310ce6faa90610a6b90859085908a908a906004016125c6565b602060405180830381600087803b158015610a8557600080fd5b505af1158015610a99573d6000803e3d6000fd5b505050506040513d601f19601f82011682018060405250810190610abd91906125ef565b50979650505050505050565b60003381610ad784836118ab565b905061080782826119f2565b336000610af086836118ab565b9050610afc82826119f2565b610b4684848080601f016020809104026020016040519081016040528093929190818152602001838380828437600092019190915250506001600160a01b03891692915050611a7a565b50610b513083611abc565b505050505050565b600061067b3384846113f2565b60003361080783826118ab565b6000610b808686866115a4565b604051635260769b60e11b81526001600160a01b0386169063a4c0ed36906109559089908890889088906004016125c6565b6000610bbf338686611324565b6040517eba451f0000000000000000000000000000000000000000000000000000000081526001600160a01b0386169062ba451f906108649033908890889088906004016125c6565b6001600160a01b038716610c5e5760405162461bcd60e51b815260206004820152601460248201527f494e56414c49445f5a45524f5f414444524553530000000000000000000000006044820152606401610652565b6001600160a01b0387811660008181526003602090815260408083205481517f6e71edae12b1b97f4d1f60370fef10105fa2faae0126114a169c64845d6126c98185015280830195909552948b166060850152608084018a905260a0840185905260c08085018a90528151808603909101815260e0850190915280519101207f19010000000000000000000000000000000000000000000000000000000000006101008401527f0000000000000000000000000000000000000000000000000000000000000000610102840152610122830152906101420160408051601f1981840301815282825280516020918201206000845290830180835281905260ff8816918301919091526060820186905260808201859052915060019060a0016020604051602081039080840390855afa158015610d9e573d6000803e3d6000fd5b505050602060405103516001600160a01b0316896001600160a01b031614610e085760405162461bcd60e51b815260206004820152601160248201527f494e56414c49445f5349474e41545552450000000000000000000000000000006044820152606401610652565b851580610e155750854211155b610e615760405162461bcd60e51b815260206004820152600860248201527f544f4f5f4c4154450000000000000000000000000000000000000000000000006044820152606401610652565b610e6c82600161263f565b6001600160a01b038a16600090815260036020526040902055610e90898989611324565b505050505050505050565b60003381610ea988836118ab565b90508515610f0057878114610f005760405162461bcd60e51b815260206004820152601f60248201527f434f554c445f4e4f545f4d494e545f5245515545535445445f414d4f554e54006044820152606401610652565b610f0a82826119f2565b604051635260769b60e11b81526001600160a01b0388169063a4c0ed3690610f3c90859085908a908a906004016125c6565b602060405180830381600087803b158015610f5657600080fd5b505af1158015610f6a573d6000803e3d6000fd5b505050506040513d601f19601f82011682018060405250810190610f8e91906125ef565b50610f993083611abc565b979650505050505050565b60006001600160a01b038316301415610fc05750600019610668565b506001600160a01b03918216600090815260026020908152604080832093909416825291909152205490565b600080610ff98534612529565b9050611005858261254b565b34146110535760405162461bcd60e51b815260206004820152601160248201527f494e56414c49445f4d53475f56414c55450000000000000000000000000000006044820152606401610652565b8483146110a25760405162461bcd60e51b815260206004820152600f60248201527f4e4f545f53414d455f4c454e47544800000000000000000000000000000000006044820152606401610652565b60005b85811015611168576110f6338888848181106110c3576110c361256a565b90506020020160208101906110d891906122fe565b8787858181106110ea576110ea61256a565b905060200201356113f2565b8686828181106111085761110861256a565b905060200201602081019061111d91906122fe565b6001600160a01b03166108fc839081150290604051600060405180830381858888f19350505050158015611155573d6000803e3d6000fd5b508061116081612580565b9150506110a5565b5060019695505050505050565b60006111823384846113f2565b6040516001600160a01b038416903480156108fc02916000818181858888f1935050505015801561081b573d6000803e3d6000fd5b6000806111c2611b5c565b905060006111cf60005490565b6111d99083612657565b9050808511156111e7578094505b6040517f852a12e3000000000000000000000000000000000000000000000000000000008152600481018690527f00000000000000000000000000000000000000000000000000000000000000006001600160a01b03169063852a12e390602401602060405180830381600087803b15801561126257600080fd5b505af1158015611276573d6000803e3d6000fd5b505050506040513d601f19601f8201168201806040525081019061129a919061266e565b156112e75760405162461bcd60e51b815260206004820152601760248201527f4552524f525f52454445454d5f554e4445524c59494e470000000000000000006044820152606401610652565b61131b6001600160a01b037f0000000000000000000000000000000000000000000000000000000000000000168587611ccc565b50929392505050565b6001600160a01b0383161580159061134457506001600160a01b03821615155b6113905760405162461bcd60e51b815260206004820152601460248201527f494e56414c49445f5a45524f5f414444524553530000000000000000000000006044820152606401610652565b6001600160a01b0383811660008181526002602090815260408083209487168084529482529182902085905590518481527f8c5be1e5ebec7d5bd14f71427d1e84f3dd0314c0f7b2291e5b200ac8c7c3b92591015b60405180910390a3505050565b6001600160a01b0382166114485760405162461bcd60e51b815260206004820152601460248201527f494e56414c49445f5a45524f5f414444524553530000000000000000000000006044820152606401610652565b6001600160a01b0382163014156114a15760405162461bcd60e51b815260206004820152601460248201527f494e56414c49445f544849535f414444524553530000000000000000000000006044820152606401610652565b6001600160a01b0383166000908152600160205260409020548181101561150a5760405162461bcd60e51b815260206004820152601160248201527f4e4f545f454e4f5547485f544f4b454e530000000000000000000000000000006044820152606401610652565b6115148282612657565b6001600160a01b03808616600090815260016020526040808220939093559085168152908120805484929061154a90849061263f565b92505081905550826001600160a01b0316846001600160a01b03167fddf252ad1be2c89b69c2b068fc378daa952ba7f163c4a11628f55a4df523b3ef8460405161159691815260200190565b60405180910390a350505050565b336001600160a01b038416148015906115c657506001600160a01b0383163014155b15611679576001600160a01b0383166000908152600260209081526040808320338452909152902054600019811461167757818110156116485760405162461bcd60e51b815260206004820152601760248201527f4e4f545f415554484f495a45445f414c4c4f57414e43450000000000000000006044820152606401610652565b6116528282612657565b6001600160a01b03851660009081526002602090815260408083203384529091529020555b505b6116848383836113f2565b505050565b6040517f852a12e3000000000000000000000000000000000000000000000000000000008152600481018390526000907f00000000000000000000000000000000000000000000000000000000000000006001600160a01b03169063852a12e390602401602060405180830381600087803b15801561170757600080fd5b505af115801561171b573d6000803e3d6000fd5b505050506040513d601f19601f8201168201806040525081019061173f919061266e565b1561178c5760405162461bcd60e51b815260206004820152601760248201527f4552524f525f52454445454d5f554e4445524c59494e470000000000000000006044820152606401610652565b6117c06001600160a01b037f0000000000000000000000000000000000000000000000000000000000000000168385611ccc565b5090919050565b6001600160a01b038216600090815260016020526040902054818110156118305760405162461bcd60e51b815260206004820152601160248201527f4e4f545f454e4f5547485f544f4b454e530000000000000000000000000000006044820152606401610652565b61183a8282612657565b6001600160a01b03841660009081526001602052604081209190915580548391908190611868908490612657565b90915550506040518281526000906001600160a01b038516907fddf252ad1be2c89b69c2b068fc378daa952ba7f163c4a11628f55a4df523b3ef906020016113e5565b60006001600160a01b03821630146118f2576118f26001600160a01b037f000000000000000000000000000000000000000000000000000000000000000016833086611d75565b6040517fa0712d68000000000000000000000000000000000000000000000000000000008152600481018490527f00000000000000000000000000000000000000000000000000000000000000006001600160a01b03169063a0712d6890602401602060405180830381600087803b15801561196d57600080fd5b505af1158015611981573d6000803e3d6000fd5b505050506040513d601f19601f820116820180604052508101906119a5919061266e565b156117c05760405162461bcd60e51b815260206004820152600a60248201527f4552524f525f4d494e54000000000000000000000000000000000000000000006044820152606401610652565b80600080828254611a03919061263f565b90915550506001600160a01b03821660009081526001602052604081208054839290611a3090849061263f565b90915550506040518181526001600160a01b038316906000907fddf252ad1be2c89b69c2b068fc378daa952ba7f163c4a11628f55a4df523b3ef9060200160405180910390a35050565b606061066583836040518060400160405280601e81526020017f416464726573733a206c6f772d6c6576656c2063616c6c206661696c65640000815250611dcc565b6001600160a01b0382166000908152600160205260409020548015611684576001600160a01b0380841660009081526001602052604080822082905591841681529081208054839290611b1090849061263f565b92505081905550816001600160a01b0316836001600160a01b03167fddf252ad1be2c89b69c2b068fc378daa952ba7f163c4a11628f55a4df523b3ef836040516113e591815260200190565b6040517f70a0823100000000000000000000000000000000000000000000000000000000815230600482015260009081906001600160a01b037f000000000000000000000000000000000000000000000000000000000000000016906370a082319060240160206040518083038186803b158015611bd957600080fd5b505afa158015611bed573d6000803e3d6000fd5b505050506040513d601f19601f82011682018060405250810190611c11919061266e565b905060007f00000000000000000000000000000000000000000000000000000000000000006001600160a01b031663bd6d894d6040518163ffffffff1660e01b815260040160206040518083038186803b158015611c6e57600080fd5b505afa158015611c82573d6000803e3d6000fd5b505050506040513d601f19601f82011682018060405250810190611ca6919061266e565b9050670de0b6b3a7640000611cbb828461254b565b611cc59190612529565b9250505090565b6040516001600160a01b0383166024820152604481018290526116849084907fa9059cbb00000000000000000000000000000000000000000000000000000000906064015b60408051601f198184030181529190526020810180517bffffffffffffffffffffffffffffffffffffffffffffffffffffffff167fffffffff0000000000000000000000000000000000000000000000000000000090931692909217909152611ddb565b6040516001600160a01b0380851660248301528316604482015260648101829052611dc69085907f23b872dd0000000000000000000000000000000000000000000000000000000090608401611d11565b50505050565b60606108f38484600085611ec0565b6000611e30826040518060400160405280602081526020017f5361666545524332303a206c6f772d6c6576656c2063616c6c206661696c6564815250856001600160a01b0316611dcc9092919063ffffffff16565b8051909150156116845780806020019051810190611e4e91906125ef565b6116845760405162461bcd60e51b815260206004820152602a60248201527f5361666545524332303a204552433230206f7065726174696f6e20646964206e60448201527f6f742073756363656564000000000000000000000000000000000000000000006064820152608401610652565b606082471015611f385760405162461bcd60e51b815260206004820152602660248201527f416464726573733a20696e73756666696369656e742062616c616e636520666f60448201527f722063616c6c00000000000000000000000000000000000000000000000000006064820152608401610652565b843b611f865760405162461bcd60e51b815260206004820152601d60248201527f416464726573733a2063616c6c20746f206e6f6e2d636f6e74726163740000006044820152606401610652565b600080866001600160a01b03168587604051611fa29190612687565b60006040518083038185875af1925050503d8060008114611fdf576040519150601f19603f3d011682016040523d82523d6000602084013e611fe4565b606091505b5091509150610f9982828660608315611ffe575081610807565b82511561200e5782518084602001fd5b8160405162461bcd60e51b8152600401610652919061209c565b6001600160a01b038116811461203d57600080fd5b50565b6000806040838503121561205357600080fd5b82359150602083013561206581612028565b809150509250929050565b60005b8381101561208b578181015183820152602001612073565b83811115611dc65750506000910152565b60208152600082518060208401526120bb816040850160208701612070565b601f01601f19169190910160400192915050565b600080604083850312156120e257600080fd5b82356120ed81612028565b946020939093013593505050565b60008083601f84011261210d57600080fd5b50813567ffffffffffffffff81111561212557600080fd5b6020830191508360208260051b850101111561214057600080fd5b9250929050565b60008060006040848603121561215c57600080fd5b833567ffffffffffffffff81111561217357600080fd5b61217f868287016120fb565b909790965060209590950135949350505050565b6000806000606084860312156121a857600080fd5b83356121b381612028565b925060208401356121c381612028565b929592945050506040919091013590565b60008083601f8401126121e657600080fd5b50813567ffffffffffffffff8111156121fe57600080fd5b60208301915083602082850101111561214057600080fd5b6000806000806060858703121561222c57600080fd5b843561223781612028565b935060208501359250604085013567ffffffffffffffff81111561225a57600080fd5b612266878288016121d4565b95989497509550505050565b60006020828403121561228457600080fd5b5035919050565b6000806000806000608086880312156122a357600080fd5b85356122ae81612028565b945060208601356122be81612028565b935060408601359250606086013567ffffffffffffffff8111156122e157600080fd5b6122ed888289016121d4565b969995985093965092949392505050565b60006020828403121561231057600080fd5b813561080781612028565b801515811461203d57600080fd5b60008060008060006080868803121561234157600080fd5b85359450602086013561235381612028565b935060408601356123638161231b565b9250606086013567ffffffffffffffff8111156122e157600080fd5b6000806000806060858703121561239557600080fd5b8435935060208501356123a781612028565b9250604085013567ffffffffffffffff81111561225a57600080fd5b6000806000606084860312156123d857600080fd5b83356123e381612028565b925060208401356123f381612028565b9150604084013561240381612028565b809150509250925092565b600080600080600080600060e0888a03121561242957600080fd5b873561243481612028565b9650602088013561244481612028565b95506040880135945060608801359350608088013560ff8116811461246857600080fd5b9699959850939692959460a0840135945060c09093013592915050565b6000806040838503121561249857600080fd5b82356124a381612028565b9150602083013561206581612028565b600080600080604085870312156124c957600080fd5b843567ffffffffffffffff808211156124e157600080fd5b6124ed888389016120fb565b9096509450602087013591508082111561250657600080fd5b50612266878288016120fb565b634e487b7160e01b600052601160045260246000fd5b60008261254657634e487b7160e01b600052601260045260246000fd5b500490565b600081600019048311821515161561256557612565612513565b500290565b634e487b7160e01b600052603260045260246000fd5b600060001982141561259457612594612513565b5060010190565b818352818160208501375060006020828401015260006020601f19601f840116840101905092915050565b6001600160a01b03851681528360208201526060604082015260006109a760608301848661259b565b60006020828403121561260157600080fd5b81516108078161231b565b60006001600160a01b03808816835280871660208401525084604083015260806060830152610f9960808301848661259b565b6000821982111561265257612652612513565b500190565b60008282101561266957612669612513565b500390565b60006020828403121561268057600080fd5b5051919050565b60008251612699818460208701612070565b919091019291505056fea2646970667358221220e150dc32d3a1b2b0ef71ee866beff5f25d0a564e02499240145db49f472df1f064736f6c63430008090033",
  "devdoc": {
    "kind": "dev",
    "methods": {
      "allowance(address,address)": {
        "details": "Returns the remaining number of tokens that `spender` will be allowed to spend on behalf of `owner` through {transferFrom}. This is zero by default. This value changes when {approve} or {transferFrom} are called."
      },
      "approve(address,uint256)": {
        "details": "Sets `amount` as the allowance of `spender` over the caller's tokens. Returns a boolean value indicating whether the operation succeeded. IMPORTANT: Beware that changing an allowance with this method brings the risk that someone may use both the old and the new allowance by unfortunate transaction ordering. One possible solution to mitigate this race condition is to first reduce the spender's allowance to 0 and set the desired value afterwards: https://github.com/ethereum/EIPs/issues/20#issuecomment-263524729 Emits an {Approval} event."
      },
      "totalSupply()": {
        "details": "Returns the amount of tokens in existence."
      }
    },
    "version": 1
  },
  "userdoc": {
    "kind": "user",
    "methods": {},
    "version": 1
  },
  "storageLayout": {
    "storage": [
      {
        "astId": 20779,
        "contract": "src/PlayToken/Play.sol:Play",
        "label": "_totalSupply",
        "offset": 0,
        "slot": "0",
        "type": "t_uint256"
      },
      {
        "astId": 20783,
        "contract": "src/PlayToken/Play.sol:Play",
        "label": "_balances",
        "offset": 0,
        "slot": "1",
        "type": "t_mapping(t_address,t_uint256)"
      },
      {
        "astId": 20789,
        "contract": "src/PlayToken/Play.sol:Play",
        "label": "_allowances",
        "offset": 0,
        "slot": "2",
        "type": "t_mapping(t_address,t_mapping(t_address,t_uint256))"
      },
      {
        "astId": 22899,
        "contract": "src/PlayToken/Play.sol:Play",
        "label": "_nonces",
        "offset": 0,
        "slot": "3",
        "type": "t_mapping(t_address,t_uint256)"
      },
      {
        "astId": 22254,
        "contract": "src/PlayToken/Play.sol:Play",
        "label": "_owner",
        "offset": 0,
        "slot": "4",
        "type": "t_address"
      }
    ],
    "types": {
      "t_address": {
        "encoding": "inplace",
        "label": "address",
        "numberOfBytes": "20"
      },
      "t_mapping(t_address,t_mapping(t_address,t_uint256))": {
        "encoding": "mapping",
        "key": "t_address",
        "label": "mapping(address => mapping(address => uint256))",
        "numberOfBytes": "32",
        "value": "t_mapping(t_address,t_uint256)"
      },
      "t_mapping(t_address,t_uint256)": {
        "encoding": "mapping",
        "key": "t_address",
        "label": "mapping(address => uint256)",
        "numberOfBytes": "32",
        "value": "t_uint256"
      },
      "t_uint256": {
        "encoding": "inplace",
        "label": "uint256",
        "numberOfBytes": "32"
      }
    }
  }
}