{
  "address": "0x0621cc156710285f9C17cdD91e8fC5F92BBED851",
  "abi": [
    {
      "inputs": [
        {
          "internalType": "address",
          "name": "l2Messenger",
          "type": "address"
        }
      ],
      "stateMutability": "nonpayable",
      "type": "constructor"
    },
    {
      "anonymous": false,
      "inputs": [
        {
          "indexed": true,
          "internalType": "address",
          "name": "owner",
          "type": "address"
        },
        {
          "indexed": true,
          "internalType": "address",
          "name": "spender",
          "type": "address"
        },
        {
          "indexed": false,
          "internalType": "uint256",
          "name": "value",
          "type": "uint256"
        }
      ],
      "name": "Approval",
      "type": "event"
    },
    {
      "anonymous": false,
      "inputs": [
        {
          "indexed": true,
          "internalType": "address",
          "name": "from",
          "type": "address"
        },
        {
          "indexed": true,
          "internalType": "address",
          "name": "to",
          "type": "address"
        },
        {
          "indexed": false,
          "internalType": "uint256",
          "name": "value",
          "type": "uint256"
        }
      ],
      "name": "Transfer",
      "type": "event"
    },
    {
      "inputs": [],
      "name": "DOMAIN_SEPARATOR",
      "outputs": [
        {
          "internalType": "bytes32",
          "name": "",
          "type": "bytes32"
        }
      ],
      "stateMutability": "view",
      "type": "function"
    },
    {
      "inputs": [
        {
          "internalType": "address",
          "name": "owner",
          "type": "address"
        },
        {
          "internalType": "address",
          "name": "spender",
          "type": "address"
        }
      ],
      "name": "allowance",
      "outputs": [
        {
          "internalType": "uint256",
          "name": "",
          "type": "uint256"
        }
      ],
      "stateMutability": "view",
      "type": "function"
    },
    {
      "inputs": [
        {
          "internalType": "address[]",
          "name": "accounts",
          "type": "address[]"
        }
      ],
      "name": "anyNotAuthorized",
      "outputs": [
        {
          "internalType": "bool",
          "name": "",
          "type": "bool"
        }
      ],
      "stateMutability": "view",
      "type": "function"
    },
    {
      "inputs": [
        {
          "internalType": "address",
          "name": "spender",
          "type": "address"
        },
        {
          "internalType": "uint256",
          "name": "amount",
          "type": "uint256"
        }
      ],
      "name": "approve",
      "outputs": [
        {
          "internalType": "bool",
          "name": "",
          "type": "bool"
        }
      ],
      "stateMutability": "nonpayable",
      "type": "function"
    },
    {
      "inputs": [
        {
          "internalType": "address",
          "name": "spender",
          "type": "address"
        },
        {
          "internalType": "uint256",
          "name": "amount",
          "type": "uint256"
        },
        {
          "internalType": "bytes",
          "name": "data",
          "type": "bytes"
        }
      ],
      "name": "approveAndCall",
      "outputs": [
        {
          "internalType": "bool",
          "name": "",
          "type": "bool"
        }
      ],
      "stateMutability": "nonpayable",
      "type": "function"
    },
    {
      "inputs": [
        {
          "internalType": "address[]",
          "name": "accounts",
          "type": "address[]"
        },
        {
          "internalType": "bool",
          "name": "auth",
          "type": "bool"
        }
      ],
      "name": "authorize",
      "outputs": [],
      "stateMutability": "nonpayable",
      "type": "function"
    },
    {
      "inputs": [
        {
          "internalType": "address",
          "name": "",
          "type": "address"
        }
      ],
      "name": "authorized",
      "outputs": [
        {
          "internalType": "bool",
          "name": "",
          "type": "bool"
        }
      ],
      "stateMutability": "view",
      "type": "function"
    },
    {
      "inputs": [
        {
          "internalType": "address",
          "name": "owner",
          "type": "address"
        }
      ],
      "name": "balanceOf",
      "outputs": [
        {
          "internalType": "uint256",
          "name": "",
          "type": "uint256"
        }
      ],
      "stateMutability": "view",
      "type": "function"
    },
    {
      "inputs": [],
      "name": "decimals",
      "outputs": [
        {
          "internalType": "uint8",
          "name": "",
          "type": "uint8"
        }
      ],
      "stateMutability": "pure",
      "type": "function"
    },
    {
      "inputs": [
        {
          "internalType": "address payable[]",
          "name": "tos",
          "type": "address[]"
        },
        {
          "internalType": "uint256",
          "name": "totalAmount",
          "type": "uint256"
        }
      ],
      "name": "distributeAlongWithETH",
      "outputs": [
        {
          "internalType": "bool",
          "name": "",
          "type": "bool"
        }
      ],
      "stateMutability": "payable",
      "type": "function"
    },
    {
      "inputs": [
        {
          "internalType": "address payable[]",
          "name": "tos",
          "type": "address[]"
        },
        {
          "internalType": "uint256[]",
          "name": "amounts",
          "type": "uint256[]"
        }
      ],
      "name": "distributeVariousAmountsAlongWithETH",
      "outputs": [
        {
          "internalType": "bool",
          "name": "",
          "type": "bool"
        }
      ],
      "stateMutability": "payable",
      "type": "function"
    },
    {
      "inputs": [
        {
          "internalType": "address[]",
          "name": "accounts",
          "type": "address[]"
        }
      ],
      "name": "enableRequireAuthorization",
      "outputs": [],
      "stateMutability": "nonpayable",
      "type": "function"
    },
    {
      "inputs": [
        {
          "internalType": "address",
          "name": "to",
          "type": "address"
        },
        {
          "internalType": "uint256",
          "name": "amount",
          "type": "uint256"
        }
      ],
      "name": "fromL1",
      "outputs": [],
      "stateMutability": "nonpayable",
      "type": "function"
    },
    {
      "inputs": [],
      "name": "name",
      "outputs": [
        {
          "internalType": "string",
          "name": "",
          "type": "string"
        }
      ],
      "stateMutability": "pure",
      "type": "function"
    },
    {
      "inputs": [
        {
          "internalType": "address",
          "name": "owner",
          "type": "address"
        }
      ],
      "name": "nonces",
      "outputs": [
        {
          "internalType": "uint256",
          "name": "",
          "type": "uint256"
        }
      ],
      "stateMutability": "view",
      "type": "function"
    },
    {
      "inputs": [
        {
          "internalType": "address",
          "name": "forAddress",
          "type": "address"
        },
        {
          "internalType": "address",
          "name": "to",
          "type": "address"
        },
        {
          "internalType": "uint256",
          "name": "amount",
          "type": "uint256"
        },
        {
          "internalType": "bytes",
          "name": "data",
          "type": "bytes"
        }
      ],
      "name": "payForAndCall",
      "outputs": [
        {
          "internalType": "bool",
          "name": "",
          "type": "bool"
        }
      ],
      "stateMutability": "nonpayable",
      "type": "function"
    },
    {
      "inputs": [
        {
          "internalType": "address",
          "name": "owner",
          "type": "address"
        },
        {
          "internalType": "address",
          "name": "spender",
          "type": "address"
        },
        {
          "internalType": "uint256",
          "name": "value",
          "type": "uint256"
        },
        {
          "internalType": "uint256",
          "name": "deadline",
          "type": "uint256"
        },
        {
          "internalType": "uint8",
          "name": "v",
          "type": "uint8"
        },
        {
          "internalType": "bytes32",
          "name": "r",
          "type": "bytes32"
        },
        {
          "internalType": "bytes32",
          "name": "s",
          "type": "bytes32"
        }
      ],
      "name": "permit",
      "outputs": [],
      "stateMutability": "nonpayable",
      "type": "function"
    },
    {
      "inputs": [
        {
          "internalType": "address",
          "name": "l2Messenger",
          "type": "address"
        }
      ],
      "name": "postUpgrade",
      "outputs": [],
      "stateMutability": "nonpayable",
      "type": "function"
    },
    {
      "inputs": [],
      "name": "requireAuthorization",
      "outputs": [
        {
          "internalType": "bool",
          "name": "",
          "type": "bool"
        }
      ],
      "stateMutability": "view",
      "type": "function"
    },
    {
      "inputs": [
        {
          "internalType": "bool",
          "name": "req",
          "type": "bool"
        }
      ],
      "name": "setRequireAuthorization",
      "outputs": [],
      "stateMutability": "nonpayable",
      "type": "function"
    },
    {
      "inputs": [],
      "name": "symbol",
      "outputs": [
        {
          "internalType": "string",
          "name": "",
          "type": "string"
        }
      ],
      "stateMutability": "view",
      "type": "function"
    },
    {
      "inputs": [],
      "name": "totalSupply",
      "outputs": [
        {
          "internalType": "uint256",
          "name": "",
          "type": "uint256"
        }
      ],
      "stateMutability": "view",
      "type": "function"
    },
    {
      "inputs": [
        {
          "internalType": "address",
          "name": "",
          "type": "address"
        }
      ],
      "name": "touched",
      "outputs": [
        {
          "internalType": "bool",
          "name": "",
          "type": "bool"
        }
      ],
      "stateMutability": "view",
      "type": "function"
    },
    {
      "inputs": [
        {
          "internalType": "address",
          "name": "to",
          "type": "address"
        },
        {
          "internalType": "uint256",
          "name": "amount",
          "type": "uint256"
        }
      ],
      "name": "transfer",
      "outputs": [
        {
          "internalType": "bool",
          "name": "",
          "type": "bool"
        }
      ],
      "stateMutability": "nonpayable",
      "type": "function"
    },
    {
      "inputs": [
        {
          "internalType": "address payable",
          "name": "to",
          "type": "address"
        },
        {
          "internalType": "uint256",
          "name": "amount",
          "type": "uint256"
        }
      ],
      "name": "transferAlongWithETH",
      "outputs": [
        {
          "internalType": "bool",
          "name": "",
          "type": "bool"
        }
      ],
      "stateMutability": "payable",
      "type": "function"
    },
    {
      "inputs": [
        {
          "internalType": "address",
          "name": "to",
          "type": "address"
        },
        {
          "internalType": "uint256",
          "name": "amount",
          "type": "uint256"
        },
        {
          "internalType": "bytes",
          "name": "data",
          "type": "bytes"
        }
      ],
      "name": "transferAndCall",
      "outputs": [
        {
          "internalType": "bool",
          "name": "",
          "type": "bool"
        }
      ],
      "stateMutability": "nonpayable",
      "type": "function"
    },
    {
      "inputs": [
        {
          "internalType": "address",
          "name": "from",
          "type": "address"
        },
        {
          "internalType": "address",
          "name": "to",
          "type": "address"
        },
        {
          "internalType": "uint256",
          "name": "amount",
          "type": "uint256"
        }
      ],
      "name": "transferFrom",
      "outputs": [
        {
          "internalType": "bool",
          "name": "",
          "type": "bool"
        }
      ],
      "stateMutability": "nonpayable",
      "type": "function"
    },
    {
      "inputs": [
        {
          "internalType": "address",
          "name": "from",
          "type": "address"
        },
        {
          "internalType": "address",
          "name": "to",
          "type": "address"
        },
        {
          "internalType": "uint256",
          "name": "amount",
          "type": "uint256"
        },
        {
          "internalType": "bytes",
          "name": "data",
          "type": "bytes"
        }
      ],
      "name": "transferFromAndCall",
      "outputs": [
        {
          "internalType": "bool",
          "name": "",
          "type": "bool"
        }
      ],
      "stateMutability": "nonpayable",
      "type": "function"
    }
  ],
  "transactionHash": "0xde4163c2a112babb213f1d3b58855096cd5930e57852a7a46578cb4376d724c1",
  "args": [
    "0x61c461EcC993aaDEB7e4b47E96d1B8cC37314B20"
  ],
  "solcInputHash": "b6306f36ae27f67da6f89af7c66a0689",
  "bytecode": "0x60a060405234801561001057600080fd5b5060405162001e9538038062001e95833981016040819052610031916100fd565b6040805180820190915260018152603160f81b60208201527f91ab3d17e3a50a9d89e63fd30b92be7f5336b03b287bb946787a83a9d62a27666100906040805180820190915260098152684574686572706c617960b81b602082015290565b8051602091820120835184830120604080519384019490945292820152606081019190915230608082015260a00160408051808303601f19018152919052805160209091012060805250600480546001600160a01b0383166001600160a01b03199091161790555061012d565b60006020828403121561010f57600080fd5b81516001600160a01b038116811461012657600080fd5b9392505050565b608051611d4562000150600039600081816102c40152610d090152611d456000f3fe6080604052600436106101b75760003560e01c806395d89b41116100ec578063cae9ca511161008a578063dd9835ec11610064578063dd9835ec1461059c578063df752eed146105cc578063e2c6fb4f146105df578063e7fcb065146105ff57600080fd5b8063cae9ca511461053c578063d505accf1461055c578063dd62ed3e1461057c57600080fd5b8063a9aadaad116100c6578063a9aadaad14610477578063b918161114610497578063c1d34b89146104c7578063c79b2430146104e757600080fd5b806395d89b41146103ee578063a256bb9e14610437578063a9059cbb1461045757600080fd5b80634000aea01161015957806363d994c71161013357806363d994c71461034257806370a08231146103625780637ecebe0014610398578063876530c7146103ce57600080fd5b80634000aea0146102e6578063480c84e1146103065780635a8c6a6d1461032057600080fd5b806318160ddd1161019557806318160ddd1461025757806323b872dd14610276578063313ce567146102965780633644e515146102b257600080fd5b806306fdde03146101bc578063095ea7b3146102145780630e02df5414610244575b600080fd5b3480156101c857600080fd5b5060408051808201909152600981527f4574686572706c6179000000000000000000000000000000000000000000000060208201525b60405161020b9190611644565b60405180910390f35b34801561022057600080fd5b5061023461022f3660046116c1565b610612565b604051901515815260200161020b565b610234610252366004611739565b610629565b34801561026357600080fd5b506000545b60405190815260200161020b565b34801561028257600080fd5b50610234610291366004611785565b6107b6565b3480156102a257600080fd5b506040516012815260200161020b565b3480156102be57600080fd5b506102687f000000000000000000000000000000000000000000000000000000000000000081565b3480156102f257600080fd5b50610234610301366004611808565b6107cd565b34801561031257600080fd5b506006546102349060ff1681565b34801561032c57600080fd5b5061034061033b3660046116c1565b610880565b005b34801561034e57600080fd5b5061023461035d366004611864565b6108a5565b34801561036e57600080fd5b5061026861037d3660046118d7565b6001600160a01b031660009081526001602052604090205490565b3480156103a457600080fd5b506102686103b33660046118d7565b6001600160a01b031660009081526003602052604090205490565b3480156103da57600080fd5b506103406103e93660046119c1565b61095b565b3480156103fa57600080fd5b506101fe6040518060400160405280600981526020017f4554484552504c4159000000000000000000000000000000000000000000000081525081565b34801561044357600080fd5b50610234610452366004611a13565b610a49565b34801561046357600080fd5b506102346104723660046116c1565b610abb565b34801561048357600080fd5b50610340610492366004611a50565b610ac8565b3480156104a357600080fd5b506102346104b23660046118d7565b60056020526000908152604090205460ff1681565b3480156104d357600080fd5b506102346104e2366004611864565b610b5d565b3480156104f357600080fd5b506103406105023660046118d7565b600480547fffffffffffffffffffffffff0000000000000000000000000000000000000000166001600160a01b0392909216919091179055565b34801561054857600080fd5b50610234610557366004611808565b610bb5565b34801561056857600080fd5b50610340610577366004611a6d565b610c0b565b34801561058857600080fd5b50610268610597366004611ae4565b610e9e565b3480156105a857600080fd5b506102346105b73660046118d7565b60076020526000908152604090205460ff1681565b6102346105da366004611b12565b610ee6565b3480156105eb57600080fd5b506103406105fa366004611b72565b611062565b61023461060d3660046116c1565b61112d565b600061061f33848461116f565b5060015b92915050565b6000806106368434611bca565b90506106428482611bec565b34146106955760405162461bcd60e51b815260206004820152601160248201527f494e56414c49445f4d53475f56414c554500000000000000000000000000000060448201526064015b60405180910390fd5b60006106a18585611bca565b90506106ad8582611bec565b84146106fb5760405162461bcd60e51b815260206004820152601460248201527f494e56414c49445f544f54414c5f414d4f554e54000000000000000000000000604482015260640161068c565b60005b858110156107a9576107373388888481811061071c5761071c611c0b565b905060200201602081019061073191906118d7565b8461123c565b86868281811061074957610749611c0b565b905060200201602081019061075e91906118d7565b6001600160a01b03166108fc849081150290604051600060405180830381858888f19350505050158015610796573d6000803e3d6000fd5b50806107a181611c21565b9150506106fe565b5060019695505050505050565b60006107c384848461132a565b5060019392505050565b60006107da33868661123c565b6040517fa4c0ed360000000000000000000000000000000000000000000000000000000081526001600160a01b0386169063a4c0ed3690610825903390889088908890600401611c67565b602060405180830381600087803b15801561083f57600080fd5b505af1158015610853573d6000803e3d6000fd5b505050506040513d601f19601f820116820180604052508101906108779190611c90565b95945050505050565b6004546001600160a01b0316331461089757600080fd5b6108a1828261140a565b5050565b60006108b233868661123c565b6040517f9b6be0650000000000000000000000000000000000000000000000000000000081526001600160a01b03861690639b6be065906108ff9033908a90899089908990600401611cad565b602060405180830381600087803b15801561091957600080fd5b505af115801561092d573d6000803e3d6000fd5b505050506040513d601f19601f820116820180604052508101906109519190611c90565b9695505050505050565b7fb53127684a568b3173ae13b9f8a6016e243e63b6e8ee1178d6a717850b5d6103546001600160a01b0316336001600160a01b0316146109dd5760405162461bcd60e51b815260206004820152600960248201527f4e4f545f41444d494e0000000000000000000000000000000000000000000000604482015260640161068c565b60005b8251811015610a44578160056000858481518110610a0057610a00611c0b565b6020908102919091018101516001600160a01b03168252810191909152604001600020805460ff191691151591909117905580610a3c81611c21565b9150506109e0565b505050565b6000805b8251811015610ab25760056000848381518110610a6c57610a6c611c0b565b6020908102919091018101516001600160a01b031682528101919091526040016000205460ff16610aa05750600192915050565b80610aaa81611c21565b915050610a4d565b50600092915050565b600061061f33848461123c565b7fb53127684a568b3173ae13b9f8a6016e243e63b6e8ee1178d6a717850b5d6103546001600160a01b0316336001600160a01b031614610b4a5760405162461bcd60e51b815260206004820152600960248201527f4e4f545f41444d494e0000000000000000000000000000000000000000000000604482015260640161068c565b6006805460ff1916911515919091179055565b6000610b6a86868661132a565b6040517fa4c0ed360000000000000000000000000000000000000000000000000000000081526001600160a01b0386169063a4c0ed36906108ff908990889088908890600401611c67565b6000610bc233868661116f565b6040517eba451f0000000000000000000000000000000000000000000000000000000081526001600160a01b0386169062ba451f90610825903390889088908890600401611c67565b6001600160a01b038716610c615760405162461bcd60e51b815260206004820152601460248201527f494e56414c49445f5a45524f5f41444452455353000000000000000000000000604482015260640161068c565b6001600160a01b0387811660008181526003602090815260408083205481517f6e71edae12b1b97f4d1f60370fef10105fa2faae0126114a169c64845d6126c98185015280830195909552948b166060850152608084018a905260a0840185905260c08085018a90528151808603909101815260e0850190915280519101207f19010000000000000000000000000000000000000000000000000000000000006101008401527f0000000000000000000000000000000000000000000000000000000000000000610102840152610122830152906101420160408051601f1981840301815282825280516020918201206000845290830180835281905260ff8816918301919091526060820186905260808201859052915060019060a0016020604051602081039080840390855afa158015610da1573d6000803e3d6000fd5b505050602060405103516001600160a01b0316896001600160a01b031614610e0b5760405162461bcd60e51b815260206004820152601160248201527f494e56414c49445f5349474e4154555245000000000000000000000000000000604482015260640161068c565b851580610e185750854211155b610e645760405162461bcd60e51b815260206004820152600860248201527f544f4f5f4c415445000000000000000000000000000000000000000000000000604482015260640161068c565b610e6f826001611ce0565b6001600160a01b038a16600090815260036020526040902055610e9389898961116f565b505050505050505050565b60006001600160a01b038316301415610eba5750600019610623565b506001600160a01b03918216600090815260026020908152604080832093909416825291909152205490565b600080610ef38534611bca565b9050610eff8582611bec565b3414610f4d5760405162461bcd60e51b815260206004820152601160248201527f494e56414c49445f4d53475f56414c5545000000000000000000000000000000604482015260640161068c565b848314610f9c5760405162461bcd60e51b815260206004820152600f60248201527f4e4f545f53414d455f4c454e4754480000000000000000000000000000000000604482015260640161068c565b60005b858110156107a957610ff033888884818110610fbd57610fbd611c0b565b9050602002016020810190610fd291906118d7565b878785818110610fe457610fe4611c0b565b9050602002013561123c565b86868281811061100257611002611c0b565b905060200201602081019061101791906118d7565b6001600160a01b03166108fc839081150290604051600060405180830381858888f1935050505015801561104f573d6000803e3d6000fd5b508061105a81611c21565b915050610f9f565b7fb53127684a568b3173ae13b9f8a6016e243e63b6e8ee1178d6a717850b5d6103546001600160a01b0316336001600160a01b0316146110e45760405162461bcd60e51b815260206004820152600960248201527f4e4f545f41444d494e0000000000000000000000000000000000000000000000604482015260640161068c565b6110ee6001610ac8565b6108a18282808060200260200160405190810160405280939291908181526020018383602002808284376000920191909152506001925061095b915050565b600061113a33848461123c565b6040516001600160a01b038416903480156108fc02916000818181858888f193505050501580156107c3573d6000803e3d6000fd5b6001600160a01b0383161580159061118f57506001600160a01b03821615155b6111db5760405162461bcd60e51b815260206004820152601460248201527f494e56414c49445f5a45524f5f41444452455353000000000000000000000000604482015260640161068c565b6001600160a01b0383811660008181526002602090815260408083209487168084529482529182902085905590518481527f8c5be1e5ebec7d5bd14f71427d1e84f3dd0314c0f7b2291e5b200ac8c7c3b925910160405180910390a3505050565b60065460ff16158061126657506001600160a01b03831660009081526005602052604090205460ff165b8061128957506001600160a01b03821660009081526005602052604090205460ff165b806112ad57506001600160a01b03821660009081526007602052604090205460ff16155b6112f95760405162461bcd60e51b815260206004820152601760248201527f4e4f545f415554484f52495a45445f5452414e53464552000000000000000000604482015260640161068c565b611304838383611492565b506001600160a01b03166000908152600760205260409020805460ff1916600117905550565b336001600160a01b0384161480159061134c57506001600160a01b0383163014155b156113ff576001600160a01b038316600090815260026020908152604080832033845290915290205460001981146113fd57818110156113ce5760405162461bcd60e51b815260206004820152601760248201527f4e4f545f415554484f495a45445f414c4c4f57414e4345000000000000000000604482015260640161068c565b6113d88282611cf8565b6001600160a01b03851660009081526002602090815260408083203384529091529020555b505b610a4483838361123c565b8060008082825461141b9190611ce0565b90915550506001600160a01b03821660009081526001602052604081208054839290611448908490611ce0565b90915550506040518181526001600160a01b038316906000907fddf252ad1be2c89b69c2b068fc378daa952ba7f163c4a11628f55a4df523b3ef9060200160405180910390a35050565b6001600160a01b0382166114e85760405162461bcd60e51b815260206004820152601460248201527f494e56414c49445f5a45524f5f41444452455353000000000000000000000000604482015260640161068c565b6001600160a01b0382163014156115415760405162461bcd60e51b815260206004820152601460248201527f494e56414c49445f544849535f41444452455353000000000000000000000000604482015260640161068c565b6001600160a01b038316600090815260016020526040902054818110156115aa5760405162461bcd60e51b815260206004820152601160248201527f4e4f545f454e4f5547485f544f4b454e53000000000000000000000000000000604482015260640161068c565b6115b48282611cf8565b6001600160a01b0380861660009081526001602052604080822093909355908516815290812080548492906115ea908490611ce0565b92505081905550826001600160a01b0316846001600160a01b03167fddf252ad1be2c89b69c2b068fc378daa952ba7f163c4a11628f55a4df523b3ef8460405161163691815260200190565b60405180910390a350505050565b600060208083528351808285015260005b8181101561167157858101830151858201604001528201611655565b81811115611683576000604083870101525b50601f01601f1916929092016040019392505050565b6001600160a01b03811681146116ae57600080fd5b50565b80356116bc81611699565b919050565b600080604083850312156116d457600080fd5b82356116df81611699565b946020939093013593505050565b60008083601f8401126116ff57600080fd5b50813567ffffffffffffffff81111561171757600080fd5b6020830191508360208260051b850101111561173257600080fd5b9250929050565b60008060006040848603121561174e57600080fd5b833567ffffffffffffffff81111561176557600080fd5b611771868287016116ed565b909790965060209590950135949350505050565b60008060006060848603121561179a57600080fd5b83356117a581611699565b925060208401356117b581611699565b929592945050506040919091013590565b60008083601f8401126117d857600080fd5b50813567ffffffffffffffff8111156117f057600080fd5b60208301915083602082850101111561173257600080fd5b6000806000806060858703121561181e57600080fd5b843561182981611699565b935060208501359250604085013567ffffffffffffffff81111561184c57600080fd5b611858878288016117c6565b95989497509550505050565b60008060008060006080868803121561187c57600080fd5b853561188781611699565b9450602086013561189781611699565b935060408601359250606086013567ffffffffffffffff8111156118ba57600080fd5b6118c6888289016117c6565b969995985093965092949392505050565b6000602082840312156118e957600080fd5b81356118f481611699565b9392505050565b634e487b7160e01b600052604160045260246000fd5b600082601f83011261192257600080fd5b8135602067ffffffffffffffff8083111561193f5761193f6118fb565b8260051b604051601f19603f83011681018181108482111715611964576119646118fb565b60405293845285810183019383810192508785111561198257600080fd5b83870191505b848210156119a857611999826116b1565b83529183019190830190611988565b979650505050505050565b80151581146116ae57600080fd5b600080604083850312156119d457600080fd5b823567ffffffffffffffff8111156119eb57600080fd5b6119f785828601611911565b9250506020830135611a08816119b3565b809150509250929050565b600060208284031215611a2557600080fd5b813567ffffffffffffffff811115611a3c57600080fd5b611a4884828501611911565b949350505050565b600060208284031215611a6257600080fd5b81356118f4816119b3565b600080600080600080600060e0888a031215611a8857600080fd5b8735611a9381611699565b96506020880135611aa381611699565b95506040880135945060608801359350608088013560ff81168114611ac757600080fd5b9699959850939692959460a0840135945060c09093013592915050565b60008060408385031215611af757600080fd5b8235611b0281611699565b91506020830135611a0881611699565b60008060008060408587031215611b2857600080fd5b843567ffffffffffffffff80821115611b4057600080fd5b611b4c888389016116ed565b90965094506020870135915080821115611b6557600080fd5b50611858878288016116ed565b60008060208385031215611b8557600080fd5b823567ffffffffffffffff811115611b9c57600080fd5b611ba8858286016116ed565b90969095509350505050565b634e487b7160e01b600052601160045260246000fd5b600082611be757634e487b7160e01b600052601260045260246000fd5b500490565b6000816000190483118215151615611c0657611c06611bb4565b500290565b634e487b7160e01b600052603260045260246000fd5b6000600019821415611c3557611c35611bb4565b5060010190565b818352818160208501375060006020828401015260006020601f19601f840116840101905092915050565b6001600160a01b0385168152836020820152606060408201526000610951606083018486611c3c565b600060208284031215611ca257600080fd5b81516118f4816119b3565b60006001600160a01b038088168352808716602084015250846040830152608060608301526119a8608083018486611c3c565b60008219821115611cf357611cf3611bb4565b500190565b600082821015611d0a57611d0a611bb4565b50039056fea2646970667358221220884426fe4bbb0c4d407d441f73f3f0acd1f98321eedbb6278787a5442fe4a37264736f6c63430008090033",
  "devdoc": {
    "kind": "dev",
    "methods": {
      "allowance(address,address)": {
        "details": "Returns the remaining number of tokens that `spender` will be allowed to spend on behalf of `owner` through {transferFrom}. This is zero by default. This value changes when {approve} or {transferFrom} are called."
      },
      "approve(address,uint256)": {
        "details": "Sets `amount` as the allowance of `spender` over the caller's tokens. Returns a boolean value indicating whether the operation succeeded. IMPORTANT: Beware that changing an allowance with this method brings the risk that someone may use both the old and the new allowance by unfortunate transaction ordering. One possible solution to mitigate this race condition is to first reduce the spender's allowance to 0 and set the desired value afterwards: https://github.com/ethereum/EIPs/issues/20#issuecomment-263524729 Emits an {Approval} event."
      },
      "totalSupply()": {
        "details": "Returns the amount of tokens in existence."
      }
    },
    "version": 1
  },
  "userdoc": {
    "kind": "user",
    "methods": {},
    "version": 1
  },
  "storageLayout": {
    "storage": [
      {
        "astId": 20779,
        "contract": "src/PlayToken/l2/PlayL2.sol:PlayL2",
        "label": "_totalSupply",
        "offset": 0,
        "slot": "0",
        "type": "t_uint256"
      },
      {
        "astId": 20783,
        "contract": "src/PlayToken/l2/PlayL2.sol:PlayL2",
        "label": "_balances",
        "offset": 0,
        "slot": "1",
        "type": "t_mapping(t_address,t_uint256)"
      },
      {
        "astId": 20789,
        "contract": "src/PlayToken/l2/PlayL2.sol:PlayL2",
        "label": "_allowances",
        "offset": 0,
        "slot": "2",
        "type": "t_mapping(t_address,t_mapping(t_address,t_uint256))"
      },
      {
        "astId": 22899,
        "contract": "src/PlayToken/l2/PlayL2.sol:PlayL2",
        "label": "_nonces",
        "offset": 0,
        "slot": "3",
        "type": "t_mapping(t_address,t_uint256)"
      },
      {
        "astId": 23287,
        "contract": "src/PlayToken/l2/PlayL2.sol:PlayL2",
        "label": "_l2Messenger",
        "offset": 0,
        "slot": "4",
        "type": "t_address"
      },
      {
        "astId": 23346,
        "contract": "src/PlayToken/l2/PlayL2.sol:PlayL2",
        "label": "authorized",
        "offset": 0,
        "slot": "5",
        "type": "t_mapping(t_address,t_bool)"
      },
      {
        "astId": 23348,
        "contract": "src/PlayToken/l2/PlayL2.sol:PlayL2",
        "label": "requireAuthorization",
        "offset": 0,
        "slot": "6",
        "type": "t_bool"
      },
      {
        "astId": 23352,
        "contract": "src/PlayToken/l2/PlayL2.sol:PlayL2",
        "label": "touched",
        "offset": 0,
        "slot": "7",
        "type": "t_mapping(t_address,t_bool)"
      }
    ],
    "types": {
      "t_address": {
        "encoding": "inplace",
        "label": "address",
        "numberOfBytes": "20"
      },
      "t_bool": {
        "encoding": "inplace",
        "label": "bool",
        "numberOfBytes": "1"
      },
      "t_mapping(t_address,t_bool)": {
        "encoding": "mapping",
        "key": "t_address",
        "label": "mapping(address => bool)",
        "numberOfBytes": "32",
        "value": "t_bool"
      },
      "t_mapping(t_address,t_mapping(t_address,t_uint256))": {
        "encoding": "mapping",
        "key": "t_address",
        "label": "mapping(address => mapping(address => uint256))",
        "numberOfBytes": "32",
        "value": "t_mapping(t_address,t_uint256)"
      },
      "t_mapping(t_address,t_uint256)": {
        "encoding": "mapping",
        "key": "t_address",
        "label": "mapping(address => uint256)",
        "numberOfBytes": "32",
        "value": "t_uint256"
      },
      "t_uint256": {
        "encoding": "inplace",
        "label": "uint256",
        "numberOfBytes": "32"
      }
    }
  }
}