{
  "address": "0x2304b17b5E579D0f874Ff4D21177383Ba2F80d39",
  "abi": [
    {
      "inputs": [
        {
          "internalType": "contract AllianceRegistry",
          "name": "allianceRegistry",
          "type": "address"
        },
        {
          "internalType": "string",
          "name": "baseURI",
          "type": "string"
        }
      ],
      "stateMutability": "nonpayable",
      "type": "constructor"
    },
    {
      "inputs": [
        {
          "components": [
            {
              "internalType": "address",
              "name": "addr",
              "type": "address"
            },
            {
              "internalType": "uint32",
              "name": "nonce",
              "type": "uint32"
            },
            {
              "internalType": "bytes",
              "name": "signature",
              "type": "bytes"
            }
          ],
          "internalType": "struct AllianceRegistry.PlayerSubmission[]",
          "name": "playerSubmissions",
          "type": "tuple[]"
        }
      ],
      "name": "addMembers",
      "outputs": [],
      "stateMutability": "nonpayable",
      "type": "function"
    },
    {
      "inputs": [],
      "name": "admin",
      "outputs": [
        {
          "internalType": "address",
          "name": "",
          "type": "address"
        }
      ],
      "stateMutability": "view",
      "type": "function"
    },
    {
      "inputs": [
        {
          "internalType": "address",
          "name": "player",
          "type": "address"
        },
        {
          "internalType": "uint32",
          "name": "nonce",
          "type": "uint32"
        },
        {
          "internalType": "bytes",
          "name": "signature",
          "type": "bytes"
        },
        {
          "internalType": "uint32",
          "name": "inviteNonce",
          "type": "uint32"
        },
        {
          "internalType": "bytes",
          "name": "inviteSignature",
          "type": "bytes"
        }
      ],
      "name": "claimInvite",
      "outputs": [],
      "stateMutability": "nonpayable",
      "type": "function"
    },
    {
      "inputs": [],
      "name": "frontendURI",
      "outputs": [
        {
          "internalType": "string",
          "name": "",
          "type": "string"
        }
      ],
      "stateMutability": "view",
      "type": "function"
    },
    {
      "inputs": [
        {
          "internalType": "bytes32",
          "name": "salt",
          "type": "bytes32"
        }
      ],
      "name": "getAddress",
      "outputs": [
        {
          "internalType": "address",
          "name": "",
          "type": "address"
        }
      ],
      "stateMutability": "view",
      "type": "function"
    },
    {
      "inputs": [
        {
          "internalType": "string",
          "name": "baseURI",
          "type": "string"
        }
      ],
      "name": "init",
      "outputs": [],
      "stateMutability": "nonpayable",
      "type": "function"
    },
    {
      "inputs": [
        {
          "internalType": "address",
          "name": "initialAdmin",
          "type": "address"
        },
        {
          "components": [
            {
              "internalType": "address",
              "name": "addr",
              "type": "address"
            },
            {
              "internalType": "uint32",
              "name": "nonce",
              "type": "uint32"
            },
            {
              "internalType": "bytes",
              "name": "signature",
              "type": "bytes"
            }
          ],
          "internalType": "struct AllianceRegistry.PlayerSubmission[]",
          "name": "playerSubmissions",
          "type": "tuple[]"
        },
        {
          "internalType": "bytes32",
          "name": "salt",
          "type": "bytes32"
        }
      ],
      "name": "instantiate",
      "outputs": [],
      "stateMutability": "nonpayable",
      "type": "function"
    },
    {
      "inputs": [
        {
          "internalType": "address",
          "name": "",
          "type": "address"
        }
      ],
      "name": "memberNonces",
      "outputs": [
        {
          "internalType": "uint32",
          "name": "",
          "type": "uint32"
        }
      ],
      "stateMutability": "view",
      "type": "function"
    },
    {
      "inputs": [
        {
          "internalType": "address",
          "name": "newAdmin",
          "type": "address"
        },
        {
          "components": [
            {
              "internalType": "address",
              "name": "addr",
              "type": "address"
            },
            {
              "internalType": "uint32",
              "name": "nonce",
              "type": "uint32"
            },
            {
              "internalType": "bytes",
              "name": "signature",
              "type": "bytes"
            }
          ],
          "internalType": "struct AllianceRegistry.PlayerSubmission[]",
          "name": "playerSubmissions",
          "type": "tuple[]"
        }
      ],
      "name": "setAdminAndAddMembers",
      "outputs": [],
      "stateMutability": "nonpayable",
      "type": "function"
    }
  ],
  "transactionHash": "0x9455dc5d77de5858c7f58790e94a3f54dc17be952ac3898802280ba1e5e81abe",
  "args": [
    "0xE7Bd2e660DfDcc230c61527757010631B1b56aca",
    "https://basic-alliances-beta.conquest.etherplay.io/alliances/#"
  ],
  "numDeployments": 1,
  "solcInputHash": "7e2f6f190dcf4f68444d536eaea51415",
  "bytecode": "0x60a06040523480156200001157600080fd5b506040516200238d3803806200238d8339810160408190526200003491620001a0565b6001600160a01b038216608052600080546001600160a81b031916610101179055620000608162000068565b5050620002dd565b600180546200007790620002a0565b159050620000cb5760405162461bcd60e51b815260206004820152601360248201527f414c52454144595f494e495449414c4953454400000000000000000000000000604482015260640160405180910390fd5b8051620000e0906001906020840190620000e4565b5050565b828054620000f290620002a0565b90600052602060002090601f01602090048101928262000116576000855562000161565b82601f106200013157805160ff191683800117855562000161565b8280016001018555821562000161579182015b828111156200016157825182559160200191906001019062000144565b506200016f92915062000173565b5090565b5b808211156200016f576000815560010162000174565b634e487b7160e01b600052604160045260246000fd5b60008060408385031215620001b457600080fd5b82516001600160a01b0381168114620001cc57600080fd5b602084810151919350906001600160401b0380821115620001ec57600080fd5b818601915086601f8301126200020157600080fd5b8151818111156200021657620002166200018a565b604051601f8201601f19908116603f011681019083821181831017156200024157620002416200018a565b8160405282815289868487010111156200025a57600080fd5b600093505b828410156200027e57848401860151818501870152928501926200025f565b82841115620002905760008684830101525b8096505050505050509250929050565b600181811c90821680620002b557607f821691505b60208210811415620002d757634e487b7160e01b600052602260045260246000fd5b50919050565b6080516120866200030760003960008181610283015281816108900152610cdd01526120866000f3fe608060405234801561001057600080fd5b50600436106100a35760003560e01c80634fcead5711610076578063f851a4401161005b578063f851a44014610170578063f9fbdb9e14610195578063fc4c03b4146101a857600080fd5b80634fcead57146101485780636ca1d0ed1461015d57600080fd5b80630b7465e4146100a857806321f8a721146100bd5780633bfc5446146100fa57806340e2dfcf1461010d575b600080fd5b6100bb6100b636600461175c565b6101bb565b005b6100d06100cb36600461179e565b6102f0565b60405173ffffffffffffffffffffffffffffffffffffffff90911681526020015b60405180910390f35b6100bb610108366004611836565b610433565b61013361011b3660046118db565b60026020526000908152604090205463ffffffff1681565b60405163ffffffff90911681526020016100f1565b61015061090a565b6040516100f19190611922565b6100bb61016b366004611973565b61093e565b6000546100d090610100900473ffffffffffffffffffffffffffffffffffffffff1681565b6100bb6101a33660046119fc565b610b23565b6100bb6101b6366004611acb565b610bb0565b600054610100900473ffffffffffffffffffffffffffffffffffffffff163314610246576040517f08c379a000000000000000000000000000000000000000000000000000000000815260206004820152600b60248201527f4e4f545f414c4c4f57454400000000000000000000000000000000000000000060448201526064015b60405180910390fd5b6040517f8efb75c300000000000000000000000000000000000000000000000000000000815273ffffffffffffffffffffffffffffffffffffffff7f00000000000000000000000000000000000000000000000000000000000000001690638efb75c3906102ba9085908590600401611c90565b600060405180830381600087803b1580156102d457600080fd5b505af11580156102e8573d6000803e3d6000fd5b505050505050565b6000805460ff1661035d576040517f08c379a000000000000000000000000000000000000000000000000000000000815260206004820152601e60248201527f43414e4e4f545f494e5354414e54494154455f46524f4d5f434c4f4e45530000604482015260640161023d565b61042d3083336040516020016103a292919091825260601b7fffffffffffffffffffffffffffffffffffffffff00000000000000000000000016602082015260340190565b60405160208183030381529060405280519060200120306040517f3d602d80600a3d3981f3363d3d373d3d3d363d730000000000000000000000008152606093841b60148201527f5af43d82803e903d91602b57fd5bf3ff000000000000000000000000000000006028820152921b6038830152604c8201526037808220606c830152605591012090565b92915050565b73ffffffffffffffffffffffffffffffffffffffff871660009081526002602052604090205463ffffffff90811690841681146104cc576040517f08c379a000000000000000000000000000000000000000000000000000000000815260206004820152600d60248201527f494e56414c49445f4e4f4e434500000000000000000000000000000000000000604482015260640161023d565b6104d7846001611cdb565b73ffffffffffffffffffffffffffffffffffffffff8916600090815260026020526040902080547fffffffffffffffffffffffffffffffffffffffffffffffffffffffff000000001663ffffffff928316179055606090851661063c576040517f19457468657265756d205369676e6564204d6573736167653a0a31313100000060208201527f496e7669746520506c6179657220307830303030303030303030303030303030603d8201527f30303030303030303030303030303030303030303030303020546f20416c6c69605d8201527f616e636520307830303030303030303030303030303030303030303030303030607d8201527f3030303030303030303030303030300000000000000000000000000000000000609d82015260ac01604051602081830303815290604052905061062b8160548b73ffffffffffffffffffffffffffffffffffffffff16610d4d565b61063781608b30610d4d565b610777565b6040517f19457468657265756d205369676e6564204d6573736167653a0a31333100000060208201527f496e7669746520506c6179657220307830303030303030303030303030303030603d8201527f30303030303030303030303030303030303030303030303020546f20416c6c69605d8201527f616e636520307830303030303030303030303030303030303030303030303030607d8201527f30303030303030303030303030303020286e6f6e63653a202020202020202020609d8201527f203029000000000000000000000000000000000000000000000000000000000060bd82015260c00160405160208183030381529060405290506107598160548b73ffffffffffffffffffffffffffffffffffffffff16610d4d565b61076581608b30610d4d565b61077781609e8763ffffffff16610e2c565b60008180519060200120905060006107c786868080601f0160208091040260200160405190810160405280939291908181526020018383808284376000920191909152508693925050610f069050565b60005490915073ffffffffffffffffffffffffffffffffffffffff8083166101009092041614610853576040517f08c379a000000000000000000000000000000000000000000000000000000000815260206004820152601860248201527f494e56414c49445f494e564954455f5349474e41545552450000000000000000604482015260640161023d565b6040517f6da0663000000000000000000000000000000000000000000000000000000000815273ffffffffffffffffffffffffffffffffffffffff7f00000000000000000000000000000000000000000000000000000000000000001690636da06630906108cb908e908e908e908e90600401611d03565b600060405180830381600087803b1580156108e557600080fd5b505af11580156108f9573d6000803e3d6000fd5b505050505050505050505050505050565b60606001610919306014610f2a565b60405160200161092a929190611d9d565b604051602081830303815290604052905090565b60005460ff166109aa576040517f08c379a000000000000000000000000000000000000000000000000000000000815260206004820152601e60248201527f43414e4e4f545f494e5354414e54494154455f46524f4d5f434c4f4e45530000604482015260640161023d565b6000610a0c3083336040516020016109f192919091825260601b7fffffffffffffffffffffffffffffffffffffffff00000000000000000000000016602082015260340190565b60405160208183030381529060405280519060200120611174565b6040517ff9fbdb9e00000000000000000000000000000000000000000000000000000000815290915073ffffffffffffffffffffffffffffffffffffffff82169063f9fbdb9e90610a6290600190600401611e35565b600060405180830381600087803b158015610a7c57600080fd5b505af1158015610a90573d6000803e3d6000fd5b50506040517ffc4c03b400000000000000000000000000000000000000000000000000000000815273ffffffffffffffffffffffffffffffffffffffff8416925063fc4c03b49150610aea90889088908890600401611ed8565b600060405180830381600087803b158015610b0457600080fd5b505af1158015610b18573d6000803e3d6000fd5b505050505050505050565b60018054610b3090611d49565b159050610b99576040517f08c379a000000000000000000000000000000000000000000000000000000000815260206004820152601360248201527f414c52454144595f494e495449414c4953454400000000000000000000000000604482015260640161023d565b8051610bac90600190602084019061167e565b5050565b600054610100900473ffffffffffffffffffffffffffffffffffffffff16801580610bf057503373ffffffffffffffffffffffffffffffffffffffff8216145b610c56576040517f08c379a000000000000000000000000000000000000000000000000000000000815260206004820152600b60248201527f4e4f545f414c4c4f574544000000000000000000000000000000000000000000604482015260640161023d565b600080547fffffffffffffffffffffff0000000000000000000000000000000000000000ff1661010073ffffffffffffffffffffffffffffffffffffffff8716021790558115610d47576040517f8efb75c300000000000000000000000000000000000000000000000000000000815273ffffffffffffffffffffffffffffffffffffffff7f00000000000000000000000000000000000000000000000000000000000000001690638efb75c390610d149086908690600401611c90565b600060405180830381600087803b158015610d2e57600080fd5b505af1158015610d42573d6000803e3d6000fd5b505050505b50505050565b8015610e27576040805180820190915260108082527f30313233343536373839616263646566000000000000000000000000000000006020830152610d929083611f40565b81518110610da257610da2611f54565b01602001517fff00000000000000000000000000000000000000000000000000000000000000168383610dd481611f83565b945081518110610de657610de6611f54565b60200101907effffffffffffffffffffffffffffffffffffffffffffffffffffffffffffff1916908160001a905350610e20601082611fb8565b9050610d4d565b505050565b8015610e275760408051808201909152600a8082527f30313233343536373839000000000000000000000000000000000000000000006020830152610e719083611f40565b81518110610e8157610e81611f54565b01602001517fff00000000000000000000000000000000000000000000000000000000000000168383610eb381611f83565b945081518110610ec557610ec5611f54565b60200101907effffffffffffffffffffffffffffffffffffffffffffffffffffffffffffff1916908160001a905350610eff600a82611fb8565b9050610e2c565b6000806000610f158585611252565b91509150610f22816112c2565b509392505050565b60606000610f39836002611fcc565b610f44906002612009565b67ffffffffffffffff811115610f5c57610f5c6119cd565b6040519080825280601f01601f191660200182016040528015610f86576020820181803683370190505b5090507f300000000000000000000000000000000000000000000000000000000000000081600081518110610fbd57610fbd611f54565b60200101907effffffffffffffffffffffffffffffffffffffffffffffffffffffffffffff1916908160001a9053507f78000000000000000000000000000000000000000000000000000000000000008160018151811061102057611020611f54565b60200101907effffffffffffffffffffffffffffffffffffffffffffffffffffffffffffff1916908160001a905350600061105c846002611fcc565b611067906001612009565b90505b6001811115611104577f303132333435363738396162636465660000000000000000000000000000000085600f16601081106110a8576110a8611f54565b1a60f81b8282815181106110be576110be611f54565b60200101907effffffffffffffffffffffffffffffffffffffffffffffffffffffffffffff1916908160001a90535060049490941c936110fd81611f83565b905061106a565b50831561116d576040517f08c379a000000000000000000000000000000000000000000000000000000000815260206004820181905260248201527f537472696e67733a20686578206c656e67746820696e73756666696369656e74604482015260640161023d565b9392505050565b60006040517f3d602d80600a3d3981f3363d3d373d3d3d363d7300000000000000000000000081528360601b60148201527f5af43d82803e903d91602b57fd5bf300000000000000000000000000000000006028820152826037826000f591505073ffffffffffffffffffffffffffffffffffffffff811661042d576040517f08c379a000000000000000000000000000000000000000000000000000000000815260206004820152601760248201527f455243313136373a2063726561746532206661696c6564000000000000000000604482015260640161023d565b6000808251604114156112895760208301516040840151606085015160001a61127d8782858561151e565b945094505050506112bb565b8251604014156112b357602083015160408401516112a8868383611636565b9350935050506112bb565b506000905060025b9250929050565b60008160048111156112d6576112d6612021565b14156112df5750565b60018160048111156112f3576112f3612021565b141561135b576040517f08c379a000000000000000000000000000000000000000000000000000000000815260206004820152601860248201527f45434453413a20696e76616c6964207369676e61747572650000000000000000604482015260640161023d565b600281600481111561136f5761136f612021565b14156113d7576040517f08c379a000000000000000000000000000000000000000000000000000000000815260206004820152601f60248201527f45434453413a20696e76616c6964207369676e6174757265206c656e67746800604482015260640161023d565b60038160048111156113eb576113eb612021565b1415611479576040517f08c379a000000000000000000000000000000000000000000000000000000000815260206004820152602260248201527f45434453413a20696e76616c6964207369676e6174757265202773272076616c60448201527f7565000000000000000000000000000000000000000000000000000000000000606482015260840161023d565b600481600481111561148d5761148d612021565b141561151b576040517f08c379a000000000000000000000000000000000000000000000000000000000815260206004820152602260248201527f45434453413a20696e76616c6964207369676e6174757265202776272076616c60448201527f7565000000000000000000000000000000000000000000000000000000000000606482015260840161023d565b50565b6000807f7fffffffffffffffffffffffffffffff5d576e7357a4501ddfe92f46681b20a0831115611555575060009050600361162d565b8460ff16601b1415801561156d57508460ff16601c14155b1561157e575060009050600461162d565b6040805160008082526020820180845289905260ff881692820192909252606081018690526080810185905260019060a0016020604051602081039080840390855afa1580156115d2573d6000803e3d6000fd5b50506040517fffffffffffffffffffffffffffffffffffffffffffffffffffffffffffffffe0015191505073ffffffffffffffffffffffffffffffffffffffff81166116265760006001925092505061162d565b9150600090505b94509492505050565b6000807f7fffffffffffffffffffffffffffffffffffffffffffffffffffffffffffffff831660ff84901c601b016116708782888561151e565b935093505050935093915050565b82805461168a90611d49565b90600052602060002090601f0160209004810192826116ac57600085556116f2565b82601f106116c557805160ff19168380011785556116f2565b828001600101855582156116f2579182015b828111156116f25782518255916020019190600101906116d7565b506116fe929150611702565b5090565b5b808211156116fe5760008155600101611703565b60008083601f84011261172957600080fd5b50813567ffffffffffffffff81111561174157600080fd5b6020830191508360208260051b85010111156112bb57600080fd5b6000806020838503121561176f57600080fd5b823567ffffffffffffffff81111561178657600080fd5b61179285828601611717565b90969095509350505050565b6000602082840312156117b057600080fd5b5035919050565b803573ffffffffffffffffffffffffffffffffffffffff811681146117db57600080fd5b919050565b803563ffffffff811681146117db57600080fd5b60008083601f84011261180657600080fd5b50813567ffffffffffffffff81111561181e57600080fd5b6020830191508360208285010111156112bb57600080fd5b600080600080600080600060a0888a03121561185157600080fd5b61185a886117b7565b9650611868602089016117e0565b9550604088013567ffffffffffffffff8082111561188557600080fd5b6118918b838c016117f4565b90975095508591506118a560608b016117e0565b945060808a01359150808211156118bb57600080fd5b506118c88a828b016117f4565b989b979a50959850939692959293505050565b6000602082840312156118ed57600080fd5b61116d826117b7565b60005b838110156119115781810151838201526020016118f9565b83811115610d475750506000910152565b60208152600082518060208401526119418160408501602087016118f6565b601f017fffffffffffffffffffffffffffffffffffffffffffffffffffffffffffffffe0169190910160400192915050565b6000806000806060858703121561198957600080fd5b611992856117b7565b9350602085013567ffffffffffffffff8111156119ae57600080fd5b6119ba87828801611717565b9598909750949560400135949350505050565b7f4e487b7100000000000000000000000000000000000000000000000000000000600052604160045260246000fd5b600060208284031215611a0e57600080fd5b813567ffffffffffffffff80821115611a2657600080fd5b818401915084601f830112611a3a57600080fd5b813581811115611a4c57611a4c6119cd565b604051601f82017fffffffffffffffffffffffffffffffffffffffffffffffffffffffffffffffe0908116603f01168101908382118183101715611a9257611a926119cd565b81604052828152876020848701011115611aab57600080fd5b826020860160208301376000928101602001929092525095945050505050565b600080600060408486031215611ae057600080fd5b611ae9846117b7565b9250602084013567ffffffffffffffff811115611b0557600080fd5b611b1186828701611717565b9497909650939450505050565b8183528181602085013750600060208284010152600060207fffffffffffffffffffffffffffffffffffffffffffffffffffffffffffffffe0601f840116840101905092915050565b81835260006020808501808196508560051b810191508460005b87811015611c8357828403895281357fffffffffffffffffffffffffffffffffffffffffffffffffffffffffffffffa1883603018112611bc057600080fd5b8701606073ffffffffffffffffffffffffffffffffffffffff611be2836117b7565b16865263ffffffff611bf58884016117e0565b16878701526040808301357fffffffffffffffffffffffffffffffffffffffffffffffffffffffffffffffe1843603018112611c3057600080fd5b8301803567ffffffffffffffff811115611c4957600080fd5b803603851315611c5857600080fd5b83838a0152611c6c848a01828c8501611b1e565b9d8a019d9850505093870193505050600101611b81565b5091979650505050505050565b602081526000611ca4602083018486611b67565b949350505050565b7f4e487b7100000000000000000000000000000000000000000000000000000000600052601160045260246000fd5b600063ffffffff808316818516808303821115611cfa57611cfa611cac565b01949350505050565b73ffffffffffffffffffffffffffffffffffffffff8516815263ffffffff84166020820152606060408201526000611d3f606083018486611b1e565b9695505050505050565b600181811c90821680611d5d57607f821691505b60208210811415611d97577f4e487b7100000000000000000000000000000000000000000000000000000000600052602260045260246000fd5b50919050565b6000808454611dab81611d49565b60018281168015611dc35760018114611df257611e21565b7fffffffffffffffffffffffffffffffffffffffffffffffffffffffffffffff00841687528287019450611e21565b8860005260208060002060005b85811015611e185781548a820152908401908201611dff565b50505082870194505b505050508351611cfa8183602088016118f6565b6000602080835260008454611e4981611d49565b80848701526040600180841660008114611e6a5760018114611e9c57611eca565b7fffffffffffffffffffffffffffffffffffffffffffffffffffffffffffffff008516838a0152606089019550611eca565b896000528660002060005b85811015611ec25781548b8201860152908301908801611ea7565b8a0184019650505b509398975050505050505050565b73ffffffffffffffffffffffffffffffffffffffff84168152604060208201526000611f08604083018486611b67565b95945050505050565b7f4e487b7100000000000000000000000000000000000000000000000000000000600052601260045260246000fd5b600082611f4f57611f4f611f11565b500690565b7f4e487b7100000000000000000000000000000000000000000000000000000000600052603260045260246000fd5b600081611f9257611f92611cac565b507fffffffffffffffffffffffffffffffffffffffffffffffffffffffffffffffff0190565b600082611fc757611fc7611f11565b500490565b6000817fffffffffffffffffffffffffffffffffffffffffffffffffffffffffffffffff048311821515161561200457612004611cac565b500290565b6000821982111561201c5761201c611cac565b500190565b7f4e487b7100000000000000000000000000000000000000000000000000000000600052602160045260246000fdfea2646970667358221220a970abe6f8a2cff9cebbe2c63c677e7965f47197ef71603afab471f734e2895864736f6c63430008090033",
  "devdoc": {
    "kind": "dev",
    "methods": {},
    "version": 1
  },
  "userdoc": {
    "kind": "user",
    "methods": {},
    "version": 1
  },
  "storageLayout": {
    "storage": [
      {
        "astId": 12611,
        "contract": "src/alliances/BasicAlliance.sol:BasicAlliance",
        "label": "_original",
        "offset": 0,
        "slot": "0",
        "type": "t_bool"
      },
      {
        "astId": 12616,
        "contract": "src/alliances/BasicAlliance.sol:BasicAlliance",
        "label": "admin",
        "offset": 1,
        "slot": "0",
        "type": "t_address"
      },
      {
        "astId": 12618,
        "contract": "src/alliances/BasicAlliance.sol:BasicAlliance",
        "label": "_baseURI",
        "offset": 0,
        "slot": "1",
        "type": "t_string_storage"
      },
      {
        "astId": 12622,
        "contract": "src/alliances/BasicAlliance.sol:BasicAlliance",
        "label": "memberNonces",
        "offset": 0,
        "slot": "2",
        "type": "t_mapping(t_address,t_uint32)"
      }
    ],
    "types": {
      "t_address": {
        "encoding": "inplace",
        "label": "address",
        "numberOfBytes": "20"
      },
      "t_bool": {
        "encoding": "inplace",
        "label": "bool",
        "numberOfBytes": "1"
      },
      "t_mapping(t_address,t_uint32)": {
        "encoding": "mapping",
        "key": "t_address",
        "label": "mapping(address => uint32)",
        "numberOfBytes": "32",
        "value": "t_uint32"
      },
      "t_string_storage": {
        "encoding": "bytes",
        "label": "string",
        "numberOfBytes": "32"
      },
      "t_uint32": {
        "encoding": "inplace",
        "label": "uint32",
        "numberOfBytes": "4"
      }
    }
  }
}