{
  "address": "0x355388Ec03dAE713B015817B76Df6AEc029432c6",
  "abi": [
    {
      "inputs": [
        {
          "internalType": "address",
          "name": "minter",
          "type": "address"
        }
      ],
      "stateMutability": "nonpayable",
      "type": "constructor"
    },
    {
      "anonymous": false,
      "inputs": [
        {
          "indexed": true,
          "internalType": "address",
          "name": "owner",
          "type": "address"
        },
        {
          "indexed": true,
          "internalType": "address",
          "name": "spender",
          "type": "address"
        },
        {
          "indexed": false,
          "internalType": "uint256",
          "name": "value",
          "type": "uint256"
        }
      ],
      "name": "Approval",
      "type": "event"
    },
    {
      "anonymous": false,
      "inputs": [
        {
          "indexed": true,
          "internalType": "address",
          "name": "from",
          "type": "address"
        },
        {
          "indexed": true,
          "internalType": "address",
          "name": "to",
          "type": "address"
        },
        {
          "indexed": false,
          "internalType": "uint256",
          "name": "value",
          "type": "uint256"
        }
      ],
      "name": "Transfer",
      "type": "event"
    },
    {
      "inputs": [],
      "name": "DOMAIN_SEPARATOR",
      "outputs": [
        {
          "internalType": "bytes32",
          "name": "",
          "type": "bytes32"
        }
      ],
      "stateMutability": "view",
      "type": "function"
    },
    {
      "inputs": [
        {
          "internalType": "address",
          "name": "owner",
          "type": "address"
        },
        {
          "internalType": "address",
          "name": "spender",
          "type": "address"
        }
      ],
      "name": "allowance",
      "outputs": [
        {
          "internalType": "uint256",
          "name": "",
          "type": "uint256"
        }
      ],
      "stateMutability": "view",
      "type": "function"
    },
    {
      "inputs": [
        {
          "internalType": "address[]",
          "name": "accounts",
          "type": "address[]"
        }
      ],
      "name": "anyNotAuthorized",
      "outputs": [
        {
          "internalType": "bool",
          "name": "",
          "type": "bool"
        }
      ],
      "stateMutability": "view",
      "type": "function"
    },
    {
      "inputs": [
        {
          "internalType": "address",
          "name": "spender",
          "type": "address"
        },
        {
          "internalType": "uint256",
          "name": "amount",
          "type": "uint256"
        }
      ],
      "name": "approve",
      "outputs": [
        {
          "internalType": "bool",
          "name": "",
          "type": "bool"
        }
      ],
      "stateMutability": "nonpayable",
      "type": "function"
    },
    {
      "inputs": [
        {
          "internalType": "address",
          "name": "spender",
          "type": "address"
        },
        {
          "internalType": "uint256",
          "name": "amount",
          "type": "uint256"
        },
        {
          "internalType": "bytes",
          "name": "data",
          "type": "bytes"
        }
      ],
      "name": "approveAndCall",
      "outputs": [
        {
          "internalType": "bool",
          "name": "",
          "type": "bool"
        }
      ],
      "stateMutability": "nonpayable",
      "type": "function"
    },
    {
      "inputs": [
        {
          "internalType": "address[]",
          "name": "accounts",
          "type": "address[]"
        },
        {
          "internalType": "bool",
          "name": "auth",
          "type": "bool"
        }
      ],
      "name": "authorize",
      "outputs": [],
      "stateMutability": "nonpayable",
      "type": "function"
    },
    {
      "inputs": [
        {
          "internalType": "address",
          "name": "",
          "type": "address"
        }
      ],
      "name": "authorized",
      "outputs": [
        {
          "internalType": "bool",
          "name": "",
          "type": "bool"
        }
      ],
      "stateMutability": "view",
      "type": "function"
    },
    {
      "inputs": [
        {
          "internalType": "address",
          "name": "owner",
          "type": "address"
        }
      ],
      "name": "balanceOf",
      "outputs": [
        {
          "internalType": "uint256",
          "name": "",
          "type": "uint256"
        }
      ],
      "stateMutability": "view",
      "type": "function"
    },
    {
      "inputs": [],
      "name": "decimals",
      "outputs": [
        {
          "internalType": "uint8",
          "name": "",
          "type": "uint8"
        }
      ],
      "stateMutability": "pure",
      "type": "function"
    },
    {
      "inputs": [
        {
          "internalType": "address payable[]",
          "name": "tos",
          "type": "address[]"
        },
        {
          "internalType": "uint256",
          "name": "totalAmount",
          "type": "uint256"
        }
      ],
      "name": "distributeAlongWithETH",
      "outputs": [
        {
          "internalType": "bool",
          "name": "",
          "type": "bool"
        }
      ],
      "stateMutability": "payable",
      "type": "function"
    },
    {
      "inputs": [
        {
          "internalType": "address payable[]",
          "name": "tos",
          "type": "address[]"
        },
        {
          "internalType": "uint256[]",
          "name": "amounts",
          "type": "uint256[]"
        }
      ],
      "name": "distributeVariousAmountsAlongWithETH",
      "outputs": [
        {
          "internalType": "bool",
          "name": "",
          "type": "bool"
        }
      ],
      "stateMutability": "payable",
      "type": "function"
    },
    {
      "inputs": [
        {
          "internalType": "address payable[]",
          "name": "tos",
          "type": "address[]"
        },
        {
          "internalType": "uint256[]",
          "name": "tokenAmounts",
          "type": "uint256[]"
        },
        {
          "internalType": "uint256[]",
          "name": "etherAmounts",
          "type": "uint256[]"
        }
      ],
      "name": "distributeVariousAmountsOfTokenAndETH",
      "outputs": [
        {
          "internalType": "bool",
          "name": "",
          "type": "bool"
        }
      ],
      "stateMutability": "payable",
      "type": "function"
    },
    {
      "inputs": [
        {
          "internalType": "address[]",
          "name": "accounts",
          "type": "address[]"
        }
      ],
      "name": "enableRequireAuthorization",
      "outputs": [],
      "stateMutability": "nonpayable",
      "type": "function"
    },
    {
      "inputs": [
        {
          "internalType": "address",
          "name": "to",
          "type": "address"
        },
        {
          "internalType": "uint256",
          "name": "amount",
          "type": "uint256"
        }
      ],
      "name": "inflate",
      "outputs": [],
      "stateMutability": "nonpayable",
      "type": "function"
    },
    {
      "inputs": [],
      "name": "name",
      "outputs": [
        {
          "internalType": "string",
          "name": "",
          "type": "string"
        }
      ],
      "stateMutability": "pure",
      "type": "function"
    },
    {
      "inputs": [
        {
          "internalType": "address",
          "name": "owner",
          "type": "address"
        }
      ],
      "name": "nonces",
      "outputs": [
        {
          "internalType": "uint256",
          "name": "",
          "type": "uint256"
        }
      ],
      "stateMutability": "view",
      "type": "function"
    },
    {
      "inputs": [
        {
          "internalType": "address",
          "name": "forAddress",
          "type": "address"
        },
        {
          "internalType": "address",
          "name": "to",
          "type": "address"
        },
        {
          "internalType": "uint256",
          "name": "amount",
          "type": "uint256"
        },
        {
          "internalType": "bytes",
          "name": "data",
          "type": "bytes"
        }
      ],
      "name": "payForAndCall",
      "outputs": [
        {
          "internalType": "bool",
          "name": "",
          "type": "bool"
        }
      ],
      "stateMutability": "nonpayable",
      "type": "function"
    },
    {
      "inputs": [
        {
          "internalType": "address",
          "name": "owner",
          "type": "address"
        },
        {
          "internalType": "address",
          "name": "spender",
          "type": "address"
        },
        {
          "internalType": "uint256",
          "name": "value",
          "type": "uint256"
        },
        {
          "internalType": "uint256",
          "name": "deadline",
          "type": "uint256"
        },
        {
          "internalType": "uint8",
          "name": "v",
          "type": "uint8"
        },
        {
          "internalType": "bytes32",
          "name": "r",
          "type": "bytes32"
        },
        {
          "internalType": "bytes32",
          "name": "s",
          "type": "bytes32"
        }
      ],
      "name": "permit",
      "outputs": [],
      "stateMutability": "nonpayable",
      "type": "function"
    },
    {
      "inputs": [
        {
          "internalType": "address",
          "name": "minter",
          "type": "address"
        }
      ],
      "name": "postUpgrade",
      "outputs": [],
      "stateMutability": "nonpayable",
      "type": "function"
    },
    {
      "inputs": [],
      "name": "requireAuthorization",
      "outputs": [
        {
          "internalType": "bool",
          "name": "",
          "type": "bool"
        }
      ],
      "stateMutability": "view",
      "type": "function"
    },
    {
      "inputs": [
        {
          "internalType": "bool",
          "name": "req",
          "type": "bool"
        }
      ],
      "name": "setRequireAuthorization",
      "outputs": [],
      "stateMutability": "nonpayable",
      "type": "function"
    },
    {
      "inputs": [],
      "name": "symbol",
      "outputs": [
        {
          "internalType": "string",
          "name": "",
          "type": "string"
        }
      ],
      "stateMutability": "view",
      "type": "function"
    },
    {
      "inputs": [],
      "name": "totalSupply",
      "outputs": [
        {
          "internalType": "uint256",
          "name": "",
          "type": "uint256"
        }
      ],
      "stateMutability": "view",
      "type": "function"
    },
    {
      "inputs": [
        {
          "internalType": "address",
          "name": "",
          "type": "address"
        }
      ],
      "name": "touched",
      "outputs": [
        {
          "internalType": "bool",
          "name": "",
          "type": "bool"
        }
      ],
      "stateMutability": "view",
      "type": "function"
    },
    {
      "inputs": [
        {
          "internalType": "address",
          "name": "to",
          "type": "address"
        },
        {
          "internalType": "uint256",
          "name": "amount",
          "type": "uint256"
        }
      ],
      "name": "transfer",
      "outputs": [
        {
          "internalType": "bool",
          "name": "",
          "type": "bool"
        }
      ],
      "stateMutability": "nonpayable",
      "type": "function"
    },
    {
      "inputs": [
        {
          "internalType": "address payable",
          "name": "to",
          "type": "address"
        },
        {
          "internalType": "uint256",
          "name": "amount",
          "type": "uint256"
        }
      ],
      "name": "transferAlongWithETH",
      "outputs": [
        {
          "internalType": "bool",
          "name": "",
          "type": "bool"
        }
      ],
      "stateMutability": "payable",
      "type": "function"
    },
    {
      "inputs": [
        {
          "internalType": "address",
          "name": "to",
          "type": "address"
        },
        {
          "internalType": "uint256",
          "name": "amount",
          "type": "uint256"
        },
        {
          "internalType": "bytes",
          "name": "data",
          "type": "bytes"
        }
      ],
      "name": "transferAndCall",
      "outputs": [
        {
          "internalType": "bool",
          "name": "",
          "type": "bool"
        }
      ],
      "stateMutability": "nonpayable",
      "type": "function"
    },
    {
      "inputs": [
        {
          "internalType": "address",
          "name": "from",
          "type": "address"
        },
        {
          "internalType": "address",
          "name": "to",
          "type": "address"
        },
        {
          "internalType": "uint256",
          "name": "amount",
          "type": "uint256"
        }
      ],
      "name": "transferFrom",
      "outputs": [
        {
          "internalType": "bool",
          "name": "",
          "type": "bool"
        }
      ],
      "stateMutability": "nonpayable",
      "type": "function"
    },
    {
      "inputs": [
        {
          "internalType": "address",
          "name": "from",
          "type": "address"
        },
        {
          "internalType": "address",
          "name": "to",
          "type": "address"
        },
        {
          "internalType": "uint256",
          "name": "amount",
          "type": "uint256"
        },
        {
          "internalType": "bytes",
          "name": "data",
          "type": "bytes"
        }
      ],
      "name": "transferFromAndCall",
      "outputs": [
        {
          "internalType": "bool",
          "name": "",
          "type": "bool"
        }
      ],
      "stateMutability": "nonpayable",
      "type": "function"
    }
  ],
  "transactionHash": "0x685ac9af62c8096846d4f3e52b19297cae047940964dcdcabe1e6cf802347f6b",
  "args": [
    "0xbE19B59E8C588d68f475A407C7BA5fE813AEb792"
  ],
  "numDeployments": 2,
  "solcInputHash": "503ae2e277f25b617639a80f1d58f8a6",
  "bytecode": "0x60a06040523480156200001157600080fd5b50604051620028e8380380620028e883398101604081905262000034916200017a565b6040805180820190915260018152603160f81b60208201527f91ab3d17e3a50a9d89e63fd30b92be7f5336b03b287bb946787a83a9d62a27666200009b60408051808201909152601081526f21b7b738bab2b9ba13b9902a37b5b2b760811b602082015290565b8051602091820120835184830120604080519384019490945292820152606081019190915230608082015260a00160408051601f19818403018152919052805160209091012060805250620000f081620000f7565b50620001ac565b600062000111600080516020620028c88339815191525490565b90506001600160a01b03811662000141576001600160a01b03600080516020620028c88339815191525562000157565b336001600160a01b038216146200015757600080fd5b50600480546001600160a01b0319166001600160a01b0392909216919091179055565b6000602082840312156200018d57600080fd5b81516001600160a01b0381168114620001a557600080fd5b9392505050565b6080516126f9620001cf600039600081816102cf0152610f6d01526126f96000f3fe6080604052600436106101c25760003560e01c806395d89b41116100f7578063cae9ca5111610095578063df752eed11610064578063df752eed146105bc578063e2c6fb4f146105cf578063e7fcb065146105ef578063fc72b9761461060257600080fd5b8063cae9ca511461052c578063d505accf1461054c578063dd62ed3e1461056c578063dd9835ec1461058c57600080fd5b8063a9aadaad116100d1578063a9aadaad1461049c578063b9181611146104bc578063c1d34b89146104ec578063c79b24301461050c57600080fd5b806395d89b4114610413578063a256bb9e1461045c578063a9059cbb1461047c57600080fd5b80633d3b26a61161016457806363d994c71161013e57806363d994c71461034d57806370a082311461036d5780637ecebe00146103b0578063876530c7146103f357600080fd5b80633d3b26a6146102f15780634000aea014610313578063480c84e11461033357600080fd5b806318160ddd116101a057806318160ddd1461026257806323b872dd14610281578063313ce567146102a15780633644e515146102bd57600080fd5b806306fdde03146101c7578063095ea7b31461021f5780630e02df541461024f575b600080fd5b3480156101d357600080fd5b5060408051808201909152601081527f436f6e7175657374277320546f6b656e0000000000000000000000000000000060208201525b6040516102169190611e3d565b60405180910390f35b34801561022b57600080fd5b5061023f61023a366004611ee5565b610615565b6040519015158152602001610216565b61023f61025d366004611f5d565b61062c565b34801561026e57600080fd5b506000545b604051908152602001610216565b34801561028d57600080fd5b5061023f61029c366004611fa9565b6107fa565b3480156102ad57600080fd5b5060405160128152602001610216565b3480156102c957600080fd5b506102737f000000000000000000000000000000000000000000000000000000000000000081565b3480156102fd57600080fd5b5061031161030c366004611ee5565b610811565b005b34801561031f57600080fd5b5061023f61032e36600461202c565b610843565b34801561033f57600080fd5b5060065461023f9060ff1681565b34801561035957600080fd5b5061023f610368366004612088565b610903565b34801561037957600080fd5b506102736103883660046120fb565b73ffffffffffffffffffffffffffffffffffffffff1660009081526001602052604090205490565b3480156103bc57600080fd5b506102736103cb3660046120fb565b73ffffffffffffffffffffffffffffffffffffffff1660009081526003602052604090205490565b3480156103ff57600080fd5b5061031161040e36600461221c565b6109c6565b34801561041f57600080fd5b506102096040518060400160405280600381526020017f435154000000000000000000000000000000000000000000000000000000000081525081565b34801561046857600080fd5b5061023f61047736600461226e565b610b13565b34801561048857600080fd5b5061023f610497366004611ee5565b610b92565b3480156104a857600080fd5b506103116104b73660046122ab565b610b9f565b3480156104c857600080fd5b5061023f6104d73660046120fb565b60056020526000908152604090205460ff1681565b3480156104f857600080fd5b5061023f610507366004612088565b610c86565b34801561051857600080fd5b506103116105273660046120fb565b610ceb565b34801561053857600080fd5b5061023f61054736600461202c565b610dd8565b34801561055857600080fd5b506103116105673660046122c8565b610e3b565b34801561057857600080fd5b5061027361058736600461233f565b61117b565b34801561059857600080fd5b5061023f6105a73660046120fb565b60076020526000908152604090205460ff1681565b61023f6105ca36600461236d565b6111fb565b3480156105db57600080fd5b506103116105ea3660046123cd565b6113b8565b61023f6105fd366004611ee5565b6114b7565b61023f61061036600461240f565b611506565b6000610622338484611799565b5060015b92915050565b60008061063984346124d8565b90506106458482612513565b34146106b2576040517f08c379a000000000000000000000000000000000000000000000000000000000815260206004820152601160248201527f494e56414c49445f4d53475f56414c554500000000000000000000000000000060448201526064015b60405180910390fd5b60006106be85856124d8565b90506106ca8582612513565b8414610732576040517f08c379a000000000000000000000000000000000000000000000000000000000815260206004820152601460248201527f494e56414c49445f544f54414c5f414d4f554e5400000000000000000000000060448201526064016106a9565b60005b858110156107ed5761076e3388888481811061075357610753612550565b905060200201602081019061076891906120fb565b846118a7565b86868281811061078057610780612550565b905060200201602081019061079591906120fb565b73ffffffffffffffffffffffffffffffffffffffff166108fc849081150290604051600060405180830381858888f193505050501580156107da573d6000803e3d6000fd5b50806107e58161257f565b915050610735565b5060019695505050505050565b6000610807848484611a01565b5060019392505050565b60045473ffffffffffffffffffffffffffffffffffffffff16331461083557600080fd5b61083f8282611b4d565b5050565b60006108503386866118a7565b6040517fa4c0ed3600000000000000000000000000000000000000000000000000000000815273ffffffffffffffffffffffffffffffffffffffff86169063a4c0ed36906108a8903390889088908890600401612601565b602060405180830381600087803b1580156108c257600080fd5b505af11580156108d6573d6000803e3d6000fd5b505050506040513d601f19601f820116820180604052508101906108fa9190612637565b95945050505050565b60006109103386866118a7565b6040517f9b6be06500000000000000000000000000000000000000000000000000000000815273ffffffffffffffffffffffffffffffffffffffff861690639b6be0659061096a9033908a90899089908990600401612654565b602060405180830381600087803b15801561098457600080fd5b505af1158015610998573d6000803e3d6000fd5b505050506040513d601f19601f820116820180604052508101906109bc9190612637565b9695505050505050565b7fb53127684a568b3173ae13b9f8a6016e243e63b6e8ee1178d6a717850b5d61035473ffffffffffffffffffffffffffffffffffffffff163373ffffffffffffffffffffffffffffffffffffffff1614610a7c576040517f08c379a000000000000000000000000000000000000000000000000000000000815260206004820152600960248201527f4e4f545f41444d494e000000000000000000000000000000000000000000000060448201526064016106a9565b60005b8251811015610b0e578160056000858481518110610a9f57610a9f612550565b60209081029190910181015173ffffffffffffffffffffffffffffffffffffffff16825281019190915260400160002080547fffffffffffffffffffffffffffffffffffffffffffffffffffffffffffffff001691151591909117905580610b068161257f565b915050610a7f565b505050565b6000805b8251811015610b895760056000848381518110610b3657610b36612550565b60209081029190910181015173ffffffffffffffffffffffffffffffffffffffff1682528101919091526040016000205460ff16610b775750600192915050565b80610b818161257f565b915050610b17565b50600092915050565b60006106223384846118a7565b7fb53127684a568b3173ae13b9f8a6016e243e63b6e8ee1178d6a717850b5d61035473ffffffffffffffffffffffffffffffffffffffff163373ffffffffffffffffffffffffffffffffffffffff1614610c55576040517f08c379a000000000000000000000000000000000000000000000000000000000815260206004820152600960248201527f4e4f545f41444d494e000000000000000000000000000000000000000000000060448201526064016106a9565b600680547fffffffffffffffffffffffffffffffffffffffffffffffffffffffffffffff0016911515919091179055565b6000610c93868686611a01565b6040517fa4c0ed3600000000000000000000000000000000000000000000000000000000815273ffffffffffffffffffffffffffffffffffffffff86169063a4c0ed369061096a908990889088908890600401612601565b6000610d157fb53127684a568b3173ae13b9f8a6016e243e63b6e8ee1178d6a717850b5d61035490565b905073ffffffffffffffffffffffffffffffffffffffff8116610d6e5773ffffffffffffffffffffffffffffffffffffffff7fb53127684a568b3173ae13b9f8a6016e243e63b6e8ee1178d6a717850b5d610355610d90565b3373ffffffffffffffffffffffffffffffffffffffff821614610d9057600080fd5b50600480547fffffffffffffffffffffffff00000000000000000000000000000000000000001673ffffffffffffffffffffffffffffffffffffffff92909216919091179055565b6000610de5338686611799565b6040517eba451f00000000000000000000000000000000000000000000000000000000815273ffffffffffffffffffffffffffffffffffffffff86169062ba451f906108a8903390889088908890600401612601565b73ffffffffffffffffffffffffffffffffffffffff8716610eb8576040517f08c379a000000000000000000000000000000000000000000000000000000000815260206004820152601460248201527f494e56414c49445f5a45524f5f4144445245535300000000000000000000000060448201526064016106a9565b73ffffffffffffffffffffffffffffffffffffffff87811660008181526003602090815260408083205481517f6e71edae12b1b97f4d1f60370fef10105fa2faae0126114a169c64845d6126c98185015280830195909552948b166060850152608084018a905260a0840185905260c08085018a90528151808603909101815260e0850190915280519101207f19010000000000000000000000000000000000000000000000000000000000006101008401527f00000000000000000000000000000000000000000000000000000000000000006101028401526101228301529061014201604080517fffffffffffffffffffffffffffffffffffffffffffffffffffffffffffffffe081840301815282825280516020918201206000845290830180835281905260ff8816918301919091526060820186905260808201859052915060019060a0016020604051602081039080840390855afa158015611023573d6000803e3d6000fd5b5050506020604051035173ffffffffffffffffffffffffffffffffffffffff168973ffffffffffffffffffffffffffffffffffffffff16146110c1576040517f08c379a000000000000000000000000000000000000000000000000000000000815260206004820152601160248201527f494e56414c49445f5349474e415455524500000000000000000000000000000060448201526064016106a9565b8515806110ce5750854211155b611134576040517f08c379a000000000000000000000000000000000000000000000000000000000815260206004820152600860248201527f544f4f5f4c41544500000000000000000000000000000000000000000000000060448201526064016106a9565b61113f826001612694565b73ffffffffffffffffffffffffffffffffffffffff8a16600090815260036020526040902055611170898989611799565b505050505050505050565b600073ffffffffffffffffffffffffffffffffffffffff83163014156111c257507fffffffffffffffffffffffffffffffffffffffffffffffffffffffffffffffff610626565b5073ffffffffffffffffffffffffffffffffffffffff918216600090815260026020908152604080832093909416825291909152205490565b60008061120885346124d8565b90506112148582612513565b341461127c576040517f08c379a000000000000000000000000000000000000000000000000000000000815260206004820152601160248201527f494e56414c49445f4d53475f56414c554500000000000000000000000000000060448201526064016106a9565b8483146112e5576040517f08c379a000000000000000000000000000000000000000000000000000000000815260206004820152600f60248201527f4e4f545f53414d455f4c454e475448000000000000000000000000000000000060448201526064016106a9565b60005b858110156107ed576113393388888481811061130657611306612550565b905060200201602081019061131b91906120fb565b87878581811061132d5761132d612550565b905060200201356118a7565b86868281811061134b5761134b612550565b905060200201602081019061136091906120fb565b73ffffffffffffffffffffffffffffffffffffffff166108fc839081150290604051600060405180830381858888f193505050501580156113a5573d6000803e3d6000fd5b50806113b08161257f565b9150506112e8565b7fb53127684a568b3173ae13b9f8a6016e243e63b6e8ee1178d6a717850b5d61035473ffffffffffffffffffffffffffffffffffffffff163373ffffffffffffffffffffffffffffffffffffffff161461146e576040517f08c379a000000000000000000000000000000000000000000000000000000000815260206004820152600960248201527f4e4f545f41444d494e000000000000000000000000000000000000000000000060448201526064016106a9565b6114786001610b9f565b61083f828280806020026020016040519081016040528093929190818152602001838360200280828437600092019190915250600192506109c6915050565b60006114c43384846118a7565b60405173ffffffffffffffffffffffffffffffffffffffff8416903480156108fc02916000818181858888f19350505050158015610807573d6000803e3d6000fd5b600080868514611572576040517f08c379a000000000000000000000000000000000000000000000000000000000815260206004820152601560248201527f544f4b454e5f4e4f545f53414d455f4c454e475448000000000000000000000060448201526064016106a9565b8683146115db576040517f08c379a000000000000000000000000000000000000000000000000000000000815260206004820152601360248201527f4554485f4e4f545f53414d455f4c454e4754480000000000000000000000000060448201526064016106a9565b60005b87811015611721578686828181106115f8576115f8612550565b9050602002013560001461164357611643338a8a8481811061161c5761161c612550565b905060200201602081019061163191906120fb565b89898581811061132d5761132d612550565b84848281811061165557611655612550565b9050602002013560001461170f5788888281811061167557611675612550565b905060200201602081019061168a91906120fb565b73ffffffffffffffffffffffffffffffffffffffff166108fc8686848181106116b5576116b5612550565b905060200201359081150290604051600060405180830381858888f193505050501580156116e7573d6000803e3d6000fd5b508484828181106116fa576116fa612550565b905060200201358261170c9190612694565b91505b806117198161257f565b9150506115de565b5080341461178b576040517f08c379a000000000000000000000000000000000000000000000000000000000815260206004820152601160248201527f494e56414c49445f4d53475f56414c554500000000000000000000000000000060448201526064016106a9565b506001979650505050505050565b73ffffffffffffffffffffffffffffffffffffffff8316158015906117d3575073ffffffffffffffffffffffffffffffffffffffff821615155b611839576040517f08c379a000000000000000000000000000000000000000000000000000000000815260206004820152601460248201527f494e56414c49445f5a45524f5f4144445245535300000000000000000000000060448201526064016106a9565b73ffffffffffffffffffffffffffffffffffffffff83811660008181526002602090815260408083209487168084529482529182902085905590518481527f8c5be1e5ebec7d5bd14f71427d1e84f3dd0314c0f7b2291e5b200ac8c7c3b925910160405180910390a3505050565b60065460ff1615806118de575073ffffffffffffffffffffffffffffffffffffffff831660009081526005602052604090205460ff165b8061190e575073ffffffffffffffffffffffffffffffffffffffff821660009081526005602052604090205460ff165b8061193f575073ffffffffffffffffffffffffffffffffffffffff821660009081526007602052604090205460ff16155b6119a5576040517f08c379a000000000000000000000000000000000000000000000000000000000815260206004820152601760248201527f4e4f545f415554484f52495a45445f5452414e5346455200000000000000000060448201526064016106a9565b6119b0838383611bef565b5073ffffffffffffffffffffffffffffffffffffffff16600090815260076020526040902080547fffffffffffffffffffffffffffffffffffffffffffffffffffffffffffffff0016600117905550565b3373ffffffffffffffffffffffffffffffffffffffff841614801590611a3d575073ffffffffffffffffffffffffffffffffffffffff83163014155b15611b425773ffffffffffffffffffffffffffffffffffffffff831660009081526002602090815260408083203384529091529020547fffffffffffffffffffffffffffffffffffffffffffffffffffffffffffffffff8114611b405781811015611b04576040517f08c379a000000000000000000000000000000000000000000000000000000000815260206004820152601760248201527f4e4f545f415554484f495a45445f414c4c4f57414e434500000000000000000060448201526064016106a9565b611b0e82826126ac565b73ffffffffffffffffffffffffffffffffffffffff851660009081526002602090815260408083203384529091529020555b505b610b0e8383836118a7565b80600080828254611b5e9190612694565b909155505073ffffffffffffffffffffffffffffffffffffffff821660009081526001602052604081208054839290611b98908490612694565b909155505060405181815273ffffffffffffffffffffffffffffffffffffffff8316906000907fddf252ad1be2c89b69c2b068fc378daa952ba7f163c4a11628f55a4df523b3ef9060200160405180910390a35050565b73ffffffffffffffffffffffffffffffffffffffff8216611c6c576040517f08c379a000000000000000000000000000000000000000000000000000000000815260206004820152601460248201527f494e56414c49445f5a45524f5f4144445245535300000000000000000000000060448201526064016106a9565b73ffffffffffffffffffffffffffffffffffffffff8216301415611cec576040517f08c379a000000000000000000000000000000000000000000000000000000000815260206004820152601460248201527f494e56414c49445f544849535f4144445245535300000000000000000000000060448201526064016106a9565b73ffffffffffffffffffffffffffffffffffffffff831660009081526001602052604090205481811015611d7c576040517f08c379a000000000000000000000000000000000000000000000000000000000815260206004820152601160248201527f4e4f545f454e4f5547485f544f4b454e5300000000000000000000000000000060448201526064016106a9565b611d8682826126ac565b73ffffffffffffffffffffffffffffffffffffffff8086166000908152600160205260408082209390935590851681529081208054849290611dc9908490612694565b925050819055508273ffffffffffffffffffffffffffffffffffffffff168473ffffffffffffffffffffffffffffffffffffffff167fddf252ad1be2c89b69c2b068fc378daa952ba7f163c4a11628f55a4df523b3ef84604051611e2f91815260200190565b60405180910390a350505050565b600060208083528351808285015260005b81811015611e6a57858101830151858201604001528201611e4e565b81811115611e7c576000604083870101525b50601f017fffffffffffffffffffffffffffffffffffffffffffffffffffffffffffffffe016929092016040019392505050565b73ffffffffffffffffffffffffffffffffffffffff81168114611ed257600080fd5b50565b8035611ee081611eb0565b919050565b60008060408385031215611ef857600080fd5b8235611f0381611eb0565b946020939093013593505050565b60008083601f840112611f2357600080fd5b50813567ffffffffffffffff811115611f3b57600080fd5b6020830191508360208260051b8501011115611f5657600080fd5b9250929050565b600080600060408486031215611f7257600080fd5b833567ffffffffffffffff811115611f8957600080fd5b611f9586828701611f11565b909790965060209590950135949350505050565b600080600060608486031215611fbe57600080fd5b8335611fc981611eb0565b92506020840135611fd981611eb0565b929592945050506040919091013590565b60008083601f840112611ffc57600080fd5b50813567ffffffffffffffff81111561201457600080fd5b602083019150836020828501011115611f5657600080fd5b6000806000806060858703121561204257600080fd5b843561204d81611eb0565b935060208501359250604085013567ffffffffffffffff81111561207057600080fd5b61207c87828801611fea565b95989497509550505050565b6000806000806000608086880312156120a057600080fd5b85356120ab81611eb0565b945060208601356120bb81611eb0565b935060408601359250606086013567ffffffffffffffff8111156120de57600080fd5b6120ea88828901611fea565b969995985093965092949392505050565b60006020828403121561210d57600080fd5b813561211881611eb0565b9392505050565b7f4e487b7100000000000000000000000000000000000000000000000000000000600052604160045260246000fd5b600082601f83011261215f57600080fd5b8135602067ffffffffffffffff8083111561217c5761217c61211f565b8260051b6040517fffffffffffffffffffffffffffffffffffffffffffffffffffffffffffffffe0603f830116810181811084821117156121bf576121bf61211f565b6040529384528581018301938381019250878511156121dd57600080fd5b83870191505b84821015612203576121f482611ed5565b835291830191908301906121e3565b979650505050505050565b8015158114611ed257600080fd5b6000806040838503121561222f57600080fd5b823567ffffffffffffffff81111561224657600080fd5b6122528582860161214e565b92505060208301356122638161220e565b809150509250929050565b60006020828403121561228057600080fd5b813567ffffffffffffffff81111561229757600080fd5b6122a38482850161214e565b949350505050565b6000602082840312156122bd57600080fd5b81356121188161220e565b600080600080600080600060e0888a0312156122e357600080fd5b87356122ee81611eb0565b965060208801356122fe81611eb0565b95506040880135945060608801359350608088013560ff8116811461232257600080fd5b9699959850939692959460a0840135945060c09093013592915050565b6000806040838503121561235257600080fd5b823561235d81611eb0565b9150602083013561226381611eb0565b6000806000806040858703121561238357600080fd5b843567ffffffffffffffff8082111561239b57600080fd5b6123a788838901611f11565b909650945060208701359150808211156123c057600080fd5b5061207c87828801611f11565b600080602083850312156123e057600080fd5b823567ffffffffffffffff8111156123f757600080fd5b61240385828601611f11565b90969095509350505050565b6000806000806000806060878903121561242857600080fd5b863567ffffffffffffffff8082111561244057600080fd5b61244c8a838b01611f11565b9098509650602089013591508082111561246557600080fd5b6124718a838b01611f11565b9096509450604089013591508082111561248a57600080fd5b5061249789828a01611f11565b979a9699509497509295939492505050565b7f4e487b7100000000000000000000000000000000000000000000000000000000600052601160045260246000fd5b60008261250e577f4e487b7100000000000000000000000000000000000000000000000000000000600052601260045260246000fd5b500490565b6000817fffffffffffffffffffffffffffffffffffffffffffffffffffffffffffffffff048311821515161561254b5761254b6124a9565b500290565b7f4e487b7100000000000000000000000000000000000000000000000000000000600052603260045260246000fd5b60007fffffffffffffffffffffffffffffffffffffffffffffffffffffffffffffffff8214156125b1576125b16124a9565b5060010190565b8183528181602085013750600060208284010152600060207fffffffffffffffffffffffffffffffffffffffffffffffffffffffffffffffe0601f840116840101905092915050565b73ffffffffffffffffffffffffffffffffffffffff851681528360208201526060604082015260006109bc6060830184866125b8565b60006020828403121561264957600080fd5b81516121188161220e565b600073ffffffffffffffffffffffffffffffffffffffff8088168352808716602084015250846040830152608060608301526122036080830184866125b8565b600082198211156126a7576126a76124a9565b500190565b6000828210156126be576126be6124a9565b50039056fea2646970667358221220c8a2eba044642d2e55508e5e35c204ff251a30eb63a53f563240662e2252dc7364736f6c63430008090033b53127684a568b3173ae13b9f8a6016e243e63b6e8ee1178d6a717850b5d6103",
  "devdoc": {
    "kind": "dev",
    "methods": {
      "allowance(address,address)": {
        "details": "Returns the remaining number of tokens that `spender` will be allowed to spend on behalf of `owner` through {transferFrom}. This is zero by default. This value changes when {approve} or {transferFrom} are called."
      },
      "approve(address,uint256)": {
        "details": "Sets `amount` as the allowance of `spender` over the caller's tokens. Returns a boolean value indicating whether the operation succeeded. IMPORTANT: Beware that changing an allowance with this method brings the risk that someone may use both the old and the new allowance by unfortunate transaction ordering. One possible solution to mitigate this race condition is to first reduce the spender's allowance to 0 and set the desired value afterwards: https://github.com/ethereum/EIPs/issues/20#issuecomment-263524729 Emits an {Approval} event."
      },
      "totalSupply()": {
        "details": "Returns the amount of tokens in existence."
      }
    },
    "version": 1
  },
  "userdoc": {
    "kind": "user",
    "methods": {},
    "version": 1
  },
  "storageLayout": {
    "storage": [
      {
        "astId": 13176,
        "contract": "src/conquest_token/ConquestToken.sol:ConquestToken",
        "label": "_totalSupply",
        "offset": 0,
        "slot": "0",
        "type": "t_uint256"
      },
      {
        "astId": 13180,
        "contract": "src/conquest_token/ConquestToken.sol:ConquestToken",
        "label": "_balances",
        "offset": 0,
        "slot": "1",
        "type": "t_mapping(t_address,t_uint256)"
      },
      {
        "astId": 13186,
        "contract": "src/conquest_token/ConquestToken.sol:ConquestToken",
        "label": "_allowances",
        "offset": 0,
        "slot": "2",
        "type": "t_mapping(t_address,t_mapping(t_address,t_uint256))"
      },
      {
        "astId": 14142,
        "contract": "src/conquest_token/ConquestToken.sol:ConquestToken",
        "label": "_nonces",
        "offset": 0,
        "slot": "3",
        "type": "t_mapping(t_address,t_uint256)"
      },
      {
        "astId": 15114,
        "contract": "src/conquest_token/ConquestToken.sol:ConquestToken",
        "label": "_minter",
        "offset": 0,
        "slot": "4",
        "type": "t_address"
      },
      {
        "astId": 15175,
        "contract": "src/conquest_token/ConquestToken.sol:ConquestToken",
        "label": "authorized",
        "offset": 0,
        "slot": "5",
        "type": "t_mapping(t_address,t_bool)"
      },
      {
        "astId": 15177,
        "contract": "src/conquest_token/ConquestToken.sol:ConquestToken",
        "label": "requireAuthorization",
        "offset": 0,
        "slot": "6",
        "type": "t_bool"
      },
      {
        "astId": 15181,
        "contract": "src/conquest_token/ConquestToken.sol:ConquestToken",
        "label": "touched",
        "offset": 0,
        "slot": "7",
        "type": "t_mapping(t_address,t_bool)"
      }
    ],
    "types": {
      "t_address": {
        "encoding": "inplace",
        "label": "address",
        "numberOfBytes": "20"
      },
      "t_bool": {
        "encoding": "inplace",
        "label": "bool",
        "numberOfBytes": "1"
      },
      "t_mapping(t_address,t_bool)": {
        "encoding": "mapping",
        "key": "t_address",
        "label": "mapping(address => bool)",
        "numberOfBytes": "32",
        "value": "t_bool"
      },
      "t_mapping(t_address,t_mapping(t_address,t_uint256))": {
        "encoding": "mapping",
        "key": "t_address",
        "label": "mapping(address => mapping(address => uint256))",
        "numberOfBytes": "32",
        "value": "t_mapping(t_address,t_uint256)"
      },
      "t_mapping(t_address,t_uint256)": {
        "encoding": "mapping",
        "key": "t_address",
        "label": "mapping(address => uint256)",
        "numberOfBytes": "32",
        "value": "t_uint256"
      },
      "t_uint256": {
        "encoding": "inplace",
        "label": "uint256",
        "numberOfBytes": "32"
      }
    }
  }
}