{
  "address": "0x8994A2145005718308aDE363715D4455f973F3D7",
  "abi": [
    {
      "inputs": [
        {
          "internalType": "address",
          "name": "gateway",
          "type": "address"
        },
        {
          "internalType": "address",
          "name": "l2Contract",
          "type": "address"
        }
      ],
      "stateMutability": "nonpayable",
      "type": "constructor"
    },
    {
      "anonymous": false,
      "inputs": [
        {
          "indexed": true,
          "internalType": "address",
          "name": "owner",
          "type": "address"
        },
        {
          "indexed": true,
          "internalType": "address",
          "name": "spender",
          "type": "address"
        },
        {
          "indexed": false,
          "internalType": "uint256",
          "name": "value",
          "type": "uint256"
        }
      ],
      "name": "Approval",
      "type": "event"
    },
    {
      "anonymous": false,
      "inputs": [
        {
          "indexed": true,
          "internalType": "address",
          "name": "from",
          "type": "address"
        },
        {
          "indexed": true,
          "internalType": "address",
          "name": "to",
          "type": "address"
        },
        {
          "indexed": false,
          "internalType": "uint256",
          "name": "value",
          "type": "uint256"
        }
      ],
      "name": "Transfer",
      "type": "event"
    },
    {
      "inputs": [],
      "name": "DOMAIN_SEPARATOR",
      "outputs": [
        {
          "internalType": "bytes32",
          "name": "",
          "type": "bytes32"
        }
      ],
      "stateMutability": "view",
      "type": "function"
    },
    {
      "inputs": [
        {
          "internalType": "address",
          "name": "owner",
          "type": "address"
        },
        {
          "internalType": "address",
          "name": "spender",
          "type": "address"
        }
      ],
      "name": "allowance",
      "outputs": [
        {
          "internalType": "uint256",
          "name": "",
          "type": "uint256"
        }
      ],
      "stateMutability": "view",
      "type": "function"
    },
    {
      "inputs": [
        {
          "internalType": "address[]",
          "name": "accounts",
          "type": "address[]"
        }
      ],
      "name": "anyNotAuthorized",
      "outputs": [
        {
          "internalType": "bool",
          "name": "",
          "type": "bool"
        }
      ],
      "stateMutability": "view",
      "type": "function"
    },
    {
      "inputs": [
        {
          "internalType": "address",
          "name": "spender",
          "type": "address"
        },
        {
          "internalType": "uint256",
          "name": "amount",
          "type": "uint256"
        }
      ],
      "name": "approve",
      "outputs": [
        {
          "internalType": "bool",
          "name": "",
          "type": "bool"
        }
      ],
      "stateMutability": "nonpayable",
      "type": "function"
    },
    {
      "inputs": [
        {
          "internalType": "address",
          "name": "spender",
          "type": "address"
        },
        {
          "internalType": "uint256",
          "name": "amount",
          "type": "uint256"
        },
        {
          "internalType": "bytes",
          "name": "data",
          "type": "bytes"
        }
      ],
      "name": "approveAndCall",
      "outputs": [
        {
          "internalType": "bool",
          "name": "",
          "type": "bool"
        }
      ],
      "stateMutability": "nonpayable",
      "type": "function"
    },
    {
      "inputs": [
        {
          "internalType": "address[]",
          "name": "accounts",
          "type": "address[]"
        },
        {
          "internalType": "bool",
          "name": "auth",
          "type": "bool"
        }
      ],
      "name": "authorize",
      "outputs": [],
      "stateMutability": "nonpayable",
      "type": "function"
    },
    {
      "inputs": [
        {
          "internalType": "address",
          "name": "",
          "type": "address"
        }
      ],
      "name": "authorized",
      "outputs": [
        {
          "internalType": "bool",
          "name": "",
          "type": "bool"
        }
      ],
      "stateMutability": "view",
      "type": "function"
    },
    {
      "inputs": [
        {
          "internalType": "address",
          "name": "owner",
          "type": "address"
        }
      ],
      "name": "balanceOf",
      "outputs": [
        {
          "internalType": "uint256",
          "name": "",
          "type": "uint256"
        }
      ],
      "stateMutability": "view",
      "type": "function"
    },
    {
      "inputs": [],
      "name": "decimals",
      "outputs": [
        {
          "internalType": "uint8",
          "name": "",
          "type": "uint8"
        }
      ],
      "stateMutability": "pure",
      "type": "function"
    },
    {
      "inputs": [
        {
          "internalType": "address payable[]",
          "name": "tos",
          "type": "address[]"
        },
        {
          "internalType": "uint256",
          "name": "totalAmount",
          "type": "uint256"
        }
      ],
      "name": "distributeAlongWithETH",
      "outputs": [
        {
          "internalType": "bool",
          "name": "",
          "type": "bool"
        }
      ],
      "stateMutability": "payable",
      "type": "function"
    },
    {
      "inputs": [
        {
          "internalType": "address payable[]",
          "name": "tos",
          "type": "address[]"
        },
        {
          "internalType": "uint256[]",
          "name": "amounts",
          "type": "uint256[]"
        }
      ],
      "name": "distributeVariousAmountsAlongWithETH",
      "outputs": [
        {
          "internalType": "bool",
          "name": "",
          "type": "bool"
        }
      ],
      "stateMutability": "payable",
      "type": "function"
    },
    {
      "inputs": [
        {
          "internalType": "address payable[]",
          "name": "tos",
          "type": "address[]"
        },
        {
          "internalType": "uint256[]",
          "name": "tokenAmounts",
          "type": "uint256[]"
        },
        {
          "internalType": "uint256[]",
          "name": "etherAmounts",
          "type": "uint256[]"
        }
      ],
      "name": "distributeVariousAmountsOfTokenAndETH",
      "outputs": [
        {
          "internalType": "bool",
          "name": "",
          "type": "bool"
        }
      ],
      "stateMutability": "payable",
      "type": "function"
    },
    {
      "inputs": [
        {
          "internalType": "address[]",
          "name": "accounts",
          "type": "address[]"
        }
      ],
      "name": "enableRequireAuthorization",
      "outputs": [],
      "stateMutability": "nonpayable",
      "type": "function"
    },
    {
      "inputs": [],
      "name": "name",
      "outputs": [
        {
          "internalType": "string",
          "name": "",
          "type": "string"
        }
      ],
      "stateMutability": "pure",
      "type": "function"
    },
    {
      "inputs": [
        {
          "internalType": "address",
          "name": "owner",
          "type": "address"
        }
      ],
      "name": "nonces",
      "outputs": [
        {
          "internalType": "uint256",
          "name": "",
          "type": "uint256"
        }
      ],
      "stateMutability": "view",
      "type": "function"
    },
    {
      "inputs": [
        {
          "internalType": "address",
          "name": "forAddress",
          "type": "address"
        },
        {
          "internalType": "address",
          "name": "to",
          "type": "address"
        },
        {
          "internalType": "uint256",
          "name": "amount",
          "type": "uint256"
        },
        {
          "internalType": "bytes",
          "name": "data",
          "type": "bytes"
        }
      ],
      "name": "payForAndCall",
      "outputs": [
        {
          "internalType": "bool",
          "name": "",
          "type": "bool"
        }
      ],
      "stateMutability": "nonpayable",
      "type": "function"
    },
    {
      "inputs": [
        {
          "internalType": "address",
          "name": "owner",
          "type": "address"
        },
        {
          "internalType": "address",
          "name": "spender",
          "type": "address"
        },
        {
          "internalType": "uint256",
          "name": "value",
          "type": "uint256"
        },
        {
          "internalType": "uint256",
          "name": "deadline",
          "type": "uint256"
        },
        {
          "internalType": "uint8",
          "name": "v",
          "type": "uint8"
        },
        {
          "internalType": "bytes32",
          "name": "r",
          "type": "bytes32"
        },
        {
          "internalType": "bytes32",
          "name": "s",
          "type": "bytes32"
        }
      ],
      "name": "permit",
      "outputs": [],
      "stateMutability": "nonpayable",
      "type": "function"
    },
    {
      "inputs": [],
      "name": "requireAuthorization",
      "outputs": [
        {
          "internalType": "bool",
          "name": "",
          "type": "bool"
        }
      ],
      "stateMutability": "view",
      "type": "function"
    },
    {
      "inputs": [
        {
          "internalType": "bool",
          "name": "req",
          "type": "bool"
        }
      ],
      "name": "setRequireAuthorization",
      "outputs": [],
      "stateMutability": "nonpayable",
      "type": "function"
    },
    {
      "inputs": [],
      "name": "symbol",
      "outputs": [
        {
          "internalType": "string",
          "name": "",
          "type": "string"
        }
      ],
      "stateMutability": "view",
      "type": "function"
    },
    {
      "inputs": [],
      "name": "totalSupply",
      "outputs": [
        {
          "internalType": "uint256",
          "name": "",
          "type": "uint256"
        }
      ],
      "stateMutability": "view",
      "type": "function"
    },
    {
      "inputs": [
        {
          "internalType": "address",
          "name": "",
          "type": "address"
        }
      ],
      "name": "touched",
      "outputs": [
        {
          "internalType": "bool",
          "name": "",
          "type": "bool"
        }
      ],
      "stateMutability": "view",
      "type": "function"
    },
    {
      "inputs": [
        {
          "internalType": "address",
          "name": "to",
          "type": "address"
        },
        {
          "internalType": "uint256",
          "name": "amount",
          "type": "uint256"
        }
      ],
      "name": "transfer",
      "outputs": [
        {
          "internalType": "bool",
          "name": "",
          "type": "bool"
        }
      ],
      "stateMutability": "nonpayable",
      "type": "function"
    },
    {
      "inputs": [
        {
          "internalType": "address payable",
          "name": "to",
          "type": "address"
        },
        {
          "internalType": "uint256",
          "name": "amount",
          "type": "uint256"
        }
      ],
      "name": "transferAlongWithETH",
      "outputs": [
        {
          "internalType": "bool",
          "name": "",
          "type": "bool"
        }
      ],
      "stateMutability": "payable",
      "type": "function"
    },
    {
      "inputs": [
        {
          "internalType": "address",
          "name": "to",
          "type": "address"
        },
        {
          "internalType": "uint256",
          "name": "amount",
          "type": "uint256"
        },
        {
          "internalType": "bytes",
          "name": "data",
          "type": "bytes"
        }
      ],
      "name": "transferAndCall",
      "outputs": [
        {
          "internalType": "bool",
          "name": "",
          "type": "bool"
        }
      ],
      "stateMutability": "nonpayable",
      "type": "function"
    },
    {
      "inputs": [
        {
          "internalType": "address",
          "name": "from",
          "type": "address"
        },
        {
          "internalType": "address",
          "name": "to",
          "type": "address"
        },
        {
          "internalType": "uint256",
          "name": "amount",
          "type": "uint256"
        }
      ],
      "name": "transferFrom",
      "outputs": [
        {
          "internalType": "bool",
          "name": "",
          "type": "bool"
        }
      ],
      "stateMutability": "nonpayable",
      "type": "function"
    },
    {
      "inputs": [
        {
          "internalType": "address",
          "name": "from",
          "type": "address"
        },
        {
          "internalType": "address",
          "name": "to",
          "type": "address"
        },
        {
          "internalType": "uint256",
          "name": "amount",
          "type": "uint256"
        },
        {
          "internalType": "bytes",
          "name": "data",
          "type": "bytes"
        }
      ],
      "name": "transferFromAndCall",
      "outputs": [
        {
          "internalType": "bool",
          "name": "",
          "type": "bool"
        }
      ],
      "stateMutability": "nonpayable",
      "type": "function"
    }
  ],
  "transactionHash": "0xd0dbfbdfea4ea6a18becfbec34307061b42b6c6957759e39586cdff95c88e79c",
  "args": [
    "0x0000000000000000000000000000000000000000",
    "0x0000000000000000000000000000000000000000"
  ],
  "numDeployments": 2,
  "solcInputHash": "503ae2e277f25b617639a80f1d58f8a6",
  "bytecode": "0x60e06040523480156200001157600080fd5b506040516200267638038062002676833981016040819052620000349162000127565b6040805180820190915260018152603160f81b60208201527f91ab3d17e3a50a9d89e63fd30b92be7f5336b03b287bb946787a83a9d62a2766620000a860408051808201909152601981527f436f6e7175657374277320546f6b656e20466f72207864616900000000000000602082015290565b8051602091820120835184830120604080519384019490945292820152606081019190915230608082015260a00160408051601f198184030181529190528051602090910120608052506001600160a01b0391821660a0521660c0526200015f565b80516001600160a01b03811681146200012257600080fd5b919050565b600080604083850312156200013b57600080fd5b62000146836200010a565b915062000156602084016200010a565b90509250929050565b60805160a05160c0516124e6620001906000396000505060005050600081816102b90152610df801526124e66000f3fe6080604052600436106101ac5760003560e01c806395d89b41116100ec578063d505accf1161008a578063df752eed11610064578063df752eed14610566578063e2c6fb4f14610579578063e7fcb06514610599578063fc72b976146105ac57600080fd5b8063d505accf146104f6578063dd62ed3e14610516578063dd9835ec1461053657600080fd5b8063a9aadaad116100c6578063a9aadaad14610466578063b918161114610486578063c1d34b89146104b6578063cae9ca51146104d657600080fd5b806395d89b41146103dd578063a256bb9e14610426578063a9059cbb1461044657600080fd5b80633644e5151161015957806363d994c71161013357806363d994c71461031557806370a08231146103355780637ecebe0014610378578063876530c7146103bb57600080fd5b80633644e515146102a75780634000aea0146102db578063480c84e1146102fb57600080fd5b806318160ddd1161018a57806318160ddd1461024c57806323b872dd1461026b578063313ce5671461028b57600080fd5b806306fdde03146101b1578063095ea7b3146102095780630e02df5414610239575b600080fd5b3480156101bd57600080fd5b5060408051808201909152601981527f436f6e7175657374277320546f6b656e20466f7220786461690000000000000060208201525b6040516102009190611c2a565b60405180910390f35b34801561021557600080fd5b50610229610224366004611cd2565b6105bf565b6040519015158152602001610200565b610229610247366004611d4a565b6105d6565b34801561025857600080fd5b506000545b604051908152602001610200565b34801561027757600080fd5b50610229610286366004611d96565b6107a4565b34801561029757600080fd5b5060405160128152602001610200565b3480156102b357600080fd5b5061025d7f000000000000000000000000000000000000000000000000000000000000000081565b3480156102e757600080fd5b506102296102f6366004611e19565b6107bb565b34801561030757600080fd5b506005546102299060ff1681565b34801561032157600080fd5b50610229610330366004611e75565b61087b565b34801561034157600080fd5b5061025d610350366004611ee8565b73ffffffffffffffffffffffffffffffffffffffff1660009081526001602052604090205490565b34801561038457600080fd5b5061025d610393366004611ee8565b73ffffffffffffffffffffffffffffffffffffffff1660009081526003602052604090205490565b3480156103c757600080fd5b506103db6103d6366004612009565b61093e565b005b3480156103e957600080fd5b506101f36040518060400160405280600481526020017f584351540000000000000000000000000000000000000000000000000000000081525081565b34801561043257600080fd5b5061022961044136600461205b565b610a8b565b34801561045257600080fd5b50610229610461366004611cd2565b610b0a565b34801561047257600080fd5b506103db610481366004612098565b610b17565b34801561049257600080fd5b506102296104a1366004611ee8565b60046020526000908152604090205460ff1681565b3480156104c257600080fd5b506102296104d1366004611e75565b610bfe565b3480156104e257600080fd5b506102296104f1366004611e19565b610c63565b34801561050257600080fd5b506103db6105113660046120b5565b610cc6565b34801561052257600080fd5b5061025d61053136600461212c565b611006565b34801561054257600080fd5b50610229610551366004611ee8565b60066020526000908152604090205460ff1681565b61022961057436600461215a565b611086565b34801561058557600080fd5b506103db6105943660046121ba565b611243565b6102296105a7366004611cd2565b611346565b6102296105ba3660046121fc565b611395565b60006105cc338484611628565b5060015b92915050565b6000806105e384346122c5565b90506105ef8482612300565b341461065c576040517f08c379a000000000000000000000000000000000000000000000000000000000815260206004820152601160248201527f494e56414c49445f4d53475f56414c554500000000000000000000000000000060448201526064015b60405180910390fd5b600061066885856122c5565b90506106748582612300565b84146106dc576040517f08c379a000000000000000000000000000000000000000000000000000000000815260206004820152601460248201527f494e56414c49445f544f54414c5f414d4f554e540000000000000000000000006044820152606401610653565b60005b8581101561079757610718338888848181106106fd576106fd61233d565b90506020020160208101906107129190611ee8565b84611736565b86868281811061072a5761072a61233d565b905060200201602081019061073f9190611ee8565b73ffffffffffffffffffffffffffffffffffffffff166108fc849081150290604051600060405180830381858888f19350505050158015610784573d6000803e3d6000fd5b508061078f8161236c565b9150506106df565b5060019695505050505050565b60006107b1848484611890565b5060019392505050565b60006107c8338686611736565b6040517fa4c0ed3600000000000000000000000000000000000000000000000000000000815273ffffffffffffffffffffffffffffffffffffffff86169063a4c0ed36906108209033908890889088906004016123ee565b602060405180830381600087803b15801561083a57600080fd5b505af115801561084e573d6000803e3d6000fd5b505050506040513d601f19601f820116820180604052508101906108729190612424565b95945050505050565b6000610888338686611736565b6040517f9b6be06500000000000000000000000000000000000000000000000000000000815273ffffffffffffffffffffffffffffffffffffffff861690639b6be065906108e29033908a90899089908990600401612441565b602060405180830381600087803b1580156108fc57600080fd5b505af1158015610910573d6000803e3d6000fd5b505050506040513d601f19601f820116820180604052508101906109349190612424565b9695505050505050565b7fb53127684a568b3173ae13b9f8a6016e243e63b6e8ee1178d6a717850b5d61035473ffffffffffffffffffffffffffffffffffffffff163373ffffffffffffffffffffffffffffffffffffffff16146109f4576040517f08c379a000000000000000000000000000000000000000000000000000000000815260206004820152600960248201527f4e4f545f41444d494e00000000000000000000000000000000000000000000006044820152606401610653565b60005b8251811015610a86578160046000858481518110610a1757610a1761233d565b60209081029190910181015173ffffffffffffffffffffffffffffffffffffffff16825281019190915260400160002080547fffffffffffffffffffffffffffffffffffffffffffffffffffffffffffffff001691151591909117905580610a7e8161236c565b9150506109f7565b505050565b6000805b8251811015610b015760046000848381518110610aae57610aae61233d565b60209081029190910181015173ffffffffffffffffffffffffffffffffffffffff1682528101919091526040016000205460ff16610aef5750600192915050565b80610af98161236c565b915050610a8f565b50600092915050565b60006105cc338484611736565b7fb53127684a568b3173ae13b9f8a6016e243e63b6e8ee1178d6a717850b5d61035473ffffffffffffffffffffffffffffffffffffffff163373ffffffffffffffffffffffffffffffffffffffff1614610bcd576040517f08c379a000000000000000000000000000000000000000000000000000000000815260206004820152600960248201527f4e4f545f41444d494e00000000000000000000000000000000000000000000006044820152606401610653565b600580547fffffffffffffffffffffffffffffffffffffffffffffffffffffffffffffff0016911515919091179055565b6000610c0b868686611890565b6040517fa4c0ed3600000000000000000000000000000000000000000000000000000000815273ffffffffffffffffffffffffffffffffffffffff86169063a4c0ed36906108e29089908890889088906004016123ee565b6000610c70338686611628565b6040517eba451f00000000000000000000000000000000000000000000000000000000815273ffffffffffffffffffffffffffffffffffffffff86169062ba451f906108209033908890889088906004016123ee565b73ffffffffffffffffffffffffffffffffffffffff8716610d43576040517f08c379a000000000000000000000000000000000000000000000000000000000815260206004820152601460248201527f494e56414c49445f5a45524f5f414444524553530000000000000000000000006044820152606401610653565b73ffffffffffffffffffffffffffffffffffffffff87811660008181526003602090815260408083205481517f6e71edae12b1b97f4d1f60370fef10105fa2faae0126114a169c64845d6126c98185015280830195909552948b166060850152608084018a905260a0840185905260c08085018a90528151808603909101815260e0850190915280519101207f19010000000000000000000000000000000000000000000000000000000000006101008401527f00000000000000000000000000000000000000000000000000000000000000006101028401526101228301529061014201604080517fffffffffffffffffffffffffffffffffffffffffffffffffffffffffffffffe081840301815282825280516020918201206000845290830180835281905260ff8816918301919091526060820186905260808201859052915060019060a0016020604051602081039080840390855afa158015610eae573d6000803e3d6000fd5b5050506020604051035173ffffffffffffffffffffffffffffffffffffffff168973ffffffffffffffffffffffffffffffffffffffff1614610f4c576040517f08c379a000000000000000000000000000000000000000000000000000000000815260206004820152601160248201527f494e56414c49445f5349474e41545552450000000000000000000000000000006044820152606401610653565b851580610f595750854211155b610fbf576040517f08c379a000000000000000000000000000000000000000000000000000000000815260206004820152600860248201527f544f4f5f4c4154450000000000000000000000000000000000000000000000006044820152606401610653565b610fca826001612481565b73ffffffffffffffffffffffffffffffffffffffff8a16600090815260036020526040902055610ffb898989611628565b505050505050505050565b600073ffffffffffffffffffffffffffffffffffffffff831630141561104d57507fffffffffffffffffffffffffffffffffffffffffffffffffffffffffffffffff6105d0565b5073ffffffffffffffffffffffffffffffffffffffff918216600090815260026020908152604080832093909416825291909152205490565b60008061109385346122c5565b905061109f8582612300565b3414611107576040517f08c379a000000000000000000000000000000000000000000000000000000000815260206004820152601160248201527f494e56414c49445f4d53475f56414c55450000000000000000000000000000006044820152606401610653565b848314611170576040517f08c379a000000000000000000000000000000000000000000000000000000000815260206004820152600f60248201527f4e4f545f53414d455f4c454e47544800000000000000000000000000000000006044820152606401610653565b60005b85811015610797576111c4338888848181106111915761119161233d565b90506020020160208101906111a69190611ee8565b8787858181106111b8576111b861233d565b90506020020135611736565b8686828181106111d6576111d661233d565b90506020020160208101906111eb9190611ee8565b73ffffffffffffffffffffffffffffffffffffffff166108fc839081150290604051600060405180830381858888f19350505050158015611230573d6000803e3d6000fd5b508061123b8161236c565b915050611173565b7fb53127684a568b3173ae13b9f8a6016e243e63b6e8ee1178d6a717850b5d61035473ffffffffffffffffffffffffffffffffffffffff163373ffffffffffffffffffffffffffffffffffffffff16146112f9576040517f08c379a000000000000000000000000000000000000000000000000000000000815260206004820152600960248201527f4e4f545f41444d494e00000000000000000000000000000000000000000000006044820152606401610653565b6113036001610b17565b6113428282808060200260200160405190810160405280939291908181526020018383602002808284376000920191909152506001925061093e915050565b5050565b6000611353338484611736565b60405173ffffffffffffffffffffffffffffffffffffffff8416903480156108fc02916000818181858888f193505050501580156107b1573d6000803e3d6000fd5b600080868514611401576040517f08c379a000000000000000000000000000000000000000000000000000000000815260206004820152601560248201527f544f4b454e5f4e4f545f53414d455f4c454e47544800000000000000000000006044820152606401610653565b86831461146a576040517f08c379a000000000000000000000000000000000000000000000000000000000815260206004820152601360248201527f4554485f4e4f545f53414d455f4c454e475448000000000000000000000000006044820152606401610653565b60005b878110156115b0578686828181106114875761148761233d565b905060200201356000146114d2576114d2338a8a848181106114ab576114ab61233d565b90506020020160208101906114c09190611ee8565b8989858181106111b8576111b861233d565b8484828181106114e4576114e461233d565b9050602002013560001461159e578888828181106115045761150461233d565b90506020020160208101906115199190611ee8565b73ffffffffffffffffffffffffffffffffffffffff166108fc8686848181106115445761154461233d565b905060200201359081150290604051600060405180830381858888f19350505050158015611576573d6000803e3d6000fd5b508484828181106115895761158961233d565b905060200201358261159b9190612481565b91505b806115a88161236c565b91505061146d565b5080341461161a576040517f08c379a000000000000000000000000000000000000000000000000000000000815260206004820152601160248201527f494e56414c49445f4d53475f56414c55450000000000000000000000000000006044820152606401610653565b506001979650505050505050565b73ffffffffffffffffffffffffffffffffffffffff831615801590611662575073ffffffffffffffffffffffffffffffffffffffff821615155b6116c8576040517f08c379a000000000000000000000000000000000000000000000000000000000815260206004820152601460248201527f494e56414c49445f5a45524f5f414444524553530000000000000000000000006044820152606401610653565b73ffffffffffffffffffffffffffffffffffffffff83811660008181526002602090815260408083209487168084529482529182902085905590518481527f8c5be1e5ebec7d5bd14f71427d1e84f3dd0314c0f7b2291e5b200ac8c7c3b925910160405180910390a3505050565b60055460ff16158061176d575073ffffffffffffffffffffffffffffffffffffffff831660009081526004602052604090205460ff165b8061179d575073ffffffffffffffffffffffffffffffffffffffff821660009081526004602052604090205460ff165b806117ce575073ffffffffffffffffffffffffffffffffffffffff821660009081526006602052604090205460ff16155b611834576040517f08c379a000000000000000000000000000000000000000000000000000000000815260206004820152601760248201527f4e4f545f415554484f52495a45445f5452414e534645520000000000000000006044820152606401610653565b61183f8383836119dc565b5073ffffffffffffffffffffffffffffffffffffffff16600090815260066020526040902080547fffffffffffffffffffffffffffffffffffffffffffffffffffffffffffffff0016600117905550565b3373ffffffffffffffffffffffffffffffffffffffff8416148015906118cc575073ffffffffffffffffffffffffffffffffffffffff83163014155b156119d15773ffffffffffffffffffffffffffffffffffffffff831660009081526002602090815260408083203384529091529020547fffffffffffffffffffffffffffffffffffffffffffffffffffffffffffffffff81146119cf5781811015611993576040517f08c379a000000000000000000000000000000000000000000000000000000000815260206004820152601760248201527f4e4f545f415554484f495a45445f414c4c4f57414e43450000000000000000006044820152606401610653565b61199d8282612499565b73ffffffffffffffffffffffffffffffffffffffff851660009081526002602090815260408083203384529091529020555b505b610a86838383611736565b73ffffffffffffffffffffffffffffffffffffffff8216611a59576040517f08c379a000000000000000000000000000000000000000000000000000000000815260206004820152601460248201527f494e56414c49445f5a45524f5f414444524553530000000000000000000000006044820152606401610653565b73ffffffffffffffffffffffffffffffffffffffff8216301415611ad9576040517f08c379a000000000000000000000000000000000000000000000000000000000815260206004820152601460248201527f494e56414c49445f544849535f414444524553530000000000000000000000006044820152606401610653565b73ffffffffffffffffffffffffffffffffffffffff831660009081526001602052604090205481811015611b69576040517f08c379a000000000000000000000000000000000000000000000000000000000815260206004820152601160248201527f4e4f545f454e4f5547485f544f4b454e530000000000000000000000000000006044820152606401610653565b611b738282612499565b73ffffffffffffffffffffffffffffffffffffffff8086166000908152600160205260408082209390935590851681529081208054849290611bb6908490612481565b925050819055508273ffffffffffffffffffffffffffffffffffffffff168473ffffffffffffffffffffffffffffffffffffffff167fddf252ad1be2c89b69c2b068fc378daa952ba7f163c4a11628f55a4df523b3ef84604051611c1c91815260200190565b60405180910390a350505050565b600060208083528351808285015260005b81811015611c5757858101830151858201604001528201611c3b565b81811115611c69576000604083870101525b50601f017fffffffffffffffffffffffffffffffffffffffffffffffffffffffffffffffe016929092016040019392505050565b73ffffffffffffffffffffffffffffffffffffffff81168114611cbf57600080fd5b50565b8035611ccd81611c9d565b919050565b60008060408385031215611ce557600080fd5b8235611cf081611c9d565b946020939093013593505050565b60008083601f840112611d1057600080fd5b50813567ffffffffffffffff811115611d2857600080fd5b6020830191508360208260051b8501011115611d4357600080fd5b9250929050565b600080600060408486031215611d5f57600080fd5b833567ffffffffffffffff811115611d7657600080fd5b611d8286828701611cfe565b909790965060209590950135949350505050565b600080600060608486031215611dab57600080fd5b8335611db681611c9d565b92506020840135611dc681611c9d565b929592945050506040919091013590565b60008083601f840112611de957600080fd5b50813567ffffffffffffffff811115611e0157600080fd5b602083019150836020828501011115611d4357600080fd5b60008060008060608587031215611e2f57600080fd5b8435611e3a81611c9d565b935060208501359250604085013567ffffffffffffffff811115611e5d57600080fd5b611e6987828801611dd7565b95989497509550505050565b600080600080600060808688031215611e8d57600080fd5b8535611e9881611c9d565b94506020860135611ea881611c9d565b935060408601359250606086013567ffffffffffffffff811115611ecb57600080fd5b611ed788828901611dd7565b969995985093965092949392505050565b600060208284031215611efa57600080fd5b8135611f0581611c9d565b9392505050565b7f4e487b7100000000000000000000000000000000000000000000000000000000600052604160045260246000fd5b600082601f830112611f4c57600080fd5b8135602067ffffffffffffffff80831115611f6957611f69611f0c565b8260051b6040517fffffffffffffffffffffffffffffffffffffffffffffffffffffffffffffffe0603f83011681018181108482111715611fac57611fac611f0c565b604052938452858101830193838101925087851115611fca57600080fd5b83870191505b84821015611ff057611fe182611cc2565b83529183019190830190611fd0565b979650505050505050565b8015158114611cbf57600080fd5b6000806040838503121561201c57600080fd5b823567ffffffffffffffff81111561203357600080fd5b61203f85828601611f3b565b925050602083013561205081611ffb565b809150509250929050565b60006020828403121561206d57600080fd5b813567ffffffffffffffff81111561208457600080fd5b61209084828501611f3b565b949350505050565b6000602082840312156120aa57600080fd5b8135611f0581611ffb565b600080600080600080600060e0888a0312156120d057600080fd5b87356120db81611c9d565b965060208801356120eb81611c9d565b95506040880135945060608801359350608088013560ff8116811461210f57600080fd5b9699959850939692959460a0840135945060c09093013592915050565b6000806040838503121561213f57600080fd5b823561214a81611c9d565b9150602083013561205081611c9d565b6000806000806040858703121561217057600080fd5b843567ffffffffffffffff8082111561218857600080fd5b61219488838901611cfe565b909650945060208701359150808211156121ad57600080fd5b50611e6987828801611cfe565b600080602083850312156121cd57600080fd5b823567ffffffffffffffff8111156121e457600080fd5b6121f085828601611cfe565b90969095509350505050565b6000806000806000806060878903121561221557600080fd5b863567ffffffffffffffff8082111561222d57600080fd5b6122398a838b01611cfe565b9098509650602089013591508082111561225257600080fd5b61225e8a838b01611cfe565b9096509450604089013591508082111561227757600080fd5b5061228489828a01611cfe565b979a9699509497509295939492505050565b7f4e487b7100000000000000000000000000000000000000000000000000000000600052601160045260246000fd5b6000826122fb577f4e487b7100000000000000000000000000000000000000000000000000000000600052601260045260246000fd5b500490565b6000817fffffffffffffffffffffffffffffffffffffffffffffffffffffffffffffffff048311821515161561233857612338612296565b500290565b7f4e487b7100000000000000000000000000000000000000000000000000000000600052603260045260246000fd5b60007fffffffffffffffffffffffffffffffffffffffffffffffffffffffffffffffff82141561239e5761239e612296565b5060010190565b8183528181602085013750600060208284010152600060207fffffffffffffffffffffffffffffffffffffffffffffffffffffffffffffffe0601f840116840101905092915050565b73ffffffffffffffffffffffffffffffffffffffff851681528360208201526060604082015260006109346060830184866123a5565b60006020828403121561243657600080fd5b8151611f0581611ffb565b600073ffffffffffffffffffffffffffffffffffffffff808816835280871660208401525084604083015260806060830152611ff06080830184866123a5565b6000821982111561249457612494612296565b500190565b6000828210156124ab576124ab612296565b50039056fea2646970667358221220c1e7f9a445f2099a4d998ea62282ccfda081fb092d67164486523ca20349b6d964736f6c63430008090033",
  "devdoc": {
    "kind": "dev",
    "methods": {
      "allowance(address,address)": {
        "details": "Returns the remaining number of tokens that `spender` will be allowed to spend on behalf of `owner` through {transferFrom}. This is zero by default. This value changes when {approve} or {transferFrom} are called."
      },
      "approve(address,uint256)": {
        "details": "Sets `amount` as the allowance of `spender` over the caller's tokens. Returns a boolean value indicating whether the operation succeeded. IMPORTANT: Beware that changing an allowance with this method brings the risk that someone may use both the old and the new allowance by unfortunate transaction ordering. One possible solution to mitigate this race condition is to first reduce the spender's allowance to 0 and set the desired value afterwards: https://github.com/ethereum/EIPs/issues/20#issuecomment-263524729 Emits an {Approval} event."
      },
      "totalSupply()": {
        "details": "Returns the amount of tokens in existence."
      }
    },
    "version": 1
  },
  "userdoc": {
    "kind": "user",
    "methods": {},
    "version": 1
  },
  "storageLayout": {
    "storage": [
      {
        "astId": 13176,
        "contract": "src/l1/GenericL1ERC20Token.sol:GenericL1ERC20Token",
        "label": "_totalSupply",
        "offset": 0,
        "slot": "0",
        "type": "t_uint256"
      },
      {
        "astId": 13180,
        "contract": "src/l1/GenericL1ERC20Token.sol:GenericL1ERC20Token",
        "label": "_balances",
        "offset": 0,
        "slot": "1",
        "type": "t_mapping(t_address,t_uint256)"
      },
      {
        "astId": 13186,
        "contract": "src/l1/GenericL1ERC20Token.sol:GenericL1ERC20Token",
        "label": "_allowances",
        "offset": 0,
        "slot": "2",
        "type": "t_mapping(t_address,t_mapping(t_address,t_uint256))"
      },
      {
        "astId": 14142,
        "contract": "src/l1/GenericL1ERC20Token.sol:GenericL1ERC20Token",
        "label": "_nonces",
        "offset": 0,
        "slot": "3",
        "type": "t_mapping(t_address,t_uint256)"
      },
      {
        "astId": 15842,
        "contract": "src/l1/GenericL1ERC20Token.sol:GenericL1ERC20Token",
        "label": "authorized",
        "offset": 0,
        "slot": "4",
        "type": "t_mapping(t_address,t_bool)"
      },
      {
        "astId": 15844,
        "contract": "src/l1/GenericL1ERC20Token.sol:GenericL1ERC20Token",
        "label": "requireAuthorization",
        "offset": 0,
        "slot": "5",
        "type": "t_bool"
      },
      {
        "astId": 15848,
        "contract": "src/l1/GenericL1ERC20Token.sol:GenericL1ERC20Token",
        "label": "touched",
        "offset": 0,
        "slot": "6",
        "type": "t_mapping(t_address,t_bool)"
      }
    ],
    "types": {
      "t_address": {
        "encoding": "inplace",
        "label": "address",
        "numberOfBytes": "20"
      },
      "t_bool": {
        "encoding": "inplace",
        "label": "bool",
        "numberOfBytes": "1"
      },
      "t_mapping(t_address,t_bool)": {
        "encoding": "mapping",
        "key": "t_address",
        "label": "mapping(address => bool)",
        "numberOfBytes": "32",
        "value": "t_bool"
      },
      "t_mapping(t_address,t_mapping(t_address,t_uint256))": {
        "encoding": "mapping",
        "key": "t_address",
        "label": "mapping(address => mapping(address => uint256))",
        "numberOfBytes": "32",
        "value": "t_mapping(t_address,t_uint256)"
      },
      "t_mapping(t_address,t_uint256)": {
        "encoding": "mapping",
        "key": "t_address",
        "label": "mapping(address => uint256)",
        "numberOfBytes": "32",
        "value": "t_uint256"
      },
      "t_uint256": {
        "encoding": "inplace",
        "label": "uint256",
        "numberOfBytes": "32"
      }
    }
  }
}