{
  "address": "0xe6F001A2e718A8eacE4be1B54c11fE608CEF284d",
  "abi": [
    {
      "inputs": [
        {
          "components": [
            {
              "internalType": "contract IERC20",
              "name": "stakingToken",
              "type": "address"
            },
            {
              "internalType": "contract AllianceRegistry",
              "name": "allianceRegistry",
              "type": "address"
            },
            {
              "internalType": "bytes32",
              "name": "genesis",
              "type": "bytes32"
            },
            {
              "internalType": "uint256",
              "name": "resolveWindow",
              "type": "uint256"
            },
            {
              "internalType": "uint256",
              "name": "timePerDistance",
              "type": "uint256"
            },
            {
              "internalType": "uint256",
              "name": "exitDuration",
              "type": "uint256"
            },
            {
              "internalType": "uint32",
              "name": "acquireNumSpaceships",
              "type": "uint32"
            },
            {
              "internalType": "uint32",
              "name": "productionSpeedUp",
              "type": "uint32"
            },
            {
              "internalType": "uint256",
              "name": "frontrunningDelay",
              "type": "uint256"
            },
            {
              "internalType": "uint256",
              "name": "productionCapAsDuration",
              "type": "uint256"
            },
            {
              "internalType": "uint256",
              "name": "upkeepProductionDecreaseRatePer10000th",
              "type": "uint256"
            },
            {
              "internalType": "uint256",
              "name": "fleetSizeFactor6",
              "type": "uint256"
            },
            {
              "internalType": "uint32",
              "name": "expansionDelta",
              "type": "uint32"
            },
            {
              "internalType": "uint256",
              "name": "giftTaxPer10000",
              "type": "uint256"
            }
          ],
          "internalType": "struct OuterSpaceFacetBase.Config",
          "name": "config",
          "type": "tuple"
        }
      ],
      "stateMutability": "nonpayable",
      "type": "constructor"
    },
    {
      "anonymous": false,
      "inputs": [
        {
          "indexed": true,
          "internalType": "address",
          "name": "owner",
          "type": "address"
        },
        {
          "indexed": true,
          "internalType": "address",
          "name": "operator",
          "type": "address"
        },
        {
          "indexed": false,
          "internalType": "bool",
          "name": "approved",
          "type": "bool"
        }
      ],
      "name": "ApprovalForAll",
      "type": "event"
    },
    {
      "anonymous": false,
      "inputs": [
        {
          "indexed": true,
          "internalType": "address",
          "name": "owner",
          "type": "address"
        },
        {
          "indexed": true,
          "internalType": "uint256",
          "name": "location",
          "type": "uint256"
        },
        {
          "indexed": false,
          "internalType": "uint256",
          "name": "stake",
          "type": "uint256"
        }
      ],
      "name": "ExitComplete",
      "type": "event"
    },
    {
      "anonymous": false,
      "inputs": [
        {
          "indexed": true,
          "internalType": "uint256",
          "name": "fleet",
          "type": "uint256"
        },
        {
          "indexed": true,
          "internalType": "address",
          "name": "fleetOwner",
          "type": "address"
        },
        {
          "indexed": true,
          "internalType": "address",
          "name": "destinationOwner",
          "type": "address"
        },
        {
          "indexed": false,
          "internalType": "uint256",
          "name": "destination",
          "type": "uint256"
        },
        {
          "indexed": false,
          "internalType": "bool",
          "name": "gift",
          "type": "bool"
        },
        {
          "indexed": false,
          "internalType": "bool",
          "name": "won",
          "type": "bool"
        },
        {
          "components": [
            {
              "internalType": "uint32",
              "name": "newNumspaceships",
              "type": "uint32"
            },
            {
              "internalType": "int40",
              "name": "newTravelingUpkeep",
              "type": "int40"
            },
            {
              "internalType": "uint32",
              "name": "newOverflow",
              "type": "uint32"
            },
            {
              "internalType": "uint32",
              "name": "numSpaceshipsAtArrival",
              "type": "uint32"
            },
            {
              "internalType": "uint32",
              "name": "taxLoss",
              "type": "uint32"
            },
            {
              "internalType": "uint32",
              "name": "fleetLoss",
              "type": "uint32"
            },
            {
              "internalType": "uint32",
              "name": "planetLoss",
              "type": "uint32"
            },
            {
              "internalType": "uint32",
              "name": "inFlightFleetLoss",
              "type": "uint32"
            },
            {
              "internalType": "uint32",
              "name": "inFlightPlanetLoss",
              "type": "uint32"
            },
            {
              "internalType": "uint32",
              "name": "accumulatedDefenseAdded",
              "type": "uint32"
            },
            {
              "internalType": "uint32",
              "name": "accumulatedAttackAdded",
              "type": "uint32"
            }
          ],
          "indexed": false,
          "internalType": "struct ImportingOuterSpaceEvents.ArrivalData",
          "name": "data",
          "type": "tuple"
        }
      ],
      "name": "FleetArrived",
      "type": "event"
    },
    {
      "anonymous": false,
      "inputs": [
        {
          "indexed": true,
          "internalType": "address",
          "name": "fleetSender",
          "type": "address"
        },
        {
          "indexed": true,
          "internalType": "address",
          "name": "fleetOwner",
          "type": "address"
        },
        {
          "indexed": true,
          "internalType": "uint256",
          "name": "from",
          "type": "uint256"
        },
        {
          "indexed": false,
          "internalType": "address",
          "name": "operator",
          "type": "address"
        },
        {
          "indexed": false,
          "internalType": "uint256",
          "name": "fleet",
          "type": "uint256"
        },
        {
          "indexed": false,
          "internalType": "uint32",
          "name": "quantity",
          "type": "uint32"
        },
        {
          "indexed": false,
          "internalType": "uint32",
          "name": "newNumSpaceships",
          "type": "uint32"
        },
        {
          "indexed": false,
          "internalType": "int40",
          "name": "newTravelingUpkeep",
          "type": "int40"
        },
        {
          "indexed": false,
          "internalType": "uint32",
          "name": "newOverflow",
          "type": "uint32"
        }
      ],
      "name": "FleetSent",
      "type": "event"
    },
    {
      "anonymous": false,
      "inputs": [
        {
          "indexed": false,
          "internalType": "bytes32",
          "name": "genesis",
          "type": "bytes32"
        },
        {
          "indexed": false,
          "internalType": "uint256",
          "name": "resolveWindow",
          "type": "uint256"
        },
        {
          "indexed": false,
          "internalType": "uint256",
          "name": "timePerDistance",
          "type": "uint256"
        },
        {
          "indexed": false,
          "internalType": "uint256",
          "name": "exitDuration",
          "type": "uint256"
        },
        {
          "indexed": false,
          "internalType": "uint32",
          "name": "acquireNumSpaceships",
          "type": "uint32"
        },
        {
          "indexed": false,
          "internalType": "uint32",
          "name": "productionSpeedUp",
          "type": "uint32"
        },
        {
          "indexed": false,
          "internalType": "uint256",
          "name": "frontrunningDelay",
          "type": "uint256"
        },
        {
          "indexed": false,
          "internalType": "uint256",
          "name": "productionCapAsDuration",
          "type": "uint256"
        },
        {
          "indexed": false,
          "internalType": "uint256",
          "name": "upkeepProductionDecreaseRatePer10000th",
          "type": "uint256"
        },
        {
          "indexed": false,
          "internalType": "uint256",
          "name": "fleetSizeFactor6",
          "type": "uint256"
        },
        {
          "indexed": false,
          "internalType": "uint32",
          "name": "initialSpaceExpansion",
          "type": "uint32"
        },
        {
          "indexed": false,
          "internalType": "uint32",
          "name": "expansionDelta",
          "type": "uint32"
        },
        {
          "indexed": false,
          "internalType": "uint256",
          "name": "giftTaxPer10000",
          "type": "uint256"
        }
      ],
      "name": "Initialized",
      "type": "event"
    },
    {
      "anonymous": false,
      "inputs": [
        {
          "indexed": true,
          "internalType": "address",
          "name": "owner",
          "type": "address"
        },
        {
          "indexed": true,
          "internalType": "uint256",
          "name": "location",
          "type": "uint256"
        }
      ],
      "name": "PlanetExit",
      "type": "event"
    },
    {
      "anonymous": false,
      "inputs": [
        {
          "indexed": true,
          "internalType": "uint256",
          "name": "location",
          "type": "uint256"
        }
      ],
      "name": "PlanetReset",
      "type": "event"
    },
    {
      "anonymous": false,
      "inputs": [
        {
          "indexed": true,
          "internalType": "address",
          "name": "acquirer",
          "type": "address"
        },
        {
          "indexed": true,
          "internalType": "uint256",
          "name": "location",
          "type": "uint256"
        },
        {
          "indexed": false,
          "internalType": "uint32",
          "name": "numSpaceships",
          "type": "uint32"
        },
        {
          "indexed": false,
          "internalType": "int40",
          "name": "travelingUpkeep",
          "type": "int40"
        },
        {
          "indexed": false,
          "internalType": "uint32",
          "name": "overflow",
          "type": "uint32"
        },
        {
          "indexed": false,
          "internalType": "uint256",
          "name": "stake",
          "type": "uint256"
        }
      ],
      "name": "PlanetStake",
      "type": "event"
    },
    {
      "anonymous": false,
      "inputs": [
        {
          "indexed": true,
          "internalType": "address",
          "name": "previousOwner",
          "type": "address"
        },
        {
          "indexed": true,
          "internalType": "address",
          "name": "newOwner",
          "type": "address"
        },
        {
          "indexed": true,
          "internalType": "uint256",
          "name": "location",
          "type": "uint256"
        },
        {
          "indexed": false,
          "internalType": "uint32",
          "name": "newNumspaceships",
          "type": "uint32"
        },
        {
          "indexed": false,
          "internalType": "int40",
          "name": "newTravelingUpkeep",
          "type": "int40"
        },
        {
          "indexed": false,
          "internalType": "uint32",
          "name": "newOverflow",
          "type": "uint32"
        }
      ],
      "name": "PlanetTransfer",
      "type": "event"
    },
    {
      "anonymous": false,
      "inputs": [
        {
          "indexed": true,
          "internalType": "uint256",
          "name": "location",
          "type": "uint256"
        },
        {
          "indexed": true,
          "internalType": "address",
          "name": "giver",
          "type": "address"
        },
        {
          "indexed": false,
          "internalType": "uint256",
          "name": "rewardId",
          "type": "uint256"
        }
      ],
      "name": "RewardSetup",
      "type": "event"
    },
    {
      "anonymous": false,
      "inputs": [
        {
          "indexed": true,
          "internalType": "address",
          "name": "owner",
          "type": "address"
        },
        {
          "indexed": true,
          "internalType": "uint256",
          "name": "location",
          "type": "uint256"
        },
        {
          "indexed": true,
          "internalType": "uint256",
          "name": "rewardId",
          "type": "uint256"
        }
      ],
      "name": "RewardToWithdraw",
      "type": "event"
    },
    {
      "anonymous": false,
      "inputs": [
        {
          "indexed": true,
          "internalType": "address",
          "name": "owner",
          "type": "address"
        },
        {
          "indexed": false,
          "internalType": "uint256",
          "name": "newStake",
          "type": "uint256"
        }
      ],
      "name": "StakeToWithdraw",
      "type": "event"
    },
    {
      "anonymous": false,
      "inputs": [
        {
          "indexed": true,
          "internalType": "address",
          "name": "from",
          "type": "address"
        },
        {
          "indexed": true,
          "internalType": "address",
          "name": "to",
          "type": "address"
        },
        {
          "indexed": true,
          "internalType": "uint256",
          "name": "location",
          "type": "uint256"
        }
      ],
      "name": "Transfer",
      "type": "event"
    },
    {
      "anonymous": false,
      "inputs": [
        {
          "indexed": true,
          "internalType": "uint256",
          "name": "origin",
          "type": "uint256"
        },
        {
          "indexed": true,
          "internalType": "uint256",
          "name": "fleet",
          "type": "uint256"
        },
        {
          "indexed": false,
          "internalType": "uint32",
          "name": "newNumspaceships",
          "type": "uint32"
        },
        {
          "indexed": false,
          "internalType": "int40",
          "name": "newTravelingUpkeep",
          "type": "int40"
        },
        {
          "indexed": false,
          "internalType": "uint32",
          "name": "newOverflow",
          "type": "uint32"
        }
      ],
      "name": "TravelingUpkeepReductionFromDestruction",
      "type": "event"
    },
    {
      "inputs": [
        {
          "internalType": "uint256",
          "name": "location",
          "type": "uint256"
        }
      ],
      "name": "getPlanet",
      "outputs": [
        {
          "components": [
            {
              "internalType": "address",
              "name": "owner",
              "type": "address"
            },
            {
              "internalType": "uint40",
              "name": "ownershipStartTime",
              "type": "uint40"
            },
            {
              "internalType": "uint40",
              "name": "exitStartTime",
              "type": "uint40"
            },
            {
              "internalType": "uint32",
              "name": "numSpaceships",
              "type": "uint32"
            },
            {
              "internalType": "uint32",
              "name": "overflow",
              "type": "uint32"
            },
            {
              "internalType": "uint40",
              "name": "lastUpdated",
              "type": "uint40"
            },
            {
              "internalType": "bool",
              "name": "active",
              "type": "bool"
            },
            {
              "internalType": "uint256",
              "name": "reward",
              "type": "uint256"
            }
          ],
          "internalType": "struct ImportingOuterSpaceTypes.ExternalPlanet",
          "name": "state",
          "type": "tuple"
        },
        {
          "components": [
            {
              "internalType": "int8",
              "name": "subX",
              "type": "int8"
            },
            {
              "internalType": "int8",
              "name": "subY",
              "type": "int8"
            },
            {
              "internalType": "uint16",
              "name": "stake",
              "type": "uint16"
            },
            {
              "internalType": "uint16",
              "name": "production",
              "type": "uint16"
            },
            {
              "internalType": "uint16",
              "name": "attack",
              "type": "uint16"
            },
            {
              "internalType": "uint16",
              "name": "defense",
              "type": "uint16"
            },
            {
              "internalType": "uint16",
              "name": "speed",
              "type": "uint16"
            },
            {
              "internalType": "uint16",
              "name": "natives",
              "type": "uint16"
            }
          ],
          "internalType": "struct ImportingOuterSpaceTypes.PlanetStats",
          "name": "stats",
          "type": "tuple"
        }
      ],
      "stateMutability": "view",
      "type": "function"
    },
    {
      "inputs": [
        {
          "internalType": "uint256",
          "name": "location",
          "type": "uint256"
        }
      ],
      "name": "getPlanetState",
      "outputs": [
        {
          "components": [
            {
              "internalType": "address",
              "name": "owner",
              "type": "address"
            },
            {
              "internalType": "uint40",
              "name": "ownershipStartTime",
              "type": "uint40"
            },
            {
              "internalType": "uint40",
              "name": "exitStartTime",
              "type": "uint40"
            },
            {
              "internalType": "uint32",
              "name": "numSpaceships",
              "type": "uint32"
            },
            {
              "internalType": "uint40",
              "name": "lastUpdated",
              "type": "uint40"
            },
            {
              "internalType": "int40",
              "name": "travelingUpkeep",
              "type": "int40"
            },
            {
              "internalType": "uint32",
              "name": "overflow",
              "type": "uint32"
            }
          ],
          "internalType": "struct ImportingOuterSpaceTypes.Planet",
          "name": "state",
          "type": "tuple"
        }
      ],
      "stateMutability": "view",
      "type": "function"
    },
    {
      "inputs": [
        {
          "internalType": "address",
          "name": "owner",
          "type": "address"
        },
        {
          "internalType": "address",
          "name": "operator",
          "type": "address"
        }
      ],
      "name": "isApprovedForAll",
      "outputs": [
        {
          "internalType": "bool",
          "name": "",
          "type": "bool"
        }
      ],
      "stateMutability": "view",
      "type": "function"
    },
    {
      "inputs": [
        {
          "internalType": "uint256",
          "name": "location",
          "type": "uint256"
        }
      ],
      "name": "ownerAndOwnershipStartTimeOf",
      "outputs": [
        {
          "internalType": "address",
          "name": "owner",
          "type": "address"
        },
        {
          "internalType": "uint40",
          "name": "ownershipStartTime",
          "type": "uint40"
        }
      ],
      "stateMutability": "view",
      "type": "function"
    },
    {
      "inputs": [
        {
          "internalType": "uint256",
          "name": "location",
          "type": "uint256"
        }
      ],
      "name": "ownerOf",
      "outputs": [
        {
          "internalType": "address",
          "name": "currentOwner",
          "type": "address"
        }
      ],
      "stateMutability": "view",
      "type": "function"
    },
    {
      "inputs": [
        {
          "internalType": "address",
          "name": "from",
          "type": "address"
        },
        {
          "internalType": "address",
          "name": "to",
          "type": "address"
        },
        {
          "internalType": "uint256",
          "name": "location",
          "type": "uint256"
        }
      ],
      "name": "safeTransferFrom",
      "outputs": [],
      "stateMutability": "nonpayable",
      "type": "function"
    },
    {
      "inputs": [
        {
          "internalType": "address",
          "name": "from",
          "type": "address"
        },
        {
          "internalType": "address",
          "name": "to",
          "type": "address"
        },
        {
          "internalType": "uint256",
          "name": "location",
          "type": "uint256"
        },
        {
          "internalType": "bytes",
          "name": "data",
          "type": "bytes"
        }
      ],
      "name": "safeTransferFrom",
      "outputs": [],
      "stateMutability": "nonpayable",
      "type": "function"
    },
    {
      "inputs": [
        {
          "internalType": "address",
          "name": "operator",
          "type": "address"
        },
        {
          "internalType": "bool",
          "name": "approved",
          "type": "bool"
        }
      ],
      "name": "setApprovalForAll",
      "outputs": [],
      "stateMutability": "nonpayable",
      "type": "function"
    },
    {
      "inputs": [
        {
          "internalType": "contract IApprovalReceiver",
          "name": "operator",
          "type": "address"
        },
        {
          "internalType": "bytes",
          "name": "data",
          "type": "bytes"
        }
      ],
      "name": "setApprovalForAllIfNeededAndCall",
      "outputs": [],
      "stateMutability": "nonpayable",
      "type": "function"
    },
    {
      "inputs": [
        {
          "internalType": "address",
          "name": "from",
          "type": "address"
        },
        {
          "internalType": "address",
          "name": "to",
          "type": "address"
        },
        {
          "internalType": "uint256",
          "name": "location",
          "type": "uint256"
        }
      ],
      "name": "transferFrom",
      "outputs": [],
      "stateMutability": "nonpayable",
      "type": "function"
    }
  ],
  "transactionHash": "0xeb6afe64131e331770dca5fc05319fa7e3f36074cad1c2f5af8ab639067897c8",
  "args": [
    {
      "stakingToken": "0xc1363e26Fd017c585Aa5072486BeF1131eCe6560",
      "allianceRegistry": "0xE7Bd2e660DfDcc230c61527757010631B1b56aca",
      "genesis": "0xf69ea25ce5e4aa509188e7ece284702358d8df5e656a9a3c8509506343f9faa8",
      "resolveWindow": 43200,
      "timePerDistance": 7200,
      "exitDuration": 259200,
      "acquireNumSpaceships": 100000,
      "productionSpeedUp": 1,
      "frontrunningDelay": 1800,
      "productionCapAsDuration": 259200,
      "upkeepProductionDecreaseRatePer10000th": 5000,
      "fleetSizeFactor6": 500000,
      "initialSpaceExpansion": 12,
      "expansionDelta": 4,
      "giftTaxPer10000": 2000
    }
  ],
  "numDeployments": 3,
  "linkedData": {
    "genesisHash": "0xf69ea25ce5e4aa509188e7ece284702358d8df5e656a9a3c8509506343f9faa8",
    "resolveWindow": 43200,
    "timePerDistance": 7200,
    "exitDuration": 259200,
    "acquireNumSpaceships": 100000,
    "productionSpeedUp": 1,
    "chainGenesisHash": "",
    "frontrunningDelay": 1800,
    "productionCapAsDuration": 259200,
    "upkeepProductionDecreaseRatePer10000th": 5000,
    "fleetSizeFactor6": 500000,
    "initialSpaceExpansion": 12,
    "expansionDelta": 4,
    "giftTaxPer10000": 2000
  },
  "solcInputHash": "503ae2e277f25b617639a80f1d58f8a6",
  "bytecode": "0x6102406040523480156200001257600080fd5b5060405162002b9d38038062002b9d8339810160408190526200003591620001bc565b806000600482608001516200004b91906200029c565b608083015190915062000060826004620002ce565b63ffffffff1614620000b85760405162461bcd60e51b815260206004820152601d60248201527f54494d455f5045525f444953545f4e4f545f444956495349424c455f34000000604482015260640160405180910390fd5b81516001600160a01b0390811660805260208301511660a0908152604083015160c0908152606084015160e090815263ffffffff9384166101009081529285015161012090815291850151841661014090815290850151841661016090815292850151610180908152918501516101a0908152908501516101c052918401516101e052830151909116610200520151610220525062000309565b6040516101c081016001600160401b03811182821017156200018457634e487b7160e01b600052604160045260246000fd5b60405290565b80516001600160a01b0381168114620001a257600080fd5b919050565b805163ffffffff81168114620001a257600080fd5b60006101c08284031215620001d057600080fd5b620001da62000152565b620001e5836200018a565b8152620001f5602084016200018a565b602082015260408301516040820152606083015160608201526080830151608082015260a083015160a08201526200023060c08401620001a7565b60c08201526200024360e08401620001a7565b60e0820152610100838101519082015261012080840151908201526101408084015190820152610160808401519082015261018062000284818501620001a7565b908201526101a0928301519281019290925250919050565b600063ffffffff80841680620002c257634e487b7160e01b600052601260045260246000fd5b92169190910492915050565b600063ffffffff808316818516818304811182151516156200030057634e487b7160e01b600052601160045260246000fd5b02949350505050565b60805160a05160c05160e05161010051610120516101405161016051610180516101a0516101c0516101e05161020051610220516127db620003c26000396000610b730152600050506000505060006110740152600081816110ee0152611c7c0152600050506000818161101f015281816111a50152818161131b015261137f01526000611cba01526000611c3e0152600050506000505060008181610cdf0152610f31015260006114d80152600050506127db6000f3fe608060405234801561001057600080fd5b50600436106100be5760003560e01c8063a22cb46511610076578063d522989e1161005b578063d522989e1461020d578063d61b2c1e146103b1578063e985e9c5146103c457600080fd5b8063a22cb465146101e7578063b88d4fde146101fa57600080fd5b806342842e0e116100a757806342842e0e146100c35780636352211e146101025780638a886cd51461015d57600080fd5b806323b872dd146100c357806334efcb8e146100d8575b600080fd5b6100d66100d1366004612035565b6103e7565b005b6100eb6100e6366004612076565b6103f7565b6040516100f992919061208f565b60405180910390f35b610138610110366004612076565b60009081526020819052604090205473ffffffffffffffffffffffffffffffffffffffff1690565b60405173ffffffffffffffffffffffffffffffffffffffff90911681526020016100f9565b6101b561016b366004612076565b60009081526020819052604090205473ffffffffffffffffffffffffffffffffffffffff8116917401000000000000000000000000000000000000000090910464ffffffffff1690565b6040805173ffffffffffffffffffffffffffffffffffffffff909316835264ffffffffff9091166020830152016100f9565b6100d66101f53660046121a9565b610586565b6100d6610208366004612230565b61061c565b61032661021b366004612076565b6040805160e081018252600080825260208201819052918101829052606081018290526080810182905260a0810182905260c08101919091525060009081526020818152604091829020825160e081018452815473ffffffffffffffffffffffffffffffffffffffff8116825264ffffffffff74010000000000000000000000000000000000000000820481169483019490945279010000000000000000000000000000000000000000000000000090048316938101939093526001015463ffffffff8082166060850152640100000000820490921660808401526901000000000000000000810460040b60a08401526e01000000000000000000000000000090041660c082015290565b6040516100f99190600060e08201905073ffffffffffffffffffffffffffffffffffffffff8351168252602083015164ffffffffff80821660208501528060408601511660408501526060850151915063ffffffff808316606086015281608087015116608086015260a086015160040b60a08601528060c08701511660c086015250505092915050565b6100d66103bf3660046122a3565b61062e565b6103d76103d23660046122f8565b610787565b60405190151581526020016100f9565b6103f28383836107c4565b505050565b6040805161010081018252600080825260208201819052918101829052606081018290526080810182905260a0810182905260c0810182905260e08101919091526040805161010081018252600080825260208201819052918101829052606081018290526080810182905260a0810182905260c0810182905260e08101919091526000838152602081905260408120600181015490915060009081906104a39063ffffffff16610c79565b6040805161010081018252865473ffffffffffffffffffffffffffffffffffffffff8116825264ffffffffff740100000000000000000000000000000000000000008204811660208085019190915279010000000000000000000000000000000000000000000000000090920481168385015263ffffffff808616606085015260018a01546e0100000000000000000000000000008104909116608085015264010000000090041660a083015284151560c083015260008b81526007909152919091205460e08201529650909250905061057c86610c98565b9350505050915091565b33600081815260036020908152604080832073ffffffffffffffffffffffffffffffffffffffff87168085529083529281902080547fffffffffffffffffffffffffffffffffffffffffffffffffffffffffffffff00168615159081179091558151908152905184927f17307eab39ab6107e8899845ad3d59bd9653f200f220920489ca2b5937696c31928290030190a3505050565b6106278585856107c4565b5050505050565b33600081815260036020908152604080832073ffffffffffffffffffffffffffffffffffffffff8816845290915290205460ff166106f95773ffffffffffffffffffffffffffffffffffffffff81811660008181526003602090815260408083209489168084529482529182902080547fffffffffffffffffffffffffffffffffffffffffffffffffffffffffffffff0016600190811790915591519182527f17307eab39ab6107e8899845ad3d59bd9653f200f220920489ca2b5937696c31910160405180910390a35b6040517fcffb4f5100000000000000000000000000000000000000000000000000000000815273ffffffffffffffffffffffffffffffffffffffff85169063cffb4f519061074f90849087908790600401612326565b600060405180830381600087803b15801561076957600080fd5b505af115801561077d573d6000803e3d6000fd5b5050505050505050565b73ffffffffffffffffffffffffffffffffffffffff80831660009081526003602090815260408083209385168352929052205460ff165b92915050565b73ffffffffffffffffffffffffffffffffffffffff8316610846576040517f08c379a000000000000000000000000000000000000000000000000000000000815260206004820152601060248201527f4e4f545f5a45524f5f414444524553530000000000000000000000000000000060448201526064015b60405180910390fd5b73ffffffffffffffffffffffffffffffffffffffff82166108c3576040517f08c379a000000000000000000000000000000000000000000000000000000000815260206004820152601060248201527f4e4f545f5a45524f5f4144445245535300000000000000000000000000000000604482015260640161083d565b60008181526020819052604081206040805160e081018252825473ffffffffffffffffffffffffffffffffffffffff8116825264ffffffffff74010000000000000000000000000000000000000000820481166020840152790100000000000000000000000000000000000000000000000000909104811692820192909252600183015463ffffffff8082166060840152640100000000820490931660808301526901000000000000000000810460040b60a08301526e010000000000000000000000000000900490911660c08201529091506000906109a39084610e2d565b90506109ae81610f8d565b8473ffffffffffffffffffffffffffffffffffffffff1681610120015173ffffffffffffffffffffffffffffffffffffffff1614610a48576040517f08c379a000000000000000000000000000000000000000000000000000000000815260206004820152600e60248201527f46524f4d5f4e4f545f4f574e4552000000000000000000000000000000000000604482015260640161083d565b80610120015173ffffffffffffffffffffffffffffffffffffffff163373ffffffffffffffffffffffffffffffffffffffff1614610b1f5761012081015173ffffffffffffffffffffffffffffffffffffffff16600090815260036020908152604080832033845290915290205460ff16610b1f576040517f08c379a000000000000000000000000000000000000000000000000000000000815260206004820152600c60248201527f4e4f545f4f50455241544f520000000000000000000000000000000000000000604482015260640161083d565b73ffffffffffffffffffffffffffffffffffffffff8416610120820152606081015163ffffffff1615801590610b695750610b678585610b626203f480426123bf565b61143d565b155b15610bd2576127107f0000000000000000000000000000000000000000000000000000000000000000826060015163ffffffff16610ba791906123d6565b610bb19190612442565b816060015163ffffffff16610bc691906123bf565b63ffffffff1660608201525b610bde82826000611590565b828473ffffffffffffffffffffffffffffffffffffffff168673ffffffffffffffffffffffffffffffffffffffff167f0162c11e05aed256d6c4963bf2a6ee4e0066b6c224a89214e4ff80730bd2565b846060015185608001518660e00151604051610c6a9392919063ffffffff938416815260049290920b6020830152909116604082015260600190565b60405180910390a45050505050565b6380000000818116811490600090610c919084612456565b9050915091565b60408051610100810182526000808252602080830182905282840182905260608084018390526080840183905260a0840183905260c0840183905260e084019290925283517f00000000000000000000000000000000000000000000000000000000000000008183015280850186905284518082038601815292019093528051920191909120610d2781611821565b610d8d576040517f08c379a000000000000000000000000000000000000000000000000000000000815260206004820152601a60248201527f6e6f20706c616e657420696e2074686973206c6f636174696f6e000000000000604482015260640161083d565b600080610d998361183d565b915091506040518061010001604052808360000b81526020018260000b8152602001610dc485611871565b61ffff168152602001610dd685611948565b61ffff168152602001610de8856119e5565b61ffff168152602001610dfa85611a7c565b61ffff168152602001610e0c85611af8565b61ffff168152602001610e1e85611b8f565b61ffff16905295945050505050565b6040805161016081018252600080825260208201819052918101829052606081018290526080810182905260a0810182905260c0810182905260e0810182905261010081018290526101208101829052610140810191909152600080610e968560600151610c79565b85855260808088015164ffffffffff908116602088015283151560408089019190915263ffffffff80851660608a015260a0808c015160040b948a0194909452908a01805183169389019390935291511660c0808801919091528801511660e0860152865173ffffffffffffffffffffffffffffffffffffffff9081166101008701528751166101208601529092509050610f7e84604080517f00000000000000000000000000000000000000000000000000000000000000006020820152908101829052600090606001604051602081830303815290604052805190602001209050919050565b61014084015250909392505050565b60a081015164ffffffffff1615610fde57610fab8160a00151611c26565b15610fde57600060c082018190526060820181905260808201819052610120820181905260e08201819052604090910152565b6000816020015164ffffffffff1642610ff791906123bf565b90506000611009836101400151611948565b90506000610e1061ffff831661104563ffffffff7f000000000000000000000000000000000000000000000000000000000000000016866123d6565b61104f91906123d6565b6110599190612442565b9050600080856080015160040b13156110df576127106110997f0000000000000000000000000000000000000000000000000000000000000000846123d6565b6110a39190612442565b9050846080015164ffffffffff168111156110c65750608084015164ffffffffff165b8085608001516110d69190612479565b60040b60808601525b606085015163ffffffff1660007f0000000000000000000000000000000000000000000000000000000000000000156112fe57600061111d86611c72565b905060008860400151611131576000611133565b815b9050808411156112695760c089015164ffffffffff166112645760e08901516107089063ffffffff161561119557828a60e0015163ffffffff1661070861117a91906123d6565b6111849190612442565b905061070881101561119557506107085b6000610e10826111cb63ffffffff7f0000000000000000000000000000000000000000000000000000000000000000168d6123d6565b6111d591906123d6565b6111df9190612442565b90506111eb83876123bf565b8111156111ff576111fc83876123bf565b90505b85811115611232578a6040015115611229578561121c888a6123bf565b61122691906124df565b94505b60009550611261565b8a60400151156112545780611247888a6123bf565b61125191906124df565b94505b61125e81876123bf565b95505b50505b6112b1565b8860400151156112b157600061127f85836123bf565b9050600061128d87896123bf565b9050818111156112a7576112a182826123bf565b94508190505b61125e81876124df565b8860400151156112f7576000838a6080015160040b6112d091906124f7565b90506112db8261256b565b8112156112ee576112eb8261256b565b90505b60040b60808a01525b50506113dd565b8660400151156113705782610e1061ffff871661134163ffffffff7f0000000000000000000000000000000000000000000000000000000000000000168a6123d6565b61134b91906123d6565b6113559190612442565b61135f91906123bf565b61136990836124df565b91506113dd565b6000610e106113a563ffffffff7f000000000000000000000000000000000000000000000000000000000000000016896123d6565b6113b1906107086123d6565b6113bb9190612442565b9050828111156113ce57506000916113db565b6113d881846123bf565b92505b505b63800000008210611400576113f7600163800000006125a4565b63ffffffff1691505b63ffffffff8216606088015260408701511580156114265750606087015163ffffffff16155b156114345760006101208801525b50505050505050565b60008273ffffffffffffffffffffffffffffffffffffffff168473ffffffffffffffffffffffffffffffffffffffff16141561147b57506000611589565b6040517fdf2c0f4900000000000000000000000000000000000000000000000000000000815273ffffffffffffffffffffffffffffffffffffffff8581166004830152848116602483015264ffffffffff841660448301526000917f00000000000000000000000000000000000000000000000000000000000000009091169063df2c0f4990606401604080518083038186803b15801561151b57600080fd5b505afa15801561152f573d6000803e3d6000fd5b505050506040513d601f19601f8201168201806040525081019061155391906125c9565b9150506bffffffffffffffffffffffff8116158061158557508264ffffffffff16816bffffffffffffffffffffffff16115b9150505b9392505050565b60008260a0015164ffffffffff161180156115b4575060c082015164ffffffffff16155b156115c2576115c282611cdf565b81610120015173ffffffffffffffffffffffffffffffffffffffff1682610100015173ffffffffffffffffffffffffffffffffffffffff161461169d57610120820151835473ffffffffffffffffffffffffffffffffffffffff9182167fffffffffffffff000000000000000000000000000000000000000000000000009091168117740100000000000000000000000000000000000000004264ffffffffff16021785558351610100850151604051919316907fddf252ad1be2c89b69c2b068fc378daa952ba7f163c4a11628f55a4df523b3ef90600090a45b80156116ce5782547fffff0000000000ffffffffffffffffffffffffffffffffffffffffffffffffff16835561173f565b8160a0015164ffffffffff168260c0015164ffffffffff161461173f5760c0820151835464ffffffffff909116790100000000000000000000000000000000000000000000000000027fffff0000000000ffffffffffffffffffffffffffffffffffffffffffffffffff9091161783555b61175182604001518360600151611da4565b60019093018054608084015160e0909401514264ffffffffff908116640100000000027fffffffffffffffffffffffffffffffffffffffffffffff0000000000ffffffff63ffffffff9384166e01000000000000000000000000000002167fffffffffffffffffffffffffffff00000000ffffffffff0000000000ffffffff929097166901000000000000000000027fffffffffffffffffffffffffffffffffffff0000000000ffffffffff00000000909416979092169690961791909117949094169290921792909217905550565b60006118308260346010611dc3565b60ff166001149050919050565b60008061184c83826003611dc3565b611857906001612609565b91506118668360026003611dc3565b610c91906001612609565b600061187c82611821565b6118e2576040517f08c379a000000000000000000000000000000000000000000000000000000000815260206004820152601160248201527f504c414e45545f4e4f545f455849535453000000000000000000000000000000604482015260640161083d565b60006118ef83600c611de0565b905060ff81167e060008000a000c000e00100012001400140016001800200028003000380048611920826002612661565b61192b90600161268b565b61ffff166020811061193f5761193f6126b1565b1a949350505050565b600061195382611821565b6119b9576040517f08c379a000000000000000000000000000000000000000000000000000000000815260206004820152601160248201527f504c414e45545f4e4f545f455849535453000000000000000000000000000000604482015260640161083d565b6107be82600c7f0708083409600a8c0bb80ce40e100e100e100e101068151819c81e7823282ee0611e7a565b60006119f082611821565b611a56576040517f08c379a000000000000000000000000000000000000000000000000000000000815260206004820152601160248201527f504c414e45545f4e4f545f455849535453000000000000000000000000000000604482015260640161083d565b611a61826014611de0565b611a709060ff16610190612661565b6107be90610fa061268b565b6000611a8782611821565b611aed576040517f08c379a000000000000000000000000000000000000000000000000000000000815260206004820152601160248201527f504c414e45545f4e4f545f455849535453000000000000000000000000000000604482015260640161083d565b611a6182601c611de0565b6000611b0382611821565b611b69576040517f08c379a000000000000000000000000000000000000000000000000000000000815260206004820152601160248201527f504c414e45545f4e4f545f455849535453000000000000000000000000000000604482015260640161083d565b611b74826024611de0565b611b839060ff1661014d612661565b6107be9061138d61268b565b6000611b9a82611821565b611c00576040517f08c379a000000000000000000000000000000000000000000000000000000000815260206004820152601160248201527f504c414e45545f4e4f545f455849535453000000000000000000000000000000604482015260640161083d565b611c0b82602c611de0565b611c1a9060ff16610bb8612661565b6107be90613a9861268b565b6000808264ffffffffff161180156107be5750611c6a7f000000000000000000000000000000000000000000000000000000000000000064ffffffffff84166124df565b421192915050565b6000610e10611ca57f000000000000000000000000000000000000000000000000000000000000000061ffff85166123d6565b611caf9190612442565b6107be9063ffffffff7f0000000000000000000000000000000000000000000000000000000000000000166124df565b6000611cfa8261010001518360000151846101400151611eeb565b61010083015173ffffffffffffffffffffffffffffffffffffffff1660009081526002602052604081205491925090611d349083906124df565b6101008401805173ffffffffffffffffffffffffffffffffffffffff9081166000908152600260209081526040918290208590559251905184815293945016917f4d135695228631e73b5a31e6fc8af4e5825cde63774c3c48695b4af814d7b019910160405180910390a2505050565b60008183611db3576000611db9565b63800000005b61158991906126e0565b6000611dd860ff80841690851686901c6126ff565b949350505050565b600080611def84846040611dc3565b90506000611dfe600283612713565b90506000611e0d600284612735565b905060007f01223334444555555666666677777777888888889999999aaaaaabbbbcccddef60ff841660208110611e4657611e466126b1565b1a905060ff8216611e645760048160ff16901c9450505050506107be565b611e6f601082612735565b9450505050506107be565b600080611e878585611de0565b905082611e95826002612757565b611ea0906001612780565b60ff1660208110611eb357611eb36126b1565b1a83611ec0836002612757565b60ff1660208110611ed357611ed36126b1565b611ee191901a610100612661565b611585919061268b565b6000670de0b6b3a7640000611eff83611871565b61ffff16611f0d91906123d6565b9050828473ffffffffffffffffffffffffffffffffffffffff167f1c363b29828a892b7cddafe9583ef52e0d5aca0ea7011bda6ccf039e1781f73883604051611f5891815260200190565b60405180910390a360008381526007602052604090205480156120085773ffffffffffffffffffffffffffffffffffffffff85166000818152600860209081526040808320858452825280832080547fffffffffffffffffffffffffffffffffffffffffffffffffffffffffffffff001660011790558783526007909152808220829055518392879290917f74f110a1e0cd4892234c7ba49df9f8a354cd8d29b272f7557c9b8c3c38a653369190a45b509392505050565b73ffffffffffffffffffffffffffffffffffffffff8116811461203257600080fd5b50565b60008060006060848603121561204a57600080fd5b833561205581612010565b9250602084013561206581612010565b929592945050506040919091013590565b60006020828403121561208857600080fd5b5035919050565b60006102008201905073ffffffffffffffffffffffffffffffffffffffff8451168252602084015164ffffffffff8082166020850152806040870151166040850152505060608401516120ea606084018263ffffffff169052565b506080840151612102608084018263ffffffff169052565b5060a084015161211b60a084018264ffffffffff169052565b5060c084015161212f60c084018215159052565b5060e084810151838201528351600090810b6101008501526020850151900b610120840152604084015161ffff908116610140850152606085015181166101608501526080850151811661018085015260a085015181166101a085015260c085015181166101c085015290840151166101e0830152611589565b600080604083850312156121bc57600080fd5b82356121c781612010565b9150602083013580151581146121dc57600080fd5b809150509250929050565b60008083601f8401126121f957600080fd5b50813567ffffffffffffffff81111561221157600080fd5b60208301915083602082850101111561222957600080fd5b9250929050565b60008060008060006080868803121561224857600080fd5b853561225381612010565b9450602086013561226381612010565b935060408601359250606086013567ffffffffffffffff81111561228657600080fd5b612292888289016121e7565b969995985093965092949392505050565b6000806000604084860312156122b857600080fd5b83356122c381612010565b9250602084013567ffffffffffffffff8111156122df57600080fd5b6122eb868287016121e7565b9497909650939450505050565b6000806040838503121561230b57600080fd5b823561231681612010565b915060208301356121dc81612010565b73ffffffffffffffffffffffffffffffffffffffff8416815260406020820152816040820152818360608301376000818301606090810191909152601f9092017fffffffffffffffffffffffffffffffffffffffffffffffffffffffffffffffe016010192915050565b7f4e487b7100000000000000000000000000000000000000000000000000000000600052601160045260246000fd5b6000828210156123d1576123d1612390565b500390565b6000817fffffffffffffffffffffffffffffffffffffffffffffffffffffffffffffffff048311821515161561240e5761240e612390565b500290565b7f4e487b7100000000000000000000000000000000000000000000000000000000600052601260045260246000fd5b60008261245157612451612413565b500490565b600063ffffffff8084168061246d5761246d612413565b92169190910692915050565b60008160040b8360040b60008112817fffffffffffffffffffffffffffffffffffffffffffffffffffffff8000000000018312811516156124bc576124bc612390565b81647fffffffff0183138116156124d5576124d5612390565b5090039392505050565b600082198211156124f2576124f2612390565b500190565b6000808312837f80000000000000000000000000000000000000000000000000000000000000000183128115161561253157612531612390565b837f7fffffffffffffffffffffffffffffffffffffffffffffffffffffffffffffff01831381161561256557612565612390565b50500390565b60007f800000000000000000000000000000000000000000000000000000000000000082141561259d5761259d612390565b5060000390565b600063ffffffff838116908316818110156125c1576125c1612390565b039392505050565b600080604083850312156125dc57600080fd5b82516125e781612010565b60208401519092506bffffffffffffffffffffffff811681146121dc57600080fd5b60008160000b8360000b60008112817fffffffffffffffffffffffffffffffffffffffffffffffffffffffffffffff800183128115161561264c5761264c612390565b81607f0183138116156124d5576124d5612390565b600061ffff8083168185168183048111821515161561268257612682612390565b02949350505050565b600061ffff8083168185168083038211156126a8576126a8612390565b01949350505050565b7f4e487b7100000000000000000000000000000000000000000000000000000000600052603260045260246000fd5b600063ffffffff8083168185168083038211156126a8576126a8612390565b60008261270e5761270e612413565b500690565b600060ff83168061272657612726612413565b8060ff84160491505092915050565b600060ff83168061274857612748612413565b8060ff84160691505092915050565b600060ff821660ff84168160ff048111821515161561277857612778612390565b029392505050565b600060ff821660ff84168060ff0382111561279d5761279d612390565b01939250505056fea2646970667358221220d4a746bfc960e215d57aa517c79f9123670957f2c874bc8ec0fa0608fffd092764736f6c63430008090033",
  "devdoc": {
    "kind": "dev",
    "methods": {},
    "version": 1
  },
  "userdoc": {
    "kind": "user",
    "methods": {},
    "version": 1
  },
  "storageLayout": {
    "storage": [
      {
        "astId": 17473,
        "contract": "src/outerspace/facets/OuterSpacePlanetsFacet.sol:OuterSpacePlanetsFacet",
        "label": "_planets",
        "offset": 0,
        "slot": "0",
        "type": "t_mapping(t_uint256,t_struct(Planet)24281_storage)"
      },
      {
        "astId": 17478,
        "contract": "src/outerspace/facets/OuterSpacePlanetsFacet.sol:OuterSpacePlanetsFacet",
        "label": "_fleets",
        "offset": 0,
        "slot": "1",
        "type": "t_mapping(t_uint256,t_struct(Fleet)24288_storage)"
      },
      {
        "astId": 17482,
        "contract": "src/outerspace/facets/OuterSpacePlanetsFacet.sol:OuterSpacePlanetsFacet",
        "label": "_stakeReadyToBeWithdrawn",
        "offset": 0,
        "slot": "2",
        "type": "t_mapping(t_address,t_uint256)"
      },
      {
        "astId": 17488,
        "contract": "src/outerspace/facets/OuterSpacePlanetsFacet.sol:OuterSpacePlanetsFacet",
        "label": "_operators",
        "offset": 0,
        "slot": "3",
        "type": "t_mapping(t_address,t_mapping(t_address,t_bool))"
      },
      {
        "astId": 17495,
        "contract": "src/outerspace/facets/OuterSpacePlanetsFacet.sol:OuterSpacePlanetsFacet",
        "label": "_inFlight",
        "offset": 0,
        "slot": "4",
        "type": "t_mapping(t_uint256,t_mapping(t_uint256,t_struct(InFlight)24257_storage))"
      },
      {
        "astId": 17498,
        "contract": "src/outerspace/facets/OuterSpacePlanetsFacet.sol:OuterSpacePlanetsFacet",
        "label": "_discovered",
        "offset": 0,
        "slot": "5",
        "type": "t_struct(Discovered)24266_storage"
      },
      {
        "astId": 17502,
        "contract": "src/outerspace/facets/OuterSpacePlanetsFacet.sol:OuterSpacePlanetsFacet",
        "label": "_prevRewardIds",
        "offset": 0,
        "slot": "6",
        "type": "t_mapping(t_address,t_uint256)"
      },
      {
        "astId": 17506,
        "contract": "src/outerspace/facets/OuterSpacePlanetsFacet.sol:OuterSpacePlanetsFacet",
        "label": "_rewards",
        "offset": 0,
        "slot": "7",
        "type": "t_mapping(t_uint256,t_uint256)"
      },
      {
        "astId": 17512,
        "contract": "src/outerspace/facets/OuterSpacePlanetsFacet.sol:OuterSpacePlanetsFacet",
        "label": "_rewardsToWithdraw",
        "offset": 0,
        "slot": "8",
        "type": "t_mapping(t_address,t_mapping(t_uint256,t_bool))"
      },
      {
        "astId": 17521,
        "contract": "src/outerspace/facets/OuterSpacePlanetsFacet.sol:OuterSpacePlanetsFacet",
        "label": "_attacks",
        "offset": 0,
        "slot": "9",
        "type": "t_mapping(t_uint256,t_mapping(t_address,t_mapping(t_uint256,t_struct(AccumulatedAttack)24361_storage)))"
      }
    ],
    "types": {
      "t_address": {
        "encoding": "inplace",
        "label": "address",
        "numberOfBytes": "20"
      },
      "t_bool": {
        "encoding": "inplace",
        "label": "bool",
        "numberOfBytes": "1"
      },
      "t_int40": {
        "encoding": "inplace",
        "label": "int40",
        "numberOfBytes": "5"
      },
      "t_mapping(t_address,t_bool)": {
        "encoding": "mapping",
        "key": "t_address",
        "label": "mapping(address => bool)",
        "numberOfBytes": "32",
        "value": "t_bool"
      },
      "t_mapping(t_address,t_mapping(t_address,t_bool))": {
        "encoding": "mapping",
        "key": "t_address",
        "label": "mapping(address => mapping(address => bool))",
        "numberOfBytes": "32",
        "value": "t_mapping(t_address,t_bool)"
      },
      "t_mapping(t_address,t_mapping(t_uint256,t_bool))": {
        "encoding": "mapping",
        "key": "t_address",
        "label": "mapping(address => mapping(uint256 => bool))",
        "numberOfBytes": "32",
        "value": "t_mapping(t_uint256,t_bool)"
      },
      "t_mapping(t_address,t_mapping(t_uint256,t_struct(AccumulatedAttack)24361_storage))": {
        "encoding": "mapping",
        "key": "t_address",
        "label": "mapping(address => mapping(uint256 => struct ImportingOuterSpaceTypes.AccumulatedAttack))",
        "numberOfBytes": "32",
        "value": "t_mapping(t_uint256,t_struct(AccumulatedAttack)24361_storage)"
      },
      "t_mapping(t_address,t_uint256)": {
        "encoding": "mapping",
        "key": "t_address",
        "label": "mapping(address => uint256)",
        "numberOfBytes": "32",
        "value": "t_uint256"
      },
      "t_mapping(t_uint256,t_bool)": {
        "encoding": "mapping",
        "key": "t_uint256",
        "label": "mapping(uint256 => bool)",
        "numberOfBytes": "32",
        "value": "t_bool"
      },
      "t_mapping(t_uint256,t_mapping(t_address,t_mapping(t_uint256,t_struct(AccumulatedAttack)24361_storage)))": {
        "encoding": "mapping",
        "key": "t_uint256",
        "label": "mapping(uint256 => mapping(address => mapping(uint256 => struct ImportingOuterSpaceTypes.AccumulatedAttack)))",
        "numberOfBytes": "32",
        "value": "t_mapping(t_address,t_mapping(t_uint256,t_struct(AccumulatedAttack)24361_storage))"
      },
      "t_mapping(t_uint256,t_mapping(t_uint256,t_struct(InFlight)24257_storage))": {
        "encoding": "mapping",
        "key": "t_uint256",
        "label": "mapping(uint256 => mapping(uint256 => struct ImportingOuterSpaceTypes.InFlight))",
        "numberOfBytes": "32",
        "value": "t_mapping(t_uint256,t_struct(InFlight)24257_storage)"
      },
      "t_mapping(t_uint256,t_struct(AccumulatedAttack)24361_storage)": {
        "encoding": "mapping",
        "key": "t_uint256",
        "label": "mapping(uint256 => struct ImportingOuterSpaceTypes.AccumulatedAttack)",
        "numberOfBytes": "32",
        "value": "t_struct(AccumulatedAttack)24361_storage"
      },
      "t_mapping(t_uint256,t_struct(Fleet)24288_storage)": {
        "encoding": "mapping",
        "key": "t_uint256",
        "label": "mapping(uint256 => struct ImportingOuterSpaceTypes.Fleet)",
        "numberOfBytes": "32",
        "value": "t_struct(Fleet)24288_storage"
      },
      "t_mapping(t_uint256,t_struct(InFlight)24257_storage)": {
        "encoding": "mapping",
        "key": "t_uint256",
        "label": "mapping(uint256 => struct ImportingOuterSpaceTypes.InFlight)",
        "numberOfBytes": "32",
        "value": "t_struct(InFlight)24257_storage"
      },
      "t_mapping(t_uint256,t_struct(Planet)24281_storage)": {
        "encoding": "mapping",
        "key": "t_uint256",
        "label": "mapping(uint256 => struct ImportingOuterSpaceTypes.Planet)",
        "numberOfBytes": "32",
        "value": "t_struct(Planet)24281_storage"
      },
      "t_mapping(t_uint256,t_uint256)": {
        "encoding": "mapping",
        "key": "t_uint256",
        "label": "mapping(uint256 => uint256)",
        "numberOfBytes": "32",
        "value": "t_uint256"
      },
      "t_struct(AccumulatedAttack)24361_storage": {
        "encoding": "inplace",
        "label": "struct ImportingOuterSpaceTypes.AccumulatedAttack",
        "members": [
          {
            "astId": 24354,
            "contract": "src/outerspace/facets/OuterSpacePlanetsFacet.sol:OuterSpacePlanetsFacet",
            "label": "target",
            "offset": 0,
            "slot": "0",
            "type": "t_address"
          },
          {
            "astId": 24356,
            "contract": "src/outerspace/facets/OuterSpacePlanetsFacet.sol:OuterSpacePlanetsFacet",
            "label": "numAttackSpent",
            "offset": 20,
            "slot": "0",
            "type": "t_uint32"
          },
          {
            "astId": 24358,
            "contract": "src/outerspace/facets/OuterSpacePlanetsFacet.sol:OuterSpacePlanetsFacet",
            "label": "damageCausedSoFar",
            "offset": 24,
            "slot": "0",
            "type": "t_uint32"
          },
          {
            "astId": 24360,
            "contract": "src/outerspace/facets/OuterSpacePlanetsFacet.sol:OuterSpacePlanetsFacet",
            "label": "averageAttackPower",
            "offset": 28,
            "slot": "0",
            "type": "t_uint16"
          }
        ],
        "numberOfBytes": "32"
      },
      "t_struct(Discovered)24266_storage": {
        "encoding": "inplace",
        "label": "struct ImportingOuterSpaceTypes.Discovered",
        "members": [
          {
            "astId": 24259,
            "contract": "src/outerspace/facets/OuterSpacePlanetsFacet.sol:OuterSpacePlanetsFacet",
            "label": "minX",
            "offset": 0,
            "slot": "0",
            "type": "t_uint32"
          },
          {
            "astId": 24261,
            "contract": "src/outerspace/facets/OuterSpacePlanetsFacet.sol:OuterSpacePlanetsFacet",
            "label": "maxX",
            "offset": 4,
            "slot": "0",
            "type": "t_uint32"
          },
          {
            "astId": 24263,
            "contract": "src/outerspace/facets/OuterSpacePlanetsFacet.sol:OuterSpacePlanetsFacet",
            "label": "minY",
            "offset": 8,
            "slot": "0",
            "type": "t_uint32"
          },
          {
            "astId": 24265,
            "contract": "src/outerspace/facets/OuterSpacePlanetsFacet.sol:OuterSpacePlanetsFacet",
            "label": "maxY",
            "offset": 12,
            "slot": "0",
            "type": "t_uint32"
          }
        ],
        "numberOfBytes": "32"
      },
      "t_struct(Fleet)24288_storage": {
        "encoding": "inplace",
        "label": "struct ImportingOuterSpaceTypes.Fleet",
        "members": [
          {
            "astId": 24283,
            "contract": "src/outerspace/facets/OuterSpacePlanetsFacet.sol:OuterSpacePlanetsFacet",
            "label": "owner",
            "offset": 0,
            "slot": "0",
            "type": "t_address"
          },
          {
            "astId": 24285,
            "contract": "src/outerspace/facets/OuterSpacePlanetsFacet.sol:OuterSpacePlanetsFacet",
            "label": "launchTime",
            "offset": 20,
            "slot": "0",
            "type": "t_uint40"
          },
          {
            "astId": 24287,
            "contract": "src/outerspace/facets/OuterSpacePlanetsFacet.sol:OuterSpacePlanetsFacet",
            "label": "quantity",
            "offset": 25,
            "slot": "0",
            "type": "t_uint32"
          }
        ],
        "numberOfBytes": "32"
      },
      "t_struct(InFlight)24257_storage": {
        "encoding": "inplace",
        "label": "struct ImportingOuterSpaceTypes.InFlight",
        "members": [
          {
            "astId": 24254,
            "contract": "src/outerspace/facets/OuterSpacePlanetsFacet.sol:OuterSpacePlanetsFacet",
            "label": "flying",
            "offset": 0,
            "slot": "0",
            "type": "t_uint32"
          },
          {
            "astId": 24256,
            "contract": "src/outerspace/facets/OuterSpacePlanetsFacet.sol:OuterSpacePlanetsFacet",
            "label": "destroyed",
            "offset": 4,
            "slot": "0",
            "type": "t_uint32"
          }
        ],
        "numberOfBytes": "32"
      },
      "t_struct(Planet)24281_storage": {
        "encoding": "inplace",
        "label": "struct ImportingOuterSpaceTypes.Planet",
        "members": [
          {
            "astId": 24268,
            "contract": "src/outerspace/facets/OuterSpacePlanetsFacet.sol:OuterSpacePlanetsFacet",
            "label": "owner",
            "offset": 0,
            "slot": "0",
            "type": "t_address"
          },
          {
            "astId": 24270,
            "contract": "src/outerspace/facets/OuterSpacePlanetsFacet.sol:OuterSpacePlanetsFacet",
            "label": "ownershipStartTime",
            "offset": 20,
            "slot": "0",
            "type": "t_uint40"
          },
          {
            "astId": 24272,
            "contract": "src/outerspace/facets/OuterSpacePlanetsFacet.sol:OuterSpacePlanetsFacet",
            "label": "exitStartTime",
            "offset": 25,
            "slot": "0",
            "type": "t_uint40"
          },
          {
            "astId": 24274,
            "contract": "src/outerspace/facets/OuterSpacePlanetsFacet.sol:OuterSpacePlanetsFacet",
            "label": "numSpaceships",
            "offset": 0,
            "slot": "1",
            "type": "t_uint32"
          },
          {
            "astId": 24276,
            "contract": "src/outerspace/facets/OuterSpacePlanetsFacet.sol:OuterSpacePlanetsFacet",
            "label": "lastUpdated",
            "offset": 4,
            "slot": "1",
            "type": "t_uint40"
          },
          {
            "astId": 24278,
            "contract": "src/outerspace/facets/OuterSpacePlanetsFacet.sol:OuterSpacePlanetsFacet",
            "label": "travelingUpkeep",
            "offset": 9,
            "slot": "1",
            "type": "t_int40"
          },
          {
            "astId": 24280,
            "contract": "src/outerspace/facets/OuterSpacePlanetsFacet.sol:OuterSpacePlanetsFacet",
            "label": "overflow",
            "offset": 14,
            "slot": "1",
            "type": "t_uint32"
          }
        ],
        "numberOfBytes": "64"
      },
      "t_uint16": {
        "encoding": "inplace",
        "label": "uint16",
        "numberOfBytes": "2"
      },
      "t_uint256": {
        "encoding": "inplace",
        "label": "uint256",
        "numberOfBytes": "32"
      },
      "t_uint32": {
        "encoding": "inplace",
        "label": "uint32",
        "numberOfBytes": "4"
      },
      "t_uint40": {
        "encoding": "inplace",
        "label": "uint40",
        "numberOfBytes": "5"
      }
    }
  }
}