{
  "address": "0x8c506713E1000E62B820143a194A2D794fD70b2B",
  "abi": [
    {
      "inputs": [
        {
          "components": [
            {
              "internalType": "contract IERC20",
              "name": "stakingToken",
              "type": "address"
            },
            {
              "internalType": "contract AllianceRegistry",
              "name": "allianceRegistry",
              "type": "address"
            },
            {
              "internalType": "bytes32",
              "name": "genesis",
              "type": "bytes32"
            },
            {
              "internalType": "uint256",
              "name": "resolveWindow",
              "type": "uint256"
            },
            {
              "internalType": "uint256",
              "name": "timePerDistance",
              "type": "uint256"
            },
            {
              "internalType": "uint256",
              "name": "exitDuration",
              "type": "uint256"
            },
            {
              "internalType": "uint32",
              "name": "acquireNumSpaceships",
              "type": "uint32"
            },
            {
              "internalType": "uint32",
              "name": "productionSpeedUp",
              "type": "uint32"
            },
            {
              "internalType": "uint256",
              "name": "frontrunningDelay",
              "type": "uint256"
            },
            {
              "internalType": "uint256",
              "name": "productionCapAsDuration",
              "type": "uint256"
            },
            {
              "internalType": "uint256",
              "name": "upkeepProductionDecreaseRatePer10000th",
              "type": "uint256"
            },
            {
              "internalType": "uint256",
              "name": "fleetSizeFactor6",
              "type": "uint256"
            },
            {
              "internalType": "uint32",
              "name": "expansionDelta",
              "type": "uint32"
            },
            {
              "internalType": "uint256",
              "name": "giftTaxPer10000",
              "type": "uint256"
            }
          ],
          "internalType": "struct OuterSpaceFacetBase.Config",
          "name": "config",
          "type": "tuple"
        }
      ],
      "stateMutability": "nonpayable",
      "type": "constructor"
    },
    {
      "anonymous": false,
      "inputs": [
        {
          "indexed": true,
          "internalType": "address",
          "name": "owner",
          "type": "address"
        },
        {
          "indexed": true,
          "internalType": "address",
          "name": "operator",
          "type": "address"
        },
        {
          "indexed": false,
          "internalType": "bool",
          "name": "approved",
          "type": "bool"
        }
      ],
      "name": "ApprovalForAll",
      "type": "event"
    },
    {
      "anonymous": false,
      "inputs": [
        {
          "indexed": true,
          "internalType": "address",
          "name": "owner",
          "type": "address"
        },
        {
          "indexed": true,
          "internalType": "uint256",
          "name": "location",
          "type": "uint256"
        },
        {
          "indexed": false,
          "internalType": "uint256",
          "name": "stake",
          "type": "uint256"
        }
      ],
      "name": "ExitComplete",
      "type": "event"
    },
    {
      "anonymous": false,
      "inputs": [
        {
          "indexed": true,
          "internalType": "uint256",
          "name": "fleet",
          "type": "uint256"
        },
        {
          "indexed": true,
          "internalType": "address",
          "name": "fleetOwner",
          "type": "address"
        },
        {
          "indexed": true,
          "internalType": "address",
          "name": "destinationOwner",
          "type": "address"
        },
        {
          "indexed": false,
          "internalType": "uint256",
          "name": "destination",
          "type": "uint256"
        },
        {
          "indexed": false,
          "internalType": "bool",
          "name": "gift",
          "type": "bool"
        },
        {
          "indexed": false,
          "internalType": "bool",
          "name": "won",
          "type": "bool"
        },
        {
          "components": [
            {
              "internalType": "uint32",
              "name": "newNumspaceships",
              "type": "uint32"
            },
            {
              "internalType": "int40",
              "name": "newTravelingUpkeep",
              "type": "int40"
            },
            {
              "internalType": "uint32",
              "name": "newOverflow",
              "type": "uint32"
            },
            {
              "internalType": "uint32",
              "name": "numSpaceshipsAtArrival",
              "type": "uint32"
            },
            {
              "internalType": "uint32",
              "name": "taxLoss",
              "type": "uint32"
            },
            {
              "internalType": "uint32",
              "name": "fleetLoss",
              "type": "uint32"
            },
            {
              "internalType": "uint32",
              "name": "planetLoss",
              "type": "uint32"
            },
            {
              "internalType": "uint32",
              "name": "inFlightFleetLoss",
              "type": "uint32"
            },
            {
              "internalType": "uint32",
              "name": "inFlightPlanetLoss",
              "type": "uint32"
            },
            {
              "internalType": "uint32",
              "name": "accumulatedDefenseAdded",
              "type": "uint32"
            },
            {
              "internalType": "uint32",
              "name": "accumulatedAttackAdded",
              "type": "uint32"
            }
          ],
          "indexed": false,
          "internalType": "struct ImportingOuterSpaceEvents.ArrivalData",
          "name": "data",
          "type": "tuple"
        }
      ],
      "name": "FleetArrived",
      "type": "event"
    },
    {
      "anonymous": false,
      "inputs": [
        {
          "indexed": true,
          "internalType": "address",
          "name": "fleetSender",
          "type": "address"
        },
        {
          "indexed": true,
          "internalType": "address",
          "name": "fleetOwner",
          "type": "address"
        },
        {
          "indexed": true,
          "internalType": "uint256",
          "name": "from",
          "type": "uint256"
        },
        {
          "indexed": false,
          "internalType": "address",
          "name": "operator",
          "type": "address"
        },
        {
          "indexed": false,
          "internalType": "uint256",
          "name": "fleet",
          "type": "uint256"
        },
        {
          "indexed": false,
          "internalType": "uint32",
          "name": "quantity",
          "type": "uint32"
        },
        {
          "indexed": false,
          "internalType": "uint32",
          "name": "newNumSpaceships",
          "type": "uint32"
        },
        {
          "indexed": false,
          "internalType": "int40",
          "name": "newTravelingUpkeep",
          "type": "int40"
        },
        {
          "indexed": false,
          "internalType": "uint32",
          "name": "newOverflow",
          "type": "uint32"
        }
      ],
      "name": "FleetSent",
      "type": "event"
    },
    {
      "anonymous": false,
      "inputs": [
        {
          "indexed": false,
          "internalType": "bytes32",
          "name": "genesis",
          "type": "bytes32"
        },
        {
          "indexed": false,
          "internalType": "uint256",
          "name": "resolveWindow",
          "type": "uint256"
        },
        {
          "indexed": false,
          "internalType": "uint256",
          "name": "timePerDistance",
          "type": "uint256"
        },
        {
          "indexed": false,
          "internalType": "uint256",
          "name": "exitDuration",
          "type": "uint256"
        },
        {
          "indexed": false,
          "internalType": "uint32",
          "name": "acquireNumSpaceships",
          "type": "uint32"
        },
        {
          "indexed": false,
          "internalType": "uint32",
          "name": "productionSpeedUp",
          "type": "uint32"
        },
        {
          "indexed": false,
          "internalType": "uint256",
          "name": "frontrunningDelay",
          "type": "uint256"
        },
        {
          "indexed": false,
          "internalType": "uint256",
          "name": "productionCapAsDuration",
          "type": "uint256"
        },
        {
          "indexed": false,
          "internalType": "uint256",
          "name": "upkeepProductionDecreaseRatePer10000th",
          "type": "uint256"
        },
        {
          "indexed": false,
          "internalType": "uint256",
          "name": "fleetSizeFactor6",
          "type": "uint256"
        },
        {
          "indexed": false,
          "internalType": "uint32",
          "name": "initialSpaceExpansion",
          "type": "uint32"
        },
        {
          "indexed": false,
          "internalType": "uint32",
          "name": "expansionDelta",
          "type": "uint32"
        },
        {
          "indexed": false,
          "internalType": "uint256",
          "name": "giftTaxPer10000",
          "type": "uint256"
        }
      ],
      "name": "Initialized",
      "type": "event"
    },
    {
      "anonymous": false,
      "inputs": [
        {
          "indexed": true,
          "internalType": "address",
          "name": "owner",
          "type": "address"
        },
        {
          "indexed": true,
          "internalType": "uint256",
          "name": "location",
          "type": "uint256"
        }
      ],
      "name": "PlanetExit",
      "type": "event"
    },
    {
      "anonymous": false,
      "inputs": [
        {
          "indexed": true,
          "internalType": "uint256",
          "name": "location",
          "type": "uint256"
        }
      ],
      "name": "PlanetReset",
      "type": "event"
    },
    {
      "anonymous": false,
      "inputs": [
        {
          "indexed": true,
          "internalType": "address",
          "name": "acquirer",
          "type": "address"
        },
        {
          "indexed": true,
          "internalType": "uint256",
          "name": "location",
          "type": "uint256"
        },
        {
          "indexed": false,
          "internalType": "uint32",
          "name": "numSpaceships",
          "type": "uint32"
        },
        {
          "indexed": false,
          "internalType": "int40",
          "name": "travelingUpkeep",
          "type": "int40"
        },
        {
          "indexed": false,
          "internalType": "uint32",
          "name": "overflow",
          "type": "uint32"
        },
        {
          "indexed": false,
          "internalType": "uint256",
          "name": "stake",
          "type": "uint256"
        }
      ],
      "name": "PlanetStake",
      "type": "event"
    },
    {
      "anonymous": false,
      "inputs": [
        {
          "indexed": true,
          "internalType": "address",
          "name": "previousOwner",
          "type": "address"
        },
        {
          "indexed": true,
          "internalType": "address",
          "name": "newOwner",
          "type": "address"
        },
        {
          "indexed": true,
          "internalType": "uint256",
          "name": "location",
          "type": "uint256"
        },
        {
          "indexed": false,
          "internalType": "uint32",
          "name": "newNumspaceships",
          "type": "uint32"
        },
        {
          "indexed": false,
          "internalType": "int40",
          "name": "newTravelingUpkeep",
          "type": "int40"
        },
        {
          "indexed": false,
          "internalType": "uint32",
          "name": "newOverflow",
          "type": "uint32"
        }
      ],
      "name": "PlanetTransfer",
      "type": "event"
    },
    {
      "anonymous": false,
      "inputs": [
        {
          "indexed": true,
          "internalType": "uint256",
          "name": "location",
          "type": "uint256"
        },
        {
          "indexed": true,
          "internalType": "address",
          "name": "giver",
          "type": "address"
        },
        {
          "indexed": false,
          "internalType": "uint256",
          "name": "rewardId",
          "type": "uint256"
        }
      ],
      "name": "RewardSetup",
      "type": "event"
    },
    {
      "anonymous": false,
      "inputs": [
        {
          "indexed": true,
          "internalType": "address",
          "name": "owner",
          "type": "address"
        },
        {
          "indexed": true,
          "internalType": "uint256",
          "name": "location",
          "type": "uint256"
        },
        {
          "indexed": true,
          "internalType": "uint256",
          "name": "rewardId",
          "type": "uint256"
        }
      ],
      "name": "RewardToWithdraw",
      "type": "event"
    },
    {
      "anonymous": false,
      "inputs": [
        {
          "indexed": true,
          "internalType": "address",
          "name": "owner",
          "type": "address"
        },
        {
          "indexed": false,
          "internalType": "uint256",
          "name": "newStake",
          "type": "uint256"
        }
      ],
      "name": "StakeToWithdraw",
      "type": "event"
    },
    {
      "anonymous": false,
      "inputs": [
        {
          "indexed": true,
          "internalType": "address",
          "name": "from",
          "type": "address"
        },
        {
          "indexed": true,
          "internalType": "address",
          "name": "to",
          "type": "address"
        },
        {
          "indexed": true,
          "internalType": "uint256",
          "name": "location",
          "type": "uint256"
        }
      ],
      "name": "Transfer",
      "type": "event"
    },
    {
      "anonymous": false,
      "inputs": [
        {
          "indexed": true,
          "internalType": "uint256",
          "name": "origin",
          "type": "uint256"
        },
        {
          "indexed": true,
          "internalType": "uint256",
          "name": "fleet",
          "type": "uint256"
        },
        {
          "indexed": false,
          "internalType": "uint32",
          "name": "newNumspaceships",
          "type": "uint32"
        },
        {
          "indexed": false,
          "internalType": "int40",
          "name": "newTravelingUpkeep",
          "type": "int40"
        },
        {
          "indexed": false,
          "internalType": "uint32",
          "name": "newOverflow",
          "type": "uint32"
        }
      ],
      "name": "TravelingUpkeepReductionFromDestruction",
      "type": "event"
    },
    {
      "inputs": [
        {
          "internalType": "uint256",
          "name": "location",
          "type": "uint256"
        },
        {
          "internalType": "uint256",
          "name": "amount",
          "type": "uint256"
        }
      ],
      "name": "acquireViaTransferFrom",
      "outputs": [],
      "stateMutability": "nonpayable",
      "type": "function"
    },
    {
      "inputs": [
        {
          "internalType": "address",
          "name": "owner",
          "type": "address"
        }
      ],
      "name": "balanceToWithdraw",
      "outputs": [
        {
          "internalType": "uint256",
          "name": "",
          "type": "uint256"
        }
      ],
      "stateMutability": "view",
      "type": "function"
    },
    {
      "inputs": [
        {
          "internalType": "address",
          "name": "owner",
          "type": "address"
        },
        {
          "internalType": "uint256",
          "name": "location",
          "type": "uint256"
        }
      ],
      "name": "exitFor",
      "outputs": [],
      "stateMutability": "nonpayable",
      "type": "function"
    },
    {
      "inputs": [
        {
          "internalType": "address",
          "name": "owner",
          "type": "address"
        },
        {
          "internalType": "uint256[]",
          "name": "locations",
          "type": "uint256[]"
        }
      ],
      "name": "fetchAndWithdrawFor",
      "outputs": [],
      "stateMutability": "nonpayable",
      "type": "function"
    },
    {
      "inputs": [
        {
          "internalType": "address",
          "name": "",
          "type": "address"
        },
        {
          "internalType": "address",
          "name": "forAddress",
          "type": "address"
        },
        {
          "internalType": "uint256",
          "name": "amount",
          "type": "uint256"
        },
        {
          "internalType": "bytes",
          "name": "data",
          "type": "bytes"
        }
      ],
      "name": "onTokenPaidFor",
      "outputs": [
        {
          "internalType": "bool",
          "name": "",
          "type": "bool"
        }
      ],
      "stateMutability": "nonpayable",
      "type": "function"
    },
    {
      "inputs": [
        {
          "internalType": "address",
          "name": "",
          "type": "address"
        },
        {
          "internalType": "uint256",
          "name": "amount",
          "type": "uint256"
        },
        {
          "internalType": "bytes",
          "name": "data",
          "type": "bytes"
        }
      ],
      "name": "onTokenTransfer",
      "outputs": [
        {
          "internalType": "bool",
          "name": "",
          "type": "bool"
        }
      ],
      "stateMutability": "nonpayable",
      "type": "function"
    },
    {
      "inputs": [
        {
          "internalType": "address",
          "name": "owner",
          "type": "address"
        }
      ],
      "name": "withdrawFor",
      "outputs": [],
      "stateMutability": "nonpayable",
      "type": "function"
    }
  ],
  "transactionHash": "0xafe063e95bdf9008384e9f2097a440aaa38e909bb0ad9f39d699f183dd1cfcf2",
  "args": [
    {
      "stakingToken": "0xc1363e26Fd017c585Aa5072486BeF1131eCe6560",
      "allianceRegistry": "0xE7Bd2e660DfDcc230c61527757010631B1b56aca",
      "genesis": "0xf69ea25ce5e4aa509188e7ece284702358d8df5e656a9a3c8509506343f9faa8",
      "resolveWindow": 43200,
      "timePerDistance": 7200,
      "exitDuration": 259200,
      "acquireNumSpaceships": 100000,
      "productionSpeedUp": 1,
      "frontrunningDelay": 1800,
      "productionCapAsDuration": 259200,
      "upkeepProductionDecreaseRatePer10000th": 5000,
      "fleetSizeFactor6": 500000,
      "initialSpaceExpansion": 12,
      "expansionDelta": 4,
      "giftTaxPer10000": 2000
    }
  ],
  "numDeployments": 2,
  "linkedData": {
    "genesisHash": "0xf69ea25ce5e4aa509188e7ece284702358d8df5e656a9a3c8509506343f9faa8",
    "resolveWindow": 43200,
    "timePerDistance": 7200,
    "exitDuration": 259200,
    "acquireNumSpaceships": 100000,
    "productionSpeedUp": 1,
    "chainGenesisHash": "",
    "frontrunningDelay": 1800,
    "productionCapAsDuration": 259200,
    "upkeepProductionDecreaseRatePer10000th": 5000,
    "fleetSizeFactor6": 500000,
    "initialSpaceExpansion": 12,
    "expansionDelta": 4,
    "giftTaxPer10000": 2000
  },
  "solcInputHash": "62f22cc80533c9bef3f381738960726f",
  "bytecode": "0x6102406040523480156200001257600080fd5b50604051620031ae380380620031ae8339810160408190526200003591620001bc565b806000600482608001516200004b91906200029c565b608083015190915062000060826004620002ce565b63ffffffff1614620000b85760405162461bcd60e51b815260206004820152601d60248201527f54494d455f5045525f444953545f4e4f545f444956495349424c455f34000000604482015260640160405180910390fd5b81516001600160a01b0390811660805260208301511660a0908152604083015160c0908152606084015160e090815263ffffffff9384166101009081529285015161012090815291850151841661014090815290850151841661016090815292850151610180908152918501516101a0908152908501516101c052918401516101e052830151909116610200520151610220525062000309565b6040516101c081016001600160401b03811182821017156200018457634e487b7160e01b600052604160045260246000fd5b60405290565b80516001600160a01b0381168114620001a257600080fd5b919050565b805163ffffffff81168114620001a257600080fd5b60006101c08284031215620001d057600080fd5b620001da62000152565b620001e5836200018a565b8152620001f5602084016200018a565b602082015260408301516040820152606083015160608201526080830151608082015260a083015160a08201526200023060c08401620001a7565b60c08201526200024360e08401620001a7565b60e0820152610100838101519082015261012080840151908201526101408084015190820152610160808401519082015261018062000284818501620001a7565b908201526101a0928301519281019290925250919050565b600063ffffffff80841680620002c257634e487b7160e01b600052601260045260246000fd5b92169190910492915050565b600063ffffffff808316818516818304811182151516156200030057634e487b7160e01b600052601160045260246000fd5b02949350505050565b60805160a05160c05160e05161010051610120516101405161016051610180516101a0516101c0516101e0516102005161022051612d87620004276000396000505060008181611aef01528181611bd401528181611cc10152611dac015260008181612381015281816123b40152818161243501526124680152600061103b0152600081816110b5015281816116e401526121c901526000505060008181610fe60152818161116c015281816112e20152611346015260008181611587015281816115d20152818161166b015281816116a9015261220701526000611f120152600050506000505060008181610c060152610e21015260005050600081816101ad015281816102490152818161034b01526106dc0152612d876000f3fe608060405234801561001057600080fd5b506004361061007d5760003560e01c8063a4c0ed361161005b578063a4c0ed36146100d2578063afc82370146100e5578063c9560838146100f8578063e2e9b0791461013c57600080fd5b80637ba423fb146100825780639b6be065146100975780639eca672c146100bf575b600080fd5b61009561009036600461267d565b61014f565b005b6100aa6100a536600461270d565b61022f565b60405190151581526020015b60405180910390f35b6100956100cd366004612780565b6102fd565b6100aa6100e036600461279d565b610331565b6100956100f33660046127f9565b6103f0565b61012e610106366004612780565b73ffffffffffffffffffffffffffffffffffffffff1660009081526002602052604090205490565b6040519081526020016100b6565b61009561014a366004612825565b6103fa565b3361015b81838561040a565b6040517f23b872dd00000000000000000000000000000000000000000000000000000000815273ffffffffffffffffffffffffffffffffffffffff8281166004830152306024830152604482018490527f000000000000000000000000000000000000000000000000000000000000000016906323b872dd90606401602060405180830381600087803b1580156101f157600080fd5b505af1158015610205573d6000803e3d6000fd5b505050506040513d601f19601f8201168201806040525081019061022991906128ad565b50505050565b60003373ffffffffffffffffffffffffffffffffffffffff7f000000000000000000000000000000000000000000000000000000000000000016146102d5576040517f08c379a000000000000000000000000000000000000000000000000000000000815260206004820152600d60248201527f494e56414c49445f45524332300000000000000000000000000000000000000060448201526064015b60405180910390fd5b60006102e3838501856128cf565b90506102f086868361040a565b5060019695505050505050565b73ffffffffffffffffffffffffffffffffffffffff811660009081526002602052604090205461032d828261062e565b5050565b60003373ffffffffffffffffffffffffffffffffffffffff7f000000000000000000000000000000000000000000000000000000000000000016146103d2576040517f08c379a000000000000000000000000000000000000000000000000000000000815260206004820152600d60248201527f494e56414c49445f45524332300000000000000000000000000000000000000060448201526064016102cc565b6000806103e1848601866127f9565b915091506102f082878361040a565b61032d8282610813565b610405838383610a46565b505050565b60008181526020819052604081206040805160e081018252825473ffffffffffffffffffffffffffffffffffffffff8116825264ffffffffff74010000000000000000000000000000000000000000820481166020840152790100000000000000000000000000000000000000000000000000909104811692820192909252600183015463ffffffff8082166060840152640100000000820490931660808301526901000000000000000000810460040b60a08301526e010000000000000000000000000000900490911660c08201529091506000906104ea9084610d1d565b9050670de0b6b3a7640000610503826101400151610e7d565b61ffff166105119190612917565b8414610579576040517f08c379a000000000000000000000000000000000000000000000000000000000815260206004820152600e60248201527f494e56414c49445f414d4f554e5400000000000000000000000000000000000060448201526064016102cc565b61058281610f54565b61058c8582611404565b6105988282600061176a565b6105a1836119fb565b828573ffffffffffffffffffffffffffffffffffffffff167f7bcb9b822a2e2cb38b8774da0bc62c6f1b2a9272d62f18009122bd6fad8523f9836060015184608001518560e001518960405161061f949392919063ffffffff948516815260049390930b602084015292166040820152606081019190915260800190565b60405180910390a35050505050565b73ffffffffffffffffffffffffffffffffffffffff821660008181526002602052604080822091909155517f4d135695228631e73b5a31e6fc8af4e5825cde63774c3c48695b4af814d7b019906106889084815260200190565b60405180910390a26040517fa9059cbb00000000000000000000000000000000000000000000000000000000815273ffffffffffffffffffffffffffffffffffffffff8381166004830152602482018390527f0000000000000000000000000000000000000000000000000000000000000000169063a9059cbb90604401602060405180830381600087803b15801561072057600080fd5b505af1158015610734573d6000803e3d6000fd5b505050506040513d601f19601f8201168201806040525081019061075891906128ad565b6107be576040517f08c379a000000000000000000000000000000000000000000000000000000000815260206004820152600f60248201527f4641494c45445f5452414e53464552000000000000000000000000000000000060448201526064016102cc565b8173ffffffffffffffffffffffffffffffffffffffff167f4d135695228631e73b5a31e6fc8af4e5825cde63774c3c48695b4af814d7b019600060405161080791815260200190565b60405180910390a25050565b600081815260208190526040812060018101549091906108389063ffffffff16611edb565b509050806108a2576040517f08c379a000000000000000000000000000000000000000000000000000000000815260206004820152600a60248201527f4e4f545f4143544956450000000000000000000000000000000000000000000060448201526064016102cc565b815473ffffffffffffffffffffffffffffffffffffffff858116911614610925576040517f08c379a000000000000000000000000000000000000000000000000000000000815260206004820152600960248201527f4e4f545f4f574e4552000000000000000000000000000000000000000000000060448201526064016102cc565b8154790100000000000000000000000000000000000000000000000000900464ffffffffff16156109b2576040517f08c379a000000000000000000000000000000000000000000000000000000000815260206004820152600f60248201527f45584954494e475f414c5245414459000000000000000000000000000000000060448201526064016102cc565b81547fffff0000000000ffffffffffffffffffffffffffffffffffffffffffffffffff167901000000000000000000000000000000000000000000000000004264ffffffffff1602178255604051839073ffffffffffffffffffffffffffffffffffffffff8616907fb9182e4e152947f1e6691fa0ee6f68f21f607fed825945c270e69995acad805f90600090a350505050565b6000805b82811015610cd8576000610a81858584818110610a6957610a69612954565b90506020020135600090815260208190526040902090565b8054909150610ab390790100000000000000000000000000000000000000000000000000900464ffffffffff16611efa565b15610cc557805473ffffffffffffffffffffffffffffffffffffffff878116911614610b3b576040517f08c379a000000000000000000000000000000000000000000000000000000000815260206004820152600960248201527f4e4f545f4f574e4552000000000000000000000000000000000000000000000060448201526064016102cc565b848483818110610b4d57610b4d612954565b90506020020135600073ffffffffffffffffffffffffffffffffffffffff168773ffffffffffffffffffffffffffffffffffffffff167fddf252ad1be2c89b69c2b068fc378daa952ba7f163c4a11628f55a4df523b3ef60405160405180910390a48054610c589073ffffffffffffffffffffffffffffffffffffffff16868685818110610bdd57610bdd612954565b90506020020135610c53888887818110610bf957610bf9612954565b90506020020135604080517f00000000000000000000000000000000000000000000000000000000000000006020820152908101829052600090606001604051602081830303815290604052805190602001209050919050565b611f47565b610c629084612983565b81547fffff0000000000000000000000000000000000000000000000000000000000001682556001820180547fffffffffffffffffffffffffffff0000000000000000000000000000000000001664010000000064ffffffffff42160217905592505b5080610cd08161299b565b915050610a4a565b5073ffffffffffffffffffffffffffffffffffffffff8416600090815260026020526040812054610d0a908390612983565b9050610d16858261062e565b5050505050565b6040805161016081018252600080825260208201819052918101829052606081018290526080810182905260a0810182905260c0810182905260e0810182905261010081018290526101208101829052610140810191909152600080610d868560600151611edb565b85855260808088015164ffffffffff908116602088015283151560408089019190915263ffffffff80851660608a015260a0808c015160040b948a0194909452908a01805183169389019390935291511660c0808801919091528801511660e0860152865173ffffffffffffffffffffffffffffffffffffffff9081166101008701528751166101208601529092509050610e6e84604080517f00000000000000000000000000000000000000000000000000000000000000006020820152908101829052600090606001604051602081830303815290604052805190602001209050919050565b61014084015250909392505050565b6000610e888261206c565b610eee576040517f08c379a000000000000000000000000000000000000000000000000000000000815260206004820152601160248201527f504c414e45545f4e4f545f45584953545300000000000000000000000000000060448201526064016102cc565b6000610efb83600c612088565b905060ff81167e060008000a000c000e00100012001400140016001800200028003000380048610f2c8260026129d4565b610f379060016129fe565b61ffff1660208110610f4b57610f4b612954565b1a949350505050565b60a081015164ffffffffff1615610fa557610f728160a00151611efa565b15610fa557600060c082018190526060820181905260808201819052610120820181905260e08201819052604090910152565b6000816020015164ffffffffff1642610fbe9190612a24565b90506000610fd0836101400151612122565b90506000610e1061ffff831661100c63ffffffff7f00000000000000000000000000000000000000000000000000000000000000001686612917565b6110169190612917565b6110209190612a6a565b9050600080856080015160040b13156110a6576127106110607f000000000000000000000000000000000000000000000000000000000000000084612917565b61106a9190612a6a565b9050846080015164ffffffffff1681111561108d5750608084015164ffffffffff165b80856080015161109d9190612a7e565b60040b60808601525b606085015163ffffffff1660007f0000000000000000000000000000000000000000000000000000000000000000156112c55760006110e4866121bf565b9050600088604001516110f85760006110fa565b815b9050808411156112305760c089015164ffffffffff1661122b5760e08901516107089063ffffffff161561115c57828a60e0015163ffffffff166107086111419190612917565b61114b9190612a6a565b905061070881101561115c57506107085b6000610e108261119263ffffffff7f0000000000000000000000000000000000000000000000000000000000000000168d612917565b61119c9190612917565b6111a69190612a6a565b90506111b28387612a24565b8111156111c6576111c38387612a24565b90505b858111156111f9578a60400151156111f057856111e3888a612a24565b6111ed9190612983565b94505b60009550611228565b8a604001511561121b578061120e888a612a24565b6112189190612983565b94505b6112258187612a24565b95505b50505b611278565b8860400151156112785760006112468583612a24565b905060006112548789612a24565b90508181111561126e576112688282612a24565b94508190505b6112258187612983565b8860400151156112be576000838a6080015160040b6112979190612ae4565b90506112a282612b58565b8112156112b5576112b282612b58565b90505b60040b60808a01525b50506113a4565b8660400151156113375782610e1061ffff871661130863ffffffff7f0000000000000000000000000000000000000000000000000000000000000000168a612917565b6113129190612917565b61131c9190612a6a565b6113269190612a24565b6113309083612983565b91506113a4565b6000610e1061136c63ffffffff7f00000000000000000000000000000000000000000000000000000000000000001689612917565b61137890610708612917565b6113829190612a6a565b90508281111561139557506000916113a2565b61139f8184612a24565b92505b505b638000000082106113c7576113be60016380000000612b91565b63ffffffff1691505b63ffffffff8216606088015260408701511580156113ed5750606087015163ffffffff16155b156113fb5760006101208801525b50505050505050565b806040015115611470576040517f08c379a000000000000000000000000000000000000000000000000000000000815260206004820152600c60248201527f5354494c4c5f414354495645000000000000000000000000000000000000000060448201526064016102cc565b6000816060015163ffffffff166000141561149e5761149382610140015161222c565b61ffff169050611538565b8273ffffffffffffffffffffffffffffffffffffffff1682610100015173ffffffffffffffffffffffffffffffffffffffff1614611538576040517f08c379a000000000000000000000000000000000000000000000000000000000815260206004820152600860248201527f4f4343555049454400000000000000000000000000000000000000000000000060448201526064016102cc565b6000611548836101400151612122565b90506000611555826121bf565b73ffffffffffffffffffffffffffffffffffffffff8616610120860152905063ffffffff8316156116a75760006115cd7f000000000000000000000000000000000000000000000000000000000000000063ffffffff168563ffffffff166127106115c48961014001516122c3565b61ffff1661235a565b5090507f000000000000000000000000000000000000000000000000000000000000000063ffffffff168163ffffffff1610611665576040517f08c379a000000000000000000000000000000000000000000000000000000000815260206004820152600f60248201527f4641494c45445f4341505455524544000000000000000000000000000000000060448201526064016102cc565b61168f817f0000000000000000000000000000000000000000000000000000000000000000612b91565b63ffffffff16606086015250600060e0850152611748565b7f0000000000000000000000000000000000000000000000000000000000000000846060018181516116d99190612bb6565b63ffffffff169052507f000000000000000000000000000000000000000000000000000000000000000015611748578063ffffffff16846060015163ffffffff161115611740578084606001516117309190612b91565b63ffffffff1660e0850152611748565b600060e08501525b61175181612bd5565b60030b6080850152505060016040909201919091525050565b60008260a0015164ffffffffff1611801561178e575060c082015164ffffffffff16155b1561179c5761179c826124fb565b81610120015173ffffffffffffffffffffffffffffffffffffffff1682610100015173ffffffffffffffffffffffffffffffffffffffff161461187757610120820151835473ffffffffffffffffffffffffffffffffffffffff9182167fffffffffffffff000000000000000000000000000000000000000000000000009091168117740100000000000000000000000000000000000000004264ffffffffff16021785558351610100850151604051919316907fddf252ad1be2c89b69c2b068fc378daa952ba7f163c4a11628f55a4df523b3ef90600090a45b80156118a85782547fffff0000000000ffffffffffffffffffffffffffffffffffffffffffffffffff168355611919565b8160a0015164ffffffffff168260c0015164ffffffffff16146119195760c0820151835464ffffffffff909116790100000000000000000000000000000000000000000000000000027fffff0000000000ffffffffffffffffffffffffffffffffffffffffffffffffff9091161783555b61192b826040015183606001516125c0565b60019093018054608084015160e0909401514264ffffffffff908116640100000000027fffffffffffffffffffffffffffffffffffffffffffffff0000000000ffffffff63ffffffff9384166e01000000000000000000000000000002167fffffffffffffffffffffffffffff00000000ffffffffff0000000000ffffffff929097166901000000000000000000027fffffffffffffffffffffffffffffffffffff0000000000ffffffffff00000000909416979092169690961791909117949094169290921792909217905550565b604080516080808201835260055463ffffffff80821684526401000000008204811660208501526801000000000000000082048116948401949094526c0100000000000000000000000090049092166060820152906fffffffffffffffffffffffffffffffff8316600f0b9083901d600080831215611b5b57835163ffffffff16611a8584612b58565b1315611aed576040517f08c379a000000000000000000000000000000000000000000000000000000000815260206004820152601660248201527f4e4f545f524541434841424c455f5945545f4d494e580000000000000000000060448201526064016102cc565b7f000000000000000000000000000000000000000000000000000000000000000060030b611b1a84612b58565b611b249190612c14565b925063ffffffff831315611b3a5763ffffffff92505b835163ffffffff16831315611b56575063ffffffff8216835260015b611c3a565b836020015163ffffffff16831315611bcf576040517f08c379a000000000000000000000000000000000000000000000000000000000815260206004820152601660248201527f4e4f545f524541434841424c455f5945545f4d4158580000000000000000000060448201526064016102cc565b611bfc7f000000000000000000000000000000000000000000000000000000000000000060030b84612c14565b925063ffffffff831315611c125763ffffffff92505b8263ffffffff16846020015163ffffffff161015611c3a575063ffffffff8216602084015260015b6000821215611d3357604084015163ffffffff16611c5783612b58565b1315611cbf576040517f08c379a000000000000000000000000000000000000000000000000000000000815260206004820152601660248201527f4e4f545f524541434841424c455f5945545f4d494e590000000000000000000060448201526064016102cc565b7f000000000000000000000000000000000000000000000000000000000000000060030b611cec83612b58565b611cf69190612c14565b915063ffffffff821315611d0c5763ffffffff91505b81846040015163ffffffff161215611d2e575063ffffffff8116604084015260015b611e0c565b836060015163ffffffff16821315611da7576040517f08c379a000000000000000000000000000000000000000000000000000000000815260206004820152601660248201527f4e4f545f524541434841424c455f5945545f4d4158590000000000000000000060448201526064016102cc565b611dd47f000000000000000000000000000000000000000000000000000000000000000060030b83612c14565b915063ffffffff821315611dea5763ffffffff91505b81846060015163ffffffff161215611e0c575063ffffffff8116606084015260015b8015610d165783516005805460208701516040880151606089015163ffffffff9081166c01000000000000000000000000027fffffffffffffffffffffffffffffffff00000000ffffffffffffffffffffffff9282166801000000000000000002929092167fffffffffffffffffffffffffffffffff0000000000000000ffffffffffffffff938216640100000000027fffffffffffffffffffffffffffffffffffffffffffffffff000000000000000090951691909616179290921716929092179190911790555050505050565b6380000000818116811490600090611ef39084612c88565b9050915091565b6000808264ffffffffff16118015611f415750611f3e7f000000000000000000000000000000000000000000000000000000000000000064ffffffffff8416612983565b42115b92915050565b6000670de0b6b3a7640000611f5b83610e7d565b61ffff16611f699190612917565b9050828473ffffffffffffffffffffffffffffffffffffffff167f1c363b29828a892b7cddafe9583ef52e0d5aca0ea7011bda6ccf039e1781f73883604051611fb491815260200190565b60405180910390a360008381526007602052604090205480156120645773ffffffffffffffffffffffffffffffffffffffff85166000818152600860209081526040808320858452825280832080547fffffffffffffffffffffffffffffffffffffffffffffffffffffffffffffff001660011790558783526007909152808220829055518392879290917f74f110a1e0cd4892234c7ba49df9f8a354cd8d29b272f7557c9b8c3c38a653369190a45b509392505050565b600061207b82603460106125e6565b60ff166001149050919050565b600080612097848460406125e6565b905060006120a6600283612cab565b905060006120b5600284612ccd565b905060007f01223334444555555666666677777777888888889999999aaaaaabbbbcccddef60ff8416602081106120ee576120ee612954565b1a905060ff821661210c5760048160ff16901c945050505050611f41565b612117601082612ccd565b979650505050505050565b600061212d8261206c565b612193576040517f08c379a000000000000000000000000000000000000000000000000000000000815260206004820152601160248201527f504c414e45545f4e4f545f45584953545300000000000000000000000000000060448201526064016102cc565b611f4182600c7f0708083409600a8c0bb80ce40e100e100e100e101068151819c81e7823282ee0612603565b6000610e106121f27f000000000000000000000000000000000000000000000000000000000000000061ffff8516612917565b6121fc9190612a6a565b611f419063ffffffff7f000000000000000000000000000000000000000000000000000000000000000016612983565b60006122378261206c565b61229d576040517f08c379a000000000000000000000000000000000000000000000000000000000815260206004820152601160248201527f504c414e45545f4e4f545f45584953545300000000000000000000000000000060448201526064016102cc565b6122a882602c612088565b6122b79060ff16610bb86129d4565b611f4190613a986129fe565b60006122ce8261206c565b612334576040517f08c379a000000000000000000000000000000000000000000000000000000000815260206004820152601160248201527f504c414e45545f4e4f545f45584953545300000000000000000000000000000060448201526064016102cc565b61233f82601c612088565b61234e9060ff166101906129d4565b611f4190610fa06129fe565b600080851580612368575084155b15612378575060009050806124f2565b6000856123a5887f0000000000000000000000000000000000000000000000000000000000000000612917565b6123af9190612a6a565b6123dc7f0000000000000000000000000000000000000000000000000000000000000000620f4240612a24565b6123e69190612983565b6123f09088612917565b90506000620f4240856124038885612917565b61240d9190612a6a565b6124179190612a6a565b90508087111561242c578793508092506124ef565b600088612459897f0000000000000000000000000000000000000000000000000000000000000000612917565b6124639190612a6a565b6124907f0000000000000000000000000000000000000000000000000000000000000000620f4240612a24565b61249a9190612983565b6124a49089612917565b90506000620f4240886124b78985612917565b6124c19190612a6a565b6124cb9190612a6a565b63ffffffff1690508981106124e8576124e560018b612a24565b90505b9450879350505b50505b94509492505050565b60006125168261010001518360000151846101400151611f47565b61010083015173ffffffffffffffffffffffffffffffffffffffff1660009081526002602052604081205491925090612550908390612983565b6101008401805173ffffffffffffffffffffffffffffffffffffffff9081166000908152600260209081526040918290208590559251905184815293945016917f4d135695228631e73b5a31e6fc8af4e5825cde63774c3c48695b4af814d7b019910160405180910390a2505050565b600081836125cf5760006125d5565b63800000005b6125df9190612bb6565b9392505050565b60006125fb60ff80841690851686901c612cef565b949350505050565b6000806126108585612088565b90508261261e826002612d03565b612629906001612d2c565b60ff166020811061263c5761263c612954565b1a83612649836002612d03565b60ff166020811061265c5761265c612954565b61266a91901a6101006129d4565b61267491906129fe565b95945050505050565b6000806040838503121561269057600080fd5b50508035926020909101359150565b73ffffffffffffffffffffffffffffffffffffffff811681146126c157600080fd5b50565b60008083601f8401126126d657600080fd5b50813567ffffffffffffffff8111156126ee57600080fd5b60208301915083602082850101111561270657600080fd5b9250929050565b60008060008060006080868803121561272557600080fd5b85356127308161269f565b945060208601356127408161269f565b935060408601359250606086013567ffffffffffffffff81111561276357600080fd5b61276f888289016126c4565b969995985093965092949392505050565b60006020828403121561279257600080fd5b81356125df8161269f565b600080600080606085870312156127b357600080fd5b84356127be8161269f565b935060208501359250604085013567ffffffffffffffff8111156127e157600080fd5b6127ed878288016126c4565b95989497509550505050565b6000806040838503121561280c57600080fd5b82356128178161269f565b946020939093013593505050565b60008060006040848603121561283a57600080fd5b83356128458161269f565b9250602084013567ffffffffffffffff8082111561286257600080fd5b818601915086601f83011261287657600080fd5b81358181111561288557600080fd5b8760208260051b850101111561289a57600080fd5b6020830194508093505050509250925092565b6000602082840312156128bf57600080fd5b815180151581146125df57600080fd5b6000602082840312156128e157600080fd5b5035919050565b7f4e487b7100000000000000000000000000000000000000000000000000000000600052601160045260246000fd5b6000817fffffffffffffffffffffffffffffffffffffffffffffffffffffffffffffffff048311821515161561294f5761294f6128e8565b500290565b7f4e487b7100000000000000000000000000000000000000000000000000000000600052603260045260246000fd5b60008219821115612996576129966128e8565b500190565b60007fffffffffffffffffffffffffffffffffffffffffffffffffffffffffffffffff8214156129cd576129cd6128e8565b5060010190565b600061ffff808316818516818304811182151516156129f5576129f56128e8565b02949350505050565b600061ffff808316818516808303821115612a1b57612a1b6128e8565b01949350505050565b600082821015612a3657612a366128e8565b500390565b7f4e487b7100000000000000000000000000000000000000000000000000000000600052601260045260246000fd5b600082612a7957612a79612a3b565b500490565b60008160040b8360040b60008112817fffffffffffffffffffffffffffffffffffffffffffffffffffffff800000000001831281151615612ac157612ac16128e8565b81647fffffffff018313811615612ada57612ada6128e8565b5090039392505050565b6000808312837f800000000000000000000000000000000000000000000000000000000000000001831281151615612b1e57612b1e6128e8565b837f7fffffffffffffffffffffffffffffffffffffffffffffffffffffffffffffff018313811615612b5257612b526128e8565b50500390565b60007f8000000000000000000000000000000000000000000000000000000000000000821415612b8a57612b8a6128e8565b5060000390565b600063ffffffff83811690831681811015612bae57612bae6128e8565b039392505050565b600063ffffffff808316818516808303821115612a1b57612a1b6128e8565b60008160030b7fffffffffffffffffffffffffffffffffffffffffffffffffffffffff80000000811415612c0b57612c0b6128e8565b60000392915050565b6000808212827f7fffffffffffffffffffffffffffffffffffffffffffffffffffffffffffffff03841381151615612c4e57612c4e6128e8565b827f8000000000000000000000000000000000000000000000000000000000000000038412811615612c8257612c826128e8565b50500190565b600063ffffffff80841680612c9f57612c9f612a3b565b92169190910692915050565b600060ff831680612cbe57612cbe612a3b565b8060ff84160491505092915050565b600060ff831680612ce057612ce0612a3b565b8060ff84160691505092915050565b600082612cfe57612cfe612a3b565b500690565b600060ff821660ff84168160ff0481118215151615612d2457612d246128e8565b029392505050565b600060ff821660ff84168060ff03821115612d4957612d496128e8565b01939250505056fea264697066735822122071f20c474ece965dfbabcef547a5fa38d264ed2d1dbfc590be6f0720ae041e9564736f6c63430008090033",
  "devdoc": {
    "kind": "dev",
    "methods": {},
    "version": 1
  },
  "userdoc": {
    "kind": "user",
    "methods": {},
    "version": 1
  },
  "storageLayout": {
    "storage": [
      {
        "astId": 17373,
        "contract": "src/outerspace/facets/OuterSpaceStakingFacet.sol:OuterSpaceStakingFacet",
        "label": "_planets",
        "offset": 0,
        "slot": "0",
        "type": "t_mapping(t_uint256,t_struct(Planet)24185_storage)"
      },
      {
        "astId": 17378,
        "contract": "src/outerspace/facets/OuterSpaceStakingFacet.sol:OuterSpaceStakingFacet",
        "label": "_fleets",
        "offset": 0,
        "slot": "1",
        "type": "t_mapping(t_uint256,t_struct(Fleet)24192_storage)"
      },
      {
        "astId": 17382,
        "contract": "src/outerspace/facets/OuterSpaceStakingFacet.sol:OuterSpaceStakingFacet",
        "label": "_stakeReadyToBeWithdrawn",
        "offset": 0,
        "slot": "2",
        "type": "t_mapping(t_address,t_uint256)"
      },
      {
        "astId": 17388,
        "contract": "src/outerspace/facets/OuterSpaceStakingFacet.sol:OuterSpaceStakingFacet",
        "label": "_operators",
        "offset": 0,
        "slot": "3",
        "type": "t_mapping(t_address,t_mapping(t_address,t_bool))"
      },
      {
        "astId": 17395,
        "contract": "src/outerspace/facets/OuterSpaceStakingFacet.sol:OuterSpaceStakingFacet",
        "label": "_inFlight",
        "offset": 0,
        "slot": "4",
        "type": "t_mapping(t_uint256,t_mapping(t_uint256,t_struct(InFlight)24161_storage))"
      },
      {
        "astId": 17398,
        "contract": "src/outerspace/facets/OuterSpaceStakingFacet.sol:OuterSpaceStakingFacet",
        "label": "_discovered",
        "offset": 0,
        "slot": "5",
        "type": "t_struct(Discovered)24170_storage"
      },
      {
        "astId": 17402,
        "contract": "src/outerspace/facets/OuterSpaceStakingFacet.sol:OuterSpaceStakingFacet",
        "label": "_prevRewardIds",
        "offset": 0,
        "slot": "6",
        "type": "t_mapping(t_address,t_uint256)"
      },
      {
        "astId": 17406,
        "contract": "src/outerspace/facets/OuterSpaceStakingFacet.sol:OuterSpaceStakingFacet",
        "label": "_rewards",
        "offset": 0,
        "slot": "7",
        "type": "t_mapping(t_uint256,t_uint256)"
      },
      {
        "astId": 17412,
        "contract": "src/outerspace/facets/OuterSpaceStakingFacet.sol:OuterSpaceStakingFacet",
        "label": "_rewardsToWithdraw",
        "offset": 0,
        "slot": "8",
        "type": "t_mapping(t_address,t_mapping(t_uint256,t_bool))"
      },
      {
        "astId": 17421,
        "contract": "src/outerspace/facets/OuterSpaceStakingFacet.sol:OuterSpaceStakingFacet",
        "label": "_attacks",
        "offset": 0,
        "slot": "9",
        "type": "t_mapping(t_uint256,t_mapping(t_address,t_mapping(t_uint256,t_struct(AccumulatedAttack)24265_storage)))"
      }
    ],
    "types": {
      "t_address": {
        "encoding": "inplace",
        "label": "address",
        "numberOfBytes": "20"
      },
      "t_bool": {
        "encoding": "inplace",
        "label": "bool",
        "numberOfBytes": "1"
      },
      "t_int40": {
        "encoding": "inplace",
        "label": "int40",
        "numberOfBytes": "5"
      },
      "t_mapping(t_address,t_bool)": {
        "encoding": "mapping",
        "key": "t_address",
        "label": "mapping(address => bool)",
        "numberOfBytes": "32",
        "value": "t_bool"
      },
      "t_mapping(t_address,t_mapping(t_address,t_bool))": {
        "encoding": "mapping",
        "key": "t_address",
        "label": "mapping(address => mapping(address => bool))",
        "numberOfBytes": "32",
        "value": "t_mapping(t_address,t_bool)"
      },
      "t_mapping(t_address,t_mapping(t_uint256,t_bool))": {
        "encoding": "mapping",
        "key": "t_address",
        "label": "mapping(address => mapping(uint256 => bool))",
        "numberOfBytes": "32",
        "value": "t_mapping(t_uint256,t_bool)"
      },
      "t_mapping(t_address,t_mapping(t_uint256,t_struct(AccumulatedAttack)24265_storage))": {
        "encoding": "mapping",
        "key": "t_address",
        "label": "mapping(address => mapping(uint256 => struct ImportingOuterSpaceTypes.AccumulatedAttack))",
        "numberOfBytes": "32",
        "value": "t_mapping(t_uint256,t_struct(AccumulatedAttack)24265_storage)"
      },
      "t_mapping(t_address,t_uint256)": {
        "encoding": "mapping",
        "key": "t_address",
        "label": "mapping(address => uint256)",
        "numberOfBytes": "32",
        "value": "t_uint256"
      },
      "t_mapping(t_uint256,t_bool)": {
        "encoding": "mapping",
        "key": "t_uint256",
        "label": "mapping(uint256 => bool)",
        "numberOfBytes": "32",
        "value": "t_bool"
      },
      "t_mapping(t_uint256,t_mapping(t_address,t_mapping(t_uint256,t_struct(AccumulatedAttack)24265_storage)))": {
        "encoding": "mapping",
        "key": "t_uint256",
        "label": "mapping(uint256 => mapping(address => mapping(uint256 => struct ImportingOuterSpaceTypes.AccumulatedAttack)))",
        "numberOfBytes": "32",
        "value": "t_mapping(t_address,t_mapping(t_uint256,t_struct(AccumulatedAttack)24265_storage))"
      },
      "t_mapping(t_uint256,t_mapping(t_uint256,t_struct(InFlight)24161_storage))": {
        "encoding": "mapping",
        "key": "t_uint256",
        "label": "mapping(uint256 => mapping(uint256 => struct ImportingOuterSpaceTypes.InFlight))",
        "numberOfBytes": "32",
        "value": "t_mapping(t_uint256,t_struct(InFlight)24161_storage)"
      },
      "t_mapping(t_uint256,t_struct(AccumulatedAttack)24265_storage)": {
        "encoding": "mapping",
        "key": "t_uint256",
        "label": "mapping(uint256 => struct ImportingOuterSpaceTypes.AccumulatedAttack)",
        "numberOfBytes": "32",
        "value": "t_struct(AccumulatedAttack)24265_storage"
      },
      "t_mapping(t_uint256,t_struct(Fleet)24192_storage)": {
        "encoding": "mapping",
        "key": "t_uint256",
        "label": "mapping(uint256 => struct ImportingOuterSpaceTypes.Fleet)",
        "numberOfBytes": "32",
        "value": "t_struct(Fleet)24192_storage"
      },
      "t_mapping(t_uint256,t_struct(InFlight)24161_storage)": {
        "encoding": "mapping",
        "key": "t_uint256",
        "label": "mapping(uint256 => struct ImportingOuterSpaceTypes.InFlight)",
        "numberOfBytes": "32",
        "value": "t_struct(InFlight)24161_storage"
      },
      "t_mapping(t_uint256,t_struct(Planet)24185_storage)": {
        "encoding": "mapping",
        "key": "t_uint256",
        "label": "mapping(uint256 => struct ImportingOuterSpaceTypes.Planet)",
        "numberOfBytes": "32",
        "value": "t_struct(Planet)24185_storage"
      },
      "t_mapping(t_uint256,t_uint256)": {
        "encoding": "mapping",
        "key": "t_uint256",
        "label": "mapping(uint256 => uint256)",
        "numberOfBytes": "32",
        "value": "t_uint256"
      },
      "t_struct(AccumulatedAttack)24265_storage": {
        "encoding": "inplace",
        "label": "struct ImportingOuterSpaceTypes.AccumulatedAttack",
        "members": [
          {
            "astId": 24258,
            "contract": "src/outerspace/facets/OuterSpaceStakingFacet.sol:OuterSpaceStakingFacet",
            "label": "target",
            "offset": 0,
            "slot": "0",
            "type": "t_address"
          },
          {
            "astId": 24260,
            "contract": "src/outerspace/facets/OuterSpaceStakingFacet.sol:OuterSpaceStakingFacet",
            "label": "numAttackSpent",
            "offset": 20,
            "slot": "0",
            "type": "t_uint32"
          },
          {
            "astId": 24262,
            "contract": "src/outerspace/facets/OuterSpaceStakingFacet.sol:OuterSpaceStakingFacet",
            "label": "damageCausedSoFar",
            "offset": 24,
            "slot": "0",
            "type": "t_uint32"
          },
          {
            "astId": 24264,
            "contract": "src/outerspace/facets/OuterSpaceStakingFacet.sol:OuterSpaceStakingFacet",
            "label": "averageAttackPower",
            "offset": 28,
            "slot": "0",
            "type": "t_uint16"
          }
        ],
        "numberOfBytes": "32"
      },
      "t_struct(Discovered)24170_storage": {
        "encoding": "inplace",
        "label": "struct ImportingOuterSpaceTypes.Discovered",
        "members": [
          {
            "astId": 24163,
            "contract": "src/outerspace/facets/OuterSpaceStakingFacet.sol:OuterSpaceStakingFacet",
            "label": "minX",
            "offset": 0,
            "slot": "0",
            "type": "t_uint32"
          },
          {
            "astId": 24165,
            "contract": "src/outerspace/facets/OuterSpaceStakingFacet.sol:OuterSpaceStakingFacet",
            "label": "maxX",
            "offset": 4,
            "slot": "0",
            "type": "t_uint32"
          },
          {
            "astId": 24167,
            "contract": "src/outerspace/facets/OuterSpaceStakingFacet.sol:OuterSpaceStakingFacet",
            "label": "minY",
            "offset": 8,
            "slot": "0",
            "type": "t_uint32"
          },
          {
            "astId": 24169,
            "contract": "src/outerspace/facets/OuterSpaceStakingFacet.sol:OuterSpaceStakingFacet",
            "label": "maxY",
            "offset": 12,
            "slot": "0",
            "type": "t_uint32"
          }
        ],
        "numberOfBytes": "32"
      },
      "t_struct(Fleet)24192_storage": {
        "encoding": "inplace",
        "label": "struct ImportingOuterSpaceTypes.Fleet",
        "members": [
          {
            "astId": 24187,
            "contract": "src/outerspace/facets/OuterSpaceStakingFacet.sol:OuterSpaceStakingFacet",
            "label": "owner",
            "offset": 0,
            "slot": "0",
            "type": "t_address"
          },
          {
            "astId": 24189,
            "contract": "src/outerspace/facets/OuterSpaceStakingFacet.sol:OuterSpaceStakingFacet",
            "label": "launchTime",
            "offset": 20,
            "slot": "0",
            "type": "t_uint40"
          },
          {
            "astId": 24191,
            "contract": "src/outerspace/facets/OuterSpaceStakingFacet.sol:OuterSpaceStakingFacet",
            "label": "quantity",
            "offset": 25,
            "slot": "0",
            "type": "t_uint32"
          }
        ],
        "numberOfBytes": "32"
      },
      "t_struct(InFlight)24161_storage": {
        "encoding": "inplace",
        "label": "struct ImportingOuterSpaceTypes.InFlight",
        "members": [
          {
            "astId": 24158,
            "contract": "src/outerspace/facets/OuterSpaceStakingFacet.sol:OuterSpaceStakingFacet",
            "label": "flying",
            "offset": 0,
            "slot": "0",
            "type": "t_uint32"
          },
          {
            "astId": 24160,
            "contract": "src/outerspace/facets/OuterSpaceStakingFacet.sol:OuterSpaceStakingFacet",
            "label": "destroyed",
            "offset": 4,
            "slot": "0",
            "type": "t_uint32"
          }
        ],
        "numberOfBytes": "32"
      },
      "t_struct(Planet)24185_storage": {
        "encoding": "inplace",
        "label": "struct ImportingOuterSpaceTypes.Planet",
        "members": [
          {
            "astId": 24172,
            "contract": "src/outerspace/facets/OuterSpaceStakingFacet.sol:OuterSpaceStakingFacet",
            "label": "owner",
            "offset": 0,
            "slot": "0",
            "type": "t_address"
          },
          {
            "astId": 24174,
            "contract": "src/outerspace/facets/OuterSpaceStakingFacet.sol:OuterSpaceStakingFacet",
            "label": "ownershipStartTime",
            "offset": 20,
            "slot": "0",
            "type": "t_uint40"
          },
          {
            "astId": 24176,
            "contract": "src/outerspace/facets/OuterSpaceStakingFacet.sol:OuterSpaceStakingFacet",
            "label": "exitStartTime",
            "offset": 25,
            "slot": "0",
            "type": "t_uint40"
          },
          {
            "astId": 24178,
            "contract": "src/outerspace/facets/OuterSpaceStakingFacet.sol:OuterSpaceStakingFacet",
            "label": "numSpaceships",
            "offset": 0,
            "slot": "1",
            "type": "t_uint32"
          },
          {
            "astId": 24180,
            "contract": "src/outerspace/facets/OuterSpaceStakingFacet.sol:OuterSpaceStakingFacet",
            "label": "lastUpdated",
            "offset": 4,
            "slot": "1",
            "type": "t_uint40"
          },
          {
            "astId": 24182,
            "contract": "src/outerspace/facets/OuterSpaceStakingFacet.sol:OuterSpaceStakingFacet",
            "label": "travelingUpkeep",
            "offset": 9,
            "slot": "1",
            "type": "t_int40"
          },
          {
            "astId": 24184,
            "contract": "src/outerspace/facets/OuterSpaceStakingFacet.sol:OuterSpaceStakingFacet",
            "label": "overflow",
            "offset": 14,
            "slot": "1",
            "type": "t_uint32"
          }
        ],
        "numberOfBytes": "64"
      },
      "t_uint16": {
        "encoding": "inplace",
        "label": "uint16",
        "numberOfBytes": "2"
      },
      "t_uint256": {
        "encoding": "inplace",
        "label": "uint256",
        "numberOfBytes": "32"
      },
      "t_uint32": {
        "encoding": "inplace",
        "label": "uint32",
        "numberOfBytes": "4"
      },
      "t_uint40": {
        "encoding": "inplace",
        "label": "uint40",
        "numberOfBytes": "5"
      }
    }
  }
}