{
  "address": "0x7F33C175c7fb2f8a305d3AE3D2d5Fda3687Bd76d",
  "abi": [
    {
      "inputs": [
        {
          "components": [
            {
              "internalType": "contract IERC20",
              "name": "stakingToken",
              "type": "address"
            },
            {
              "internalType": "contract AllianceRegistry",
              "name": "allianceRegistry",
              "type": "address"
            },
            {
              "internalType": "bytes32",
              "name": "genesis",
              "type": "bytes32"
            },
            {
              "internalType": "uint256",
              "name": "resolveWindow",
              "type": "uint256"
            },
            {
              "internalType": "uint256",
              "name": "timePerDistance",
              "type": "uint256"
            },
            {
              "internalType": "uint256",
              "name": "exitDuration",
              "type": "uint256"
            },
            {
              "internalType": "uint32",
              "name": "acquireNumSpaceships",
              "type": "uint32"
            },
            {
              "internalType": "uint32",
              "name": "productionSpeedUp",
              "type": "uint32"
            },
            {
              "internalType": "uint256",
              "name": "frontrunningDelay",
              "type": "uint256"
            },
            {
              "internalType": "uint256",
              "name": "productionCapAsDuration",
              "type": "uint256"
            },
            {
              "internalType": "uint256",
              "name": "upkeepProductionDecreaseRatePer10000th",
              "type": "uint256"
            },
            {
              "internalType": "uint256",
              "name": "fleetSizeFactor6",
              "type": "uint256"
            },
            {
              "internalType": "uint32",
              "name": "expansionDelta",
              "type": "uint32"
            },
            {
              "internalType": "uint256",
              "name": "giftTaxPer10000",
              "type": "uint256"
            }
          ],
          "internalType": "struct OuterSpaceFacetBase.Config",
          "name": "config",
          "type": "tuple"
        }
      ],
      "stateMutability": "nonpayable",
      "type": "constructor"
    },
    {
      "anonymous": false,
      "inputs": [
        {
          "indexed": true,
          "internalType": "address",
          "name": "owner",
          "type": "address"
        },
        {
          "indexed": true,
          "internalType": "address",
          "name": "operator",
          "type": "address"
        },
        {
          "indexed": false,
          "internalType": "bool",
          "name": "approved",
          "type": "bool"
        }
      ],
      "name": "ApprovalForAll",
      "type": "event"
    },
    {
      "anonymous": false,
      "inputs": [
        {
          "indexed": true,
          "internalType": "address",
          "name": "owner",
          "type": "address"
        },
        {
          "indexed": true,
          "internalType": "uint256",
          "name": "location",
          "type": "uint256"
        },
        {
          "indexed": false,
          "internalType": "uint256",
          "name": "stake",
          "type": "uint256"
        }
      ],
      "name": "ExitComplete",
      "type": "event"
    },
    {
      "anonymous": false,
      "inputs": [
        {
          "indexed": true,
          "internalType": "uint256",
          "name": "fleet",
          "type": "uint256"
        },
        {
          "indexed": true,
          "internalType": "address",
          "name": "fleetOwner",
          "type": "address"
        },
        {
          "indexed": true,
          "internalType": "address",
          "name": "destinationOwner",
          "type": "address"
        },
        {
          "indexed": false,
          "internalType": "uint256",
          "name": "destination",
          "type": "uint256"
        },
        {
          "indexed": false,
          "internalType": "bool",
          "name": "gift",
          "type": "bool"
        },
        {
          "indexed": false,
          "internalType": "bool",
          "name": "won",
          "type": "bool"
        },
        {
          "components": [
            {
              "internalType": "uint32",
              "name": "newNumspaceships",
              "type": "uint32"
            },
            {
              "internalType": "int40",
              "name": "newTravelingUpkeep",
              "type": "int40"
            },
            {
              "internalType": "uint32",
              "name": "newOverflow",
              "type": "uint32"
            },
            {
              "internalType": "uint32",
              "name": "numSpaceshipsAtArrival",
              "type": "uint32"
            },
            {
              "internalType": "uint32",
              "name": "taxLoss",
              "type": "uint32"
            },
            {
              "internalType": "uint32",
              "name": "fleetLoss",
              "type": "uint32"
            },
            {
              "internalType": "uint32",
              "name": "planetLoss",
              "type": "uint32"
            },
            {
              "internalType": "uint32",
              "name": "inFlightFleetLoss",
              "type": "uint32"
            },
            {
              "internalType": "uint32",
              "name": "inFlightPlanetLoss",
              "type": "uint32"
            },
            {
              "internalType": "uint32",
              "name": "accumulatedDefenseAdded",
              "type": "uint32"
            },
            {
              "internalType": "uint32",
              "name": "accumulatedAttackAdded",
              "type": "uint32"
            }
          ],
          "indexed": false,
          "internalType": "struct ImportingOuterSpaceEvents.ArrivalData",
          "name": "data",
          "type": "tuple"
        }
      ],
      "name": "FleetArrived",
      "type": "event"
    },
    {
      "anonymous": false,
      "inputs": [
        {
          "indexed": true,
          "internalType": "address",
          "name": "fleetSender",
          "type": "address"
        },
        {
          "indexed": true,
          "internalType": "address",
          "name": "fleetOwner",
          "type": "address"
        },
        {
          "indexed": true,
          "internalType": "uint256",
          "name": "from",
          "type": "uint256"
        },
        {
          "indexed": false,
          "internalType": "address",
          "name": "operator",
          "type": "address"
        },
        {
          "indexed": false,
          "internalType": "uint256",
          "name": "fleet",
          "type": "uint256"
        },
        {
          "indexed": false,
          "internalType": "uint32",
          "name": "quantity",
          "type": "uint32"
        },
        {
          "indexed": false,
          "internalType": "uint32",
          "name": "newNumSpaceships",
          "type": "uint32"
        },
        {
          "indexed": false,
          "internalType": "int40",
          "name": "newTravelingUpkeep",
          "type": "int40"
        },
        {
          "indexed": false,
          "internalType": "uint32",
          "name": "newOverflow",
          "type": "uint32"
        }
      ],
      "name": "FleetSent",
      "type": "event"
    },
    {
      "anonymous": false,
      "inputs": [
        {
          "indexed": false,
          "internalType": "bytes32",
          "name": "genesis",
          "type": "bytes32"
        },
        {
          "indexed": false,
          "internalType": "uint256",
          "name": "resolveWindow",
          "type": "uint256"
        },
        {
          "indexed": false,
          "internalType": "uint256",
          "name": "timePerDistance",
          "type": "uint256"
        },
        {
          "indexed": false,
          "internalType": "uint256",
          "name": "exitDuration",
          "type": "uint256"
        },
        {
          "indexed": false,
          "internalType": "uint32",
          "name": "acquireNumSpaceships",
          "type": "uint32"
        },
        {
          "indexed": false,
          "internalType": "uint32",
          "name": "productionSpeedUp",
          "type": "uint32"
        },
        {
          "indexed": false,
          "internalType": "uint256",
          "name": "frontrunningDelay",
          "type": "uint256"
        },
        {
          "indexed": false,
          "internalType": "uint256",
          "name": "productionCapAsDuration",
          "type": "uint256"
        },
        {
          "indexed": false,
          "internalType": "uint256",
          "name": "upkeepProductionDecreaseRatePer10000th",
          "type": "uint256"
        },
        {
          "indexed": false,
          "internalType": "uint256",
          "name": "fleetSizeFactor6",
          "type": "uint256"
        },
        {
          "indexed": false,
          "internalType": "uint32",
          "name": "initialSpaceExpansion",
          "type": "uint32"
        },
        {
          "indexed": false,
          "internalType": "uint32",
          "name": "expansionDelta",
          "type": "uint32"
        },
        {
          "indexed": false,
          "internalType": "uint256",
          "name": "giftTaxPer10000",
          "type": "uint256"
        }
      ],
      "name": "Initialized",
      "type": "event"
    },
    {
      "anonymous": false,
      "inputs": [
        {
          "indexed": true,
          "internalType": "address",
          "name": "owner",
          "type": "address"
        },
        {
          "indexed": true,
          "internalType": "uint256",
          "name": "location",
          "type": "uint256"
        }
      ],
      "name": "PlanetExit",
      "type": "event"
    },
    {
      "anonymous": false,
      "inputs": [
        {
          "indexed": true,
          "internalType": "uint256",
          "name": "location",
          "type": "uint256"
        }
      ],
      "name": "PlanetReset",
      "type": "event"
    },
    {
      "anonymous": false,
      "inputs": [
        {
          "indexed": true,
          "internalType": "address",
          "name": "acquirer",
          "type": "address"
        },
        {
          "indexed": true,
          "internalType": "uint256",
          "name": "location",
          "type": "uint256"
        },
        {
          "indexed": false,
          "internalType": "uint32",
          "name": "numSpaceships",
          "type": "uint32"
        },
        {
          "indexed": false,
          "internalType": "int40",
          "name": "travelingUpkeep",
          "type": "int40"
        },
        {
          "indexed": false,
          "internalType": "uint32",
          "name": "overflow",
          "type": "uint32"
        },
        {
          "indexed": false,
          "internalType": "uint256",
          "name": "stake",
          "type": "uint256"
        }
      ],
      "name": "PlanetStake",
      "type": "event"
    },
    {
      "anonymous": false,
      "inputs": [
        {
          "indexed": true,
          "internalType": "address",
          "name": "previousOwner",
          "type": "address"
        },
        {
          "indexed": true,
          "internalType": "address",
          "name": "newOwner",
          "type": "address"
        },
        {
          "indexed": true,
          "internalType": "uint256",
          "name": "location",
          "type": "uint256"
        },
        {
          "indexed": false,
          "internalType": "uint32",
          "name": "newNumspaceships",
          "type": "uint32"
        },
        {
          "indexed": false,
          "internalType": "int40",
          "name": "newTravelingUpkeep",
          "type": "int40"
        },
        {
          "indexed": false,
          "internalType": "uint32",
          "name": "newOverflow",
          "type": "uint32"
        }
      ],
      "name": "PlanetTransfer",
      "type": "event"
    },
    {
      "anonymous": false,
      "inputs": [
        {
          "indexed": true,
          "internalType": "uint256",
          "name": "location",
          "type": "uint256"
        },
        {
          "indexed": true,
          "internalType": "address",
          "name": "giver",
          "type": "address"
        },
        {
          "indexed": false,
          "internalType": "uint256",
          "name": "rewardId",
          "type": "uint256"
        }
      ],
      "name": "RewardSetup",
      "type": "event"
    },
    {
      "anonymous": false,
      "inputs": [
        {
          "indexed": true,
          "internalType": "address",
          "name": "owner",
          "type": "address"
        },
        {
          "indexed": true,
          "internalType": "uint256",
          "name": "location",
          "type": "uint256"
        },
        {
          "indexed": true,
          "internalType": "uint256",
          "name": "rewardId",
          "type": "uint256"
        }
      ],
      "name": "RewardToWithdraw",
      "type": "event"
    },
    {
      "anonymous": false,
      "inputs": [
        {
          "indexed": true,
          "internalType": "address",
          "name": "owner",
          "type": "address"
        },
        {
          "indexed": false,
          "internalType": "uint256",
          "name": "newStake",
          "type": "uint256"
        }
      ],
      "name": "StakeToWithdraw",
      "type": "event"
    },
    {
      "anonymous": false,
      "inputs": [
        {
          "indexed": true,
          "internalType": "address",
          "name": "from",
          "type": "address"
        },
        {
          "indexed": true,
          "internalType": "address",
          "name": "to",
          "type": "address"
        },
        {
          "indexed": true,
          "internalType": "uint256",
          "name": "location",
          "type": "uint256"
        }
      ],
      "name": "Transfer",
      "type": "event"
    },
    {
      "anonymous": false,
      "inputs": [
        {
          "indexed": true,
          "internalType": "uint256",
          "name": "origin",
          "type": "uint256"
        },
        {
          "indexed": true,
          "internalType": "uint256",
          "name": "fleet",
          "type": "uint256"
        },
        {
          "indexed": false,
          "internalType": "uint32",
          "name": "newNumspaceships",
          "type": "uint32"
        },
        {
          "indexed": false,
          "internalType": "int40",
          "name": "newTravelingUpkeep",
          "type": "int40"
        },
        {
          "indexed": false,
          "internalType": "uint32",
          "name": "newOverflow",
          "type": "uint32"
        }
      ],
      "name": "TravelingUpkeepReductionFromDestruction",
      "type": "event"
    },
    {
      "inputs": [],
      "name": "getAllianceRegistry",
      "outputs": [
        {
          "internalType": "contract AllianceRegistry",
          "name": "",
          "type": "address"
        }
      ],
      "stateMutability": "view",
      "type": "function"
    },
    {
      "inputs": [],
      "name": "getDiscovered",
      "outputs": [
        {
          "components": [
            {
              "internalType": "uint32",
              "name": "minX",
              "type": "uint32"
            },
            {
              "internalType": "uint32",
              "name": "maxX",
              "type": "uint32"
            },
            {
              "internalType": "uint32",
              "name": "minY",
              "type": "uint32"
            },
            {
              "internalType": "uint32",
              "name": "maxY",
              "type": "uint32"
            }
          ],
          "internalType": "struct ImportingOuterSpaceTypes.Discovered",
          "name": "",
          "type": "tuple"
        }
      ],
      "stateMutability": "view",
      "type": "function"
    },
    {
      "inputs": [],
      "name": "getGeneisHash",
      "outputs": [
        {
          "internalType": "bytes32",
          "name": "",
          "type": "bytes32"
        }
      ],
      "stateMutability": "view",
      "type": "function"
    },
    {
      "inputs": [
        {
          "internalType": "uint256[]",
          "name": "locations",
          "type": "uint256[]"
        }
      ],
      "name": "getPlanetStates",
      "outputs": [
        {
          "components": [
            {
              "internalType": "address",
              "name": "owner",
              "type": "address"
            },
            {
              "internalType": "uint40",
              "name": "ownershipStartTime",
              "type": "uint40"
            },
            {
              "internalType": "uint40",
              "name": "exitStartTime",
              "type": "uint40"
            },
            {
              "internalType": "uint32",
              "name": "numSpaceships",
              "type": "uint32"
            },
            {
              "internalType": "uint32",
              "name": "overflow",
              "type": "uint32"
            },
            {
              "internalType": "uint40",
              "name": "lastUpdated",
              "type": "uint40"
            },
            {
              "internalType": "bool",
              "name": "active",
              "type": "bool"
            },
            {
              "internalType": "uint256",
              "name": "reward",
              "type": "uint256"
            }
          ],
          "internalType": "struct ImportingOuterSpaceTypes.ExternalPlanet[]",
          "name": "planetStates",
          "type": "tuple[]"
        },
        {
          "components": [
            {
              "internalType": "uint32",
              "name": "minX",
              "type": "uint32"
            },
            {
              "internalType": "uint32",
              "name": "maxX",
              "type": "uint32"
            },
            {
              "internalType": "uint32",
              "name": "minY",
              "type": "uint32"
            },
            {
              "internalType": "uint32",
              "name": "maxY",
              "type": "uint32"
            }
          ],
          "internalType": "struct ImportingOuterSpaceTypes.Discovered",
          "name": "discovered",
          "type": "tuple"
        }
      ],
      "stateMutability": "view",
      "type": "function"
    }
  ],
  "transactionHash": "0x75b8d6661a7a1449c091d22b986675b1d3f47e6075402b5196aafc5201ac20fc",
  "args": [
    {
      "stakingToken": "0xc1363e26Fd017c585Aa5072486BeF1131eCe6560",
      "allianceRegistry": "0xE7Bd2e660DfDcc230c61527757010631B1b56aca",
      "genesis": "0xf69ea25ce5e4aa509188e7ece284702358d8df5e656a9a3c8509506343f9faa8",
      "resolveWindow": 43200,
      "timePerDistance": 7200,
      "exitDuration": 259200,
      "acquireNumSpaceships": 100000,
      "productionSpeedUp": 1,
      "frontrunningDelay": 1800,
      "productionCapAsDuration": 259200,
      "upkeepProductionDecreaseRatePer10000th": 5000,
      "fleetSizeFactor6": 500000,
      "initialSpaceExpansion": 12,
      "expansionDelta": 4,
      "giftTaxPer10000": 2000
    }
  ],
  "numDeployments": 2,
  "linkedData": {
    "genesisHash": "0xf69ea25ce5e4aa509188e7ece284702358d8df5e656a9a3c8509506343f9faa8",
    "resolveWindow": 43200,
    "timePerDistance": 7200,
    "exitDuration": 259200,
    "acquireNumSpaceships": 100000,
    "productionSpeedUp": 1,
    "chainGenesisHash": "",
    "frontrunningDelay": 1800,
    "productionCapAsDuration": 259200,
    "upkeepProductionDecreaseRatePer10000th": 5000,
    "fleetSizeFactor6": 500000,
    "initialSpaceExpansion": 12,
    "expansionDelta": 4,
    "giftTaxPer10000": 2000
  },
  "solcInputHash": "62f22cc80533c9bef3f381738960726f",
  "bytecode": "0x61024060405234801561001157600080fd5b50604051610a90380380610a90833981016040819052610030916101ae565b806000600482608001516100449190610281565b60808301519091506100578260046102b2565b63ffffffff16146100ae5760405162461bcd60e51b815260206004820152601d60248201527f54494d455f5045525f444953545f4e4f545f444956495349424c455f34000000604482015260640160405180910390fd5b81516001600160a01b0390811660805260208301511660a0908152604083015160c0908152606084015160e090815263ffffffff9384166101009081529285015161012090815291850151841661014090815290850151841661016090815292850151610180908152918501516101a0908152908501516101c052918401516101e05283015190911661020052015161022052506102ec565b6040516101c081016001600160401b038111828210171561017857634e487b7160e01b600052604160045260246000fd5b60405290565b80516001600160a01b038116811461019557600080fd5b919050565b805163ffffffff8116811461019557600080fd5b60006101c082840312156101c157600080fd5b6101c9610147565b6101d28361017e565b81526101e06020840161017e565b602082015260408301516040820152606083015160608201526080830151608082015260a083015160a082015261021960c0840161019a565b60c082015261022a60e0840161019a565b60e0820152610100838101519082015261012080840151908201526101408084015190820152610160808401519082015261018061026981850161019a565b908201526101a0928301519281019290925250919050565b600063ffffffff808416806102a657634e487b7160e01b600052601260045260246000fd5b92169190910492915050565b600063ffffffff808316818516818304811182151516156102e357634e487b7160e01b600052601160045260246000fd5b02949350505050565b60805160a05160c05160e05161010051610120516101405161016051610180516101a0516101c0516101e051610200516102205161072261036e6000396000505060005050600050506000505060005050600050506000505060005050600050506000505060005050600060560152600061014a0152600050506107226000f3fe608060405234801561001057600080fd5b506004361061004c5760003560e01c80637cef64d814610051578063aba789f514610084578063c5aaa0ae146100a5578063e852544414610130575b600080fd5b6040517f000000000000000000000000000000000000000000000000000000000000000081526020015b60405180910390f35b610097610092366004610436565b610174565b60405161007b9291906104ab565b610123604080516080810182526000808252602082018190529181018290526060810191909152506040805160808101825260055463ffffffff80821683526401000000008204811660208401526801000000000000000082048116938301939093526c010000000000000000000000009004909116606082015290565b60405161007b91906105a5565b60405173ffffffffffffffffffffffffffffffffffffffff7f000000000000000000000000000000000000000000000000000000000000000016815260200161007b565b604080516080810182526000808252602082018190529181018290526060818101929092528267ffffffffffffffff8111156101b2576101b26105e4565b60405190808252806020026020018201604052801561023f57816020015b604080516101008101825260008082526020808301829052928201819052606082018190526080820181905260a0820181905260c0820181905260e082015282527fffffffffffffffffffffffffffffffffffffffffffffffffffffffffffffffff9092019101816101d05790505b50915060005b838110156103b957600061027c86868481811061026457610264610613565b90506020020135600090815260208190526040902090565b600181015490915060009081906102989063ffffffff16610417565b6040805161010081018252865473ffffffffffffffffffffffffffffffffffffffff8116825264ffffffffff7401000000000000000000000000000000000000000082048116602084015279010000000000000000000000000000000000000000000000000090910481169282019290925263ffffffff808416606083015260018801546e01000000000000000000000000000081049091166080830152640100000000900490911660a082015282151560c0820152919350915060e08101600760008b8b8981811061036d5761036d610613565b9050602002013581526020019081526020016000205481525086858151811061039857610398610613565b602002602001018190525050505080806103b190610642565b915050610245565b50506040805160808101825260055463ffffffff80821683526401000000008204811660208401526801000000000000000082048116938301939093526c010000000000000000000000009004909116606082015290939092509050565b638000000081811681149060009061042f90846106a2565b9050915091565b6000806020838503121561044957600080fd5b823567ffffffffffffffff8082111561046157600080fd5b818501915085601f83011261047557600080fd5b81358181111561048457600080fd5b8660208260051b850101111561049957600080fd5b60209290920196919550909350505050565b60a080825283518282018190526000919060c090818501906020808901865b8381101561055d578151805173ffffffffffffffffffffffffffffffffffffffff1686528381015164ffffffffff9081168588015260408083015182169088015260608083015163ffffffff90811691890191909152608080840151909116908801528882015116888701528681015115158787015260e0908101519086015261010090940193908201906001016104ca565b505082955061059981880189805163ffffffff908116835260208083015182169084015260408083015182169084015260609182015116910152565b50505050509392505050565b608081016105de8284805163ffffffff908116835260208083015182169084015260408083015182169084015260609182015116910152565b92915050565b7f4e487b7100000000000000000000000000000000000000000000000000000000600052604160045260246000fd5b7f4e487b7100000000000000000000000000000000000000000000000000000000600052603260045260246000fd5b60007fffffffffffffffffffffffffffffffffffffffffffffffffffffffffffffffff82141561069b577f4e487b7100000000000000000000000000000000000000000000000000000000600052601160045260246000fd5b5060010190565b600063ffffffff808416806106e0577f4e487b7100000000000000000000000000000000000000000000000000000000600052601260045260246000fd5b9216919091069291505056fea26469706673582212203595217481b46c3bfbf61f1d79eece60f7861b1974fa930c5c36390d98421a9664736f6c63430008090033",
  "devdoc": {
    "kind": "dev",
    "methods": {},
    "version": 1
  },
  "userdoc": {
    "kind": "user",
    "methods": {},
    "version": 1
  },
  "storageLayout": {
    "storage": [
      {
        "astId": 17373,
        "contract": "src/outerspace/facets/OuterSpaceInformationFacet.sol:OuterSpaceInformationFacet",
        "label": "_planets",
        "offset": 0,
        "slot": "0",
        "type": "t_mapping(t_uint256,t_struct(Planet)24185_storage)"
      },
      {
        "astId": 17378,
        "contract": "src/outerspace/facets/OuterSpaceInformationFacet.sol:OuterSpaceInformationFacet",
        "label": "_fleets",
        "offset": 0,
        "slot": "1",
        "type": "t_mapping(t_uint256,t_struct(Fleet)24192_storage)"
      },
      {
        "astId": 17382,
        "contract": "src/outerspace/facets/OuterSpaceInformationFacet.sol:OuterSpaceInformationFacet",
        "label": "_stakeReadyToBeWithdrawn",
        "offset": 0,
        "slot": "2",
        "type": "t_mapping(t_address,t_uint256)"
      },
      {
        "astId": 17388,
        "contract": "src/outerspace/facets/OuterSpaceInformationFacet.sol:OuterSpaceInformationFacet",
        "label": "_operators",
        "offset": 0,
        "slot": "3",
        "type": "t_mapping(t_address,t_mapping(t_address,t_bool))"
      },
      {
        "astId": 17395,
        "contract": "src/outerspace/facets/OuterSpaceInformationFacet.sol:OuterSpaceInformationFacet",
        "label": "_inFlight",
        "offset": 0,
        "slot": "4",
        "type": "t_mapping(t_uint256,t_mapping(t_uint256,t_struct(InFlight)24161_storage))"
      },
      {
        "astId": 17398,
        "contract": "src/outerspace/facets/OuterSpaceInformationFacet.sol:OuterSpaceInformationFacet",
        "label": "_discovered",
        "offset": 0,
        "slot": "5",
        "type": "t_struct(Discovered)24170_storage"
      },
      {
        "astId": 17402,
        "contract": "src/outerspace/facets/OuterSpaceInformationFacet.sol:OuterSpaceInformationFacet",
        "label": "_prevRewardIds",
        "offset": 0,
        "slot": "6",
        "type": "t_mapping(t_address,t_uint256)"
      },
      {
        "astId": 17406,
        "contract": "src/outerspace/facets/OuterSpaceInformationFacet.sol:OuterSpaceInformationFacet",
        "label": "_rewards",
        "offset": 0,
        "slot": "7",
        "type": "t_mapping(t_uint256,t_uint256)"
      },
      {
        "astId": 17412,
        "contract": "src/outerspace/facets/OuterSpaceInformationFacet.sol:OuterSpaceInformationFacet",
        "label": "_rewardsToWithdraw",
        "offset": 0,
        "slot": "8",
        "type": "t_mapping(t_address,t_mapping(t_uint256,t_bool))"
      },
      {
        "astId": 17421,
        "contract": "src/outerspace/facets/OuterSpaceInformationFacet.sol:OuterSpaceInformationFacet",
        "label": "_attacks",
        "offset": 0,
        "slot": "9",
        "type": "t_mapping(t_uint256,t_mapping(t_address,t_mapping(t_uint256,t_struct(AccumulatedAttack)24265_storage)))"
      }
    ],
    "types": {
      "t_address": {
        "encoding": "inplace",
        "label": "address",
        "numberOfBytes": "20"
      },
      "t_bool": {
        "encoding": "inplace",
        "label": "bool",
        "numberOfBytes": "1"
      },
      "t_int40": {
        "encoding": "inplace",
        "label": "int40",
        "numberOfBytes": "5"
      },
      "t_mapping(t_address,t_bool)": {
        "encoding": "mapping",
        "key": "t_address",
        "label": "mapping(address => bool)",
        "numberOfBytes": "32",
        "value": "t_bool"
      },
      "t_mapping(t_address,t_mapping(t_address,t_bool))": {
        "encoding": "mapping",
        "key": "t_address",
        "label": "mapping(address => mapping(address => bool))",
        "numberOfBytes": "32",
        "value": "t_mapping(t_address,t_bool)"
      },
      "t_mapping(t_address,t_mapping(t_uint256,t_bool))": {
        "encoding": "mapping",
        "key": "t_address",
        "label": "mapping(address => mapping(uint256 => bool))",
        "numberOfBytes": "32",
        "value": "t_mapping(t_uint256,t_bool)"
      },
      "t_mapping(t_address,t_mapping(t_uint256,t_struct(AccumulatedAttack)24265_storage))": {
        "encoding": "mapping",
        "key": "t_address",
        "label": "mapping(address => mapping(uint256 => struct ImportingOuterSpaceTypes.AccumulatedAttack))",
        "numberOfBytes": "32",
        "value": "t_mapping(t_uint256,t_struct(AccumulatedAttack)24265_storage)"
      },
      "t_mapping(t_address,t_uint256)": {
        "encoding": "mapping",
        "key": "t_address",
        "label": "mapping(address => uint256)",
        "numberOfBytes": "32",
        "value": "t_uint256"
      },
      "t_mapping(t_uint256,t_bool)": {
        "encoding": "mapping",
        "key": "t_uint256",
        "label": "mapping(uint256 => bool)",
        "numberOfBytes": "32",
        "value": "t_bool"
      },
      "t_mapping(t_uint256,t_mapping(t_address,t_mapping(t_uint256,t_struct(AccumulatedAttack)24265_storage)))": {
        "encoding": "mapping",
        "key": "t_uint256",
        "label": "mapping(uint256 => mapping(address => mapping(uint256 => struct ImportingOuterSpaceTypes.AccumulatedAttack)))",
        "numberOfBytes": "32",
        "value": "t_mapping(t_address,t_mapping(t_uint256,t_struct(AccumulatedAttack)24265_storage))"
      },
      "t_mapping(t_uint256,t_mapping(t_uint256,t_struct(InFlight)24161_storage))": {
        "encoding": "mapping",
        "key": "t_uint256",
        "label": "mapping(uint256 => mapping(uint256 => struct ImportingOuterSpaceTypes.InFlight))",
        "numberOfBytes": "32",
        "value": "t_mapping(t_uint256,t_struct(InFlight)24161_storage)"
      },
      "t_mapping(t_uint256,t_struct(AccumulatedAttack)24265_storage)": {
        "encoding": "mapping",
        "key": "t_uint256",
        "label": "mapping(uint256 => struct ImportingOuterSpaceTypes.AccumulatedAttack)",
        "numberOfBytes": "32",
        "value": "t_struct(AccumulatedAttack)24265_storage"
      },
      "t_mapping(t_uint256,t_struct(Fleet)24192_storage)": {
        "encoding": "mapping",
        "key": "t_uint256",
        "label": "mapping(uint256 => struct ImportingOuterSpaceTypes.Fleet)",
        "numberOfBytes": "32",
        "value": "t_struct(Fleet)24192_storage"
      },
      "t_mapping(t_uint256,t_struct(InFlight)24161_storage)": {
        "encoding": "mapping",
        "key": "t_uint256",
        "label": "mapping(uint256 => struct ImportingOuterSpaceTypes.InFlight)",
        "numberOfBytes": "32",
        "value": "t_struct(InFlight)24161_storage"
      },
      "t_mapping(t_uint256,t_struct(Planet)24185_storage)": {
        "encoding": "mapping",
        "key": "t_uint256",
        "label": "mapping(uint256 => struct ImportingOuterSpaceTypes.Planet)",
        "numberOfBytes": "32",
        "value": "t_struct(Planet)24185_storage"
      },
      "t_mapping(t_uint256,t_uint256)": {
        "encoding": "mapping",
        "key": "t_uint256",
        "label": "mapping(uint256 => uint256)",
        "numberOfBytes": "32",
        "value": "t_uint256"
      },
      "t_struct(AccumulatedAttack)24265_storage": {
        "encoding": "inplace",
        "label": "struct ImportingOuterSpaceTypes.AccumulatedAttack",
        "members": [
          {
            "astId": 24258,
            "contract": "src/outerspace/facets/OuterSpaceInformationFacet.sol:OuterSpaceInformationFacet",
            "label": "target",
            "offset": 0,
            "slot": "0",
            "type": "t_address"
          },
          {
            "astId": 24260,
            "contract": "src/outerspace/facets/OuterSpaceInformationFacet.sol:OuterSpaceInformationFacet",
            "label": "numAttackSpent",
            "offset": 20,
            "slot": "0",
            "type": "t_uint32"
          },
          {
            "astId": 24262,
            "contract": "src/outerspace/facets/OuterSpaceInformationFacet.sol:OuterSpaceInformationFacet",
            "label": "damageCausedSoFar",
            "offset": 24,
            "slot": "0",
            "type": "t_uint32"
          },
          {
            "astId": 24264,
            "contract": "src/outerspace/facets/OuterSpaceInformationFacet.sol:OuterSpaceInformationFacet",
            "label": "averageAttackPower",
            "offset": 28,
            "slot": "0",
            "type": "t_uint16"
          }
        ],
        "numberOfBytes": "32"
      },
      "t_struct(Discovered)24170_storage": {
        "encoding": "inplace",
        "label": "struct ImportingOuterSpaceTypes.Discovered",
        "members": [
          {
            "astId": 24163,
            "contract": "src/outerspace/facets/OuterSpaceInformationFacet.sol:OuterSpaceInformationFacet",
            "label": "minX",
            "offset": 0,
            "slot": "0",
            "type": "t_uint32"
          },
          {
            "astId": 24165,
            "contract": "src/outerspace/facets/OuterSpaceInformationFacet.sol:OuterSpaceInformationFacet",
            "label": "maxX",
            "offset": 4,
            "slot": "0",
            "type": "t_uint32"
          },
          {
            "astId": 24167,
            "contract": "src/outerspace/facets/OuterSpaceInformationFacet.sol:OuterSpaceInformationFacet",
            "label": "minY",
            "offset": 8,
            "slot": "0",
            "type": "t_uint32"
          },
          {
            "astId": 24169,
            "contract": "src/outerspace/facets/OuterSpaceInformationFacet.sol:OuterSpaceInformationFacet",
            "label": "maxY",
            "offset": 12,
            "slot": "0",
            "type": "t_uint32"
          }
        ],
        "numberOfBytes": "32"
      },
      "t_struct(Fleet)24192_storage": {
        "encoding": "inplace",
        "label": "struct ImportingOuterSpaceTypes.Fleet",
        "members": [
          {
            "astId": 24187,
            "contract": "src/outerspace/facets/OuterSpaceInformationFacet.sol:OuterSpaceInformationFacet",
            "label": "owner",
            "offset": 0,
            "slot": "0",
            "type": "t_address"
          },
          {
            "astId": 24189,
            "contract": "src/outerspace/facets/OuterSpaceInformationFacet.sol:OuterSpaceInformationFacet",
            "label": "launchTime",
            "offset": 20,
            "slot": "0",
            "type": "t_uint40"
          },
          {
            "astId": 24191,
            "contract": "src/outerspace/facets/OuterSpaceInformationFacet.sol:OuterSpaceInformationFacet",
            "label": "quantity",
            "offset": 25,
            "slot": "0",
            "type": "t_uint32"
          }
        ],
        "numberOfBytes": "32"
      },
      "t_struct(InFlight)24161_storage": {
        "encoding": "inplace",
        "label": "struct ImportingOuterSpaceTypes.InFlight",
        "members": [
          {
            "astId": 24158,
            "contract": "src/outerspace/facets/OuterSpaceInformationFacet.sol:OuterSpaceInformationFacet",
            "label": "flying",
            "offset": 0,
            "slot": "0",
            "type": "t_uint32"
          },
          {
            "astId": 24160,
            "contract": "src/outerspace/facets/OuterSpaceInformationFacet.sol:OuterSpaceInformationFacet",
            "label": "destroyed",
            "offset": 4,
            "slot": "0",
            "type": "t_uint32"
          }
        ],
        "numberOfBytes": "32"
      },
      "t_struct(Planet)24185_storage": {
        "encoding": "inplace",
        "label": "struct ImportingOuterSpaceTypes.Planet",
        "members": [
          {
            "astId": 24172,
            "contract": "src/outerspace/facets/OuterSpaceInformationFacet.sol:OuterSpaceInformationFacet",
            "label": "owner",
            "offset": 0,
            "slot": "0",
            "type": "t_address"
          },
          {
            "astId": 24174,
            "contract": "src/outerspace/facets/OuterSpaceInformationFacet.sol:OuterSpaceInformationFacet",
            "label": "ownershipStartTime",
            "offset": 20,
            "slot": "0",
            "type": "t_uint40"
          },
          {
            "astId": 24176,
            "contract": "src/outerspace/facets/OuterSpaceInformationFacet.sol:OuterSpaceInformationFacet",
            "label": "exitStartTime",
            "offset": 25,
            "slot": "0",
            "type": "t_uint40"
          },
          {
            "astId": 24178,
            "contract": "src/outerspace/facets/OuterSpaceInformationFacet.sol:OuterSpaceInformationFacet",
            "label": "numSpaceships",
            "offset": 0,
            "slot": "1",
            "type": "t_uint32"
          },
          {
            "astId": 24180,
            "contract": "src/outerspace/facets/OuterSpaceInformationFacet.sol:OuterSpaceInformationFacet",
            "label": "lastUpdated",
            "offset": 4,
            "slot": "1",
            "type": "t_uint40"
          },
          {
            "astId": 24182,
            "contract": "src/outerspace/facets/OuterSpaceInformationFacet.sol:OuterSpaceInformationFacet",
            "label": "travelingUpkeep",
            "offset": 9,
            "slot": "1",
            "type": "t_int40"
          },
          {
            "astId": 24184,
            "contract": "src/outerspace/facets/OuterSpaceInformationFacet.sol:OuterSpaceInformationFacet",
            "label": "overflow",
            "offset": 14,
            "slot": "1",
            "type": "t_uint32"
          }
        ],
        "numberOfBytes": "64"
      },
      "t_uint16": {
        "encoding": "inplace",
        "label": "uint16",
        "numberOfBytes": "2"
      },
      "t_uint256": {
        "encoding": "inplace",
        "label": "uint256",
        "numberOfBytes": "32"
      },
      "t_uint32": {
        "encoding": "inplace",
        "label": "uint32",
        "numberOfBytes": "4"
      },
      "t_uint40": {
        "encoding": "inplace",
        "label": "uint40",
        "numberOfBytes": "5"
      }
    }
  }
}